:020000040800F2
:10000000882B0020C5020008C93F0008E939000814
:10001000213C0008290900088D5E0008000000004E
:10002000000000000000000000000000A14B0008DC
:100030000B2E000800000000794400086D510008F4
:10004000DF020008DF020008DF020008DF0200080C
:10005000DF020008DF020008DF020008DF020008FC
:10006000DF020008DF020008DF020008DF020008EC
:10007000DF020008DF020008DF020008DF020008DC
:10008000DF020008DF020008DF020008790A00082A
:100090003D0A0008DF020008DF020008DF02000856
:1000A000DF020008DF020008DF020008DF020008AC
:1000B000155200088D520008DF020008DF02000818
:1000C000DF020008DF020008DF020008DF0200088C
:1000D000DF02000881580008DF02000839590008D3
:1000E000DF020008DF020008DF020008DF0200086C
:1000F000DF020008DF020008DF020008DF0200085C
:10010000DF020008DF020008DF020008DF0200084B
:10011000DF020008DF02000835530008DF02000894
:10012000DF020008DF020008DF020008DF0200082B
:10013000DF020008DF020008DF020008E50B00080C
:10014000A90B0008DF020008DF020008DF02000838
:10015000DF020008DF020008DF020008255B00085C
:10016000DF020008DF020008DF020008DF020008EB
:10017000DF020008DF020008DF02000800000000C4
:10018000DF020008DF020008D9540008DF0200087F
:10019000DF020008DF020008DF020008DF020008BB
:1001A0000000000000000000DF02000800F002F87C
:1001B00000F05EF80AA090E8000C82448344AAF1A3
:1001C0000107DA4501D100F053F8AFF2090EBAE8A1
:1001D0000F0013F0010F18BFFB1A43F0010318477B
:1001E00088800000A88000000A444FF0000C10F83E
:1001F000013B13F0070408BF10F8014B1D1108BFA5
:1002000010F8015B641E05D010F8016B641E01F844
:10021000016BF9D113F0080F1EBF10F8014BAD1C94
:100220000C1B09D16D1E58BF01F801CBFAD505E0B2
:1002300014F8016B01F8016B6D1EF9D59142D6D30C
:10024000704700000023002400250026103A28BF34
:1002500078C1FBD8520728BF30C148BF0B60704738
:100260001FB507F032FE00F064F81FBD10B510BDD9
:1002700000F0B2F81146FFF7F3FF06F0F1FE00F0D0
:10028000D0F803B4FFF7F2FF03BC06F0F9FC00005E
:100290000B49D1F800C04A685CF8043B1068184468
:1002A00042F8040B8C4528BFA1F1DC0C8A4228BF20
:1002B000A1F1DC02C1F800C04A6020F000407047A4
:1002C0001C1600200948804709480047FEE7FEE762
:1002D000FEE7FEE7FEE7FEE7FEE7FEE7FEE7FEE7F6
:1002E00004480549054A064B704700007151000853
:1002F000AD01000888160020882B0020881B0020F4
:10030000881B0020704700000B4910B5A1F17C024A
:100310000A4CC2E93712372106E000EB104342F8DD
:100320002130074B00FB03400B1EA1F10101F4DC5F
:1003300010BD0120E8E70000BC150020E119D666D9
:10034000CD0D010010B5203AC0F00B80B1E8185077
:10035000203AA0E81850B1E81850A0E81850BFF4AF
:10036000F5AF5FEA027C24BFB1E81850A0E818504E
:1003700044BF18C918C0BDE810405FEA827C24BFA2
:1003800051F8043B40F8043B08BF7047D20728BF30
:1003900031F8023B48BF11F8012B28BF20F8023B7F
:1003A00048BF00F8012B704770477047704770478F
:1003B00010B500F009F8006810BD10B5044600F053
:1003C00003F8046010BD00000048704724160020A8
:1003D00000487047241600207546FFF7F9FFAE4627
:1003E00005006946534620F00700854618B020B541
:1003F000FFF776FFBDE820404FF000064FF0000702
:100400004FF000084FF0000B21F00701AC46ACE8BC
:10041000C009ACE8C009ACE8C009ACE8C0098D4629
:1004200070470446AFF300802046FFF72AFF000024
:1004300010B52DED048B7048007870490870704835
:10044000007800287ED16F4890ED101BB0EE410A75
:10045000F0EE610A51EC100B06F08CFF6A4908605F
:10046000084690ED000ABDEEC00A10EE100A4FF4E7
:10047000B47190FBF1F065490860634890ED000AA3
:10048000BDEEC00A10EE100A4FF4B47190FBF1F209
:1004900001FB120000F5B47090FBF1F201FB1200B9
:1004A00000B25B4908805548007858BB0846B0F94F
:1004B0000000F02811DB0846B0F90000B0F5A87F75
:1004C0000BDA52480068C0EB001000EB40005A21E4
:1004D00001EBC0004F49086022E04D48B0F9000030
:1004E0009B2810DB4A48B0F90000F0280BDC474895
:1004F0000068C0EB001000EB4000B42101EBC0002D
:10050000444908600CE03F4890ED101BB0EE410AF2
:10051000F0EE610A51EC100B07F0A6F93D490860B6
:100520003648007801283BD13948B0F90000B0F5D1
:10053000A77F12DD3648B0F900003C280DDC3348B7
:10054000006800E054E0C0EB001000EB40005A21CE
:10055000C1EBC0002F49086022E02D48B0F900002F
:100560003C2810DB2A48B0F900009B280BDC274808
:100570000068C0EB001000EB4000B421C1EBC000EC
:10058000244908600CE01F4890ED101BB0EE410AB2
:10059000F0EE610A51EC100B07F066F91D49086096
:1005A0001C48006807F08FF941EC190B154890EDD5
:1005B000101BB0EE410AF0EE610A53EC102B51EC27
:1005C000190B07F027FB41EC180B9FED130B53ECB5
:1005D000102B07F0DDFA03D201201149087002E068
:1005E00002200F4908700F480088401C0D49088000
:1005F000BDEC048B10BD0000B40A0020460B0020A7
:100600001B0A0020B0130020D40A00201C01002087
:100610002001002024010020000000000000F03F25
:1006200028010020440B002010B54FF4A06003F017
:1006300009FD04F0D1FD04F057FE04F0FBFD00F0CD
:1006400075F900F027FA05F07BF84FF4E13006F079
:1006500041FD05F0CBF94FF4E13006F0DDFD03F08C
:100660000DFF10BD7B48007801287DD17A48C088F5
:100670007A4908800846008879490988401A7949EA
:10068000086079480088401C00B2774908807548A6
:10069000006810F10A0F0EDC0846B0F9001073482C
:1006A00002680068401C714B1860714820F81210F5
:1006B00001207049086069480088782871DD6B481E
:1006C00000680F2837DB6B480068012833D1674882
:1006D0000068401E664931F91010644800680F3800
:1006E000634A32F91000081A634908605F480068DD
:1006F000401E114631F910105C4800680F3832F97D
:100700001000081A3C2816DA58480068401E1146A6
:1007100031F9101055480068401F32F91000081ACE
:10072000062808DD0020554908600120544908705A
:1007300000205049086053480068401C5149086037
:10074000084600683C280DDA084600680A2809DDDA
:100750004448006810F1640F04DC01204A49086035
:100760004A4908603F4800E072E0006810F1640FF9
:100770000ADC0020414908600120414908704349D2
:10078000086000203F49086041480068401C40491B
:10079000086008460068B0F5967F02DD00203D49FC
:1007A00008602E480088782841DA00203349086024
:1007B0000120334908702B48006810F10A0F0DDC46
:1007C0003548006850B9012030490860002033499D
:1007D00008600120324908602F4908602F480068EE
:1007E000401C2E49086008460068642802D9002091
:1007F0002B49086029480068B0F5967F02D900208F
:10080000254908601748006810F10A0F02DC002033
:100810001F4908601E480068401C1D4908600846C2
:100820000068B0F5967F02DD00201A4908600D4887
:10083000006810F10A0F07DC0A48006810F1140F75
:1008400002DB012017490870044800880449088029
:10085000704700001A0A0020B6110020420B002049
:10086000400B0020880A00208C0A0020900A0020FB
:100870003E110020940A0020B00A0020780A0020CF
:10088000170A0020740A0020140B0020040B00201B
:10089000980A00209C0A0020840A00207C0A00207C
:1008A000180B00201B0A002010B502F0E1FF0428FD
:1008B00007D002F0DDFF062803D002F0D9FF05289B
:1008C00025D113480088B0F5C87F20DA1148007898
:1008D00001281CD102F0FEFF0F494860084640681D
:1008E0000968401A0C4988600C4800780C4991FB53
:1008F000F0F009498968884209DA0A480088401CF2
:1009000000B20849088002F0E5FF0349086010BD05
:100910003E0B00205D0A0020750B00206C0A0020B1
:1009200010EB0900080A002000BFFEE700B589B0FF
:100930000121082003F074FE0121480603F080FE27
:10094000092200213B4802F05BFF092201213948BE
:1009500002F056FF0320079002208DF8200007A91F
:10096000344802F005FF344800F0BAF904A800F05A
:10097000F2FB00208DF816008DF817008DF8180096
:100980008DF819008DF81A0001208DF81B00002049
:100990008DF812008DF8130008208DF81400032044
:1009A0008DF81500ADF8100004A9234800F0D1FA25
:1009B00000208DF80A008DF80B0001208DF80C0046
:1009C0000020ADF80000ADF80200ADF80400ADF86D
:1009D0000600ADF8080001208DF80D00684600F013
:1009E0009BF901220221144800F0AAFA01221146C3
:1009F000114800F0A5FA14208DF8200001208DF890
:100A000021008DF822008DF8230008A803F0DEFAFB
:100A100013208DF8200001208DF8210000208DF892
:100A2000220001208DF8230008A803F0CFFA09B0B6
:100A300000BD0000000C02400064004000B585B01D
:100A400002210B4800F0ECF978B10221084800F0CF
:100A5000F3F80849064800F0D3F86A460021044834
:100A600000F001FB684600F033FE05B000BD000059
:100A7000006400400800003210B50121044800F075
:100A8000CFF918B10121024800F0D6F810BD0000DE
:100A90000064004000B589B00121022003F0C0FDD0
:100AA0000121880603F0CCFD09220C213C4802F00C
:100AB000A7FE09220D213A4802F0A2FE4FF4405051
:100AC000079002208DF8200007A9354802F050FE5B
:100AD000344800F005F904A800F03DFB00208DF833
:100AE00016008DF817008DF818008DF819008DF894
:100AF0001A0001208DF81B0000208DF812008DF8DF
:100B0000130008208DF8140003208DF81500ADF8AF
:100B1000100004A9234800F01CFA0E208DF80A00EA
:100B200000208DF80B0001208DF80C000020ADF89E
:100B30000000ADF80200ADF80400ADF80600ADF815
:100B4000080001208DF80D00684600F0E5F801224C
:100B50000221144800F0F4F901221146114800F076
:100B6000EFF940208DF8200001208DF821008DF84C
:100B700022008DF8230008A803F028FA3F208DF802
:100B8000200001208DF8210000208DF82200012096
:100B90008DF8230008A803F019FA09B000BD000081
:100BA000000402400068004000B585B002210B48F7
:100BB00000F036F978B10221084800F03DF8084904
:100BC000064800F01DF86A460021044800F04BFA80
:100BD000684600F07FFE05B000BD000000680040E0
:100BE0000800003210B50121044800F019F918B1CD
:100BF0000121024800F020F810BD0000006800400C
:100C000000220C4B994202D10023836111E0C1F311
:100C1000130201F000730BB1C2600AE001F08063BF
:100C20000BB1026105E001F000630BB1826000E0EE
:100C3000426070477000F030B1F5007F3AD00FDCB1
:100C4000202928D006DC01291CD004291DD0082920
:100C500040D11DE0402921D0B1F5807F3AD126E076
:100C6000B1F5004F31D006DCB1F5806F25D0B1F57C
:100C7000006F2FD124E0B1F5803F12D0B1F5003FD5
:100C800028D111E0154A826025E00822C26022E0E6
:100C90001022C2601FE0082202611CE010220261E3
:100CA00019E00822426016E01022426013E004229C
:100CB000426010E0042242600DE0042242600AE03B
:100CC000002282610422426005E000228261042247
:100CD000426000E000BF00BF70470000010101005A
:100CE00010B504460B48844209D10121480603F09F
:100CF000B7FC00214FF0007003F0B2FC08E00121C6
:100D0000880603F0ADFC00214FF0806003F0A8FCE2
:100D100010BD00000064004010B50021837A01225C
:100D200002FA03F13D4A126842F001023B4B1A609D
:100D30003A4A1C3212688A43384B1C331A60027BD1
:100D4000CAB9364A0C3212688A43344B0C331A60E3
:100D50004288C38842EA0343304A4032847A42F8E8
:100D600034300288838842EA03432C4A4032847A32
:100D700002EBC4025360027B012A19D1274A0C32CC
:100D800012680A43254B0C331A604288038842EAF2
:100D90000343224A4032847A42F83430C28883883E
:100DA00042EA03431D4A4032847A02EBC402536094
:100DB000C27A3AB9194A121D12688A43174B1B1D91
:100DC0001A6006E0154A121D12680A43134B1B1DD8
:100DD0001A60028932B9114A143212688A430F4BE1
:100DE00014331A600289012A06D10C4A143212689F
:100DF0000A430A4B14331A60427B012A06D1074A80
:100E00001C3212680A43054B1C331A60034A1268ED
:100E100022F00102014B1A6010BD00000066004084
:100E200070B504460D46002660692840002871D040
:100E3000B5F5807F5CD010DC082D35D006DC012DA7
:100E400020D0022D24D0042D72D127E0102D31D0D6
:100E5000202D35D0402D6BD138E0B5F5004F60D056
:100E600009DCB5F5007F49D0B5F5806F4CD0B5F5FC
:100E7000006F5DD14FE0B5F5803F2DD0B5F5003F57
:100E800056D12FE0A0682D4901F0E8FD064651E05B
:100E9000E068032101F0E2FD06464BE0E06808212E
:100EA00001F0DCFD064645E0E068102101F0D6FDCA
:100EB00006463FE02069032101F0D0FD064639E0F7
:100EC0002069082101F0CAFD064633E0206910219F
:100ED00001F0C4FD06462DE06068082101F0BEFD6A
:100EE000064627E06068102101F0B8FD064621E0C3
:100EF000A069012101F0B2FD06461BE0A0690221B4
:100F000001F0ACFD064615E0A069042101F0A6FD44
:100F100006460FE00FE0A069702101F09FFD064634
:100F200008E06068042101F099FD064602E0FFE751
:100F3000002600BF00E00026304670BD0101010020
:100F40001AB143690B43436102E043698B43436138
:100F5000704730B5024600200023146824F00204D4
:100F60001460146844F00104146000E05B1C5468D1
:100F700004F001041CB94FF6FF74A342F6D1546883
:100F800004F001040CB900206CE08C79012C04D130
:100F9000146844F08004146003E0146824F08004B2
:100FA0001460CC79012C04D1146844F0400414601E
:100FB00003E0146824F0400414600C7A012C04D17E
:100FC000146844F02004146003E0146824F0200442
:100FD00014604C7A012C04D1146844F0100414609D
:100FE00003E0146824F0100414608C7A012C04D1FE
:100FF000146844F00804146003E0146824F0080442
:101000001460CC7A012C04D1146844F004041460F8
:1010100003E0146824F0040414608C78A407CD78ED
:1010200044EA05640D7944EA05444D7944EA0554DF
:101030000D886D1E2C43D461146824F001041460E3
:10104000002300E05B1C546804F001041CB14FF65F
:10105000FF74A342F6D1546804F001040CB10020DF
:1010600000E0012030BD10B500F5D87303EB01138B
:101070001B6803F004031372137A53B900F5D87395
:1010800003EB01131B6840F2FF7404EA535313602F
:1010900009E000F5D87303EB01131B686FF060449F
:1010A00004EAD303536000F5D87303EB01131B6804
:1010B00003F00203537200F5D87303EB01135B686E
:1010C00003F00F03937200F5D87303EB01135B6811
:1010D0001B0AD37400F5D87303EB01139B68D3721A
:1010E00000F5D87303EB01139B681C0A147300F519
:1010F000D87303EB01139B681C0C547300F5D87371
:1011000003EB01139B681B0E937300F5D87303EB7D
:101110000113DB68D37300F5D87303EB0113DB68AD
:101120001C0A147400F5D87303EB0113DB681C0C64
:10113000547400F5D87303EB0113DB681B0E937432
:1011400021B9C36843F02003C36003E0036943F09F
:101150002003036110BD00218171C17101724172D0
:101160008172C1728170C1700321017102214171CC
:1011700001210180704710B502460020936803F0FA
:101180008063B3F1806F00D110E0936803F00063D7
:10119000B3F1006F01D1012008E0936803F08053A0
:1011A000B3F1805F01D1022000E00420042874D054
:1011B00002F5C07303EB00131B6803F0010402F592
:1011C000C07303EB00131C600B7A7BB94B7A0C885D
:1011D00043EA445302F5C07404EB0014246823432B
:1011E00002F5C07404EB0014236010E00B7A4C6825
:1011F00043EAC4034C7A234302F5C07404EB0014A1
:101200002468234302F5C07404EB001423608B7A36
:1012100003F00F038B7202F5C07303EB00135B68DE
:1012200023F00F0402F5C07303EB00135C6002F5BA
:10123000C07303EB00135B688C7A234302F5C07420
:1012400004EB001463608B7B1C064B7B44EA034475
:101250000B7B44EA0323CC7A234302F5C07404EBEE
:101260000014A3608B7C1C064B7C44EA03440B7C7B
:1012700044EA0323CC7B234302F5C07404EB00143F
:10128000E36002F5C07303EB00131B6843F0010435
:1012900002F5C07303EB00131C6010BD70B52DED9B
:1012A0000C8B82B0EB4890ED022BB0EE420AF0EED0
:1012B000620A90ED002BB0EE421AF0EE621A53EC87
:1012C000102B51EC110B06F0A5FC41EC1D0BB0EE00
:1012D0004D0AF0EE6D0A05F023FCB0EE40CAF0EEC8
:1012E00060CA9FEDDD0B53EC102B51EC1C0B06F08C
:1012F00051FB41EC1B0BB0EE4B0AF0EE6B0A05F014
:1013000063FAB0EE40AAF0EE60AA9FEDD50B53EC65
:10131000102B51EC1A0B06F071FC41EC190B9FEDF0
:10132000D20B53EC102B06F035FB41EC180B9FED64
:10133000CE0B53EC102B06F04FF8C64AC2E9080159
:101340009FEDCB0B104680ED0A0B9FEDC90B80ED96
:101350000C0B9FEDC90BCA4880ED080BC94880ED06
:10136000080B9FEDC90BC64880ED0A0BC54880ED00
:101370000A0B9FEDC70BC24880ED0C0BC14880EDF6
:101380000C0B02F075FA072802D002F071FAD0B9FE
:101390009FEDC10BAF4880ED080B9FEDBB0B80EDBF
:1013A0000A0B9FEDBF0B80ED0C0B9FEDB10B80ED99
:1013B000000BBD49886B06F086FAA64AC2E9020115
:1013C0001046816F884702F053FA042840D1B7488D
:1013D000006868B9B648006806F006FD41EC180BD5
:1013E0009FEDB40B53EC102B06F0D4FA994A03C2CC
:1013F000AE48006801280DD1AD48006806F0F4FC45
:1014000041EC180B9FEDAB0B53EC102B06F0C2FA1E
:10141000904A03C2A449886B06F055FA8D4AC2E986
:1014200002011046816F8847A449886B06F04BFA89
:10143000944AC2E902011046816F8847A049886B2F
:1014400006F041FA8E4AC2E902011046816F8847D0
:1014500002F00EFA012807D002F00AFA062803D09B
:1014600002F006FA082828D1914890ED000AB1EE62
:10147000400A10EE100A06F0B7FC764A03C28A4909
:10148000886B06F020FA734AC2E902011046816FA8
:1014900088478A49886B06F016FA7A4AC2E902013F
:1014A0001046816F88478649886B06F00CFA744AAB
:1014B000C2E902011046816F884702F0D9F9052878
:1014C00023D17B48006806F08FFC624A03C276494C
:1014D000886B06F0F8F95F4AC2E902011046816F95
:1014E00088477649886B06F0EEF9664AC2E9020140
:1014F0001046816F88477249886B06F0E4F9604AAC
:10150000C2E902011046816F884702F0B1F907284D
:1015100002D002F0ADF9E8BB4E4890ED021BB0EEF0
:10152000410AF0EE610A9FED5A1B53EC112B51EC6E
:10153000100B06F0F3F918D8464890ED021BB0EEF8
:10154000410AF0EE610A9FED5F1B53EC112B51EC49
:10155000100B06F01DFB08D800200346024601468A
:1015600000905A4803F030FD70E03A4890ED1A1BA5
:10157000B0EE410AF0EE610A51EC100B06F074F97E
:1015800004B2002003460246214600904F4803F073
:101590001BFD5BE0FFE702F06BF904282BD1384814
:1015A00090ED1A1BB0EE410AF0EE610A51EC100BFF
:1015B00006F05AF904B2334890ED1A1BB0EE410A16
:1015C000F0EE610A51EC100B06F04EF905B221481D
:1015D00090ED1A1BB0EE410AF0EE610A51EC100BCF
:1015E00006F042F906B22B460022314637480094F5
:1015F00003F0EAFC2AE0224890ED1A1BB0EE410A03
:10160000F0EE610A51EC100B06F02EF904B21D4801
:1016100090ED1A1BB0EE410AF0EE610A51EC100B8E
:1016200006F022F905B20B4890ED1A1BB0EE410A04
:10163000F0EE610A51EC100B06F016F906B22B46DB
:10164000002231462148009403F0BEFC02B0BDECFC
:101650000C8B70BD180200209A9999999999B9BF7D
:10166000000000000000F03F0000000000005940B2
:1016700000000000000000000000000000004E40DC
:10168000E003002048030020000000000000E03FCD
:101690000000000000002440000000000000444062
:1016A0000000000000001440501200203C01002007
:1016B000D0090020333333333333D3BF001300203A
:1016C0005813002000000000000024C00064004007
:1016D00010B5044674480068401C7349086040F225
:1016E00001222168881A914219D010DC40295DD06E
:1016F00006DC302957D0312956D0322973D154E035
:10170000502954D0602953D07029F7D151E00728CF
:1017100069D2DFE800F0C615263784B84F000120F3
:101720006249087060480068322804D82146604841
:1017300002F094F803E021465D4802F0F9FAB1E0C6
:1017400001205A49087058480068322804D82146B8
:10175000584802F083F803E02146564802F0E8FAC0
:10176000A0E00120514908704F480068322804D891
:101770002146514802F072F803E021464E4802F03B
:10178000D7FA8FE00120494908704748006832289D
:1017900004D82146494802F061F803E02146474851
:1017A00002F0C6FA7EE07DE07CE07BE07AE079E062
:1017B00078E077E03C480068322826D2214640484D
:1017C00002F04CF83E4840693E49B1F90010401A19
:1017D000B0F5805F08DD3B48008800F5005000B29E
:1017E000384908801AE05CE0354840693549B1F96C
:1017F0000010401A10F5805F10DA32480088A0F51A
:10180000005000B22F49088008E02E48B0F90000CF
:101810002B49486121462A4802F030FB42E0224829
:101820000068322825D22146274802F017F82648BA
:1018300040692649B1F90010401AB0F5805F07DD14
:101840002248008800F5005000B22049088019E0C5
:101850001D4840691D49B1F90010401A10F5805F1C
:1018600010DA1A480088A0F5005000B21749088025
:1018700008E01648B0F900001349486121461248B3
:1018800002F0FCFA0EE008480068322804D821462D
:101890000F4801F0E3FF03E021460D4802F0C2F9D2
:1018A00000E000BF00BF10BD340B00201A0A00206A
:1018B00050120020A812002000130020581300200E
:1018C000B01300203A0B002008140020380B002031
:1018D000B814002010B5044607480068401C0649AB
:1018E00008602068902803D1204601F08FFA00E0BC
:1018F00000BF00BF10BD0000340B002010B52DED5F
:10190000048B0446A078E17840EA012000B2FA494D
:1019100008802079617940EA012000B2F6494880C8
:10192000A0798880E079F5490880207A4880607A3B
:10193000F3490880A07A4880F2480078F2490860AC
:10194000207852287ED160784D28FBD1A07841289C
:1019500078D0EE4890ED000AF7EE000A30EE200A4B
:1019600080ED000AE448B0F9000000EE100AB8EE7D
:10197000C00AE74880ED000ADF48B0F9020000EE37
:10198000100AB8EEC00AE34880ED000A0120DD49E4
:1019900008700020E0498887E048007A03280AD1CF
:1019A000DE48007A032806D1DD484068042802D1C9
:1019B0000120DC49087001F08DFFDB4948600846D2
:1019C00040680968401AD8498860D8480078401CA7
:1019D000D649087008460078012819D1D44890EDFE
:1019E000101BB0EE410AF0EE610A51EC100B05F04D
:1019F000C1FCD0490860D04890ED101BB0EE410A00
:101A0000F0EE610A51EC100B05F0B4FCCB49086014
:101A1000C64800781E2802DD1E20C449087001F067
:101A200027FF072810D001F023FF68B101F020FF45
:101A3000062809D001F01CFF052805D001F018FF89
:101A4000012800E0CAE01AD1B94890ED101BB0EEB1
:101A5000410AF0EE610A51EC100B05F08BFCB8491D
:101A60000860B54890ED101BB0EE410AF0EE610A37
:101A700051EC100B05F07EFCB2490860AAE09E49CB
:101A8000B1F9000005F01FFF41EC190B9FEDAE0B03
:101A900053EC102B05F054FD41EC180B05F06AFCDB
:101AA000A7490860084690ED000AA948D0ED000A51
:101AB00030EE600AA74880ED000A90ED000ADFEDE5
:101AC000A60AB4EEE00AF1EE10FA08D290ED000A90
:101AD000DFEDA20A30EE200A80ED000A11E09D48F9
:101AE00090ED000ADFED9E0AB4EEE00AF1EE10FA86
:101AF00007DD90ED000ADFED990A30EE600A80ED17
:101B0000000A8548B0F93C0023281BDA8C4890ED88
:101B1000000A8148B0F91410808A401C00B27E4A45
:101B20009082104600EB810080ED000A1046B0F96B
:101B30001400052802DB0020114688820020764927
:101B4000888710E0002008E09FED860A724901EBCB
:101B5000800181ED000A411CC8B20528F4DB002099
:101B60006D49888288876448808881B27E4802787F
:101B70000078401C7C4B18707C4820F812101846E6
:101B800000780A2802DB002019460870774805F023
:101B9000B3F8774908805849B1F9020005F093FE7F
:101BA00041EC190B9FED680B53EC102B05F0C8FCB2
:101BB00041EC180B05F0DEFB62490860604890EDCF
:101BC000000A6C4880ED000A084690ED000A6A4859
:101BD00080ED000A01F07EFE53490860207852280B
:101BE00049D160784D2846D1A078412843D1E0788A
:101BF000412840D1207941283DD19FED5A0A4448DF
:101C000080ED000A9FED570A424880ED000A5B48CC
:101C100090ED000AFBEE040AB4EEE00AF1EE10FAD1
:101C200004D8BBEE040A80ED000A0DE0534890EDA5
:101C3000000AF2EE0A0AB4EEE00AF1EE10FA03DB53
:101C4000B2EE0A0A80ED000A3348808F401C00B2D1
:101C5000314988870846B0F93C00232801DB23205E
:101C600088872D48B0F93C00232804DC9FED3D0A0D
:101C7000384880ED000A2848B0F93C00232819DBD9
:101C800000202A4908709FED370A324880ED000A8B
:101C9000294890ED101BB0EE410AF0EE610A51ECBC
:101CA000100B05F067FB2749086000201D490870EC
:101CB000144908701948007A032806D1184840686A
:101CC000042802D101202E49087001F0D1FD04281A
:101CD00008D11248007A022804D100201149087066
:101CE000274908702748006820B927480068274915
:101CF000086059E04CE00000200000202600002091
:101D00002A000020160A00208400002094000020F1
:101D1000880000208C000020340F002028150020AF
:101D2000101500205D0A00208F0B0020810000208C
:101D3000B013002008010020081400200C0100202E
:101D40003C0000203400002000000000000059404A
:101D5000C800002040000020000048C30000B44339
:101D600000004843000000004C000020200F00202D
:101D70004A0000203800002030000020A409002084
:101D80002D0A0020040A00200C0A00206400002014
:101D90000748006807490968401A40F6C41188429C
:101DA00002D9002004490870BDEC048B10BD00006E
:101DB0000C0A002064000020160A002010B52DED4A
:101DC000048B01F055FD012807D001F051FD0428D6
:101DD00003D001F04DFD08287DD1904800780128FE
:101DE0002ED18F48008801282AD18E48007810B162
:101DF000012824D111E09FED8C0A8C4880ED000A67
:101E00008B480068401C8A4908608A4800688A49F3
:101E1000086000208249088011E09FED880A83480D
:101E200080ED000A83480068401C824908608048B1
:101E300000688349086000207949088000BF00BF1E
:101E4000764800780128C7D17848006805F0CCFFB3
:101E500041EC190B7B4890ED101BB0EE410AF0EEFF
:101E6000610A53EC102B51EC190B05F0D3FE41EC39
:101E7000180B05F0F9FC041E01DB204600E060426F
:101E800005281DDA6748007810B101280CD105E05B
:101E90009FED650A654880ED000A05E09FED670A41
:101EA000624880ED000A00BF00BF5E480078401C19
:101EB0005C49087008460078022801DB00200870A1
:101EC00061480068401C604908606048007800284C
:101ED00001D15F4800E09DE090ED000A5D4880ED93
:101EE000000A08460068401C0860084600685A4915
:101EF000884202DD01205949086058480068D0BB7B
:101F00004A48006805F070FF41EC180B4D4890ED11
:101F1000101BB0EE410AF0EE610A53EC102B51ECAD
:101F2000180B05F035FE0AD24D480068404200EE1D
:101F3000100AB8EEC00A464880ED000A1BE03B4894
:101F4000006805F051FF41EC180B3E4890ED101B66
:101F5000B0EE410AF0EE610A53EC102B51EC180B75
:101F600005F0DCFC07D23E4890ED000AB8EEC00A4E
:101F7000374880ED000A3948006801283AD12B48DB
:101F8000006805F031FF41EC180B2E4890ED101B56
:101F9000B0EE410AF0EE610A53EC102B51EC180B35
:101FA00005F0F6FD0AD22E480068404200EE100A05
:101FB000B8EEC00A264880ED000A1BE01B48006806
:101FC00005F012FF41EC180B1E4890ED101BB0EE0F
:101FD000410AF0EE610A53EC102B51EC180B05F09E
:101FE0009DFC07D21E4890ED000AB8EEC00A1848C2
:101FF00080ED000A174890ED000A1548D0ED000A60
:1020000020EE200AB5EEC00AF1EE10FA02D201204D
:102010000E490870BDEC048B10BD00001A0A0020A8
:10202000EA0A00202901002000401C46BC090020CB
:1020300058010020600100206401002000401CC6FF
:102040005C010020501200204001002016010020F9
:10205000C4090020C0090020F04902003C01002012
:102060007801002010B52DED088BFE480068FE4970
:102070000968401A40F2DC51884205D90020FB492A
:102080000870FB49086052E0F6480068F6490968A4
:10209000401A12D0F748008878280EDDF64800680C
:1020A00058B9F348006840B9C820F44908600120D5
:1020B000F1490860EE49086039E0EA480068EA49F9
:1020C0000968401A1AD0EB480088782816DDEA48DB
:1020D0000068012812D1E648006878B9FEF7D8F800
:1020E000962190FBF1F201FB1200E4490860002008
:1020F000E14908600120DE49086018E0D94800681D
:10210000D9490968401A40F6C411B0FBF1F201FB4D
:10211000120060B9D7480088782808DAFEF7B8F8C6
:10212000962190FBF1F201FB1200D449086001F006
:102130009FFB05287ED1D24800680028FAD1D148FB
:10214000006801286DD10024641C002C65DB0A2C7A
:1021500063DCCD48006805F047FE41EC1A0BCB4824
:1021600090ED101BB0EE410AF0EE610A53EC102B1B
:1021700051EC1A0B05F04EFD41EC190BB0EE490A7B
:10218000F0EE690A04F0CCFCB0EE408AF0EE608A12
:102190009FEDBF0B53EC102B51EC180B05F0BEFB61
:1021A00008D2B94890ED000A80ED000A0120BA4932
:1021B000086032E0B448006805F016FE41EC1B0BE5
:1021C000B24890ED101BB0EE410AF0EE610A53ECFC
:1021D000102B51EC1B0B05F01DFD41EC1A0B9FED74
:1021E000AF0B53EC102B05F0D5FB41EC190BA748B6
:1021F00090ED101BB0EE410AF0EE610A53EC102B8B
:1022000051EC190B05F0E8F841EC180B05F0B2F8A9
:102210009D4908600120A049086000209949086094
:1022200000BFA0480078012884D19B48006801289D
:1022300073D100E074E29C48008801282FD104F09B
:102240007BFD9A48007810B1012827D112E0984907
:10225000B1F90000002801DB014600E0414200EE38
:10226000101AB8EEC00A884981ED000A00208E4994
:10227000088013E08E49B1F90000002801DB014617
:1022800000E04142494200EE101AB8EEC00A7E4911
:1022900081ED000A00208449088000BF00BF754816
:1022A0000088782875DB83480068012871D182484E
:1022B000006841F2883188423CD280480068522848
:1022C00003D07E4800684C2815D173480068012867
:1022D00011D17648007810B1012808D103E002201E
:1022E0007749086003E001207549086000BF00BF1E
:1022F00000207149086073480068522803D0714873
:1023000000684C2816D164480068012812D167483B
:10231000007818B1012809D104E071E10120684971
:10232000086003E002206649086000BF00BF00208B
:10233000614908606048006841F28831884201D9EB
:10234000012000E000205C490968B1F57A5F01D204
:10235000012100E000210840D8B158480068522807
:1023600002D1022056490860544800684C2802D126
:1023700001205349086053480068522802D10120C7
:102380004F4908604F4800684C2802D102204C4950
:1023900008603848008878285FDA4B48006864286D
:1023A0003BD846480068522803D0444800684C286F
:1023B00015D139480068012811D13C48007810B186
:1023C000012808D103E002203D49086003E0012014
:1023D0003B49086000BF00BF00203749086039480A
:1023E0000068522803D0374800684C2815D12A4885
:1023F0000068012811D12D48007810B1012808D1BA
:1024000003E001202E49086003E002202C49086007
:1024100000BF00BF0020284908602B4800686428DE
:102420001BD926480068522802D10220244908609E
:10243000224800684C2802D1012021490860214827
:102440000068522802D101201D4908601D4800681B
:102450004C2802D102201A4908600B48006805F098
:10246000C3FC33E00C0A0020280A0020170A0020D1
:10247000300B0020420B00202C0B0020280B0020EA
:10248000A00A0020180B0020BC09002050120020D8
:102490000000000000007940080B00207B14AE47CC
:1024A000E17A743F1A0A0020EA0A0020290100207C
:1024B0000E0B00209C0A0020780A0020500000200B
:1024C0001C0B0020540000207C0A002041EC1A0B59
:1024D000FE4890ED101BB0EE410AF0EE610A53EC9D
:1024E000102B51EC1A0B05F095FB41EC190BB0EEDB
:1024F000490AF0EE690A04F013FBB0EE408AF0EEF0
:10250000608A9FEDF30B53EC102B51EC180B05F088
:1025100005FA75D2F0480088782842DBEF48006859
:1025200041F2883188423CD2ED48006858B904F045
:1025300003FCEC48B0F9000000EE100AB8EEC00A47
:10254000E94880ED000AE6480068012829D104F036
:10255000F3FBE648007810B1012821D10FE0E149F2
:10256000B1F90000002801DB014600E0414200EE25
:10257000101AB8EEC00ADC4981ED000A10E0D94912
:10258000B1F90000002801DB014600E04142494268
:1025900000EE101AB8EEC00AD34981ED000A00BF60
:1025A00000BFCD48008878283DDAD148006801286E
:1025B0000BD104F0C1FBCB48B0F9000000EE100ACB
:1025C000B8EEC00AC84880ED000AC9480068B8B92A
:1025D00004F0B2FBC548007810B1012822D110E008
:1025E000C049B1F90000002801DB014600E041428A
:1025F00000EE101AB8EEC00ABB4981ED000A11E0E6
:1026000011E0B849B1F90000002801DB014600E003
:102610004142494200EE101AB8EEC00AB24981EDBB
:10262000000A00BF00BFB3480078002878D1B24844
:1026300090ED000AB14880ED000AAB48006805F053
:10264000D3FB41EC180BA14890ED101BB0EE410AF2
:10265000F0EE610A53EC102B51EC180B05F05EF90B
:102660005FD2A148006805F0BFFB41EC1A0B974808
:1026700090ED101BB0EE410AF0EE610A53EC102B06
:1026800051EC1A0B05F0C6FA41EC190BB0EE490AF1
:10269000F0EE690A04F044FAB0EE408AF0EE608A87
:1026A0009FED970B53EC102B51EC180B05F070FAC3
:1026B00028D289480088782812DB8848006841F2CF
:1026C000883188420CD890480068904909680844CD
:1026D000404200EE100AB8EEC00A874880ED000ABA
:1026E0007D48008878280CDA87480068874909689F
:1026F0000844404200EE100AB8EEC00A7E4880ED61
:10270000000A7DE08048006880490968084440422A
:1027100000EE100AB8EEC00A774880ED000A6FE0BC
:1027200089E17148006805F05FFB41EC180B6748D0
:1027300090ED101BB0EE410AF0EE610A53EC102B45
:1027400051EC180B05F024FA5AD26748006805F0DE
:102750004BFB41EC1A0B5D4890ED101BB0EE410AAB
:10276000F0EE610A53EC102B51EC1A0B05F052FA03
:1027700041EC190BB0EE490AF0EE690A04F0D0F909
:10278000B0EE408AF0EE608A9FED5D0B53EC102BAB
:1027900051EC180B05F0FCF926D24F480088782838
:1027A00011DB4E48006841F2883188420BD8564808
:1027B000006856490968084400EE100AB8EEC00ADD
:1027C0004D4880ED000A44480088782818DA4E48C1
:1027D00000684E490968084400EE100AB8EEC00AC5
:1027E000454880ED000A0BE0474800684749096802
:1027F000084400EE100AB8EEC00A3F4880ED000A17
:102800003D4890ED000A3D48D0ED000A30EE600AE8
:1028100010EE101A084605F0E7FA41EC190BB0EE7D
:10282000490AF0EE690A04F07BF9B0EE408AF0EE56
:10283000608A9FED370B53EC102B51EC180B05F011
:10284000A7F96FD22D4890ED000A2B48D0ED000A71
:1028500020EE200AB5EEC00AF1EE10FA62DD27483C
:1028600090ED000A2C4880ED000A234890ED000A04
:102870002A4880ED000A2148006805F0B5FA41ECCD
:102880001A0BB0EE4A0AF0EE6A0A04F049F9B0EE0B
:10289000408AF0EE608A1848006805F0A5FA41EC1D
:1028A0001A0BB0EE4A0AF0EE6A0A04F039F9B0EEFB
:1028B000409AF0EE609A53EC182B51EC190B05F08E
:1028C00067F934D20120164908702CE0501200201C
:1028D0000000000000001440420B0020780A002095
:1028E000140B00200E0B0020BC0900202901002041
:1028F000180B002016010020C4090020C009002088
:102900000000000000407F40240B0020280B002026
:102910000000000000C06240C8090020CC0900206F
:102920001701002030E04548816988472CE0444881
:10293000006805F059FA41EC1A0BB0EE4A0AF0EEC5
:102940006A0A04F0EDF8B0EE409AF0EE609A3D4865
:10295000006805F049FA41EC1A0BB0EE4A0AF0EEB5
:102960006A0A04F0DDF8B0EE408AF0EE608A53ECBB
:10297000192B51EC180B04F0D1FF05D2012032497C
:1029800008702E48816988473048007801281FD197
:102990002A48016988472E48D0ED000A2D4890ED5D
:1029A000001A30EEC11AD0ED000A41EE000A2548A7
:1029B000C0ED000A214801698847F7EE000AB4EE2D
:1029C000600AF1EE10FA26D100202049087022E0BA
:1029D0001D48007801281ED11848016988471C4805
:1029E000D0ED000A1B4890ED001A30EEC11AD0ED70
:1029F000000A41EE000A1348C0ED000A0F480169C1
:102A00008847F7EE000AB4EE600AF1EE10FA02D140
:102A100000200D4908700A4890ED000A0948D0EDE1
:102A2000000A20EE200AB5EEC00AF1EE10FA02D23A
:102A3000012009490870BDEC088B10BD80090020F9
:102A4000C0090020C409002018010020170100203F
:102A5000CC090020C80900201601002002460020F1
:102A600002EA01030BB1012000E0002070470000E2
:102A700010B51C480068801C1A49086003F008FA69
:102A800003F0E8FA03F03CFC03F00EFE00F054FC07
:102A900000F036FA00F0AAFF00F006FAFDF704FF96
:102AA00002F0EEFA02F0C0F9FFF788F9FFF7DAFA60
:102AB00000F01AFFFEF7F2FB01F024FD00F00AFF20
:102AC00009494860084640680968401A0649886014
:102AD000084680680549884202DD002004490870E4
:102AE00010BD00000C0A0020820B002020A107006E
:102AF000180A002010B50020244908602448C16F3E
:102B000088472448C16F88472348C16F88472348B6
:102B1000C16F88472248C16F88472248C16F8847E4
:102B20002148C16F88472148C16F88472048C16F3D
:102B300088472048C16F88471F484FF4C871C26951
:102B400090471D48816988471C484FF4FA61C26963
:102B500090471B484FF4FA61C26990471748816952
:102B600088471748816988479FED160A164880ED07
:102B7000000A9FED140A154880ED000A144890EDF4
:102B8000000A124880ED010A10BD00000C0A002066
:102B900018020020B002002048030020E0030020BB
:102BA0001005002040060020D806002070070020F5
:102BB00008080020A0080020800900203809002013
:102BC0005C09002000000000D0090020A4090020BA
:102BD0000801002021B1026842F00102026003E016
:102BE000026822F00102026070470000016821F0D3
:102BF000010101600021016041608160C1600161EB
:102C0000212141614A49884204D13D21484A103A74
:102C100091608CE046491831884205D14FF47461C7
:102C2000434A103A916082E041493031884205D1EF
:102C30004FF474113E4A103A916078E03C494831B3
:102C4000884205D14FF07461394A103A91606EE0C4
:102C500037496031884204D13649354A103AD1604B
:102C600065E033497831884204D13349304A103A1B
:102C7000D1605CE02E499031884204D12F492C4A22
:102C8000103AD16053E02A49A831884205D14FF06B
:102C90003D51274A103AD16049E02949884204D180
:102CA0003D21274A083A116041E025491831884200
:102CB00005D14FF47461224A083A116037E0204987
:102CC0003031884205D14FF474111D4A083A116021
:102CD0002DE01B494831884205D14FF07461184AF4
:102CE000083A116023E016496031884204D1114945
:102CF000134A121F11601AE011497831884204D139
:102D00000D490F4A121F116011E00D4990318842A0
:102D100004D10A490A4A121F116008E00849A83183
:102D2000884204D14FF03D51054A121F116070478F
:102D3000106002403D000020400F002000003D20B8
:102D40001064024021B1026842F48022026003E074
:102D5000026822F480220260704722B1036843F4C3
:102D60000023036003E0036823F400230360016190
:102D700070470146486880B27047014600200A68E3
:102D800002F400220AB1012000E000207047000098
:102D900010B500220268134B1A40CC680B6823431D
:102DA0004C6923438C692343CC6923430C6A234336
:102DB0004C6A23438C6A23434C6B23438C6B234321
:102DC0001A430260426922F00702D1E90B3423431F
:102DD0001A4342610B6943604B6883608B68C36030
:102DE00010BD00003F801CF0002101604160816047
:102DF000C160016141618161C161016241628162C1
:102E0000C16201634163816370477047C17A024ABE
:102E10001160017B516070471015002070B50446A9
:102E2000D4E9000140EA0120218940EA0140217BE8
:102E300040EA016020612069C0F3C7507F386061BB
:102E40002069C0F31600A061002527E05DB9B0EE4F
:102E5000000AA16A60698847F7EE000A20EE200A9E
:102E600084ED080A19E0691E4FF480020A41A06946
:102E70001040C5F117010841E0616269501BB0EED6
:102E8000000AA16A8847D4ED080A94ED071AB8EE43
:102E9000C11A41EE000AC4ED080A6D1C182DD5DBDD
:102EA00094ED080A70BD000010B50F4800780128A5
:102EB0000CD10E490988484204F005FD0C4A03C2B2
:102EC0000A49088804F016FD0A4A03C20648007839
:102ED00048B99FED090B064880ED000B9FED060BEE
:102EE000044880ED000B10BD2D0A00205E0A002072
:102EF00048030020E0030020000000000000000064
:102F000010B52DED0C8BE64890ED000AFBEE040A9F
:102F1000B4EEE00AF1EE10FA04D8BBEE040A80ED3C
:102F2000000A0DE0DE4890ED000AF2EE0A0AB4EE67
:102F3000E00AF1EE10FA03DBB2EE0A0A80ED000AB5
:102F400000F096FC052805D1D6480078012801D16B
:102F5000D549086000F08CFC052805D1D1480078DF
:102F600010B90220D049086000F082FC04287CD10E
:102F7000CE48006804F038FF41EC1B0BB0EE4B0A62
:102F8000F0EE6B0A03F0CCFDB0EE409AF0EE609AE2
:102F9000C648006804F028FF41EC1A0B53EC192BCB
:102FA00004F0CEFA41EC180B04F0E4F9C0490860D3
:102FB000BE4890ED000AB1EE400A10EE100A04F08F
:102FC00013FFBC4A03C2BC4890ED100BB94880ED1A
:102FD000020B90ED022BB0EE420AF0EE620A90ED89
:102FE000002BB0EE421AF0EE621A53EC102B51ECAB
:102FF000110B04F00FFE41EC180B9FEDB00B53ECDE
:10300000102B04F0C5FD01D2012000E0002018B112
:103010000120AC49086002E00020AA490860A548E8
:1030200090ED022BB0EE420AF0EE620A90ED002B1A
:10303000B0EE421AF0EE621A53EC102B51EC110B69
:1030400004F0E8FD41EC1D0BB0EE4D0AF0EE6D0A08
:1030500003F066FDB0EE40CAF0EE60CA9FED9A0B39
:1030600053EC102B51EC1C0B00E046E004F092FCFA
:1030700041EC1B0BB0EE4B0AF0EE6B0A03F0A4FB25
:10308000B0EE40AAF0EE60AA9FED910B53EC102B2E
:1030900051EC1A0B04F0B2FD41EC190B9FED8E0BB5
:1030A00053EC102B04F076FC41EC180B9FED8C0BCD
:1030B00053EC102B04F090F97E4AC2E908019FED11
:1030C0008A0B104680ED0A0B9FED810B80ED0C0BF7
:1030D0009FED870B884880ED080B9FED880B80EDF6
:1030E0000A0B9FED880B80ED0C0B1046816F884713
:1030F000704890ED1A0B80ED1A0B00F0B9FB78B117
:1031000000F0B6FB01280BD000F0B2FB062807D078
:1031100000F0AEFB082803D06348006802286CD199
:103120009FED7A0B634880ED080B9FED7A0B80EDE5
:103130000A0B9FED740B80ED0C0B9FED780B6E4826
:1031400080ED080B9FED6D0B80ED0A0B9FED6B0B77
:1031500080ED0C0B00F08CFB18B100F089FB072808
:1031600022D19FED660B534880ED000B6D4801693D
:10317000884710EE104A204604F036FE41EC180B4A
:103180004D4890ED101BB0EE410AF0EE610A53EC91
:10319000102B51EC180B04F0FDFB464AC2E902016A
:1031A0001046816F884728E03D4890ED000AB1EE57
:1031B000400A10EE101A084604F016FE3D4A03C2FB
:1031C00058480169884710EE104A204604F00CFE6A
:1031D00041EC180B384890ED101BB0EE410AF0EEB0
:1031E000610A53EC102B51EC180B04F0D3FB314A5D
:1031F000C2E902011046816F88472E4890ED1A1BE4
:10320000B0EE410AF0EE610A53EC102B9FED461B25
:1032100051EC110B04F0BEFB374A03C22649886B00
:1032200004F051FB41EC180B9FED410B53EC102BBC
:1032300004F0B0FB304AC2E902011046816F8847B2
:103240002D4890ED1A1BB0EE410AF0EE610A03F032
:1032500067FCB0EE409AF0EE609A274890ED1A1B9A
:10326000B0EE410AF0EE610A53EC192B51EC100B51
:1032700004F066F941EC180B1F4890ED1A1BB0EEF4
:10328000410AF0EE610A53EC102B51EC180B04F0DC
:10329000A3F8194AC2E91A01BDEC0C8B10BD00005D
:1032A000A4090020160A0020F8090020340000209C
:1032B000F009002010050020081400200000000084
:1032C00000001440040A00209A9999999999B9BF6D
:1032D000000000000000F03F000000000000084077
:1032E0000000000000005440FCA9F1D24D62503FA4
:1032F00000000000000059404006002000000000CF
:10330000000000000000000000000040000000007D
:10331000000044407B14AE47E17A843F0000000087
:103320000000344038090020CDCCCCCCCCCCDC3FE4
:10333000333333333333D33F10B52DED0C8B00F0E3
:1033400097FA042803D0E048006801287DD1DF48BF
:1033500090ED000ADE48D0ED000A30EE600ADD484C
:1033600080ED000AD8480068DB4908600020D64993
:103370000860D748006804F037FD41EC1B0BB0EE45
:103380004B0AF0EE6B0A03F0CBFBB0EE408AF0EE96
:10339000608ACF48006804F027FD41EC1A0B53EC1B
:1033A000182B04F0CDF841EC190B03F0E3FFCB49E7
:1033B0000860CB4890ED020ACA48D0ED000A30EE12
:1033C000200A10EE101A084604F00EFDC64A03C289
:1033D000C34890ED020A10EE101A084604F004FDEE
:1033E000C14AC2E90201104690ED022BB0EE420A3A
:1033F000F0EE620A90ED002BB0EE421AF0EE621A87
:1034000053EC102B51EC110B04F004FC41EC1D0BA0
:10341000B0EE4D0AF0EE6D0A03F082FBB0EE40CA4A
:10342000F0EE60CA9FEDB10B53EC102B51EC1C0B6E
:1034300004F0B0FA41EC1B0BB0EE4B0AF0EE6B0A55
:1034400003F0C2F9B0EE40AA00E075E0F0EE60AA29
:103450009FEDA80B53EC102B51EC1A0B04F0CEFB94
:1034600041EC190B9FEDA50B53EC102B04F092FAD5
:1034700041EC180B9FEDA30B53EC102B03F0ACFFAA
:10348000994AC2E90801104690ED022BB0EE420ABB
:10349000F0EE620A90ED002BB0EE421AF0EE621AE6
:1034A00053EC102B51EC110B04F0B4FB41EC1A0B54
:1034B000B0EE4A0AF0EE6A0A03F032FBB0EE409A30
:1034C000F0EE609A9FED890B53EC102B51EC190B29
:1034D00004F060FA41EC180BB0EE480AF0EE680A0E
:1034E00003F072F9B0EE40BAF0EE60BA9FED870BD0
:1034F00053EC102B51EC1B0B04F04CFA7A4AC2E946
:103500000A019FED840B104680ED0C0B9FED830BA1
:10351000844880ED080B9FED7F0B80ED0A0B9FED3B
:103520007D0B80ED0C0B1046816F8847684890ED4D
:10353000000A664880ED000A00F09AF918B100F020
:1035400097F9072827D19FED6F0B674880ED080B8F
:103550009FED750B80ED0A0B9FED750B80ED0C0B4D
:103560009FED750B6F4880ED080B9FED6A0B80EDAA
:103570000A0B9FED680B80ED0C0B714890ED100B62
:10358000594880ED000B6E4890ED100B564880EDC9
:10359000020B816F884700F06BF9062831D19FED4F
:1035A000590B514880ED080B9FED660B80ED0A0B1F
:1035B0009FED5F0B80ED0C0B9FED640B594880ED88
:1035C000080B9FED540B80ED0A0B9FED520B80ED25
:1035D0000C0B604890ED010A10EE101A084604F03A
:1035E00003FC414A03C2564890ED100B3E4880ED63
:1035F000020B5948007800F0070010B13A48816F7B
:10360000884700F035F9012807D000F031F9082883
:1036100003D02D480068022832D12B4800682E497B
:1036200008600020284908609FED360B2E4880ED89
:10363000080B9FED440B80ED0A0B9FED360B80EDE0
:103640000C0B9FED460B374880ED080B9FED310BBF
:1036500080ED0A0B9FED2F0B80ED0C0B3D4890ED9C
:10366000010A10EE101A084604F0BEFB1E4A03C2FF
:10367000334890ED100B1C4880ED020B816F88479A
:10368000194890ED1A1BB0EE410AF0EE610A9FED69
:10369000351B53EC112B51EC100B04F07BF9214A34
:1036A00003C23248B0F90400032190FBF1F4204634
:1036B00004F009F91B4AC2E902011046816F8847EC
:1036C000BDEC0C8B10BD0000F80900203800002074
:1036D0003C000020D8090020FC090020E809002057
:1036E0004C10002040000020D80600203333333334
:1036F0003333D3BF000000000000F03F00000000A3
:10370000000000400000000000005440FCA9F1D27D
:103710004D62503F0000000000000000000000006B
:1037200000805140700700207B14AE47E17A843F4F
:1037300000000000000014400000000000002440D1
:10374000B01300207B14AE47E17A743F0000000004
:1037500000003940A40900200C0A002000000000ED
:1037600000003E40000000000000E03FCC000020D0
:10377000F0B50A4600210023002400BF3DE00125EA
:1037800005FA01F3156805EA03049C4234D1056883
:103790004F000326BE40B543056015794E00B54085
:1037A0000668354305601579012D02D01579022D83
:1037B00016D185684F000326BE40B5438560557914
:1037C0004E00B540866835438560456801268E40C9
:1037D000B5434560456896798E40B6B2354345603D
:1037E000C5684F000326BE40B543C560D5794E007D
:1037F000B540C6683543C560491C1029BFD3F0BD2C
:10380000F0B5002300244D07ED0E02FA05F3CE10AB
:1038100000F1200555F826504E07F70E0F26BE4042
:10382000B543CF1000F1200646F82750CE1000F126
:10383000200555F8265045EA0304CE1000F1200576
:1038400045F82640F0BD018370474FF6FF710160D7
:103850000021017141718171C17170470A7BCB7A7E
:1038600042EA032242614269026042698260704713
:103870000148007870470000150A002030B5034663
:1038800013B94FF6FF7030BD09E013F8014B82EA1F
:103890000400C0B2054D35F8100080EA222208006D
:1038A000A1F10101F1D11046EDE700000E80000802
:1038B00030B5034605E013F8010B80EA0204044822
:1038C000025D0800A1F10101F5D1104630BD0000F4
:1038D0000D7F00084FF08040406A70470148007833
:1038E00070470000140A002010B5FFF7C1FF01283F
:1038F0000BD0FFF7BDFF052807D0FFF7B9FF04285D
:1039000003D0FFF7B5FF082852D12A4800780128D4
:1039100023D1002028490870284908709FED280A03
:10392000284880ED000A90ED000AB5EEC00AF1EEDD
:1039300010FA06D89FED220A80ED000A02201D49E8
:103940000870214890ED000A1E48D0ED000A20EED4
:10395000200A1E4880ED000A2AE016480078022856
:1039600020D1B7EE000A174880ED000A90ED000A5A
:10397000F7EE000AB4EEE00AF1EE10FA06DBB7EE5D
:10398000000A80ED000A00200A490870104890EDF6
:10399000000A0C48D0ED000A20EE200A0B4880ED0A
:1039A000000A05E00A4890ED000A084880ED000A88
:1039B00010BD000016010020170100201801002092
:1039C00000000000B4090020C0090020D009002038
:1039D000C409002003490988014409B2014A118041
:1039E00070470000700A002000BFFEE70248007820
:1039F0000249087070470000660A00206C0A002027
:103A000010B50446FFF766FF7849086004B910BD99
:103A1000207C617C00EB012000B200EE100AB8EEC1
:103A2000C00ABDEEC00A10EE100A00B2704908804C
:103A3000A07CE17C00EB012000B200EE100AB8EEA1
:103A4000C00ABDEEC00A10EE100A00B268494880F4
:103A5000207D617D00EB012000B200EE100AB8EE7F
:103A6000C00ABDEEC00A10EE100A00B2604988809C
:103A7000E07D217E00EB012000B200EE100AB8EEDE
:103A8000C00ADFED5C0A80EE201A5B4880ED001A68
:103A9000607EA17E00EB012000B200EE100AB8EEBD
:103AA000C00AB1EE400ADFED530A80EE201A5248F8
:103AB00080ED011AE07E217F00EB012000B200EED4
:103AC000100AB8EEC00AF2EE040A80EE201A4B4843
:103AD00080ED001A4A4890ED000A4A4880ED000A3D
:103AE000454890ED010A464880ED000A464890EDB1
:103AF000000A464880ED000A404890ED000A42481E
:103B000080ED000A90ED000A4048D0ED000A30EE4A
:103B1000600ADFED3F0AB4EEE00AF1EE10FA04DDD0
:103B20003C480068401E3B490860374890ED000A59
:103B30003648D0ED000A30EE600ADFED370AB4EE09
:103B4000E00AF1EE10FA04D232480068401C314914
:103B50000860304800684FF4B471484300EE100A22
:103B6000B8EEC00A2848D0ED000A30EE200A2248FC
:103B700080ED020A224890ED000A2248D0ED000AAA
:103B800030EE600ADFED220AB4EEE00AF1EE10FA40
:103B900004DD22480068401E20490860184890ED66
:103BA000000A1848D0ED000A30EE600ADFED1A0A6C
:103BB000B4EEE00AF1EE10FA04D218480068401C96
:103BC00016490860154800684FF4B471484300EE88
:103BD000100AB8EEC00A0A48D0ED000A30EE200AFA
:103BE000054880ED010A00BF11E700009C0B002092
:103BF000CC0000200000C8424C100020C80000206B
:103C0000EC000020E8000020E4000020E00000209C
:103C100000009643D8000020000096C3DC0000207E
:103C200000BFFEE72DE9F0412DED088B04460D465F
:103C30000026002720686060287BE97A40EA01209E
:103C4000206020686168401AE060E06810F5805FDD
:103C500007DA606B401C6063E06800F50050A0610B
:103C60000DE0E068B0F5805F07DD606B401E6063CB
:103C7000E068A0F50050A06101E0E068A061A269E1
:103C8000207C411C217404F11C0141F82020216892
:103C9000606B01EB4030A060616B4FF4B47201FBCC
:103CA00002F003F010FE9FED1C0B53EC102B03F001
:103CB00047FC41EC180B21686269881A03F003FE87
:103CC0009FED170B53EC102B03F064FE9FED160BCA
:103CD00053EC102B03F034FC53EC182B03F07CFB5B
:103CE00041EC100B84ED100B207C062801D1002044
:103CF0002074002605E004F11C0050F8260007445B
:103D0000761C062EF7DB062097FBF0F0A063BDECD7
:103D1000088BBDE8F0810000000000000000424078
:103D20000000000000002440000000000000C0402F
:103D30002DE9F0412DED0A8B04460D4600260027A3
:103D4000B046002008EE100A20686060287BE97AFF
:103D500040EA0120206020686168401AE060E06865
:103D600010F5805F07DA606B401C6063E06800F567
:103D70000050A0610DE0E068B0F5805F07DD606B8A
:103D8000401E6063E068A0F50050A06101E0E068BB
:103D9000A061A269207C411C217404F11C0141F83E
:103DA00020202168606B01EB4030A060616B4FF414
:103DB000B47201FB02F003F086FD9FED2A0B53EC79
:103DC000102B03F0BDFB41EC190B21686269881AC6
:103DD00003F079FD9FED250B53EC102B03F0DAFD7A
:103DE0009FED240B53EC102B03F0AAFB53EC192B83
:103DF00003F0F2FA41EC100B84ED100B207C062846
:103E000001D100202074002605E004F11C0050F8C8
:103E100026000744761C062EF7DBA97B687B41EA67
:103E200000200FFA80F8404603F04DFD41EC1A0BDC
:103E30009FED0C0B53EC102B03F082FB41EC190BA4
:103E400003F012FDA063297CE87B41EA002000B268
:103E500008EE100AB8EEC80A84ED140ABDEC0A8B0D
:103E6000BDE8F081000000000000334028AFA1BC95
:103E700086F23240000000000000C0402DE9F0470B
:103E80002DED088B04460D460026B14600BF00BF4D
:103E900020686060287BE97A40EA01202060206881
:103EA0006168401AE060E06810F5805F07DA606BD7
:103EB000401C6063E06800F50050A0610DE0E06820
:103EC000B0F5805F07DD606B401E6063E068A0F5C1
:103ED0000050A06101E0E068A061A269207C411C63
:103EE000217404F11C0141F820202168606B01EB72
:103EF0004030A060616B4FF4B47201FB02F003F03C
:103F0000E2FC41EC180B21686269881A03F0DBFCC3
:103F10009FED290B53EC102B03F03CFD9FED280B7C
:103F200053EC102B03F00CFB53EC182B03F054FA5A
:103F300041EC100B84ED100B21686269881A03F0C4
:103F4000C2FC9FED1D0B53EC102B03F023FD9FEDE6
:103F50001C0B53EC102B03F0F3FA41EC100B84ED27
:103F6000120B207C062801D100202074002605E0D9
:103F700004F11C0050F826008144761C062EF7DB65
:103F8000A97B687B41EA00284FF4B47018FB00F06D
:103F90003C2190FBF1F0A063297CE87B41EA002002
:103FA00007B200EE107AB8EEC00A84ED140ABDEC38
:103FB000088BBDE8F087000000000000008076401C
:103FC000000000000000C0407047000070B50021F4
:103FD00000230F22C4781CB3174C246804F4E06457
:103FE000C4F5E064C4F30721C1F10404E3B20A415B
:103FF00044789C40E1B28478144021430C07210EA0
:104000000E4C05786155047804F01F050124AC407E
:1040100005786D11AD0005F1E025C5F8004109E016
:10402000047804F01F050124AC40054D0678761194
:1040300045F8264070BD00000CED00E000E400E013
:1040400080E100E002490143024A1160704700002C
:104050000000FA050CED00E010B52DED028B0446D2
:1040600094ED022BB0EE420AF0EE620A94ED002BC2
:10407000B0EE421AF0EE621A53EC102B51EC110B19
:1040800003F0C8FDC4E9040194ED222BB0EE420A0E
:10409000F0EE620A94ED042BB0EE421AF0EE621AD2
:1040A00053EC102B51EC110B03F072FD16D994ED6B
:1040B000221BB0EE410AF0EE610A51EC100B03F046
:1040C0004DF941EC180B94ED041BB0EE410AF0EEF3
:1040D000610A53EC102B03F05BFD7DD294ED042BB1
:1040E000B0EE420AF0EE620A94ED082BB0EE421AEE
:1040F000F0EE621A53EC102B51EC110B03F04AFC5A
:10410000C4E90E0194ED141BB0EE410AF0EE610A11
:1041100051EC100B03F022F941EC180B94ED0E1B3F
:10412000B0EE410AF0EE610A53EC102B03F030FDC3
:104130000CD894ED141BB0EE410AF0EE610A51EC7C
:10414000100B03F00BF9C4E90E0116E094ED142BEB
:10415000B0EE420AF0EE620A94ED0E2BB0EE421A77
:10416000F0EE621A53EC102B51EC110B03F010FD22
:1041700003D894ED140B84ED0E0B94ED042BB0EEEC
:10418000420AF0EE620A94ED0A2BB0EE421AF0EE0B
:10419000621A53EC102B51EC110B03F0FBFB41ECBA
:1041A000180B94ED101BB0EE410AF0EE610A53ECCF
:1041B000102B03F011F9C4E9100194ED161BB0EEB9
:1041C000410AF0EE610A51EC100B03F0C7F841EC24
:1041D000180B94ED101B00E0D5E0B0EE410AF0EEB4
:1041E000610A53EC102B03F0D3FC0CD894ED161B92
:1041F000B0EE410AF0EE610A51EC100B03F0AEF89C
:10420000C4E9100116E094ED162BB0EE420AF0EE70
:10421000620A94ED102BB0EE421AF0EE621A53ECE3
:10422000102B51EC110B03F0B3FC03D894ED160BDB
:1042300084ED100B94ED241BB0EE410AF0EE610A00
:104240009FED741B53EC112B51EC100B03F0D0FAC3
:104250001ED194ED062BB0EE420AF0EE620A94ED08
:10426000042BB0EE421AF0EE621A53EC102B51EC14
:10427000110B03F08FFB41EC180B9FED680B53EC17
:10428000102B03F04BFB03D29FED640B84ED100B5E
:1042900094ED062BB0EE420AF0EE620A94ED042B88
:1042A000B0EE421AF0EE621A53EC102B51EC110BE7
:1042B00003F0B0FC41EC180B94ED0C1BB0EE410A7E
:1042C000F0EE610A53EC102B03F064FBC4E9120119
:1042D00094ED181BB0EE410AF0EE610A51EC100BA0
:1042E00003F03CF841EC180B94ED121BB0EE410AC0
:1042F000F0EE610A53EC102B03F04AFC0CD894ED5D
:10430000181BB0EE410AF0EE610A51EC100B03F0FD
:1043100025F8C4E9120116E094ED182BB0EE420A1C
:10432000F0EE620A94ED122BB0EE421AF0EE621A31
:1043300053EC102B51EC110B03F02AFC03D894ED35
:10434000180B84ED120B94ED102BB0EE420AF0EE38
:10435000620A94ED0E2BB0EE421AF0EE621A53ECA4
:10436000102B51EC110B03F037F841EC180B94EDC6
:10437000121BB0EE410AF0EE610A53EC102B03F071
:104380002BF8C4E9200194ED200B84ED1A0B94ED79
:104390001C1BB0EE410AF0EE610A51EC100B02F06A
:1043A000DDFF41EC180B94ED1A1BB0EE410AF0EE64
:1043B000610A53EC102B03F0EBFB0CD894ED1C1BA3
:1043C000B0EE410AF0EE610A51EC100B02F0C6FFAC
:1043D000C4E91A0116E094ED1C2BB0EE420AF0EE8F
:1043E000620A94ED1A2BB0EE421AF0EE621A53EC08
:1043F000102B51EC110B03F0CBFB03D894ED1C0BED
:1044000084ED1A0B94ED040B84ED060BBDEC028BCE
:1044100010BD0000000000000000F03F00000000A0
:10442000000000009FED120B80ED000B9FED100BC4
:1044300080ED020B9FED0E0B80ED040B9FED0C0B3E
:1044400080ED060B9FED0A0B80ED0E0B9FED080B28
:1044500080ED100B9FED060B80ED120B9FED040B12
:1044600080ED200B9FED020B80ED1A0B70470000D2
:1044700000000000000000007047000000B587B099
:104480000121080200F0CCF80121042000F0C8F856
:104490002020019000208DF808008DF80A000120EE
:1044A0008DF80B0003208DF8090001A91348FFF7D0
:1044B0005FF98020059000208DF818008DF81A0013
:1044C00001208DF81B0003208DF8190005A90C4868
:1044D000FFF74EF94020039000208DF810008DF872
:1044E000120001208DF8130003208DF8110003A99C
:1044F0000348FFF73DF907B000BD00000008024087
:10450000002002403948006839490870394800786D
:10451000012808D10846007828B9012036490870DA
:104520000020364908603448007801280CD134490D
:1045300008800020334908703349486308602E49D9
:1045400008700120314908602948007878B92B4863
:104550000068401C2949086008460068B0F5FA7FE9
:1045600005DD0020274908700120254908802048E2
:104570000078204908701D48001F00682449087011
:1045800024480078012808D10846007828B901207D
:10459000214908700020214908601F48007801283F
:1045A0000CD1174908801749087000201649486344
:1045B00008601949087001201449086014480078FF
:1045C00070B916480068401C144908600846006825
:1045D000B0F5FA7F04DD01200A4908700849088017
:1045E0000B4800780B490870704700001C024442D9
:1045F000E50A0020E40A0020F00A0020F40A002066
:10460000EA0A00202901002050120020080B002097
:10461000E90A0020E80A0020F20A0020F80A002037
:1046200029B1064A12680243044B1A6004E0034AA7
:1046300012688243014B1A60704700003038024014
:1046400029B1064A12680243044B1A6004E0034A87
:1046500012688243014B1A607047000040380240E4
:1046600029B1064A12680243044B1A6004E0034A67
:1046700012688243014B1A607047000020380240E4
:1046800029B1064A12680243044B1A6004E0034A47
:1046900012688243014B1A607047000044380240A0
:1046A00029B1064A12680243044B1A6004E0034A27
:1046B00012688243014B1A607047000024380240A0
:1046C000F0B5002100220024022500260223324FEB
:1046D0003F6807F00C0121B1042905D0082937D122
:1046E00005E02E4F076036E02D4F076033E02A4F7C
:1046F0003F1F3F68C7F38056274F3F1F3F6807F0B3
:104700003F036EB1264FB7FBF3F7DFF88CC0ACF177
:10471000040CDCF800C0CCF3881C07FB0CF40CE0A4
:104720001E4FB7FBF3F7DFF870C0ACF1040CDCF8F8
:1047300000C0CCF3881C07FB0CF4174F3F1F3F68E9
:10474000C7F301477F1C7D00B4FBF5F7076002E06B
:10475000124F076000BF00BF0F4F3F6807F0F00126
:104760000909104F7A5C0768D74047600A4F3F68D5
:1047700007F4E051890A0B4F7A5C4768D74087609D
:10478000054F3F6807F46041490B064F7A5C476864
:10479000D740C760F0BD0000083802400024F40094
:1047A000001BB700550B0020D0E90012914211DA2E
:1047B0000168491C016090ED000AF8EEC00A90ED16
:1047C000010AB8EEC00A80EE801A80ED021A90ED60
:1047D000020A7047B7EE000AFBE77047014691ED09
:1047E000000AF8EEC00A91ED010AB8EEC01A80EE98
:1047F000810AF7EE000AB4EEE00AF1EE10FA01DBEE
:10480000012070470020FCE7002101607047016033
:10481000704741607047000010B52DED088B0446CD
:1048200014B9BDEC088B10BDFFF754F8AD49086012
:104830002078617840EA0120C0F30A00AA49088084
:104840006078C010A17840EA4110C0F30A00A64980
:104850004880A0788011E17840EA8100217940EA1F
:104860008120C0F30A00A049888020794010617936
:1048700040EAC110C0F30A009B49C880607900116A
:10488000800808726079C0F301104872A079E1795C
:1048900040EA012000B294494881207A617A40EAD6
:1048A000012001B290488181A07AE17A40EA01209A
:1048B00001B28D48C181217B8174617BC174A07B71
:1048C000E17B40EA0120884988820846B0F902006D
:1048D000A0F5806000EE100AB8EEC00A834880EDB3
:1048E000000AB1F90610A1F5806002F0ECFF41EC7E
:1048F0001B0B9FED7F0B53EC102B03F04BF841EC9F
:10490000190B7D4890ED000A10EE101A084603F0CE
:104910006BFA41EC1A0B53EC192B02F05DFD41ECE4
:10492000180B02F027FD744908606F49B1F90410B3
:10493000A1F5806002F0C7FF41EC1B0B9FED6F0BF0
:1049400053EC102B03F026F841EC190B6A4890ED5C
:10495000010A10EE101A084603F046FA41EC1A0B51
:1049600053EC192B02F038FD41EC180B02F002FD5C
:10497000614948605C48B0F90000A0F580600028FB
:1049800003DD01205F4908600AE05748B0F90000E4
:10499000A0F58060002803D54FF0FF30594908602A
:1049A00058480068012817D14F48B0F90000A0F519
:1049B0008060002810DC0020524908609FED520BF7
:1049C00053EC102B524890ED000B51EC100B02F001
:1049D00003FD4F4A03C21AE04A480068401CB0B9C0
:1049E0004148B0F90000A0F5806000280FD40020F5
:1049F000444908609FED440B53EC102B444890ED64
:104A0000000B51EC100B03F005F9414A03C2364884
:104A1000407A012802D102203E4908703248407A8B
:104A2000032802D101203B4908702F48407A022810
:104A300004D1002037490870374908602A48407A75
:104A400001283AD12848007A032803D02648007A62
:104A5000012802D10120314908702348007A022838
:104A600002D100202D4908701F48007A012801D189
:104A70002B4908701C48007A022803D01A48007A93
:104A8000032802D1002026490870174890F9080031
:104A900001280DD0022802D003280DD103E0002008
:104AA0001D49086008E04FF0FF301B49086003E033
:104AB00001201949086000BF00BF0B48407A032855
:104AC0000ED10948407A02280AD10748007A012805
:104AD00003D14F201349087002E0492011490870A2
:104AE00000BF9EE6820B002028150020D009002080
:104AF000FA7E6ABC7493683FA4090020D42B651920
:104B0000E258673F500B0020000000000000E03F2B
:104B1000480B0020180A0020B00900202D0A0020B0
:104B20005D0A0020540B002001460C4800680B4A27
:104B30005268904201D1012070470848026808304D
:104B4000805C087005480068401C044A10606428B6
:104B500001DB002010600020EEE70000E1110020E2
:104B60000E494A680831885408394968491C0B4A7B
:104B70005160642901DB0021516008494968074AF6
:104B80001268914208D105490968491C034A11601D
:104B9000642901DB0021116070470000E111002051
:104BA000704730B585B005460C464FF480700090D4
:104BB00000208DF808008DF8090008208DF80A0003
:104BC000E0B28DF80B0000218DF80C108DF80D105F
:104BD0008DF80E108DF80F108DF810108DF8111043
:104BE0008DF8121069462846FCF7C5FA05B030BDAD
:104BF0002DE9F0412DED088B07467A4890ED000A2B
:104C0000DFED790A30EE200AF2EE040A20EE200AE7
:104C1000BDEEC00A10EE104A744890ED101BB0EEC5
:104C2000410AF0EE610A51EC100B02F097FB41ECE7
:104C30001B0B9FED6F0B53EC102B02F0CDFB41ECE7
:104C40001A0B6D4890ED000B53EC102B51EC1A0B26
:104C500002F0C2FB41EC190B9FED680B53EC102BDB
:104C600002F098FE41EC180B02F0FEFD0546654887
:104C700090ED010ADFED640A30EE200AF2EE040A3C
:104C800020EE200ABDEEC00A10EE106A5F480078E0
:104C900041B25F48FFF785FF5E48006810B94220C7
:104CA0005D4908705B480068012802D152205A49CA
:104CB00008704D20584948704E2088705748007839
:104CC0004F2801D1C87002E049205349C8704FF401
:104CD0007A7094FBF0F030304F4908714FF47A70DD
:104CE00094FBF0F100FB1140642190FBF1F03030B7
:104CF00049494871642094FBF0F100FB11400A21FE
:104D000090FBF1F03030444988710A2094FBF0F1B7
:104D100000FB114030304049C8714FF47A7095FB68
:104D2000F0F0303008724FF47A7095FBF0F100FB30
:104D30001150642190FBF1F0303037494872642003
:104D400095FBF0F100FB11500A2190FBF1F030309F
:104D5000314988720A2095FBF0F100FB1150303088
:104D60002D49C8724FF47A7096FBF0F0303008731A
:104D70004FF47A7096FBF0F100FB1160642190FB18
:104D8000F1F0303024494873642096FBF0F100FBC9
:104D900011600A2190FBF1F030301F4988730A201E
:104DA00096FBF0F100FB116030301B49C8730EE038
:104DB00019481B4A1268815C1A4801F057F81848D4
:104DC0000068401C16490860962001F069FF1448ED
:104DD0000068B842ECDB002011490860BDEC088B8C
:104DE000BDE8F081C8000020000034430814002012
:104DF0000000000000805640480B0020000000002A
:104E0000000024404C1000200000B442C1000020EB
:104E10000068004010150020C40F0020540B002033
:104E20006C0000200048004070B5FEF721FD072807
:104E300006D100231A461946174800F0F3F829E076
:104E4000164890ED1A1BB0EE410AF0EE610A51ECE3
:104E5000100B02F009FD04B2114890ED1A1BB0EEE0
:104E6000410AF0EE610A51EC100B02F0FDFC05B2B4
:104E70000C4890ED1A1BB0EE410AF0EE610A51ECBD
:104E8000100B02F0F1FC06B223462A4631460248D6
:104E900000F0C8F870BD000000640040400600202B
:104EA000A0080020700700200CB5002001900090A1
:104EB0004148006840F480303F49086000BF3E48E8
:104EC000006800F4003000900198401C01900098A8
:104ED00018B90198B0F5A04FF1D13748006800F437
:104EE000003010B10120009001E0002000900098F7
:104EF000012860D130484030006840F080502E4991
:104F0000403108602D48006840F440402B4908605B
:104F100029480830006828490831086008460068B8
:104F200040F4004008600846006840F4A050086063
:104F30002348091F0860081F006840F08070091F9F
:104F4000086000BF1C48006800F000700028F9D01D
:104F50001A48006840F480301849086000BF1748BC
:104F6000406800F480300028F9D01448006840F40C
:104F700000301249086000BF1048406800F400305B
:104F80000028F9D040F205700E4908600A48083040
:104F9000006820F0030008490831086008460068EE
:104FA00040F00200086000BF03480830006800F0CD
:104FB0000C000828F8D10CBD0038024000700040F9
:104FC0000C544007003C02402DE9F04186B0804679
:104FD0000C4615461E460C9F4FF4007001900020B1
:104FE0008DF80C008DF80D0008208DF80E00200AB9
:104FF0008DF80F008DF81040290A8DF811108DF8EA
:105000001250310A8DF813108DF81460390A8DF89A
:1050100015108DF8167001A94046FCF7ACF806B0E3
:10502000BDE8F081F0B585B007460C4615461E4632
:1050300040F2FF10009000208DF808008DF8090064
:1050400008208DF80A00300A8DF80B00F1B28DF8B7
:105050000C10290A8DF80D10E9B28DF80E10210AF6
:105060008DF80F10E1B28DF81010FF218DF811109E
:105070008DF8121069463846FCF77DF805B0F0BD92
:1050800010B59FED2D0B2E4880ED080B9FED2A0BE0
:1050900080ED0A0B9FED280B80ED0C0B9FED290B8B
:1050A0002A4880ED080B9FED240B80ED0A0B9FED45
:1050B000220B80ED0C0B26480078012816D12549DB
:1050C000B1F90010C1EB0111880002F0FCFB1C4A91
:1050D00003C2214890ED100B194880ED020B816F3F
:1050E00088479FED1E0B194880ED000B1A48806918
:1050F0000A2804DA9FED1B0B144880ED000B1648BC
:10510000806910F1050F04DA9FED140B0F4880ED54
:10511000000B0F48007820B99FED070B0B4880ED7E
:10512000000B0D49886B02F0CEFB084AC2E9020170
:105130001046816F884710BD00000000000000008D
:10514000080800200000000000004E40A0080020D9
:105150005D0A0020080A0020B814002000000000AA
:1051600000C082400000000000208CC0704700009A
:1051700010B51548006840F47000134908601348E2
:10518000006840F001001149086000200F49083113
:1051900008600E4800680E4908400C4908600D4838
:1051A000091D0860081F006820F48020091F08609E
:1051B000002006490C310860FFF776FE4FF00060D2
:1051C00001498039086010BD88ED00E000380240D8
:1051D000FFFFF6FE103000240EB501210846FFF750
:1051E0002FFA4FF0FF3001905320ADF8000000205F
:1051F000ADF80800ADF8020069464FF0804000F0BD
:10520000FDF80121880700F0C1F80121880700F0AE
:10521000CFF80EBD10B50121880700F0D5F838B1E0
:105220000121880700F0C1F80121880700F0BAF8D1
:1052300010BD00000EB501210220FFF701FA40F673
:10524000B73001905320ADF800000020ADF8080001
:10525000ADF8020069460C4800F0D0F801210A4878
:1052600000F094F80121084800F0A2F81D208DF804
:10527000080001208DF809008DF80A008DF80B0058
:1052800002A8FEF7A3FE0EBD0004004010B50121E8
:105290000A4800F099F878B10121084800F085F833
:1052A0000121064800F07EF80C20FFF7A1FC04481D
:1052B0000068401C0249086010BD00000004004066
:1052C0000400002010B50121064800F071F8012209
:1052D0001146044800F089F80121024800F062F804
:1052E00010BD0000000400400EB501211020FFF7A2
:1052F000A7F95320ADF800000020ADF80200ADF88A
:1053000008004FF4FA6001906946094800F076F809
:1053100036208DF8080000208DF809008DF80A006D
:1053200001208DF80B0002A8FEF750FE0EBD000014
:105330000010004010B50121094800F045F870B197
:105340000121074800F031F80121054800F02AF852
:10535000FDF78EFB03480068401C0249086010BD41
:10536000001000400000002010B50121064800F0A8
:105370001FF801221146044800F037F801210248C5
:1053800000F010F810BD00000010004021B10288AC
:1053900042F08002028004E002884FF67F731A40D8
:1053A00002807047CA4302827047CA430282704734
:1053B00021B1028842F00102028004E002884FF627
:1053C000FE731A400280704730B502460020002369
:1053D0000024158A05EA0103958905EA010413B141
:1053E0000CB1012000E0002030BD1AB183890B43CD
:1053F000838102E083898B43838170470022028886
:10540000184B98420ED0184B98420BD0B0F1804FF9
:1054100008D0164B984205D0154B984202D0154B38
:10542000984204D14FF68F731A404B881A43124B9F
:10543000984207D0114B984204D04FF6FF431A40D0
:105440000B891A4302804B68C3620B880385054BA6
:10545000984202D0044B984201D18B7A03860123F3
:1054600083827047000001400004014000040040B6
:1054700000080040000C00400010004000140040F4
:105480002DE9F04106460F464FF00108002002EEDC
:10549000100A0025002419E008FA04F030402041E9
:1054A00002EE100A2046B0EE000A01F0EDFDF0EE2B
:1054B000400A00EE105AB8EEC00AB8EEC21A01EE69
:1054C000200ABDEEC00A10EE105A641CBC42E3DB99
:1054D0002846BDE8F081000070B540F224418B48B9
:1054E00000F00AFC00286FD0884800888748001D1B
:1054F00000888748FDF741FC18BB00218448FDF770
:1055000069FB8348FDF735FCC0F164008149086000
:1055100064207F495839C8650846806D40F40020F2
:10552000886501217A48FDF755FB002404E07A499B
:10553000085DFFF715FB641C764800688442F6D3CB
:1055400023E000217248FDF745FB7148FDF711FC8F
:10555000C0F164006F49086064206D495839C8651E
:105560000846806D20F40020886501216848FDF719
:1055700031FB002405E068496431085DFFF7F0FA6B
:10558000641C644800688442F5D3B5E06348406811
:1055900062490968401A03D400206149088002E08A
:1055A00064205F4908805D480068602807DB5B482D
:1055B0000068632803DC64205A49088002E0002068
:1055C00058490880002505E09EE057494819FFF733
:1055D000ABFA6D1C052DF8DB534800795349087070
:1055E000FF2204215048FEF763F9514908704F48E3
:1055F0000078097888427FD14B4840784A498978B9
:1056000040EA01204B49088010214A480088FFF7F2
:1056100037FF4849088041484068414909880144AA
:105620003E4800683F4A12881044401F091A41480A
:1056300000880930814256DB002505E03A49491DC2
:105640004819FFF771FA6D1C3A480088001D854221
:10565000F4DB38480088C01D3349095C35480088B0
:105660000830314A105C41EA002033490880314853
:105670000088C11D4FF6FF722B48FEF7FFF82F4937
:1056800008802D4800880988884235D1264840790D
:10569000012806D124488079022802D1224801F04D
:1056A000BFFC21484079062806D11F48807902288E
:1056B00002D11D4801F01CFC1B484079072806D187
:1056C00019488079022802D1174801F05BFC16487E
:1056D0004079022810D11448807902280CD1124850
:1056E00001F020FC08E00D4800680E4909880844D4
:1056F000401F0A49086006E00848406807490968F1
:1057000088427FF443AF00BF70BD000000780040C6
:10571000586002400001002058100020E1110020D4
:10572000FC000020FE00002020110020F4000020DA
:10573000F5000020FA000020F6000020F80000200C
:1057400000B58FB001210220FEF76AFF0121880514
:10575000FEF766FF01211020FEF792FF0722114697
:105760004248FEF74DF80DA8FEF76FF880200D9027
:1057700002208DF8380000208DF8390001208DF8C6
:105780003B000DA93948FDF7F3FF394800F03CFA1A
:1057900009A800F06FFB374809900020ADF82800F9
:1057A000ADF82A004FF48060ADF82C000420ADF86D
:1057B0002E000020ADF8300009A92D4800F0ECFAC9
:1057C000012240212A4800F015FA012240F224412A
:1057D000274800F0BBFA0121254800F0FFF92648D0
:1057E000FDF704FA6846FDF7FFFA4FF000600090FD
:1057F0001F48001D019021480290002003901E20A8
:105800000490002005904FF48060069000200790DF
:1058100008904FF48070099000020A9000200B90CD
:105820000C900D900E9069461348FDF7B1FA0022D6
:1058300012491E311048FDF790FA01210E48FDF77C
:1058400081FA01210C48FDF7C5F925208DF83800B3
:1058500001208DF8390002208DF83A0001208DF8E2
:105860003B000EA8FEF7B2FB0FB000BD00040240E3
:1058700000100140A086010088640240A90B0020AE
:1058800010B540F22441284800F036FA002849D0EB
:1058900025480088244880882448FDF76EFA00BB1C
:1058A00000212248FDF796F92048FDF762FAC0F181
:1058B0001E001F4908601E201C49091D0860081FA2
:1058C000006840F40020091F086001211748FDF717
:1058D00081F917480068122824D11648FEF79CFF6A
:1058E00020E000211148FDF775F91048FDF741FA55
:1058F000C0F11E000E4908601E200C49091D0860F9
:10590000081F006820F40020091F086001210748D3
:10591000FDF760F906480068122803D105481E30DB
:10592000FEF77AFF10BD00000010014088640240BD
:1059300010000020A90B002010B540F22441274898
:1059400000F0DAF9002848D0244800882348001DD8
:1059500000882348FDF711FAF8B900212048FDF727
:1059600039F91F48FDF705FAC0F10C001D49086020
:105970000C201B492839C8620846806A40F4002080
:10598000886201211648FDF725F9164800680828A5
:1059900023D11548FBF7B2FF1FE000211048FDF7A7
:1059A00019F90F48FDF7E5F9C0F10C000D49086041
:1059B0000C200B492839C8620846806A20F4002070
:1059C000886201210648FDF705F9064800680828A5
:1059D00003D105480C30FBF791FF10BD0048004093
:1059E000286002401C000020080F002000B58FB086
:1059F00001214020FEF714FE01212020FEF740FE89
:105A000001218805FEF70CFE082209214148FDF717
:105A1000F7FE082207213F48FDF7F2FE4FF4007021
:105A20000D9002208DF8380000208DF83A000320F8
:105A30008DF8390000208DF83B000DA93548FDF7A1
:105A400097FE4FF4E13009900020ADF82800ADF842
:105A50002A00ADF82C000420ADF82E000020ADF88F
:105A6000300009A92C4800F097F9012240212A486A
:105A700000F0C0F80121284800F0B0F8012240F2FF
:105A80002441254800F062F92448FDF7AFF8684644
:105A9000FDF7AAF94FF0206000901F48001D01900B
:105AA0001F480290002003903C20049000200590A5
:105AB0004FF4806006900020079008904FF48070AB
:105AC000099000020A9000200B900C900D900E900F
:105AD00069461248FDF75CF9002211493C310F4834
