:020000040800F2
:10000000702B0020C5020008753E000895380008D6
:10001000CD3A00082D090008855C000800000000AA
:100020000000000000000000000000002D4A000851
:10003000E32C00080000000025430008654F00087D
:10004000DF020008DF020008DF020008DF0200080C
:10005000DF020008DF020008DF020008DF020008FC
:10006000DF020008DF020008DF020008DF020008EC
:10007000DF020008DF020008DF020008DF020008DC
:10008000DF020008DF020008DF0200087D0A000826
:10009000410A0008DF020008DF020008DF02000852
:1000A000DF020008DF020008DF020008DF020008AC
:1000B0000D50000885500008DF020008DF0200082C
:1000C000DF020008DF020008DF020008DF0200088C
:1000D000DF02000879560008DF02000831570008E7
:1000E000DF020008DF020008DF020008DF0200086C
:1000F000DF020008DF020008DF020008DF0200085C
:10010000DF020008DF020008DF020008DF0200084B
:10011000DF020008DF0200082D510008DF0200089E
:10012000DF020008DF020008DF020008DF0200082B
:10013000DF020008DF020008DF020008E90B000808
:10014000AD0B0008DF020008DF020008DF02000834
:10015000DF020008DF020008DF0200081D59000866
:10016000DF020008DF020008DF020008DF020008EB
:10017000DF020008DF020008DF02000800000000C4
:10018000DF020008DF020008D1520008DF02000889
:10019000DF020008DF020008DF020008DF020008BB
:1001A0000000000000000000DF02000800F002F87C
:1001B00000F05EF80AA090E8000C82448344AAF1A3
:1001C0000107DA4501D100F053F8AFF2090EBAE8A1
:1001D0000F0013F0010F18BFFB1A43F0010318477B
:1001E000507E0000707E00000A444FF0000C10F8B2
:1001F000013B13F0070408BF10F8014B1D1108BFA5
:1002000010F8015B641E05D010F8016B641E01F844
:10021000016BF9D113F0080F1EBF10F8014BAD1C94
:100220000C1B09D16D1E58BF01F801CBFAD505E0B2
:1002300014F8016B01F8016B6D1EF9D59142D6D30C
:10024000704700000023002400250026103A28BF34
:1002500078C1FBD8520728BF30C148BF0B60704738
:100260001FB507F016FD00F064F81FBD10B510BDF6
:1002700000F0B2F81146FFF7F3FF06F0D5FD00F0ED
:10028000D0F803B4FFF7F2FF03BC06F0DDFB00007B
:100290000B49D1F800C04A685CF8043B1068184468
:1002A00042F8040B8C4528BFA1F1DC0C8A4228BF20
:1002B000A1F1DC02C1F800C04A6020F000407047A4
:1002C000041600200948804709480047FEE7FEE77A
:1002D000FEE7FEE7FEE7FEE7FEE7FEE7FEE7FEE7F6
:1002E00004480549054A064B70470000694F00085D
:1002F000AD01000870160020702B0020701B00203C
:10030000701B0020704700000B4910B5A1F17C0262
:100310000A4CC2E93712372106E000EB104342F8DD
:100320002130074B00FB03400B1EA1F10101F4DC5F
:1003300010BD0120E8E70000A4150020E119D666F1
:10034000CD0D010010B5203AC0F00B80B1E8185077
:10035000203AA0E81850B1E81850A0E81850BFF4AF
:10036000F5AF5FEA027C24BFB1E81850A0E818504E
:1003700044BF18C918C0BDE810405FEA827C24BFA2
:1003800051F8043B40F8043B08BF7047D20728BF30
:1003900031F8023B48BF11F8012B28BF20F8023B7F
:1003A00048BF00F8012B704770477047704770478F
:1003B00010B500F009F8006810BD10B5044600F053
:1003C00003F8046010BD0000004870470C160020C0
:1003D000004870470C1600207546FFF7F9FFAE463F
:1003E00005006946534620F00700854618B020B541
:1003F000FFF776FFBDE820404FF000064FF0000702
:100400004FF000084FF0000B21F00701AC46ACE8BC
:10041000C009ACE8C009ACE8C009ACE8C0098D4629
:10042000704710B50446AFF300802046BDE8104089
:10043000FFF727BF10B52DED048B70480078704989
:1004400008707048007800287ED16F4890ED101B2E
:10045000B0EE410AF0EE610A51EC100B06F06EFEB0
:100460006A490860084690ED000ABDEEC00A10EE29
:10047000100A4FF4B47190FBF1F0654908606348CD
:1004800090ED000ABDEEC00A10EE100A4FF4B471F0
:1004900090FBF1F201FB120000F5B47090FBF1F259
:1004A00001FB120000B25B4908805548007858BB38
:1004B0000846B0F90000F02811DB0846B0F900004A
:1004C000B0F5A87F0BDA52480068C0EB001000EBD3
:1004D00040005A2101EBC0004F49086022E04D481E
:1004E000B0F900009B2810DB4A48B0F90000F02862
:1004F0000BDC47480068C0EB001000EB4000B42163
:1005000001EBC000444908600CE03F4890ED101B2F
:10051000B0EE410AF0EE610A51EC100B07F088F8DA
:100520003D4908603648007801283BD13948B0F988
:100530000000B0F5A77F12DD3648B0F900003C2876
:100540000DDC3348006800E054E0C0EB001000EB25
:1005500040005A21C1EBC0002F49086022E02D481D
:10056000B0F900003C2810DB2A48B0F900009B28B5
:100570000BDC27480068C0EB001000EB4000B42102
:10058000C1EBC000244908600CE01F4890ED101B2F
:10059000B0EE410AF0EE610A51EC100B07F048F89A
:1005A0001D4908601C48006807F071F841EC190B00
:1005B000154890ED101BB0EE410AF0EE610A53ECC5
:1005C000102B51EC190B07F009FA41EC180B9FEDB9
:1005D000130B53EC102B07F0BFF903D20120114984
:1005E000087002E002200F4908700F480088401C84
:1005F0000D490880BDEC048B10BD0000980A002056
:100600002A0B0020FF09002098130020B80A0020C0
:100610000C01002010010020140100200000000047
:100620000000F03F18010020280B002010B54FF407
:10063000A06003F05DFC04F0CBFC04F051FD04F07D
:10064000F5FC00F075F900F027FA04F075FF4FF49F
:10065000E13006F023FC05F0C5F84FF4E13006F078
:10066000BFFC03F061FE10BD7B48007801287DD1FE
:100670007A48C0887A4908800846008879490988FC
:10068000401A7949086079480088401C00B27749CF
:1006900008807548006810F10A0F0EDC0846B0F9B2
:1006A0000010734802680068401C714B1860714864
:1006B00020F81210012070490860694800887828E5
:1006C00071DD6B4800680F2837DB6B480068012834
:1006D00033D167480068401E664931F910106448FC
:1006E00000680F38634A32F91000081A634908603D
:1006F0005F480068401E114631F910105C480068E0
:100700000F3832F91000081A3C2816DA58480068E9
:10071000401E114631F9101055480068401F32F94B
:100720001000081A062808DD00205549086001203D
:100730005449087000205049086053480068401C24
:1007400051490860084600683C280DDA08460068F0
:100750000A2809DD4448006810F1640F04DC012018
:100760004A4908604A4908603F4800E072E0006872
:1007700010F1640F0ADC0020414908600120414962
:1007800008704349086000203F49086041480068FC
:10079000401C4049086008460068B0F5967F02DDBD
:1007A00000203D4908602E480088782841DA002062
:1007B000334908600120334908702B48006810F164
:1007C0000A0F0DDC3548006850B901203049086037
:1007D0000020334908600120324908602F49086031
:1007E0002F480068401C2E490860084600686428AD
:1007F00002D900202B49086029480068B0F5967F8F
:1008000002D90020254908601748006810F10A0F36
:1008100002DC00201F4908601E480068401C1D497A
:10082000086008460068B0F5967F02DD00201A498E
:1008300008600D48006810F10A0F07DC0A480068DC
:1008400010F1140F02DB01201749087004480088DA
:100850000449088070470000FE0900209E11002016
:10086000260B0020240B00206C0A0020700A0020B8
:10087000740A002026110020780A0020940A002023
:100880005C0A0020FB090020580A0020F80A00201A
:10089000E80A00207C0A0020800A0020680A002064
:1008A000600A0020FC0A0020FF09002010B502F0B9
:1008B00035FF042807D002F031FF062803D002F0EC
:1008C0002DFF052825D113480088B0F5C87F20DA10
:1008D0001148007801281CD102F052FF0F494860EE
:1008E000084640680968401A0C4988600C4800783E
:1008F0000C4991FBF0F009498968884209DA0A48F5
:100900000088401C00B20849088002F039FF034902
:10091000086010BD220B0020410A0020590B002066
:10092000500A002010EB0900EC09002000BFFEE790
:1009300000B589B00121082003F0C8FD0121480657
:1009400003F0D4FD092200213B4802F0AFFE09224A
:100950000121394802F0AAFE0320079002208DF8F9
:10096000200007A9344802F059FE344800F0BAF9D3
:1009700004A800F0F2FB00208DF816008DF8170097
:100980008DF818008DF819008DF81A0001208DF8E7
:100990001B0000208DF812008DF8130008208DF840
:1009A000140003208DF81500ADF8100004A92348A9
:1009B00000F0D1FA00208DF80A008DF80B0001201C
:1009C0008DF80C000020ADF80000ADF80200ADF885
:1009D0000400ADF80600ADF8080001208DF80D0008
:1009E000684600F09BF901220221144800F0AAFA9F
:1009F00001221146114800F0A5FA14208DF82000BC
:100A000001208DF821008DF822008DF8230008A820
:100A100003F032FA13208DF8200001208DF8210018
:100A200000208DF8220001208DF8230008A803F093
:100A300023FA09B000BD0000000C02400064004031
:100A400000B585B002210B4800F0ECF978B1022125
:100A5000084800F0F3F80849064800F0D3F86A4661
:100A60000021044800F001FB684600F02FFE05B0AD
:100A700000BD0000006400400800003210B50121F4
:100A8000044800F0CFF918B10121024800F0D6F86F
:100A900010BD00000064004000B589B001210220B3
:100AA00003F014FD0121880603F020FD09220C212A
:100AB0003C4802F0FBFD09220D213A4802F0F6FD08
:100AC0004FF44050079002208DF8200007A93548C8
:100AD00002F0A4FD344800F005F904A800F03DFB45
:100AE00000208DF816008DF817008DF818008DF88D
:100AF00019008DF81A0001208DF81B0000208DF8D8
:100B000012008DF8130008208DF8140003208DF8D2
:100B10001500ADF8100004A9234800F01CFA0E20BF
:100B20008DF80A0000208DF80B0001208DF80C00D4
:100B30000020ADF80000ADF80200ADF80400ADF8FB
:100B40000600ADF8080001208DF80D00684600F0A1
:100B5000E5F801220221144800F0F4F901221146BF
:100B6000114800F0EFF940208DF8200001208DF8A9
:100B700021008DF822008DF8230008A803F07CF9ED
:100B80003F208DF8200001208DF8210000208DF8F5
:100B9000220001208DF8230008A803F06DF909B0A8
:100BA00000BD0000000402400068004000B585B0B0
:100BB00002210B4800F036F978B10221084800F014
:100BC0003DF80849064800F01DF86A46002104482F
:100BD00000F04BFA684600F07BFE05B000BD000057
:100BE000006800400800003210B50121044800F000
:100BF00019F918B10121024800F020F810BD0000D9
:100C00000068004000220C4B994202D1002383610E
:100C100011E0C1F3130201F000730BB1C2600AE0EE
:100C200001F080630BB1026105E001F000630BB1DC
:100C3000826000E0426070477000F030B1F5007FE4
:100C40003AD00FDC202928D006DC01291CD0042949
:100C50001DD0082940D11DE0402921D0B1F5807F69
:100C60003AD126E0B1F5004F31D006DCB1F5806F06
:100C700025D0B1F5006F2FD124E0B1F5803F12D01F
:100C8000B1F5003F28D111E0154A826025E0082225
:100C9000C26022E01022C2601FE0082202611CE054
:100CA0001022026119E00822426016E01022426020
:100CB00013E00422426010E0042242600DE00422AE
:100CC00042600AE0002282610422426005E00022C4
:100CD00082610422426000E000BF00BF7047000054
:100CE0000101010010B504460B48844209D10121DD
:100CF000480603F00BFC00214FF0007003F006FCE7
:100D000008E00121880603F001FC00214FF080601B
:100D100003F0FCFB10BD00000064004010B5002192
:100D2000837A012202FA03F13D4A126842F001027D
:100D30003B4B1A603A4A1C3212688A43384B1C33C8
:100D40001A60027BCAB9364A0C3212688A43344BA5
:100D50000C331A604288C38842EA0343304A403267
:100D6000847A42F834300288838842EA03432C4A6A
:100D70004032847A02EBC4025360027B012A19D10B
:100D8000274A0C3212680A43254B0C331A604288FA
:100D9000038842EA0343224A4032847A42F83430DC
:100DA000C288838842EA03431D4A4032847A02EBB8
:100DB000C4025360C27A3AB9194A121D12688A43B2
:100DC000174B1B1D1A6006E0154A121D12680A43D4
:100DD000134B1B1D1A60028932B9114A1432126872
:100DE0008A430F4B14331A600289012A06D10C4A38
:100DF000143212680A430A4B14331A60427B012AE8
:100E000006D1074A1C3212680A43054B1C331A608C
:100E1000034A126822F00102014B1A6010BD000063
:100E20000066004070B504460D4600266069284003
:100E3000002871D0B5F5807F5CD010DC082D35D04E
:100E400006DC012D20D0022D24D0042D72D127E004
:100E5000102D31D0202D35D0402D6BD138E0B5F597
:100E6000004F60D009DCB5F5007F49D0B5F5806F43
:100E70004CD0B5F5006F5DD14FE0B5F5803F2DD07A
:100E8000B5F5003F56D12FE0A0682D4901F052FD85
:100E9000064651E0E068032101F04CFD06464BE0B8
:100EA000E068082101F046FD064645E0E0681021B3
:100EB00001F040FD06463FE02069032101F03AFDC4
:100EC000064639E02069082101F034FD064633E08A
:100ED0002069102101F02EFD06462DE060680821F2
:100EE00001F028FD064627E06068102101F022FD90
:100EF000064621E0A069012101F01CFD06461BE029
:100F0000A069022101F016FD064615E0A069042142
:100F100001F010FD06460FE00FE0A069702101F01E
:100F200009FD064608E06068042101F003FD06465D
:100F300002E0FFE7002600BF00E00026304670BD5B
:100F4000010101001AB143690B43436102E04369A7
:100F50008B434361704730B502460020002314687C
:100F600024F002041460146844F00104146000E0EA
:100F70005B1C546804F001041CB94FF6FF74A342D3
:100F8000F6D1546804F001040CB900206CE08C79AF
:100F9000012C04D1146844F08004146003E0146848
:100FA00024F080041460CC79012C04D1146844F03E
:100FB0004004146003E0146824F0400414600C7AC8
:100FC000012C04D1146844F02004146003E0146878
:100FD00024F0200414604C7A012C04D1146844F0ED
:100FE0001004146003E0146824F0100414608C7A78
:100FF000012C04D1146844F00804146003E0146860
:1010000024F008041460CC7A012C04D1146844F054
:101010000404146003E0146824F0040414608C7861
:10102000A407CD7844EA05640D7944EA05444D7976
:1010300044EA05540D886D1E2C43D461146824F0D5
:1010400001041460002300E05B1C546804F00104F8
:101050001CB14FF6FF74A342F6D1546804F00104AA
:101060000CB1002000E0012030BD10B500F5D873B0
:1010700003EB01131B6803F004031372137A53B9D3
:1010800000F5D87303EB01131B6840F2FF7404EA08
:101090005353136009E000F5D87303EB01131B6889
:1010A0006FF0604404EAD303536000F5D87303EB98
:1010B00001131B6803F00203537200F5D87303EBAE
:1010C00001135B6803F00F03937200F5D87303EB11
:1010D00001135B681B0AD37400F5D87303EB01138B
:1010E0009B68D37200F5D87303EB01139B681C0A4D
:1010F000147300F5D87303EB01139B681C0C547335
:1011000000F5D87303EB01139B681B0E937300F576
:10111000D87303EB0113DB68D37300F5D87303EBCB
:101120000113DB681C0A147400F5D87303EB011378
:10113000DB681C0C547400F5D87303EB0113DB68F7
:101140001B0E937421B9C36843F02003C36003E00E
:10115000036943F02003036110BD00218171C17157
:10116000017241728172C1728170C170032101717B
:101170000221417101210180704710B50246002013
:10118000936803F08063B3F1806F00D110E093683F
:1011900003F00063B3F1006F01D1012008E0936810
:1011A00003F08053B3F1805F01D1022000E00420FE
:1011B000042874D002F5C07303EB00131B6803F01E
:1011C000010402F5C07303EB00131C600B7A7BB9BA
:1011D0004B7A0C8843EA445302F5C07404EB0014C4
:1011E0002468234302F5C07404EB0014236010E06C
:1011F0000B7A4C6843EAC4034C7A234302F5C0746B
:1012000004EB00142468234302F5C07404EB0014BB
:1012100023608B7A03F00F038B7202F5C07303EB2C
:1012200000135B6823F00F0402F5C07303EB001397
:101230005C6002F5C07303EB00135B688C7A234398
:1012400002F5C07404EB001463608B7B1C064B7BBF
:1012500044EA03440B7B44EA0323CC7A234302F59C
:10126000C07404EB0014A3608B7C1C064B7C44EA26
:1012700003440B7C44EA0323CC7B234302F5C07474
:1012800004EB0014E36002F5C07303EB00131B686A
:1012900043F0010402F5C07303EB00131C6010BDA2
:1012A00070B52DED0C8B82B0EB4890ED022BB0EEBB
:1012B000420AF0EE620A90ED002BB0EE421AF0EE18
:1012C000621A53EC102B51EC110B06F087FB41EC2A
:1012D0001D0BB0EE4D0AF0EE6D0A05F005FBB0EE09
:1012E00040CAF0EE60CA9FEDDD0B53EC102B51ECC1
:1012F0001C0B06F033FA41EC1B0BB0EE4B0AF0EE80
:101300006B0A05F045F9B0EE40AAF0EE60AA9FED39
:10131000D50B53EC102B51EC1A0B06F053FB41ECA0
:10132000190B9FEDD20B53EC102B06F017FA41EC82
:10133000180B9FEDCE0B53EC102B05F031FFC64A76
:10134000C2E908019FEDCB0B104680ED0A0B9FED23
:10135000C90B80ED0C0B9FEDC90BCA4880ED080B43
:10136000C94880ED080B9FEDC90BC64880ED0A0BFC
:10137000C54880ED0A0B9FEDC70BC24880ED0C0BF2
:10138000C14880ED0C0B02F0C9F9072802D002F029
:10139000C5F9D0B99FEDC10BAF4880ED080B9FEDAB
:1013A000BB0B80ED0A0B9FEDBF0B80ED0C0B9FED8F
:1013B000B10B80ED000BBD49886B06F068F9A64AB9
:1013C000C2E902011046816F884702F0A7F904289C
:1013D00040D1B748006868B9B648006806F0E8FB35
:1013E00041EC180B9FED9D0B53EC102B06F0B6F95A
:1013F000994A03C2AE48006801280DD1AD48006883
:1014000006F0D6FB41EC180B9FED940B53EC102B20
:1014100006F0A4F9904A03C2A449886B06F037F994
:101420008D4AC2E902011046816F8847A249886B44
:1014300006F02DF9944AC2E902011046816F8847EF
:101440009E49886B06F023F98E4AC2E902011046D4
:10145000816F884702F062F9012807D002F05EF937
:10146000062803D002F05AF9082828D1914890EDB7
:10147000000AB1EE400A10EE100A06F099FB764A17
:1014800003C28A49886B06F002F9734AC2E9020175
:101490001046816F88478849886B06F0F8F87A4AC9
:1014A000C2E902011046816F88478449886B06F0C3
:1014B000EEF8744AC2E902011046816F884702F0D3
:1014C0002DF9052823D17B48006806F071FB624A9C
:1014D00003C27649886B06F0DAF85F4AC2E9020176
:1014E0001046816F88477449886B06F0D0F8664AC9
:1014F000C2E902011046816F88477049886B06F087
:10150000C6F8604AC2E902011046816F884702F0BE
:1015100005F9072802D002F001F9E8BB4E4890ED2A
:10152000021BB0EE410AF0EE610A9FED5A1B53EC2C
:10153000112B51EC100B06F0D5F818D8464890ED59
:10154000021BB0EE410AF0EE610A9FED5D1B53EC09
:10155000112B51EC100B06F0FFF908D800200346C0
:10156000024601460090584803F02AFC70E03A48D1
:1015700090ED1A1BB0EE410AF0EE610A51EC100B2F
:1015800006F056F804B200200346024621460090B9
:101590004D4803F015FC5BE0FFE702F0BFF80428BC
:1015A0002BD1384890ED1A1BB0EE410AF0EE610ADB
:1015B00051EC100B06F03CF804B2334890ED1A1BC6
:1015C000B0EE410AF0EE610A51EC100B06F030F873
:1015D00005B2214890ED1A1BB0EE410AF0EE610A07
:1015E00051EC100B06F024F806B22B4600223146CF
:1015F0003548009403F0E4FB2AE0224890ED1A1BE2
:10160000B0EE410AF0EE610A51EC100B06F010F852
:1016100004B21D4890ED1A1BB0EE410AF0EE610ACB
:1016200051EC100B06F004F805B20B4890ED1A1BB4
:10163000B0EE410AF0EE610A51EC100B05F0F8FF34
:1016400006B22B46002231461F48009403F0B8FB37
:1016500002B0BDEC0C8B70BD000200209A999999E4
:101660009999B9BF000000000000F03F00000000A1
:1016700000005940000000000000000000000000D1
:1016800000004E40C803002030030020000000008E
:101690000000E03F000000000000244000000000C7
:1016A00000004440000000000000144038120020F8
:1016B0002C010020B8090020E8120020401300206F
:1016C00000000000000024C00064004010B5044683
:1016D00074480068401C7349086040F20122216888
:1016E000881A914219D010DC40295DD006DC3029DF
:1016F00057D0312956D0322973D154E0502954D0D3
:10170000602953D07029F7D151E0072869D2DFE86A
:1017100000F0C615263784B84F00012062490870D2
:1017200060480068322804D82146604801F0ECFF88
:1017300003E021465D4802F051FAB1E001205A4928
:10174000087058480068322804D82146584801F0EB
:10175000DBFF03E02146564802F040FAA0E00120FA
:10176000514908704F480068322804D82146514832
:1017700001F0CAFF03E021464E4802F02FFA8FE045
:1017800001204949087047480068322804D821469A
:10179000494801F0B9FF03E02146474802F01EFA2C
:1017A0007EE07DE07CE07BE07AE079E078E077E065
:1017B0003C480068322826D22146404801F0A4FF68
:1017C0003E4840693E49B1F90010401AB0F5805FCB
:1017D00008DD3B48008800F5005000B23849088019
:1017E0001AE05CE0354840693549B1F90010401A0B
:1017F00010F5805F10DA32480088A0F5005000B282
:101800002F49088008E02E48B0F900002B494861B4
:1018100021462A4802F088FA42E02248006832282D
:1018200025D22146274801F06FFF26484069264906
:10183000B1F90010401AB0F5805F07DD224800883A
:1018400000F5005000B22049088019E01D484069A9
:101850001D49B1F90010401A10F5805F10DA1A48DE
:101860000088A0F5005000B21749088008E016482B
:10187000B0F90000134948612146124802F054FAB9
:101880000EE008480068322804D821460F4801F0CD
:101890003BFF03E021460D4802F01AF900E000BFCB
:1018A00000BF10BD180B0020FE09002038120020D8
:1018B00090120020E812002040130020981300200E
:1018C0001E0B0020F01300201C0B0020A014002091
:1018D00010B5044607480068401C064908602068A7
:1018E000902803D1204601F0FDF900E000BF00BFC1
:1018F00010BD0000180B002010B52DED048B044620
:10190000A078E17840EA012000B2CC490880207933
:10191000617940EA012000B2C8494880A0798880F6
:10192000E079C7490880207A4880607AC5490880F4
:10193000A07A4880C4480078C449086020785228BA
:101940007ED160784D28FBD1A078412878D0C0485E
:1019500090ED000AF7EE000A30EE200A80ED000A52
:10196000B648B0F9000000EE100AB8EEC00AB94857
:1019700080ED000AB148B0F9020000EE100AB8EE9E
:10198000C00AB54880ED000A0120AF490870002068
:10199000B2498887B248007A032802D10120B149B0
:1019A000087001F0EDFEB0494860084640680968DB
:1019B000401AAD498860AD480078401CAB490870BA
:1019C00008460078012819D1A94890ED101BB0EE07
:1019D000410AF0EE610A51EC100B05F0AFFBA5498E
:1019E0000860A54890ED101BB0EE410AF0EE610AC8
:1019F00051EC100B05F0A2FBA04908609B48007851
:101A00001E2802DD1E209949087001F087FE072874
:101A10000ED001F083FE58B101F080FE062807D0F9
:101A200001F07CFE052803D001F078FE01281CD1CE
:101A30008F4890ED101BB0EE410AF0EE610A00E015
:101A400093E051EC100B05F079FB8D4908608A4852
:101A500090ED101BB0EE410AF0EE610A51EC100B54
:101A600005F06CFB874908607BE07449B1F9000020
:101A700005F00DFE41EC190B9FED830B53EC102B81
:101A800005F042FC41EC180B05F058FB7C4908605E
:101A90007248B0F93C0023281BDA084690ED000A92
:101AA0006E48B0F91410808A401C00B26B4A9082D4
:101AB000104600EB810080ED000A1046B0F91400DA
:101AC000052802DB002011468882002063498887B0
:101AD00010E0002008E09FED6E0A604901EB8001F4
:101AE00081ED000A411CC8B20528F4DB00205B49E7
:101AF000888288875148808881B266480278007859
:101B0000401C644B1870644820F812101846007886
:101B10000A2802DB0020194608705F4804F0D0FF55
:101B20005E4908804549B1F9020005F0B0FD41EC7D
:101B3000190B9FED550B53EC102B05F0E5FB41EC19
:101B4000180B05F0FBFA4F4908604D4890ED000A6C
:101B5000534880ED000A084690ED000A514880ED98
:101B6000000A01F00DFE40490860207852282DD16E
:101B700060784D282AD1A078412827D1E0784128E3
:101B800024D12079412821D19FED410A314880EDAF
:101B9000000A9FED3F0A304880ED000A2F48808FF1
:101BA000401C00B22D4988870846B0F93C00232824
:101BB00001DB232088872948B0F93C00232805DC75
:101BC000394890ED000A2E4880ED000A2348B0F90C
:101BD0003C0023281ADB002024490870324890ED8D
:101BE000000A274880ED000A234890ED101BB0EE54
:101BF000410AF0EE610A51EC100B05F09FFA214901
:101C000008600020174908700F4908701448007ACE
:101C1000032802D101202549087001F07FFD042826
:101C200008D10F48007A022804D100200D4908701D
:101C30001E490870BDEC048B10BD00002000002080
:101C4000260000202A000020FA0900207800002049
:101C5000880000207C000020800000201C0F002055
:101C600010150020410A0020730B00207500002091
:101C700098130020F8000020F0130020FC00002042
:101C80003C0000203400002000000000000059400B
:101C90000000000044000020080F00204200002047
:101CA0003800002030000020B8000020110A002079
:101CB00010B52DED048B01F031FD012807D001F0A6
:101CC0002DFD042803D001F029FD08287DD1884886
:101CD000007801282ED18748008801282AD186481B
:101CE000007810B1012824D111E09FED840A8448C6
:101CF00080ED000A83480068401C824908608248E1
:101D000000688249086000207A49088011E09FED50
:101D1000800A7B4880ED000A7B480068401C7A49B5
:101D20000860784800687B49086000207149088095
:101D300000BF00BF6E4800780128C7D17048006816
:101D400005F036FF41EC190B734890ED101BB0EE17
:101D5000410AF0EE610A53EC102B51EC190B05F01F
:101D60003DFE41EC180B05F063FC041E01DB204630
:101D700000E0604205281DDA5F48007810B10128B4
:101D80000CD105E09FED5D0A5D4880ED000A05E09D
:101D90009FED5F0A5A4880ED000A00BF00BF564819
:101DA0000078401C5449087008460078022801DB7E
:101DB0000020087059480068401C5849086058487D
:101DC0000078002801D1574800E08DE090ED000A2E
:101DD000554880ED000A08460068401C0860084627
:101DE00000685249884202DD01205149086050488C
:101DF000006890BB4248006805F0DAFE41EC180B21
:101E0000454890ED101BB0EE410AF0EE610A53EC2C
:101E1000102B51EC180B05F09FFD05D29FED450AE4
:101E2000404880ED000A18E03548006805F0C0FE23
:101E300041EC180B384890ED101BB0EE410AF0EE63
:101E4000610A53EC102B51EC180B05F04BFC04D23B
:101E50009FED390A334880ED000A354800680128B3
:101E600032D12748006805F0A3FE41EC180B2A4840
:101E700090ED101BB0EE410AF0EE610A53EC102B0E
:101E800051EC180B05F068FD05D29FED2A0A254894
:101E900080ED000A18E01A48006805F089FE41EC60
:101EA000180B1D4890ED101BB0EE410AF0EE610AD0
:101EB00053EC102B51EC180B05F014FC04D29FEDE1
:101EC0001E0A184880ED000A174890ED000A1548D0
:101ED000D0ED000A20EE200AB5EEC00AF1EE10FAAD
:101EE00002D201200E490870BDEC048B10BD000029
:101EF000FE090020CE0A00201901002000401C46E7
:101F0000A4090020480100205001002054010020B5
:101F100000401CC64C010020381200203001002077
:101F200006010020AC090020A8090020F0490200A9
:101F30002C010020000048C20000484210B52DEDE1
:101F4000088BFE480068FE490968401A40F2DC51DF
:101F5000884205D90020FB490870FB49086052E01F
:101F6000F6480068F6490968401A12D0F748008818
:101F700078280EDDF648006858B9F348006840B983
:101F8000C820F44908600120F1490860EE49086062
:101F900039E0EA480068EA490968401A1AD0EB4873
:101FA0000088782816DDEA480068012812D1E64842
:101FB000006878B9FEF76CF9962190FBF1F201FB0D
:101FC0001200E44908600020E14908600120DE4970
:101FD000086018E0D9480068D9490968401A40F6F5
:101FE000C411B0FBF1F201FB120060B9D7480088C0
:101FF000782808DAFEF74CF9962190FBF1F201FB04
:102000001200D449086001F089FB05287ED1D2482E
:1020100000680028FAD1D148006801286DD1002459
:10202000641C002C65DB0A2C63DCCD48006805F0DD
:10203000BFFD41EC1A0BCB4890ED101BB0EE410AEE
:10204000F0EE610A53EC102B51EC1A0B05F0C6FCB4
:1020500041EC190BB0EE490AF0EE690A04F044FCB9
:10206000B0EE408AF0EE608A9FEDBF0B53EC102B70
:1020700051EC180B05F036FB08D2B94890ED000A78
:1020800080ED000A0120BA49086032E0B4480068D7
:1020900005F08EFD41EC1B0BB24890ED101BB0EE2D
:1020A000410AF0EE610A53EC102B51EC1B0B05F0CA
:1020B00095FC41EC1A0B9FEDAF0B53EC102B05F088
:1020C0004DFB41EC190BA74890ED101BB0EE410AF7
:1020D000F0EE610A53EC102B51EC190B05F060F88F
:1020E00041EC180B05F02AF89D4908600120A04931
:1020F000086000209949086000BFA04800780128C6
:1021000084D19B480068012873D100E074E29C48A8
:10211000008801282FD104F0F3FC9A48007810B110
:10212000012827D112E09849B1F90000002801DB0D
:10213000014600E0414200EE101AB8EEC00A88499C
:1021400081ED000A00208E49088013E08E49B1F924
:102150000000002801DB014600E04142494200EE58
:10216000101AB8EEC00A7E4981ED000A00208449A9
:10217000088000BF00BF75480088782875DB834859
:102180000068012871D18248006841F28831884294
:102190003CD280480068522803D07E4800684C2812
:1021A00015D173480068012811D17648007810B124
:1021B000012808D103E002207749086003E00120EC
:1021C0007549086000BF00BF00207149086073486E
:1021D0000068522803D0714800684C2816D1644822
:1021E0000068012812D16748007818B1012809D188
:1021F00004E071E101206849086003E002206649BB
:10220000086000BF00BF00206149086060480068A6
:1022100041F28831884201D9012000E000205C4968
:102220000968B1F57A5F01D2012100E00021084080
:10223000D8B158480068522802D102205649086097
:10224000544800684C2802D1012053490860534883
:102250000068522802D101204F4908604F480068A9
:102260004C2802D102204C49086038480088782860
:102270005FDA4B48006864283BD84648006852281B
:1022800003D0444800684C2815D13948006801281B
:1022900011D13C48007810B1012808D103E0022098
:1022A0003D49086003E001203B49086000BF00BFD2
:1022B00000203749086039480068522803D0374861
:1022C00000684C2815D12A480068012811D12D48F2
:1022D000007810B1012808D103E001202E490860E0
:1022E00003E002202C49086000BF00BF00202849FD
:1022F00008602B48006864281BD9264800685228CB
:1023000002D1022024490860224800684C2802D1EA
:1023100001202149086021480068522802D101208B
:102320001D4908601D4800684C2802D102201A4946
:1023300008600B48006805F03BFC33E0F009002022
:102340000C0A0020FB090020140B0020260B0020A3
:10235000100B00200C0B0020840A0020FC0A002037
:10236000A40900203812002000000000000079407D
:10237000EC0A00207B14AE47E17A743FFE0900208E
:10238000CE0A002019010020F20A0020800A002055
:102390005C0A002048000020000B00204C000020B8
:1023A000600A002041EC1A0BFE4890ED101BB0EEC5
:1023B000410AF0EE610A53EC102B51EC1A0B05F0B8
:1023C0000DFB41EC190BB0EE490AF0EE690A04F07E
:1023D0008BFAB0EE408AF0EE608A9FEDF30B53EC7F
:1023E000102B51EC180B05F07DF975D2F0480088E0
:1023F000782842DBEF48006841F2883188423CD2BD
:10240000ED48006858B904F07BFBEC48B0F90000D7
:1024100000EE100AB8EEC00AE94880ED000AE6486E
:102420000068012829D104F06BFBE648007810B160
:10243000012821D10FE0E149B1F90000002801DBBA
:10244000014600E0414200EE101AB8EEC00ADC4935
:1024500081ED000A10E0D949B1F90000002801DB44
:10246000014600E04142494200EE101AB8EEC00AAF
:10247000D34981ED000A00BF00BFCD48008878280D
:102480003DDAD148006801280BD104F039FBCB4874
:10249000B0F9000000EE100AB8EEC00AC84880ED9E
:1024A000000AC9480068B8B904F02AFBC54800789A
:1024B00010B1012822D110E0C049B1F90000002874
:1024C00001DB014600E0414200EE101AB8EEC00AFE
:1024D000BB4981ED000A11E011E0B849B1F90000F3
:1024E000002801DB014600E04142494200EE101A9B
:1024F000B8EEC00AB24981ED000A00BF00BFB34880
:102500000078002878D1B24890ED000AB14880EDFB
:10251000000AAB48006805F04BFB41EC180BA148E2
:1025200090ED101BB0EE410AF0EE610A53EC102B57
:1025300051EC180B05F0D6F85FD2A148006805F001
:1025400037FB41EC1A0B974890ED101BB0EE410A97
:10255000F0EE610A53EC102B51EC1A0B05F03EFA29
:1025600041EC190BB0EE490AF0EE690A04F0BCF92F
:10257000B0EE408AF0EE608A9FED970B53EC102B83
:1025800051EC180B05F0E8F928D289480088782822
:1025900012DB8848006841F2883188420CD89048A4
:1025A0000068904909680844404200EE100AB8EEFD
:1025B000C00A874880ED000A7D48008878280CDA38
:1025C00087480068874909680844404200EE100ABD
:1025D000B8EEC00A7E4880ED000A7DE080480068C1
:1025E000804909680844404200EE100AB8EEC00A6B
:1025F000774880ED000A6FE089E17148006805F0D6
:10260000D7FA41EC180B674890ED101BB0EE410A69
:10261000F0EE610A53EC102B51EC180B05F09CF90D
:102620005AD26748006805F0C3FA41EC1A0B5D48BE
:1026300090ED101BB0EE410AF0EE610A53EC102B46
:1026400051EC1A0B05F0CAF941EC190BB0EE490A2E
:10265000F0EE690A04F048F9B0EE408AF0EE608AC4
:102660009FED5D0B53EC102B51EC180B05F074F93A
:1026700026D24F480088782811DB4E48006841F286
:10268000883188420BD85648006856490968084482
:1026900000EE100AB8EEC00A4D4880ED000A44482A
:1026A0000088782818DA4E4800684E4909680844BE
:1026B00000EE100AB8EEC00A454880ED000A0BE0B3
:1026C0004748006847490968084400EE100AB8EE18
:1026D000C00A3F4880ED000A3D4890ED000A3D48A1
:1026E000D0ED000A30EE600A10EE101A084605F030
:1026F0005FFA41EC190BB0EE490AF0EE690A04F0FA
:10270000F3F8B0EE408AF0EE608A9FED370B53ECA1
:10271000102B51EC180B05F01FF96FD22D4890EDDE
:10272000000A2B48D0ED000A20EE200AB5EEC00AC0
:10273000F1EE10FA62DD274890ED000A2C4880ED9A
:10274000000A234890ED000A2A4880ED000A21483B
:10275000006805F02DFA41EC1A0BB0EE4A0AF0EED3
:102760006A0A04F0C1F8B0EE408AF0EE608A1848B8
:10277000006805F01DFA41EC1A0BB0EE4A0AF0EEC3
:102780006A0A04F0B1F8B0EE409AF0EE609A53ECA9
:10279000182B51EC190B05F0DFF834D20120164943
:1027A00008702CE0381200200000000000001440E7
:1027B000260B00205C0A0020F80A0020F20A002004
:1027C000A409002019010020FC0A002006010020B5
:1027D000AC090020A80900200000000000407F4054
:1027E000080B00200C0B00200000000000C062401D
:1027F000B0090020B40900200701002030E045485E
:10280000816988472CE04448006805F0D1F941EC23
:102810001A0BB0EE4A0AF0EE6A0A04F065F8B0EE60
:10282000409AF0EE609A3D48006805F0C1F941EC2D
:102830001A0BB0EE4A0AF0EE6A0A04F055F8B0EE50
:10284000408AF0EE608A53EC192B51EC180B04F01F
:1028500049FF05D20120324908702E488169884716
:102860003048007801281FD12A48016988472E483E
:10287000D0ED000A2D4890ED001A30EEC11AD0EDCF
:10288000000A41EE000A2548C0ED000A214801690E
:102890008847F7EE000AB4EE600AF1EE10FA26D18E
:1028A00000202049087022E01D48007801281ED130
:1028B0001848016988471C48D0ED000A1B4890ED74
:1028C000001A30EEC11AD0ED000A41EE000A13489A
:1028D000C0ED000A0F4801698847F7EE000AB4EE20
:1028E000600AF1EE10FA02D100200D4908700A4882
:1028F00090ED000A0948D0ED000A20EE200AB5EE5E
:10290000C00AF1EE10FA02D2012009490870BDECAC
:10291000088B10BD68090020A8090020AC09002020
:102920000801002007010020B4090020B0090020A0
:10293000060100200246002002EA01030BB101203B
:1029400000E000207047000010B51C480068801CA3
:102950001A49086003F098F903F064FA03F0B8FB31
:1029600003F086FD00F03AFC00F03EFA00F094FF20
:1029700000F00EFAFDF79AFF02F07EFA02F050F92D
:10298000FFF796F9FFF7DAFA00F004FFFEF788FC8C
:1029900001F00EFD00F0F4FE094948600846406869
:1029A0000968401A064988600846806805498842D7
:1029B00002DD00200449087010BD0000F00900206D
:1029C000660B002020A10700FC09002010B50020A4
:1029D000244908602448C16F88472448C16F88474C
:1029E0002348C16F88472348C16F88472248C16F79
:1029F00088472248C16F88472148C16F88472148CE
:102A0000C16F88472048C16F88472048C16F8847F9
:102A10001F484FF4C871C26990471D4881698847B3
:102A20001C484FF4FA61C26990471B484FF4FA61A1
:102A3000C269904717488169884717488169884764
:102A40009FED160A164880ED000A9FED140A1548FE
:102A500080ED000A144890ED000A124880ED010A4A
:102A600010BD0000F00900200002002098020020A4
:102A700030030020C8030020F804002028060020AE
:102A8000C006002058070020F0070020880800201A
:102A900068090020200900204409002000000000EF
:102AA000B80900208C090020F800002021B102683C
:102AB00042F00102026003E0026822F001020260BB
:102AC00070470000016821F00101016000210160F0
:102AD00041608160C1600161212141614A498842B0
:102AE00004D13D21484A103A91608CE046491831A2
:102AF000884205D14FF47461434A103A916082E0F4
:102B000041493031884205D14FF474113E4A103AA0
:102B1000916078E03C494831884205D14FF07461BA
:102B2000394A103A91606EE037496031884204D1E9
:102B30003649354A103AD16065E0334978318842E8
:102B400004D13349304A103AD1605CE02E499031CB
:102B5000884204D12F492C4A103AD16053E02A49C7
:102B6000A831884205D14FF03D51274A103AD16033
:102B700049E02949884204D13D21274A083A116099
:102B800041E025491831884205D14FF47461224A49
:102B9000083A116037E020493031884205D14FF4BE
:102BA00074111D4A083A11602DE01B4948318842D2
:102BB00005D14FF07461184A083A116023E01649B4
:102BC0006031884204D11149134A121F11601AE082
:102BD00011497831884204D10D490F4A121F116002
:102BE00011E00D499031884204D10A490A4A121F66
:102BF000116008E00849A831884204D14FF03D51E6
:102C0000054A121F11607047106002403D0000200D
:102C1000400F002000003D201064024021B10268F6
:102C200042F48022026003E0026822F48022026003
:102C3000704722B1036843F40023036003E0036894
:102C400023F400230360016170470146486880B2A5
:102C50007047014600200A6802F400220AB10120F0
:102C600000E000207047000010B500220268134BFE
:102C70001A40CC680B6823434C6923438C69234377
:102C8000CC6923430C6A23434C6A23438C6A234355
:102C90004C6B23438C6B23431A430260426922F03E
:102CA0000702D1E90B3423431A4342610B694360A5
:102CB0004B6883608B68C36010BD00003F801CF0D0
:102CC0000021016041608160C160016141618161F9
:102CD000C161016241628162C162016341638163DA
:102CE00070477047C17A064A1160017B5160417B91
:102CF0009160817BD160C17B1161017C5161704722
:102D0000F814002070B50446D4E9000140EA01201F
:102D1000218940EA0140217B40EA0160206120696D
:102D2000C0F3C7507F3860612069C0F31600A0610E
:102D3000002527E05DB9B0EE000AA16A6069884706
:102D4000F7EE000A20EE200A84ED080A19E0691E59
:102D50004FF480020A41A0691040C5F117010841F3
:102D6000E0616269501BB0EE000AA16A8847D4EDA9
:102D7000080A94ED071AB8EEC11A41EE000AC4ED34
:102D8000080A6D1C182DD5DB94ED080A70BD0000F3
:102D900010B50F48007801280CD10E490988484227
:102DA00004F075FC0C4A03C20A49088804F086FC4A
:102DB0000A4A03C20648007848B99FED090B064845
:102DC00080ED000B9FED060B044880ED000B10BD5D
:102DD000110A0020420A002030030020C80300200E
:102DE000000000000000000010B52DED0C8BD8484D
:102DF00090ED000AFBEE040AB4EEE00AF1EE10FAE0
:102E000004D8BBEE040A80ED000A0DE0D04890ED36
:102E1000000AF2EE0A0AB4EEE00AF1EE10FA03DB61
:102E2000B2EE0A0A80ED000A00F078FC052805D110
:102E3000C8480078012801D1C749086000F06EFC3D
:102E4000052805D1C348007810B90220C24908609E
:102E500000F064FC04287CD1C048006804F0A8FE9F
:102E600041EC1B0BB0EE4B0AF0EE6B0A03F03CFD9D
:102E7000B0EE409AF0EE609AB848006804F098FE10
:102E800041EC1A0B53EC192B04F03EFA41EC180BF1
:102E900004F054F9B2490860B048006804F088FEB4
:102EA000B04A03C2B04890ED100BAE4880ED020B63
:102EB00090ED022BB0EE420AF0EE620A90ED002B8C
:102EC000B0EE421AF0EE621A53EC102B51EC110BDB
:102ED00004F084FD41EC1D0BB0EE4D0AF0EE6D0ADE
:102EE00003F002FDB0EE40CAF0EE60CA9FED9F0B0A
:102EF00053EC102B51EC1C0B04F030FC41EC1B0B81
:102F0000B0EE4B0AF0EE6B0A03F042FBB0EE40AAC3
:102F1000F0EE60AA9FED970B53EC102B51EC1A0BBF
:102F200004F050FD41EC190B9FED940B53EC102B6A
:102F300004F014FC41EC180B9FED920B53EC102B9A
:102F400004F02EF9874AC2E908019FED900B104664
:102F500000E036E080ED0A0B9FED8E0B80ED0C0B50
:102F60009FED8E0B8F4880ED080B9FED8F0B80ED52
:102F70000A0B9FED8F0B80ED0C0B1046816F88477D
:102F8000794890ED101BB0EE410AF0EE610A9FED1A
:102F9000811B53EC112B51EC100B04F0DFFB41ECC7
:102FA000180B704890ED1A1BB0EE410AF0EE610A62
:102FB00053EC102B51EC180B04F004FD694AC2E9E4
:102FC0001A0100F0ABFB78B100F0A8FB01280BD090
:102FD00000F0A4FB062807D000F0A0FB082803D0CF
:102FE0005D48006802286CD19FED730B5D4880ED51
:102FF000080B9FED730B80ED0A0B9FED6D0B80EDC1
:103000000C0B9FED710B674880ED080B9FED660B75
:1030100080ED0A0B9FED640B80ED0C0B00F07EFB46
:1030200018B100F07BFB072822D19FED5F0B4D48C4
:1030300080ED000B66480169884710EE104A204673
:1030400004F0B6FD41EC180B474890ED101BB0EEB4
:10305000410AF0EE610A53EC102B51EC180B04F00E
:103060007DFB404AC2E902011046816F884728E093
:10307000374890ED000AB1EE400A10EE101A0846EB
:1030800004F096FD374A03C251480169884710EEA3
:10309000104A204604F08CFD41EC180B324890EDAC
:1030A000101BB0EE410AF0EE610A53EC102B51EC0C
:1030B000180B04F053FB2B4AC2E902011046816F42
:1030C0008847284890ED1A0B364880ED000B2649BA
:1030D000886B04F0DCFA41EC180B9FED3E0B53ECCF
:1030E000102B04F03BFB2F4AC2E902011046816F0E
:1030F00088472C4890ED1A1BB0EE410AF0EE610AA9
:1031000003F0F2FBB0EE409AF0EE609A254890EDA5
:103110001A1BB0EE410AF0EE610A53EC192B51EC88
:10312000100B04F0F1F841EC180B1E4890ED1A1B3F
:10313000B0EE410AF0EE610A53EC102B51EC180B83
:1031400004F02EF8174AC2E91A01BDEC0C8B10BD31
:103150008C090020FA090020E0090020340000203A
:10316000D8090020F8040020F01300209A999999BA
:103170009999B9BF000000000000F03F0000000076
:1031800000003E400000000000004E40FCA9F1D2CB
:103190004D62503F00000000000018400000000099
:1031A000000044402806002000000000000000004D
:1031B000000000000000004000000000000054403B
:1031C0007B14AE47E17A843F0000000000003440E9
:1031D000200900209A9999999999B93F10B52DED38
:1031E0000C8B00F09BFA042803D0DF48006801280C
:1031F0007CD1DE4890ED000ADD48D0ED000A30EECB
:10320000600ADC4880ED000AD7480068DA490860A7
:103210000020D5490860D648006804F0C9FC41EC9C
:103220001B0BB0EE4B0AF0EE6B0A03F05DFBB0EE49
:10323000409AF0EE609ACE48006804F0B9FC41EC88
:103240001A0B53EC192B04F05FF841EC180B03F048
:1032500075FFCA490860C64890ED000AB1EE400A01
:1032600010EE100A04F0A4FCC54A03C2C54890ED54
:10327000000AB1EE400A10EE100A04F099FCC04AB0
:10328000C2E90201104690ED022BB0EE420AF0EEC8
:10329000620A90ED002BB0EE421AF0EE621A53EC87
:1032A000102B51EC110B04F099FB41EC1D0BB0EE0F
:1032B0004D0AF0EE6D0A03F017FBB0EE40CAF0EED7
:1032C00060CA9FEDB10B53EC102B51EC1C0B04F0BA
:1032D00045FA41EC1B0BB0EE4B0AF0EE6B0A03F023
:1032E00057F9B0EE40AAF0EE60AA00E073E09FED5F
:1032F000A80B53EC102B51EC1A0B04F063FB41ECC0
:10330000190B9FEDA50B53EC102B04F027FA41ECA1
:10331000180B9FEDA30B53EC102B03F041FF984AC1
:10332000C2E90801104690ED022BB0EE420AF0EE21
:10333000620A90ED002BB0EE421AF0EE621A53ECE6
:10334000102B51EC110B04F049FB41EC1B0BB0EEC0
:103350004B0AF0EE6B0A03F0C7FAB0EE40AAF0EEAB
:1033600060AA9FED890B53EC102B51EC1A0B04F063
:10337000F5F941EC180BB0EE480AF0EE680A03F0DC
:1033800007F9B0EE409AF0EE609A9FED870B53EC90
:10339000102B51EC190B04F0E1F9794AC2E90A014A
:1033A0009FED830B104680ED0C0B9FED830B844843
:1033B00080ED080B9FED830B80ED0A0B9FED830BD7
:1033C00080ED0C0B1046816F8847694890ED000A2C
:1033D000664880ED000A00F0A1F918B100F09EF9EE
:1033E000072827D19FED7B0B654880ED080B9FEDEB
:1033F0007B0B80ED0A0B9FED6E0B80ED0C0B9FEDB0
:10340000790B6F4880ED080B9FED780B80ED0A0B70
:103410009FED6E0B80ED0C0B764890ED100B58482D
:1034200080ED000B734890ED100B554880ED020BBA
:10343000816F884700F072F9062831D19FED650B46
:103440004F4880ED080B9FED580B80ED0A0B9FED68
:10345000580B80ED0C0B9FED680B594880ED080B65
:103460009FED620B80ED0A0B9FED580B80ED0C0B6E
:10347000634890ED010A10EE101A084604F098FB1C
:103480003F4A03C25B4890ED100B3D4880ED020BB4
:103490005C48007800F0070010B13948816F884718
:1034A00000F03CF9012807D000F038F9082803D0D3
:1034B0002D480068022832D12B4800682E49086048
:1034C0000020294908609FED430B2D4880ED080B33
:1034D0009FED350B80ED0A0B9FED440B80ED0C0B3F
:1034E0009FED490B364880ED080B9FED400B80EDBA
:1034F0000A0B9FED360B80ED0C0B414890ED010A55
:1035000010EE101A084604F053FB1D4A03C2394856
:1035100090ED100B1A4880ED020B816F8847184818
:1035200090ED1A1BB0EE410AF0EE610A9FED381BD8
:1035300053EC112B51EC100B04F010F9204A03C28C
:103540003548B0F904004042052190FBF1F42046D3
:1035500004F09DF81A4AC2E902011046816F8847BB
:10356000BDEC0C8B10BD0000E009002038000020ED
:103570003C000020C0090020E4090020D009002000
:10358000C0060020B8000020333333333333D3BFB9
:10359000000000000000F03F0000000000004E406E
:1035A00000000000008051407B14AE47E17A743F78
:1035B00000000000000014400000000000405040E7
:1035C00058070020FCA9F1D24D62503F00000000D6
:1035D0000000004000000000000059407B14AE478E
:1035E000E17A843F00000000000024400000000059
:1035F0000000000098130020000000000000394087
:103600008C090020F00900200000000000003E406E
:10361000333333333333D33FBC000020F0B50A4695
:1036200000210023002400BF3DE0012505FA01F33D
:10363000156805EA03049C4234D105684F0003264F
:10364000BE40B543056015794E00B5400668354368
:1036500005601579012D02D01579022D16D18568E6
:103660004F000326BE40B543856055794E00B540F6
:10367000866835438560456801268E40B5434560C0
:10368000456896798E40B6B235434560C5684F00AF
:103690000326BE40B543C560D5794E00B540C66827
:1036A0003543C560491C1029BFD3F0BDF0B50023D8
:1036B00000244D07ED0E02FA05F3CE1000F12005AF
:1036C00055F826504E07F70E0F26BE40B543CF10D3
:1036D00000F1200646F82750CE1000F1200555F8DD
:1036E000265045EA0304CE1000F1200545F8264097
:1036F000F0BD018370474FF6FF7101600021017139
:1037000041718171C17170470A7BCB7A42EA032211
:1037100042614269026042698260704701480078F4
:1037200070470000F909002030B5034613B94FF681
:10373000FF7030BD09E013F8014B82EA0400C0B20B
:10374000054D35F8100080EA2222081EA1F1010182
:10375000F1D11046EDE70000D67D000830B50346F4
:1037600005E013F8010B80EA02040448025D081E1C
:10377000A1F10101F5D1104630BD0000D57C000853
:103780004FF08040406A7047014800787047000061
:10379000F809002010B5FFF7C1FF01280BD0FFF793
:1037A000BDFF052807D0FFF7B9FF042803D0FFF7B6
:1037B000B5FF082852D12A480078012823D10020DB
:1037C00028490870284908709FED280A284880ED8C
:1037D000000A90ED000AB5EEC00AF1EE10FA06D824
:1037E0009FED220A80ED000A02201D490870214841
:1037F00090ED000A1E48D0ED000A20EE200A1E4877
:1038000080ED000A2AE016480078022820D1B7EEA1
:10381000000A174880ED000A90ED000AF7EE000A52
:10382000B4EEE00AF1EE10FA06DBB7EE000A80ED26
:10383000000A00200A490870104890ED000A0C4860
:10384000D0ED000A20EE200A0B4880ED000A05E0CA
:103850000A4890ED000A084880ED000A10BD0000FB
:1038600006010020070100200801002000000000E0
:103870009C090020A8090020B8090020AC090020FC
:1038800003490988014409B2014A118070470000C8
:10389000540A002000BFFEE7024800780249087081
:1038A000704700004A0A0020500A002010B5044664
:1038B000FFF766FF7849086004B910BD207C617C81
:1038C00000EB012000B200EE100AB8EEC00ABDEE17
:1038D000C00A10EE100A00B270490880A07CE17C9A
:1038E00000EB012000B200EE100AB8EEC00ABDEEF7
:1038F000C00A10EE100A00B268494880207D617D40
:1039000000EB012000B200EE100AB8EEC00ABDEED6
:10391000C00A10EE100A00B260498880E07D217E66
:1039200000EB012000B200EE100AB8EEC00ADFED95
:103930005C0A80EE201A5B4880ED001A607EA17E52
:1039400000EB012000B200EE100AB8EEC00AB1EEA2
:10395000400ADFED530A80EE201A524880ED011A2A
:10396000E07E217F00EB012000B200EE100AB8EEED
:10397000C00AF2EE040A80EE201A4B4880ED001ACD
:103980004A4890ED000A4A4880ED000A454890ED0B
:10399000010A464880ED000A464890ED000A464874
:1039A00080ED000A404890ED000A424880ED000A90
:1039B00090ED000A4048D0ED000A30EE600ADFEDDD
:1039C0003F0AB4EEE00AF1EE10FA04DD3C4800686C
:1039D000401E3B490860374890ED000A3648D0ED5C
:1039E000000A30EE600ADFED370AB4EEE00AF1EECD
:1039F00010FA04D232480068401C3149086030484F
:103A000000684FF4B471484300EE100AB8EEC00AE3
:103A10002848D0ED000A30EE200A224880ED020A44
:103A2000224890ED000A2248D0ED000A30EE600AEC
:103A3000DFED220AB4EEE00AF1EE10FA04DD2248CE
:103A40000068401E20490860184890ED000A184898
:103A5000D0ED000A30EE600ADFED1A0AB4EEE00A9B
:103A6000F1EE10FA04D218480068401C16490860AC
:103A7000154800684FF4B471484300EE100AB8EEE0
:103A8000C00A0A48D0ED000A30EE200A054880ED51
:103A9000010A00BF11E70000800B0020BC000020DD
:103AA0000000C84234100020B8000020DC000020D4
:103AB000D8000020D4000020D00000200000964351
:103AC000C8000020000096C3CC00002000BFFEE725
:103AD0002DE9F0412DED088B04460D460026002708
:103AE00020686060287BE97A40EA01202060206835
:103AF0006168401AE060E06810F5805F07DA606B8B
:103B0000401C6063E06800F50050A0610DE0E068D3
:103B1000B0F5805F07DD606B401E6063E068A0F574
:103B20000050A06101E0E068A061A269207C411C16
:103B3000217404F11C0141F820202168606B01EB25
:103B40004030A060616B4FF4B47201FB02F003F0EF
:103B50009EFD9FED1C0B53EC102B03F0D5FB41ECAD
:103B6000180B21686269881A03F091FD9FED170B0D
:103B700053EC102B03F0F2FD9FED160B53EC102BC2
:103B800003F0C2FB53EC182B03F00AFB41EC100BC3
:103B900084ED100B207C062801D100202074002623
:103BA00005E004F11C0050F826000744761C062EA0
:103BB000F7DB062097FBF0F0A063BDEC088BBDE8B7
:103BC000F081000000000000000042400000000002
:103BD00000002440000000000000C0402DE9F0413A
:103BE0002DED0A8B04460D4600260027B046002026
:103BF00008EE100A20686060287BE97A40EA01201C
:103C0000206020686168401AE060E06810F5805F1D
:103C100007DA606B401C6063E06800F50050A0614B
:103C20000DE0E068B0F5805F07DD606B401E60630B
:103C3000E068A0F50050A06101E0E068A061A26921
:103C4000207C411C217404F11C0141F820202168D2
:103C5000606B01EB4030A060616B4FF4B47201FB0C
:103C600002F003F014FD9FED2A0B53EC102B03F030
:103C70004BFB41EC190B21686269881A03F007FDC0
:103C80009FED250B53EC102B03F068FD9FED240BEB
:103C900053EC102B03F038FB53EC192B03F080FA94
:103CA00041EC100B84ED100B207C062801D1002084
:103CB0002074002605E004F11C0050F8260007449B
:103CC000761C062EF7DBA97B687B41EA00200FFA01
:103CD00080F8404603F0DBFC41EC1A0B9FED0C0B27
:103CE00053EC102B03F010FB41EC190B03F0A0FC7C
:103CF000A063297CE87B41EA002000B208EE100AAC
:103D0000B8EEC80A84ED140ABDEC0A8BBDE8F08158
:103D1000000000000000334028AFA1BC86F2324012
:103D2000000000000000C0402DE9F0472DED088B99
:103D300004460D460026B14600BF00BF2068606003
:103D4000287BE97A40EA0120206020686168401AF7
:103D5000E060E06810F5805F07DA606B401C60632C
:103D6000E06800F50050A0610DE0E068B0F5805F0C
:103D700007DD606B401E6063E068A0F50050A06145
:103D800001E0E068A061A269207C411C217404F17B
:103D90001C0141F820202168606B01EB4030A060DD
:103DA000616B4FF4B47201FB02F003F070FC41EC64
:103DB000180B21686269881A03F069FC9FED290BD2
:103DC00053EC102B03F0CAFC9FED280B53EC102B87
:103DD00003F09AFA53EC182B03F0E2F941EC100BC4
:103DE00084ED100B21686269881A03F050FC9FED86
:103DF0001D0B53EC102B03F0B1FC9FED1C0B53EC8F
:103E0000102B03F081FA41EC100B84ED120B207C97
:103E1000062801D100202074002605E004F11C00D2
:103E200050F826008144761C062EF7DBA97B687BC0
:103E300041EA00284FF4B47018FB00F03C2190FBDD
:103E4000F1F0A063297CE87B41EA002007B200EE94
:103E5000107AB8EEC00A84ED140ABDEC088BBDE8F8
:103E6000F0870000000000000080764000000000A5
:103E70000000C0407047000070B5002100230F22F1
:103E8000C4781CB3174C246804F4E064C4F5E064FF
:103E9000C4F30721C1F10404E3B20A4144789C4011
:103EA000E1B28478144021430C07210E0E4C0578B2
:103EB0006155047804F01F050124AC4005786D11AC
:103EC000AD0005F1E025C5F8004109E0047804F0F3
:103ED0001F050124AC40054D0678761145F82640B3
:103EE00070BD00000CED00E000E400E080E100E0C7
:103EF00002490143024A1160704700000000FA05C0
:103F00000CED00E010B52DED028B044694ED022B74
:103F1000B0EE420AF0EE620A94ED002BB0EE421AC7
:103F2000F0EE621A53EC102B51EC110B03F056FD1E
:103F3000C4E9040194ED222BB0EE420AF0EE620ACD
:103F400094ED042BB0EE421AF0EE621A53EC102BF3
:103F500051EC110B03F000FD16D994ED221BB0EECD
:103F6000410AF0EE610A51EC100B03F0DBF841EC72
:103F7000180B94ED041BB0EE410AF0EE610A53EC0D
:103F8000102B03F0E9FC7DD294ED042BB0EE420A35
:103F9000F0EE620A94ED082BB0EE421AF0EE621ACF
:103FA00053EC102B51EC110B03F0D8FBC4E90E01BC
:103FB00094ED141BB0EE410AF0EE610A51EC100BC7
:103FC00003F0B0F841EC180B94ED0E1BB0EE410A73
:103FD000F0EE610A53EC102B03F0BEFC0CD894ED0C
:103FE000141BB0EE410AF0EE610A51EC100B03F025
:103FF00099F8C4E90E0116E094ED142BB0EE420AD4
:10400000F0EE620A94ED0E2BB0EE421AF0EE621A58
:1040100053EC102B51EC110B03F09EFC03D894EDE4
:10402000140B84ED0E0B94ED042BB0EE420AF0EE6F
:10403000620A94ED0A2BB0EE421AF0EE621A53ECCB
:10404000102B51EC110B03F089FB41EC180B94ED94
:10405000101BB0EE410AF0EE610A53EC102B03F096
:104060009FF8C4E9100194ED161BB0EE410AF0EE82
:10407000610A51EC100B03F055F841EC180B94ED6C
:10408000101B00E0D5E0B0EE410AF0EE610A53ECFF
:10409000102B03F061FC0CD894ED161BB0EE410A16
:1040A000F0EE610A51EC100B03F03CF8C4E910018A
:1040B00016E094ED162BB0EE420AF0EE620A94ED93
:1040C000102BB0EE421AF0EE621A53EC102B51ECAA
:1040D000110B03F041FC03D894ED160B84ED100B8B
:1040E00094ED241BB0EE410AF0EE610A9FED741BC3
:1040F00053EC112B51EC100B03F05EFA1ED194ED32
:10410000062BB0EE420AF0EE620A94ED042BB0EEFC
:10411000421AF0EE621A53EC102B51EC110B03F023
:104120001DFB41EC180B9FED680B53EC102B03F0BB
:10413000D9FA03D29FED640B84ED100B94ED062B9E
:10414000B0EE420AF0EE620A94ED042BB0EE421A91
:10415000F0EE621A53EC102B51EC110B03F03EFC05
:1041600041EC180B94ED0C1BB0EE410AF0EE610A25
:1041700053EC102B03F0F2FAC4E9120194ED181B72
:10418000B0EE410AF0EE610A51EC100B02F0CAFFEA
:1041900041EC180B94ED121BB0EE410AF0EE610AEF
:1041A00053EC102B03F0D8FB0CD894ED181BB0EE99
:1041B000410AF0EE610A51EC100B02F0B3FFC4E9C2
:1041C000120116E094ED182BB0EE420AF0EE620AEE
:1041D00094ED122BB0EE421AF0EE621A53EC102B53
:1041E00051EC110B03F0B8FB03D894ED180B84EDE0
:1041F000120B94ED102BB0EE420AF0EE620A94ED31
:104200000E2BB0EE421AF0EE621A53EC102B51EC6A
:10421000110B02F0C5FF41EC180B94ED121BB0EE30
:10422000410AF0EE610A53EC102B02F0B9FFC4E929
:10423000200194ED200B84ED1A0B94ED1C1BB0EEC5
:10424000410AF0EE610A51EC100B02F06BFF41ECF9
:10425000180B94ED1A1BB0EE410AF0EE610A53EC14
:10426000102B03F079FB0CD894ED1C1BB0EE410A27
:10427000F0EE610A51EC100B02F054FFC4E91A0190
:1042800016E094ED1C2BB0EE420AF0EE620A94EDBB
:104290001A2BB0EE421AF0EE621A53EC102B51ECCE
:1042A000110B03F059FB03D894ED1C0B84ED1A0B92
:1042B00094ED040B84ED060BBDEC028B10BD0000E9
:1042C000000000000000F03F0000000000000000BF
:1042D0009FED120B80ED000B9FED100B80ED020B9C
:1042E0009FED0E0B80ED040B9FED0C0B80ED060B8C
:1042F0009FED0A0B80ED0E0B9FED080B80ED100B70
:104300009FED060B80ED120B9FED040B80ED200B53
:104310009FED020B80ED1A0B7047000000000000BB
:10432000000000007047000000B587B001210802BE
:1043300000F0CCF80121042000F0C8F82020019002
:1043400000208DF808008DF80A0001208DF80B0080
:1043500003208DF8090001A91348FFF75FF98020B9
:10436000059000208DF818008DF81A0001208DF8B6
:104370001B0003208DF8190005A90C48FFF74EF922
:104380004020039000208DF810008DF812000120CD
:104390008DF8130003208DF8110003A90348FFF7DF
:1043A0003DF907B000BD00000008024000200240B7
:1043B000394800683949087039480078012808D11F
:1043C0000846007828B9012036490870002036498F
:1043D00008603448007801280CD134490880002056
:1043E000334908703349486308602E49087001203A
:1043F000314908602948007878B92B480068401C8A
:104400002949086008460068B0F5FA7F05DD0020FC
:104410002749087001202549088020480078204954
:1044200008701D48001F006824490870244800785F
:10443000012808D10846007828B9012021490870D0
:104440000020214908601F48007801280CD1174935
:104450000880174908700020164948630860194908
:1044600008700120144908601448007870B9164893
:104470000068401C1449086008460068B0F5FA7FDF
:1044800004DD01200A490870084908800B480078BB
:104490000B490870704700001C024442C90A002002
:1044A000C80A0020D40A0020D80A0020CE0A002022
:1044B0001901002038120020EC0A0020CD0A00204B
:1044C000CC0A0020D60A0020DC0A002029B1064AC6
:1044D00012680243044B1A6004E0034A12688243E4
:1044E000014B1A60704700003038024029B1064A7B
:1044F00012680243044B1A6004E0034A12688243C4
:10450000014B1A60704700004038024029B1064A4A
:1045100012680243044B1A6004E0034A12688243A3
:10452000014B1A60704700002038024029B1064A4A
:1045300012680243044B1A6004E0034A1268824383
:10454000014B1A60704700004438024029B1064A06
:1045500012680243044B1A6004E0034A1268824363
:10456000014B1A607047000024380240F0B500216A
:1045700000220024022500260223324F3F6807F064
:104580000C0121B1042905D0082937D105E02E4FAF
:10459000076036E02D4F076033E02A4F3F1F3F682A
:1045A000C7F38056274F3F1F3F6807F03F036EB1A8
:1045B000264FB7FBF3F7DFF88CC0ACF1040CDCF846
:1045C00000C0CCF3881C07FB0CF40CE01E4FB7FBBB
:1045D000F3F7DFF870C0ACF1040CDCF800C0CCF3EA
:1045E000881C07FB0CF4174F3F1F3F68C7F30147B8
:1045F0007F1C7D00B4FBF5F7076002E0124F0760F7
:1046000000BF00BF0F4F3F6807F0F0010909104FCE
:104610007A5C0768D74047600A4F3F6807F4E0516B
:10462000890A0B4F7A5C4768D7408760054F3F681F
:1046300007F46041490B064F7A5C4768D740C76072
:10464000F0BD0000083802400024F400001BB70051
:104650003C0B0020D0E90012914211DA0168491C9C
:10466000016090ED000AF8EEC00A90ED010AB8EE84
:10467000C00A80EE801A80ED021A90ED020A70479F
:10468000B7EE000AFBE77047014691ED000AF8EE2D
:10469000C00A91ED010AB8EEC01A80EE810AF7EE69
:1046A000000AB4EEE00AF1EE10FA01DB01207047D7
:1046B0000020FCE700210160704701607047416005
:1046C0007047000010B52DED088B044614B9BDEC01
:1046D000088B10BDFFF754F8A64908602078617870
:1046E00040EA0120C0F30A00A34908806078C010A6
:1046F000A17840EA4110C0F30A009F494880A078A1
:104700008011E17840EA8100217940EA8120C0F3FC
:104710000A009949888020794010617940EAC110E7
:10472000C0F30A009449C8806079001180080872BB
:104730006079C0F301104872A079E17940EA012064
:1047400000B28D494881207A617A40EA012001B2A5
:1047500089488181A07AE17A40EA012001B2864845
:10476000C181217B8174617BC174A07BE17B40EAC4
:104770000120814988820846B0F90200A0F58060D6
:1047800000EE100AB8EEC00A7C4880ED000AB1F9CC
:104790000610A1F5806002F07AFF41EC1B0B9FED43
:1047A000780B53EC102B02F0D9FF41EC190B764833
:1047B00090ED000A10EE101A084603F0F9F941ECEA
:1047C0001A0B53EC192B02F0EBFC41EC180B02F026
:1047D000B5FC6D4908606849B1F90410A1F5806025
:1047E00002F055FF41EC1B0B9FED680B53EC102BB7
:1047F00002F0B4FF41EC190B634890ED010A10EE92
:10480000101A084603F0D4F941EC1A0B53EC192B9B
:1048100002F0C6FC41EC180B02F090FC5A494860CB
:104820005548B0F90000A0F58060002803DD0120A4
:10483000584908600AE05048B0F90000A0F58060CF
:10484000002803D54FF0FF305249086051480068F6
:10485000012817D14848B0F90000A0F58060002871
:1048600010DC00204B4908609FED4B0B53EC102BE4
:104870004B4890ED000B51EC100B02F091FC484AB4
:1048800003C21AE043480068401CB0B93A48B0F986
:104890000000A0F5806000280FD400203D4908608A
:1048A0009FED3D0B53EC102B3D4890ED000B51EC70
:1048B000100B03F093F83A4A03C22F48407A0128BC
:1048C00002D10220374908702B48407A032802D1D0
:1048D0000120344908702848407A022804D1002079
:1048E00030490870304908602348407A01283AD19D
:1048F0002148007A032803D01F48007A012802D1FA
:1049000001202A4908701C48007A022802D10020A0
:10491000264908701848007A012801D124490870F6
:104920001548007A022803D01348007A032802D1E0
:1049300000201F490870104890F9080001280DD088
:10494000022802D003280DD103E000201649086098
:1049500008E04FF0FF301449086003E001201249DD
:10496000086000BF00BF0448407A032800D100BFA0
:1049700000BFACE6660B002010150020B80900202F
:10498000FA7E6ABC7493683F8C090020D42B6519A9
:10499000E258673F380B0020000000000000E03FB5
:1049A000300B0020FC09002098090020110A00208B
:1049B000410A002001460C4800680B4A52689042A8
:1049C00001D101207047084802680830805C0870F7
:1049D00005480068401C044A1060642801DB002080
:1049E00010600020EEE70000C91100200E494A685F
:1049F0000831885408394968491C0B4A51606429B8
:104A000001DB0021516008494968074A1268914258
:104A100008D105490968491C034A1160642901DB72
:104A20000021116070470000C9110020704700008C
:104A30002DE9F0412DED068B07466C4890ED000AFC
:104A4000DFED6B0A30EE200AF2EE040A20EE200AB7
:104A5000BDEEC00A10EE104A664890ED101BB0EE95
:104A6000410AF0EE610A9FED641B53EC112B51ECEF
:104A7000100B02F095FB41EC1A0B614890ED000B16
:104A800053EC102B51EC1A0B02F08AFB41EC190B82
:104A90009FED5C0B53EC102B02F060FE41EC180B09
:104AA00002F0C6FD0546594890ED010ADFED580AAF
:104AB00030EE200AF2EE040A20EE200ABDEEC00A13
:104AC00010EE106A4220534908704D2048704E2065
:104AD00088704C20C8704FF47A7094FBF0F030303E
:104AE00008714FF47A7094FBF0F100FB11406421DF
:104AF00090FBF1F0303047494871642094FBF0F1AD
:104B000000FB11400A2190FBF1F0303041498871DF
:104B10000A2094FBF0F100FB114030303D49C87190
:104B20004FF47A7095FBF0F0303008724FF47A70E1
:104B300095FBF0F100FB1150642190FBF1F0303057
:104B400034494872642095FBF0F100FB11500A21B2
:104B500090FBF1F030302F4988720A2095FBF0F17C
:104B600000FB115030302B49C8724FF47A7096FB1D
:104B7000F0F0303008734FF47A7096FBF0F100FBE0
:104B80001160642190FBF1F03030224948736420B9
:104B900096FBF0F100FB11600A2190FBF1F0303040
:104BA0001C4988730A2096FBF0F100FB116030303D
:104BB0001849C8730EE01748174A1268815C1748F5
:104BC00001F050F814480068401C13490860962012
:104BD00001F04AFF10480068B842ECDB00200E49A3
:104BE0000860BDEC068BBDE8F0810000B800002035
:104BF00000003443F0130020000000000080564005
:104C0000300B002000000000000024403410002081
:104C10000000B442AC0F00206000002000480040BB
:104C200070B5FEF77BFD072806D100231A4619460A
:104C3000174800F0F3F829E0164890ED1A1BB0EE83
:104C4000410AF0EE610A51EC100B02F0F1FC04B2E3
:104C5000114890ED1A1BB0EE410AF0EE610A51ECDA
:104C6000100B02F0E5FC05B20C4890ED1A1BB0EEFB
:104C7000410AF0EE610A51EC100B02F0D9FC06B2C9
:104C800023462A463146024800F0C8F870BD0000AD
:104C900000640040280600208808002058070020F3
:104CA0000CB50020019000904148006840F480302D
:104CB0003F49086000BF3E48006800F400300090A3
:104CC0000198401C0190009818B90198B0F5A04FC8
:104CD000F1D13748006800F4003010B10120009095
:104CE00001E0002000900098012860D13048403059
:104CF000006840F080502E49403108602D4800681F
:104D000040F440402B490860294808300068284991
:104D1000083108600846006840F400400860084612
:104D2000006840F4A05008602348091F0860081F6D
:104D3000006840F08070091F086000BF1C480068D0
:104D400000F000700028F9D01A48006840F4803064
:104D50001849086000BF1748406800F480300028F8
:104D6000F9D01448006840F400301249086000BFD0
:104D70001048406800F400300028F9D040F2057077
:104D80000E4908600A480830006820F0030008490E
:104D9000083108600846006840F00200086000BF63
:104DA00003480830006800F00C000828F8D10CBD5A
:104DB00000380240007000400C544007003C0240A4
:104DC0002DE9F04186B080460C4615461E460C9FE4
:104DD0004FF40070019000208DF80C008DF80D004C
:104DE00008208DF80E00200A8DF80F008DF8104075
:104DF000290A8DF811108DF81250310A8DF8131010
:104E00008DF81460390A8DF815108DF8167001A907
:104E10004046FCF7B2F906B0BDE8F081F0B585B0C8
:104E200007460C4615461E4640F2FF100090002033
:104E30008DF808008DF8090008208DF80A00300A66
:104E40008DF80B00F1B28DF80C10290A8DF80D10B9
:104E5000E9B28DF80E10210A8DF80F10E1B28DF82D
:104E60001010FF218DF811108DF812106946384688
:104E7000FCF783F905B0F0BD10B59FED2D0B2E4862
:104E800080ED080B9FED2A0B80ED0A0B9FED280BA0
:104E900080ED0C0B9FED290B2A4880ED080B9FED50
:104EA000240B80ED0A0B9FED220B80ED0C0B2648A6
:104EB0000078012816D12549B1F90010C1EB011184
:104EC000880002F0E4FB1C4A03C2214890ED100B5D
:104ED000194880ED020B816F88479FED1E0B194822
:104EE00080ED000B1A4880690A2804DA9FED1B0B3D
:104EF000144880ED000B1648806910F1050F04DAA4
:104F00009FED140B0F4880ED000B0F48007820B97F
:104F10009FED070B0B4880ED000B0D49886B02F0ED
:104F2000B6FB084AC2E902011046816F884710BDEE
:104F30000000000000000000F0070020000000005A
:104F400000004E4088080020410A0020EC090020A3
:104F5000A01400200000000000C07240000000000B
:104F600000C082C07047000010B51548006840F4CA
:104F70007000134908601348006840F001001149AF
:104F8000086000200F49083108600E4800680E498B
:104F900008400C4908600D48091D0860081F00689A
:104FA00020F48020091F0860002006490C310860A9
:104FB000FFF776FE4FF0006001498039086010BDB0
:104FC00088ED00E000380240FFFFF6FE10300024BC
:104FD0000EB501210846FFF789FA4FF0FF30019026
:104FE0005320ADF800000020ADF80800ADF8020035
:104FF00069464FF0804000F0FDF80121880700F07D
:10500000C1F80121880700F0CFF80EBD10B50121CD
:10501000880700F0D5F838B10121880700F0C1F801
:105020000121880700F0BAF810BD00000EB501217B
:105030000220FFF75BFA40F6B73001905320ADF83D
:1050400000000020ADF80800ADF8020069460C48E9
:1050500000F0D0F801210A4800F094F80121084836
:1050600000F0A2F81D208DF8080001208DF809003D
:105070008DF80A008DF80B0002A8FEF7FDFE0EBDAC
:105080000004004010B501210A4800F099F878B1F9
:105090000121084800F085F80121064800F07EF85B
:1050A0000C20FFF7C5FC04480068401C024908605A
:1050B00010BD0000000400400400002010B50121D4
:1050C000064800F071F801221146044800F089F802
:1050D0000121024800F062F810BD00000004004009
:1050E0000EB501211020FFF701FA5320ADF80000A2
:1050F0000020ADF80200ADF808004FF4FA6001900E
:105100006946094800F076F836208DF8080000203E
:105110008DF809008DF80A0001208DF80B0002A817
:10512000FEF7AAFE0EBD00000010004010B50121E0
:10513000094800F045F870B10121074800F031F846
:105140000121054800F02AF8FDF7FEFB034800683E
:10515000401C0249086010BD001000400000002003
:1051600010B50121064800F01FF80122114604483D
:1051700000F037F80121024800F010F810BD0000DF
:105180000010004021B1028842F08002028004E059
:1051900002884FF67F731A4002807047CA4302822A
:1051A0007047CA430282704721B1028842F001026F
:1051B000028004E002884FF6FE731A4002807047B6
:1051C00030B50246002000230024158A05EA0103B9
:1051D000958905EA010413B10CB1012000E000201B
:1051E00030BD1AB183890B43838102E083898B43ED
:1051F0008381704700220288184B98420ED0184BCA
:1052000098420BD0B0F1804F08D0164B984205D091
:10521000154B984202D0154B984204D14FF68F732C
:105220001A404B881A43124B984207D0114B9842B0
:1052300004D04FF6FF431A400B891A4302804B6893
:10524000C3620B880385054B984202D0044B9842F9
:1052500001D18B7A038601238382704700000140CD
:10526000000401400004004000080040000C004021
:1052700000100040001400402DE9F04106460F46A2
:105280004FF00108002002EE100A0025002419E06A
:1052900008FA04F03040204102EE100A2046B0EE39
:1052A000000A01F0D5FDF0EE400A00EE105AB8EE0B
:1052B000C00AB8EEC21A01EE200ABDEEC00A10EE16
:1052C000105A641CBC42E3DB2846BDE8F0810000B4
:1052D00070B540F224418B4800F00AFC00286FD0E2
:1052E000884800888748001D00888748FDF7B1FC82
:1052F00018BB00218448FDF7D9FB8348FDF7A5FCC6
:10530000C0F164008149086064207F495839C8654C
:105310000846806D40F40020886501217A48FDF739
:10532000C5FB002404E07A49085DFFF75FFB641CBD
:10533000764800688442F6D323E000217248FDF7E6
:10534000B5FB7148FDF781FCC0F164006F4908604E
:1053500064206D495839C8650846806D20F40020E6
:10536000886501216848FDF7A1FB002405E0684934
:105370006431085DFFF73AFB641C644800688442AE
:10538000F5D3B5E06348406862490968401A03D420
:1053900000206149088002E064205F4908805D4880
:1053A0000068602807DB5B480068632803DC642032
:1053B0005A49088002E0002058490880002505E08D
:1053C0009EE057494819FFF7F5FA6D1C052DF8DBEB
:1053D0005348007953490870FF2204215048FEF7D2
:1053E000BDF9514908704F480078097888427FD14B
:1053F0004B4840784A49897840EA01204B49088067
:1054000010214A480088FFF737FF48490880414883
:1054100040684149098801443E4800683F4A128873
:105420001044401F091A414800880930814256DB68
:10543000002505E03A49491D4819FFF7BBFA6D1CE4
:105440003A480088001D8542F4DB38480088C01DBA
:105450003349095C354800880830314A105C41EA1C
:1054600000203349088031480088C11D4FF6FF7283
:105470002B48FEF759F92F4908802D4800880988E4
:10548000884235D126484079012806D124488079C0
:10549000022802D1224801F0A7FC214840790628C1
:1054A00006D11F488079022802D11D4801F004FC72
:1054B0001B484079072806D119488079022802D173
:1054C000174801F043FC16484079022810D11448CF
:1054D000807902280CD1124801F008FC08E00D4840
:1054E00000680E4909880844401F0A49086006E020
:1054F000084840680749096888427FF443AF00BF05
:1055000070BD00000078004058600240F0000020AC
:1055100040100020C9110020EC000020EE00002007
:1055200008110020E4000020E5000020EA0000202F
:10553000E6000020E800002000B58FB00121022025
:10554000FEF7C4FF01218805FEF7C0FF01211020EE
:10555000FEF7ECFF072211464248FEF7A7F80DA818
:10556000FEF7C9F880200D9002208DF83800002049
:105570008DF8390001208DF83B000DA93948FEF760
:105580004DF8394800F03CFA09A800F06FFB3748A5
:1055900009900020ADF82800ADF82A004FF4806093
:1055A000ADF82C000420ADF82E000020ADF830003E
:1055B00009A92D4800F0ECFA012240212A4800F008
:1055C00015FA012240F22441274800F0BBFA0121DC
:1055D000254800F0FFF92648FDF774FA6846FDF704
:1055E0006FFB4FF0006000901F48001D01902148A4
:1055F0000290002003901E200490002005904FF49C
:10560000806006900020079008904FF48070099009
:1056100000020A9000200B900C900D900E906946AD
:105620001348FDF721FB002212491E311048FDF7F7
:1056300000FB01210E48FDF7F1FA01210C48FDF7AE
:1056400035FA25208DF8380001208DF83900022028
:105650008DF83A0001208DF83B000EA8FEF70CFCF7
:105660000FB000BD0004024000100140A086010000
:10567000886402408D0B002010B540F22441284878
:1056800000F036FA002849D0254800882448808850
:105690002448FDF7DEFA00BB00212248FDF706FA98
:1056A0002048FDF7D2FAC0F11E001F4908601E20F5
:1056B0001C49091D0860081F006840F40020091FEC
:1056C000086001211748FDF7F1F917480068122812
:1056D00024D11648FEF7F6FF20E000211148FDF71F
:1056E000E5F91048FDF7B1FAC0F11E000E49086057
:1056F0001E200C49091D0860081F006820F40020C6
:10570000091F086001210748FDF7D0F90648006825
:10571000122803D105481E30FEF7D4FF10BD00004B
:105720000010014088640240100000208D0B002012
:1057300010B540F22441274800F0DAF9002848D09B
:10574000244800882348001D00882348FDF781FA7B
:10575000F8B900212048FDF7A9F91F48FDF775FAAF
:10576000C0F10C001D4908600C201B492839C86293
:105770000846806A40F40020886201211648FDF73F
:1057800095F916480068082823D11548FCF7B4F8A5
:105790001FE000211048FDF789F90F48FDF755FA81
:1057A000C0F10C000D4908600C200B492839C86273
:1057B0000846806A20F40020886201210648FDF72F
:1057C00075F906480068082803D105480C30FCF735
:1057D00093F810BD00480040286002401C000020E3
:1057E000F00E002000B58FB001214020FEF76EFEC4
:1057F00001212020FEF79AFE01218805FEF766FEB2
:10580000082209214148FDF751FF082207213F489E
:10581000FDF74CFF4FF400700D9002208DF838001A
:1058200000208DF83A0003208DF8390000208DF813
:105830003B000DA93548FDF7F1FE4FF4E13009902A
:105840000020ADF82800ADF82A00ADF82C000420A7
:10585000ADF82E000020ADF8300009A92C4800F06A
:1058600097F9012240212A4800F0C0F80121284878
:1058700000F0B0F8012240F22441254800F062F91E
:105880002448FDF71FF96846FDF71AFA4FF020602B
:1058900000901F48001D01901F48029000200390B7
:1058A0003C200490002005904FF48060069000207A
:1058B000079008904FF48070099000020A90002031
:1058C0000B900C900D900E9069461248FDF7CCF9A4
:1058D000002211493C310F48FDF7ABF901210D4879
:1058E000FDF79CF901210B48FDF7E0F847208DF802
:1058F000380000208DF8390001208DF83A008DF82D
:105900003B000EA8FEF7B8FA0FB000BD0018024029
:105910000014014040640240BC0F002010B540F26A
:105920002441284800F0E4F800284AD0254800889F
:105930002448001D00882448FDF78BF900BB002196
:105940002148FDF7B3F82048FDF77FF9C0F13C008E
:105950001E4908603C201C49091D0860081F00689A
:1059600040F40020091F0860184800681D2802D173
:105970001748FDF79BFF01211348FDF797F820E03A
:1059800000211148FDF792F80F48FDF75EF9C0F1CC
:105990003C000E4908603C200B49091D0860081FA7
:1059A000006820F40020091F0860084800681D28CE
:1059B00003D107483C30FDF779FF01210248FDF78C
:1059C00075F810BD0014014040640240C40000207E
:1059D000BC0F002021B1828942F40052828104E090
:1059E00082894DF6FF731A40828170471AB1838A0B
:1059F0000B43838202E0838A8B43838270470000DB
:105A000010B504463248844208D101211020FEF727
:105A10009DFD00211020FEF799FD57E02D4884429E
:105A200009D101214804FEF771FD00214FF4003037
:105A3000FEF76CFD4AE02848844209D10121880420
:105A4000FEF764FD00214FF48020FEF75FFD3DE08E
:105A50002248844209D10121C804FEF757FD0021E4
:105A60004FF40020FEF752FD30E01D48844209D17A
:105A700001210805FEF74AFD00214FF48010FEF7D2
:105A800045FD23E01748844208D101212020FEF77C
:105A90005DFD00212020FEF759FD17E012488442E9
:105AA00009D101218807FEF731FD00214FF0804028
:105AB000FEF72CFD0AE00D48844207D10121400584
:105AC000FEF724FD00216005FEF720FD10BD00005B
:105AD000001001400044004000480040004C0040DD
