:020000040800F2
:10000000802B0020C5020008ED3E00080D390008D5
:10001000453B0008290900081D5D0008000000009C
:10002000000000000000000000000000A54A0008D9
:10003000AB2D0008000000009D430008FD4F0008A4
:10004000DF020008DF020008DF020008DF0200080C
:10005000DF020008DF020008DF020008DF020008FC
:10006000DF020008DF020008DF020008DF020008EC
:10007000DF020008DF020008DF020008DF020008DC
:10008000DF020008DF020008DF020008790A00082A
:100090003D0A0008DF020008DF020008DF02000856
:1000A000DF020008DF020008DF020008DF020008AC
:1000B000A55000081D510008DF020008DF020008FB
:1000C000DF020008DF020008DF020008DF0200088C
:1000D000DF02000811570008DF020008C9570008B6
:1000E000DF020008DF020008DF020008DF0200086C
:1000F000DF020008DF020008DF020008DF0200085C
:10010000DF020008DF020008DF020008DF0200084B
:10011000DF020008DF020008C5510008DF02000806
:10012000DF020008DF020008DF020008DF0200082B
:10013000DF020008DF020008DF020008E50B00080C
:10014000A90B0008DF020008DF020008DF02000838
:10015000DF020008DF020008DF020008B5590008CE
:10016000DF020008DF020008DF020008DF020008EB
:10017000DF020008DF020008DF02000800000000C4
:10018000DF020008DF02000869530008DF020008F0
:10019000DF020008DF020008DF020008DF020008BB
:1001A0000000000000000000DF02000800F002F87C
:1001B00000F05EF80AA090E8000C82448344AAF1A3
:1001C0000107DA4501D100F053F8AFF2090EBAE8A1
:1001D0000F0013F0010F18BFFB1A43F0010318477B
:1001E000F07E0000107F00000A444FF0000C10F871
:1001F000013B13F0070408BF10F8014B1D1108BFA5
:1002000010F8015B641E05D010F8016B641E01F844
:10021000016BF9D113F0080F1EBF10F8014BAD1C94
:100220000C1B09D16D1E58BF01F801CBFAD505E0B2
:1002300014F8016B01F8016B6D1EF9D59142D6D30C
:10024000704700000023002400250026103A28BF34
:1002500078C1FBD8520728BF30C148BF0B60704738
:100260001FB507F066FD00F064F81FBD10B510BDA6
:1002700000F0B2F81146FFF7F3FF06F025FE00F09C
:10028000D0F803B4FFF7F2FF03BC06F02DFC00002A
:100290000B49D1F800C04A685CF8043B1068184468
:1002A00042F8040B8C4528BFA1F1DC0C8A4228BF20
:1002B000A1F1DC02C1F800C04A6020F000407047A4
:1002C000141600200948804709480047FEE7FEE76A
:1002D000FEE7FEE7FEE7FEE7FEE7FEE7FEE7FEE7F6
:1002E00004480549054A064B7047000001500008C4
:1002F000AD01000880160020802B0020801B00200C
:10030000801B0020704700000B4910B5A1F17C0252
:100310000A4CC2E93712372106E000EB104342F8DD
:100320002130074B00FB03400B1EA1F10101F4DC5F
:1003300010BD0120E8E70000B4150020E119D666E1
:10034000CD0D010010B5203AC0F00B80B1E8185077
:10035000203AA0E81850B1E81850A0E81850BFF4AF
:10036000F5AF5FEA027C24BFB1E81850A0E818504E
:1003700044BF18C918C0BDE810405FEA827C24BFA2
:1003800051F8043B40F8043B08BF7047D20728BF30
:1003900031F8023B48BF11F8012B28BF20F8023B7F
:1003A00048BF00F8012B704770477047704770478F
:1003B00010B500F009F8006810BD10B5044600F053
:1003C00003F8046010BD0000004870471C160020B0
:1003D000004870471C1600207546FFF7F9FFAE462F
:1003E00005006946534620F00700854618B020B541
:1003F000FFF776FFBDE820404FF000064FF0000702
:100400004FF000084FF0000B21F00701AC46ACE8BC
:10041000C009ACE8C009ACE8C009ACE8C0098D4629
:1004200070470446AFF300802046FFF72AFF000024
:1004300010B52DED048B7048007870490870704835
:10044000007800287ED16F4890ED101BB0EE410A75
:10045000F0EE610A51EC100B06F0C0FE6A4908602C
:10046000084690ED000ABDEEC00A10EE100A4FF4E7
:10047000B47190FBF1F065490860634890ED000AA3
:10048000BDEEC00A10EE100A4FF4B47190FBF1F209
:1004900001FB120000F5B47090FBF1F201FB1200B9
:1004A00000B25B4908805548007858BB0846B0F94F
:1004B0000000F02811DB0846B0F90000B0F5A87F75
:1004C0000BDA52480068C0EB001000EB40005A21E4
:1004D00001EBC0004F49086022E04D48B0F9000030
:1004E0009B2810DB4A48B0F90000F0280BDC474895
:1004F0000068C0EB001000EB4000B42101EBC0002D
:10050000444908600CE03F4890ED101BB0EE410AF2
:10051000F0EE610A51EC100B07F0DAF83D49086083
:100520003648007801283BD13948B0F90000B0F5D1
:10053000A77F12DD3648B0F900003C280DDC3348B7
:10054000006800E054E0C0EB001000EB40005A21CE
:10055000C1EBC0002F49086022E02D48B0F900002F
:100560003C2810DB2A48B0F900009B280BDC274808
:100570000068C0EB001000EB4000B421C1EBC000EC
:10058000244908600CE01F4890ED101BB0EE410AB2
:10059000F0EE610A51EC100B07F09AF81D49086063
:1005A0001C48006807F0C3F841EC190B154890EDA2
:1005B000101BB0EE410AF0EE610A53EC102B51EC27
:1005C000190B07F05BFA41EC180B9FED130B53EC82
:1005D000102B07F011FA03D201201149087002E034
:1005E00002200F4908700F480088401C0D49088000
:1005F000BDEC048B10BD0000A80A00203A0B0020BF
:100600000F0A0020A8130020C80A002014010020AF
:10061000180100201C010020000000000000F03F35
:1006200020010020380B002010B54FF4A06003F02B
:100630009BFC04F019FD04F09FFD04F043FD00F065
:1006400075F900F027FA04F0C3FF4FF4E13006F02B
:1006500075FC05F013F94FF4E13006F011FD03F0DD
:100660009FFE10BD7B48007801287DD17A48C08864
:100670007A4908800846008879490988401A7949EA
:10068000086079480088401C00B2774908807548A6
:10069000006810F10A0F0EDC0846B0F9001073482C
:1006A00002680068401C714B1860714820F81210F5
:1006B00001207049086069480088782871DD6B481E
:1006C00000680F2837DB6B480068012833D1674882
:1006D0000068401E664931F91010644800680F3800
:1006E000634A32F91000081A634908605F480068DD
:1006F000401E114631F910105C4800680F3832F97D
:100700001000081A3C2816DA58480068401E1146A6
:1007100031F9101055480068401F32F91000081ACE
:10072000062808DD0020554908600120544908705A
:1007300000205049086053480068401C5149086037
:10074000084600683C280DDA084600680A2809DDDA
:100750004448006810F1640F04DC01204A49086035
:100760004A4908603F4800E072E0006810F1640FF9
:100770000ADC0020414908600120414908704349D2
:10078000086000203F49086041480068401C40491B
:10079000086008460068B0F5967F02DD00203D49FC
:1007A00008602E480088782841DA00203349086024
:1007B0000120334908702B48006810F10A0F0DDC46
:1007C0003548006850B9012030490860002033499D
:1007D00008600120324908602F4908602F480068EE
:1007E000401C2E49086008460068642802D9002091
:1007F0002B49086029480068B0F5967F02D900208F
:10080000254908601748006810F10A0F02DC002033
:100810001F4908601E480068401C1D4908600846C2
:100820000068B0F5967F02DD00201A4908600D4887
:10083000006810F10A0F07DC0A48006810F1140F75
:1008400002DB012017490870044800880449088029
:10085000704700000E0A0020AE110020360B002069
:10086000340B00207C0A0020800A0020840A00202B
:1008700036110020880A0020A40A00206C0A0020FB
:100880000B0A0020680A0020080B0020F80A00204C
:100890008C0A0020900A0020780A0020700A0020AC
:1008A0000C0B00200F0A002010B502F073FF042883
:1008B00007D002F06FFF062803D002F06BFF052877
:1008C00025D113480088B0F5C87F20DA1148007898
:1008D00001281CD102F090FF0F494860084640688B
:1008E0000968401A0C4988600C4800780C4991FB53
:1008F000F0F009498968884209DA0A480088401CF2
:1009000000B20849088002F077FF0349086010BD73
:10091000320B0020510A0020690B0020600A0020E1
:1009200010EB0900FC09002000BFFEE700B589B00C
:100930000121082003F006FE0121480603F012FE03
:10094000092200213B4802F0EDFE0922012139482D
:1009500002F0E8FE0320079002208DF8200007A98E
:10096000344802F097FE344800F0BAF904A800F0C9
:10097000F2FB00208DF816008DF817008DF8180096
:100980008DF819008DF81A0001208DF81B00002049
:100990008DF812008DF8130008208DF81400032044
:1009A0008DF81500ADF8100004A9234800F0D1FA25
:1009B00000208DF80A008DF80B0001208DF80C0046
:1009C0000020ADF80000ADF80200ADF80400ADF86D
:1009D0000600ADF8080001208DF80D00684600F013
:1009E0009BF901220221144800F0AAFA01221146C3
:1009F000114800F0A5FA14208DF8200001208DF890
:100A000021008DF822008DF8230008A803F070FA69
:100A100013208DF8200001208DF8210000208DF892
:100A2000220001208DF8230008A803F061FA09B024
:100A300000BD0000000C02400064004000B585B01D
:100A400002210B4800F0ECF978B10221084800F0CF
:100A5000F3F80849064800F0D3F86A460021044834
:100A600000F001FB684600F033FE05B000BD000059
:100A7000006400400800003210B50121044800F075
:100A8000CFF918B10121024800F0D6F810BD0000DE
:100A90000064004000B589B00121022003F052FD3E
:100AA0000121880603F05EFD09220C213C4802F07A
:100AB00039FE09220D213A4802F034FE4FF440502D
:100AC000079002208DF8200007A9354802F0E2FDCA
:100AD000344800F005F904A800F03DFB00208DF833
:100AE00016008DF817008DF818008DF819008DF894
:100AF0001A0001208DF81B0000208DF812008DF8DF
:100B0000130008208DF8140003208DF81500ADF8AF
:100B1000100004A9234800F01CFA0E208DF80A00EA
:100B200000208DF80B0001208DF80C000020ADF89E
:100B30000000ADF80200ADF80400ADF80600ADF815
:100B4000080001208DF80D00684600F0E5F801224C
:100B50000221144800F0F4F901221146114800F076
:100B6000EFF940208DF8200001208DF821008DF84C
:100B700022008DF8230008A803F0BAF93F208DF871
:100B8000200001208DF8210000208DF82200012096
:100B90008DF8230008A803F0ABF909B000BD0000F0
:100BA000000402400068004000B585B002210B48F7
:100BB00000F036F978B10221084800F03DF8084904
:100BC000064800F01DF86A460021044800F04BFA80
:100BD000684600F07FFE05B000BD000000680040E0
:100BE0000800003210B50121044800F019F918B1CD
:100BF0000121024800F020F810BD0000006800400C
:100C000000220C4B994202D10023836111E0C1F311
:100C1000130201F000730BB1C2600AE001F08063BF
:100C20000BB1026105E001F000630BB1826000E0EE
:100C3000426070477000F030B1F5007F3AD00FDCB1
:100C4000202928D006DC01291CD004291DD0082920
:100C500040D11DE0402921D0B1F5807F3AD126E076
:100C6000B1F5004F31D006DCB1F5806F25D0B1F57C
:100C7000006F2FD124E0B1F5803F12D0B1F5003FD5
:100C800028D111E0154A826025E00822C26022E0E6
:100C90001022C2601FE0082202611CE010220261E3
:100CA00019E00822426016E01022426013E004229C
:100CB000426010E0042242600DE0042242600AE03B
:100CC000002282610422426005E000228261042247
:100CD000426000E000BF00BF70470000010101005A
:100CE00010B504460B48844209D10121480603F09F
:100CF00049FC00214FF0007003F044FC08E00121A2
:100D0000880603F03FFC00214FF0806003F03AFCBE
:100D100010BD00000064004010B50021837A01225C
:100D200002FA03F13D4A126842F001023B4B1A609D
:100D30003A4A1C3212688A43384B1C331A60027BD1
:100D4000CAB9364A0C3212688A43344B0C331A60E3
:100D50004288C38842EA0343304A4032847A42F8E8
:100D600034300288838842EA03432C4A4032847A32
:100D700002EBC4025360027B012A19D1274A0C32CC
:100D800012680A43254B0C331A604288038842EAF2
:100D90000343224A4032847A42F83430C28883883E
:100DA00042EA03431D4A4032847A02EBC402536094
:100DB000C27A3AB9194A121D12688A43174B1B1D91
:100DC0001A6006E0154A121D12680A43134B1B1DD8
:100DD0001A60028932B9114A143212688A430F4BE1
:100DE00014331A600289012A06D10C4A143212689F
:100DF0000A430A4B14331A60427B012A06D1074A80
:100E00001C3212680A43054B1C331A60034A1268ED
:100E100022F00102014B1A6010BD00000066004084
:100E200070B504460D46002660692840002871D040
:100E3000B5F5807F5CD010DC082D35D006DC012DA7
:100E400020D0022D24D0042D72D127E0102D31D0D6
:100E5000202D35D0402D6BD138E0B5F5004F60D056
:100E600009DCB5F5007F49D0B5F5806F4CD0B5F5FC
:100E7000006F5DD14FE0B5F5803F2DD0B5F5003F57
:100E800056D12FE0A0682D4901F0B8FD064651E08B
:100E9000E068032101F0B2FD06464BE0E06808215E
:100EA00001F0ACFD064645E0E068102101F0A6FD2A
:100EB00006463FE02069032101F0A0FD064639E027
:100EC0002069082101F09AFD064633E020691021CF
:100ED00001F094FD06462DE06068082101F08EFDCA
:100EE000064627E06068102101F088FD064621E0F3
:100EF000A069012101F082FD06461BE0A0690221E4
:100F000001F07CFD064615E0A069042101F076FDA4
:100F100006460FE00FE0A069702101F06FFD064664
:100F200008E06068042101F069FD064602E0FFE781
:100F3000002600BF00E00026304670BD0101010020
:100F40001AB143690B43436102E043698B43436138
:100F5000704730B5024600200023146824F00204D4
:100F60001460146844F00104146000E05B1C5468D1
:100F700004F001041CB94FF6FF74A342F6D1546883
:100F800004F001040CB900206CE08C79012C04D130
:100F9000146844F08004146003E0146824F08004B2
:100FA0001460CC79012C04D1146844F0400414601E
:100FB00003E0146824F0400414600C7A012C04D17E
:100FC000146844F02004146003E0146824F0200442
:100FD00014604C7A012C04D1146844F0100414609D
:100FE00003E0146824F0100414608C7A012C04D1FE
:100FF000146844F00804146003E0146824F0080442
:101000001460CC7A012C04D1146844F004041460F8
:1010100003E0146824F0040414608C78A407CD78ED
:1010200044EA05640D7944EA05444D7944EA0554DF
:101030000D886D1E2C43D461146824F001041460E3
:10104000002300E05B1C546804F001041CB14FF65F
:10105000FF74A342F6D1546804F001040CB10020DF
:1010600000E0012030BD10B500F5D87303EB01138B
:101070001B6803F004031372137A53B900F5D87395
:1010800003EB01131B6840F2FF7404EA535313602F
:1010900009E000F5D87303EB01131B686FF060449F
:1010A00004EAD303536000F5D87303EB01131B6804
:1010B00003F00203537200F5D87303EB01135B686E
:1010C00003F00F03937200F5D87303EB01135B6811
:1010D0001B0AD37400F5D87303EB01139B68D3721A
:1010E00000F5D87303EB01139B681C0A147300F519
:1010F000D87303EB01139B681C0C547300F5D87371
:1011000003EB01139B681B0E937300F5D87303EB7D
:101110000113DB68D37300F5D87303EB0113DB68AD
:101120001C0A147400F5D87303EB0113DB681C0C64
:10113000547400F5D87303EB0113DB681B0E937432
:1011400021B9C36843F02003C36003E0036943F09F
:101150002003036110BD00218171C17101724172D0
:101160008172C1728170C1700321017102214171CC
:1011700001210180704710B502460020936803F0FA
:101180008063B3F1806F00D110E0936803F00063D7
:10119000B3F1006F01D1012008E0936803F08053A0
:1011A000B3F1805F01D1022000E00420042874D054
:1011B00002F5C07303EB00131B6803F0010402F592
:1011C000C07303EB00131C600B7A7BB94B7A0C885D
:1011D00043EA445302F5C07404EB0014246823432B
:1011E00002F5C07404EB0014236010E00B7A4C6825
:1011F00043EAC4034C7A234302F5C07404EB0014A1
:101200002468234302F5C07404EB001423608B7A36
:1012100003F00F038B7202F5C07303EB00135B68DE
:1012200023F00F0402F5C07303EB00135C6002F5BA
:10123000C07303EB00135B688C7A234302F5C07420
:1012400004EB001463608B7B1C064B7B44EA034475
:101250000B7B44EA0323CC7A234302F5C07404EBEE
:101260000014A3608B7C1C064B7C44EA03440B7C7B
:1012700044EA0323CC7B234302F5C07404EB00143F
:10128000E36002F5C07303EB00131B6843F0010435
:1012900002F5C07303EB00131C6010BD70B52DED9B
:1012A0000C8B82B0EB4890ED022BB0EE420AF0EED0
:1012B000620A90ED002BB0EE421AF0EE621A53EC87
:1012C000102B51EC110B06F0D9FB41EC1D0BB0EECD
:1012D0004D0AF0EE6D0A05F057FBB0EE40CAF0EE95
:1012E00060CA9FEDDD0B53EC102B51EC1C0B06F08C
:1012F00085FA41EC1B0BB0EE4B0AF0EE6B0A05F0E1
:1013000097F9B0EE40AAF0EE60AA9FEDD50B53EC32
:10131000102B51EC1A0B06F0A5FB41EC190B9FEDBD
:10132000D20B53EC102B06F069FA41EC180B9FED31
:10133000CE0B53EC102B05F083FFC64AC2E908011F
:101340009FEDCB0B104680ED0A0B9FEDC90B80ED96
:101350000C0B9FEDC90BCA4880ED080BC94880ED06
:10136000080B9FEDC90BC64880ED0A0BC54880ED00
:101370000A0B9FEDC70BC24880ED0C0BC14880EDF6
:101380000C0B02F007FA072802D002F003FAD0B9DA
:101390009FEDC10BAF4880ED080B9FEDBB0B80EDBF
:1013A0000A0B9FEDBF0B80ED0C0B9FEDB10B80ED99
:1013B000000BBD49886B06F0BAF9A64AC2E90201E2
:1013C0001046816F884702F0E5F9042840D1B748FC
:1013D000006868B9B648006806F03AFC41EC180BA2
:1013E0009FEDB40B53EC102B06F008FA994A03C298
:1013F000AE48006801280DD1AD48006806F028FC11
:1014000041EC180B9FEDAB0B53EC102B06F0F6F9EB
:10141000904A03C2A449886B06F089F98D4AC2E953
:1014200002011046816F8847A449886B06F07FF956
:10143000944AC2E902011046816F8847A049886B2F
:1014400006F075F98E4AC2E902011046816F88479D
:1014500002F0A0F9012807D002F09CF9062803D079
:1014600002F098F9082828D1914890ED000AB1EED1
:10147000400A10EE100A06F0EBFB764A03C28A49D6
:10148000886B06F054F9734AC2E902011046816F75
:1014900088478A49886B06F04AF97A4AC2E902010C
:1014A0001046816F88478649886B06F040F9744A78
:1014B000C2E902011046816F884702F06BF90528E6
:1014C00023D17B48006806F0C3FB624A03C2764919
:1014D000886B06F02CF95F4AC2E902011046816F61
:1014E00088477649886B06F022F9664AC2E902010C
:1014F0001046816F88477249886B06F018F9604A78
:10150000C2E902011046816F884702F043F90728BB
:1015100002D002F03FF9E8BB4E4890ED021BB0EE5E
:10152000410AF0EE610A9FED5A1B53EC112B51EC6E
:10153000100B06F027F918D8464890ED021BB0EEC4
:10154000410AF0EE610A9FED5F1B53EC112B51EC49
:10155000100B06F051FA08D8002003460246014657
:1015600000905A4803F078FC70E03A4890ED1A1B5E
:10157000B0EE410AF0EE610A51EC100B06F0A8F84B
:1015800004B2002003460246214600904F4803F073
:1015900063FC5BE0FFE702F0FDF804282BD138483C
:1015A00090ED1A1BB0EE410AF0EE610A51EC100BFF
:1015B00006F08EF804B2334890ED1A1BB0EE410AE3
:1015C000F0EE610A51EC100B06F082F805B22148EA
:1015D00090ED1A1BB0EE410AF0EE610A51EC100BCF
:1015E00006F076F806B22B460022314637480094C2
:1015F00003F032FC2AE0224890ED1A1BB0EE410ABB
:10160000F0EE610A51EC100B06F062F804B21D48CE
:1016100090ED1A1BB0EE410AF0EE610A51EC100B8E
:1016200006F056F805B20B4890ED1A1BB0EE410AD1
:10163000F0EE610A51EC100B06F04AF806B22B46A8
:10164000002231462148009403F006FC02B0BDECB4
:101650000C8B70BD100200209A9999999999B9BF85
:10166000000000000000F03F0000000000005940B2
:1016700000000000000000000000000000004E40DC
:10168000D803002040030020000000000000E03FDD
:101690000000000000002440000000000000444062
:1016A0000000000000001440481200203401002017
:1016B000C8090020333333333333D3BFF81200204B
:1016C0005013002000000000000024C0006400400F
:1016D00010B5044674480068401C7349086040F225
:1016E00001222168881A914219D010DC40295DD06E
:1016F00006DC302957D0312956D0322973D154E035
:10170000502954D0602953D07029F7D151E00728CF
:1017100069D2DFE800F0C615263784B84F000120F3
:101720006249087060480068322804D82146604841
:1017300002F026F803E021465D4802F08BFAB1E0A2
:1017400001205A49087058480068322804D82146B8
:10175000584802F015F803E02146564802F07AFA9C
:10176000A0E00120514908704F480068322804D891
:101770002146514802F004F803E021464E4802F0A9
:1017800069FA8FE00120494908704748006832280B
:1017900004D82146494801F0F3FF03E021464748B9
:1017A00002F058FA7EE07DE07CE07BE07AE079E0D0
:1017B00078E077E03C480068322826D2214640484D
:1017C00001F0DEFF3E4840693E49B1F90010401A81
:1017D000B0F5805F08DD3B48008800F5005000B29E
:1017E000384908801AE05CE0354840693549B1F96C
:1017F0000010401A10F5805F10DA32480088A0F51A
:10180000005000B22F49088008E02E48B0F90000CF
:101810002B49486121462A4802F0C2FA42E0224898
:101820000068322825D22146274801F0A9FF264822
:1018300040692649B1F90010401AB0F5805F07DD14
:101840002248008800F5005000B22049088019E0C5
:101850001D4840691D49B1F90010401A10F5805F1C
:1018600010DA1A480088A0F5005000B21749088025
:1018700008E01648B0F900001349486121461248B3
:1018800002F08EFA0EE008480068322804D821469B
:101890000F4801F075FF03E021460D4802F054F9AE
:1018A00000E000BF00BF10BD280B00200E0A002082
:1018B00048120020A0120020F8120020501300202F
:1018C000A81300202E0B0020001400202C0B002059
:1018D000B014002010B5044607480068401C0649B3
:1018E00008602068902803D1204601F05FFA00E0EC
:1018F00000BF00BF10BD0000280B002010B52DED6B
:10190000048B0446A078E17840EA012000B2F14956
:1019100008802079617940EA012000B2ED494880D1
:10192000A0798880E079EC490880207A4880607A44
:10193000EA490880A07A4880E9480078E9490860C7
:10194000207852287ED160784D28FBD1A07841289C
:1019500078D0E54890ED000AF7EE000A30EE200A54
:1019600080ED000ADB48B0F9000000EE100AB8EE86
:10197000C00ADE4880ED000AD648B0F9020000EE49
:10198000100AB8EEC00ADA4880ED000A0120D449F6
:1019900008700020D7498887D748007A032802D1E9
:1019A0000120D649087001F027FFD5494860084654
:1019B00040680968401AD2498860D2480078401CC3
:1019C000D049087008460078012819D1CE4890ED1A
:1019D000101BB0EE410AF0EE610A51EC100B05F05D
:1019E000FDFBCA490860CA4890ED101BB0EE410AE1
:1019F000F0EE610A51EC100B05F0F0FBC5490860F0
:101A0000C04800781E2802DD1E20BE49087001F083
:101A1000C1FE07280ED001F0BDFE58B101F0BAFE9C
:101A2000062807D001F0B6FE052803D001F0B2FE6B
:101A300001281CD1B44890ED101BB0EE410AF0EE25
:101A4000610A00E0C2E051EC100B05F0C7FBB2499F
:101A50000860AF4890ED101BB0EE410AF0EE610A4D
:101A600051EC100B05F0BAFBAC490860AAE09949AB
:101A7000B1F9000005F05BFE41EC190B9FEDA80BDE
:101A800053EC102B05F090FC41EC180B05F0A6FB75
:101A9000A1490860084690ED000AA348D0ED000A6D
:101AA00030EE600AA14880ED000A90ED000ADFEDFB
:101AB000A00AB4EEE00AF1EE10FA08D290ED000AA6
:101AC000DFED9C0A30EE200A80ED000A11E0974815
:101AD00090ED000ADFED980AB4EEE00AF1EE10FA9C
:101AE00007DD90ED000ADFED930A30EE600A80ED2D
:101AF000000A8048B0F93C0023281BDA864890EDA4
:101B0000000A7C48B0F91410808A401C00B2794A5F
:101B10009082104600EB810080ED000A1046B0F97B
:101B20001400052802DB002011468882002071493C
:101B3000888710E0002008E09FED800A6D4901EBE6
:101B4000800181ED000A411CC8B20528F4DB0020A9
:101B50006849888288875F48808881B2784802789F
:101B60000078401C764B1870764820F81210184602
:101B700000780A2802DB002019460870714804F03A
:101B8000EFFF714908805349B1F9020005F0CFFD1C
:101B900041EC190B9FED620B53EC102B05F004FC8C
:101BA00041EC180B05F01AFB5C4908605A4890EDAF
:101BB000000A664880ED000A084690ED000A644875
:101BC00080ED000A01F018FE4D4908602078522887
:101BD00049D160784D2846D1A078412843D1E0789A
:101BE000412840D1207941283DD19FED540A3F48FA
:101BF00080ED000A9FED510A3D4880ED000A5548EE
:101C000090ED000AFBEE040AB4EEE00AF1EE10FAE1
:101C100004D8BBEE040A80ED000A0DE04D4890EDBB
:101C2000000AF2EE0A0AB4EEE00AF1EE10FA03DB63
:101C3000B2EE0A0A80ED000A2E48808F401C00B2E6
:101C40002C4988870846B0F93C00232801DB232073
:101C500088872848B0F93C00232804DC9FED370A28
:101C6000324880ED000A2348B0F93C00232819DBF4
:101C70000020244908709FED310A2C4880ED000AAD
:101C8000234890ED101BB0EE410AF0EE610A51ECD2
:101C9000100B05F0A3FA21490860002017490870CD
:101CA0000F4908701448007A032802D101202A49FC
:101CB000087001F06FFD042808D10F48007A02284F
:101CC00004D100200D49087023490870BDEC048B35
:101CD00010BD000020000020260000202A00002067
:101CE0000A0A0020800000209000002084000020CC
:101CF000880000202C0F002020150020510A002011
:101D0000830B00207D000020A8130020000100208C
:101D100000140020040100203C00002034000020BA
:101D20000000000000005940C000002040000020DA
:101D3000000048C30000B443000048430000000016
:101D40004C000020180F00204A000020380000201E
:101D5000300000209C090020210A002010B52DED44
:101D6000048B01F017FD012807D001F013FD0428B2
:101D700003D001F00FFD08287DD19048007801289C
:101D80002ED18F48008801282AD18E48007810B1C2
:101D9000012824D111E09FED8C0A8C4880ED000AC7
:101DA0008B480068401C8A4908608A4800688A4954
:101DB000086000208249088011E09FED880A83486E
:101DC00080ED000A83480068401C82490860804812
:101DD00000688349086000207949088000BF00BF7F
:101DE000764800780128C7D17848006805F030FFB0
:101DF00041EC190B7B4890ED101BB0EE410AF0EE60
:101E0000610A53EC102B51EC190B05F037FE41EC35
:101E1000180B05F05DFC041E01DB204600E060426B
:101E200005281DDA6748007810B101280CD105E0BB
:101E30009FED650A654880ED000A05E09FED670AA1
:101E4000624880ED000A00BF00BF5E480078401C79
:101E50005C49087008460078022801DB0020087001
:101E600061480068401C60490860604800780028AC
:101E700001D15F4800E09DE090ED000A5D4880EDF3
:101E8000000A08460068401C0860084600685A4975
:101E9000884202DD01205949086058480068D0BBDB
:101EA0004A48006805F0D4FE41EC180B4D4890ED0F
:101EB000101BB0EE410AF0EE610A53EC102B51EC0E
:101EC000180B05F099FD0AD24D480068404200EE1B
:101ED000100AB8EEC00A464880ED000A1BE03B48F5
:101EE000006805F0B5FE41EC180B3E4890ED101B64
:101EF000B0EE410AF0EE610A53EC102B51EC180BD6
:101F000005F040FC07D23E4890ED000AB8EEC00A4A
:101F1000374880ED000A3948006801283AD12B483B
:101F2000006805F095FE41EC180B2E4890ED101B53
:101F3000B0EE410AF0EE610A53EC102B51EC180B95
:101F400005F05AFD0AD22E480068404200EE100A01
:101F5000B8EEC00A264880ED000A1BE01B48006866
:101F600005F076FE41EC180B1E4890ED101BB0EE0C
:101F7000410AF0EE610A53EC102B51EC180B05F0FE
:101F800001FC07D21E4890ED000AB8EEC00A1848BE
:101F900080ED000A174890ED000A1548D0ED000AC0
:101FA00020EE200AB5EEC00AF1EE10FA02D20120AE
:101FB0000E490870BDEC048B10BD00000E0A002015
:101FC000DE0A00202101002000401C46B409002048
:101FD00050010020580100205C01002000401CC678
:101FE0005401002048120020380100200E0100207A
:101FF000BC090020B8090020F0490200340100208B
:102000007001002010B52DED088BFE480068FE49D8
:102010000968401A40F2DC51884205D90020FB498A
:102020000870FB49086052E0F6480068F649096804
:10203000401A12D0F748008878280EDDF64800686C
:1020400058B9F348006840B9C820F4490860012035
:10205000F1490860EE49086039E0EA480068EA4959
:102060000968401A1AD0EB480088782816DDEA483B
:102070000068012812D1E648006878B9FEF708F92F
:10208000962190FBF1F201FB1200E4490860002068
:10209000E14908600120DE49086018E0D94800687D
:1020A000D9490968401A40F6C411B0FBF1F201FBAE
:1020B000120060B9D7480088782808DAFEF7E8F8F7
:1020C000962190FBF1F201FB1200D449086001F067
:1020D00061FB05287ED1D24800680028FAD1D1489A
:1020E000006801286DD10024641C002C65DB0A2CDB
:1020F00063DCCD48006805F0ABFD41EC1A0BCB4822
:1021000090ED101BB0EE410AF0EE610A53EC102B7B
:1021100051EC1A0B05F0B2FC41EC190BB0EE490A78
:10212000F0EE690A04F030FCB0EE408AF0EE608A0E
:102130009FEDBF0B53EC102B51EC180B05F022FB5D
:1021400008D2B94890ED000A80ED000A0120BA4992
:10215000086032E0B448006805F07AFD41EC1B0BE2
:10216000B24890ED101BB0EE410AF0EE610A53EC5C
:10217000102B51EC1B0B05F081FC41EC1A0B9FED71
:10218000AF0B53EC102B05F039FB41EC190BA748B2
:1021900090ED101BB0EE410AF0EE610A53EC102BEB
:1021A00051EC190B05F04CF841EC180B05F016F842
:1021B0009D4908600120A0490860002099490860F5
:1021C00000BFA0480078012884D19B4800680128FE
:1021D00073D100E074E29C48008801282FD104F0FC
:1021E000DFFC9A48007810B1012827D112E0984905
:1021F000B1F90000002801DB014600E0414200EE99
:10220000101AB8EEC00A884981ED000A00208E49F4
:10221000088013E08E49B1F90000002801DB014677
:1022200000E04142494200EE101AB8EEC00A7E4971
:1022300081ED000A00208449088000BF00BF754876
:102240000088782875DB83480068012871D18248AE
:10225000006841F2883188423CD2804800685228A8
:1022600003D07E4800684C2815D1734800680128C7
:1022700011D17648007810B1012808D103E002207E
:102280007749086003E001207549086000BF00BF7E
:1022900000207149086073480068522803D07148D3
:1022A00000684C2816D164480068012812D167489C
:1022B000007818B1012809D104E071E101206849D2
:1022C000086003E002206649086000BF00BF0020EC
:1022D000614908606048006841F28831884201D94C
:1022E000012000E000205C490968B1F57A5F01D265
:1022F000012100E000210840D8B158480068522868
:1023000002D1022056490860544800684C2802D186
:1023100001205349086053480068522802D1012027
:102320004F4908604F4800684C2802D102204C49B0
:1023300008603848008878285FDA4B4800686428CD
:102340003BD846480068522803D0444800684C28CF
:1023500015D139480068012811D13C48007810B1E6
:10236000012808D103E002203D49086003E0012074
:102370003B49086000BF00BF00203749086039486A
:102380000068522803D0374800684C2815D12A48E5
:102390000068012811D12D48007810B1012808D11A
:1023A00003E001202E49086003E002202C49086068
:1023B00000BF00BF0020284908602B48006864283F
:1023C0001BD926480068522802D1022024490860FF
:1023D000224800684C2802D1012021490860214888
:1023E0000068522802D101201D4908601D4800687C
:1023F0004C2802D102201A4908600B48006805F0F9
:1024000027FC33E0000A00201C0A00200B0A0020F1
:10241000240B0020360B0020200B00201C0B00207A
:10242000940A00200C0B0020B40900204812002060
:102430000000000000007940FC0A00207B14AE4739
:10244000E17A743F0E0A0020DE0A002021010020FC
:10245000020B0020900A00206C0A0020500000208F
:10246000100B002054000020700A002041EC1A0BD1
:10247000FE4890ED101BB0EE410AF0EE610A53ECFD
:10248000102B51EC1A0B05F0F9FA41EC190BB0EED8
:10249000490AF0EE690A04F077FAB0EE408AF0EEED
:1024A000608A9FEDF30B53EC102B51EC180B05F0E9
:1024B00069F975D2F0480088782842DBEF48006857
:1024C00041F2883188423CD2ED48006858B904F0A6
:1024D00067FBEC48B0F9000000EE100AB8EEC00A45
:1024E000E94880ED000AE6480068012829D104F097
:1024F00057FBE648007810B1012821D10FE0E149EF
:10250000B1F90000002801DB014600E0414200EE85
:10251000101AB8EEC00ADC4981ED000A10E0D94972
:10252000B1F90000002801DB014600E041424942C8
:1025300000EE101AB8EEC00AD34981ED000A00BFC0
:1025400000BFCD48008878283DDAD14800680128CE
:102550000BD104F025FBCB48B0F9000000EE100AC7
:10256000B8EEC00AC84880ED000AC9480068B8B98A
:1025700004F016FBC548007810B1012822D110E004
:10258000C049B1F90000002801DB014600E04142EA
:1025900000EE101AB8EEC00ABB4981ED000A11E046
:1025A00011E0B849B1F90000002801DB014600E064
:1025B0004142494200EE101AB8EEC00AB24981ED1C
:1025C000000A00BF00BFB3480078002878D1B248A5
:1025D00090ED000AB14880ED000AAB48006805F0B4
:1025E00037FB41EC180BA14890ED101BB0EE410AEF
:1025F000F0EE610A53EC102B51EC180B05F0C2F809
:102600005FD2A148006805F023FB41EC1A0B974804
:1026100090ED101BB0EE410AF0EE610A53EC102B66
:1026200051EC1A0B05F02AFA41EC190BB0EE490AED
:10263000F0EE690A04F0A8F9B0EE408AF0EE608A84
:102640009FED970B53EC102B51EC180B05F0D4F9C0
:1026500028D289480088782812DB8848006841F22F
:10266000883188420CD8904800689049096808442D
:10267000404200EE100AB8EEC00A874880ED000A1A
:102680007D48008878280CDA8748006887490968FF
:102690000844404200EE100AB8EEC00A7E4880EDC1
:1026A000000A7DE08048006880490968084440428B
:1026B00000EE100AB8EEC00A774880ED000A6FE01D
:1026C00089E17148006805F0C3FA41EC180B6748CE
:1026D00090ED101BB0EE410AF0EE610A53EC102BA6
:1026E00051EC180B05F088F95AD26748006805F0DC
:1026F000AFFA41EC1A0B5D4890ED101BB0EE410AA9
:10270000F0EE610A53EC102B51EC1A0B05F0B6F900
:1027100041EC190BB0EE490AF0EE690A04F034F905
:10272000B0EE408AF0EE608A9FED5D0B53EC102B0B
:1027300051EC180B05F060F926D24F480088782834
:1027400011DB4E48006841F2883188420BD8564868
:10275000006856490968084400EE100AB8EEC00A3D
:102760004D4880ED000A44480088782818DA4E4821
:1027700000684E490968084400EE100AB8EEC00A25
:10278000454880ED000A0BE0474800684749096862
:10279000084400EE100AB8EEC00A3F4880ED000A77
:1027A0003D4890ED000A3D48D0ED000A30EE600A49
:1027B00010EE101A084605F04BFA41EC190BB0EE7A
:1027C000490AF0EE690A04F0DFF8B0EE408AF0EE54
:1027D000608A9FED370B53EC102B51EC180B05F072
:1027E0000BF96FD22D4890ED000A2B48D0ED000A6E
:1027F00020EE200AB5EEC00AF1EE10FA62DD27489D
:1028000090ED000A2C4880ED000A234890ED000A64
:102810002A4880ED000A2148006805F019FA41ECC9
:102820001A0BB0EE4A0AF0EE6A0A04F0ADF8B0EE08
:10283000408AF0EE608A1848006805F009FA41EC19
:102840001A0BB0EE4A0AF0EE6A0A04F09DF8B0EEF8
:10285000409AF0EE609A53EC182B51EC190B05F0EE
:10286000CBF834D20120164908702CE04812002021
:102870000000000000001440360B00206C0A00200D
:10288000080B0020020B0020B409002021010020C9
:102890000C0B00200E010020BC090020B80900200C
:1028A0000000000000407F40180B00201C0B00209F
:1028B0000000000000C06240C0090020C4090020E0
:1028C0000F01002030E04548816988472CE04448EA
:1028D000006805F0BDF941EC1A0BB0EE4A0AF0EEC3
:1028E0006A0A04F051F8B0EE409AF0EE609A3D4862
:1028F000006805F0ADF941EC1A0BB0EE4A0AF0EEB3
:102900006A0A04F041F8B0EE408AF0EE608A53ECB7
:10291000192B51EC180B04F035FF05D20120324978
:1029200008702E48816988473048007801281FD1F7
:102930002A48016988472E48D0ED000A2D4890EDBD
:10294000001A30EEC11AD0ED000A41EE000A254807
:10295000C0ED000A214801698847F7EE000AB4EE8D
:10296000600AF1EE10FA26D100202049087022E01A
:102970001D48007801281ED11848016988471C4865
:10298000D0ED000A1B4890ED001A30EEC11AD0EDD0
:10299000000A41EE000A1348C0ED000A0F48016921
:1029A0008847F7EE000AB4EE600AF1EE10FA02D1A1
:1029B00000200D4908700A4890ED000A0948D0ED42
:1029C000000A20EE200AB5EEC00AF1EE10FA02D29B
:1029D000012009490870BDEC088B10BD7809002062
:1029E000B8090020BC090020100100200F010020C0
:1029F000C4090020C00900200E010020024600206A
:102A000002EA01030BB1012000E000207047000042
:102A100010B51C480068801C1A49086003F080F952
:102A200003F04CFA03F0A0FB03F072FD00F016FC7B
:102A300000F034FA00F06CFF00F004FAFDF734FF08
:102A400002F066FA02F038F9FFF788F9FFF7DAFAD0
:102A500000F0DCFEFEF722FC01F0E6FC00F0CCFE0C
:102A600009494860084640680968401A0649886074
:102A7000084680680549884202DD00200449087044
:102A800010BD0000000A0020760B002020A10700E6
:102A90000C0A002010B50020244908602448C16FAA
:102AA00088472448C16F88472348C16F8847234817
:102AB000C16F88472248C16F88472248C16F884745
:102AC0002148C16F88472148C16F88472048C16F9E
:102AD00088472048C16F88471F484FF4C871C269B2
:102AE00090471D48816988471C484FF4FA61C269C4
:102AF00090471B484FF4FA61C269904717488169B3
:102B000088471748816988479FED160A164880ED67
:102B1000000A9FED140A154880ED000A144890ED54
:102B2000000A124880ED010A10BD0000000A0020D2
:102B300010020020A802002040030020D80300203B
:102B40000805002038060020D00600206807002075
:102B50000008002098080020780900203009002093
:102B60005409002000000000C80900209C09002032
:102B70000001002021B1026842F00102026003E07E
:102B8000026822F00102026070470000016821F033
:102B9000010101600021016041608160C16001614B
:102BA000212141614A49884204D13D21484A103AD5
:102BB00091608CE046491831884205D14FF4746128
:102BC000434A103A916082E041493031884205D150
:102BD0004FF474113E4A103A916078E03C49483114
:102BE000884205D14FF07461394A103A91606EE025
:102BF00037496031884204D13649354A103AD160AC
:102C000065E033497831884204D13349304A103A7B
:102C1000D1605CE02E499031884204D12F492C4A82
:102C2000103AD16053E02A49A831884205D14FF0CB
:102C30003D51274A103AD16049E02949884204D1E0
:102C40003D21274A083A116041E025491831884260
:102C500005D14FF47461224A083A116037E02049E7
:102C60003031884205D14FF474111D4A083A116081
:102C70002DE01B494831884205D14FF07461184A54
:102C8000083A116023E016496031884204D11149A5
:102C9000134A121F11601AE011497831884204D199
:102CA0000D490F4A121F116011E00D499031884201
:102CB00004D10A490A4A121F116008E00849A831E4
:102CC000884204D14FF03D51054A121F11607047F0
:102CD000106002403D000020400F002000003D2019
:102CE0001064024021B1026842F48022026003E0D5
:102CF000026822F480220260704722B1036843F424
:102D00000023036003E0036823F4002303600161F0
:102D100070470146486880B27047014600200A6843
:102D200002F400220AB1012000E0002070470000F8
:102D300010B500220268134B1A40CC680B6823437D
:102D40004C6923438C692343CC6923430C6A234396
:102D50004C6A23438C6A23434C6B23438C6B234381
:102D60001A430260426922F00702D1E90B3423437F
:102D70001A4342610B6943604B6883608B68C36090
:102D800010BD00003F801CF00021016041608160A7
:102D9000C160016141618161C16101624162816221
:102DA000C16201634163816370477047C17A014A20
:102DB000116070470815002070B50446D4E9000181
:102DC00040EA0120218940EA0140217B40EA01607C
:102DD00020612069C0F3C7507F3860612069C0F36B
:102DE0001600A061002527E05DB9B0EE000AA16AD7
:102DF00060698847F7EE000A20EE200A84ED080A91
:102E000019E0691E4FF480020A41A0691040C5F123
:102E100017010841E0616269501BB0EE000AA16A27
:102E20008847D4ED080A94ED071AB8EEC11A41EEAE
:102E3000000AC4ED080A6D1C182DD5DB94ED080AB4
:102E400070BD000010B50F48007801280CD10E4964
:102E50000988484204F06BFC0C4A03C20A490888FE
:102E600004F07CFC0A4A03C20648007848B99FED8A
:102E7000090B064880ED000B9FED060B044880ED22
:102E8000000B10BD210A0020520A00204003002040
:102E9000D8030020000000000000000010B52DED58
:102EA0000C8BCD4890ED000AFBEE040AB4EEE00A6C
:102EB000F1EE10FA04D8BBEE040A80ED000A0DE032
:102EC000C54890ED000AF2EE0A0AB4EEE00AF1EE0F
:102ED00010FA03DBB2EE0A0A80ED000A00F05AFC99
:102EE000052805D1BD480078012801D1BC490860FA
:102EF00000F050FC052805D1B848007810B9022030
:102F0000B749086000F046FC04287CD1B548006849
:102F100004F09EFE41EC1B0BB0EE4B0AF0EE6B0A88
:102F200003F032FDB0EE409AF0EE609AAD480068D2
:102F300004F08EFE41EC1A0B53EC192B04F034FA1A
:102F400041EC180B04F04AF9A7490860A54890ED38
:102F5000000AB1EE400A10EE100A04F079FEA34A0E
:102F600003C2A34890ED100BA04880ED020B90ED3A
:102F7000022BB0EE420AF0EE620A90ED002BB0EEAA
:102F8000421AF0EE621A53EC102B51EC110B04F0C4
:102F900075FD41EC1D0BB0EE4D0AF0EE6D0A03F02D
:102FA000F3FCB0EE40CAF0EE60CA9FED920B53EC1A
:102FB000102B51EC1C0B04F021FC41EC1B0BB0EE70
:102FC0004B0AF0EE6B0A03F033FBB0EE40AAF0EED2
:102FD00060AA9FED8A0B53EC102B51EC1A0B04F0F6
:102FE00041FD41EC190B9FED870B53EC102B04F0C6
:102FF00005FC41EC180B9FED850B53EC102B04F0F6
:103000001FF97A4A00E01FE0C2E908019FED810B39
:10301000104680ED0A0B9FED810B80ED0C0B9FEDB0
:10302000810B824880ED080B9FED810B80ED0A0B30
:103030009FED810B80ED0C0B1046816F88476B482C
:1030400090ED1A0B80ED1A0B00F0A4FB78B100F0A4
:10305000A1FB01280BD000F09DFB062807D000F053
:1030600099FB082803D05E48006802286CD19FEDC8
:10307000740B5E4880ED080B9FED730B80ED0A0B1F
:103080009FED6D0B80ED0C0B9FED660B674880ED9F
:10309000080B9FED670B80ED0A0B9FED650B80ED34
:1030A0000C0B00F077FB18B100F074FB072822D15D
:1030B0009FED5F0B4D4880ED000B65480169884727
:1030C00010EE104A204604F0C3FD41EC180B4848AE
:1030D00090ED101BB0EE410AF0EE610A53EC102B9C
:1030E00051EC180B04F08AFB404AC2E90201104679
:1030F000816F884728E0384890ED000AB1EE400A19
:1031000010EE101A084604F0A3FD384A03C25048D6
:103110000169884710EE104A204604F099FD41EC01
:10312000180B334890ED101BB0EE410AF0EE610A27
:1031300053EC102B51EC180B04F060FB2B4AC2E946
:1031400002011046816F8847284890ED1A0B3748D6
:1031500080ED000B2649886B04F0E9FA41EC180B6E
:103160009FED3C0B53EC102B04F048FB2F4AC2E9B7
:1031700002011046816F88472C4890ED1A1BB0EE73
:10318000410AF0EE610A03F0FFFBB0EE409AF0EE68
:10319000609A264890ED1A1BB0EE410AF0EE610AE3
:1031A00053EC192B51EC100B04F0FEF841EC180B0A
:1031B0001E4890ED1A1BB0EE410AF0EE610A53EC86
:1031C000102B51EC180B04F03BF8184AC2E91A0115
:1031D000BDEC0C8B10BD00009C0900200A0A0020E9
:1031E000F009002034000020E80900200805002034
:1031F000001400209A9999999999B9BF000000008C
:103200000000F03F0000000000003E400000000011
:1032100000004E40FCA9F1D24D62503F000000007A
:103220000000184000000000000034403806002074
:10323000000000000000000000000000000000404E
:1032400000000000000044407B14AE47E17A843F58
:10325000300900207B14AE47E17A943F10B52DED84
:103260000C8B00F097FA042803D0E048006801288E
:103270007DD1DF4890ED000ADE48D0ED000A30EE47
:10328000600ADD4880ED000AD8480068DB49086024
:103290000020D6490860D748006804F0D9FC41EC0A
:1032A0001B0BB0EE4B0AF0EE6B0A03F06DFBB0EEB9
:1032B000408AF0EE608ACF48006804F0C9FC41EC17
:1032C0001A0B53EC182B04F06FF841EC190B03F0B8
:1032D00085FFCB490860CB4890ED020ACA48D0ED83
:1032E000000A30EE200A10EE101A084604F0B0FC76
:1032F000C64A03C2C34890ED020A10EE101A0846EF
:1033000004F0A6FCC14AC2E90201104690ED022B6E
:10331000B0EE420AF0EE620A90ED002BB0EE421AD7
:10332000F0EE621A53EC102B51EC110B04F0A6FBDB
:1033300041EC1D0BB0EE4D0AF0EE6D0A03F024FBDC
:10334000B0EE40CAF0EE60CA9FEDB10B53EC102B0B
:1033500051EC1C0B04F052FA41EC1B0BB0EE4B0A83
:10336000F0EE6B0A03F064F9B0EE40AA00E075E0FD
:10337000F0EE60AA9FEDA80B53EC102B51EC1A0B4A
:1033800004F070FB41EC190B9FEDA50B53EC102BD7
:1033900004F034FA41EC180B9FEDA30B53EC102B07
:1033A00003F04EFF994AC2E90801104690ED022B46
:1033B000B0EE420AF0EE620A90ED002BB0EE421A37
:1033C000F0EE621A53EC102B51EC110B04F056FB8B
:1033D00041EC1A0BB0EE4A0AF0EE6A0A03F0D4FA96
:1033E000B0EE409AF0EE609A9FED890B53EC102BF3
:1033F00051EC190B04F002FA41EC180BB0EE480A3C
:10340000F0EE680A03F014F9B0EE40BAF0EE60BADC
:103410009FED870B53EC102B51EC1B0B04F0EEF9D6
:103420007A4AC2E90A019FED820B104680ED0C0B2F
:103430009FED810B824880ED080B9FED7D0B80EDA9
:103440000A0B9FED7B0B80ED0C0B1046816F8847BC
:10345000684890ED000A664880ED000A00F09AF98D
:1034600018B100F097F9072827D19FED760B674830
:1034700080ED080B9FED750B80ED0A0B9FED750B32
:1034800080ED0C0B9FED750B6D4880ED080B9FEDEB
:10349000680B80ED0A0B9FED660B80ED0C0B7148FD
:1034A00090ED100B594880ED000B6E4890ED100B1D
:1034B000564880ED020B816F884700F06BF90628B3
:1034C00031D19FED600B514880ED080B9FED660BED
:1034D00080ED0A0B9FED5F0B80ED0C0B9FED640BF5
:1034E000574880ED080B9FED520B80ED0A0B9FEDC6
:1034F000500B80ED0C0B604890ED010A10EE101A95
:10350000084604F0A5FB414A03C2564890ED100B53
:103510003E4880ED020B5948007800F0070010B1DA
:103520003A48816F884700F035F9012807D000F04C
:1035300031F9082803D02D480068022832D12B48E1
:1035400000682E4908600020284908609FED3D0B67
:103550002E4880ED080B9FED440B80ED0A0B9FED8C
:10356000340B80ED0C0B9FED460B354880ED080BBE
:103570009FED2F0B80ED0A0B9FED2D0B80ED0C0BBB
:103580003D4890ED010A10EE101A084604F060FB69
:103590001E4A03C2334890ED100B1C4880ED020B0D
:1035A000816F8847194890ED1A1BB0EE410AF0EE82
:1035B000610A9FED351B53EC112B51EC100B04F0FD
:1035C0001DF91F4A03C23248B0F90400052190FBDF
:1035D000F1F4204604F0ABF8194AC2E902011046A2
:1035E000816F8847BDEC0C8B10BD0000F0090020F6
:1035F000380000203C000020D0090020F409002001
:10360000E00900204410002040000020D0060020E7
:10361000333333333333D3BF000000000000F03FB7
:103620000000000000004E400000000000805140FB
:1036300000000000000000000000000000405040BA
:103640006807002000000000000054407B14AE47D3
:10365000E17A843F000000000000144000000000F8
:1036600000002440A81300207B14AE47E17A743F89
:1036700000000000000039409C090020000A0020E2
:103680000000000000003E40333333333333D33F78
:10369000C4000020F0B50A4600210023002400BF2A
:1036A0003DE0012505FA01F3156805EA03049C4293
:1036B00034D105684F000326BE40B5430560157937
:1036C0004E00B5400668354305601579012D02D0DE
:1036D0001579022D16D185684F000326BE40B543EB
:1036E000856055794E00B5408668354385604568EC
:1036F00001268E40B5434560456896798E40B6B246
:1037000035434560C5684F000326BE40B543C560DC
:10371000D5794E00B540C6683543C560491C1029AF
:10372000BFD3F0BDF0B5002300244D07ED0E02FA23
:1037300005F3CE1000F1200555F826504E07F70E80
:103740000F26BE40B543CF1000F1200646F82750A3
:10375000CE1000F1200555F8265045EA0304CE109E
:1037600000F1200545F82640F0BD018370474FF673
:10377000FF7101600021017141718171C171704758
:103780000A7BCB7A42EA03224261426902604269C3
:10379000826070470148007870470000090A0020E5
:1037A00030B5034613B94FF6FF7030BD09E013F88A
:1037B000014B82EA0400C0B2054D35F8100080EAE2
:1037C00022220800A1F10101F1D11046EDE700002D
:1037D000767E000830B5034605E013F8010B80EA59
:1037E00002040448025D0800A1F10101F5D1104670
:1037F00030BD0000757D00084FF08040406A704782
:103800000148007870470000080A002010B5FFF753
:10381000C1FF01280BD0FFF7BDFF052807D0FFF738
:10382000B9FF042803D0FFF7B5FF082852D12A4872
:103830000078012823D10020284908702849087001
:103840009FED280A284880ED000A90ED000AB5EEA9
:10385000C00AF1EE10FA06D89FED220A80ED000AA8
:1038600002201D490870214890ED000A1E48D0ED45
:10387000000A20EE200A1E4880ED000A2AE01648C1
:103880000078022820D1B7EE000A174880ED000A20
:1038900090ED000AF7EE000AB4EEE00AF1EE10FA3D
:1038A00006DBB7EE000A80ED000A00200A49087026
:1038B000104890ED000A0C48D0ED000A20EE200AD6
:1038C0000B4880ED000A05E00A4890ED000A084820
:1038D00080ED000A10BD00000E0100200F01002045
:1038E0001001002000000000AC090020B8090020F1
:1038F000C8090020BC09002003490988014409B215
:10390000014A118070470000640A002000BFFEE7F2
:103910000248007802490870704700005A0A0020E7
:10392000600A002010B50446FFF766FF784908607A
:1039300004B910BD207C617C00EB012000B200EED8
:10394000100AB8EEC00ABDEEC00A10EE100A00B2AE
:1039500070490880A07CE17C00EB012000B200EE01
:10396000100AB8EEC00ABDEEC00A10EE100A00B28E
:1039700068494880207D617D00EB012000B200EEA7
:10398000100AB8EEC00ABDEEC00A10EE100A00B26E
:1039900060498880E07D217E00EB012000B200EECE
:1039A000100AB8EEC00ADFED5C0A80EE201A5B4810
:1039B00080ED001A607EA17E00EB012000B200EED7
:1039C000100AB8EEC00AB1EE400ADFED530A80EEED
:1039D000201A524880ED011AE07E217F00EB012081
:1039E00000B200EE100AB8EEC00AF2EE040A80EE51
:1039F000201A4B4880ED001A4A4890ED000A4A48C8
:103A000080ED000A454890ED010A464880ED000A25
:103A1000464890ED000A464880ED000A404890ED87
:103A2000000A424880ED000A90ED000A4048D0EDBF
:103A3000000A30EE600ADFED3F0AB4EEE00AF1EE74
:103A400010FA04DD3C480068401E3B4908603748D6
:103A500090ED000A3648D0ED000A30EE600ADFED46
:103A6000370AB4EEE00AF1EE10FA04D232480068E8
:103A7000401C31490860304800684FF4B471484335
:103A800000EE100AB8EEC00A2848D0ED000A30EE69
:103A9000200A224880ED020A224890ED000A2248BE
:103AA000D0ED000A30EE600ADFED220AB4EEE00A43
:103AB000F1EE10FA04DD22480068401E204908603B
:103AC000184890ED000A1848D0ED000A30EE600A60
:103AD000DFED1A0AB4EEE00AF1EE10FA04D218484B
:103AE0000068401C16490860154800684FF4B4711E
:103AF000484300EE100AB8EEC00A0A48D0ED000AAA
:103B000030EE200A054880ED010A00BF11E70000F1
:103B1000900B0020C40000200000C8424410002088
:103B2000C0000020E4000020E0000020DC000020B5
:103B3000D800002000009643D0000020000096C36B
:103B4000D400002000BFFEE72DE9F0412DED088BE9
:103B500004460D460026002720686060287BE97A2D
:103B600040EA0120206020686168401AE060E06857
:103B700010F5805F07DA606B401C6063E06800F559
:103B80000050A0610DE0E068B0F5805F07DD606B7C
:103B9000401E6063E068A0F50050A06101E0E068AD
:103BA000A061A269207C411C217404F11C0141F830
:103BB00020202168606B01EB4030A060616B4FF406
:103BC000B47201FB02F003F0B2FD9FED1C0B53EC4D
:103BD000102B03F0E9FB41EC180B21686269881A8D
:103BE00003F0A5FD9FED170B53EC102B03F006FE21
:103BF0009FED160B53EC102B03F0D6FB53EC182B58
:103C000003F01EFB41EC100B84ED100B207C06280A
:103C100001D100202074002605E004F11C0050F8BA
:103C200026000744761C062EF7DB062097FBF0F0F3
:103C3000A063BDEC088BBDE8F0810000000000002F
:103C4000000042400000000000002440000000008E
:103C50000000C0402DE9F0412DED0A8B04460D46D1
:103C600000260027B046002008EE100A2068606099
:103C7000287BE97A40EA0120206020686168401AC8
:103C8000E060E06810F5805F07DA606B401C6063FD
:103C9000E06800F50050A0610DE0E068B0F5805FDD
:103CA00007DD606B401E6063E068A0F50050A06116
:103CB00001E0E068A061A269207C411C217404F14C
:103CC0001C0141F820202168606B01EB4030A060AE
:103CD000616B4FF4B47201FB02F003F028FD9FED1D
:103CE0002A0B53EC102B03F05FFB41EC190B2168FE
:103CF0006269881A03F01BFD9FED250B53EC102B16
:103D000003F07CFD9FED240B53EC102B03F04CFBD8
:103D100053EC192B03F094FA41EC100B84ED100BCB
:103D2000207C062801D100202074002605E004F143
:103D30001C0050F826000744761C062EF7DBA97BF2
:103D4000687B41EA00200FFA80F8404603F0EFFC60
:103D500041EC1A0B9FED0C0B53EC102B03F024FBE2
:103D600041EC190B03F0B4FCA063297CE87B41EA29
:103D7000002000B208EE100AB8EEC80A84ED140A5A
:103D8000BDEC0A8BBDE8F08100000000000033406C
:103D900028AFA1BC86F23240000000000000C04005
:103DA0002DE9F0472DED088B04460D460026B1465F
:103DB00000BF00BF20686060287BE97A40EA0120EC
:103DC000206020686168401AE060E06810F5805F5C
:103DD00007DA606B401C6063E06800F50050A0618A
:103DE0000DE0E068B0F5805F07DD606B401E60634A
:103DF000E068A0F50050A06101E0E068A061A26960
:103E0000207C411C217404F11C0141F82020216810
:103E1000606B01EB4030A060616B4FF4B47201FB4A
:103E200002F003F084FC41EC180B21686269881AE7
:103E300003F07DFC9FED290B53EC102B03F0DEFC0F
:103E40009FED280B53EC102B03F0AEFA53EC182B1C
:103E500003F0F6F941EC100B84ED100B2168626958
:103E6000881A03F064FC9FED1D0B53EC102B03F03C
:103E7000C5FC9FED1C0B53EC102B03F095FA41ECA5
:103E8000100B84ED120B207C062801D10020207439
:103E9000002605E004F11C0050F826008144761C41
:103EA000062EF7DBA97B687B41EA00284FF4B4704B
:103EB00018FB00F03C2190FBF1F0A063297CE87B2B
:103EC00041EA002007B200EE107AB8EEC00A84ED95
:103ED000140ABDEC088BBDE8F0870000000000006C
:103EE00000807640000000000000C04070470000E5
:103EF00070B5002100230F22C4781CB3174C24682E
:103F000004F4E064C4F5E064C4F30721C1F10404DF
:103F1000E3B20A4144789C40E1B2847814402143E2
:103F20000C07210E0E4C05786155047804F01F052E
:103F30000124AC4005786D11AD0005F1E025C5F810
:103F4000004109E0047804F01F050124AC40054D50
:103F50000678761145F8264070BD00000CED00E0B3
:103F600000E400E080E100E002490143024A116000
:103F7000704700000000FA050CED00E010B52DEDD3
:103F8000028B044694ED022BB0EE420AF0EE620A78
:103F900094ED002BB0EE421AF0EE621A53EC102BA7
:103FA00051EC110B03F06AFDC4E9040194ED222BDE
:103FB000B0EE420AF0EE620A94ED042BB0EE421A23
:103FC000F0EE621A53EC102B51EC110B03F014FDC0
:103FD00016D994ED221BB0EE410AF0EE610A51ECC5
:103FE000100B03F0EFF841EC180B94ED041BB0EE4E
:103FF000410AF0EE610A53EC102B03F0FDFC7DD278
:1040000094ED042BB0EE420AF0EE620A94ED082B18
:10401000B0EE421AF0EE621A53EC102B51EC110B79
:1040200003F0ECFBC4E90E0194ED141BB0EE410A61
:10403000F0EE610A51EC100B03F0C4F841EC180BE0
:1040400094ED0E1BB0EE410AF0EE610A53EC102B1A
:1040500003F0D2FC0CD894ED141BB0EE410AF0EE44
:10406000610A51EC100B03F0ADF8C4E90E0116E043
:1040700094ED142BB0EE420AF0EE620A94ED0E2B92
:10408000B0EE421AF0EE621A53EC102B51EC110B09
:1040900003F0B2FC03D894ED140B84ED0E0B94EDF9
:1040A000042BB0EE420AF0EE620A94ED0A2BB0EE59
:1040B000421AF0EE621A53EC102B51EC110B03F084
:1040C0009DFB41EC180B94ED101BB0EE410AF0EE95
:1040D000610A53EC102B03F0B3F8C4E9100194ED1E
:1040E000161BB0EE410AF0EE610A51EC100B03F022
:1040F00069F841EC180B94ED101B00E0D5E0B0EE30
:10410000410AF0EE610A53EC102B03F075FC0CD859
:1041100094ED161BB0EE410AF0EE610A51EC100B63
:1041200003F050F8C4E9100116E094ED162BB0EE40
:10413000420AF0EE620A94ED102BB0EE421AF0EE55
:10414000621A53EC102B51EC110B03F055FC03D801
:1041500094ED160B84ED100B94ED241BB0EE410A88
:10416000F0EE610A9FED741B53EC112B51EC100B18
:1041700003F072FA1ED194ED062BB0EE420AF0EE77
:10418000620A94ED042BB0EE421AF0EE621A53EC80
:10419000102B51EC110B03F031FB41EC180B9FED90
:1041A000680B53EC102B03F0EDFA03D29FED640B78
:1041B00084ED100B94ED062BB0EE420AF0EE620A8D
:1041C00094ED042BB0EE421AF0EE621A53EC102B71
:1041D00051EC110B03F052FC41EC180B94ED0C1B4D
:1041E000B0EE410AF0EE610A53EC102B03F006FB2F
:1041F000C4E9120194ED181BB0EE410AF0EE610A19
:1042000051EC100B02F0DEFF41EC180B94ED121B89
:10421000B0EE410AF0EE610A53EC102B03F0ECFB18
:104220000CD894ED181BB0EE410AF0EE610A51EC87
:10423000100B02F0C7FFC4E9120116E094ED182B31
:10424000B0EE420AF0EE620A94ED122BB0EE421A82
:10425000F0EE621A53EC102B51EC110B03F0CCFB77
:1042600003D894ED180B84ED120B94ED102BB0EEE7
:10427000420AF0EE620A94ED0E2BB0EE421AF0EE16
:10428000621A53EC102B51EC110B02F0D9FF41ECE8
:10429000180B94ED121BB0EE410AF0EE610A53ECDC
:1042A000102B02F0CDFFC4E9200194ED200B84ED2A
:1042B0001A0B94ED1C1BB0EE410AF0EE610A51ECB2
:1042C000100B02F07FFF41EC180B94ED1A1BB0EEBF
:1042D000410AF0EE610A53EC102B03F08DFB0CD871
:1042E00094ED1C1BB0EE410AF0EE610A51EC100B8C
:1042F00002F068FFC4E91A0116E094ED1C2BB0EE41
:10430000420AF0EE620A94ED1A2BB0EE421AF0EE79
:10431000621A53EC102B51EC110B03F06DFB03D818
:1043200094ED1C0B84ED1A0B94ED040B84ED060B3D
:10433000BDEC028B10BD0000000000000000F03F4B
:1043400000000000000000009FED120B80ED000B4C
:104350009FED100B80ED020B9FED0E0B80ED040B1B
:104360009FED0C0B80ED060B9FED0A0B80ED0E0B05
:104370009FED080B80ED100B9FED060B80ED120BEF
:104380009FED040B80ED200B9FED020B80ED1A0BCF
:1043900070470000000000000000000070470000AF
:1043A00000B587B00121080200F0CCF801210420FB
:1043B00000F0C8F82020019000208DF808008DF84A
:1043C0000A0001208DF80B0003208DF8090001A9D7
:1043D0001348FFF75FF98020059000208DF8180042
:1043E0008DF81A0001208DF81B0003208DF81900AC
:1043F00005A90C48FFF74EF94020039000208DF8E6
:1044000010008DF8120001208DF8130003208DF8A4
:10441000110003A90348FFF73DF907B000BD0000F4
:1044200000080240002002403948006839490870FD
:1044300039480078012808D10846007828B90120B9
:104440003649087000203649086034480078012851
:104450000CD134490880002033490870334948633F
:1044600008602E4908700120314908602948007809
:1044700078B92B480068401C294908600846006844
:10448000B0F5FA7F05DD0020274908700120254995
:10449000088020480078204908701D48001F0068E7
:1044A0002449087024480078012808D1084600787B
:1044B00028B90120214908700020214908601F48BF
:1044C000007801280CD1174908801749087000208E
:1044D00016494863086019490870012014490860AA
:1044E0001448007870B916480068401C14490860E8
:1044F00008460068B0F5FA7F04DD01200A4908701B
:10450000084908800B4800780B4908707047000084
:104510001C024442D90A0020D80A0020E40A0020E4
:10452000E80A0020DE0A00202101002048120020B5
:10453000FC0A0020DD0A0020DC0A0020E60A002038
:10454000EC0A002029B1064A12680243044B1A60A3
:1045500004E0034A12688243014B1A60704700006E
:104560003038024029B1064A12680243044B1A60EF
:1045700004E0034A12688243014B1A60704700004E
:104580004038024029B1064A12680243044B1A60BF
:1045900004E0034A12688243014B1A60704700002E
:1045A0002038024029B1064A12680243044B1A60BF
:1045B00004E0034A12688243014B1A60704700000E
:1045C0004438024029B1064A12680243044B1A607B
:1045D00004E0034A12688243014B1A6070470000EE
:1045E00024380240F0B500210022002402250026D4
:1045F0000223324F3F6807F00C0121B1042905D096
:10460000082937D105E02E4F076036E02D4F0760AF
:1046100033E02A4F3F1F3F68C7F38056274F3F1FA5
:104620003F6807F03F036EB1264FB7FBF3F7DFF8A3
:104630008CC0ACF1040CDCF800C0CCF3881C07FB88
:104640000CF40CE01E4FB7FBF3F7DFF870C0ACF1D1
:10465000040CDCF800C0CCF3881C07FB0CF4174FEB
:104660003F1F3F68C7F301477F1C7D00B4FBF5F790
:10467000076002E0124F076000BF00BF0F4F3F68A6
:1046800007F0F0010909104F7A5C0768D7404760CE
:104690000A4F3F6807F4E051890A0B4F7A5C47687C
:1046A000D7408760054F3F6807F46041490B064FCC
:1046B0007A5C4768D740C760F0BD00000838024008
:1046C0000024F400001BB7004C0B0020D0E90012BE
:1046D000914211DA0168491C016090ED000AF8EE80
:1046E000C00A90ED010AB8EEC00A80EE801A80ED93
:1046F000021A90ED020A7047B7EE000AFBE7704716
:10470000014691ED000AF8EEC00A91ED010AB8EEFB
:10471000C01A80EE810AF7EE000AB4EEE00AF1EE6C
:1047200010FA01DB012070470020FCE70021016046
:1047300070470160704741607047000010B52DED73
:10474000088B044614B9BDEC088B10BDFFF754F874
:10475000A64908602078617840EA0120C0F30A0089
:10476000A34908806078C010A17840EA4110C0F3E6
:104770000A009F494880A0788011E17840EA8100D2
:10478000217940EA8120C0F30A0099498880207984
:104790004010617940EAC110C0F30A009449C88012
:1047A00060790011800808726079C0F301104872C6
:1047B000A079E17940EA012000B28D494881207A50
:1047C000617A40EA012001B289488181A07AE17AC8
:1047D00040EA012001B28648C181217B8174617B5E
:1047E000C174A07BE17B40EA0120814988820846B0
:1047F000B0F90200A0F5806000EE100AB8EEC00A21
:104800007C4880ED000AB1F90610A1F5806002F045
:104810008EFF41EC1B0B9FED780B53EC102B02F03D
:10482000EDFF41EC190B764890ED000A10EE101ADE
:10483000084603F00DFA41EC1A0B53EC192B02F069
:10484000FFFC41EC180B02F0C9FC6D490860684997
:10485000B1F90410A1F5806002F069FF41EC1B0B77
:104860009FED680B53EC102B02F0C8FF41EC190BC5
:10487000634890ED010A10EE101A084603F0E8F9BB
:1048800041EC1A0B53EC192B02F0DAFC41EC180B3B
:1048900002F0A4FC5A4948605548B0F90000A0F560
:1048A0008060002803DD0120584908600AE0504874
:1048B000B0F90000A0F58060002803D54FF0FF306C
:1048C0005249086051480068012817D14848B0F99A
:1048D0000000A0F58060002810DC00204B49086033
:1048E0009FED4B0B53EC102B4B4890ED000B51EC14
:1048F000100B02F0A5FC484A03C21AE043480068C6
:10490000401CB0B93A48B0F90000A0F5806000281A
:104910000FD400203D4908609FED3D0B53EC102B58
:104920003D4890ED000B51EC100B03F0A7F83A4A0C
:1049300003C22F48407A012802D10220374908706B
:104940002B48407A032802D10120344908702848B6
:10495000407A022804D100203049087030490860AC
:104960002348407A01283AD12148007A032803D00D
:104970001F48007A012802D101202A4908701C48EA
:10498000007A022802D10020264908701848007ACF
:10499000012801D1244908701548007A022803D063
:1049A0001348007A032802D100201F4908701048DC
:1049B00090F9080001280DD0022802D003280DD15B
:1049C00003E000201649086008E04FF0FF3014496A
:1049D000086003E001201249086000BF00BF0448DE
:1049E000407A032800D100BF00BFACE6760B002060
:1049F00020150020C8090020FA7E6ABC7493683F25
:104A00009C090020D42B6519E258673F480B002011
:104A1000000000000000E03F400B00200C0A0020D6
:104A2000A8090020210A0020510A002001460C4854
:104A300000680B4A5268904201D101207047084833
:104A400002680830805C087005480068401C044A11
:104A50001060642801DB002010600020EEE70000F9
:104A6000D91100200E494A6808318854083949682C
:104A7000491C0B4A5160642901DB0021516008493F
:104A80004968074A1268914208D105490968491CDA
:104A9000034A1160642901DB0021116070470000A6
:104AA000D9110020704700002DE9F0412DED088B51
:104AB0000746734890ED000ADFED720A30EE200AD7
:104AC000F2EE040A20EE200ABDEEC00A10EE104AF3
:104AD0006D4890ED101BB0EE410AF0EE610A51EC0A
:104AE000100B02F06FFB41EC1B0B9FED680B53ECBE
:104AF000102B02F0A5FB41EC1A0B664890ED000B61
:104B000053EC102B51EC1A0B02F09AFB41EC190BF1
:104B10009FED610B53EC102B02F070FE41EC180B73
:104B200002F0D6FD05465E4890ED010ADFED5D0A14
:104B300030EE200AF2EE040A20EE200ABDEEC00A92
:104B400010EE106A5848006810B9422057490870A2
:104B500055480068012802D15220544908704D2060
:104B6000524948704E2088704C20C8704FF47A70BB
:104B700094FBF0F0303008714FF47A7094FBF0F150
:104B800000FB1140642190FBF1F03030474948713F
:104B9000642094FBF0F100FB11400A2190FBF1F03E
:104BA0003030424988710A2094FBF0F100FB11403B
:104BB00030303E49C8714FF47A7095FBF0F03030D8
:104BC00008724FF47A7095FBF0F100FB11506421EC
:104BD00090FBF1F0303035494872642095FBF0F1DC
:104BE00000FB11500A2190FBF1F030302F49887200
:104BF0000A2095FBF0F100FB115030302B49C872B0
:104C00004FF47A7096FBF0F0303008734FF47A70FE
:104C100096FBF0F100FB1160642190FBF1F0303065
:104C200022494873642096FBF0F100FB11600A21D1
:104C300090FBF1F030301D4988730A2096FBF0F1AB
:104C400000FB116030301949C8730EE01748184A4C
:104C50001268815C174801F051F815480068401C43
:104C600013490860962001F04FFF11480068B842D0
:104C7000ECDB00200E490860BDEC088BBDE8F0813C
:104C8000C000002000003443001400200000000099
:104C900000805640400B002000000000000024402F
:104CA000441000200000B44208150020BC0F002072
:104CB000680000200048004070B5FEF76BFD072833
:104CC00006D100231A461946174800F0F3F829E0E8
:104CD000164890ED1A1BB0EE410AF0EE610A51EC55
:104CE000100B02F0F5FC04B2114890ED1A1BB0EE67
:104CF000410AF0EE610A51EC100B02F0E9FC05B23A
:104D00000C4890ED1A1BB0EE410AF0EE610A51EC2E
:104D1000100B02F0DDFC06B223462A46314602485B
:104D200000F0C8F870BD00000064004038060020A4
:104D300098080020680700200CB500200190009022
:104D40004148006840F480303F49086000BF3E4859
:104D5000006800F4003000900198401C0190009819
:104D600018B90198B0F5A04FF1D13748006800F4A8
:104D7000003010B10120009001E000200090009868
:104D8000012860D130484030006840F080502E4902
:104D9000403108602D48006840F440402B490860CD
:104DA000294808300068284908310860084600682A
:104DB00040F4004008600846006840F4A0500860D5
:104DC0002348091F0860081F006840F08070091F11
:104DD000086000BF1C48006800F000700028F9D08F
:104DE0001A48006840F480301849086000BF17482E
:104DF000406800F480300028F9D01448006840F47E
:104E000000301249086000BF1048406800F40030CC
:104E10000028F9D040F205700E4908600A480830B1
:104E2000006820F00300084908310860084600685F
:104E300040F00200086000BF03480830006800F03E
:104E40000C000828F8D10CBD00380240007000406A
:104E50000C544007003C02402DE9F04186B08046EA
:104E60000C4615461E460C9F4FF400700190002022
:104E70008DF80C008DF80D0008208DF80E00200A2A
:104E80008DF80F008DF81040290A8DF811108DF85B
:104E90001250310A8DF813108DF81460390A8DF80C
:104EA00015108DF8167001A94046FCF764F906B09C
:104EB000BDE8F081F0B585B007460C4615461E46A4
:104EC00040F2FF10009000208DF808008DF80900D6
:104ED00008208DF80A00300A8DF80B00F1B28DF829
:104EE0000C10290A8DF80D10E9B28DF80E10210A68
:104EF0008DF80F10E1B28DF81010FF218DF8111010
:104F00008DF8121069463846FCF735F905B0F0BD4A
:104F100010B59FED2D0B2E4880ED080B9FED2A0B51
:104F200080ED0A0B9FED280B80ED0C0B9FED290BFC
:104F30002A4880ED080B9FED240B80ED0A0B9FEDB6
:104F4000220B80ED0C0B26480078012816D125494C
:104F5000B1F90010C1EB0111880002F0E8FB1C4A16
:104F600003C2214890ED100B194880ED020B816FB0
:104F700088479FED1E0B194880ED000B1A48806989
:104F80000A2804DA9FED1B0B144880ED000B16482D
:104F9000806910F1050F04DA9FED140B0F4880EDC6
:104FA000000B0F48007820B99FED070B0B4880EDF0
:104FB000000B0D49886B02F0BAFB084AC2E90201F6
:104FC0001046816F884710BD0000000000000000FF
:104FD000000800200000000000004E40980800205B
:104FE000510A0020FC090020B0140020000000003D
:104FF00000C082400000000000208CC0704700000C
:1050000010B51548006840F4700013490860134853
:10501000006840F001001149086000200F49083184
:1050200008600E4800680E4908400C4908600D48A9
:10503000091D0860081F006820F48020091F08600F
:10504000002006490C310860FFF776FE4FF0006043
:1050500001498039086010BD88ED00E00038024049
:10506000FFFFF6FE103000240EB501210846FFF7C1
:1050700079FA4FF0FF3001905320ADF80000002086
:10508000ADF80800ADF8020069464FF0804000F02E
:10509000FDF80121880700F0C1F80121880700F020
:1050A000CFF80EBD10B50121880700F0D5F838B152
:1050B0000121880700F0C1F80121880700F0BAF843
:1050C00010BD00000EB501210220FFF74BFA40F69B
:1050D000B73001905320ADF800000020ADF8080073
:1050E000ADF8020069460C4800F0D0F801210A48EA
:1050F00000F094F80121084800F0A2F81D208DF876
:10510000080001208DF809008DF80A008DF80B00C9
:1051100002A8FEF7EDFE0EBD0004004010B501210F
:105120000A4800F099F878B10121084800F085F8A4
:105130000121064800F07EF80C20FFF7B5FC04487A
:105140000068401C0249086010BD000000040040D7
:105150000400002010B50121064800F071F801227A
:105160001146044800F089F80121024800F062F875
:1051700010BD0000000400400EB501211020FFF713
:10518000F1F95320ADF800000020ADF80200ADF8B1
:1051900008004FF4FA6001906946094800F076F87B
:1051A00036208DF8080000208DF809008DF80A00DF
:1051B00001208DF80B0002A8FEF79AFE0EBD00003C
:1051C0000010004010B50121094800F045F870B109
:1051D0000121074800F031F80121054800F02AF8C4
:1051E000FDF716FC03480068401C0249086010BD2A
:1051F000001000400000002010B50121064800F01A
:105200001FF801221146044800F037F80121024836
:1052100000F010F810BD00000010004021B102881D
:1052200042F08002028004E002884FF67F731A4049
:1052300002807047CA4302827047CA4302827047A5
:1052400021B1028842F00102028004E002884FF698
:10525000FE731A400280704730B5024600200023DA
:105260000024158A05EA0103958905EA010413B1B2
:105270000CB1012000E0002030BD1AB183890B433E
:10528000838102E083898B438381704700220288F7
:10529000184B98420ED0184B98420BD0B0F1804F6B
:1052A00008D0164B984205D0154B984202D0154BAA
:1052B000984204D14FF68F731A404B881A43124B11
:1052C000984207D0114B984204D04FF6FF431A4042
:1052D0000B891A4302804B68C3620B880385054B18
:1052E000984202D0044B984201D18B7A0386012365
:1052F0008382704700000140000401400004004028
:1053000000080040000C0040001000400014004065
:105310002DE9F04106460F464FF00108002002EE4D
:10532000100A0025002419E008FA04F0304020415A
:1053300002EE100A2046B0EE000A01F0D9FDF0EEB0
:10534000400A00EE105AB8EEC00AB8EEC21A01EEDA
:10535000200ABDEEC00A10EE105A641CBC42E3DB0A
:105360002846BDE8F081000070B540F224418B482A
:1053700000F00AFC00286FD0884800888748001D8C
:1053800000888748FDF7C9FC18BB00218448FDF759
:10539000F1FB8348FDF7BDFCC0F164008149086062
:1053A00064207F495839C8650846806D40F4002064
:1053B000886501217A48FDF7DDFB002404E07A4985
:1053C000085DFFF74FFB641C764800688442F6D303
:1053D00023E000217248FDF7CDFB7148FDF799FCF1
:1053E000C0F164006F49086064206D495839C86590
:1053F0000846806D20F40020886501216848FDF78B
:10540000B9FB002405E068496431085DFFF72AFB19
:10541000641C644800688442F5D3B5E06348406882
:1054200062490968401A03D400206149088002E0FB
:1054300064205F4908805D480068602807DB5B489E
:105440000068632803DC64205A49088002E00020D9
:1054500058490880002505E09EE057494819FFF7A4
:10546000E5FA6D1C052DF8DB5348007953490870A7
:10547000FF2204215048FEF7ADF9514908704F480A
:105480000078097888427FD14B4840784A4989782A
:1054900040EA01204B49088010214A480088FFF764
:1054A00037FF48490880414840684149098801441C
:1054B0003E4800683F4A12881044401F091A41487C
:1054C00000880930814256DB002505E03A49491D34
:1054D0004819FFF7ABFA6D1C3A480088001D854259
:1054E000F4DB38480088C01D3349095C3548008822
:1054F0000830314A105C41EA0020334908803148C5
:105500000088C11D4FF6FF722B48FEF749F92F495D
:1055100008802D4800880988884235D1264840797E
:10552000012806D124488079022802D1224801F0BE
:10553000ABFC21484079062806D11F488079022813
:1055400002D11D4801F008FC1B484079072806D10C
:1055500019488079022802D1174801F047FC164803
:105560004079022810D11448807902280CD11248C1
:1055700001F00CFC08E00D4800680E490988084459
:10558000401F0A49086006E0084840680749096862
:1055900088427FF443AF00BF70BD00000078004038
:1055A00058600240F800002050100020D91100205F
:1055B000F4000020F600002018110020EC0000206C
:1055C000ED000020F2000020EE000020F00000209E
:1055D00000B58FB001210220FEF7B4FF012188053C
:1055E000FEF7B0FF01211020FEF7DCFF0722114675
:1055F0004248FEF797F80DA8FEF7B9F880200D9005
:1056000002208DF8380000208DF8390001208DF837
:105610003B000DA93948FEF73DF8394800F03CFA47
:1056200009A800F06FFB374809900020ADF828006A
:10563000ADF82A004FF48060ADF82C000420ADF8DE
:105640002E000020ADF8300009A92D4800F0ECFA3A
:10565000012240212A4800F015FA012240F224419B
:10566000274800F0BBFA0121254800F0FFF9264841
:10567000FDF78CFA6846FDF787FB4FF0006000905D
:105680001F48001D019021480290002003901E2019
:105690000490002005904FF4806006900020079051
:1056A00008904FF48070099000020A9000200B903F
:1056B0000C900D900E9069461348FDF739FB0022BF
:1056C00012491E311048FDF718FB01210E48FDF765
:1056D00009FB01210C48FDF74DFA25208DF8380013
:1056E00001208DF8390002208DF83A0001208DF854
:1056F0003B000EA8FEF7FCFB0FB000BD000402400B
:1057000000100140A0860100886402409D0B00202B
:1057100010B540F22441284800F036FA002849D05C
:1057200025480088244880882448FDF7F6FA00BB05
:1057300000212248FDF71EFA2048FDF7EAFAC0F1E1
:105740001E001F4908601E201C49091D0860081F13
:10575000006840F40020091F086001211748FDF788
:1057600009FA17480068122824D11648FEF7E6FF08
:1057700020E000211148FDF7FDF91048FDF7C9FAB6
:10578000C0F11E000E4908601E200C49091D08606A
:10579000081F006820F40020091F08600121074845
:1057A000FDF7E8F906480068122803D105481E30C5
:1057B000FEF7C4FF10BD00000010014088640240E5
:1057C000100000209D0B002010B540F22441274816
:1057D00000F0DAF9002848D0244800882348001D4A
:1057E00000882348FDF799FAF8B900212048FDF711
:1057F000C1F91F48FDF78DFAC0F10C001D49086082
:105800000C201B492839C8620846806A40F40020F1
:10581000886201211648FDF7ADF91648006808288E
:1058200023D11548FCF76AF81FE000211048FDF766
:10583000A1F90F48FDF76DFAC0F10C000D490860A1
:105840000C200B492839C8620846806A20F40020E1
:10585000886201210648FDF78DF90648006808288E
:1058600003D105480C30FCF749F810BD0048004052
:10587000286002401C000020000F002000B58FB0FF
:1058800001214020FEF75EFE01212020FEF78AFE66
:1058900001218805FEF756FE082209214148FDF73F
:1058A00041FF082207213F48FDF73CFF4FF40070FD
:1058B0000D9002208DF8380000208DF83A0003206A
:1058C0008DF8390000208DF83B000DA93548FDF713
:1058D000E1FE4FF4E13009900020ADF82800ADF86A
:1058E0002A00ADF82C000420ADF82E000020ADF801
:1058F000300009A92C4800F097F9012240212A48DC
:1059000000F0C0F80121284800F0B0F8012240F270
:105910002441254800F062F92448FDF737F968462C
:10592000FDF732FA4FF0206000901F48001D0190F3
:105930001F480290002003903C2004900020059016
:105940004FF4806006900020079008904FF480701C
:10595000099000020A9000200B900C900D900E9080
:1059600069461248FDF7E4F9002211493C310F481D
:10597000FDF7C3F901210D48FDF7B4F901210B48EA
:10598000FDF7F8F847208DF8380000208DF8390031
:1059900001208DF83A008DF83B000EA8FEF7A8FA1A
:1059A0000FB000BD001802400014014040640240E6
:1059B000CC0F002010B540F22441284800F0E4F854
:1059C00000284AD0254800882448001D0088244823
:1059D000FDF7A3F900BB00212148FDF7CBF82048D3
:1059E000FDF797F9C0F13C001E4908603C201C49B6
:1059F000091D0860081F006840F40020091F0860A6
:105A0000184800681D2802D11748FDF78BFF0121B7
:105A10001348FDF7AFF820E000211148FDF7AAF880
:105A20000F48FDF776F9C0F13C000E4908603C20B4
:105A30000B49091D0860081F006820F40020091F99
:105A40000860084800681D2803D107483C30FDF76E
:105A500069FF01210248FDF78DF810BD00140140D7
:105A600040640240CC000020CC0F002021B182898C
:105A700042F40052828104E082894DF6FF731A409D
:105A8000828170471AB1838A0B43838202E0838A42
:105A90008B4383827047000010B50446324884422D
:105AA00008D101211020FEF78DFD00211020FEF706
:105AB00089FD57E02D48844209D101214804FEF7B1
:105AC00061FD00214FF40030FEF75CFD4AE02848FC
:105AD000844209D101218804FEF754FD00214FF4CE
