:020000040800F2
:10000000602B0020C502000839400008593A00085A
:10001000913C0008C10900084D6000080000000084
:10002000000000000000000000000000994C0008E3
:10003000AF2E00080000000089450008C9520008E2
:10004000DF020008DF020008DF020008DF0200080C
:10005000DF020008DF020008DF020008DF020008FC
:10006000DF020008DF020008DF020008DF020008EC
:10007000DF020008DF020008DF020008DF020008DC
:10008000DF020008DF020008DF020008110B000891
:10009000D50A0008DF020008DF020008DF020008BE
:1000A000DF020008DF020008DF020008DF020008AC
:1000B00071530008E9530008DF020008DF0200085E
:1000C000DF020008DF020008DF020008DF0200088C
:1000D000DF020008355A0008DF020008ED5A000868
:1000E000DF020008DF020008DF020008DF0200086C
:1000F000DF020008DF020008DF020008DF0200085C
:10010000DF020008DF020008DF020008DF0200084B
:10011000DF020008DF020008D5540008DF020008F3
:10012000DF020008DF020008DF020008DF0200082B
:10013000DF020008DF020008DF0200087D0C000873
:10014000410C0008DF020008DF020008DF0200089F
:10015000DF020008DF020008DF020008D95C0008A7
:10016000DF020008DF020008DF020008DF020008EB
:10017000DF020008DF020008DF02000800000000C4
:10018000DF020008DF02000879560008DF020008DD
:10019000DF020008DF020008DF020008DF020008BB
:1001A0000000000000000000DF02000800F002F87C
:1001B00000F05EF80AA090E8000C82448344AAF1A3
:1001C0000107DA4501D100F053F8AFF2090EBAE8A1
:1001D0000F0013F0010F18BFFB1A43F0010318477B
:1001E00048860000688600000A444FF0000C10F8B2
:1001F000013B13F0070408BF10F8014B1D1108BFA5
:1002000010F8015B641E05D010F8016B641E01F844
:10021000016BF9D113F0080F1EBF10F8014BAD1C94
:100220000C1B09D16D1E58BF01F801CBFAD505E0B2
:1002300014F8016B01F8016B6D1EF9D59142D6D30C
:10024000704700000023002400250026103A28BF34
:1002500078C1FBD8520728BF30C148BF0B60704738
:100260001FB508F098F800F064F81FBD10B510BD78
:1002700000F0B2F81146FFF7F3FF07F043F900F082
:10028000D0F803B4FFF7F2FF03BC06F0C1FE000094
:100290000B49D1F800C04A685CF8043B1068184468
:1002A00042F8040B8C4528BFA1F1DC0C8A4228BF20
:1002B000A1F1DC02C1F800C04A6020F000407047A4
:1002C000F41500200948804709480047FEE7FEE78B
:1002D000FEE7FEE7FEE7FEE7FEE7FEE7FEE7FEE7F6
:1002E00004480549054A064B70470000CD520008F6
:1002F000AD01000860160020602B0020601B00206C
:10030000601B0020704700000B4910B5A1F17C0272
:100310000A4CC2E93712372106E000EB104342F8DD
:100320002130074B00FB03400B1EA1F10101F4DC5F
:1003300010BD0120E8E7000094150020E119D66601
:10034000CD0D010010B5203AC0F00B80B1E8185077
:10035000203AA0E81850B1E81850A0E81850BFF4AF
:10036000F5AF5FEA027C24BFB1E81850A0E818504E
:1003700044BF18C918C0BDE810405FEA827C24BFA2
:1003800051F8043B40F8043B08BF7047D20728BF30
:1003900031F8023B48BF11F8012B28BF20F8023B7F
:1003A00048BF00F8012B704770477047704770478F
:1003B00010B500F009F8006810BD10B5044600F053
:1003C00003F8046010BD000000487047FC150020D1
:1003D00000487047FC1500207546FFF7F9FFAE4650
:1003E00005006946534620F00700854618B020B541
:1003F000FFF776FFBDE820404FF000064FF0000702
:100400004FF000084FF0000B21F00701AC46ACE8BC
:10041000C009ACE8C009ACE8C009ACE8C0098D4629
:1004200070470446AFF300802046FFF72AFF000024
:1004300010B52DED048B7048007870490870704835
:10044000007800287ED16F4890ED101BB0EE410A75
:10045000F0EE610A51EC100B07F0EAF96A49086006
:10046000084690ED000ABDEEC00A10EE100A4FF4E7
:10047000B47190FBF1F065490860634890ED000AA3
:10048000BDEEC00A10EE100A4FF4B47190FBF1F209
:1004900001FB120000F5B47090FBF1F201FB1200B9
:1004A00000B25B4908805548007858BB0846B0F94F
:1004B0000000F02811DB0846B0F90000B0F5A87F75
:1004C0000BDA52480068C0EB001000EB40005A21E4
:1004D00001EBC0004F49086022E04D48B0F9000030
:1004E0009B2810DB4A48B0F90000F0280BDC474895
:1004F0000068C0EB001000EB4000B42101EBC0002D
:10050000444908600CE03F4890ED101BB0EE410AF2
:10051000F0EE610A51EC100B07F00CFC3D4908604D
:100520003648007801283BD13948B0F90000B0F5D1
:10053000A77F12DD3648B0F900003C280DDC3348B7
:10054000006800E054E0C0EB001000EB40005A21CE
:10055000C1EBC0002F49086022E02D48B0F900002F
:100560003C2810DB2A48B0F900009B280BDC274808
:100570000068C0EB001000EB4000B421C1EBC000EC
:10058000244908600CE01F4890ED101BB0EE410AB2
:10059000F0EE610A51EC100B07F0CCFB1D4908602E
:1005A0001C48006807F0F5FB41EC190B154890ED6D
:1005B000101BB0EE410AF0EE610A53EC102B51EC27
:1005C000190B07F08DFD41EC180B9FED130B53EC4D
:1005D000102B07F043FD03D201201149087002E0FF
:1005E00002200F4908700F480088401C0D49088000
:1005F000BDEC048B10BD0000980A00201E0B0020EB
:10060000FF09002088130020B00A00200C01002000
:100610001001002014010020000000000000F03F45
:10062000180100201C0B002010B54FF4A06003F04F
:1006300041FD04F07FFE04F027FF04F0A9FE00F066
:10064000C1F900F073FA05F055F94FF4E13006F006
:100650009FFF05F0A5FA4FF4E13007F03BF803F0F7
:1006600095FF10BD7B48007801287DD17A48C0886D
:100670007A4908800846008879490988401A7949EA
:10068000086079480088401C00B2774908807548A6
:10069000006810F10A0F0EDC0846B0F9001073482C
:1006A00002680068401C714B1860714820F81210F5
:1006B00001207049086069480088782871DD6B481E
:1006C00000680F2837DB6B480068012833D1674882
:1006D0000068401E664931F91010644800680F3800
:1006E000634A32F91000081A634908605F480068DD
:1006F000401E114631F910105C4800680F3832F97D
:100700001000081A3C2816DA58480068401E1146A6
:1007100031F9101055480068401F32F91000081ACE
:10072000062808DD0020554908600120544908705A
:1007300000205049086053480068401C5149086037
:10074000084600683C280DDA084600680A2809DDDA
:100750004448006810F1640F04DC01204A49086035
:100760004A4908603F4800E072E0006810F1640FF9
:100770000ADC0020414908600120414908704349D2
:10078000086000203F49086041480068401C40491B
:10079000086008460068B0F5967F02DD00203D49FC
:1007A00008602E480088782841DA00203349086024
:1007B0000120334908702B48006810F10A0F0DDC46
:1007C0003548006850B9012030490860002033499D
:1007D00008600120324908602F4908602F480068EE
:1007E000401C2E49086008460068642802D9002091
:1007F0002B49086029480068B0F5967F02D900208F
:10080000254908601748006810F10A0F02DC002033
:100810001F4908601E480068401C1D4908600846C2
:100820000068B0F5967F02DD00201A4908600D4887
:10083000006810F10A0F07DC0A48006810F1140F75
:1008400002DB012017490870044800880449088029
:1008500070470000FE0900208E1100201A0B0020B6
:10086000180B00206C0A0020700A0020740A002077
:1008700016110020780A0020940A00205C0A00204B
:10088000FB090020580A0020EC0A0020DC0A0020A6
:100890007C0A0020800A0020680A0020600A0020EC
:1008A000F00A0020FF09002010B503F015F8042815
:1008B00007D003F011F8062803D003F00DF805283F
:1008C00025D113480088B0F5C87F20DA1148007898
:1008D00001281CD103F032F80F49486008464068EF
:1008E0000968401A0C4988600C4800780C4991FB53
:1008F000F0F009498968884209DA0A480088401CF2
:1009000000B20849088003F019F80349086010BDD7
:10091000160B0020410A0020490B0020500A00203D
:1009200010EB0900EC090020214800881E2819DC82
:100930002048008820490988081A012805DD1F4839
:1009400000880A381D4908800CE01A4800881A49B6
:100950000988081AB0F1FF3F04DA184800880A3005
:1009600016490880124800881E2820DD114840885A
:1009700011490988081A01280CDD0E4840880E49E3
:100980000988081A032812DA0C4840880A380B49EB
:1009900048800CE00748408807490988081AB0F1E8
:1009A000FF3F04DA054840880A3004494880704710
:1009B0004A000020460A00204E0A0020420A002079
:1009C00000BFFEE700B589B00121082003F0B4FEA6
:1009D0000121480603F0C0FE092200213B4802F035
:1009E00043FF09220121394802F03EFF032007900E
:1009F00002208DF8200007A9344802F0EDFE3448AB
:100A000000F0BAF904A800F0F2FB00208DF81600FF
:100A10008DF817008DF818008DF819008DF81A0060
:100A200001208DF81B0000208DF812008DF81300B6
:100A300008208DF8140003208DF81500ADF8100083
:100A400004A9234800F0D1FA00208DF80A008DF89F
:100A50000B0001208DF80C000020ADF80000ADF86F
:100A60000200ADF80400ADF80600ADF80800012062
:100A70008DF80D00684600F09BF901220221144810
:100A800000F0AAFA01221146114800F0A5FA14203C
:100A90008DF8200001208DF821008DF822008DF8BE
:100AA000230008A803F0CAFA13208DF820000120C3
:100AB0008DF8210000208DF8220001208DF8230000
:100AC00008A803F0BBFA09B000BD0000000C02400A
:100AD0000064004000B585B002210B4800F0ECF93D
:100AE00078B10221084800F0F3F80849064800F000
:100AF000D3F86A460021044800F001FB684600F084
:100B00006BFE05B000BD000000640040080000322C
:100B100010B50121044800F0CFF918B101210248B5
:100B200000F0D6F810BD00000064004000B589B0A8
:100B30000121022003F000FE0121880603F00CFED3
:100B400009220C213C4802F08FFE09220D213A486F
:100B500002F08AFE4FF44050079002208DF82000EA
:100B600007A9354802F038FE344800F005F904A81A
:100B700000F03DFB00208DF816008DF817008DF871
:100B800018008DF819008DF81A0001208DF81B004F
:100B900000208DF812008DF8130008208DF8140045
:100BA00003208DF81500ADF8100004A9234800F0CB
:100BB0001CFA0E208DF80A0000208DF80B00012091
:100BC0008DF80C000020ADF80000ADF80200ADF883
:100BD0000400ADF80600ADF8080001208DF80D0006
:100BE000684600F0E5F801220221144800F0F4F90B
:100BF00001221146114800F0EFF940208DF8200045
:100C000001208DF821008DF822008DF8230008A81E
:100C100003F014FA3F208DF8200001208DF8210008
:100C200000208DF8220001208DF8230008A803F091
:100C300005FA09B000BD0000000402400068004051
:100C400000B585B002210B4800F036F978B10221D9
:100C5000084800F03DF80849064800F01DF86A46CB
:100C60000021044800F04BFA684600F0A5FE05B0EC
:100C700000BD0000006800400800003210B50121EE
:100C8000044800F019F918B10121024800F020F8D9
:100C900010BD00000068004000220C4B994202D1B8
:100CA0000023836111E0C1F3130201F000730BB163
:100CB000C2600AE001F080630BB1026105E001F05F
:100CC00000630BB1826000E0426070477000F0305A
:100CD000B1F5007F3AD00FDC202928D006DC0129AD
:100CE0001CD004291DD0082940D11DE0402921D065
:100CF000B1F5807F3AD126E0B1F5004F31D006DC66
:100D0000B1F5806F25D0B1F5006F2FD124E0B1F59A
:100D1000803F12D0B1F5003F28D111E0154A826022
:100D200025E00822C26022E01022C2601FE00822F3
:100D300002611CE01022026119E00822426016E004
:100D40001022426013E00422426010E0042242605C
:100D50000DE0042242600AE0002282610422426027
:100D600005E0002282610422426000E000BF00BF73
:100D7000704700000101010010B504460B48844291
:100D800009D10121480603F0F7FC00214FF0007063
:100D900003F0F2FC08E00121880603F0EDFC0021DD
:100DA0004FF0806003F0E8FC10BD000000640040DC
:100DB00010B50021837A012202FA03F13D4A12683C
:100DC00042F001023B4B1A603A4A1C3212688A43D5
:100DD000384B1C331A60027BCAB9364A0C3212688F
:100DE0008A43344B0C331A604288C38842EA034377
:100DF000304A4032847A42F834300288838842EAAA
:100E000003432C4A4032847A02EBC4025360027BD3
:100E1000012A19D1274A0C3212680A43254B0C3398
:100E20001A604288038842EA0343224A4032847AA5
:100E300042F83430C288838842EA03431D4A403274
:100E4000847A02EBC4025360C27A3AB9194A121D7D
:100E500012688A43174B1B1D1A6006E0154A121DC3
:100E600012680A43134B1B1D1A60028932B9114ADA
:100E7000143212688A430F4B14331A600289012A14
:100E800006D10C4A143212680A430A4B14331A6012
:100E9000427B012A06D1074A1C3212680A43054BDD
:100EA0001C331A60034A126822F00102014B1A60D7
:100EB00010BD00000066004070B504460D460026D7
:100EC00060692840002871D0B5F5807F5CD010DCC7
:100ED000082D35D006DC012D20D0022D24D0042D84
:100EE00072D127E0102D31D0202D35D0402D6BD17F
:100EF00038E0B5F5004F60D009DCB5F5007F49D08A
:100F0000B5F5806F4CD0B5F5006F5DD14FE0B5F50C
:100F1000803F2DD0B5F5003F56D12FE0A0682D4978
:100F200001F0E6FD064651E0E068032101F0E0FD36
:100F300006464BE0E068082101F0DAFD064645E090
:100F4000E068102101F0D4FD06463FE0206903214E
:100F500001F0CEFD064639E02069082101F0C8FD08
:100F6000064633E02069102101F0C2FD06462DE05F
:100F70006068082101F0BCFD064627E0606810218A
:100F800001F0B6FD064621E0A069012101F0B0FDA7
:100F900006461BE0A069022101F0AAFD064615E005
:100FA000A069042101F0A4FD06460FE00FE0A0694E
:100FB000702101F09DFD064608E06068042101F003
:100FC00097FD064602E0FFE7002600BF00E000268E
:100FD000304670BD010101001AB143690B43436102
:100FE00002E043698B434361704730B502460020FD
:100FF0000023146824F002041460146844F001040F
:10100000146000E05B1C546804F001041CB94FF646
:10101000FF74A342F6D1546804F001040CB9002017
:101020006CE08C79012C04D1146844F080041460C5
:1010300003E0146824F080041460CC79012C04D1FE
:10104000146844F04004146003E0146824F0400481
:1010500014600C7A012C04D1146844F0200414604C
:1010600003E0146824F0200414604C7A012C04D1AD
:10107000146844F01004146003E0146824F01004B1
:1010800014608C7A012C04D1146844F008041460B4
:1010900003E0146824F008041460CC7A012C04D115
:1010A000146844F00404146003E0146824F0040499
:1010B00014608C78A407CD7844EA05640D7944EA7D
:1010C00005444D7944EA05540D886D1E2C43D461C6
:1010D000146824F001041460002300E05B1C5468D1
:1010E00004F001041CB14FF6FF74A342F6D154681A
:1010F00004F001040CB1002000E0012030BD10B567
:1011000000F5D87303EB01131B6803F0040313729B
:10111000137A53B900F5D87303EB01131B6840F23F
:10112000FF7404EA5353136009E000F5D87303EB2E
:1011300001131B686FF0604404EAD303536000F5A9
:10114000D87303EB01131B6803F00203537200F51D
:10115000D87303EB01135B6803F00F03937200F580
:10116000D87303EB01135B681B0AD37400F5D873C3
:1011700003EB01139B68D37200F5D87303EB0113E3
:101180009B681C0A147300F5D87303EB01139B686A
:101190001C0C547300F5D87303EB01139B681B0EF2
:1011A000937300F5D87303EB0113DB68D37300F579
:1011B000D87303EB0113DB681C0A147400F5D873B1
:1011C00003EB0113DB681C0C547400F5D87303EBBC
:1011D0000113DB681B0E937421B9C36843F020032D
:1011E000C36003E0036943F02003036110BD0021E5
:1011F0008171C171017241728172C1728170C1705D
:10120000032101710221417101210180704710B554
:1012100002460020936803F08063B3F1806F00D131
:1012200010E0936803F00063B3F1006F01D1012077
:1012300008E0936803F08053B3F1805F01D102208E
:1012400000E00420042874D002F5C07303EB0013FF
:101250001B6803F0010402F5C07303EB00131C606C
:101260000B7A7BB94B7A0C8843EA445302F5C0747D
:1012700004EB00142468234302F5C07404EB00144B
:10128000236010E00B7A4C6843EAC4034C7A234392
:1012900002F5C07404EB00142468234302F5C07403
:1012A00004EB001423608B7A03F00F038B7202F5BA
:1012B000C07303EB00135B6823F00F0402F5C073E7
:1012C00003EB00135C6002F5C07303EB00135B6873
:1012D0008C7A234302F5C07404EB001463608B7BAB
:1012E0001C064B7B44EA03440B7B44EA0323CC7A81
:1012F000234302F5C07404EB0014A3608B7C1C062E
:101300004B7C44EA03440B7C44EA0323CC7B234319
:1013100002F5C07404EB0014E36002F5C07303EB44
:1013200000131B6843F0010402F5C07303EB0013C4
:101330001C6010BD70B52DED0C8B82B0FE4890ED99
:10134000022BB0EE420AF0EE620A90ED002BB0EEF6
:10135000421AF0EE621A53EC102B51EC110B06F00E
:10136000BFFE41EC1D0BB0EE4D0AF0EE6D0A05F02C
:1013700033FDB0EE40CAF0EE60CA9FEDF00B53ECC7
:10138000102B51EC1C0B06F06BFD41EC1B0BB0EE6F
:101390004B0AF0EE6B0A05F073FBB0EE40AAF0EEDC
:1013A00060AA9FEDE80B53EC102B51EC1A0B06F0E2
:1013B0008BFE41EC190B9FEDE50B53EC102B06F067
:1013C0004FFD41EC180B9FEDE10B53EC102B06F099
:1013D00061FAD94AC2E908019FEDDE0B104680EDA3
:1013E0000A0B9FEDDC0B80ED0C0B9FEDDC0BDD4859
:1013F00080ED080BDC4880ED080B9FEDDC0BD94835
:1014000080ED0A0BD84880ED0A0B9FEDDA0BD5482A
:1014100080ED0C0BD44880ED0C0B02F05DFA072830
:1014200002D002F059FAD0B99FEDD40BC24880ED3A
:10143000080B9FEDCE0B80ED0A0B9FEDD20B80EDDC
:101440000C0B9FEDC40B80ED000BD049886B06F0B0
:10145000A0FCB94AC2E902011046816F884702F038
:101460003BFA042840D1CA48006868B9C9480068F6
:1014700006F020FF41EC180B9FEDC70B53EC102B2F
:1014800006F0EEFCAC4A03C2C148006801280DD149
:10149000C048006806F00EFF41EC180B9FEDBE0B34
:1014A00053EC102B06F0DCFCA34A03C2B749886B4F
:1014B00006F06FFCA04AC2E902011046816F88471E
:1014C000B749886B06F065FCA74AC2E902011046DD
:1014D000816F8847B349886B06F05BFCA14AC2E97B
:1014E00002011046816F884702F0F6F909282CD1D5
:1014F000A748006868B9A748006806F0DBFE41EC21
:10150000180B9FEDA50B53EC102B06F0A9FC8A4A93
:1015100003C29F48006801280DD19E48006806F06C
:10152000C9FE41EC180B9FED9C0B53EC102B06F001
:1015300097FC814A03C29549886B06F02AFC7E4AD3
:10154000C2E902011046816F884702F0C5F90128FF
:1015500007D002F0C1F9062803D002F0BDF908282F
:1015600028D18C4890ED000AB1EE400A10EE100A26
:1015700006F0A0FE704A03C28449886B06F009FC9D
:101580006D4AC2E902011046816F88478449886B21
:1015900006F0FFFB744AC2E902011046816F8847DA
:1015A0008049886B06F0F5FB6E4AC2E902011046DD
:1015B000816F884702F090F9052823D175480068AB
:1015C00006F078FE5C4A03C27049886B06F0E1FBC6
:1015D000594AC2E902011046816F88477049886BF9
:1015E00006F0D7FB604AC2E902011046816F8847C6
:1015F0006C49886B06F0CDFB5A4AC2E902011046DD
:10160000816F884702F068F9072802D002F064F978
:10161000E8BB494890ED021BB0EE410AF0EE610ACA
:101620009FED541B53EC112B51EC100B06F0DCFB1F
:1016300018D8414890ED021BB0EE410AF0EE610A65
:101640009FED591B53EC112B51EC100B06F006FDCE
:1016500008D800200346024601460090544803F093
:1016600039FDB3E0344890ED1A1BB0EE410AF0EEBC
:10167000610A51EC100B06F05DFB04B2002003463A
:101680000246214600904A4803F024FD9EE0FFE711
:1016900002F022F9042803D002F01EF909282BD108
:1016A000304890ED1A1BB0EE410AF0EE610A51ECA1
:1016B000100B06F03FFB04B22B4890ED1A1BB0EE66
:1016C000410AF0EE610A51EC100B06F033FB05B253
:1016D000194890ED1A1BB0EE410AF0EE610A51EC88
:1016E000100B06F027FB06B22B460022314630488D
:1016F000009403F0EFFC69E01A4890ED1A1BB0EE7D
:10170000410AF0EE610A51EC100B06F013FB04B233
:10171000154890ED1A1BB0EE410AF0EE610A51EC4B
:10172000100B06F007FB05B2034890ED1A1BB0EE54
:10173000410AF0EE610A3DE0000200209A99999971
:101740009999B9BF000000000000F03F00000000C0
:1017500000005940000000000000000000000000F0
:1017600000004E40C80300203003002000000000AD
:101770000000E03F000000000000244000000000E6
:101780000000444000000000000014402812002027
:101790002C010020B8090020333333333333D3BF57
:1017A000D81200203013002000000000000024C0E8
:1017B0000064004051EC100B06F0BCFA06B22B4658
:1017C000002231460348009403F084FC02B0BDECD3
:1017D0000C8B70BD0064004010B504466C48006876
:1017E000401C6B4908602068702863D00EDC4028DC
:1017F0005DD006DC302857D0312856D0322873D13E
:1018000054E0502854D06028F9D152E0A0F20120D1
:10181000072869D2DFE800F00415263784B84F00A6
:1018200001205C4908705A480068322804D82146D3
:10183000594802F047F803E02146574802F0B0FA51
:10184000A3E001205349087051480068322804D8A9
:101850002146524802F036F803E021464F4802F094
:101860009FFA92E001204B490870494800683228ED
:1018700004D821464A4802F025F803E021464848AA
:1018800002F08EFA81E00120424908704048006869
:10189000322804D82146434802F014F803E02146D8
:1018A000404802F07DFA70E06FE06EE06DE06CE0C1
:1018B0006BE06AE069E036480068322826D22146AB
:1018C000394801F0FFFF384840693849B1F9001044
:1018D000401AB0F5805F08DD3448008800F50050FC
:1018E00000B2324908801AE04EE02F4840692F4983
:1018F000B1F90010401A10F5805F10DA2B4800880B
:10190000A0F5005000B22949088008E02748B0F946
:101910000000254948612146234802F0E7FA34E0F7
:101920001B480068322825D22146214801F0CAFF11
:101930001F4840691F49B1F90010401AB0F5805F97
:1019400007DD1C48008800F5005000B219490880E6
:1019500019E0174840691749B1F90010401A10F50D
:10196000805F10DA13480088A0F5005000B21149DA
:10197000088008E00F48B0F900000D494861214691
:101980000B4802F0B3FA00E000BF00BF10BD00003A
:101990000C0B0020FE0900202812002080120020DD
:1019A000D81200203013002088130020120B0020D2
:1019B000E0130020100B002010B504462B480068EF
:1019C000401C2A4908602068B0F5807F46D0A0F20C
:1019D000062078B1012845D108460068322804D88D
:1019E0002146234801F06EFF03E02146204802F023
:1019F00051F938E01D480068322825D221461D489B
:101A000001F060FF1B4840691B49B1F90010401A02
:101A1000B0F5805F07DD1848008800F5005000B27F
:101A20001549088019E0134840691349B1F90010BD
:101A3000401A10F5805F10DA0F480088A0F50050BA
:101A400000B20D49088008E00B48B0F900000949D0
:101A500048612146074802F01DF904E0204604F0E1
:101A6000EFFA00E000BF00BF10BD00000C0B00202B
:101A70009014002038140020140B002010B52DED18
:101A8000048B0446A078E17840EA012000B2D449F2
:101A900008802079617940EA012000B2D04948806D
:101AA000A0798880E079CF490880207A4880607AE0
:101AB000CD490880A07A4880CC480078CC4908609D
:101AC000207852287ED160784D28FBD1A07841281B
:101AD00078D0C84890ED000AF7EE000A30EE200AF0
:101AE00080ED000ABE48B0F9000000EE100AB8EE22
:101AF000C00AC14880ED000AB948B0F9020000EE02
:101B0000100AB8EEC00ABD4880ED000A0120B749AE
:101B100008700020BA498887BA4800780421B1EBE0
:101B2000101F0BD1B8480068012807D1B5480078CC
:101B3000B1EB101F02D10120B449087001F0FEFE84
:101B4000B3494860084640680968401AB04988604F
:101B5000B0480078401CAF4908700846007801285A
:101B600019D1AD4890ED101BB0EE410AF0EE610ABC
:101B700051EC100B05F05CFEA8490860A84890EDF8
:101B8000101BB0EE410AF0EE610A51EC100B05F0AB
:101B90004FFEA44908609F4800781E2802DD1E20E1
:101BA0009C49087001F098FE092814D001F094FEB9
:101BB000072810D001F090FE68B101F08DFE0628D4
:101BC00009D000E0A2E001F087FE052803D001F073
:101BD00083FE01281AD1904890ED101BB0EE410A07
:101BE000F0EE610A51EC100B05F022FE8E49086000
:101BF0008B4890ED101BB0EE410AF0EE610A51ECFB
:101C0000100B05F015FE894908607BE07449B1F9B5
:101C1000000006F0BEF841EC190B9FED850B53EC6C
:101C2000102B05F0F3FE41EC180B05F001FE7E4988
:101C300008607348B0F93C0023281BDA084690ED91
:101C4000000A6F48B0F91410808A401C00B26C4A38
:101C50009082104600EB810080ED000A1046B0F93A
:101C60001400052802DB0020114688820020644908
:101C7000888710E0002008E09FED6F0A604901EBC3
:101C8000800181ED000A411CC8B20528F4DB002068
:101C90005B49888288875248808881B26748027889
:101CA0000078401C654B1870654820F812101846E3
:101CB00000780A2802DB002019460870604805F009
:101CC000E3F9604908804649B1F9020006F061F87D
:101CD00041EC190B9FED560B53EC102B05F096FEC3
:101CE00041EC180B05F0A4FD504908604E4890EDFA
:101CF000000A554880ED000A084690ED000A534856
:101D000080ED000A01F01AFE41490860207852284F
:101D10002DD160784D282AD1A078412827D1E078AC
:101D2000412824D12079412821D19FED430A32480E
:101D300080ED000A9FED400A304880ED000A3048EF
:101D4000808F401C00B22E4988870846B0F93C00BD
:101D5000232801DB232088872948B0F93C00232869
:101D600005DC3B4890ED000A2F4880ED000A24482E
:101D7000B0F93C0023281ADB0020264908703448BB
:101D800090ED000A284880ED000A254890ED101BD0
:101D9000B0EE410AF0EE610A51EC100B05F048FD7F
:101DA0002249086000201949087010490870154838
:101DB00000780421B1EB101F02D1012025490870E1
:101DC00001F08AFD042808D10E480078000920B9E6
:101DD00000200E4908701F490870BDEC048B10BD2F
:101DE000280000202E00002032000020FA090020E8
:101DF0008000002090000020840000208800002047
:101E00000C0F00209811002008000020410A00203B
:101E1000630B00207D00002088130020F8000020C4
:101E2000E0130020FC000020440000203C000020C3
:101E30000000000000005940000000004C0000209D
:101E4000F80E00204A00002040000020380000204A
:101E5000BC000020110A002010B52DED048B01F00C
:101E60003BFD09280BD001F037FD012807D001F018
:101E700033FD042803D001F02FFD08287DD18848C8
:101E8000007801282ED18748008801282AD1864869
:101E9000007810B1012824D111E09FED840A844814
:101EA00080ED000A83480068401C8249086082482F
:101EB00000688249086000207A49088011E09FED9F
:101EC000800A7B4880ED000A7B480068401C7A4904
:101ED0000860784800687B490860002071490880E4
:101EE00000BF00BF6E4800780128C7D17048006865
:101EF00006F0E0F941EC190B734890ED101BB0EEC1
:101F0000410AF0EE610A53EC102B51EC190B06F06C
:101F1000E7F841EC180B05F00DFF041E01DB20462D
:101F200000E0604205281DDA5F48007810B1012802
:101F30000CD105E09FED5D0A5D4880ED000A05E0EB
:101F40009FED5F0A5A4880ED000A00BF00BF564867
:101F50000078401C5449087008460078022801DBCC
:101F60000020087059480068401C584908605848CB
:101F70000078002801D1574800E08DE090ED000A7C
:101F8000554880ED000A08460068401C0860084675
:101F900000685249884202DD0120514908605048DA
:101FA000006890BB4248006806F084F941EC180BC9
:101FB000454890ED101BB0EE410AF0EE610A53EC7B
:101FC000102B51EC180B06F049F805D29FED450A8D
:101FD000404880ED000A18E03548006806F06AF9CC
:101FE00041EC180B384890ED101BB0EE410AF0EEB2
:101FF000610A53EC102B51EC180B05F0F5FE04D2DE
:102000009FED390A334880ED000A35480068012801
:1020100032D12748006806F04DF941EC180B2A48E8
:1020200090ED101BB0EE410AF0EE610A53EC102B5C
:1020300051EC180B06F012F805D29FED2A0A25483C
:1020400080ED000A18E01A48006806F033F941EC08
:10205000180B1D4890ED101BB0EE410AF0EE610A1E
:1020600053EC102B51EC180B05F0BEFE04D29FED83
:102070001E0A184880ED000A174890ED000A15481E
:10208000D0ED000A20EE200AB5EEC00AF1EE10FAFB
:1020900002D201200E490870BDEC048B10BD000077
:1020A000FE090020C20A00201901002000401C4641
:1020B000A409002048010020500100205401002004
:1020C00000401CC64C0100202812002030010020D6
:1020D00006010020AC090020A8090020F0490200F8
:1020E0002C0100200000A0C30000A04370B52DED1E
:1020F000088B0025FE480068FE490968401AB0F5C3
:10210000FA6F05D90020FC490870FC49086059E0C5
:10211000F7480068F7490968401A14D0F848008861
:10212000782810DDF748006868B9F448006850B9AD
:102130004FF46170F44908606D1C0120F14908609A
:10214000EE4908603EE0EA480068EA490968401A3A
:102150001ED0EB48008878281ADDEA48006801287C
:1021600016D1E648006898B9FEF792F84FF4167158
:1021700090FBF1F201FB1200E3490860022D03D14C
:102180000020E049086000250120DC49086019E0D2
:10219000D7480068D7490968401A40F6C411B0FB17
:1021A000F1F201FB120068B9D5480088782809DAF5
:1021B000FEF76EF84042962190FBF1F201FB12000F
:1021C000D149086001F088FB05287DD1CF4800681F
:1021D0000028FAD1CE48006801286DD10024641C83
:1021E000002C65DB0A2C63DCCA48006806F062F844
:1021F00041EC1A0BC84890ED101BB0EE410AF0EE0E
:10220000610A53EC102B51EC1A0B05F069FF41ECFD
:10221000190BB0EE490AF0EE690A04F0DDFDB0EEEC
:10222000408AF0EE608A9FEDBD0B53EC102B51EC11
:10223000180B05F0D9FD08D2B64890ED000A80EDE4
:10224000000A0120B749086032E0B248006806F091
:1022500031F841EC1B0BB04890ED101BB0EE410A79
:10226000F0EE610A53EC102B51EC1B0B05F038FF1C
:1022700041EC1A0B9FEDAC0B53EC102B05F0F0FD6D
:1022800041EC190BA44890ED101BB0EE410AF0EEA2
:10229000610A53EC102B51EC190B05F0FBFA41ECE1
:1022A000180B05F0C5FA9B49086001209D4908609C
:1022B00000209749086000BF9D480078012884D11C
:1022C00098480068012800E074E271D199480088BC
:1022D00001282FD104F020FF9748007810B1012881
:1022E00027D112E09549B1F90000002801DB014631
:1022F00000E0414200EE101AB8EEC00A854981EDB7
:10230000000A00208B49088013E08C49B1F90000D5
:10231000002801DB014600E04142494200EE101A6C
:10232000B8EEC00A7B4981ED000A0020814908808F
:1023300000BF00BF72480088782875DB80480068BD
:10234000012871D17F48006841F2883188423CD22F
:102350007D480068522803D07B4800684C2815D17E
:1023600070480068012811D17348007810B1012825
:1023700008D103E002207549086003E00120734999
:10238000086000BF00BF00206E4908607048006808
:10239000522803D06E4800684C2816D16148006866
:1023A000012812D16448007818B1012809D104E04D
:1023B00073E101206549086003E002206349086079
:1023C00000BF00BF00205F4908605E48006841F21E
:1023D0008831884201D9012000E00020594909686C
:1023E000B1F57A5F01D2012100E000210840D8B1A7
:1023F00055480068522802D10220544908605248CA
:1024000000684C2802D101205049086050480068FB
:10241000522802D101204D4908604D4800684C28DF
:1024200002D10220494908603548008878285DDAE1
:102430004848006864283BD843480068522803D0C5
:10244000414800684C2815D136480068012811D150
:102450003948007810B1012808D103E002203B4937
:10246000086003E001203949086000BF00BF002078
:102470003449086036480068522803D03448006860
:102480004C2815D127480068012811D12A48007826
:1024900010B1012808D103E001202C49086003E0B5
:1024A00002202A49086000BF00BF002025490860BB
:1024B00028480068642852D923480068522802D16D
:1024C000022022490860204800684C2802D10120DF
:1024D0001E4908601E480068522802D101201B498D
:1024E00008601B4800684C2839D135E037E000000F
:1024F000F00900200C0A0020FB090020080B002036
:102500001A0B0020040B0020000B0020840A00207E
:10251000F00A0020A409002028120020000000007A
:1025200000007940E00A00207B14AE47E17A743F56
:10253000FE090020C20A002019010020E60A00203E
:10254000800A00205C0A002050000020F40A0020CD
:1025500054000020600A00200220FE490860FE4866
:10256000006805F0A7FE41EC1A0BFC4890ED101B2B
:10257000B0EE410AF0EE610A53EC102B51EC1A0B4D
:1025800005F0AEFD41EC190BB0EE490AF0EE690A18
:1025900004F022FCB0EE408AF0EE608A9FEDF00B72
:1025A00053EC102B51EC180B05F01EFC75D2EE48C5
:1025B0000088782842DBED48006841F28831884283
:1025C0003CD2EB48006858B904F0A6FDE948B0F9E0
:1025D000000000EE100AB8EEC00ADF4880ED000AE5
:1025E000E3480068012829D104F096FDE24800780C
:1025F00010B1012821D10FE0DE49B1F90000002817
:1026000001DB014600E0414200EE101AB8EEC00ABC
:10261000D14981ED000A10E0D649B1F90000002847
:1026200001DB014600E04142494200EE101AB8EEDB
:10263000C00AC94981ED000A00BF00BFCA4800882E
:1026400078283DDACD48006801280BD104F064FDFC
:10265000C848B0F9000000EE100AB8EEC00ABE4843
:1026600080ED000AC5480068B8B904F055FDC248BD
:10267000007810B1012822D110E0BE49B1F9000064
:10268000002801DB014600E0414200EE101AB8EEDE
:10269000C00AB14981ED000A11E011E0B549B1F974
:1026A0000000002801DB014600E04142494200EE03
:1026B000101AB8EEC00AA84981ED000A00BF00BF99
:1026C000AF480078002875D1AE4890ED000AAE48BA
:1026D00080ED000AA048006805F0ECFD41EC180B05
:1026E0009E4890ED101BB0EE410AF0EE610A53ECEB
:1026F000102B51EC180B05F077FB5CD29648006864
:1027000005F0D8FD41EC1A0B944890ED101BB0EE8B
:10271000410AF0EE610A53EC102B51EC1A0B05F054
:10272000DFFC41EC190BB0EE490AF0EE690A04F047
:1027300053FBB0EE408AF0EE608A9FED940B53ECB1
:10274000102B51EC180B05F089FC26D28648008826
:10275000782811DB8548006841F2883188420BD81F
:102760008C4800688C490968401A00EE100AB8EEDF
:10277000C00A844880ED000A7B48008878280BDA7C
:102780008448006884490968401A00EE100AB8EECF
:10279000C00A7C4880ED000A7CE07E4800687E49E3
:1027A0000968401A00EE100AB8EEC00A754880EDBC
:1027B000000A6FE089E16848006805F07BFD41ECA4
:1027C000180B664890ED101BB0EE410AF0EE610A5E
:1027D00053EC102B51EC180B05F040FC5AD25E481C
:1027E000006805F067FD41EC1A0B5C4890ED101B8A
:1027F000B0EE410AF0EE610A53EC102B51EC1A0BCB
:1028000005F06EFC41EC190BB0EE490AF0EE690AD6
:1028100004F0E2FAB0EE408AF0EE608A9FED5B0BC6
:1028200053EC102B51EC180B05F018FC26D24E4837
:102830000088782811DB4D48006841F288318842D1
:102840000BD85548006853490968401A00EE100A31
:10285000B8EEC00A4B4880ED000A4348008878284B
:1028600018DA4D4800684B490968401A00EE100A12
:10287000B8EEC00A434880ED000A0BE04648006805
:1028800044490968401A00EE100AB8EEC00A3D48F3
:1028900080ED000A3B4890ED000A3B48D0ED000A6D
:1028A00030EE600A10EE101A084605F003FD41EC08
:1028B000190BB0EE490AF0EE690A04F08DFAB0EE99
:1028C000408AF0EE608A9FED350B53EC102B51ECF3
:1028D000180B05F0C3FB69D22B4890ED000A29487C
:1028E000D0ED000A20EE200AB5EEC00AF1EE10FA93
:1028F0005CDD254890ED000A2A4880ED000A214859
:1029000090ED000A284880ED000A1F48006805F095
:10291000D1FC41EC1A0BB0EE4A0AF0EE6A0A04F060
:102920005BFAB0EE408AF0EE608A1648006805F067
:10293000C1FC41EC1A0BB0EE4A0AF0EE6A0A04F050
:102940004BFAB0EE409AF0EE609A53EC182B51EC33
:10295000190B2CE0F40A0020A40900202812002002
:1029600000000000000014401A0B00205C0A002048
:10297000EC0A0020E60A002019010020F00A0020DD
:1029800006010020AC090020A8090020000000007A
:1029900000407F40000B0020FC0A002000000000E7
:1029A00000C06240B0090020B409002036E005F004
:1029B00055FB06D201204649087046488169884780
:1029C0002CE04548006805F075FC41EC1A0BB0EEB0
:1029D0004A0AF0EE6A0A04F0FFF9B0EE409AF0EE0F
:1029E000609A3E48006805F065FC41EC1A0BB0EEB9
:1029F0004A0AF0EE6A0A04F0EFF9B0EE408AF0EE0F
:102A0000608A53EC192B51EC180B05F0EDF905D247
:102A10000120334908702F48816988472C48007885
:102A200001281FD12B48016988472E48D0ED000AA4
:102A30002D4890ED001A30EEC11AD0ED000A41EE9B
:102A4000000A2648C0ED000A224801698847F7EECF
:102A5000000AB4EE600AF1EE10FA26D100201C49FB
:102A6000087022E01E48007801281ED1194801692B
:102A700088471C48D0ED000A1B4890ED001A30EE44
:102A8000C11AD0ED000A41EE000A1448C0ED000A58
:102A9000104801698847F7EE000AB4EE600AF1EECB
:102AA00010FA02D100200E4908700B4890ED000A80
:102AB0000A48D0ED000A20EE200AB5EEC00AF1EE79
:102AC00010FA02D2012009490870BDEC088B70BDD4
:102AD0000701002068090020A8090020AC09002097
:102AE00008010020B4090020B009002006010020E0
:102AF0000246002002EA01030BB1012000E00020A1
:102B00007047000010B51F480068801C1D49086010
:102B100003F09EFA03F0F2FB03F04AFD03F01EFF00
:102B200000F036FC00F036FA00F098FF00F006FAEC
:102B3000FDF7BAFE02F052FB134800780421B1EB16
:102B4000101F01D102F0F2F9FFF786F9FFF7CEFA74
:102B500000F0FEFEFEF7EEFB01F05CFD00F0EEFE85
:102B60000A494860084640680968401A0749886071
:102B7000084680680649884202DD00200549087041
:102B800010BD0000F009002098110020560B002015
:102B900020A10700FC09002010B50020244908608E
:102BA0002448C16F88472448C16F88472348C16FB4
:102BB00088472348C16F88472248C16F8847224809
:102BC000C16F88472148C16F88472148C16F884736
:102BD0002048C16F88472048C16F88471F484FF47D
:102BE000C871C26990471D48816988471C484FF4E5
:102BF000FA61C26990471B484FF4FA61C269904775
:102C00001748816988471748816988479FED160AE8
:102C1000164880ED000A9FED140A154880ED000A61
:102C2000144890ED000A124880ED010A10BD000022
:102C3000F00900200002002098020020300300204C
:102C4000C8030020F804002028060020C006002049
:102C500058070020F007002088080020680900209D
:102C6000200900204409002000000000B8090020CD
:102C70008C090020F800002021B1026842F0010216
:102C8000026003E0026822F0010202607047000067
:102C9000016821F001010160002101604160816053
:102CA000C1600161212141614A49884204D13D212D
:102CB000484A103A91608CE046491831884205D163
:102CC0004FF47461434A103A916082E041493031D7
:102CD000884205D14FF474113E4A103A916078E071
:102CE0003C494831884205D14FF07461394A103A65
:102CF00091606EE037496031884204D13649354AE7
:102D0000103AD16065E033497831884204D13349C3
:102D1000304A103AD1605CE02E499031884204D1AB
:102D20002F492C4A103AD16053E02A49A8318842F1
:102D300005D14FF03D51274A103AD16049E0294969
:102D4000884204D13D21274A083A116041E02549D3
:102D50001831884205D14FF47461224A083A116053
:102D600037E020493031884205D14FF474111D4AB3
:102D7000083A11602DE01B494831884205D14FF0D7
:102D80007461184A083A116023E01649603188429C
:102D900004D11149134A121F11601AE01149783108
:102DA000884204D10D490F4A121F116011E00D49EC
:102DB0009031884204D10A490A4A121F116008E082
:102DC0000849A831884204D14FF03D51054A121FED
:102DD00011607047106002403D000020400F00204D
:102DE00000003D201064024021B1026842F48022BC
:102DF000026003E0026822F480220260704722B180
:102E0000036843F40023036003E0036823F4002312
:102E10000360016170470146486880B2704701460F
:102E200000200A6802F400220AB1012000E000201C
:102E30007047000010B500220268134B1A40CC689E
:102E40000B6823434C6923438C692343CC69234398
:102E50000C6A23434C6A23438C6A23434C6B234301
:102E60008C6B23431A430260426922F00702D1E9C6
:102E70000B3423431A4342610B6943604B68836000
:102E80008B68C36010BD00003F801CF00021016012
:102E900041608160C160016141618161C161016224
:102EA00041628162C162016341638163704770471F
:102EB00070B50446D4E9000140EA0120218940EAC6
:102EC0000140217B40EA016020612069C0F3C750C6
:102ED0007F3860612069C0F31600A061002527E0FB
:102EE0005DB9B0EE000AA16A60698847F7EE000A92
:102EF00020EE200A84ED080A19E0691E4FF48002D2
:102F00000A41A0691040C5F117010841E0616269FA
:102F1000501BB0EE000AA16A8847D4ED080A94ED70
:102F2000071AB8EEC11A41EE000AC4ED080A6D1C7A
:102F3000182DD5DB94ED080A70BD000010B50F48C0
:102F4000007801280CD10E490988484204F021FF7D
:102F50000C4A03C20A49088804F032FF0A4A03C235
:102F60000648007848B99FED090B064880ED000B34
:102F70009FED060B044880ED000B10BD110A0020E8
:102F8000420A002030030020C80300200000000097
:102F90000000000010B52DED0C8BD94890ED000A13
:102FA000FBEE0F0AB4EEE00AF1EE10FA04D8BBEE25
:102FB0000F0A80ED000A0BE0D14890ED000AB5EE53
:102FC000C00AF1EE10FA03DB9FEDCE0A80ED000A95
:102FD00000F082FC052805D1CB480078012801D1FA
:102FE000CA49086000F078FC052805D1C648007879
:102FF00010B90220C549086000F06EFC04287CD19D
:10300000C348006805F056F941EC1B0BB0EE4B0AC3
:10301000F0EE6B0A03F0E0FEB0EE409AF0EE609A3C
:10302000BB48006805F046F941EC1A0B53EC192B2C
:1030300004F0ECFC41EC180B04F0FAFBB549086015
:10304000B348006805F036F9B34A03C2B34890EDBF
:10305000100BB14880ED020B90ED022BB0EE420A4E
:10306000F0EE620A90ED002BB0EE421AF0EE621A1A
:1030700053EC102B51EC110B05F032F841EC1D0B09
:10308000B0EE4D0AF0EE6D0A03F0A6FEB0EE40CAB7
:10309000F0EE60CA9FEDA20B53EC102B51EC1C0B11
:1030A00004F0DEFE41EC1B0BB0EE4B0AF0EE6B0AB7
:1030B00003F0E6FCB0EE40AAF0EE60AA9FED9A0B9A
:1030C00053EC102B51EC1A0B04F0FEFF41EC190BE2
:1030D0009FED970B53EC102B04F0C2FE41EC180B44
:1030E0009FED950B53EC102B04F0D4FB8A4AC2E9F8
:1030F00008019FED930B104600E036E080ED0A0BCF
:103100009FED910B80ED0C0B9FED910B924880EDA4
:10311000080B9FED920B80ED0A0B9FED920B80ED5B
:103120000C0B1046816F88477C4890ED101BB0EE69
:10313000410AF0EE610A9FED841B53EC112B51EC18
:10314000100B04F08DFE41EC180B734890ED1A1B28
:10315000B0EE410AF0EE610A53EC102B51EC180B63
:1031600004F0B2FF6C4AC2E91A0100F0B5FB09286D
:1031700012D000F0B1FB78B100F0AEFB01280BD00B
:1031800000F0AAFB062807D000F0A6FB082803D011
:103190005E48006802286CD19FED740B5E4880ED9C
:1031A000080B9FED740B80ED0A0B9FED6E0B80ED0D
:1031B0000C0B9FED720B684880ED080B9FED670BC1
:1031C00080ED0A0B9FED650B80ED0C0B00F084FB8E
:1031D00018B100F081FB072822D19FED600B4E480B
:1031E00080ED000B67480169884710EE104A2046C1
:1031F00005F060F841EC180B484890ED101BB0EE5C
:10320000410AF0EE610A53EC102B51EC180B04F05C
:1032100027FE414AC2E902011046816F884728E033
:10322000374890ED000AB1EE400A10EE101A084639
:1032300005F040F8384A03C252480169884710EE49
:10324000104A204605F036F841EC180B334890ED53
:10325000101BB0EE410AF0EE610A53EC102B51EC5A
:10326000180B04F0FDFD2C4AC2E902011046816FE3
:103270008847294890ED1A0B374880ED000B274905
:10328000886B04F086FD41EC180B9FED3F0B53EC6F
:10329000102B04F0E5FD304AC2E902011046816FAF
:1032A00088472D4890ED1A1BB0EE410AF0EE610AF6
:1032B00003F092FDB0EE409AF0EE609A264890ED51
:1032C0001A1BB0EE410AF0EE610A53EC192B51ECD7
:1032D000100B04F09BFB41EC180B1F4890ED1A1BE0
:1032E000B0EE410AF0EE610A53EC102B51EC180BD2
:1032F00004F0D0FA184AC2E91A01BDEC0C8B10BDDB
:103300008C09002000000000FA090020E0090020DC
:103310003C000020D8090020F8040020E013002021
:103320009A9999999999B9BF000000000000F03F5F
:103330000000000000003E400000000000004E4081
:10334000FCA9F1D24D62503F00000000000018407F
:10335000000000000000444028060020000000009B
:10336000000000000000000000000040000000001D
:10337000000054407B14AE47E17A843F0000000017
:1033800000003440200900209A9999999999B93FF1
:1033900010B52DED0C8B00F09FFA042803D0E14806
:1033A000006801287CD1E04890ED000ADF48D0EDAC
:1033B000000A30EE600ADE4880ED000AD948006855
:1033C000DC4908600020D7490860D848006804F04C
:1033D00071FF41EC1B0BB0EE4B0AF0EE6B0A03F0F1
:1033E000FBFCB0EE409AF0EE609AD048006804F022
:1033F00061FF41EC1A0B53EC192B04F007FB41EC75
:10340000180B04F015FACC490860C84890ED000A82
:10341000B1EE400A10EE100A04F04CFFC74A03C296
:10342000C74890ED000AB1EE400A10EE100A04F011
:1034300041FFC24AC2E90201104690ED022BB0EEF4
:10344000420AF0EE620A90ED002BB0EE421AF0EE66
:10345000621A53EC102B51EC110B04F041FE41ECBD
:103460001D0BB0EE4D0AF0EE6D0A03F0B5FCB0EEA8
:1034700040CAF0EE60CA9FEDB30B53EC102B51EC39
:103480001C0B04F0EDFC41EC1B0BB0EE4B0AF0EE14
:103490006B0A03F0F5FAB0EE40AAF0EE60AA00E085
:1034A00073E09FEDAA0B53EC102B51EC1A0B04F0B8
:1034B0000BFE41EC190B9FEDA70B53EC102B04F006
:1034C000CFFC41EC180B9FEDA50B53EC102B04F037
:1034D000E1F99A4AC2E90801104690ED022BB0EEDC
:1034E000420AF0EE620A90ED002BB0EE421AF0EEC6
:1034F000621A53EC102B51EC110B04F0F1FD41EC6E
:10350000180BB0EE480AF0EE680A03F065FCB0EE66
:10351000409AF0EE609A9FED8B0B53EC102B51EC20
:10352000190B04F09DFC41EC1B0BB0EE4B0AF0EEC6
:103530006B0A03F0A5FAB0EE40AAF0EE60AA9FED88
:10354000890B53EC102B51EC1A0B04F089FC7B4ACD
:10355000C2E90A019FED850B104680ED0C0B9FED33
:10356000850B864880ED080B9FED850B80ED0A0BDF
:103570009FED850B80ED0C0B1046816F88476B48E3
:1035800090ED000A684880ED000A00F0A5F918B136
:1035900000F0A2F9072827D19FED7D0B674880ED49
:1035A000080B9FED7D0B80ED0A0B9FED700B80EDFE
:1035B0000C0B9FED7B0B714880ED080B9FED7A0B98
:1035C00080ED0A0B9FED700B80ED0C0B784890EDB1
:1035D000100B5A4880ED000B754890ED100B5748C2
:1035E00080ED020B816F884700F076F9062831D113
:1035F0009FED670B514880ED080B9FED5A0B80ED56
:103600000A0B9FED5A0B80ED0C0B9FED6A0B5B488C
:1036100080ED080B9FED640B80ED0A0B9FED5A0BBC
:1036200080ED0C0B654890ED010A10EE101A08466B
:1036300004F040FE414A03C25D4890ED100B3F4844
:1036400080ED020B5E48007800F0070010B13B48A7
:10365000816F884700F040F909280BD000F03CF951
:10366000012807D000F038F9082803D02D48006859
:10367000022832D12B4800682E49086000202949D1
:1036800008609FED430B2D4880ED080B9FED350B37
:1036900080ED0A0B9FED440B80ED0C0B9FED490B69
:1036A000364880ED080B9FED400B80ED0A0B9FED37
:1036B000360B80ED0C0B414890ED010A10EE101A0C
:1036C000084604F0F7FD1D4A03C2394890ED100B7F
:1036D0001A4880ED020B816F8847184890ED1A1B3D
:1036E000B0EE410AF0EE610A9FED381B53EC112B4E
:1036F00051EC100B04F0B4FB204A03C23548B0F97A
:1037000004004042052190FBF1F4204604F041FB07
:103710001A4AC2E902011046816F8847BDEC0C8B42
:1037200010BD0000E00900204000002044000020FF
:10373000C0090020E4090020D0090020C0060020B4
:10374000BC000020333333333333D3BF00000000D9
:103750000000F03F0000000000004E4000000000AC
:10376000008051407B14AE47E17A743F00000000B6
:1037700000001440000000000040504058070020A6
:10378000FCA9F1D24D62503F000000000000004053
:1037900000000000000059407B14AE47E17A843FEE
:1037A00000000000000024400000000000000000B5
:1037B0008813002000000000000039408C09002020
:1037C000F00900200000000000003E403333333396
:1037D0003333D33FC0000020F0B50A460021002358
:1037E000002400BF3DE0012505FA01F3156805EA54
:1037F00003049C4234D105684F000326BE40B54304
:10380000056015794E00B5400668354305601579A9
:10381000012D02D01579022D16D185684F0003269F
:10382000BE40B543856055794E00B5408668354346
:103830008560456801268E40B543456045689679A8
:103840008E40B6B235434560C5684F000326BE4082
:10385000B543C560D5794E00B540C6683543C560EF
:10386000491C1029BFD3F0BDF0B5002300244D073B
:10387000ED0E02FA05F3CE1000F1200555F82650A2
:103880004E07F70E0F26BE40B543CF1000F12006BD
:1038900046F82750CE1000F1200555F8265045EA8D
:1038A0000304CE1000F1200545F82640F0BD018349
:1038B00070474FF6FF710160002101714171817104
:1038C000C17170470A7BCB7A42EA032242614269A6
:1038D00002604269826070470148007870470000CA
:1038E000F909002030B5034613B94FF6FF7030BD1B
:1038F00009E013F8014B82EA0400C0B2054D35F827
:10390000100080EA22220800A1F10101F1D1104645
:10391000EDE70000CA85000830B5034605E013F85E
:10392000010B80EA02040448025D0800A1F10101D4
:10393000F5D1104630BD0000C98400084FF080402A
:10394000406A70470148007870470000F80900207D
:1039500010B5FFF7C1FF09280FD0FFF7BDFF012801
:103960000BD0FFF7B9FF052807D0FFF7B5FF0428F4
:1039700003D0FFF7B1FF082852D12A480078012868
:1039800023D1002028490870284908709FED280A93
:10399000284880ED000A90ED000AB5EEC00AF1EE6D
:1039A00010FA06D89FED220A80ED000A02201D4978
:1039B0000870214890ED000A1E48D0ED000A20EE64
:1039C000200A1E4880ED000A2AE0164800780228E6
:1039D00020D1B7EE000A174880ED000A90ED000AEA
:1039E000F7EE000AB4EEE00AF1EE10FA06DBB7EEED
:1039F000000A80ED000A00200A490870104890ED86
:103A0000000A0C48D0ED000A20EE200A0B4880ED99
:103A1000000A05E00A4890ED000A084880ED000A17
:103A200010BD000006010020070100200801002051
:103A3000000000009C090020A8090020B80900200F
:103A4000AC09002003490988014409B2014A1180E8
:103A500070470000540A002000BFFEE702480078CB
:103A600002490870704700004A0A0020500A0020EE
:103A700010B50446FFF762FF7849086004B910BD2D
:103A8000207C617C00EB012000B200EE100AB8EE51
:103A9000C00ABDEEC00A10EE100A00B270490880DC
:103AA000A07CE17C00EB012000B200EE100AB8EE31
:103AB000C00ABDEEC00A10EE100A00B26849488084
:103AC000207D617D00EB012000B200EE100AB8EE0F
:103AD000C00ABDEEC00A10EE100A00B2604988802C
:103AE000E07D217E00EB012000B200EE100AB8EE6E
:103AF000C00ADFED5C0A80EE201A5B4880ED001AF8
:103B0000607EA17E00EB012000B200EE100AB8EE4C
:103B1000C00AB1EE400ADFED530A80EE201A524887
:103B200080ED011AE07E217F00EB012000B200EE63
:103B3000100AB8EEC00AF2EE040A80EE201A4B48D2
:103B400080ED001A4A4890ED000A4A4880ED000ACC
:103B5000454890ED010A464880ED000A464890ED40
:103B6000000A464880ED000A404890ED000A4248AD
:103B700080ED000A90ED000A4048D0ED000A30EEDA
:103B8000600ADFED3F0AB4EEE00AF1EE10FA04DD60
:103B90003C480068401E3B490860374890ED000AE9
:103BA0003648D0ED000A30EE600ADFED370AB4EE99
:103BB000E00AF1EE10FA04D232480068401C3149A4
:103BC0000860304800684FF4B471484300EE100AB2
:103BD000B8EEC00A2848D0ED000A30EE200A22488C
:103BE00080ED020A224890ED000A2248D0ED000A3A
:103BF00030EE600ADFED220AB4EEE00AF1EE10FAD0
:103C000004DD22480068401E20490860184890EDF5
:103C1000000A1848D0ED000A30EE600ADFED1A0AFB
:103C2000B4EEE00AF1EE10FA04D218480068401C25
:103C300016490860154800684FF4B471484300EE17
:103C4000100AB8EEC00A0A48D0ED000A30EE200A89
:103C5000054880ED010A00BF11E70000700B00204D
:103C6000C00000200000C84224100020BC0000203A
:103C7000E0000020DC000020D8000020D40000205C
:103C800000009643CC000020000096C3D000002026
:103C900000BFFEE72DE9F0412DED088B04460D46EF
:103CA0000026002720686060287BE97A40EA01202E
:103CB000206020686168401AE060E06810F5805F6D
:103CC00007DA606B401C6063E06800F50050A0619B
:103CD0000DE0E068B0F5805F07DD606B401E60635B
:103CE000E068A0F50050A06101E0E068A061A26971
:103CF000207C411C217404F11C0141F82020216822
:103D0000606B01EB4030A060616B4FF4B47201FB5B
:103D100002F004F03EF89FED1C0B53EC102B03F067
:103D200075FE41EC180B21686269881A04F031F8BD
:103D30009FED170B53EC102B04F092F89FED160B30
:103D400053EC102B03F062FE53EC182B03F0A2FD92
:103D500041EC100B84ED100B207C062801D10020D3
:103D60002074002605E004F11C0050F826000744EA
:103D7000761C062EF7DB062097FBF0F0A063BDEC67
:103D8000088BBDE8F0810000000000000000424008
:103D90000000000000002440000000000000C040BF
:103DA0002DE9F0412DED0A8B04460D460026002733
:103DB000B046002008EE100A20686060287BE97A8F
:103DC00040EA0120206020686168401AE060E068F5
:103DD00010F5805F07DA606B401C6063E06800F5F7
:103DE0000050A0610DE0E068B0F5805F07DD606B1A
:103DF000401E6063E068A0F50050A06101E0E0684B
:103E0000A061A269207C411C217404F11C0141F8CD
:103E100020202168606B01EB4030A060616B4FF4A3
:103E2000B47201FB02F003F0B4FF9FED2A0B53ECD8
:103E3000102B03F0EBFD41EC190B21686269881A25
:103E400003F0A7FF9FED250B53EC102B04F008F8AF
:103E50009FED240B53EC102B03F0D8FD53EC192BE2
:103E600003F018FD41EC100B84ED100B207C0628AC
:103E700001D100202074002605E004F11C0050F858
:103E800026000744761C062EF7DBA97B687B41EAF7
:103E900000200FFA80F8404603F07BFF41EC1A0B3C
:103EA0009FED0C0B53EC102B03F0B0FD41EC190B04
:103EB00003F040FFA063297CE87B41EA002000B2C8
:103EC00008EE100AB8EEC80A84ED140ABDEC0A8B9D
:103ED000BDE8F081000000000000334028AFA1BC25
:103EE00086F23240000000000000C0402DE9F0479B
:103EF0002DED088B04460D460026B14600BF00BFDD
:103F000020686060287BE97A40EA01202060206810
:103F10006168401AE060E06810F5805F07DA606B66
:103F2000401C6063E06800F50050A0610DE0E068AF
:103F3000B0F5805F07DD606B401E6063E068A0F550
:103F40000050A06101E0E068A061A269207C411CF2
:103F5000217404F11C0141F820202168606B01EB01
:103F60004030A060616B4FF4B47201FB02F003F0CB
:103F700010FF41EC180B21686269881A03F009FFF1
:103F80009FED290B53EC102B03F06AFF9FED280BDC
:103F900053EC102B03F03AFD53EC182B03F07AFC92
:103FA00041EC100B84ED100B21686269881A03F054
:103FB000F0FE9FED1D0B53EC102B03F051FF9FED16
:103FC0001C0B53EC102B03F021FD41EC100B84ED86
:103FD000120B207C062801D100202074002605E069
:103FE00004F11C0050F826008144761C062EF7DBF5
:103FF000A97B687B41EA00284FF4B47018FB00F0FD
:104000003C2190FBF1F0A063297CE87B41EA002091
:1040100007B200EE107AB8EEC00A84ED140ABDECC7
:10402000088BBDE8F08700000000000000807640AB
:10403000000000000000C0407047000070B5002183
:1040400000230F22C4781CB3174C246804F4E064E6
:10405000C4F5E064C4F30721C1F10404E3B20A41EA
:1040600044789C40E1B28478144021430C07210E2F
:104070000E4C05786155047804F01F050124AC400E
:1040800005786D11AD0005F1E025C5F8004109E0A6
:10409000047804F01F050124AC40054D0678761124
:1040A00045F8264070BD00000CED00E000E400E0A3
:1040B00080E100E002490143024A116070470000BC
:1040C0000000FA050CED00E010B52DED028B044662
:1040D00094ED022BB0EE420AF0EE620A94ED002B52
:1040E000B0EE421AF0EE621A53EC102B51EC110BA9
:1040F00003F0F6FFC4E9040194ED222BB0EE420A6E
:10410000F0EE620A94ED042BB0EE421AF0EE621A61
:1041100053EC102B51EC110B03F0A0FF16D994EDCA
:10412000221BB0EE410AF0EE610A51EC100B03F0D5
:1041300073FB41EC180B94ED041BB0EE410AF0EE5A
:10414000610A53EC102B03F089FF7DD294ED042B10
:10415000B0EE420AF0EE620A94ED082BB0EE421A7D
:10416000F0EE621A53EC102B51EC110B03F078FEB9
:10417000C4E90E0194ED141BB0EE410AF0EE610AA1
:1041800051EC100B03F048FB41EC180B94ED0E1BA7
:10419000B0EE410AF0EE610A53EC102B03F05EFF23
:1041A0000CD894ED141BB0EE410AF0EE610A51EC0C
:1041B000100B03F031FBC4E90E0116E094ED142B53
:1041C000B0EE420AF0EE620A94ED0E2BB0EE421A07
:1041D000F0EE621A53EC102B51EC110B03F03EFF82
:1041E00003D894ED140B84ED0E0B94ED042BB0EE7C
:1041F000420AF0EE620A94ED0A2BB0EE421AF0EE9B
:10420000621A53EC102B51EC110B03F029FE41EC18
:10421000180B94ED101BB0EE410AF0EE610A53EC5E
:10422000102B03F037FBC4E9100194ED161BB0EE20
:10423000410AF0EE610A51EC100B03F0EDFA41EC8B
:10424000180B94ED101B00E0D5E0B0EE410AF0EE43
:10425000610A53EC102B03F001FF0CD894ED161BF0
:10426000B0EE410AF0EE610A51EC100B03F0D4FA03
:10427000C4E9100116E094ED162BB0EE420AF0EE00
:10428000620A94ED102BB0EE421AF0EE621A53EC73
:10429000102B51EC110B03F0E1FE03D894ED160B3B
:1042A00084ED100B94ED241BB0EE410AF0EE610A90
:1042B0009FED741B53EC112B51EC100B03F0FEFC23
:1042C0001ED194ED062BB0EE420AF0EE620A94ED98
:1042D000042BB0EE421AF0EE621A53EC102B51ECA4
:1042E000110B03F0BDFD41EC180B9FED680B53EC77
:1042F000102B03F079FD03D29FED640B84ED100BBE
:1043000094ED062BB0EE420AF0EE620A94ED042B17
:10431000B0EE421AF0EE621A53EC102B51EC110B76
:1043200003F0DEFE41EC180B94ED0C1BB0EE410ADD
:10433000F0EE610A53EC102B03F092FDC4E9120178
:1043400094ED181BB0EE410AF0EE610A51EC100B2F
:1043500003F062FA41EC180B94ED121BB0EE410A27
:10436000F0EE610A53EC102B03F078FE0CD894EDBC
:10437000181BB0EE410AF0EE610A51EC100B03F08D
:104380004BFAC4E9120116E094ED182BB0EE420A84
:10439000F0EE620A94ED122BB0EE421AF0EE621AC1
:1043A00053EC102B51EC110B03F058FE03D894ED95
:1043B000180B84ED120B94ED102BB0EE420AF0EEC8
:1043C000620A94ED0E2BB0EE421AF0EE621A53EC34
:1043D000102B51EC110B03F05DFA41EC180B94ED2E
:1043E000121BB0EE410AF0EE610A53EC102B03F001
:1043F00051FAC4E9200194ED200B84ED1A0B94EDE1
:104400001C1BB0EE410AF0EE610A51EC100B03F0F8
:1044100003FA41EC180B94ED1A1BB0EE410AF0EED2
:10442000610A53EC102B03F019FE0CD894ED1C1B01
:10443000B0EE410AF0EE610A51EC100B03F0ECF91A
:10444000C4E91A0116E094ED1C2BB0EE420AF0EE1E
:10445000620A94ED1A2BB0EE421AF0EE621A53EC97
:10446000102B51EC110B03F0F9FD03D894ED1C0B4C
:1044700084ED1A0B94ED040B84ED060BBDEC028B5E
:1044800010BD0000000000000000F03F0000000030
:10449000000000009FED120B80ED000B9FED100B54
:1044A00080ED020B9FED0E0B80ED040B9FED0C0BCE
:1044B00080ED060B9FED0A0B80ED0E0B9FED080BB8
:1044C00080ED100B9FED060B80ED120B9FED040BA2
:1044D00080ED200B9FED020B80ED1A0B7047000062
:1044E00000000000000000002DE9F0412DED048BDC
:1044F0000546C5F3C750A0F17F07C5F31608002491
:1045000035E07CB938469FED1E0B02F071FCB0EE31
:10451000409AF0EE609A51EC190B03F089F908EE1D
:10452000100A23E0601E4FF4800141FA00F000EA17
:104530000800C4F1170140FA01F6381B9FED100B7B
:1045400002F056FCB0EE409AF0EE609A51EC190B76
:1045500003F06EF900EE900A00EE106AB8EEC01A91
:10456000B0EE480A01EE200AB0EE408A641C182C16
:10457000C7DBB0EE480ABDEC048BBDE8F08100005B
:10458000000000000000F03F7047000000B587B059
:104590000121080200F0D0F80121042000F0CCF83D
:1045A0002020019000208DF808008DF80A000120DD
:1045B0008DF80B0003208DF8090001A91348FFF7BF
:1045C0000BF98020059000208DF818008DF81A0056
:1045D00001208DF81B0003208DF8190005A90C4857
:1045E000FFF7FAF84020039000208DF810008DF8B6
:1045F000120001208DF8130003208DF8110003A98B
:104600000348FFF7E9F807B000BD000000080240CA
:104610000020024010B53B4800683B4908703B4809
:10462000007801280AD10846007838B901203849B5
:10463000087000203749086002F078FF344800789D
:1046400001280CD1344908800020344908703449CD
:10465000486308602E4908700120324908602A48E2
:10466000007878B92B480068401C2A490860084641
:104670000068B0F5FA7F05DD0020284908700120A8
:104680002549088020480078204908701D48001FEF
:104690000068254908702548007801280AD1084695
:1046A000007838B9012022490870002021490860AB
:1046B00002F03CFF1E48007801280CD11649088002
:1046C00016490870002016494863086018490870A8
:1046D0000120144908601448007870B91548006832
:1046E000401C1449086008460068B0F5FA7F04DDF4
:1046F00001200A490870084908800B4800780B49D6
:10470000087010BD1C024442BD0A0020BC0A0020F3
:10471000C80A0020CC0A0020C20A0020190100208B
:1047200028120020E00A0020C10A0020C00A002050
:10473000CA0A0020D00A002029B1064A12680243A2
:10474000044B1A6004E0034A12688243014B1A606A
:10475000704700003038024029B1064A126802430F
:10476000044B1A6004E0034A12688243014B1A604A
:10477000704700004038024029B1064A12680243DF
:10478000044B1A6004E0034A12688243014B1A602A
:10479000704700002038024029B1064A12680243DF
:1047A000044B1A6004E0034A12688243014B1A600A
:1047B000704700004438024029B1064A126802439B
:1047C000044B1A6004E0034A12688243014B1A60EA
:1047D0007047000024380240F0B500210022002478
:1047E000022500260223324F3F6807F00C0121B159
:1047F000042905D0082937D105E02E4F076036E09F
:104800002D4F076033E02A4F3F1F3F68C7F38056A4
:10481000274F3F1F3F6807F03F036EB1264FB7FB9E
:10482000F3F7DFF88CC0ACF1040CDCF800C0CCF37B
:10483000881C07FB0CF40CE01E4FB7FBF3F7DFF806
:1048400070C0ACF1040CDCF800C0CCF3881C07FB92
:104850000CF4174F3F1F3F68C7F301477F1C7D00D3
:10486000B4FBF5F7076002E0124F076000BF00BF1E
:104870000F4F3F6807F0F0010909104F7A5C076895
:10488000D74047600A4F3F6807F4E051890A0B4F51
:104890007A5C4768D7408760054F3F6807F46041FE
:1048A000490B064F7A5C4768D740C760F0BD0000EF
:1048B000083802400024F400001BB7002C0B002035
:1048C000D0E90012914211DA0168491C016090EDB3
:1048D000000AF8EEC00A90ED010AB8EEC00A80EEB8
:1048E000801A80ED021A90ED020A7047B7EE000AB6
:1048F000FBE77047014691ED000AF8EEC00A91ED22
:10490000010AB8EEC01A80EE810AF7EE000AB4EE92
:10491000E00AF1EE10FA01DB012070470020FCE70D
:1049200000210160704701607047416070470000DE
:1049300010B52DED088B044614B9BDEC088B10BDE5
:10494000FEF7FCFFA64908602078617840EA012064
:10495000C0F30A00A34908806078C010A17840EA3B
:104960004110C0F30A009F494880A0788011E17887
:1049700040EA8100217940EA8120C0F30A00994988
:10498000888020794010617940EAC110C0F30A00A4
:104990009449C88060790011800808726079C0F37A
:1049A00001104872A079E17940EA012000B28D49F6
:1049B0004881207A617A40EA012001B289488181E8
:1049C000A07AE17A40EA012001B28648C181217BC8
:1049D0008174617BC174A07BE17B40EA0120814945
:1049E00088820846B0F90200A0F5806000EE100A47
:1049F000B8EEC00A7C4880ED000AB1F90610A1F5B6
:104A0000806003F0C6F941EC1B0B9FED780B53EC73
:104A1000102B03F025FA41EC190B764890ED000AB3
:104A200010EE101A084603F045FC41EC1A0B53EC4B
:104A3000192B02F02FFF41EC180B02F0F9FE6D4923
:104A400008606849B1F90410A1F5806003F0A1F98C
:104A500041EC1B0B9FED680B53EC102B03F000FA9D
:104A600041EC190B634890ED010A10EE101A08464C
:104A700003F020FC41EC1A0B53EC192B02F00AFF57
:104A800041EC180B02F0D4FE5A4948605548B0F981
:104A90000000A0F58060002803DD0120584908606F
:104AA0000AE05048B0F90000A0F58060002803D566
:104AB0004FF0FF305249086051480068012817D173
:104AC0004848B0F90000A0F58060002810DC002004
:104AD0004B4908609FED4B0B53EC102B4B4890ED6E
:104AE000000B51EC100B02F0D5FE484A03C21AE04D
:104AF00043480068401CB0B93A48B0F90000A0F53E
:104B0000806000280FD400203D4908609FED3D0BD8
:104B100053EC102B3D4890ED000B51EC100B03F0C3
:104B2000DFFA3A4A03C22F48407A012802D1022014
:104B3000374908702B48407A032802D101203449B4
:104B400008702848407A022804D1002030490870B3
:104B5000304908602348407A01283AD12148007A38
:104B6000032803D01F48007A012802D101202A49D6
:104B700008701C48007A022802D1002026490870DB
:104B80001848007A012801D1244908701548007A94
:104B9000022803D01348007A032802D100201F49BD
:104BA0000870104890F9080001280DD0022802D0A2
:104BB00003280DD103E000201649086008E04FF0FB
:104BC000FF301449086003E001201249086000BF6B
:104BD00000BF0448407A032800D100BF00BFACE604
:104BE000560B002000150020B8090020FA7E6ABC90
:104BF0007493683F8C090020D42B6519E258673FF5
:104C0000280B0020000000000000E03F200B0020E7
:104C1000FC09002098090020110A0020410A002008
:104C200001460C4800680B4A5268904201D10120AD
:104C30007047084802680830805C087005480068C2
:104C4000401C044A1060642801DB00201060002032
:104C5000EEE70000B71100200E494A680831885479
:104C600008394968491C0B4A5160642901DB00215D
:104C7000516008494968074A1268914208D10549BC
:104C80000968491C034A1160642901DB0021116095
:104C900070470000B7110020704770B586B0064617
:104CA0000C4615469020019000208DF80C008DF8E0
:104CB0000D0008208DF80E00E0B28DF80F008DF881
:104CC000105000218DF811108DF812108DF813106E
:104CD0008DF814108DF815108DF8161001A93046B6
:104CE000FCF795FA06B070BD2DE9F0412DED068B6D
:104CF00007467D4890ED000ADFED7C0A30EE200A81
:104D0000F2EE040A20EE200ABDEEC00A10EE104AB0
:104D1000774890ED101BB0EE410AF0EE610A9FED6E
:104D2000751B53EC112B51EC100B02F0B3FD41EC51
:104D30001A0B724890ED000B53EC102B51EC1A0B30
:104D400002F0A8FD41EC190B9FED6D0B53EC102BFD
:104D500003F086F841EC180B02F0ECFF05466A48B8
:104D600090ED010ADFED690A30EE200AF2EE040A46
:104D700020EE200ABDEEC00A10EE106A64480078EA
:104D8000012809DB62480078092805DC52206149C6
:104D900008700120604908705D480078652809DBCB
:104DA0005B4800786D2805DC42205A4908700020D5
:104DB00059490870594800780209574890F900107D
:104DC0005748FFF76AFF4D20524948704E208870BF
:104DD0004C20C8704FF47A7094FBF0F030300871BA
:104DE0004FF47A7094FBF0F100FB1140642190FBCA
:104DF000F1F0303047494871642094FBF0F100FB3A
:104E000011400A2190FBF1F03030424988710A20AC
:104E100094FBF0F100FB114030303E49C8714FF473
:104E20007A7095FBF0F0303008724FF47A7095FB91
:104E3000F0F100FB1150642190FBF1F03030354966
:104E40004872642095FBF0F100FB11500A2190FBA1
:104E5000F1F030302F4988720A2095FBF0F100FB09
:104E6000115030302B49C8724FF47A7096FBF0F035
:104E7000303008734FF47A7096FBF0F100FB11604C
:104E8000642190FBF1F0303022494873642096FB96
:104E9000F0F100FB11600A2190FBF1F030301D4968
:104EA00088730A2096FBF0F100FB1160303019493D
:104EB000C8730EE017481B4A1268815C1A4801F05B
:104EC000AFF818480068401C16490860962002F0A8
:104ED000AFF814480068B842ECDB002011490860C4
:104EE000BDEC068BBDE8F081BC000020000034431F
:104EF000E01300200000000000805640200B00203E
:104F00000000000000002440241000200000B442F3
:104F10008E1100209C0F0020B80000209811002066
:104F200000680040680000200048004070B5FEF7AF
:104F3000D3FC072805D100221146194800F0F8F8E3
:104F40002DE0184890ED1A1BB0EE410AF0EE610A10
:104F500051EC100B02F0EEFE04B2134890ED1A1B58
:104F6000B0EE410AF0EE610A51EC100B02F0E2FEE5
:104F700005B2224629460A4800F0DAF80B4890EDBF
:104F80001A1BB0EE410AF0EE610A51EC100B02F070
:104F9000D1FE04B222460021054800F0F3F870BDAE
:104FA00000640040280600205807002088080020E0
:104FB000006800400CB50020019000904148006856
:104FC00040F480303F49086000BF3E48006800F46C
:104FD000003000900198401C0190009818B9019889
:104FE000B0F5A04FF1D13748006800F4003010B19F
:104FF0000120009001E0002000900098012860D17D
:1050000030484030006840F080502E494031086000
:105010002D48006840F440402B490860294808307A
:1050200000682849083108600846006840F40040DC
:1050300008600846006840F4A05008602348091F33
:105040000860081F006840F08070091F086000BFFA
:105050001C48006800F000700028F9D01A48006869
:1050600040F480301849086000BF1748406800F4D9
:1050700080300028F9D01448006840F4003012490C
:10508000086000BF1048406800F400300028F9D0E4
:1050900040F205700E4908600A480830006820F0A8
:1050A00003000849083108600846006840F0020023
:1050B000086000BF03480830006800F00C000828B2
:1050C000F8D10CBD00380240007000400C5440077D
:1050D000003C02402DE9F04186B080460C46154662
:1050E0001E460C9F4FF40070019000208DF80C00BC
:1050F0008DF80D0008208DF80E00200A8DF80F00A5
:105100008DF81040290A8DF811108DF81250310ACF
:105110008DF813108DF81460390A8DF815108DF87C
:10512000167001A94046FCF772F806B0BDE8F081A0
:1051300070B586B006460C46154640F2FF10019049
:1051400000208DF80C008DF80D0008208DF80E0061
:10515000280A8DF80F008DF81050FF218DF81110DE
:105160008DF81210210A8DF813108DF81440FF21CC
:105170008DF815108DF8161001A93046FCF747F888
:1051800006B070BD70B586B006460C46154640F2B6
:10519000FF10019000208DF80C008DF80D00082004
:1051A0008DF80E00FF208DF80F00FF218DF81010F4
:1051B000210A8DF811108DF81240290A8DF813106C
:1051C0008DF81450FF218DF815108DF8161001A9D7
:1051D0003046FCF71CF806B070BD000010B59FED1E
:1051E0002D0B2E4880ED080B9FED2A0B80ED0A0B4E
:1051F0009FED280B80ED0C0B9FED290B2A4880EDCD
:10520000080B9FED240B80ED0A0B9FED220B80ED28
:105210000C0B26480078012816D12549B1F9001059
:10522000C1EB0111880002F0B4FD1C4A03C2214801
:1052300090ED100B194880ED020B816F88479FEDB0
:105240001E0B194880ED000B1A4880690A2804DA01
:105250009FED1B0B144880ED000B1648806910F180
:10526000050F04DA9FED140B0F4880ED000B0F487B
:10527000007820B99FED070B0B4880ED000B0D491E
:10528000886B02F086FD084AC2E902011046816F70
:10529000884710BD0000000000000000F00700205B
:1052A0000000000000004E4088080020410A002055
:1052B000EC090020901400200000000000407F4016
:1052C0000000000000C082C07047000010B5154803
:1052D000006840F47000134908601348006840F00B
:1052E00001001149086000200F49083108600E488C
:1052F00000680E4908400C4908600D48091D086007
:10530000081F006820F48020091F0860002006495B
:105310000C310860FFF74EFE4FF000600149803904
:10532000086010BD88ED00E000380240FFFFF6FE87
:10533000103000240EB501210846FFF70DFA4FF09A
:10534000FF3001905320ADF800000020ADF80800B8
:10535000ADF8020069464FF0804000F01FF90121CE
:10536000880700F0E3F80121880700F0F1F80EBD8E
:1053700010B50121880700F0F7F838B1012188073E
:1053800000F0E3F80121880700F0DCF810BD000010
:105390000EB501210220FFF7DFF940F6B73001908A
:1053A0005320ADF800000020ADF80800ADF8020071
:1053B00069460C4800F0F2F801210A4800F0B6F8FE
:1053C0000121084800F0C4F81D208DF808000120D4
:1053D0008DF809008DF80A008DF80B0002A8FEF781
:1053E0002DFE0EBD0004004010B50121184800F04C
:1053F000BBF858B30121164800F0A7F80121144862
:1054000000F0A0F813480068012803D10C20FFF732
:105410006BFC1BE00F480068C0B90F4800780528F6
:1054200014D00E480068401C0C490860084600680B
:10543000B0F5C87F0AD1012002F078F800200749B2
:10544000086007480068401C0549086010BD00005E
:105450000004004008000020F90900200C00002092
:105460000400002010B50121064800F071F8012267
:105470001146044800F089F80121024800F062F862
:1054800010BD0000000400400EB501211020FFF700
:1054900063F95320ADF800000020ADF80200ADF82C
:1054A00008004FF4FA6001906946094800F076F868
:1054B00036208DF8080000208DF809008DF80A00CC
:1054C00001208DF80B0002A8FEF7B8FD0EBD00000C
:1054D0000010004010B50121094800F045F870B1F6
:1054E0000121074800F031F80121054800F02AF8B1
:1054F000FDF708FB03480068401C0249086010BD26
:10550000001000400000002010B50121064800F006
:105510001FF801221146044800F037F80121024823
:1055200000F010F810BD00000010004021B102880A
:1055300042F08002028004E002884FF67F731A4036
:1055400002807047CA4302827047CA430282704792
:1055500021B1028842F00102028004E002884FF685
:10556000FE731A400280704730B5024600200023C7
:105570000024158A05EA0103958905EA010413B19F
:105580000CB1012000E0002030BD1AB183890B432B
:10559000838102E083898B438381704700220288E4
:1055A000184B98420ED0184B98420BD0B0F1804F58
:1055B00008D0164B984205D0154B984202D0154B97
:1055C000984204D14FF68F731A404B881A43124BFE
:1055D000984207D0114B984204D04FF6FF431A402F
:1055E0000B891A4302804B68C3620B880385054B05
:1055F000984202D0044B984201D18B7A0386012352
:105600008382704700000140000401400004004014
:1056100000080040000C0040001000400014004052
:105620002DE9F04106460F464FF00108002002EE3A
:10563000100A0025002419E008FA04F03040204147
:1056400002EE100A2046B0EE000A01F07BFFF0EEF9
:10565000400A00EE105AB8EEC00AB8EEC21A01EEC7
:10566000200ABDEEC00A10EE105A641CBC42E3DBF7
:105670002846BDE8F081000070B540F22441904812
:1056800000F014FC00286FD08D4800888C48001D65
:1056900000888C48FDF7C3FB18BB00218948FDF743
:1056A000EBFA8848FDF7B7FBC0F164008649086053
:1056B000642084495839C8650846806D40F400204C
:1056C000886501217F48FDF7D7FA002404E07F496F
:1056D000085DFFF7C1FA641C7B4800688442F6D37A
:1056E00023E000217748FDF7C7FA7648FDF793FBE2
:1056F000C0F1640074490860642072495839C86573
:105700000846806D20F40020886501216D48FDF772
:10571000B3FA002405E06D496431085DFFF79CFA97
:10572000641C694800688442F5D3BFE0684840685B
:1057300067490968401A03D400206649088002E0DE
:1057400064206449088062480068602807DB60487C
:105750000068632803DC64205F49088002E00020C1
:105760005D490880002505E0A8E05C494819FFF77D
:1057700057FA6D1C052DF8DB584800795849087018
:10578000FF2204215548FEF7C7F8564908705448CF
:10579000007809788842C8D1504840784F498978C4
:1057A00040EA01205049088010214F480088FFF747
:1057B00037FF4D49088046484068464909880144FA
:1057C00043480068444A12881044401F091A46485A
:1057D00000880930814260DB002505E03F49491D12
:1057E0004819FFF71DFA6D1C3F480088001D8542CF
:1057F000F4DB3D480088C01D3849095C3A48008800
:105800000830364A105C41EA0020384908803648A2
:105810000088C11D4FF6FF723048FEF763F8344927
:10582000088032480088098888423FD12B48407957
:10583000012806D129488079022802D1274801F0A1
:1058400041FE26484079062806D12448807902285E
:1058500002D1224801F03CFD20484079072806D1BA
:105860001E488079022802D11C4801F0DBFD1B484C
:105870004079022806D119488079022802D11748B8
:1058800001F040FD1548407901280FD11348807977
:1058900060B9124801F018FC08E00D4800680E4994
:1058A00009880844401F0A49086006E00848406823
:1058B0000749096888427FF439AF00BF70BD000016
:1058C0000078004058600240F400002030100020B2
:1058D000B7110020F0000020F2000020F810002096
:1058E000E8000020E9000020EE000020EA0000208F
:1058F000EC00002000B58FB001210220FEF71CFF54
:1059000001218805FEF718FF01211020FEF744FF52
:10591000072211464248FDF7A7FF0DA8FDF7C9FF72
:1059200080200D9002208DF8380000208DF839007D
:1059300001208DF83B000DA93948FDF74DFF39488E
:1059400000F03CFA09A800F06FFB374809900020EE
:10595000ADF82800ADF82A004FF48060ADF82C00B7
:105960000420ADF82E000020ADF8300009A92D4824
:1059700000F0ECFA012240212A4800F015FA012239
:1059800040F22441274800F0BBFA0121254800F0ED
:10599000FFF92648FDF77CF96846FDF777FA4FF0E6
:1059A000006000901F48001D0190214802900020D7
:1059B00003901E200490002005904FF48060069014
:1059C0000020079008904FF48070099000020A9020
:1059D00000200B900C900D900E9069461348FDF737
:1059E00029FA002212491E311048FDF708FA012158
:1059F0000E48FDF7F9F901210C48FDF73DF9252086
:105A00008DF8380001208DF8390002208DF83A0019
:105A100001208DF83B000EA8FEF710FB0FB000BD73
:105A20000004024000100140A0860100886402408A
:105A30007D0B002010B540F22441284800F036FAD2
:105A4000002849D025480088244880882448FDF74C
:105A5000E6F900BB00212248FDF70EF92048FDF7CA
:105A6000DAF9C0F11E001F4908601E201C49091DFB
:105A70000860081F006840F40020091F0860012129
:105A80001748FDF7F9F817480068122824D116487E
:105A9000FEF74EFF20E000211148FDF7EDF8104819
:105AA000FDF7B9F9C0F11E000E4908601E200C492F
:105AB000091D0860081F006820F40020091F086005
:105AC00001210748FDF7D8F806480068122803D1DD
:105AD00005481E30FEF72CFF10BD000000100140ED
