:020000040800F2
:10000000182C0020C5020008893F0008A939000803
:10001000E13B0008C5090008396200080000000043
:100020000000000000000000000000002D4D00084E
:10003000072E000800000000D94400085D530008A6
:10004000DF020008DF020008DF020008DF0200080C
:10005000DF020008DF020008DF020008DF020008FC
:10006000DF020008DF020008DF020008DF020008EC
:10007000DF020008DF020008DF020008DF020008DC
:10008000DF020008DF020008DF020008150B00088D
:10009000D90A0008DF020008DF020008DF020008BA
:1000A000DF020008DF020008DF020008DF020008AC
:1000B000055400087D540008DF020008DF02000834
:1000C000DF020008DF020008DF020008DF0200088C
:1000D000DF0200080D5C0008DF020008C55C0008B4
:1000E000DF020008DF020008DF020008DF0200086C
:1000F000DF020008DF020008DF020008DF0200085C
:10010000DF020008DF020008DF020008DF0200084B
:10011000DF020008DF02000809560008DF020008BD
:10012000DF020008DF020008DF020008DF0200082B
:10013000DF020008DF020008DF020008810C00086F
:10014000450C0008DF020008DF020008DF0200089B
:10015000DF020008DF020008DF020008B15E0008CD
:10016000DF020008DF020008DF020008DF020008EB
:10017000DF020008DF020008DF02000800000000C4
:10018000DF020008DF02000865580008DF020008EF
:10019000DF020008DF020008DF020008DF020008BB
:1001A0000000000000000000DF02000800F002F87C
:1001B00000F05EF80AA090E8000C82448344AAF1A3
:1001C0000107DA4501D100F053F8AFF2090EBAE8A1
:1001D0000F0013F0010F18BFFB1A43F0010318477B
:1001E000A0840000C08400000A444FF0000C10F806
:1001F000013B13F0070408BF10F8014B1D1108BFA5
:1002000010F8015B641E05D010F8016B641E01F844
:10021000016BF9D113F0080F1EBF10F8014BAD1C94
:100220000C1B09D16D1E58BF01F801CBFAD505E0B2
:1002300014F8016B01F8016B6D1EF9D59142D6D30C
:10024000704700000023002400250026103A28BF34
:1002500078C1FBD8520728BF30C148BF0B60704738
:100260001FB507F0C6FF00F064F81FBD10B510BD44
:1002700000F0B2F81146FFF7F3FF07F071F800F055
:10028000D0F803B4FFF7F2FF03BC06F005FE000050
:100290000B49D1F800C04A685CF8043B1068184468
:1002A00042F8040B8C4528BFA1F1DC0C8A4228BF20
:1002B000A1F1DC02C1F800C04A6020F000407047A4
:1002C000AC1600200948804709480047FEE7FEE7D2
:1002D000FEE7FEE7FEE7FEE7FEE7FEE7FEE7FEE7F6
:1002E00004480549054A064B704700006153000861
:1002F000AD01000818170020182C0020181C002041
:10030000181C0020704700000B4910B5A1F17C02B9
:100310000A4CC2E93712372106E000EB104342F8DD
:100320002130074B00FB03400B1EA1F10101F4DC5F
:1003300010BD0120E8E700004C160020E119D66648
:10034000CD0D010010B5203AC0F00B80B1E8185077
:10035000203AA0E81850B1E81850A0E81850BFF4AF
:10036000F5AF5FEA027C24BFB1E81850A0E818504E
:1003700044BF18C918C0BDE810405FEA827C24BFA2
:1003800051F8043B40F8043B08BF7047D20728BF30
:1003900031F8023B48BF11F8012B28BF20F8023B7F
:1003A00048BF00F8012B704770477047704770478F
:1003B00010B500F009F8006810BD10B5044600F053
:1003C00003F8046010BD000000487047B416002018
:1003D00000487047B41600207546FFF7F9FFAE4697
:1003E00005006946534620F00700854618B020B541
:1003F000FFF776FFBDE820404FF000064FF0000702
:100400004FF000084FF0000B21F00701AC46ACE8BC
:10041000C009ACE8C009ACE8C009ACE8C0098D4629
:1004200070470446AFF300802046FFF72AFF000024
:1004300010B52DED048B7048007870490870704835
:10044000007800287ED16F4890ED101BB0EE410A75
:10045000F0EE610A51EC100B07F018F96A490860D8
:10046000084690ED000ABDEEC00A10EE100A4FF4E7
:10047000B47190FBF1F065490860634890ED000AA3
:10048000BDEEC00A10EE100A4FF4B47190FBF1F209
:1004900001FB120000F5B47090FBF1F201FB1200B9
:1004A00000B25B4908805548007858BB0846B0F94F
:1004B0000000F02811DB0846B0F90000B0F5A87F75
:1004C0000BDA52480068C0EB001000EB40005A21E4
:1004D00001EBC0004F49086022E04D48B0F9000030
:1004E0009B2810DB4A48B0F90000F0280BDC474895
:1004F0000068C0EB001000EB4000B42101EBC0002D
:10050000444908600CE03F4890ED101BB0EE410AF2
:10051000F0EE610A51EC100B07F03AFB3D49086020
:100520003648007801283BD13948B0F90000B0F5D1
:10053000A77F12DD3648B0F900003C280DDC3348B7
:10054000006800E054E0C0EB001000EB40005A21CE
:10055000C1EBC0002F49086022E02D48B0F900002F
:100560003C2810DB2A48B0F900009B280BDC274808
:100570000068C0EB001000EB4000B421C1EBC000EC
:10058000244908600CE01F4890ED101BB0EE410AB2
:10059000F0EE610A51EC100B07F0FAFA1D49086001
:1005A0001C48006807F023FB41EC190B154890ED3F
:1005B000101BB0EE410AF0EE610A53EC102B51EC27
:1005C000190B07F0BBFC41EC180B9FED130B53EC20
:1005D000102B07F071FC03D201201149087002E0D2
:1005E00002200F4908700F480088401C0D49088000
:1005F000BDEC048B10BD0000A00A0020260B0020DB
:10060000070A0020C8130020B80A002014010020A7
:10061000180100201C010020000000000000F03F35
:1006200020010020240B002010B54FF4A06003F03F
:10063000E9FC04F0C9FE04F0C1FF04F0F3FE00F091
:10064000C3F900F075FA05F041FA4FF4E13006F015
:10065000CDFE05F091FB4FF4E13006F069FF03F0A9
:100660003DFF04F05BFF10BD7B48007801287DD181
:100670007A48C0887A4908800846008879490988FC
:10068000401A7949086079480088401C00B27749CF
:1006900008807548006810F10A0F0EDC0846B0F9B2
:1006A0000010734802680068401C714B1860714864
:1006B00020F81210012070490860694800887828E5
:1006C00071DD6B4800680F2837DB6B480068012834
:1006D00033D167480068401E664931F910106448FC
:1006E00000680F38634A32F91000081A634908603D
:1006F0005F480068401E114631F910105C480068E0
:100700000F3832F91000081A3C2816DA58480068E9
:10071000401E114631F9101055480068401F32F94B
:100720001000081A062808DD00205549086001203D
:100730005449087000205049086053480068401C24
:1007400051490860084600683C280DDA08460068F0
:100750000A2809DD4448006810F1640F04DC012018
:100760004A4908604A4908603F4800E072E0006872
:1007700010F1640F0ADC0020414908600120414962
:1007800008704349086000203F49086041480068FC
:10079000401C4049086008460068B0F5967F02DDBD
:1007A00000203D4908602E480088782841DA002062
:1007B000334908600120334908702B48006810F164
:1007C0000A0F0DDC3548006850B901203049086037
:1007D0000020334908600120324908602F49086031
:1007E0002F480068401C2E490860084600686428AD
:1007F00002D900202B49086029480068B0F5967F8F
:1008000002D90020254908601748006810F10A0F36
:1008100002DC00201F4908601E480068401C1D497A
:10082000086008460068B0F5967F02DD00201A498E
:1008300008600D48006810F10A0F07DC0A480068DC
:1008400010F1140F02DB01201749087004480088DA
:100850000449088070470000060A0020CE110020DD
:10086000220B0020200B0020740A0020780A0020B0
:100870007C0A002056110020800A00209C0A0020DB
:10088000640A0020030A0020600A0020F40A002005
:10089000E40A0020840A0020880A0020700A002050
:1008A000680A0020F80A0020070A002010B502F0AC
:1008B000BFFF042807D002F0BBFF062803D002F0D8
:1008C000B7FF052825D113480088B0F5C87F20DA86
:1008D0001148007801281CD102F0DCFF0F49486064
:1008E000084640680968401A0C4988600C4800783E
:1008F0000C4991FBF0F009498968884209DA0A48F5
:100900000088401C00B20849088002F0C3FF034978
:10091000086010BD1E0B0020490A00208D0B00202E
:10092000580A002010EB0900F40900202148008833
:100930001E2819DC2048008820490988081A012847
:1009400005DD1F4800880A381D4908800CE01A4858
:1009500000881A490988081AB0F1FF3F04DA1848DC
:1009600000880A3016490880124800881E2820DDB9
:100970001148408811490988081A01280CDD0E48E1
:1009800040880E490988081A032812DA0C48408862
:100990000A380B4948800CE0074840880749098815
:1009A000081AB0F1FF3F04DA054840880A300449CC
:1009B000488070474A0000204E0A0020560A002056
:1009C0004A0A002000BFFEE700B589B001210820D7
:1009D00003F05AFE0121480603F066FE09220021B9
:1009E0003B4802F0E7FE09220121394802F0E2FE0D
:1009F0000320079002208DF8200007A9344802F058
:100A000091FE344800F0BAF904A800F0F2FB00208F
:100A10008DF816008DF817008DF818008DF8190064
:100A20008DF81A0001208DF81B0000208DF81200AF
:100A30008DF8130008208DF8140003208DF81500A0
:100A4000ADF8100004A9234800F0D1FA00208DF879
:100A50000A008DF80B0001208DF80C000020ADF885
:100A60000000ADF80200ADF80400ADF80600ADF8E6
:100A7000080001208DF80D00684600F09BF9012266
:100A80000221144800F0AAFA01221146114800F090
:100A9000A5FA14208DF8200001208DF821008DF892
:100AA00022008DF8230008A803F070FA13208DF8B7
:100AB000200001208DF8210000208DF82200012067
:100AC0008DF8230008A803F061FA09B000BD00000A
:100AD000000C02400064004000B585B002210B48C4
:100AE00000F0ECF978B10221084800F0F3F8084969
:100AF000064800F0D3F86A460021044800F001FBE4
:100B0000684600F033FE05B000BD00000064004000
:100B10000800003210B50121044800F0CFF918B1E7
:100B20000121024800F0D6F810BD0000006400402A
:100B300000B589B00121022003F0A6FD012188063D
:100B400003F0B2FD09220C213C4802F033FE0922D9
:100B50000D213A4802F02EFE4FF44050079002203B
:100B60008DF8200007A9354802F0DCFD344800F07C
:100B700005F904A800F03DFB00208DF816008DF863
:100B800017008DF818008DF819008DF81A00012053
:100B90008DF81B0000208DF812008DF8130008203E
:100BA0008DF8140003208DF81500ADF8100004A98D
:100BB000234800F01CFA0E208DF80A0000208DF862
:100BC0000B0001208DF80C000020ADF80000ADF8FE
:100BD0000200ADF80400ADF80600ADF808000120F1
:100BE0008DF80D00684600F0E5F801220221144856
:100BF00000F0F4F901221146114800F0EFF940200D
:100C00008DF8200001208DF821008DF822008DF84C
:100C1000230008A803F0BAF93F208DF82000012036
:100C20008DF8210000208DF8220001208DF823008E
:100C300008A803F0ABF909B000BD000000040240B1
:100C40000068004000B585B002210B4800F036F97D
:100C500078B10221084800F03DF80849064800F044
:100C60001DF86A460021044800F04BFA684600F07F
:100C700081FE05B000BD00000068004008000032A1
:100C800010B50121044800F019F918B101210248FA
:100C900000F020F810BD00000068004000220C4B5E
:100CA000994202D10023836111E0C1F3130201F0E4
:100CB00000730BB1C2600AE001F080630BB1026106
:100CC00005E001F000630BB1826000E04260704714
:100CD0007000F030B1F5007F3AD00FDC202928D029
:100CE00006DC01291CD004291DD0082940D11DE0B3
:100CF000402921D0B1F5807F3AD126E0B1F5004FEF
:100D000031D006DCB1F5806F25D0B1F5006F2FD161
:100D100024E0B1F5803F12D0B1F5003F28D111E0B9
:100D2000154A826025E00822C26022E01022C260DB
:100D30001FE0082202611CE01022026119E0082273
:100D4000426016E01022426013E00422426010E08C
:100D5000042242600DE0042242600AE00022826127
:100D60000422426005E0002282610422426000E029
:100D700000BF00BF704700000101010010B504462C
:100D80000B48844209D10121480603F09DFC002153
:100D90004FF0007003F098FC08E00121880603F092
:100DA00093FC00214FF0806003F08EFC10BD00002A
:100DB0000064004010B50021837A012202FA03F199
:100DC0003D4A126842F001023B4B1A603A4A1C321B
:100DD00012688A43384B1C331A60027BCAB9364A00
:100DE0000C3212688A43344B0C331A604288C38831
:100DF00042EA0343304A4032847A42F8343002886F
:100E0000838842EA03432C4A4032847A02EBC402CC
:100E10005360027B012A19D1274A0C3212680A4317
:100E2000254B0C331A604288038842EA0343224A66
:100E30004032847A42F83430C288838842EA0343DD
:100E40001D4A4032847A02EBC4025360C27A3AB936
:100E5000194A121D12688A43174B1B1D1A6006E0BF
:100E6000154A121D12680A43134B1B1D1A60028992
:100E700032B9114A143212688A430F4B14331A6084
:100E80000289012A06D10C4A143212680A430A4B1D
:100E900014331A60427B012A06D1074A1C321268B9
:100EA0000A43054B1C331A60034A126822F0010200
:100EB000014B1A6010BD00000066004070B504468A
:100EC0000D46002660692840002871D0B5F5807F66
:100ED0005CD010DC082D35D006DC012D20D0022D91
:100EE00024D0042D72D127E0102D31D0202D35D003
:100EF000402D6BD138E0B5F5004F60D009DCB5F579
:100F0000007F49D0B5F5806F4CD0B5F5006F5DD14D
:100F10004FE0B5F5803F2DD0B5F5003F56D12FE01D
:100F2000A0682D4901F098FD064651E0E0680321D4
:100F300001F092FD06464BE0E068082101F08CFDCF
:100F4000064645E0E068102101F086FD06463FE0D8
:100F50002069032101F080FD064639E0206908215F
:100F600001F07AFD064633E02069102101F074FD9E
:100F700006462DE06068082101F06EFD064627E078
:100F80006068102101F068FD064621E0A06901219A
:100F900001F062FD06461BE0A069022101F05CFD44
:100FA000064615E0A069042101F056FD06460FE053
:100FB0000FE0A069702101F04FFD064608E060686F
:100FC000042101F049FD064602E0FFE7002600BFCC
:100FD00000E00026304670BD010101001AB14369EE
:100FE0000B43436102E043698B434361704730B573
:100FF000024600200023146824F0020414601468E0
:1010000044F00104146000E05B1C546804F0010427
:101010001CB94FF6FF74A342F6D1546804F00104E2
:101020000CB900206CE08C79012C04D1146844F0D8
:101030008004146003E0146824F080041460CC7908
:10104000012C04D1146844F04004146003E01468D7
:1010500024F0400414600C7A012C04D1146844F08C
:101060002004146003E0146824F0200414604C7A17
:10107000012C04D1146844F01004146003E01468D7
:1010800024F0100414608C7A012C04D1146844F00C
:101090000804146003E0146824F008041460CC7A97
:1010A000012C04D1146844F00404146003E01468B3
:1010B00024F0040414608C78A407CD7844EA056415
:1010C0000D7944EA05444D7944EA05540D886D1EB6
:1010D0002C43D461146824F001041460002300E060
:1010E0005B1C546804F001041CB14FF6FF74A3426A
:1010F000F6D1546804F001040CB1002000E0012096
:1011000030BD10B500F5D87303EB01131B6803F075
:1011100004031372137A53B900F5D87303EB011368
:101120001B6840F2FF7404EA5353136009E000F5B2
:10113000D87303EB01131B686FF0604404EAD30318
:10114000536000F5D87303EB01131B6803F002032F
:10115000537200F5D87303EB01135B6803F00F03C0
:10116000937200F5D87303EB01135B681B0AD37409
:1011700000F5D87303EB01139B68D37200F5D873A5
:1011800003EB01139B681C0A147300F5D87303EB7F
:1011900001139B681C0C547300F5D87303EB011307
:1011A0009B681B0E937300F5D87303EB0113DB6888
:1011B000D37300F5D87303EB0113DB681C0A1474B6
:1011C00000F5D87303EB0113DB681C0C547400F5B5
:1011D000D87303EB0113DB681B0E937421B9C3684A
:1011E00043F02003C36003E0036943F0200303617D
:1011F00010BD00218171C171017241728172C17291
:101200008170C170032101710221417101210180AE
:10121000704710B502460020936803F08063B3F175
:10122000806F00D110E0936803F00063B3F1006FAA
:1012300001D1012008E0936803F08053B3F1805F8F
:1012400001D1022000E00420042874D002F5C0730C
:1012500003EB00131B6803F0010402F5C07303EBFA
:1012600000131C600B7A7BB94B7A0C8843EA445319
:1012700002F5C07404EB00142468234302F5C07423
:1012800004EB0014236010E00B7A4C6843EAC403BB
:101290004C7A234302F5C07404EB00142468234302
:1012A00002F5C07404EB001423608B7A03F00F0383
:1012B0008B7202F5C07303EB00135B6823F00F041D
:1012C00002F5C07303EB00135C6002F5C07303EB1F
:1012D00000135B688C7A234302F5C07404EB00149E
:1012E00063608B7B1C064B7B44EA03440B7B44EA24
:1012F0000323CC7A234302F5C07404EB0014A360EB
:101300008B7C1C064B7C44EA03440B7C44EA03239D
:10131000CC7B234302F5C07404EB0014E36002F5B8
:10132000C07303EB00131B6843F0010402F5C073A4
:1013300003EB00131C6010BD70B52DED0C8B82B05B
:10134000EB4890ED022BB0EE420AF0EE620A90ED0F
:10135000002BB0EE421AF0EE621A53EC102B51EC57
:10136000110B06F0EBFD41EC1D0BB0EE4D0AF0EE5B
:101370006D0A05F075FCB0EE40CAF0EE60CA9FED54
:10138000DD0B53EC102B51EC1C0B06F097FC41ECE1
:101390001B0BB0EE4B0AF0EE6B0A05F0B5FAB0EE9F
:1013A00040AAF0EE60AA9FEDD50B53EC102B51EC48
:1013B0001A0B06F0B7FD41EC190B9FEDD20B53EC65
:1013C000102B06F07BFC41EC180B9FEDCE0B53EC81
:1013D000102B06F08DF9C64AC2E908019FEDCB0B30
:1013E000104680ED0A0B9FEDC90B80ED0C0B9FEDB5
:1013F000C90BCA4880ED080BC94880ED080B9FED6A
:10140000C90BC64880ED0A0BC54880ED0A0B9FED5D
:10141000C70BC24880ED0C0BC14880ED0C0B02F0ED
:1014200007FA072802D002F003FAD0B99FEDC10BEA
:10143000AF4880ED080B9FEDBB0B80ED0A0B9FEDD5
:10144000BF0B80ED0C0B9FEDB10B80ED000BBD4988
:10145000886B06F0CCFBA64AC2E902011046816FF8
:10146000884702F0E5F9042840D1B748006868B918
:10147000B648006806F04CFE41EC180B9FEDB40B2B
:1014800053EC102B06F01AFC994A03C2AE480068D0
:1014900001280DD1AD48006806F03AFE41EC180B6A
:1014A0009FEDAB0B53EC102B06F008FC904A03C2E7
:1014B000A449886B06F09BFB8D4AC2E902011046E5
:1014C000816F8847A449886B06F091FB944AC2E972
:1014D00002011046816F8847A049886B06F087FBA0
:1014E0008E4AC2E902011046816F884702F0A0F9D6
:1014F000012807D002F09CF9062803D002F098F9E1
:10150000082828D1914890ED000AB1EE400A10EE6B
:10151000100A06F0FDFD764A03C28A49886B06F080
:1015200066FB734AC2E902011046816F88478A4907
:10153000886B06F05CFB7A4AC2E902011046816FB3
:1015400088478649886B06F052FB744AC2E902015B
:101550001046816F884702F06BF9052823D17B483C
:10156000006806F0D5FD624A03C27649886B06F032
:101570003EFB5F4AC2E902011046816F8847764907
:10158000886B06F034FB664AC2E902011046816F9F
:1015900088477249886B06F02AFB604AC2E902015B
:1015A0001046816F884702F043F9072802D002F005
:1015B0003FF9E8BB4E4890ED021BB0EE410AF0EE59
:1015C000610A9FED5A1B53EC112B51EC100B06F0E6
:1015D00039FB18D8464890ED021BB0EE410AF0EEF8
:1015E000610A9FED5F1B53EC112B51EC100B06F0C1
:1015F00063FC08D8002003460246014600905A4882
:1016000003F09AFD70E03A4890ED1A1BB0EE410AE3
:10161000F0EE610A51EC100B06F0BAFA04B20020A9
:1016200003460246214600904F4803F085FD5BE0EB
:10163000FFE702F0FDF804282BD1384890ED1A1B83
:10164000B0EE410AF0EE610A51EC100B06F0A0FA80
:1016500004B2334890ED1A1BB0EE410AF0EE610A75
:1016600051EC100B06F094FA05B2214890ED1A1BCC
:10167000B0EE410AF0EE610A51EC100B06F088FA68
:1016800006B22B46002231463748009403F054FD41
:101690002AE0224890ED1A1BB0EE410AF0EE610AF2
:1016A00051EC100B06F074FA04B21D4890ED1A1BB1
:1016B000B0EE410AF0EE610A51EC100B06F068FA48
:1016C00005B20B4890ED1A1BB0EE410AF0EE610A2C
:1016D00051EC100B06F05CFA06B22B4600223146A4
:1016E0002148009403F028FD02B0BDEC0C8B70BDC6
:1016F000080200209A9999999999B9BF00000000B1
:101700000000F03F00000000000059400000000011
:10171000000000000000000000004E40D003002048
:1017200038030020000000000000E03F000000003F
:1017300000002440000000000000444000000000C1
:10174000000014406812002034010020C00900206D
:10175000000000000000E0BF1813002070130020FC
:1017600000000000000024C00064004010B50446E2
:1017700075480068401C7449086040F201222168E5
:10178000881A91423BD010DC40296BD006DC30290E
:1017900065D0312964D032297ED162E0502962D0EF
:1017A000602961D07029F7D15FE0082874D2DFE8A2
:1017B00000F0C737041593C7485D012063490870DE
:1017C00061480068322804D82146614802F020F8B8
:1017D00003E021465E4802F08BFAB2E001205B494B
:1017E000087059480068322804D82146594802F048
:1017F0000FF803E02146574802F07AFAA1E00120F1
:101800005249087050480068322804D8214652488E
:1018100001F0FEFF03E021464F4802F069FA90E034
:1018200001204A49087048480068322804D82146F7
:101830004A4801F0EDFF03E02146484802F058FA1B
:101840007FE041480068322804D82146444801F02E
:10185000DFFF03E02146424802F0C4F971E070E086
:101860006FE06EE06DE06CE06BE06AE036480068C7
:10187000322827D221463B4801F0CAFF3948406947
:101880003949B1F90010401AB0F5805F09DD3648DA
:10189000008800F5005000E052E000B232490880B4
:1018A00019E0304840693049B1F90010401A10F58C
:1018B000805F10DA2C480088A0F5005000B22A4959
:1018C000088008E02848B0F9000026494861214610
:1018D000244802F0B3FA34E01B480068322825D2CD
:1018E0002146224801F094FF204840692049B1F97F
:1018F0000010401AB0F5805F07DD1D48008800F534
:10190000005000B21A49088019E018484069184987
:10191000B1F90010401A10F5805F10DA1448008801
:10192000A0F5005000B21249088008E01048B0F954
:1019300000000E49486121460C4802F07FFA00E0A1
:1019400000BF00BF10BD0000140B0020060A0020DD
:1019500068120020C012002018130020701300200D
:10196000D0140020C81300201A0B002020140020DF
:10197000180B002010B5044623480068401C22497B
:1019800008602068B0F5807F37D0A0F2062098BBB1
:1019900008460068322825D221461C4801F038FF4D
:1019A0001A4840691A49B1F90010401AB0F5805F31
:1019B00007DD1748008800F5005000B21449088080
:1019C00019E0124840691249B1F90010401A10F5A7
:1019D000805F10DA0E480088A0F5005000B20C4974
:1019E000088008E00A48B0F900000849486121462B
:1019F000064802F0F7F805E003E0204604F00CFC8E
:101A000000E000BF00BF10BD140B002078140020C0
:101A10001C0B002010B52DED048B0446A078E17856
:101A200040EA012000B2CD4908802079617940EA7E
:101A3000012000B2C9494880A0798880E079C8496E
:101A40000880207A4880607AC6490880A07A488059
:101A5000C5480078C5490860207852287DD1607853
:101A60004D28FBD1A078412877D0C14890ED000ADD
:101A7000F7EE000A30EE200A80ED000AB748B0F910
:101A8000000000EE100AB8EEC00ABA4880ED000A65
:101A9000B248B0F9020000EE100AB8EEC00AB6482B
:101AA00080ED000A0120B04908700020B349888702
:101AB000B348007A032805D1B2480068012801D153
:101AC000B149087001F0E6FEB04948600846406838
:101AD0000968401AAD498860AD480078401CAC499F
:101AE000087008460078012819D1AA4890ED101B0B
:101AF000B0EE410AF0EE610A51EC100B05F0C6FDA4
:101B0000A5490860A54890ED101BB0EE410AF0EE23
:101B1000610A51EC100B05F0B9FDA14908609C4821
:101B200000781E2802DD1E209949087001F080FE11
:101B300007280ED001F07CFE58B101F079FE06288E
:101B400007D001F075FE052803D001F071FE0128D1
:101B50001CD1904890ED101B00E097E0B0EE410AD8
:101B6000F0EE610A51EC100B05F090FD8D49086014
:101B70008A4890ED101BB0EE410AF0EE610A51EC7C
:101B8000100B05F083FD884908607BE07349B1F9CB
:101B9000000006F02CF841EC190B9FED840B53EC80
:101BA000102B05F061FE41EC180B05F06FFD7D492F
:101BB00008607248B0F93C0023281BDA084690ED13
:101BC000000A6E48B0F91410808A401C00B26B4ABB
:101BD0009082104600EB810080ED000A1046B0F9BB
:101BE0001400052802DB002011468882002063498A
:101BF000888710E0002008E09FED6E0A5F4901EB46
:101C0000800181ED000A411CC8B20528F4DB0020E8
:101C10005A49888288875148808881B2664802780C
:101C20000078401C644B1870644820F81210184665
:101C300000780A2802DB0020194608705F4805F08A
:101C400067F95F4908804549B1F9020005F0CFFF07
:101C500041EC190B9FED550B53EC102B05F004FED6
:101C600041EC180B05F012FD4F4908604D4890ED0E
:101C7000000A544880ED000A084690ED000A5248D8
:101C800080ED000A01F006FE4049086020785228E5
:101C90002DD160784D282AD1A078412827D1E0782D
:101CA000412824D12079412821D19FED420A314891
:101CB00080ED000A9FED3F0A2F4880ED000A2F4873
:101CC000808F401C00B22D4988870846B0F93C003F
:101CD000232801DB232088872848B0F93C002328EB
:101CE00005DC3A4890ED000A2E4880ED000A2348B2
:101CF000B0F93C0023281ADB00202549087033483E
:101D000090ED000A274880ED000A244890ED101B52
:101D1000B0EE410AF0EE610A51EC100B05F0B6FC92
:101D2000214908600020184908700F4908701448BC
:101D3000007A032802D101202549087001F078FDBE
:101D4000042808D10E48007A022804D100200E4948
:101D500008701F490870BDEC048B10BD28000020DE
:101D60002E00002032000020020A00208000002007
:101D70009000002084000020880000204C0F0020EC
:101D80004015002008000020490A0020A70B002071
:101D90007D000020C8130020000100202014002036
:101DA00004010020440000203C000020000000004E
:101DB00000005940000000004C000020380F0020B7
:101DC0004A0000204000002038000020C40000200D
:101DD000190A002010B52DED048B01F029FD012812
:101DE00007D001F025FD042803D001F021FD0828CB
:101DF0007DD18848007801282ED1874800880128A5
:101E00002AD18648007810B1012824D111E09FED35
:101E1000840A844880ED000A83480068401C824997
:101E20000860824800688249086000207A4908807A
:101E300011E09FED800A7B4880ED000A7B48006836
:101E4000401C7A490860784800687B490860002097
:101E50007149088000BF00BF6E4800780128C7D1D3
:101E60007048006806F054F941EC190B734890ED86
:101E7000101BB0EE410AF0EE610A53EC102B51EC4E
:101E8000190B06F05BF841EC180B05F081FE041EFF
:101E900001DB204600E0604205281DDA5F4800783B
:101EA00010B101280CD105E09FED5D0A5D4880ED81
:101EB000000A05E09FED5F0A5A4880ED000A00BF66
:101EC00000BF56480078401C544908700846007806
:101ED000022801DB0020087059480068401C58495E
:101EE000086058480078002801D1574800E08DE08C
:101EF00090ED000A554880ED000A08460068401C35
:101F00000860084600685249884202DD01205149B4
:101F100008605048006890BB4248006806F0F8F836
:101F200041EC180B454890ED101BB0EE410AF0EE65
:101F3000610A53EC102B51EC180B05F0BDFF05D2D4
:101F40009FED450A404880ED000A18E035480068DA
:101F500006F0DEF841EC180B384890ED101BB0EE9F
:101F6000410AF0EE610A53EC102B51EC180B05F00E
:101F700069FE04D29FED390A334880ED000A3548E6
:101F80000068012832D12748006806F0C1F841EC0A
:101F9000180B2A4890ED101BB0EE410AF0EE610AD2
:101FA00053EC102B51EC180B05F086FF05D29FED7A
:101FB0002A0A254880ED000A18E01A48006806F051
:101FC000A7F841EC180B1D4890ED101BB0EE410A2C
:101FD000F0EE610A53EC102B51EC180B05F032FEB9
:101FE00004D29FED1E0A184880ED000A174890EDB4
:101FF000000A1548D0ED000A20EE200AB5EEC00A0E
:10200000F1EE10FA02D201200E490870BDEC048BEB
:1020100010BD0000060A0020CA0A0020210100208D
:1020200000401C46AC09002050010020580100204F
:102030005C01002000401CC65401002068120020F2
:10204000380100200E010020B4090020B009002052
:10205000F049020034010020000048C3000048435A
:1020600010B52DED088BFE480068FE490968401A3E
:1020700040F2DC51884205D90020FB490870FB4939
:10208000086052E0F6480068F6490968401A12D024
:10209000F748008878280EDDF648006858B9F348FC
:1020A000006840B9C820F44908600120F14908607F
:1020B000EE49086039E0EA480068EA490968401AD0
:1020C0001AD0EB480088782816DDEA480068012815
:1020D00012D1E648006878B9FEF7DAF8962190FB4D
:1020E000F1F201FB1200E44908600020E1490860B8
:1020F0000120DE49086018E0D9480068D94909681C
:10210000401A40F6C411B0FBF1F201FB120060B9B5
:10211000D7480088782808DAFEF7BAF8962190FBAD
:10212000F1F201FB1200D449086001F081FB05289F
:102130007ED1D24800680028FAD1D1480068012831
:102140006DD10024641C002C65DB0A2C63DCCD48B7
:10215000006805F0DDFF41EC1A0BCB4890ED101B39
:10216000B0EE410AF0EE610A53EC102B51EC1A0B61
:1021700005F0E4FE41EC190BB0EE490AF0EE690AF5
:1021800004F06EFDB0EE408AF0EE608A9FEDBF0B6A
:1021900053EC102B51EC180B05F054FD08D2B94844
:1021A00090ED000A80ED000A0120BA49086032E093
:1021B000B448006805F0ACFF41EC1B0BB24890ED51
:1021C000101BB0EE410AF0EE610A53EC102B51ECFB
:1021D0001B0B05F0B3FE41EC1A0B9FEDAF0B53EC5C
:1021E000102B05F06BFD41EC190BA74890ED101B6F
:1021F000B0EE410AF0EE610A53EC102B51EC190BD2
:1022000005F076FA41EC180B05F040FA9D4908609C
:102210000120A049086000209949086000BFA0483B
:102220000078012884D19B480068012873D100E020
:1022300074E29C48008801282FD104F089FE9A4856
:10224000007810B1012827D112E09849B1F90000B7
:10225000002801DB014600E0414200EE101AB8EE12
:10226000C00A884981ED000A00208E49088013E0E9
:102270008E49B1F90000002801DB014600E041422F
:10228000494200EE101AB8EEC00A7E4981ED000AFC
:1022900000208449088000BF00BF75480088782866
:1022A00075DB83480068012871D18248006841F2DB
:1022B000883188423CD280480068522803D07E484A
:1022C00000684C2815D173480068012811D1764860
:1022D000007810B1012808D103E002207749086096
:1022E00003E001207549086000BF00BF002071496C
:1022F000086073480068522803D0714800684C2871
:1023000016D164480068012812D16748007818B1D6
:10231000012809D104E071E101206849086003E067
:1023200002206649086000BF00BF002061490860C4
:102330006048006841F28831884201D9012000E0FC
:1023400000205C490968B1F57A5F01D2012100E003
:1023500000210840D8B158480068522802D1022014
:1023600056490860544800684C2802D1012053495E
:10237000086053480068522802D101204F49086084
:102380004F4800684C2802D102204C490860384868
:10239000008878285FDA4B48006864283BD84648B4
:1023A0000068522803D0444800684C2815D13948A9
:1023B0000068012811D13C48007810B1012808D1EB
:1023C00003E002203D49086003E001203B4908602A
:1023D00000BF00BF00203749086039480068522814
:1023E00003D0374800684C2815D12A4800680128D6
:1023F00011D12D48007810B1012808D103E0012047
:102400002E49086003E002202C49086000BF00BF8D
:102410000020284908602B48006864281BD92648FA
:102420000068522802D1022024490860224800682E
:102430004C2802D101202149086021480068522817
:1024400002D101201D4908601D4800684C2802D1B6
:1024500002201A4908600B48006805F059FE33E075
:10246000F8090020140A0020030A0020100B0020A5
:10247000220B00200C0B0020080B00208C0A0020EF
:10248000F80A0020AC0900206812002000000000BB
:1024900000007940E80A00207B14AE47E17A743FDF
:1024A000060A0020CA0A002021010020EE0A0020AE
:1024B000880A0020640A002050000020FC0A002046
:1024C00054000020680A002041EC1A0BFE4890EDF1
:1024D000101BB0EE410AF0EE610A53EC102B51ECE8
:1024E0001A0B05F02BFD41EC190BB0EE490AF0EE8A
:1024F000690A04F0B5FBB0EE408AF0EE608A9FED09
:10250000F30B53EC102B51EC180B05F09BFB75D221
:10251000F0480088782842DBEF48006841F28831B3
:1025200088423CD2ED48006858B904F011FDEC48EF
:10253000B0F9000000EE100AB8EEC00AE94880EDDC
:10254000000AE6480068012829D104F001FDE648A8
:10255000007810B1012821D10FE0E149B1F9000064
:10256000002801DB014600E0414200EE101AB8EEFF
:10257000C00ADC4981ED000A10E0D949B1F9000038
:10258000002801DB014600E04142494200EE101AFA
:10259000B8EEC00AD34981ED000A00BF00BFCD48A4
:1025A000008878283DDAD148006801280BD104F072
:1025B000CFFCCB48B0F9000000EE100AB8EEC00A1C
:1025C000C84880ED000AC9480068B8B904F0C0FCEA
:1025D000C548007810B1012822D110E0C049B1F9F6
:1025E0000000002801DB014600E0414200EE101A25
:1025F000B8EEC00ABB4981ED000A11E011E0B8490C
:10260000B1F90000002801DB014600E041424942E7
:1026100000EE101AB8EEC00AB24981ED000A00BF00
:1026200000BFB3480078002878D1B24890ED000A86
:10263000B14880ED000AAB48006805F069FD41EC47
:10264000180BA14890ED101BB0EE410AF0EE610AA4
:1026500053EC102B51EC180B05F0F4FA5FD2A148A3
:10266000006805F055FD41EC1A0B974890ED101BE2
:10267000B0EE410AF0EE610A53EC102B51EC1A0B4C
:1026800005F05CFC41EC190BB0EE490AF0EE690A6A
:1026900004F0E6FAB0EE408AF0EE608A9FED970B08
:1026A00053EC102B51EC180B05F006FC28D289488E
:1026B0000088782812DB8848006841F28831884217
:1026C0000CD890480068904909680844404200EEE0
:1026D000100AB8EEC00A874880ED000A7D480088DD
:1026E00078280CDA8748006887490968084440421E
:1026F00000EE100AB8EEC00A7E4880ED000A7DE0C8
:1027000080480068804909680844404200EE100A89
:10271000B8EEC00A774880ED000A6FE089E17148A1
:10272000006805F0F5FC41EC180B674890ED101BB4
:10273000B0EE410AF0EE610A53EC102B51EC180B8D
:1027400005F0BAFB5AD26748006805F0E1FC41EC9D
:102750001A0B5D4890ED101BB0EE410AF0EE610AD5
:1027600053EC102B51EC1A0B05F0E8FB41EC190B64
:10277000B0EE490AF0EE690A04F072FAB0EE408A4F
:10278000F0EE608A9FED5D0B53EC102B51EC180BB3
:1027900005F092FB26D24F480088782811DB4E487E
:1027A000006841F2883188420BD856480068564983
:1027B0000968084400EE100AB8EEC00A4D4880EDE2
:1027C000000A44480088782818DA4E4800684E49C4
:1027D0000968084400EE100AB8EEC00A454880EDCA
:1027E000000A0BE04748006847490968084400EEC2
:1027F000100AB8EEC00A3F4880ED000A3D4890ED4F
:10280000000A3D48D0ED000A30EE600A10EE101AC2
:10281000084605F07DFC41EC190BB0EE490AF0EEDC
:10282000690A04F01DFAB0EE408AF0EE608A9FED6E
:10283000370B53EC102B51EC180B05F03DFB6FD20E
:102840002D4890ED000A2B48D0ED000A20EE200A1A
:10285000B5EEC00AF1EE10FA62DD274890ED000AED
:102860002C4880ED000A234890ED000A2A4880EDAC
:10287000000A2148006805F04BFC41EC1A0BB0EE51
:102880004A0AF0EE6A0A04F0EBF9B0EE408AF0EE84
:10289000608A1848006805F03BFC41EC1A0BB0EE6A
:1028A0004A0AF0EE6A0A04F0DBF9B0EE409AF0EE64
:1028B000609A53EC182B51EC190B05F0FDFA34D249
:1028C0000120164908702CE068120020000000006A
:1028D00000001440220B0020640A0020F40A0020AB
:1028E000EE0A0020AC09002021010020F80A002097
:1028F0000E010020B4090020B009002000000000F3
:1029000000407F40040B0020080B00200000000066
:1029100000C06240B8090020BC0900200F0100205F
:1029200030E04548816988472CE04448006805F05C
:10293000EFFB41EC1A0BB0EE4A0AF0EE6A0A04F023
:102940008FF9B0EE409AF0EE609A3D48006805F0CD
:10295000DFFB41EC1A0BB0EE4A0AF0EE6A0A04F013
:102960007FF9B0EE408AF0EE608A53EC192B51ECFF
:10297000180B05F067F905D20120324908702E487E
:10298000816988473048007801281FD12A480169A9
:1029900088472E48D0ED000A2D4890ED001A30EE01
:1029A000C11AD0ED000A41EE000A2548C0ED000A28
:1029B000214801698847F7EE000AB4EE600AF1EE9B
:1029C00010FA26D100202049087022E01D48007826
:1029D00001281ED11848016988471C48D0ED000A1B
:1029E0001B4890ED001A30EEC11AD0ED000A41EEFE
:1029F000000A1348C0ED000A0F4801698847F7EE46
:102A0000000AB4EE600AF1EE10FA02D100200D497E
:102A100008700A4890ED000A0948D0ED000A20EE3F
:102A2000200AB5EEC00AF1EE10FA02D201200949DF
:102A30000870BDEC088B10BD70090020B0090020A3
:102A4000B4090020100100200F010020BC09002063
:102A5000B80900200E0100200246002002EA01030E
:102A60000BB1012000E000207047000010B51C48A9
:102A70000068801C1A49086003F0E0FB03F040FC8A
:102A800003F0E4FC03F0AEFE00F02CFC00F02EFAA4
:102A900000F08CFF00F0FEF9FDF708FF02F0D4FB18
:102AA00002F054FAFFF796F9FFF7DAFA00F0FCFEAD
:102AB000FEF742FC01F056FD00F0ECFE09494860CB
:102AC000084640680968401A0649886008468068D8
:102AD0000549884202DD00200449087010BD00004D
:102AE000F80900209A0B002020A10700040A00200A
:102AF00010B50020244908602448C16F8847244845
:102B0000C16F88472348C16F88472348C16F8847F2
:102B10002248C16F88472248C16F88472148C16F4A
:102B200088472148C16F88472048C16F884720489F
:102B3000C16F88471F484FF4C871C26990471D484C
:102B4000816988471C484FF4FA61C26990471B4865
:102B50004FF4FA61C269904717488169884717485E
:102B6000816988479FED160A164880ED000A9FED9F
:102B7000140A154880ED000A144890ED000A124826
:102B800080ED010A10BD0000F809002008020020B5
:102B9000A002002038030020D00300200005002000
:102BA00030060020C806002060070020F80700203B
:102BB0009008002070090020280900204C090020FE
:102BC00000000000C009002094090020000100203E
:102BD00021B1026842F00102026003E0026822F0C3
:102BE0000102026070470000016821F001010160EC
:102BF0000021016041608160C1600161212141616A
:102C00004A49884204D13D21484A103A91608CE0FB
:102C100046491831884205D14FF47461434A103A4D
:102C2000916082E041493031884205D14FF47411FE
:102C30003E4A103A916078E03C494831884205D1DB
:102C40004FF07461394A103A91606EE03749603153
:102C5000884204D13649354A103AD16065E033499B
:102C60007831884204D13349304A103AD1605CE06F
:102C70002E499031884204D12F492C4A103AD16014
:102C800053E02A49A831884205D14FF03D51274AE7
:102C9000103AD16049E02949884204D13D21274AB0
:102CA000083A116041E025491831884205D14FF4B6
:102CB0007461224A083A116037E020493031884275
:102CC00005D14FF474111D4A083A11602DE01B49DB
:102CD0004831884205D14FF07461184A083A1160B2
:102CE00023E016496031884204D11149134A121F6A
:102CF00011601AE011497831884204D10D490F4A18
:102D0000121F116011E00D499031884204D10A4927
:102D10000A4A121F116008E00849A831884204D10C
:102D20004FF03D51054A121F11607047106002407C
:102D30003D000020400F002000003D2010640240B4
:102D400021B1026842F48022026003E0026822F4AA
:102D500080220260704722B1036843F400230360BD
:102D600003E0036823F40023036001617047014618
:102D7000486880B27047014600200A6802F40022C9
:102D80000AB1012000E000207047000010B50022C9
:102D90000268134B1A40CC680B6823434C692343E9
:102DA0008C692343CC6923430C6A23434C6A234335
:102DB0008C6A23434C6B23438C6B23431A4302607E
:102DC000426922F00702D1E90B3423431A434261DE
:102DD0000B6943604B6883608B68C36010BD000063
:102DE0003F801CF00021016041608160C160016191
:102DF00041618161C161016241628162C1620163BD
:102E0000416381637047704770B50446D4E900019F
:102E100040EA0120218940EA0140217B40EA01602B
:102E200020612069C0F3C7507F3860612069C0F31A
:102E30001600A061002527E05DB9B0EE000AA16A86
:102E400060698847F7EE000A20EE200A84ED080A40
:102E500019E0691E4FF480020A41A0691040C5F1D3
:102E600017010841E0616269501BB0EE000AA16AD7
:102E70008847D4ED080A94ED071AB8EEC11A41EE5E
:102E8000000AC4ED080A6D1C182DD5DB94ED080A64
:102E900070BD000010B50F48007801280CD10E4914
:102EA0000988484204F0A3FE0C4A03C20A49088874
:102EB00004F0B4FE0A4A03C20648007848B99FED00
:102EC000090B064880ED000B9FED060B044880EDD2
:102ED000000B10BD190A00204A0A00203803002008
:102EE000D0030020000000000000000010B52DED10
:102EF0000C8BD74890ED000AB5EEC00AF1EE10FA3F
:102F000004D89FEDD40A80ED000A0DE0D04890ED82
:102F1000000ADFEDD10AB4EEE00AF1EE10FA03DBAD
:102F20009FEDCD0A80ED000A00F082FC052805D156
:102F3000CA480078012801D1C949086000F078FC2E
:102F4000052805D1C548007810B90220C449086099
:102F500000F06EFC04287CD1C248006805F0D8F867
:102F600041EC1B0BB0EE4B0AF0EE6B0A03F078FE5F
:102F7000B0EE409AF0EE609ABA48006805F0C8F8E2
:102F800041EC1A0B53EC192B04F06EFC41EC180BBE
:102F900004F07CFBB4490860B248006805F0B8F85A
:102FA000B24A03C2B24890ED100BB04880ED020B5C
:102FB00090ED022BB0EE420AF0EE620A90ED002B8B
:102FC000B0EE421AF0EE621A53EC102B51EC110BDA
:102FD00004F0B4FF41EC1D0BB0EE4D0AF0EE6D0AAB
:102FE00003F03EFEB0EE40CAF0EE60CA9FEDA10BCA
:102FF00053EC102B51EC1C0B04F060FE41EC1B0B4E
:10300000B0EE4B0AF0EE6B0A03F07EFCB0EE40AA85
:10301000F0EE60AA9FED990B53EC102B51EC1A0BBC
:1030200004F080FF41EC190B9FED960B53EC102B35
:1030300004F044FE41EC180B9FED940B53EC102B65
:1030400004F056FB894AC2E908019FED920B104635
:1030500000E036E080ED0A0B9FED900B80ED0C0B4D
:103060009FED900B914880ED080B9FED910B80ED4B
:103070000A0B9FED910B80ED0C0B1046816F88477A
:103080007B4890ED101BB0EE410AF0EE610A9FED17
:10309000831B53EC112B51EC100B04F00FFE41EC91
:1030A000180B724890ED1A1BB0EE410AF0EE610A5F
:1030B00053EC102B51EC180B04F034FF6B4AC2E9AF
:1030C0001A0100F0B5FB78B100F0B2FB01280BD07B
:1030D00000F0AEFB062807D000F0AAFB082803D0BA
:1030E0005F48006802286CD19FED750B5F4880ED4A
:1030F000080B9FED750B80ED0A0B9FED6F0B80EDBC
:103100000C0B9FED730B694880ED080B9FED680B6E
:1031100080ED0A0B9FED660B80ED0C0B00F088FB39
:1031200018B100F085FB072822D19FED610B4F48B5
:1031300080ED000B68480169884710EE104A204670
:1031400004F0E6FF41EC180B494890ED101BB0EE7F
:10315000410AF0EE610A53EC102B51EC180B04F00D
:10316000ADFD424AC2E902011046816F884728E05E
:10317000374890ED000AB1EE400A10EE101A0846EA
:1031800004F0C6FF394A03C253480169884710EE6C
:10319000104A204604F0BCFF41EC180B344890ED77
:1031A000101BB0EE410AF0EE610A53EC102B51EC0B
:1031B000180B04F083FD2D4AC2E902011046816F0D
:1031C00088472A4890ED1A0B384880ED000B2849B3
:1031D000886B04F00CFD41EC180B9FED400B53EC99
:1031E000102B04F06BFD314AC2E902011046816FD9
:1031F00088472E4890ED1A1BB0EE410AF0EE610AA6
:1032000003F02EFDB0EE409AF0EE609A274890ED64
:103210001A1BB0EE410AF0EE610A53EC192B51EC87
:10322000100B04F021FB41EC180B204890ED1A1B09
:10323000B0EE410AF0EE610A53EC102B51EC180B82
:1032400004F056FA194AC2E91A01BDEC0C8B10BD04
:10325000940900200000000000002042020A002023
:10326000E80900203C000020E009002000050020C3
:10327000201400209A9999999999B9BF00000000EB
:103280000000F03F0000000000003E400000000091
:1032900000004E40FCA9F1D24D62503F00000000FA
:1032A00000001840000000000000444030060020EC
:1032B00000000000000000000000000000000040CE
:1032C00000000000000054407B14AE47E17A843FC8
:1032D0000000000000003440280900209A999999C4
:1032E0009999B93F10B52DED0C8B00F0A1FA042887
:1032F00003D0DF48006801287CD1DE4890ED000A49
:10330000DD48D0ED000A30EE600ADC4880ED000AAE
:10331000D7480068DA4908600020D5490860D648D7
:10332000006804F0F5FE41EC1B0BB0EE4B0AF0EE2A
:103330006B0A03F095FCB0EE409AF0EE609ACE482E
:10334000006804F0E5FE41EC1A0B53EC192B04F075
:103350008BFA41EC180B04F099F9CA490860C64889
:1033600090ED000AB1EE400A10EE100A04F0D0FE13
:10337000C54A03C2C54890ED000AB1EE400A10EEFE
:10338000100A04F0C5FEC04AC2E90201104690EDE1
:10339000022BB0EE420AF0EE620A90ED002BB0EE86
:1033A000421AF0EE621A53EC102B51EC110B04F0A0
:1033B000C5FD41EC1D0BB0EE4D0AF0EE6D0A03F0B9
:1033C0004FFCB0EE40CAF0EE60CA9FEDB10B53EC7B
:1033D000102B51EC1C0B04F071FC41EC1B0BB0EEFC
:1033E0004B0AF0EE6B0A03F08FFAB0EE40AAF0EE53
:1033F00060AA00E073E09FEDA80B53EC102B51EC9A
:103400001A0B04F08FFD41EC190B9FEDA50B53EC4B
:10341000102B04F053FC41EC180B9FEDA30B53EC65
:10342000102B04F065F9984AC2E90801104690EDA6
:10343000022BB0EE420AF0EE620A90ED002BB0EEE5
:10344000421AF0EE621A53EC102B51EC110B04F0FF
:1034500075FD41EC1B0BB0EE4B0AF0EE6B0A03F06E
:10346000FFFBB0EE40AAF0EE60AA9FED890B53EC93
:10347000102B51EC1A0B04F021FC41EC180BB0EEB0
:10348000480AF0EE680A03F03FFAB0EE409AF0EE18
:10349000609A9FED870B53EC102B51EC190B04F045
:1034A0000DFC794AC2E90A019FED830B104680EDBD
:1034B0000C0B9FED830B844880ED080B9FED830B75
:1034C00080ED0A0B9FED830B80ED0C0B1046816F96
:1034D0008847694890ED000A664880ED000A00F0D0
:1034E000A7F918B100F0A4F9072827D19FED7B0BAD
:1034F000654880ED080B9FED7B0B80ED0A0B9FED7F
:103500006E0B80ED0C0B9FED790B6F4880ED080B77
:103510009FED780B80ED0A0B9FED6E0B80ED0C0B91
:10352000764890ED100B584880ED000B734890EDF5
:10353000100B554880ED020B816F884700F078F939
:10354000062831D19FED650B4F4880ED080B9FEDAC
:10355000580B80ED0A0B9FED580B80ED0C0B9FED87
:10356000680B594880ED080B9FED620B80ED0A0B4C
:103570009FED580B80ED0C0B634890ED010A10EEA7
:10358000101A084604F0C4FD3F4A03C25B4890EDA0
:10359000100B3D4880ED020B5C48007800F00700FE
:1035A00010B13948816F884700F042F9012807D0EF
:1035B00000F03EF9082803D02D480068022832D1D7
:1035C0002B4800682E4908600020294908609FEDBB
:1035D000430B2D4880ED080B9FED350B80ED0A0B5A
:1035E0009FED440B80ED0C0B9FED490B364880EDB1
:1035F000080B9FED400B80ED0A0B9FED360B80ED25
:103600000C0B414890ED010A10EE101A084604F028
:103610007FFD1D4A03C2394890ED100B1A4880ED1A
:10362000020B816F8847184890ED1A1BB0EE410AD3
:10363000F0EE610A9FED381B53EC112B51EC100B8F
:1036400004F03CFB204A03C23548B0F90400404274
:10365000052190FBF1F4204604F0C9FA1A4AC2E9A8
:1036600002011046816F8847BDEC0C8B10BD000035
:10367000E80900204000002044000020C809002084
:10368000EC090020D8090020C8060020C400002052
:10369000333333333333D3BF000000000000F03F37
:1036A0000000000000004E4000000000008051407B
:1036B0007B14AE47E17A743F000000000000144024
:1036C000000000000040504060070020FCA9F1D23B
:1036D0004D62503F0000000000000040000000006C
:1036E000000059407B14AE47E17A843F000000009F
:1036F000000024400000000000000000C81300206B
:10370000000000000000394094090020F809002062
:103710000000000000003E40333333333333D33FE7
:10372000C8000020F0B50A4600210023002400BF95
:103730003DE0012505FA01F3156805EA03049C4202
:1037400034D105684F000326BE40B54305601579A6
:103750004E00B5400668354305601579012D02D04D
:103760001579022D16D185684F000326BE40B5435A
:10377000856055794E00B54086683543856045685B
:1037800001268E40B5434560456896798E40B6B2B5
:1037900035434560C5684F000326BE40B543C5604C
:1037A000D5794E00B540C6683543C560491C10291F
:1037B000BFD3F0BDF0B5002300244D07ED0E02FA93
:1037C00005F3CE1000F1200555F826504E07F70EF0
:1037D0000F26BE40B543CF1000F1200646F8275013
:1037E000CE1000F1200555F8265045EA0304CE100E
:1037F00000F1200545F82640F0BD018370474FF6E3
:10380000FF7101600021017141718171C1717047C7
:103810000A7BCB7A42EA0322426142690260426932
:103820008260704701480078704700006C0B0020F0
:103830000148007870470000010A002030B50346B7
:1038400013B94FF6FF7030BD09E013F8014B82EA5F
:103850000400C0B2054D35F8100080EA22220800AD
:10386000A1F10101F1D11046EDE700002684000826
:1038700030B5034605E013F8010B80EA0204044862
:10388000025D0800A1F10101F5D1104630BD000034
:10389000258300084FF08040406A70470148007857
:1038A00070470000000A002010B5FFF7C1FF012893
:1038B0000BD0FFF7BDFF052807D0FFF7B9FF04289D
:1038C00003D0FFF7B5FF082852D12A480078012815
:1038D00023D1002028490870284908709FED280A44
:1038E000284880ED000A90ED000AB5EEC00AF1EE1E
:1038F00010FA06D89FED220A80ED000A02201D4929
:103900000870214890ED000A1E48D0ED000A20EE14
:10391000200A1E4880ED000A2AE016480078022896
:1039200020D1B7EE000A174880ED000A90ED000A9A
:10393000F7EE000AB4EEE00AF1EE10FA06DBB7EE9D
:10394000000A80ED000A00200A490870104890ED36
:10395000000A0C48D0ED000A20EE200A0B4880ED4A
:10396000000A05E00A4890ED000A084880ED000AC8
:1039700010BD00000E0100200F01002010010020EA
:1039800000000000A4090020B0090020C0090020A8
:10399000B409002003490988014409B2014A118091
:1039A000704700005C0A002000BFFEE70248007874
:1039B0000249087070470000520A0020580A00208F
:1039C00010B50446FFF766FF7849086004B910BDDA
:1039D000207C617C00EB012000B200EE100AB8EE02
:1039E000C00ABDEEC00A10EE100A00B2704908808D
:1039F000A07CE17C00EB012000B200EE100AB8EEE2
:103A0000C00ABDEEC00A10EE100A00B26849488034
:103A1000207D617D00EB012000B200EE100AB8EEBF
:103A2000C00ABDEEC00A10EE100A00B260498880DC
:103A3000E07D217E00EB012000B200EE100AB8EE1E
:103A4000C00ADFED5C0A80EE201A5B4880ED001AA8
:103A5000607EA17E00EB012000B200EE100AB8EEFD
:103A6000C00AB1EE400ADFED530A80EE201A524838
:103A700080ED011AE07E217F00EB012000B200EE14
:103A8000100AB8EEC00AF2EE040A80EE201A4B4883
:103A900080ED001A4A4890ED000A4A4880ED000A7D
:103AA000454890ED010A464880ED000A464890EDF1
:103AB000000A464880ED000A404890ED000A42485E
:103AC00080ED000A90ED000A4048D0ED000A30EE8B
:103AD000600ADFED3F0AB4EEE00AF1EE10FA04DD11
:103AE0003C480068401E3B490860374890ED000A9A
:103AF0003648D0ED000A30EE600ADFED370AB4EE4A
:103B0000E00AF1EE10FA04D232480068401C314954
:103B10000860304800684FF4B471484300EE100A62
:103B2000B8EEC00A2848D0ED000A30EE200A22483C
:103B300080ED020A224890ED000A2248D0ED000AEA
:103B400030EE600ADFED220AB4EEE00AF1EE10FA80
:103B500004DD22480068401E20490860184890EDA6
:103B6000000A1848D0ED000A30EE600ADFED1A0AAC
:103B7000B4EEE00AF1EE10FA04D218480068401CD6
:103B800016490860154800684FF4B471484300EEC8
:103B9000100AB8EEC00A0A48D0ED000A30EE200A3A
:103BA000054880ED010A00BF11E70000B40B0020BA
:103BB000C80000200000C84264100020C40000209B
:103BC000E8000020E4000020E0000020DC000020ED
:103BD00000009643D4000020000096C3D8000020C7
:103BE00000BFFEE72DE9F0412DED088B04460D46A0
:103BF0000026002720686060287BE97A40EA0120DF
:103C0000206020686168401AE060E06810F5805F1D
:103C100007DA606B401C6063E06800F50050A0614B
:103C20000DE0E068B0F5805F07DD606B401E60630B
:103C3000E068A0F50050A06101E0E068A061A26921
:103C4000207C411C217404F11C0141F820202168D2
:103C5000606B01EB4030A060616B4FF4B47201FB0C
:103C600002F003F0C4FF9FED1C0B53EC102B03F08C
:103C7000FBFD41EC180B21686269881A03F0B7FF5D
:103C80009FED170B53EC102B04F018F89FED160B5B
:103C900053EC102B03F0E8FD53EC182B03F028FD38
:103CA00041EC100B84ED100B207C062801D1002084
:103CB0002074002605E004F11C0050F8260007449B
:103CC000761C062EF7DB062097FBF0F0A063BDEC18
:103CD000088BBDE8F08100000000000000004240B9
:103CE0000000000000002440000000000000C04070
:103CF0002DE9F0412DED0A8B04460D4600260027E4
:103D0000B046002008EE100A20686060287BE97A3F
:103D100040EA0120206020686168401AE060E068A5
:103D200010F5805F07DA606B401C6063E06800F5A7
:103D30000050A0610DE0E068B0F5805F07DD606BCA
:103D4000401E6063E068A0F50050A06101E0E068FB
:103D5000A061A269207C411C217404F11C0141F87E
:103D600020202168606B01EB4030A060616B4FF454
:103D7000B47201FB02F003F03AFF9FED2A0B53EC03
:103D8000102B03F071FD41EC190B21686269881A50
:103D900003F02DFF9FED250B53EC102B03F08EFF4E
:103DA0009FED240B53EC102B03F05EFD53EC192B0D
:103DB00003F09EFC41EC100B84ED100B207C0628D8
:103DC00001D100202074002605E004F11C0050F809
:103DD00026000744761C062EF7DBA97B687B41EAA8
:103DE00000200FFA80F8404603F001FF41EC1A0B67
:103DF0009FED0C0B53EC102B03F036FD41EC190B2F
:103E000003F0C6FEA063297CE87B41EA002000B2F3
:103E100008EE100AB8EEC80A84ED140ABDEC0A8B4D
:103E2000BDE8F081000000000000334028AFA1BCD5
:103E300086F23240000000000000C0402DE9F0474B
:103E40002DED088B04460D460026B14600BF00BF8D
:103E500020686060287BE97A40EA012020602068C1
:103E60006168401AE060E06810F5805F07DA606B17
:103E7000401C6063E06800F50050A0610DE0E06860
:103E8000B0F5805F07DD606B401E6063E068A0F501
:103E90000050A06101E0E068A061A269207C411CA3
:103EA000217404F11C0141F820202168606B01EBB2
:103EB0004030A060616B4FF4B47201FB02F003F07C
:103EC00096FE41EC180B21686269881A03F08FFE98
:103ED0009FED290B53EC102B03F0F0FE9FED280B08
:103EE00053EC102B03F0C0FC53EC182B03F000FC38
:103EF00041EC100B84ED100B21686269881A03F005
:103F000076FE9FED1D0B53EC102B03F0D7FE9FEDBB
:103F10001C0B53EC102B03F0A7FC41EC100B84EDB1
:103F2000120B207C062801D100202074002605E019
:103F300004F11C0050F826008144761C062EF7DBA5
:103F4000A97B687B41EA00284FF4B47018FB00F0AD
:103F50003C2190FBF1F0A063297CE87B41EA002042
:103F600007B200EE107AB8EEC00A84ED140ABDEC78
:103F7000088BBDE8F087000000000000008076405C
:103F8000000000000000C0407047000070B5002134
:103F900000230F22C4781CB3174C246804F4E06497
:103FA000C4F5E064C4F30721C1F10404E3B20A419B
:103FB00044789C40E1B28478144021430C07210EE0
:103FC0000E4C05786155047804F01F050124AC40BF
:103FD00005786D11AD0005F1E025C5F8004109E057
:103FE000047804F01F050124AC40054D06787611D5
:103FF00045F8264070BD00000CED00E000E400E054
:1040000080E100E002490143024A1160704700006C
:104010000000FA050CED00E010B52DED028B044612
:1040200094ED022BB0EE420AF0EE620A94ED002B02
:10403000B0EE421AF0EE621A53EC102B51EC110B59
:1040400003F07CFFC4E9040194ED222BB0EE420A98
:10405000F0EE620A94ED042BB0EE421AF0EE621A12
:1040600053EC102B51EC110B03F026FF16D994EDF5
:10407000221BB0EE410AF0EE610A51EC100B03F086
:10408000F9FA41EC180B94ED041BB0EE410AF0EE86
:10409000610A53EC102B03F00FFF7DD294ED042B3B
:1040A000B0EE420AF0EE620A94ED082BB0EE421A2E
:1040B000F0EE621A53EC102B51EC110B03F0FEFDE5
:1040C000C4E90E0194ED141BB0EE410AF0EE610A52
:1040D00051EC100B03F0CEFA41EC180B94ED0E1BD3
:1040E000B0EE410AF0EE610A53EC102B03F0E4FE4F
:1040F0000CD894ED141BB0EE410AF0EE610A51ECBD
:10410000100B03F0B7FAC4E90E0116E094ED142B7E
:10411000B0EE420AF0EE620A94ED0E2BB0EE421AB7
:10412000F0EE621A53EC102B51EC110B03F0C4FEAD
:1041300003D894ED140B84ED0E0B94ED042BB0EE2C
:10414000420AF0EE620A94ED0A2BB0EE421AF0EE4B
:10415000621A53EC102B51EC110B03F0AFFD41EC44
:10416000180B94ED101BB0EE410AF0EE610A53EC0F
:10417000102B03F0BDFAC4E9100194ED161BB0EE4C
:10418000410AF0EE610A51EC100B03F073FA41ECB6
:10419000180B94ED101B00E0D5E0B0EE410AF0EEF4
:1041A000610A53EC102B03F087FE0CD894ED161B1C
:1041B000B0EE410AF0EE610A51EC100B03F05AFA2E
:1041C000C4E9100116E094ED162BB0EE420AF0EEB1
:1041D000620A94ED102BB0EE421AF0EE621A53EC24
:1041E000102B51EC110B03F067FE03D894ED160B66
:1041F00084ED100B94ED241BB0EE410AF0EE610A41
:104200009FED741B53EC112B51EC100B03F084FC4D
:104210001ED194ED062BB0EE420AF0EE620A94ED48
:10422000042BB0EE421AF0EE621A53EC102B51EC54
:10423000110B03F043FD41EC180B9FED680B53ECA1
:10424000102B03F0FFFC03D29FED640B84ED100BE9
:1042500094ED062BB0EE420AF0EE620A94ED042BC8
:10426000B0EE421AF0EE621A53EC102B51EC110B27
:1042700003F064FE41EC180B94ED0C1BB0EE410A08
:10428000F0EE610A53EC102B03F018FDC4E91201A3
:1042900094ED181BB0EE410AF0EE610A51EC100BE0
:1042A00003F0E8F941EC180B94ED121BB0EE410A53
:1042B000F0EE610A53EC102B03F0FEFD0CD894EDE8
:1042C000181BB0EE410AF0EE610A51EC100B03F03E
:1042D000D1F9C4E9120116E094ED182BB0EE420AB0
:1042E000F0EE620A94ED122BB0EE421AF0EE621A72
:1042F00053EC102B51EC110B03F0DEFD03D894EDC1
:10430000180B84ED120B94ED102BB0EE420AF0EE78
:10431000620A94ED0E2BB0EE421AF0EE621A53ECE4
:10432000102B51EC110B03F0E3F941EC180B94ED59
:10433000121BB0EE410AF0EE610A53EC102B03F0B1
:10434000D7F9C4E9200194ED200B84ED1A0B94ED0C
:104350001C1BB0EE410AF0EE610A51EC100B03F0A9
:1043600089F941EC180B94ED1A1BB0EE410AF0EEFE
:10437000610A53EC102B03F09FFD0CD894ED1C1B2D
:10438000B0EE410AF0EE610A51EC100B03F072F945
:10439000C4E91A0116E094ED1C2BB0EE420AF0EECF
:1043A000620A94ED1A2BB0EE421AF0EE621A53EC48
:1043B000102B51EC110B03F07FFD03D894ED1C0B77
:1043C00084ED1A0B94ED040B84ED060BBDEC028B0F
:1043D00010BD0000000000000000F03F00000000E1
:1043E000000000009FED120B80ED000B9FED100B05
:1043F00080ED020B9FED0E0B80ED040B9FED0C0B7F
:1044000080ED060B9FED0A0B80ED0E0B9FED080B68
:1044100080ED100B9FED060B80ED120B9FED040B52
:1044200080ED200B9FED020B80ED1A0B7047000012
:1044300000000000000000002DE9F0412DED048B8C
:104440000546C5F3C750A0F17F07C5F31608002441
:1044500035E07CB938469FED1E0B02F00DFCB0EE46
:10446000409AF0EE609A51EC190B03F00FF908EE48
:10447000100A23E0601E4FF4800141FA00F000EAC8
:104480000800C4F1170140FA01F6381B9FED100B2C
:1044900002F0F2FBB0EE409AF0EE609A51EC190B8C
:1044A00003F0F4F800EE900A00EE106AB8EEC01ABD
:1044B000B0EE480A01EE200AB0EE408A641C182CC7
:1044C000C7DBB0EE480ABDEC048BBDE8F08100000C
:1044D000000000000000F03F7047000000B587B00A
:1044E0000121080200F0D0F80121042000F0CCF8EE
:1044F0002020019000208DF808008DF80A0001208E
:104500008DF80B0003208DF8090001A91348FFF76F
:1045100009F98020059000208DF818008DF81A0008
:1045200001208DF81B0003208DF8190005A90C4807
:10453000FFF7F8F84020039000208DF810008DF868
:10454000120001208DF8130003208DF8110003A93B
:104550000348FFF7E7F807B000BD0000000802407D
:104560000020024010B53B4800683B4908703B48BA
:10457000007801280AD10846007838B90120384966
:10458000087000203749086002F0FEFE34480078C9
:1045900001280CD13449088000203449087034497E
:1045A000486308602E4908700120324908602A4893
:1045B000007878B92B480068401C2A4908600846F2
:1045C0000068B0F5FA7F05DD002028490870012059
:1045D0002549088020480078204908701D48001FA0
:1045E0000068254908702548007801280AD1084646
:1045F000007838B90120224908700020214908605C
:1046000002F0C2FE1E48007801280CD1164908802D
:104610001649087000201649486308601849087058
:104620000120144908601448007870B915480068E2
:10463000401C1449086008460068B0F5FA7F04DDA4
:1046400001200A490870084908800B4800780B4986
:10465000087010BD1C024442C50A0020C40A002094
:10466000D00A0020D40A0020CA0A0020210100201C
:1046700068120020E80A0020C90A0020C80A0020A9
:10468000D20A0020D80A002029B1064A1268024343
:10469000044B1A6004E0034A12688243014B1A601B
:1046A000704700003038024029B1064A12680243C0
:1046B000044B1A6004E0034A12688243014B1A60FB
:1046C000704700004038024029B1064A1268024390
:1046D000044B1A6004E0034A12688243014B1A60DB
:1046E000704700002038024029B1064A1268024390
:1046F000044B1A6004E0034A12688243014B1A60BB
:10470000704700004438024029B1064A126802434B
:10471000044B1A6004E0034A12688243014B1A609A
:104720007047000024380240F0B500210022002428
:10473000022500260223324F3F6807F00C0121B109
:10474000042905D0082937D105E02E4F076036E04F
:104750002D4F076033E02A4F3F1F3F68C7F3805655
:10476000274F3F1F3F6807F03F036EB1264FB7FB4F
:10477000F3F7DFF88CC0ACF1040CDCF800C0CCF32C
:10478000881C07FB0CF40CE01E4FB7FBF3F7DFF8B7
:1047900070C0ACF1040CDCF800C0CCF3881C07FB43
:1047A0000CF4174F3F1F3F68C7F301477F1C7D0084
:1047B000B4FBF5F7076002E0124F076000BF00BFCF
:1047C0000F4F3F6807F0F0010909104F7A5C076846
:1047D000D74047600A4F3F6807F4E051890A0B4F02
:1047E0007A5C4768D7408760054F3F6807F46041AF
:1047F000490B064F7A5C4768D740C760F0BD0000A0
:10480000083802400024F400001BB7006D0B0020A4
:10481000D0E90012914211DA0168491C016090ED63
:10482000000AF8EEC00A90ED010AB8EEC00A80EE68
:10483000801A80ED021A90ED020A7047B7EE000A66
:10484000FBE77047014691ED000AF8EEC00A91EDD2
:10485000010AB8EEC01A80EE810AF7EE000AB4EE43
:10486000E00AF1EE10FA01DB012070470020FCE7BE
:10487000002101607047016070474160704700008F
:1048800010B52DED088B044614B9BDEC088B10BD96
:10489000FFF700F8F14908602078617840EA0120CC
:1048A000C0F30A00EE4908806078C010A17840EAA1
:1048B0004110C0F30A00EA494880A0788011E178ED
:1048C00040EA8100217940EA8120C0F30A00E449EE
:1048D000888020794010617940EAC110C0F30A0055
:1048E000DF49C88060790011800808726079C0F3E0
:1048F00001104872A079E17940EA012000B2D8495C
:104900004881207A617A40EA012001B2D44881814D
:10491000A07AE17A40EA012001B2D148C181217B2D
:104920008174617BC174A07BE17B40EA0120CC49AA
:1049300088820846B0F90200A0F5806000EE100AF7
:10494000B8EEC00AC74880ED000AB1F90610A1F51B
:10495000806003F04CF941EC1B0B9FEDC30B53EC53
:10496000102B03F0ABF941EC190BC14890ED000A94
:1049700010EE101A084603F0CBFB41EC1A0B53EC77
:10498000192B02F0B5FE41EC180B02F07FFEB8497E
:104990000860B349B1F90410A1F5806003F027F96C
:1049A00041EC1B0B9FEDB30B53EC102B03F086F97E
:1049B00041EC190BAE4890ED010A10EE101A0846B2
:1049C00003F0A6FB41EC1A0B53EC192B02F090FEFE
:1049D00041EC180B02F05AFEA5494860A048B0F916
:1049E0000000A0F58060002803DD0120A3490860D5
:1049F0000AE09B48B0F90000A0F58060002803D5CC
:104A00004FF0FF309D4908609C480068012817D18D
:104A10009348B0F90000A0F58060002810DC002069
:104A2000964908609FED960B53EC102B964890ED3D
:104A3000000B51EC100B02F05BFE934A03C21AE02C
:104A40008E480068401CB0B98548B0F90000A0F558
:104A5000806000280FD40020884908609FED880BF3
:104A600053EC102B884890ED000B51EC100B03F029
:104A700065FA854A03C27A4800F0BAFA7848407A63
:104A8000012802D10220814908707548407A032824
:104A900002D102207D4908707148407A022802D173
:104AA00000207A490870FEF7BDFE012823D16C482A
:104AB000007A032803D06A48007A012802D1012035
:104AC000734908706648007A022802D100207049B4
:104AD00008706348007A012801D16E490870604867
:104AE000007A022803D05E48007A032802D1002011
:104AF00068490870B0E0FEF795FE0328FAD101205E
:104B000063490870634908705548007D00F0010052
:104B100020B95348007D00F00200E0B35048007D0A
:104B200000F00100C0B1524890ED010ADFED5A0AD1
:104B300030EE200A80ED010A90ED000A4848B0F9F5
:104B40000C0000EE900AF8EEE00A9FED541A00EE19
:104B5000810A474880ED000A4148007D00F00200CC
:104B6000D8B3434890ED010A3D48B0F90A0000EE81
:104B7000900AF8EEE00A9FED491A00EE810A3C48DF
:104B800080ED010A90ED000ADFED430A30EE200AC5
:104B900080ED000A21E0FFE7354890ED010A30483A
:104BA000B0F90A0000EE900AF8EEE00A9FED3B1A19
:104BB00000EE810A2E4880ED010A90ED000A284897
:104BC000B0F90C0000EE900AF8EEE00A9FED331AFF
:104BD00000EE810A264880ED000A2148C07C18B109
:104BE00001202F49087002E000202D4908702C4850
:104BF00000782C4908701A48808A00F4807018B137
:104C000001202949087002E0002027490870264841
:104C1000007888B92548007801280DD1244800780B
:104C200018B901202249087006E0214800780128BF
:104C300002D100201E4908701D480078012802D1C9
:104C400002F084FB04E01A48007808B902F076FB11
:104C5000154800781549087000BF16E69A0B002029
:104C600040150020C0090020FA7E6ABC7493683F9A
:104C700094090020D42B6519E258673F680B002087
:104C8000000000000000E03F600B0020040A00204C
:104C9000190A0020490A002000000000CDCC4C3D3C
:104CA000330B0020340B0020310B0020320B00208E
:104CB000300B002001460C4800680B4A52689042B5
:104CC00001D101207047084802680830805C0870F4
:104CD00005480068401C044A1060642801DB00207D
:104CE00010600020EEE70000F71100200E494A682E
:104CF0000831885408394968491C0B4A51606429B5
:104D000001DB0021516008494968074A1268914255
:104D100008D105490968491C034A1160642901DB6F
:104D20000021116070470000F7110020704700005B
:104D30002DE9F0412DED068B0746764890ED000AEF
:104D4000DFED750A30EE200AF2EE040A20EE200AAA
:104D5000BDEEC00A10EE104A704890ED101BB0EE88
:104D6000410AF0EE610A9FED6E1B53EC112B51ECE2
:104D7000100B02F0BDFC41EC1A0B6B4890ED000BE0
:104D800053EC102B51EC1A0B02F0B2FC41EC190B56
:104D90009FED660B53EC102B02F090FF41EC180BCB
:104DA00002F0F6FE0546634890ED010ADFED620A67
:104DB00030EE200AF2EE040A20EE200ABDEEC00A10
:104DC00010EE106A5D480078012806DB5B48007829
:104DD000092802DC52205A49087058480078652892
:104DE00006DB564800786D2802DC422054490870E2
:104DF0004D20534948704E2088704C20C8704FF4A5
:104E00007A7094FBF0F0303008714FF47A7094FBB4
:104E1000F0F100FB1140642190FBF1F03030484983
:104E20004871642094FBF0F100FB11400A2190FBD3
:104E3000F1F03030424988710A2094FBF0F100FB18
:104E4000114030303E49C8714FF47A7095FBF0F054
:104E5000303008724FF47A7095FBF0F100FB11507E
:104E6000642190FBF1F0303035494872642095FBA5
:104E7000F0F100FB11500A2190FBF1F03030304985
:104E800088720A2095FBF0F100FB115030302C495C
:104E9000C8724FF47A7096FBF0F0303008734FF41C
:104EA0007A7096FBF0F100FB1160642190FBF1F049
:104EB000303023494873642096FBF0F100FB116009
:104EC0000A2190FBF1F030301D4988730A2096FBCF
:104ED000F0F100FB116030301949C8730EE018483A
:104EE000184A1268815C184801F086F91548006874
:104EF000401C14490860962001F0DEFF114800684C
:104F0000B842ECDB00200F490860BDEC068BBDE821
:104F1000F0810000C4000020000034432014002071
:104F20000000000000805640600B002000000000E0
:104F300000002440641000200000B442CE11002084
:104F4000DC0F0020680000200048004070B5FEF72C
:104F50006FFC072806D100231A4619461F4800F0A7
:104F600019F93AE01E4890ED1A1BB0EE410AF0EE36
:104F7000610A51EC100B02F00BFE04B2194890EDDF
:104F80001A1BB0EE410AF0EE610A51EC100B02F070
:104F9000FFFD05B2144890ED1A1BB0EE410AF0EE89
:104FA000610A51EC100B02F0F3FD06B223462A46CB
:104FB00031460A4800F0EEF8094890ED1A1BB0EEB1
:104FC000410AF0EE610A51EC100B02F0E1FD04B26F
:104FD00022460021054800F00BF970BD0064004036
:104FE0009008002030060020600700200068004084
:104FF000417A012902D1074A11700AE0417A032956
:1050000002D1044A117004E0417A022901D1014A17
:10501000117070476C0B00200CB5002001900090BF
:105020004148006840F480303F49086000BF3E4876
:10503000006800F4003000900198401C0190009836
:1050400018B90198B0F5A04FF1D13748006800F4C5
:10505000003010B10120009001E000200090009885
:10506000012860D130484030006840F080502E491F
:10507000403108602D48006840F440402B490860EA
:105080002948083000682849083108600846006847
:1050900040F4004008600846006840F4A0500860F2
:1050A0002348091F0860081F006840F08070091F2E
:1050B000086000BF1C48006800F000700028F9D0AC
:1050C0001A48006840F480301849086000BF17484B
:1050D000406800F480300028F9D01448006840F49B
:1050E00000301249086000BF1048406800F40030EA
:1050F0000028F9D040F205700E4908600A480830CF
:10510000006820F00300084908310860084600687C
:1051100040F00200086000BF03480830006800F05B
:105120000C000828F8D10CBD003802400070004087
:105130000C544007003C02402DE9F04186B0804607
:105140000C4615461E460C9F4FF40070019000203F
:105150008DF80C008DF80D0008208DF80E00300A37
:105160008DF80F008DF81060390A8DF811108DF848
:105170001270210A8DF813108DF81440290A8DF849
:1051800015108DF8165001A94046FCF742F806B0FC
:10519000BDE8F081F0B585B007460C4615461E46C1
:1051A00040F2FF10009000208DF808008DF80900F3
:1051B00008208DF80A00280A8DF80B00E9B28DF856
:1051C0000C10FF218DF80D108DF80E10310A8DF89E
:1051D0000F10F1B28DF81010210A8DF81110E1B204
:1051E0008DF8121069463846FCF713F805B0F0BD8B
:1051F00070B586B006460C46154640F2FF10019089
:1052000000208DF80C008DF80D0008208DF80E00A0
:10521000FF208DF80F00FF218DF81010210A8DF866
:1052200011108DF81240290A8DF813108DF81450C2
:10523000FF218DF815108DF8161001A93046FBF7E7
:10524000E8FF06B070BD000010B52DED028B9FED9C
:10525000320B334880ED080B9FED2F0B80ED0A0BCE
:105260009FED2D0B80ED0C0B9FED2E0B2F4880ED4D
:10527000080B9FED290B80ED0A0B9FED270B80EDAE
:105280000C0B2B480078012816D12A49B1F90010DF
:10529000A1EB0111880002F0AAFC214A03C22648B2
:1052A00090ED100B1E4880ED020B816F88479FED3B
:1052B000230B1E4880ED000B1F4880690A2804DA82
:1052C0009FED200B194880ED000B1B48806910F101
:1052D000050F04DA9FED1D0B144880ED000B1448F8
:1052E000007820B99FED0C0B104880ED000B12499F
:1052F000886B02F07CFC41EC180B9FED160B53EC15
:10530000102B02F0DBFC094AC2E902011046816F52
:105310008847BDEC028B10BD0000000000000000BB
:10532000F80700200000000000003E409008002028
:10533000490A0020F4090020D014002000000000D9
:1053400000407FC00000000000C08240000000005C
:1053500000C072C0333333333333C33F7047000070
:1053600010B51548006840F47000134908601348F0
:10537000006840F001001149086000200F49083121
:1053800008600E4800680E4908400C4908600D4846
:10539000091D0860081F006820F48020091F0860AC
:1053A000002006490C310860FFF736FE4FF0006020
:1053B00001498039086010BD88ED00E000380240E6
:1053C000FFFFF6FE103000240EB501210846FFF75E
:1053D0006BF94FF0FF3001905320ADF80000002032
:1053E000ADF80800ADF8020069464FF0804000F0CB
:1053F000CBF90121880700F033F90121880700F07B
:1054000041F90EBD10B50121880700F047F938B108
:105410000121880700F033F90121880700F02CF9F9
:1054200010BD00000EB501210220FFF73DF940F646
:10543000B73001905320ADF800000020ADF808000F
:10544000ADF8020069460C4800F09EF901210A48B7
:1054500000F006F90121084800F014F91D208DF82C
:10546000080001208DF809008DF80A008DF80B0066
:1054700002A8FEF78BFD0EBD0004004010B501210F
:10548000184800F00BF958B30121164800F0F7F85E
:105490000121144800F0F0F813480068012803D1F6
:1054A0000C20FFF745FC1BE00F480068C0B90F480F
:1054B0000078052814D00E480068401C0C4908608C
:1054C00008460068B0F5C87F0AD1012001F05CFFF2
:1054D00000200749086007480068401C054908602B
:1054E00010BD00000004004008000020010A002058
:1054F0000C0000200400002010B50121064800F037
:10550000C1F801221146044800F0D9F801210248EF
:1055100000F0B2F810BD00000004004000B58BB0F0
:1055200001210420FFF7C0F801210420FFF7ACF8A7
:10553000022208211F48FEF73DF94FF480700990C0
:1055400002208DF8280003208DF8290000208DF816
:105550002A0001208DF82B0009A91648FEF7E2F871
:105560000020ADF81800ADF81A0042F2CF00079005
:105570000020ADF8200006A90F4800F005F96020D2
:10558000ADF804000120ADF806000220ADF81000CF
:1055900001A9094800F09CF80821074800F0E8F844
:1055A0000121054800F05CF80121034800F06AF889
:1055B0000BB000BD00080240000800400EB50121FC
:1055C0001020FFF771F85320ADF800000020ADF86F
:1055D0000200ADF808004FF4FA60019069460948EE
:1055E00000F0D2F836208DF8080000208DF8090070
:1055F0008DF80A0001208DF80B0002A8FEF7C6FC0A
:105600000EBD00000010004010B50121094800F057
:1056100045F870B10121074800F031F80121054833
:1056200000F02AF8FDF722FA03480068401C0249FE
:10563000086010BD001000400000002010B50121DE
:10564000064800F01FF801221146044800F037F820
:105650000121024800F010F810BD000000100040C9
:1056600021B1028842F08002028004E002884FF6F5
:105670007F731A4002807047CA4302827047CA4350
:105680000282704721B1028842F00102028004E0E8
:1056900002884FF6FE731A400280704730B502460A
:1056A000002000230024158A05EA0103958905EAF4
:1056B000010413B10CB1012000E0002030BD1AB18B
:1056C00083890B43838102E083898B438381704705
:1056D00070B5002400220023058C4FF6FF6635408C
:1056E0000584028C8388848B4FF68F752C404FF68F
:1056F000FC752C400D882C434FF6FF552A408D89B0
:105700004FF6FF7606EA05252A434D8806EA052569
:105710002A43154DA84202D0144DA8421DD14FF284
:10572000FF752A40CD894FF6FF7606EA05252A4304
:105730004FF6FF352A408D8806EA05252A434EF6A6
:10574000FF752B404DF6FF752B400D8A06EA0515B7
:105750002B434D8A06EA05152B43838084838D688D
:10576000C563028470BD00000000014000040140D8
:105770000A460021818B4FF6F7731940114381834C
:105780007047C1637047000000220288184B98429E
:105790000ED0184B98420BD0B0F1804F08D0164B6A
:1057A000984205D0154B984202D0154B984204D12F
:1057B0004FF68F731A404B881A43124B984207D00A
:1057C000114B984204D04FF6FF431A400B891A43FD
:1057D00002804B68C3620B880385054B984202D058
:1057E000044B984201D18B7A038601238382704750
:1057F0000000014000040140000400400008004097
:10580000000C004000100040001400402DE9F04161
:1058100006460F464FF00108002002EE100A002550
:10582000002419E008FA04F03040204102EE100A8A
:105830002046B0EE000A01F0B3FDF0EE400A00EEA3
:10584000105AB8EEC00AB8EEC21A01EE200ABDEE38
:10585000C00A10EE105A641CBC42E3DB2846BDE8C7
:10586000F081000070B540F224418B4800F00AFC42
:1058700000286FD0884800888748001D0088874826
:10588000FDF779FA18BB00218448FDF7A1F9834898
:10589000FDF76DFAC0F164008149086064207F491A
:1058A0005839C8650846806D40F40020886501219C
:1058B0007A48FDF78DF9002404E07A49085DFFF786
:1058C00015FA641C764800688442F6D323E0002170
:1058D0007248FDF77DF97148FDF749FAC0F164009F
:1058E0006F49086064206D495839C8650846806D65
:1058F00020F40020886501216848FDF769F900243B
:1059000005E068496431085DFFF7F0F9641C6448FC
:1059100000688442F5D3B5E063484068624909688D
:10592000401A03D400206149088002E064205F49E6
:1059300008805D480068602807DB5B4800686328D2
:1059400003DC64205A49088002E00020584908809E
:10595000002505E09EE057494819FFF7ABF96D1C9B
:10596000052DF8DB5348007953490870FF220421C4
:105970005048FDF77DFF514908704F48007809787D
:1059800088427FD14B4840784A49897840EA0120D3
:105990004B49088010214A480088FFF737FF4849E3
:1059A0000880414840684149098801443E480068F0
:1059B0003F4A12881044401F091A414800880930A4
:1059C000814256DB002505E03A49491D4819FFF799
:1059D00071F96D1C3A480088001D8542F4DB384897
:1059E0000088C01D3349095C354800880830314AB9
:1059F000105C41EA00203349088031480088C11D0D
:105A00004FF6FF722B48FDF719FF2F4908802D48EC
:105A100000880988884235D126484079012806D176
:105A200024488079022802D1224801F067FC2148ED
:105A30004079062806D11F488079022802D11D48E6
:105A400001F062FB1B484079072806D1194880798C
:105A5000022802D1174801F001FC164840790228BB
:105A600010D11448807902280CD1124801F066FB4D
:105A700008E00D4800680E4909880844401F0A499B
:105A8000086006E0084840680749096888427FF4D2
:105A900043AF00BF70BD0000007800405860024076
:105AA000FC00002070100020F7110020F8000020FA
:105AB000FA00002038110020F0000020F100002042
:105AC000F6000020F2000020F400002000B58FB0A6
:105AD00001210220FEF7D8FD01218805FEF7D4FD43
