:020000040800F2
:10000000901D0020A102000851430008713D000826
:10001000A93F00082D0B0008CD5F0008000000007C
:10002000000000000000000000000000754E000805
:100030001F31000800000000014800085553000867
:10004000BB020008BB020008BB020008BB0200089C
:10005000BB020008BB020008BB020008BB0200088C
:10006000BB020008BB020008BB020008BB0200087C
:10007000BB020008BB020008BB020008BB0200086C
:10008000BB020008BB020008BB0200087D0C000890
:10009000410C0008BB020008BB020008BB020008BC
:1000A000BB020008BB020008BB020008BB0200083C
:1000B000FD530008BB020008BB020008BB02000899
:1000C000BB020008BB020008BB020008BB0200081C
:1000D000BB0200084D57000805580008795A00086F
:1000E000BB020008BB020008BB020008BB020008FC
:1000F000BB020008BB020008BB020008BB020008EC
:10010000BB020008BB020008BB020008BB020008DB
:10011000BB020008BB02000869540008BB020008CB
:10012000BB020008BB020008BB020008BB020008BB
:10013000BB020008BB020008BB020008E90D000872
:10014000AD0D0008BB020008BB020008BB0200089E
:10015000BB020008BB020008BB020008655C000887
:10016000BB020008BB020008BB020008BB0200087B
:10017000BB020008BB020008BB020008BB0200086B
:10018000BB020008BB02000800F002F800F05EF8B5
:100190000AA090E8000C82448344AAF10107DA45E2
:1001A00001D100F053F8AFF2090EBAE80F0013F0D6
:1001B000010F18BFFB1A43F0010318470C8500001C
:1001C0002C8500000A444FF0000C10F8013B13F09E
:1001D000070408BF10F8014B1D1108BF10F8015BA0
:1001E000641E05D010F8016B641E01F8016BF9D193
:1001F00013F0080F1EBF10F8014BAD1C0C1B09D1EA
:100200006D1E58BF01F801CBFAD505E014F8016B5B
:1002100001F8016B6D1EF9D59142D6D370470000ED
:100220000023002400250026103A28BF78C1FBD8FF
:10023000520728BF30C148BF0B6070471FB508F098
:1002400072F800F064F81FBD10B510BD00F0B2F8F0
:100250001146FFF7F3FF07F033F900F0D0F803B4CD
:10026000FFF7F2FF03BC06F03BFF00000B49D1F89B
:1002700000C04A685CF8043B1068184442F8040B5C
:100280008C4528BFA1F1DC0C8A4228BFA1F1DC0219
:10029000C1F800C04A6020F00040704724170020D9
:1002A0000948804709480047FEE7FEE7FEE7FEE70A
:1002B000FEE7FEE7FEE7FEE7FEE7FEE70448054946
:1002C000054A064B70470000595300088901000891
:1002D00090170020901D00209019002090190020F8
:1002E000704700000B4910B5A1F17C020A4CC2E92D
:1002F0003712372106E000EB104342F82130074B5C
:1003000000FB03400B1EA1F10101F4DC10BD012034
:10031000E8E70000C4160020E119D666CD0D010003
:1003200010B5203AC0F00B80B1E81850203AA0E890
:100330001850B1E81850A0E81850BFF4F5AF5FEAC4
:10034000027C24BFB1E81850A0E8185044BF18C977
:1003500018C0BDE810405FEA827C24BF51F8043B1E
:1003600040F8043B08BF7047D20728BF31F8023B72
:1003700048BF11F8012B28BF20F8023B48BF00F806
:10038000012B7047704770477047704710B500F0F9
:1003900009F8006810BD10B5044600F003F80460C9
:1003A00010BD0000004870472C170020004870471F
:1003B0002C1700207546FFF7F9FFAE460500694689
:1003C000534620F00700854618B020B5FFF776FFAA
:1003D000BDE820404FF000064FF000074FF0000846
:1003E0004FF0000B21F00701AC46ACE8C009ACE8C7
:1003F000C009ACE8C009ACE8C0098D46704710B52B
:100400000446AFF300802046BDE81040FFF727BF49
:1004100010B52DED068B8C4800788C4908708C48FF
:10042000007800287ED18B48006807F07AFC41EC08
:10043000190B894890ED101BB0EE410AF0EE610AED
:1004400051EC100B07F0B8F941EC1A0B53EC192BD7
:1004500007F00EFE41EC180B07F0BAF97F4908606F
:10046000084690ED000ABDEEC00A10EE100A40F2F8
:100470003C7190FBF1F07A490860784890ED000AF1
:10048000BDEEC00A10EE100A40F23C7190FBF1F292
:1004900001FB120000B2734908800846B0F9000061
:1004A000002850DB6948007801283CD10846B0F9A3
:1004B0000000B0F5307F09DA6948006840F2CF11DA
:1004C0004843DF21C1EB8000674908606548B0F907
:1004D0000000B0F5307F0BDB6148006840F2CF11BF
:1004E000484340F25D6101EB80005F49086078E0BD
:1004F0005C48B0F9000040F2BF21884271DB5948E6
:10050000B0F9000040F25D6188426ADC544800683E
:1005100040F2CF11484340F25D6101EB8000524947
:1005200008605EE08CE049480078002859D14C48CA
:10053000006840F2CF11484340F2BF2101EB800038
:10054000494908604DE04148007801283BD14548C1
:10055000B0F900006FF49C61884209DB40480068F4
:1005600040F2CF114843DF21C1EB80003E490860D3
:100570003C48B0F900006FF49C6188420BDA3848BF
:10058000006840F2CF11484340F62501C1EB8000DE
:100590003549086025E03348B0F900003349884206
:1005A0001FDC3048B0F900003149884219DB2C4883
:1005B000006840F2CF11484340F62501C1EB8000AE
:1005C000294908600DE02148007850B924480068A6
:1005D00040F2CF11484340F2E141C1EB8000224993
:1005E00008601D4890ED101BB0EE410AF0EE610A64
:1005F00051EC100B07F0E0F841EC190B1A490968AF
:10060000144A1268881807F08CFB41EC1A0B53EC63
:10061000192B07F02DFD41EC180B9FED160B53EC39
:10062000102B07F0E3FC03D801201449087002E006
:1006300002201249087012480088401C10490880A6
:10064000BDEC068B10BD0000080C00204E0C0020F5
:10065000BD0B00202C0C0020D0140020280C002002
:100660008C010020900100209401002041FDFFFF3B
:10067000A3F9FFFF00000000000000009801002027
:100680004C0C002010B54FF4A06003F09FFE04F066
:1006900097FE04F0C3FE00F04BFA00F0FDFA04F000
:1006A000B5FF4FF4E13006F0E5FF05F03FFA4FF4F7
:1006B000E13006F03FFF04F0A5F810BD984800783F
:1006C00001287DD19748C08897490880084600884E
:1006D00096490988401A9649086096480088401C47
:1006E00000B2944908809248006810F10A0F10DCAB
:1006F0000846B0F90010904802680068401C8E4B14
:1007000018608E4820F8121001208D4908608D492C
:10071000086089480068052834DB8A480068012899
:1007200030D185480068401E844931F91010824854
:100730000068401F814A32F91000081A8249086097
:100740007D480068401E114631F910107A48006853
:10075000401F32F91000081A062813DA7B48006897
:1007600058280FD000207A4908607A490860012093
:1007700079490870002073490860012077490860B2
:100780007749086068480088782871DD6A48006801
:100790000F2839DB6A480068012835D166480068AF
:1007A000401E664931F91010634800680F38634AEB
:1007B00032F91000081A644908605F48006800E0D8
:1007C000ADE0401E114631F910105B4800680F384B
:1007D00032F91000081A3C2816DA57480068401E03
:1007E000114631F9101054480068401F32F91000CA
:1007F000081A062808DD00205549086001205649DE
:10080000087000204E49086056480068401C554951
:100810000860084600683C280DDA084600680A2887
:1008200009DD4348006810F1640F04DC01204E49E3
:1008300008604E4908603E48006810F1640F0ADC09
:100840000020434908600120434908704749086077
:1008500000204449086046480068401C444908603C
:1008600008460068B0F5967F02DD00204149086027
:100870002D480088782841DA002035490860012099
:10088000354908702A48006810F10A0F0DDC3A4813
:10089000006850B9012035490860002037490860D8
:1008A0000120374908603449086034480068401C1A
:1008B0003249086008460068642802D9002030499F
:1008C00008602E480068B0F5967F02D900202A49BA
:1008D00008601748006810F10A0F02DC0020244964
:1008E000086023480068401C2149086008460068E9
:1008F000B0F5967F02DD00201E4908600C480068B4
:1009000010F10A0F07DC0A48006810F1140F02DB2F
:1009100001201C4908700448008804490880704779
:10092000BC0B0020D81200204A0C0020480C0020EC
:10093000DC0B0020E00B0020E40B00206012002004
:10094000E80B0020F80B0020040C002048000020D9
:10095000CC0B0020FC0B0020B90B0020F40B002076
:10096000000C0020C80B002064010020540100206E
:10097000EC0B0020F00B0020D80B0020D00B002047
:1009800068010020BD0B002010B503F03BF90428DE
:1009900007D003F037F9062803D003F033F9052810
:1009A00025D113480088B0F5C87F20DA11480068C7
:1009B00001281CD103F058F90F49486008464068E7
:1009C0000968401A0C4988600C4800780C4991FB72
:1009D000F0F009498968884209DA0A480088401C11
:1009E00000B20849088003F03FF90349086010BDD0
:1009F000460C002034010020451000204601002054
:100A000010EB0900B40B002010B54148407A0128D2
:100A10007DD03F48407A022879D03E4890ED000AC8
:100A2000B5EEC00AF1EE10FA07D23B4890ED000A8D
:100A3000B5EEC00AF1EE10FA0FDC364890ED000A70
:100A4000B5EEC00AF1EE10FA18D2334890ED000A64
:100A5000B5EEC00AF1EE10FA10D13048006868B95E
:100A60004FF0FF302E49086001202C4908602D48C6
:100A7000806818B903F0F8F82A490860254890ED15
:100A8000000AB5EEC00AF1EE10FA07DD224890ED3B
:100A9000000AB5EEC00AF1EE10FA0FD31D4890ED32
:100AA000000AB5EEC00AF1EE10FA16DD1A4890ED14
:100AB000000AB5EEC00AF1EE10FA0ED11748006830
:100AC00058B9012016490860144908601548806823
:100AD00018B903F0C9F813490860104800680128E4
:100AE00015D103F0C1F80F4948600846406809680D
:100AF000401A0C498860084680680B49884206DD28
:100B0000002007490860074988600449086010BD53
:100B10003C120020700B0020740B0020380C0020C9
:100B2000600B00205210002020A1070000BFFEE74C
:100B300000B589B00121082003F040FF01214806DB
:100B400003F04CFF092200213B4803F023F809225F
:100B50000121394803F01EF80320079002208DF888
:100B6000200007A9344802F0CDFF344800F0BAF95C
:100B700004A800F0F2FB00208DF816008DF8170095
:100B80008DF818008DF819008DF81A0001208DF8E5
:100B90001B0000208DF812008DF8130008208DF83E
:100BA000140003208DF81500ADF8100004A92348A7
:100BB00000F0D1FA00208DF80A008DF80B0001201A
:100BC0008DF80C000020ADF80000ADF80200ADF883
:100BD0000400ADF80600ADF8080001208DF80D0006
:100BE000684600F09BF901220221144800F0AAFA9D
:100BF00001221146114800F0A5FA14208DF82000BA
:100C000001208DF821008DF822008DF8230008A81E
:100C100003F0A0FB13208DF8200001208DF82100A7
:100C200000208DF8220001208DF8230008A803F091
:100C300091FB09B000BD0000000C024000640040C0
:100C400000B585B002210B4800F0ECF978B1022123
:100C5000084800F0F3F80849064800F0D3F86A465F
:100C60000021044800F001FB684600F02FFE05B0AB
:100C700000BD0000006400400800003210B50121F2
:100C8000044800F0CFF918B10121024800F0D6F86D
:100C900010BD00000064004000B589B001210220B1
:100CA00003F08CFE0121880603F098FE09220C2136
:100CB0003C4802F06FFF09220D213A4802F06AFF1A
:100CC0004FF44050079002208DF8200007A93548C6
:100CD00002F018FF344800F005F904A800F03DFBCD
:100CE00000208DF816008DF817008DF818008DF88B
:100CF00019008DF81A0001208DF81B0000208DF8D6
:100D000012008DF8130008208DF8140003208DF8D0
:100D10001500ADF8100004A9234800F01CFA0E20BD
:100D20008DF80A0000208DF80B0001208DF80C00D2
:100D30000020ADF80000ADF80200ADF80400ADF8F9
:100D40000600ADF8080001208DF80D00684600F09F
:100D5000E5F801220221144800F0F4F901221146BD
:100D6000114800F0EFF940208DF8200001208DF8A7
:100D700021008DF822008DF8230008A803F0EAFA7C
:100D80003F208DF8200001208DF8210000208DF8F3
:100D9000220001208DF8230008A803F0DBFA09B037
:100DA00000BD0000000402400068004000B585B0AE
:100DB00002210B4800F036F978B10221084800F012
:100DC0003DF80849064800F01DF86A46002104482D
:100DD00000F04BFA684600F069FE05B000BD000067
:100DE000006800400800003210B50121044800F0FE
:100DF00019F918B10121024800F020F810BD0000D7
:100E00000068004000220C4B994202D1002383610C
:100E100011E0C1F3130201F000730BB1C2600AE0EC
:100E200001F080630BB1026105E001F000630BB1DA
:100E3000826000E0426070477000F030B1F5007FE2
:100E40003AD00FDC202928D006DC01291CD0042947
:100E50001DD0082940D11DE0402921D0B1F5807F67
:100E60003AD126E0B1F5004F31D006DCB1F5806F04
:100E700025D0B1F5006F2FD124E0B1F5803F12D01D
:100E8000B1F5003F28D111E0154A826025E0082223
:100E9000C26022E01022C2601FE0082202611CE052
:100EA0001022026119E00822426016E0102242601E
:100EB00013E00422426010E0042242600DE00422AC
:100EC00042600AE0002282610422426005E00022C2
:100ED00082610422426000E000BF00BF7047000052
:100EE0000101010010B504460B48844209D10121DB
:100EF000480603F083FD00214FF0007003F07EFDF3
:100F000008E00121880603F079FD00214FF08060A0
:100F100003F074FD10BD00000064004010B5002116
:100F2000837A012202FA03F13D4A126842F001027B
:100F30003B4B1A603A4A1C3212688A43384B1C33C6
:100F40001A60027BCAB9364A0C3212688A43344BA3
:100F50000C331A604288C38842EA0343304A403265
:100F6000847A42F834300288838842EA03432C4A68
:100F70004032847A02EBC4025360027B012A19D109
:100F8000274A0C3212680A43254B0C331A604288F8
:100F9000038842EA0343224A4032847A42F83430DA
:100FA000C288838842EA03431D4A4032847A02EBB6
:100FB000C4025360C27A3AB9194A121D12688A43B0
:100FC000174B1B1D1A6006E0154A121D12680A43D2
:100FD000134B1B1D1A60028932B9114A1432126870
:100FE0008A430F4B14331A600289012A06D10C4A36
:100FF000143212680A430A4B14331A60427B012AE6
:1010000006D1074A1C3212680A43054B1C331A608A
:10101000034A126822F00102014B1A6010BD000061
:101020000066004070B504460D4600266069284001
:10103000002871D0B5F5807F5CD010DC082D35D04C
:1010400006DC012D20D0022D24D0042D72D127E002
:10105000102D31D0202D35D0402D6BD138E0B5F595
:10106000004F60D009DCB5F5007F49D0B5F5806F41
:101070004CD0B5F5006F5DD14FE0B5F5803F2DD078
:10108000B5F5003F56D12FE0A0682D4901F06CFE68
:10109000064651E0E068032101F066FE06464BE09B
:1010A000E068082101F060FE064645E0E068102196
:1010B00001F05AFE06463FE02069032101F054FE8C
:1010C000064639E02069082101F04EFE064633E06D
:1010D0002069102101F048FE06462DE060680821D5
:1010E00001F042FE064627E06068102101F03CFE58
:1010F000064621E0A069012101F036FE06461BE00C
:10110000A069022101F030FE064615E0A069042125
:1011100001F02AFE06460FE00FE0A069702101F001
:1011200023FE064608E06068042101F01DFE064625
:1011300002E0FFE7002600BF00E00026304670BD59
:10114000010101001AB143690B43436102E04369A5
:101150008B434361704730B502460020002314687A
:1011600024F002041460146844F00104146000E0E8
:101170005B1C546804F001041CB94FF6FF74A342D1
:10118000F6D1546804F001040CB900206CE08C79AD
:10119000012C04D1146844F08004146003E0146846
:1011A00024F080041460CC79012C04D1146844F03C
:1011B0004004146003E0146824F0400414600C7AC6
:1011C000012C04D1146844F02004146003E0146876
:1011D00024F0200414604C7A012C04D1146844F0EB
:1011E0001004146003E0146824F0100414608C7A76
:1011F000012C04D1146844F00804146003E014685E
:1012000024F008041460CC7A012C04D1146844F052
:101210000404146003E0146824F0040414608C785F
:10122000A407CD7844EA05640D7944EA05444D7974
:1012300044EA05540D886D1E2C43D461146824F0D3
:1012400001041460002300E05B1C546804F00104F6
:101250001CB14FF6FF74A342F6D1546804F00104A8
:101260000CB1002000E0012030BD10B500F5D873AE
:1012700003EB01131B6803F004031372137A53B9D1
:1012800000F5D87303EB01131B6840F2FF7404EA06
:101290005353136009E000F5D87303EB01131B6887
:1012A0006FF0604404EAD303536000F5D87303EB96
:1012B00001131B6803F00203537200F5D87303EBAC
:1012C00001135B6803F00F03937200F5D87303EB0F
:1012D00001135B681B0AD37400F5D87303EB011389
:1012E0009B68D37200F5D87303EB01139B681C0A4B
:1012F000147300F5D87303EB01139B681C0C547333
:1013000000F5D87303EB01139B681B0E937300F574
:10131000D87303EB0113DB68D37300F5D87303EBC9
:101320000113DB681C0A147400F5D87303EB011376
:10133000DB681C0C547400F5D87303EB0113DB68F5
:101340001B0E937421B9C36843F02003C36003E00C
:10135000036943F02003036110BD00218171C17155
:10136000017241728172C1728170C1700321017179
:101370000221417101210180704710B50246002011
:10138000936803F08063B3F1806F00D110E093683D
:1013900003F00063B3F1006F01D1012008E093680E
:1013A00003F08053B3F1805F01D1022000E00420FC
:1013B000042874D002F5C07303EB00131B6803F01C
:1013C000010402F5C07303EB00131C600B7A7BB9B8
:1013D0004B7A0C8843EA445302F5C07404EB0014C2
:1013E0002468234302F5C07404EB0014236010E06A
:1013F0000B7A4C6843EAC4034C7A234302F5C07469
:1014000004EB00142468234302F5C07404EB0014B9
:1014100023608B7A03F00F038B7202F5C07303EB2A
:1014200000135B6823F00F0402F5C07303EB001395
:101430005C6002F5C07303EB00135B688C7A234396
:1014400002F5C07404EB001463608B7B1C064B7BBD
:1014500044EA03440B7B44EA0323CC7A234302F59A
:10146000C07404EB0014A3608B7C1C064B7C44EA24
:1014700003440B7C44EA0323CC7B234302F5C07472
:1014800004EB0014E36002F5C07303EB00131B6868
:1014900043F0010402F5C07303EB00131C6010BDA0
:1014A00070B52DED0C8B82B0EB4890ED022BB0EEB9
:1014B000420AF0EE620A90ED002BB0EE421AF0EE16
:1014C000621A53EC102B51EC110B06F0D1FD41ECDC
:1014D0001D0BB0EE4D0AF0EE6D0A05F051FDB0EEB9
:1014E00040CAF0EE60CA9FEDDD0B53EC102B51ECBF
:1014F0001C0B06F07DFC41EC1B0BB0EE4B0AF0EE32
:101500006B0A05F091FBB0EE40AAF0EE60AA9FEDE9
:10151000D50B53EC102B51EC1A0B06F09DFD41EC52
:10152000190B9FEDD20B53EC102B06F061FC41EC34
:10153000180B9FEDCE0B53EC102B06F07BF9C64A2F
:10154000C2E908019FEDCB0B104680ED0A0B9FED21
:10155000C90B80ED0C0B9FEDC90BCA4880ED080B41
:10156000C94880ED080B9FEDC90BC64880ED0A0BFA
:10157000C54880ED0A0B9FEDC70BC24880ED0C0BF0
:10158000C14880ED0C0B02F03DFB072802D002F0B1
:1015900039FBD0B99FEDC10BAF4880ED080B9FED33
:1015A000BB0B80ED0A0B9FEDBF0B80ED0C0B9FED8D
:1015B000B10B80ED000BBD49886B06F0B2FBA64A6B
:1015C000C2E902011046816F884702F01BFB042824
:1015D00040D1B748006868B9B648006806F032FEE6
:1015E00041EC180B9FED9D0B53EC102B06F000FC0B
:1015F000994A03C2AE48006801280DD1AD48006881
:1016000006F020FE41EC180B9FED940B53EC102BD1
:1016100006F0EEFB904A03C2A449886B06F081FBFA
:101620008D4AC2E902011046816F8847A249886B42
:1016300006F077FB944AC2E902011046816F8847A1
:101640009E49886B06F06DFB8E4AC2E90201104686
:10165000816F884702F0D6FA012807D002F0D2FA4B
:10166000062803D002F0CEFA082828D1914890ED40
:10167000000AB1EE400A10EE100A06F0E3FD764AC9
:1016800003C28A49886B06F04CFB734AC2E9020127
:101690001046816F88478849886B06F042FB7A4A7A
:1016A000C2E902011046816F88478449886B06F0C1
:1016B00038FB744AC2E902011046816F884702F084
:1016C000A1FA052823D17B48006806F0BBFD624AD9
:1016D00003C27649886B06F024FB5F4AC2E9020127
:1016E0001046816F88477449886B06F01AFB664A7A
:1016F000C2E902011046816F88477049886B06F085
:1017000010FB604AC2E902011046816F884702F06F
:1017100079FA072802D002F075FAE8BB4E4890ED3E
:10172000021BB0EE410AF0EE610A9FED5A1B53EC2A
:10173000112B51EC100B06F01FFB18D8464890ED0A
:10174000021BB0EE410AF0EE610A9FED5D1B53EC07
:10175000112B51EC100B06F049FC08D80020034671
:10176000024601460090584803F0FAFC70E03A48FF
:1017700090ED1A1BB0EE410AF0EE610A51EC100B2D
:1017800006F0A0FA04B2002003460246214600906B
:101790004D4803F0E5FC5BE0FFE702F033FA042874
:1017A0002BD1384890ED1A1BB0EE410AF0EE610AD9
:1017B00051EC100B06F086FA04B2334890ED1A1B78
:1017C000B0EE410AF0EE610A51EC100B06F07AFA25
:1017D00005B2214890ED1A1BB0EE410AF0EE610A05
:1017E00051EC100B06F06EFA06B22B460022314681
:1017F0003548009403F0B4FC2AE0224890ED1A1B0F
:10180000B0EE410AF0EE610A51EC100B06F05AFA04
:1018100004B21D4890ED1A1BB0EE410AF0EE610AC9
:1018200051EC100B06F04EFA05B20B4890ED1A1B66
:10183000B0EE410AF0EE610A51EC100B06F042FAEC
:1018400006B22B46002231461F48009403F088FC64
:1018500002B0BDEC0C8B70BDA00200209A99999942
:101860009999B9BF000000000000F03F000000009F
:1018700000005940000000000000000000000000CF
:1018800000004E4068040020D0030020000000004B
:101890000000E03F000000000000244000000000C5
:1018A00000004440000000000000144070130020BD
:1018B000AC010020800B00202014002078140020B0
:1018C00000000000000024C00064004010B5044681
:1018D0006C480068401C6B4908602068702863D021
:1018E0000EDC40285DD006DC302857D0312856D099
:1018F000322873D154E0502854D06028F9D152E0F6
:10190000A0F20120072869D2DFE800F0041526378D
:1019100084B84F0001205C4908705A48006832289A
:1019200004D82146594802F063F903E0214657489C
:1019300002F0C2FBA3E0012053490870514800683F
:10194000322804D82146524802F052F903E02146D9
:101950004F4802F0B1FB92E001204B490870494822
:101960000068322804D821464A4802F041F903E0D1
:101970002146484802F0A0FB81E00120424908705E
:1019800040480068322804D82146434802F030F924
:1019900003E02146404802F08FFB70E06FE06EE00C
:1019A0006DE06CE06BE06AE069E036480068322880
:1019B00026D22146394802F01BF938484069384997
:1019C000B1F90010401AB0F5805F08DD3448008896
:1019D00000F5005000B2324908801AE04EE02F486E
:1019E00040692F49B1F90010401A10F5805F10DAF4
:1019F0002B480088A0F5005000B22949088008E073
:101A00002748B0F90000254948612146234802F0E3
:101A1000F9FB34E01B480068322825D221462148D2
:101A200002F0E6F81F4840691F49B1F90010401A5A
:101A3000B0F5805F07DD1C48008800F5005000B25B
:101A40001949088019E0174840691749B1F9001091
:101A5000401A10F5805F10DA13480088A0F5005096
:101A600000B21149088008E00F48B0F900000D49A4
:101A7000486121460B4802F0C5FB00E000BF00BFF3
:101A800010BD00003C0C0020BC0B00207013002097
:101A9000C81300202014002078140020D014002047
:101AA000420C002028150020400C002010B50446F0
:101AB0002A480068401C294908602068902846D0C0
:101AC000A0F2062078B1012845D1084600683228E6
:101AD00004D82146224802F08BF803E02146204832
:101AE00002F064FA38E01D480068322825D2214609
:101AF0001C4802F07DF81B4840691B49B1F90010F1
:101B0000401AB0F5805F07DD1748008800F50050E7
:101B100000B21549088019E0124840691249B1F92C
:101B20000010401A10F5805F10DA0F480088A0F509
:101B3000005000B20C49088008E00B48B0F90000E2
:101B4000084948612146074802F030FA04E020467F
:101B500001F0E6FA00E000BF00BF10BD3C0C002021
:101B6000D815002080150020440C002010B52DED64
:101B7000048B0446A078E17840EA012000B2CC4909
:101B800008802079617940EA012000B2C849488084
:101B9000A0798880E079C7490880207A4880607AF7
:101BA000C5490880A07A4880C4480078C4490860C4
:101BB000207852287ED160784D28FBD1A07841282A
:101BC00078D0C04890ED000AF7EE000A30EE200A07
:101BD00080ED000AB648B0F9000000EE100AB8EE39
:101BE000C00AB94880ED000AB148B0F9020000EE21
:101BF000100AB8EEC00AB54880ED000A0120AF49CE
:101C000008700020B2498887B248007A032802D1C0
:101C10000120B149086002F027F8B0494860084641
:101C200040680968401AAD498860AD480078401C9A
:101C3000AB49087008460078012819D1A94890EDF1
:101C4000101BB0EE410AF0EE610A51EC100B05F0EA
:101C5000BFFDA5490860A54890ED101BB0EE410AF4
:101C6000F0EE610A51EC100B05F0B2FDA0490860DE
:101C70009B4800781E2802DD1E209949087001F05B
:101C8000C1FF07280ED001F0BDFF58B101F0BAFF27
:101C9000062807D001F0B6FF052803D001F0B2FFF7
:101CA00001281CD18F4890ED101BB0EE410AF0EED8
:101CB000610A00E093E051EC100B05F089FD8D49BD
:101CC00008608A4890ED101BB0EE410AF0EE610A00
:101CD00051EC100B05F07CFD874908607BE07449EE
:101CE000B1F9000006F01DF841EC190B9FED830BD4
:101CF00053EC102B05F052FE41EC180B05F068FD7B
:101D00007C4908607248B0F93C0023281BDA084679
:101D100090ED000A6E48B0F91410808A401C00B2A1
:101D20006B4A9082104600EB810080ED000A10465D
:101D3000B0F91400052802DB00201146888200203B
:101D40006349888710E0002008E09FED6E0A604933
:101D500001EB800181ED000A411CC8B20528F4DBCB
:101D600000205B49888288875148808881B2664814
:101D700002780078401C644B1870644820F81210F8
:101D8000184600780A2802DB0020194608705F48D0
:101D900005F0E2F95E4908804549B1F9020005F015
:101DA000C0FF41EC190B9FED550B53EC102B05F0C8
:101DB000F5FD41EC180B05F00BFD4F4908604D484F
:101DC00090ED000A534880ED000A084690ED000AA5
:101DD000514880ED000A01F047FF40490860207833
:101DE00052282DD160784D282AD1A078412827D1BA
:101DF000E078412824D12079412821D19FED410A62
:101E0000314880ED000A9FED3F0A304880ED000A1E
:101E10002F48808F401C00B22D4988870846B0F9B2
:101E20003C00232801DB232088872948B0F93C00A7
:101E3000232805DC394890ED000A2E4880ED000A81
:101E40002348B0F93C0023281ADB002024490870FD
:101E5000324890ED000A274880ED000A234890EDB3
:101E6000101BB0EE410AF0EE610A51EC100B05F0C8
:101E7000AFFC214908600020174908600F4908702D
:101E80001448007A032802D101202549087001F086
:101E9000B9FE042808D10F48007A022804D1002096
:101EA0000D4908601E490870BDEC048B10BD000090
:101EB000180000201E00002022000020B80B002087
:101EC00070000020800000207400002078000020B6
:101ED0009C0F00203C1200203401002079100020CB
:101EE0006D000020D014002078010020281500206B
:101EF0007C010020340000202C00002000000000A5
:101F000000005940000000003C000020880F002025
:101F10003A0000203000002028000020D8000020D7
:101F20000101002010B52DED048B01F06BFE01289E
:101F300007D001F067FE042803D001F063FE0828F3
:101F40007DD18848007801282ED187480088012853
:101F50002AD18648007810B1012824D111E09FEDE4
:101F6000840A844880ED000A83480068401C824946
:101F70000860824800688249086000207A49088029
:101F800011E09FED800A7B4880ED000A7B480068E5
:101F9000401C7A490860784800687B490860002046
:101FA0007149088000BF00BF6E4800780128C7D182
:101FB0007048006806F046F941EC190B734890ED43
:101FC000101BB0EE410AF0EE610A53EC102B51ECFD
:101FD000190B06F04DF841EC180B05F073FE041ECA
:101FE00001DB204600E0604205281DDA5F480078EA
:101FF00010B101280CD105E09FED5D0A5D4880ED30
:10200000000A05E09FED5F0A5A4880ED000A00BF14
:1020100000BF56480078401C5449087008460078B4
:10202000022801DB0020087059480068401C58490C
:10203000086058480078002801D1574800E08DE03A
:1020400090ED000A554880ED000A08460068401CE3
:102050000860084600685249884202DD0120514963
:1020600008605048006890BB4248006806F0EAF8F3
:1020700041EC180B454890ED101BB0EE410AF0EE14
:10208000610A53EC102B51EC180B05F0AFFF05D291
:102090009FED450A404880ED000A18E03548006889
:1020A00006F0D0F841EC180B384890ED101BB0EE5C
:1020B000410AF0EE610A53EC102B51EC180B05F0BD
:1020C0005BFE04D29FED390A334880ED000A3548A3
:1020D0000068012832D12748006806F0B3F841ECC7
:1020E000180B2A4890ED101BB0EE410AF0EE610A81
:1020F00053EC102B51EC180B05F078FF05D29FED37
:102100002A0A254880ED000A18E01A48006806F0FF
:1021100099F841EC180B1D4890ED101BB0EE410AE8
:10212000F0EE610A53EC102B51EC180B05F024FE75
:1021300004D29FED1E0A184880ED000A174890ED62
:10214000000A1548D0ED000A20EE200AB5EEC00ABC
:10215000F1EE10FA02D201200E490870BDEC048B9A
:1021600010BD0000BC0B0020EE01002099010020F2
:1021700000401C466C0B0020C8010020D00100204C
:10218000D401002000401CC6CC01002070130020A8
:10219000B001002086010020740B0020700B00208D
:1021A000F0490200AC010020000048C4000048448F
:1021B00010B52DED088B01F025FD05287CD1FC48DC
:1021C00000680128FAD1FB480068012804D19FED7E
:1021D000FA0AFA4880ED000AF648006800286CD137
:1021E000F7480088012818D1F648007810B1012876
:1021F00012D108E09FEDF40AF04880ED000A0020BB
:10220000EF49088008E09FEDEC0AEC4880ED000AF9
:102210000020EB49088000BF00BFE848006806F0D6
:1022200011F841EC1A0BE94890ED101BB0EE410A91
:10223000F0EE610A53EC102B51EC1A0B05F018FF6D
:1022400041EC190BB0EE490AF0EE690A04F098FE71
:10225000B0EE408AF0EE608A51EC180B05F032FDCA
:10226000DB490860D548006805F0ECFF41EC1A0B2B
:10227000D64890ED101BB0EE410AF0EE610A53EC27
:10228000102B51EC1A0B05F0F3FE41EC190BB0EEDC
:10229000490AF0EE690A04F073FEB0EE408AF0EEEF
:1022A000608A9FEDCC0B53EC102B51EC180B05F012
:1022B00063FD03D2012402E081E03FE00024BF4837
:1022C000006805F0BFFF41EC190BC04890ED101BF2
:1022D000B0EE410AF0EE610A53EC102B51EC190BF1
:1022E00005F0C6FE41EC180B9FEDBC0B53EC102B18
:1022F00005F07CFE01D2012000E000200440ECB19A
:10230000B048007810B101280CD105E09FEDAE0A6D
:10231000AA4880ED000A05E09FEDA70AA74880EDD6
:10232000000A00BF00BFA7480078401CA5490870FC
:1023300008460078022801DB00200870A9480078D0
:10234000E8BBA94890ED000AA84880ED000A99482A
:102350000068012804D19FEDA60AA34880ED000A79
:102360009448006860BB9548006805F06BFF41EC3D
:10237000180B964890ED101BB0EE410AF0EE610A82
:1023800053EC102B51EC180B05F0F6FC05D29FED29
:10239000980A954880ED000A1BE08848006805F01F
:1023A00051FF41EC180B894890ED101BB0EE410A2B
:1023B000F0EE610A53EC102B51EC180B01E018E021
:1023C00007E005F013FE04D29FED8A0A864880EDEF
:1023D000000A864890ED000A8348D0ED000A20EEFE
:1023E000200AB5EEC00AF1EE10FA02D201207D49B2
:1023F000087001F007FC05287DD16D4800680028B1
:10240000FAD17D48006801286DD10024641C002C9D
:1024100065DB0A2C63DC6948006805F013FF41ECBA
:102420001A0B6A4890ED101BB0EE410AF0EE610AFB
:1024300053EC102B51EC1A0B05F01AFE41EC190B62
:10244000B0EE490AF0EE690A04F09AFDB0EE408A57
:10245000F0EE608A9FED690B53EC102B51EC180BDA
:1024600005F08AFC08D2554890ED000A80ED000A7C
:1024700001206449086032E05048006805F0E2FE3F
:1024800041EC1B0B514890ED101BB0EE410AF0EEF1
:10249000610A53EC102B51EC1B0B05F0E9FD41ECEC
:1024A0001A0B9FED590B53EC102B05F0A1FC41ECDE
:1024B000190B464890ED101BB0EE410AF0EE610A90
:1024C00053EC102B51EC190B05F0B4F941EC180B3F
:1024D00005F07EF93949086001204A49086000206A
:1024E0004549086000BF44480068022838D104F01C
:1024F00053FE474800E0B5E0B0F9000000EE100AD6
:10250000B8EEC00A2D4880ED000A2E48007810B1C0
:10251000012821D10FE03E49B1F90000002801DB7C
:10252000014600E0414200EE101AB8EEC00A23490D
:1025300081ED000A10E03649B1F90000002801DB06
:10254000014600E04142494200EE101AB8EEC00ACE
:102550001A4981ED000A00BF00BF0020264908602B
:102560002C48007801287DD12648006801287AD1BE
:1025700013480088012864D104F00EFE1148007849
:1025800010B101285CD147E02149B1F900000028D1
:1025900001DB014600E0414200EE101AB8EEC00A2D
:1025A000064981ED000A00200549088048E0000046
:1025B000F40B0020000C002000401CC66C0B002017
:1025C000EE0100209901002000401C4670130020FD
:1025D0007001002000000000000014400000000016
:1025E000000014C086010020740B0020700B002036
:1025F000000048C4000048446801002000000000BA
:1026000000007940580100207B14AE47E17A743F06
:102610005E010020BC0B0020FD49B1F9000000283C
:1026200001DB014600E04142494200EE101AB8EEDB
:10263000C00AF84981ED000A0020F749088000BF70
:1026400000BFF6480088782877DBF5480068012845
:1026500073D1F448006841F2883188423ED2F24892
:10266000006801E0FEE16AE1522803D0EE4800680C
:102670004C2815D1ED480068012811D1EC480078AC
:1026800010B1012808D103E00220EA49086003E004
:102690000120E849086000BF00BF0020E149086050
:1026A000E5480068522803D0E34800684C2815D15B
:1026B000DE480068012811D1DD48007810B10128FA
:1026C00008D103E00120DB49086003E00220D9497A
:1026D000086000BF00BF0020D2490860D1480068F0
:1026E00041F28831884201D9012000E00020CD4923
:1026F0000968B1F57A5F01D2012100E000210840AC
:10270000D8B1C9480068522802D10220C9490860DE
:10271000C54800684C2802D10120C6490860C64857
:102720000068522802D10120C2490860C2480068EE
:102730004C2802D10220BF490860B8480088782898
:102740005FDABE48006864283BD8B7480068522862
:1027500003D0B54800684C2815D1B448006801285A
:1027600011D1B348007810B1012808D103E002204C
:10277000B049086003E00120AE49086000BF00BF17
:102780000020A8490860AC480068522803D0AA4835
:1027900000684C2815D1A5480068012811D1A4482B
:1027A000007810B1012808D103E00120A149086098
:1027B00003E002209F49086000BF00BF0020994944
:1027C00008609E48006864281BD997480068522812
:1027D00002D1022097490860934800684C2802D132
:1027E00001209449086094480068522802D10120D1
:1027F00090490860904800684C2802D102208D4919
:1028000008608448006805F01DFD41EC1A0B8C48F7
:1028100090ED101BB0EE410AF0EE610A53EC102B64
:1028200051EC1A0B05F024FC41EC190BB0EE490AEF
:10283000F0EE690A04F0A4FBB0EE408AF0EE608A84
:102840001FED9C0B53EC102B51EC180B05F094FA78
:1028500075D272480088782842DB7248006841F2DD
:10286000883188423CD27748006858B904F094FC1B
:102870006748B0F9000000EE100AB8EEC00A6548DB
:1028800080ED000A6F480068012829D104F084FC1B
:102890006748007810B1012821D10FE05C49B1F9F7
:1028A0000000002801DB014600E0414200EE101A62
:1028B000B8EEC00A574981ED000A10E05449B1F959
:1028C0000000002801DB014600E04142494200EEE1
:1028D000101AB8EEC00A4F4981ED000A00BF00BFD0
:1028E0004E48008878283DDA5748006801280BD107
:1028F00004F052FC4648B0F9000000EE100AB8EEB1
:10290000C00A444880ED000A4F480068B8B904F096
:1029100043FC4748007810B1012822D110E03C491F
:10292000B1F90000002801DB014600E0414200EE61
:10293000101AB8EEC00A374981ED000A11E011E023
:102940003349B1F90000002801DB014600E04142B3
:10295000494200EE101AB8EEC00A2E4981ED000A75
:1029600000BF00BF3948007800287BD1384890ED7F
:10297000000A384880ED000A2648006805F062FC2D
:1029800041EC180B2E4890ED101BB0EE410AF0EE12
:10299000610A53EC102B51EC180B05F0EDF973D2D2
:1029A0001C48006805F04EFC41EC1A0B244890EDE1
:1029B000101BB0EE410AF0EE610A53EC102B51EC03
:1029C0001A0B05F055FB41EC190BB0EE490AF0EE7D
:1029D000690A04F0D5FAB0EE408AF0EE608A9FED05
:1029E0001E0B53EC102B51EC180B05F0FFFA44D2E0
:1029F0000A48008878280ADB0A48006841F28831D2
:102A0000884204D89FED160A114880ED000A2AE09A
:102A10005E0100206C0B0020EE0100204A0C00201B
:102A2000F00B0020CC0B00204000002058010020BB
:102A3000990100206C01002044000020D00B0020F0
:102A4000701300206401002068010020860100202E
:102A5000740B0020700B00200000000000407F403D
:102A600000803BC457E1AD480088782866DA9FEDC6
:102A7000AC0AAC4880ED000A60E09FEDAB0AA948C3
:102A800080ED000A5AE0FFE7A848006805F0DAFB8D
:102A900041EC180BA64890ED101BB0EE410AF0EE89
:102AA000610A53EC102B51EC180B05F09FFA45D23C
:102AB0009E48006805F0C6FB41EC1A0B9C4890ED5F
:102AC000101BB0EE410AF0EE610A53EC102B51ECF2
:102AD0001A0B05F0CDFA41EC190BB0EE490AF0EEF5
:102AE000690A04F04DFAB0EE408AF0EE608A1FEDFC
:102AF000260B53EC102B51EC180B05F077FA18D27B
:102B00008648008878280ADB8A48006841F28831C4
:102B1000884204D89FED880A824880ED000A7F48E9
:102B2000008878280ADA9FED850A7E4880ED000A41
:102B300004E09FED830A7B4880ED000A794890ED20
:102B4000000A8048D0ED000A30EE600A10EE101A3C
:102B5000084605F077FB41EC190BB0EE490AF0EEA0
:102B6000690A04F00DFAB0EE408AF0EE608A9FED3B
:102B7000760B53EC102B51EC180B05F037FA73D28F
:102B8000704890ED000A6748D0ED000A20EE200A58
:102B9000B5EEC00AF1EE10FA66DD6A4890ED000A63
:102BA0006B4880ED000A5F4890ED000A694880EDAF
:102BB000000A6448006805F045FB41EC1A0BB0EED2
:102BC0004A0AF0EE6A0A04F0DBF9B0EE408AF0EE51
:102BD000608A5448006805F035FB41EC1A0BB0EEF2
:102BE0004A0AF0EE6A0A04F0CBF9B0EE409AF0EE31
:102BF000609A53EC182B51EC190B05F0F7F906D23B
:102C00000120554908705548816988472CE04D4896
:102C1000006805F017FB41EC1A0BB0EE4A0AF0EE23
:102C20006A0A04F0ADF9B0EE408AF0EE608A3D48E1
:102C3000006805F007FB41EC1A0BB0EE4A0AF0EE13
:102C40006A0A04F09DF9B0EE409AF0EE609A53ECF7
:102C5000182B51EC190B05F08FF805D201204049D3
:102C600008703E48816988473B48007801281FD199
:102C70003A48016988473748D0ED000A344890ED5A
:102C8000001A30EEC11AD0ED000A41EE000A2548C4
:102C9000C0ED000A314801698847F7EE000AB4EE3A
:102CA000600AF1EE10FA26D100202B49087022E0CC
:102CB0002B48007801281ED12848016988472548FB
:102CC000D0ED000A224890ED001A30EEC11AD0ED86
:102CD000000A41EE000A1348C0ED000A1F480169CE
:102CE0008847F7EE000AB4EE600AF1EE10FA02D15E
:102CF00000201B490870134890ED000A0948D0EDE8
:102D0000000A20EE200AB5EEC00AF1EE10FA02D257
:102D1000012014490870BDEC088B10BD4A0C00203E
:102D200000002FC4740B0020000016C46C0B0020A0
:102D300070130020CC0B002000803B4400002F4487
:102D400000001644700B00200000000000C062402C
:102D5000780B00207C0B002087010020380B00201E
:102D600088010020860100200246002002EA0103BB
:102D70000BB1012000E000207047000010B51E4894
:102D80000068801C1C49086003F022F903F0C6F9B2
:102D9000FDF73AFE00F046FA03F0C6FA03F098FC9D
:102DA00000F098FC00F0C4FA00F0E4FF00F00EFA26
:102DB000FDF7EAFD02F058FA02F0F8F8FFF7B2F872
:102DC000FFF7F6F900F054FFFEF76AFB01F05EFD35
:102DD00000F04AFF09494860084640680968401AFF
:102DE00006498860084680680549884202DD00205F
:102DF0000449087010BD00004C0100206C10002038
:102E000020A10700BA0B002010B50020244908605B
:102E10002448C16F88472448C16F88472348C16F41
:102E200088472348C16F88472248C16F8847224896
:102E3000C16F88472148C16F88472148C16F8847C3
:102E40002048C16F88472048C16F88471F484FF40A
:102E5000C871C26990471D48816988471C484FF472
:102E6000FA61C26990471B484FF4FA61C269904702
:102E70001748816988471748816988479FED160A76
:102E8000164880ED000A9FED140A154880ED000AEF
:102E9000144890ED000A124880ED010A10BD0000B0
:102EA0004C010020A002002038030020D0030020A5
:102EB0006804002098050020C80600206007002054
:102EC000F8070020C0090020580A0020380B002015
:102ED000F00A0020140B002000000000800B0020EE
:102EE000541200207801002021B1026842F0010252
:102EF000026003E0026822F00102026070470000F5
:102F0000016821F0010101600021016041608160E0
:102F1000C1600161212141614A49884204D13D21BA
:102F2000484A103A91608CE046491831884205D1F0
:102F30004FF47461434A103A916082E04149303164
:102F4000884205D14FF474113E4A103A916078E0FE
:102F50003C494831884205D14FF07461394A103AF2
:102F600091606EE037496031884204D13649354A74
:102F7000103AD16065E033497831884204D1334951
:102F8000304A103AD1605CE02E499031884204D139
:102F90002F492C4A103AD16053E02A49A83188427F
:102FA00005D14FF03D51274A103AD16049E02949F7
:102FB000884204D13D21274A083A116041E0254961
:102FC0001831884205D14FF47461224A083A1160E1
:102FD00037E020493031884205D14FF474111D4A41
:102FE000083A11602DE01B494831884205D14FF065
:102FF0007461184A083A116023E01649603188422A
:1030000004D11149134A121F11601AE01149783195
:10301000884204D10D490F4A121F116011E00D4979
:103020009031884204D10A490A4A121F116008E00F
:103030000849A831884204D14FF03D51054A121F7A
:1030400011607047106002403D000020400F0020DA
:1030500000003D201064024021B1026842F4802249
:10306000026003E0026822F480220260704722B10D
:10307000036843F40023036003E0036823F40023A0
:103080000360016170470146486880B2704701469D
:1030900000200A6802F400220AB1012000E00020AA
:1030A0007047000010B500220268134B1A40CC682C
:1030B0000B6823434C6923438C692343CC69234326
:1030C0000C6A23434C6A23438C6A23434C6B23438F
:1030D0008C6B23431A430260426922F00702D1E954
:1030E0000B3423431A4342610B6943604B6883608E
:1030F0008B68C36010BD00003F801CF000210160A0
:1031000041608160C160016141618161C1610162B1
:1031100041628162C16201634163816370477047AC
:10312000C17A064A1160017B5160417B9160817BCD
:10313000D160C17B1161017C516170473016002064
:1031400070B50446D4E9000140EA0120218940EA33
:103150000140217B40EA016020612069C0F3C75033
:103160007F3860612069C0F31600A061002527E068
:103170005DB9B0EE000AA16A60698847F7EE000AFF
:1031800020EE200A84ED080A19E0691E4FF480023F
:103190000A41A0691040C5F117010841E061626968
:1031A000501BB0EE000AA16A8847D4ED080A94EDDE
:1031B000071AB8EEC11A41EE000AC4ED080A6D1CE8
:1031C000182DD5DB94ED080A70BD000010B50F482E
:1031D000007801280CD10E490988484204F0A1FD6D
:1031E0000C4A03C20A49088804F0B2FD0A4A03C225
:1031F0000648007848B99FED090B064880ED000BA2
:103200009FED060B044880ED000B10BD010100206E
:1032100038010020D00300206804002000000000D6
:103220000000000010B59FED300B314880ED080B19
:103230009FED300B80ED0A0B9FED300B80ED0C0BFA
:103240009FED300B314880ED080B9FED310B80ED89
:103250000A0B9FED2F0B80ED0C0B2F480068B0F18F
:10326000FF3F11D010B101282AD11BE09FED280BA0
:103270001F4880ED000B294890ED100B1C4880ED95
:10328000020B816F88471CE09FED250B184880EDED
:10329000000B224890ED100B154880ED020B816F5A
:1032A00088470EE09FED200B114880ED000B1B4876
:1032B00090ED100B0E4880ED020B816F884700E007
:1032C00000BF00BF0A4890ED1A0B104880ED000BBC
:1032D0001249886B04F025FD0C4AC2E90201104630
:1032E000816F884710BD00000000000000003440DE
:1032F000900800207B14AE47E17A843F0000000074
:103300000000F03F000000000000244028090020D9
:103310000000000000000000600B0020801500206D
:1033200000000000008046C0000000000080464011
:1033300010B52DED0C8BCA4890ED000AFBEE0F0A7C
:10334000B4EEE00AF1EE10FA04D8BBEE0F0A80EDFD
:10335000000A0DE0C24890ED000AF1EE040AB4EE56
:10336000E00AF1EE10FA03DBB1EE040A80ED000A88
:1033700000F048FC052805D1BA480078012801D1A1
:10338000B949086000F03EFC052805D1B548007831
:1033900010B90220B449086000F034FC04287CD144
:1033A000B248006804F04EFF41EC1B0BB0EE4B0A34
:1033B000F0EE6B0A03F0E4FDB0EE409AF0EE609A96
:1033C000AA48006804F03EFF41EC1A0B53EC192B9D
:1033D00004F0E4FA41EC180B04F0FAF9A44908608F
:1033E000A24890ED000AF2EE040A30EE200A10EE38
:1033F000101A084604F026FF9E4A03C29E4890ED2C
:10340000100B9C4880ED020B90ED022BB0EE420AAF
:10341000F0EE620A90ED002BB0EE421AF0EE621A66
:1034200053EC102B51EC110B04F022FE41EC1D0B60
:10343000B0EE4D0AF0EE6D0A03F0A2FDB0EE40CA08
:10344000F0EE60CA9FED8D0B53EC102B51EC1C0B72
:1034500004F0CEFC41EC1B0BB0EE4B0AF0EE6B0A15
:1034600003F0E2FBB0EE40AAF0EE60AA9FED850B00
:1034700053EC102B51EC1A0B04F0EEFD41EC190B40
:103480009FED820B53EC102B04F0B2FC41EC180BB7
:103490009FED800B53EC102B00E022E004F0CAF902
:1034A000744AC2E908019FED7D0B104680ED0A0BBE
:1034B0009FED7C0B80ED0C0B9FED7C0B7D4880ED30
:1034C000080B9FED7D0B80ED0A0B9FED7B0B80EDD4
:1034D0000C0B1046816F8847664890ED1A0B80ED03
:1034E0001A0B00F08FFB78B100F08CFB01280BD099
:1034F00000F088FB062807D000F084FB082803D0E2
:103500005948006802286CD19FED6D0B594880ED39
:10351000080B9FED6D0B80ED0A0B9FED620B80EDAC
:103520000C0B9FED620B634880ED080B9FED620B67
:1035300080ED0A0B9FED600B80ED0C0B00F062FB41
:1035400018B100F05FFB072822D19FED5B0B4948C3
:1035500080ED000B5E480169884710EE104A204656
:1035600004F070FE41EC180B434890ED101BB0EED8
:10357000410AF0EE610A53EC102B51EC180B04F0E9
:1035800037FC3C4AC2E902011046816F884728E0B7
:10359000334890ED000AB1EE400A10EE101A0846CA
:1035A00004F050FE334A03C249480169884710EECF
:1035B000104A204604F046FE41EC180B2E4890EDD0
:1035C000101BB0EE410AF0EE610A53EC102B51ECE7
:1035D000180B04F00DFC274AC2E902011046816F66
:1035E0008847244890ED1A0B324880ED000B2249A1
:1035F000886B04F096FB2F4AC2E902011046816FE6
:1036000088472C4890ED1A1BB0EE410AF0EE610A93
:1036100003F0B6FCB0EE409AF0EE609A254890EDCB
:103620001A1BB0EE410AF0EE610A53EC192B51EC73
:10363000100B04F0B3F941EC180B1E4890ED1A1B67
:10364000B0EE410AF0EE610A53EC102B51EC180B6E
:1036500004F0F0F8174AC2E91A01BDEC0C8B10BD5A
:1036600054120020B80B0020A80B00202C000020D2
:10367000A00B002098050020281500209A99999900
:103680009999B9BF000000000000F03F0000000061
:10369000000044400000000000004E409A999999B3
:1036A0009999B93F000000000000004000000000B0
:1036B00000003E40C806002000000000000000009E
:1036C0000000000000005940B81E85EB51B89E3F35
:1036D000F00A002010B52DED0C8B00F093FA0428B1
:1036E00003D0DD48006801287CD1DC4890ED000A59
:1036F000DB48D0ED000A30EE600ADA4880ED000ABF
:10370000D5480068D84908600020D3490860D448EB
:10371000006804F097FD41EC1B0BB0EE4B0AF0EE95
:103720006B0A03F02DFCB0EE409AF0EE609ACC48A4
:10373000006804F087FD41EC1A0B53EC192B04F0E0
:103740002DF941EC180B04F043F8C8490860C4484F
:1037500090ED000AB1EE400A10EE100A04F072FD7E
:10376000C34A03C2C34890ED000AB1EE400A10EE0E
:10377000100A04F067FDBE4AC2E90201104690ED4E
:10378000022BB0EE420AF0EE620A90ED002BB0EE92
:10379000421AF0EE621A53EC102B51EC110B04F0AC
:1037A00067FC41EC1D0BB0EE4D0AF0EE6D0A03F024
:1037B000E7FBB0EE40CAF0EE60CA9FEDAF0B53ECF2
:1037C000102B51EC1C0B04F013FB41EC1B0BB0EE67
:1037D0004B0AF0EE6B0A03F027FAB0EE40AAF0EEC7
:1037E00060AA00E073E09FEDA60B53EC102B51ECA8
:1037F0001A0B04F031FC41EC190B9FEDA30B53ECB9
:10380000102B04F0F5FA41EC180B9FEDA10B53ECD3
:10381000102B04F00FF8964AC2E90801104690ED0B
:10382000022BB0EE420AF0EE620A90ED002BB0EEF1
:10383000421AF0EE621A53EC102B51EC110B04F00B
:1038400017FC41EC1A0BB0EE4A0AF0EE6A0A03F0DC
:1038500097FBB0EE408AF0EE608A9FED870B53EC49
:10386000102B51EC180B04F0C3FA41EC1B0BB0EE1B
:103870004B0AF0EE6B0A03F0D7F9B0EE409AF0EE87
:10388000609A9FED850B53EC102B51EC190B04F053
:10389000AFFA774AC2E90A019FED810B104680ED2D
:1038A0000C0B9FED810B824880ED080B9FED810B87
:1038B00080ED0A0B9FED7A0B80ED0C0B1046816FAB
:1038C0008847674890ED000A644880ED000A00F0E0
:1038D00099F918B100F096F9072827D19FED6C0BE4
:1038E000634880ED080B9FED750B80ED0A0B9FED93
:1038F000750B80ED0C0B9FED6C0B6D4880ED080B8C
:103900009FED720B80ED0A0B9FED720B80ED0C0B9F
:10391000724890ED100B564880ED000B6F4890ED0B
:10392000100B534880ED020B816F884700F06AF955
:10393000062831D19FED560B4D4880ED080B9FEDC9
:103940005D0B80ED0A0B9FED5F0B80ED0C0B9FED87
:10395000640B574880ED080B9FED5C0B80ED0A0B64
:103960009FED5C0B80ED0C0B5F4890ED010A10EEB3
:10397000101A084604F066FC3D4A03C2574890ED11
:10398000100B3B4880ED020B5848007800F0070010
:1039900010B13748816F884700F034F9012807D00B
:1039A00000F030F9082803D02B480068022832D1F3
:1039B000294800682C4908600020274908609FEDCD
:1039C000340B2B4880ED080B9FED3A0B80ED0A0B72
:1039D0009FED3E0B80ED0C0B9FED450B344880EDC9
:1039E000080B9FED3A0B80ED0A0B9FED3A0B80ED33
:1039F0000C0B3D4890ED010A10EE101A084604F039
:103A000021FC1B4A03C2354890ED100B184880ED8D
:103A1000020B816F8847164890ED1A1BB0EE410AE1
:103A2000F0EE610A9FED341B53EC112B51EC100B9F
:103A300004F0DEF91E4A03C23149B1F904104842CC
:103A400004F06FF91A4AC2E902011046816F8847F3
:103A5000BDEC0C8B10BD0000A80B00203000002036
:103A600034000020880B0020AC0B0020980B0020B5
:103A700060070020D8000020333333333333D3BF03
:103A8000000000000000F03F000000000000444083
:103A90000000000000005940FCA9F1D24D62503FE7
:103AA000000000000000084000000000000024406A
:103AB000F80700207B14AE47E17A743F7B14AE47D1
:103AC000E17A843F00000000000014400000000084
:103AD000000000000000000000000040D0140020A2
:103AE0000000000000003940541200204C0100206A
:103AF0000000000000003E40000000000000E03F29
:103B0000DC000020F0B50A4600210023002400BF9D
:103B10003DE0012505FA01F3156805EA03049C421E
:103B200034D105684F000326BE40B54305601579C2
:103B30004E00B5400668354305601579012D02D069
:103B40001579022D16D185684F000326BE40B54376
:103B5000856055794E00B540866835438560456877
:103B600001268E40B5434560456896798E40B6B2D1
:103B700035434560C5684F000326BE40B543C56068
:103B8000D5794E00B540C6683543C560491C10293B
:103B9000BFD3F0BDF0B5002300244D07ED0E02FAAF
:103BA00005F3CE1000F1200555F826504E07F70E0C
:103BB0000F26BE40B543CF1000F1200646F827502F
:103BC000CE1000F1200555F8265045EA0304CE102A
:103BD00000F1200545F82640F0BD018370474FF6FF
:103BE000FF7101600021017141718171C1717047E4
:103BF0000A7BCB7A42EA032242614269026042694F
:103C0000826070470148007870470000B70B0020C1
:103C100030B5034613B94FF6FF7030BD09E013F815
:103C2000014B82EA0400C0B2054D35F8100080EA6D
:103C30002222081EA1F10101F1D11046EDE700009A
:103C40006A84000830B5034605E013F8010B80EAEA
:103C500002040448025D081EA1F10101F5D11046DD
:103C600030BD0000698300084FF08040406A704713
:103C700010B5FFF7C7FF01280BD0FFF7C3FF0528DA
:103C800007D0FFF7BFFF042803D0FFF7BBFF0828CA
:103C900052D12A480078012823D1002028490870F1
:103CA000284908709FED280A284880ED000A90ED09
:103CB000000AB5EEC00AF1EE10FA06D89FED220A0E
:103CC00080ED000A02201D490870214890ED000A8D
:103CD0001E48D0ED000A20EE200A1E4880ED000AA2
:103CE0002AE016480078022820D1B7EE000A1748CB
:103CF00080ED000A90ED000AF7EE000AB4EEE00A4B
:103D0000F1EE10FA06DBB7EE000A80ED000A0020A3
:103D10000A490870104890ED000A0C48D0ED000ADE
:103D200020EE200A0B4880ED000A05E00A4890EDDD
:103D3000000A084880ED000A10BD0000860100203E
:103D4000870100208801002000000000640B002093
:103D5000700B0020800B0020740B002003490988A1
:103D6000014409B2014A118070470000C40B0020D1
:103D700000BFFEE702480078024908707047000063
:103D8000400100204601002010B50446FFF76CFFFB
:103D90007849086004B910BD207C617C00EB0120EB
:103DA00000B200EE100AB8EEC00ABDEEC00A10EE76
:103DB000100A00B270490880A07CE17C00EB012071
:103DC00000B200EE100AB8EEC00ABDEEC00A10EE56
:103DD000100A00B268494880207D617D00EB012017
:103DE00000B200EE100AB8EEC00ABDEEC00A10EE36
:103DF000100A00B260498880E07D217E00EB01203E
:103E000000B200EE100AB8EEC00ADFED5C0A80EEE8
:103E1000201A5B4880ED001A607EA17E00EB012035
:103E200000B200EE100AB8EEC00AB1EE400ADFEDB3
:103E3000530A80EE201A524880ED011AE07E217F5D
:103E400000EB012000B200EE100AB8EEC00AF2EE5C
:103E5000040A80EE201A4B4880ED001A4A4890ED83
:103E6000000A4A4880ED000A454890ED010A46489C
:103E700080ED000A464890ED000A464880ED000AB1
:103E8000404890ED000A424880ED000A90ED000A9B
:103E90004048D0ED000A30EE600ADFED3F0AB4EE94
:103EA000E00AF1EE10FA04DD3C480068401E3B4990
:103EB0000860374890ED000A3648D0ED000A30EE31
:103EC000600ADFED370AB4EEE00AF1EE10FA04D230
:103ED00032480068401C31490860304800684FF49F
:103EE000B471484300EE100AB8EEC00A2848D0ED7D
:103EF000000A30EE200A224880ED020A224890EDA6
:103F0000000A2248D0ED000A30EE600ADFED220AF6
:103F1000B4EEE00AF1EE10FA04DD22480068401E1B
:103F200020490860184890ED000A1848D0ED000AB2
:103F300030EE600ADFED1A0AB4EEE00AF1EE10FA94
:103F400004D218480068401C1649086015480068EB
:103F50004FF4B471484300EE100AB8EEC00A0A48A4
:103F6000D0ED000A30EE200A054880ED010A00BFBE
:103F700011E7000086100020DC0000200000C8428D
:103F800030120020D8000020FC000020F8000020A3
:103F9000F4000020F000002000009643E80000201C
:103FA000000096C3EC00002000BFFEE72DE9F041C1
:103FB0002DED088B04460D46002600272068606022
:103FC000287BE97A40EA0120206020686168401A75
:103FD000E060E06810F5805F07DA606B401C6063AA
:103FE000E06800F50050A0610DE0E068B0F5805F8A
:103FF00007DD606B401E6063E068A0F50050A061C3
:1040000001E0E068A061A269207C411C217404F1F8
:104010001C0141F820202168606B01EB4030A0605A
:10402000616B4FF4B47201FB02F003F07AFE9FED76
:104030001C0B53EC102B03F0B1FC41EC180B216866
:104040006269881A03F06DFE9FED170B53EC102B7D
:1040500003F0CEFE9FED160B53EC102B03F09EFCED
:1040600053EC182B03F0E6FB41EC100B84ED100B26
:10407000207C062801D100202074002605E004F1F0
:104080001C0050F826000744761C062EF7DB06209D
:1040900097FBF0F0A063BDEC088BBDE8F081000059
:1040A000000000000000424000000000000024402A
:1040B000000000000000C0402DE9F0412DED0A8B0A
:1040C00004460D4600260027B046002008EE100AE0
:1040D00020686060287BE97A40EA0120206020683F
:1040E0006168401AE060E06810F5805F07DA606B95
:1040F000401C6063E06800F50050A0610DE0E068DE
:10410000B0F5805F07DD606B401E6063E068A0F57E
:104110000050A06101E0E068A061A269207C411C20
:10412000217404F11C0141F820202168606B01EB2F
:104130004030A060616B4FF4B47201FB02F003F0F9
:10414000F0FD9FED2A0B53EC102B03F027FC41EC04
:10415000190B21686269881A03F0E3FD9FED250BB6
:1041600053EC102B03F044FE9FED240B53EC102B6B
:1041700003F014FC53EC192B03F05CFB41EC100B27
:1041800084ED100B207C062801D10020207400262D
:1041900005E004F11C0050F826000744761C062EAA
:1041A000F7DBA97B687B41EA00200FFA80F84046E4
:1041B00003F0B7FD41EC1A0B9FED0C0B53EC102BE9
:1041C00003F0ECFB41EC190B03F07CFDA063297CB0
:1041D000E87B41EA002000B208EE100AB8EEC80AF7
:1041E00084ED140ABDEC0A8BBDE8F08100000000EC
:1041F0000000334028AFA1BC86F23240000000002E
:104200000000C0402DE9F0472DED088B04460D4617
:104210000026B14600BF00BF20686060287BE97AB5
:1042200040EA0120206020686168401AE060E06890
:1042300010F5805F07DA606B401C6063E06800F592
:104240000050A0610DE0E068B0F5805F07DD606BB5
:10425000401E6063E068A0F50050A06101E0E068E6
:10426000A061A269207C411C217404F11C0141F869
:1042700020202168606B01EB4030A060616B4FF43F
:10428000B47201FB02F003F04CFD41EC180B216805
:104290006269881A03F045FD9FED290B53EC102B42
:1042A00003F0A6FD9FED280B53EC102B03F076FBDB
:1042B00053EC182B03F0BEFA41EC100B84ED100BFD
:1042C00021686269881A03F02CFD9FED1D0B53ECE9
:1042D000102B03F08DFD9FED1C0B53EC102B03F006
:1042E0005DFB41EC100B84ED120B207C062801D104
:1042F00000202074002605E004F11C0050F8260080
:104300008144761C062EF7DBA97B687B41EA0028F6
:104310004FF4B47018FB00F03C2190FBF1F0A06367
:10432000297CE87B41EA002007B200EE107AB8EE63
:10433000C00A84ED140ABDEC088BBDE8F0870000CC
:104340000000000000807640000000000000C04037
:104350007047000070B5002100230F22C4781CB301
:10436000174C246804F4E064C4F5E064C4F3072146
:10437000C1F10404E3B20A4144789C40E1B284787C
:10438000144021430C07210E0E4C0578615504782A
:1043900004F01F050124AC4005786D11AD0005F156
:1043A000E025C5F8004109E0047804F01F05012468
:1043B000AC40054D0678761145F8264070BD0000EA
:1043C0000CED00E000E400E080E100E00249014380
:1043D000024A1160704700000000FA050CED00E091
:1043E00010B52DED028B044694ED022BB0EE420A7F
:1043F000F0EE620A94ED002BB0EE421AF0EE621A73
:1044000053EC102B51EC110B03F032FEC4E9040104
:1044100094ED222BB0EE420AF0EE620A94ED042BEA
:10442000B0EE421AF0EE621A53EC102B51EC110B65
:1044300003F0DCFD16D994ED221BB0EE410AF0EE3C
:10444000610A51EC100B03F0B7F941EC180B94ED35
:10445000041BB0EE410AF0EE610A53EC102B03F09E
:10446000C5FD7DD294ED042BB0EE420AF0EE620A57
:1044700094ED082BB0EE421AF0EE621A53EC102BBA
:1044800051EC110B03F0B4FCC4E90E0194ED141BC4
:10449000B0EE410AF0EE610A51EC100B03F08CF91A
:1044A00041EC180B94ED0E1BB0EE410AF0EE610AE0
:1044B00053EC102B03F09AFD0CD894ED141BB0EEC6
:1044C000410AF0EE610A51EC100B03F075F9C4E9F2
:1044D0000E0116E094ED142BB0EE420AF0EE620AE3
:1044E00094ED0E2BB0EE421AF0EE621A53EC102B44
:1044F00051EC110B03F07AFD03D894ED140B84ED0D
:104500000E0B94ED042BB0EE420AF0EE620A94ED2D
:104510000A2BB0EE421AF0EE621A53EC102B51EC5B
:10452000110B03F065FC41EC180B94ED101BB0EE81
:10453000410AF0EE610A53EC102B03F07BF9C4E959
:10454000100194ED161BB0EE410AF0EE610A51EC39
:10455000100B03F031F941EC180B94ED101B00E047
:10456000D5E0B0EE410AF0EE610A53EC102B03F0F7
:104570003DFD0CD894ED161BB0EE410AF0EE610A39
:1045800051EC100B03F018F9C4E9100116E094ED9A
:10459000162BB0EE420AF0EE620A94ED102BB0EE4C
:1045A000421AF0EE621A53EC102B51EC110B03F08F
:1045B0001DFD03D894ED160B84ED100B94ED241B18
:1045C000B0EE410AF0EE610A9FED741B53EC112B23
:1045D00051EC100B03F03AFB1ED194ED062BB0EE1C
:1045E000420AF0EE620A94ED042BB0EE421AF0EEAD
:1045F000621A53EC102B51EC110B03F0F9FB41EC58
:10460000180B9FED680B53EC102B03F0B5FB03D296
:104610009FED640B84ED100B94ED062BB0EE420A77
:10462000F0EE620A94ED042BB0EE421AF0EE621A3C
:1046300053EC102B51EC110B03F01AFD41EC180B4D
:1046400094ED0C1BB0EE410AF0EE610A53EC102B16
:1046500003F0CEFBC4E9120194ED181BB0EE410A41
:10466000F0EE610A51EC100B03F0A6F841EC180BC8
:1046700094ED121BB0EE410AF0EE610A53EC102BE0
:1046800003F0B4FC0CD894ED181BB0EE410AF0EE28
:10469000610A51EC100B03F08FF8C4E9120116E027
:1046A00094ED182BB0EE420AF0EE620A94ED122B54
:1046B000B0EE421AF0EE621A53EC102B51EC110BD3
:1046C00003F094FC03D894ED180B84ED120B94EDD9
:1046D000102BB0EE420AF0EE620A94ED0E2BB0EE13
:1046E000421AF0EE621A53EC102B51EC110B03F04E
:1046F000A1F841EC180B94ED121BB0EE410AF0EE5C
:10470000610A53EC102B03F095F8C4E9200194EDF5
:10471000200B84ED1A0B94ED1C1BB0EE410AF0EE59
:10472000610A51EC100B03F047F841EC180B94EDC3
:104730001A1BB0EE410AF0EE610A53EC102B03F0A5
:1047400055FC0CD894ED1C1BB0EE410AF0EE610A4A
:1047500051EC100B03F030F8C4E91A0116E094EDA7
:104760001C2BB0EE420AF0EE620A94ED1A2BB0EE6A
:10477000421AF0EE621A53EC102B51EC110B03F0BD
:1047800035FC03D894ED1C0B84ED1A0B94ED040B4F
:1047900084ED060BBDEC028B10BD00000000000094
:1047A0000000F03F00000000000000009FED120B31
:1047B00080ED000B9FED100B80ED020B9FED0E0BBB
:1047C00080ED040B9FED0C0B80ED060B9FED0A0BAB
:1047D00080ED0E0B9FED080B80ED100B9FED060B8F
:1047E00080ED120B9FED040B80ED200B9FED020B73
:1047F00080ED1A0B70470000000000000000000070
:104800007047000000B587B00121080200F0D6F81B
:104810000121042000F0D2F82020019000208DF822
:1048200008008DF80A0001208DF80B0003208DF898
:10483000090001A91348FFF765F9802005900020C1
:104840008DF818008DF81A0001208DF81B00032048
:104850008DF8190005A90C48FFF754F94020039082
:1048600000208DF810008DF8120001208DF8130043
:1048700003208DF8110003A90348FFF743F907B09F
:1048800000BD000000080240002002403C480068D3
:104890003C4908703C48007801280BD10846007854
:1048A00040B90120394908700020394908600120C9
:1048B000384908603548007801280CD1364908800D
:1048C0000020364908703649486308602F4908704F
:1048D0000120344908602B48007878B92C480068DA
:1048E000401C2B49086008460068B0F5FA7F05DDDA
:1048F00000202A49087001202749088021480078B3
:10490000214908701E480830006827490870274868
:10491000007801280BD10846007840B901202449CD
:1049200008700020234908600120234908602048BE
:10493000007801280CD11849088018490870002017
:104940001749486308601A49087001201549086032
:104950001548007870B917480068401C1549086070
:1049600008460068B0F5FA7F04DD01200B490870A5
:10497000094908800C4800780C490870704700000D
:1049800014024442E9010020E8010020F401002063
:10499000F801002000020020EE0100209901002013
:1049A0007013002058010020ED010020EC010020D0
:1049B000F6010020FC0100200402002029B1064A73
:1049C00012680243044B1A6004E0034A12688243EF
:1049D000014B1A60704700003038024029B1064A86
:1049E00012680243044B1A6004E0034A12688243CF
:1049F000014B1A60704700004038024029B1064A56
:104A000012680243044B1A6004E0034A12688243AE
:104A1000014B1A60704700002038024029B1064A55
:104A200012680243044B1A6004E0034A126882438E
:104A3000014B1A60704700004438024029B1064A11
:104A400012680243044B1A6004E0034A126882436E
:104A5000014B1A607047000024380240F0B5002175
:104A600000220024022500260223324F3F6807F06F
:104A70000C0121B1042905D0082937D105E02E4FBA
:104A8000076036E02D4F076033E02A4F3F1F3F6835
:104A9000C7F38056274F3F1F3F6807F03F036EB1B3
:104AA000264FB7FBF3F7DFF88CC0ACF1040CDCF851
:104AB00000C0CCF3881C07FB0CF40CE01E4FB7FBC6
:104AC000F3F7DFF870C0ACF1040CDCF800C0CCF3F5
:104AD000881C07FB0CF4174F3F1F3F68C7F30147C3
:104AE0007F1C7D00B4FBF5F7076002E0124F076002
:104AF00000BF00BF0F4F3F6807F0F0010909104FDA
:104B00007A5C0768D74047600A4F3F6807F4E05176
:104B1000890A0B4F7A5C4768D7408760054F3F682A
:104B200007F46041490B064F7A5C4768D740C7607D
:104B3000F0BD0000083802400024F400001BB7005C
:104B400000000020D0E90012914211DA0168491CEE
:104B5000016090ED000AF8EEC00A90ED010AB8EE8F
:104B6000C00A80EE801A80ED021A90ED020A7047AA
:104B7000B7EE000AFBE77047014691ED000AF8EE38
:104B8000C00A91ED010AB8EEC01A80EE810AF7EE74
:104B9000000AB4EEE00AF1EE10FA01DB01207047E2
:104BA0000020FCE700210160704701607047416010
:104BB0007047000010B52DED088B044614B9BDEC0C
:104BC000088B10BDFFF750F88049086020786178A5
:104BD00040EA0120C0F30A007D4908806078C010D7
:104BE000A17840EA4110C0F30A0079494880A078D2
:104BF0008011E17840EA8100217940EA8120C0F308
:104C00000A007349888020794010617940EAC11018
:104C1000C0F30A006E49C8806079001180080872EC
:104C20006079C0F301104872A079E17940EA01206F
:104C300000B267494881207A617A40EA012001B2D6
:104C400063488181A07AE17A40EA012001B260489C
:104C5000C181217B8174617BC174A07BE17B40EACF
:104C600001205B4988820846B0F90200A0F5806007
:104C700000EE100AB8EEC00A564880ED000AB1F9FD
:104C80000610A1F5806003F04CF841EC1B0B9FED82
:104C9000520B53EC102B03F0ABF841EC190B5048BE
:104CA00090ED000A10EE101A084603F0CBFA41EC22
:104CB0001A0B53EC192B02F0BDFD41EC180B02F05E
:104CC00087FD474908604249B1F90410A1F58060A9
:104CD00003F027F841EC1B0B9FED420B53EC102B1C
:104CE00003F086F841EC190B3D4890ED010A10EEF7
:104CF000101A084603F0A6FA41EC1A0B53EC192BD4
:104D000002F098FD41EC180B02F062FD3449486056
:104D10002F48407A012802D10220344908702C48DB
:104D2000407A032802D10120304908702848407A8F
:104D3000022804D100202D4908702D49086024481C
:104D4000407A01283AD12248007A032803D020482B
:104D5000007A012802D10120264908701C48007AF7
:104D6000022802D10020234908701948007A01283E
:104D700001D1214908601648007A022803D014485E
:104D8000007A032802D100201B490860104890F9DE
:104D9000080001280DD0022802D003280DD103E01D
:104DA00000201349086008E04FF0FF301049086008
:104DB00003E001200E49086000BF00BF0448407AAC
:104DC000032800D100BF00BFF9E600006C100020EE
:104DD0003C120020800B0020FA7E6ABC7493683F6E
:104DE00054120020D42B6519E258673FBA0B0020FB
:104DF000600B0020010100203401002001460C4816
:104E000000680B4A5268904201D10120704708485F
:104E100002680830805C087005480068401C044A3D
:104E20001060642801DB002010600020EEE7000025
:104E3000031300200E494A6808318854083949682C
:104E4000491C0B4A5160642901DB0021516008496B
:104E50004968074A1268914208D105490968491C06
:104E6000034A1160642901DB0021116070470000D2
:104E7000031300207047000070B50646444890EDCB
:104E8000000ADFED440A30EE200AF2EE040A20EEBA
:104E9000200ABDEEC00A10EE104A3F4890ED000A0D
:104EA000DFED3E0A30EE200AF2EE040A20EE200A80
:104EB000BDEEC00A10EE105A5220394908704D203C
:104EC00048704E2088704C20C8704FF47A7094FB64
:104ED000F0F0303008714FF47A7094FBF0F100FB81
:104EE0001140642190FBF1F030302D49487164206D
:104EF00094FBF0F100FB11400A2190FBF1F03030FF
:104F0000274988710A2094FBF0F100FB11403030F2
:104F10002349C8714FF47A7095FBF0F03030087275
:104F20004FF47A7095FBF0F100FB1150642190FB77
:104F3000F1F030301A494872642095FBF0F100FB23
:104F400011500A2190FBF1F03030154988720A2087
:104F500095FBF0F100FB115030301149C8720EE0A2
:104F60000F48104A1268815C0F4801F01FF80D4885
:104F70000068401C0B490860962002F0C1F80948FF
:104F80000068B042ECDB00200649086070BD0000FC
:104F9000D800002000003443301200200000B4424A
:104FA0002C100020580000200048004070B5FEF78B
:104FB00029FE072816D100221146284800F0FEF8E5
:104FC000274890ED1A1BB0EE410AF0EE610A51EC51
:104FD000100B02F077FE04B200222146214800F0B7
:104FE00017F939E0204890ED1A1BB0EE410AF0EEB7
:104FF000610A51EC100B02F065FE04B21B4890ED03
:105000001A1BB0EE410AF0EE610A51EC100B02F0EF
:1050100059FE05B222462946104800F0CFF8144840
:1050200090ED1A1BB0EE410AF0EE610A51EC100B44
:1050300002F048FE04B20A4890ED1A1BB0EE410A95
:10504000F0EE610A51EC100B02F03CFE05B2224674
:105050002946044800F0DCF870BD00000064004000
:105060002809002000680040C8060020F80700203A
:10507000580A00200CB500200190009034480068C8
:1050800040F480303249086000BF3148006800F4C5
:10509000003000900198401C0190009818B90198C8
:1050A000B0F5A04FF1D12A48006800F4003010B1EB
:1050B0000120009001E0002000900098012846D1D6
:1050C00023484030006840F080502149403108605A
:1050D0002048006840F440401E4908601C480830E1
:1050E00000681B49083108600846006840F4004029
:1050F00008600846006840F4A05008601648091F80
:105100000860081F006840F08070091F086000BF39
:105110000F48006800F000700028F9D040F20570D8
:105120000E4908600A480830006820F0030008496A
:10513000083108600846006840F00200086000BFBF
:1051400003480830006800F00C000828F8D10CBDB6
:1051500000380240007000400C544007003C024000
:105160002DE9F04186B080460C4615461E460C9F40
:105170004FF40070019000208DF80C008DF80D00A8
:1051800008208DF80E00200A8DF80F008DF81040D1
:10519000290A8DF811108DF81250310A8DF813106C
:1051A0008DF81460390A8DF815108DF8167001A964
:1051B0004046FCF7E2F806B0BDE8F08170B586B075
:1051C00006460C46154640F2FF10019000208DF86F
:1051D0000C008DF80D0008208DF80E00280A8DF8BF
:1051E0000F008DF81050FF218DF811108DF812105E
:1051F000210A8DF813108DF81440FF218DF8151039
:105200008DF8161001A93046FCF7B7F806B070BD4E
:1052100070B586B006460C46154640F2FF10019068
:1052200000208DF80C008DF80D0008208DF80E0080
:10523000FF208DF80F00FF218DF81010210A8DF846
:1052400011108DF81240290A8DF813108DF81450A2
:10525000FF218DF815108DF8161001A93046FCF7C6
:105260008CF806B070BD000010B59FED2D0B2E48D8
:1052700080ED080B9FED2A0B80ED0A0B9FED280BAC
:1052800080ED0C0B9FED290B2A4880ED080B9FED5C
:10529000240B80ED0A0B9FED220B80ED0C0B2648B2
:1052A0000068012816D12549B1F90010C1EB0111A0
:1052B000880002F036FD1C4A03C2214890ED100B15
:1052C000194880ED020B816F88479FED1E0B19482E
:1052D00080ED000B1A4880690A2804DA9FED1B0B49
:1052E000144880ED000B1648806910F1050F04DAB0
:1052F0009FED140B0F4880ED000B0F48006820B99C
:105300009FED070B0B4880ED000B0D49886B02F0F9
:1053100008FD084AC2E902011046816F884710BDA6
:105320000000000000000000C00900200000000094
:1053300000004E40580A002034010020B40B002029
:10534000D81500200000000000406F400000000061
:1053500000407FC07047000010B51548006840F459
:105360007000134908601348006840F001001149BB
:10537000086000200F49083108600E4800680E4997
:1053800008400C4908600D48091D0860081F0068A6
:1053900020F48020091F0860002006490C310860B5
:1053A000FFF768FE4FF0006001498039086010BDCA
:1053B00088ED00E000380240FFFFF6FE10300024C8
:1053C0000EB501210846FFF709FB4FF0FF300190B1
:1053D0005320ADF800000020ADF80800ADF8020041
:1053E00069464FF0804000F0A3F80121880700F0E3
:1053F00067F80121880700F075F80EBD10B501218E
:10540000880700F07BF838B10121880700F067F8C1
:105410000121880700F060F810BD00000EB50121E1
:105420001020FFF7DBFA5320ADF800000020ADF8A4
:105430000200ADF808004FF4FA600190694609488F
:1054400000F076F836208DF8080000208DF809006D
:105450008DF80A0001208DF80B0002A8FEF77AFFF4
:105460000EBD00000010004010B50121094800F0F9
:1054700045F870B10121074800F031F801210548D5
:1054800000F02AF8FDF77AFC03480068401C024946
:10549000086010BD00100040B400002010B50121CC
:1054A000064800F01FF801221146044800F037F8C2
:1054B0000121024800F010F810BD0000001000406B
:1054C00021B1028842F08002028004E002884FF697
:1054D0007F731A4002807047CA4302827047CA43F2
:1054E0000282704721B1028842F00102028004E08A
:1054F00002884FF6FE731A400280704730B50246AC
:10550000002000230024158A05EA0103958905EA95
:10551000010413B10CB1012000E0002030BD1AB12C
:1055200083890B43838102E083898B4383817047A6
:1055300000220288184B98420ED0184B98420BD08C
:10554000B0F1804F08D0164B984205D0154B9842C9
:1055500002D0154B984204D14FF68F731A404B88F6
:105560001A43124B984207D0114B984204D04FF681
:10557000FF431A400B891A4302804B68C3620B88B1
:105580000385054B984202D0044B984201D18B7A97
:10559000038601238382704700000140000401401C
:1055A0000004004000080040000C004000100040D3
:1055B000001400402DE9F04106460F464FF0010867
:1055C000002002EE100A0025002419E008FA04F079
:1055D0003040204102EE100A2046B0EE000A01F0F1
:1055E00083FFF0EE400A00EE105AB8EEC00AB8EEA3
:1055F000C21A01EE200ABDEEC00A10EE105A641C59
:10560000BC42E3DB2846BDE8F081000000B58FB066
:1056100001210220FFF7D2F901218805FFF7CEF919
:1056200001211020FFF7FAF9072211464248FEF740
:10563000B1FA0DA8FEF7D3FA80200D9002208DF864
:10564000380000208DF8390001208DF83B000DA9AD
:105650003948FEF757FA394800F076FB09A800F000
:10566000A9FC374809900020ADF82800ADF82A00C1
:105670004FF48060ADF82C000420ADF82E0000201F
:10568000ADF8300009A92D4800F026FC0122402188
:105690002A4800F04FFB012240F22441274800F045
:1056A000F5FB0121254800F039FB2648FDF728FCD1
:1056B0006846FDF723FD4FF0006000901F48001D75
:1056C000019021480290002003901E2004900020A9
:1056D00005904FF4806006900020079008904FF4EA
:1056E0008070099000020A9000200B900C900D90A1
:1056F0000E9069461348FDF7D5FC002212491E3171
:105700001048FDF7B4FC01210E48FDF7A5FC01216E
:105710000C48FDF7E9FB25208DF8380001208DF8B5
:10572000390002208DF83A0001208DF83B000EA8C8
:10573000FEF710FE0FB000BD000402400010014053
:10574000A0860100886402409310002010B540F24A
:105750002441284800F070FB002849D025480088E3
:10576000244880882448FDF792FC00BB0021224891
:10577000FDF7BAFB2048FDF786FCC0F11E001F496B
:1057800008601E201C49091D0860081F006840F4BD
:105790000020091F086001211748FDF7A5FB1748E5
:1057A0000068122824D11648FFF704FA20E00021EF
:1057B0001148FDF799FB1048FDF765FCC0F11E008C
:1057C0000E4908601E200C49091D0860081F00686A
:1057D00020F40020091F086001210748FDF784FB21
:1057E00006480068122803D105481E30FFF7E2F989
:1057F00010BD00000010014088640240C00000207D
:105800009310002070B540F224418E4800F014FB44
:10581000002870D08B4800888A48001D00888A487C
:10582000FDF735FC30BB00218748FDF75DFB86485E
:10583000FDF729FCC0F164008449086064208249B6
:10584000091D086080488838D0F8880040F400209E
:10585000091F086001217C48FDF746FB002404E095
:105860007B49085DFFF7E6FA641C784800688442CB
:10587000F6D326E000217448FDF736FB7248FDF7A9
:1058800002FCC0F164007149086064206E49091D82
:1058900008606D488838D0F8880020F40020091F7F
:1058A000086001216848FDF71FFB002405E06849F6
:1058B0006431085DFFF7BEFA641C644800688442E6
:1058C000F5D3B5E06348406862490968401A03D4DB
:1058D00000206149088002E064205F4908805D483B
:1058E0000068602808DB5B480068632804DC6420EB
:1058F0005A49088003E0A3E00020584908800025A9
:1059000004E057494819FFF779FA6D1C052DF8DBBB
:105910005348007953490870FF2204215048FEF78C
:1059200091F9514908704F480078097888427FD131
:105930004B4840784A49897840EA01204B49088021
:1059400010214A480088FFF735FE48490880414841
:1059500040684149098801443E4800683F4A12882E
:105960001044401F091A414800880930814256DB23
:10597000002505E03A49491D4819FFF73FFA6D1C1B
:105980003A480088001D8542F4DB38480088C01D75
:105990003349095C354800880830314A105C41EAD7
:1059A00000203349088031480088C11D4FF6FF723E
:1059B0002B48FEF72DF92F4908802D4800880988CB
:1059C000884235D126484079012806D1244880797B
:1059D000022802D1224801F053FD214840790628CF
:1059E00006D11F488079022802D11D4801F0B0FC81
:1059F0001B484079072806D119488079022802D12E
:105A0000174801F0EFFC16484079022810D11448DD
:105A1000807902280CD1124801F0B4FC08E00D484E
:105A200000680E4909880844401F0A49086006E0DA
:105A3000084840680749096888427FF443AF00BFBF
:105A400070BD00000044004088600240D400002087
:105A5000CF10002003130020D0000020D20000202F
:105A600097110020C8000020C9000020CE000020AF
:105A7000CA000020CC00002010B540F22441274885
:105A800000F0DAF9002848D0244800882348001D97
:105A900000882348FDF7FBFAF8B900212048FDF7FC
:105AA00023FA1F48FDF7EFFAC0F10C001D4908600A
:105AB0000C201B492839C8620846806A40F400203F
:105AC000886201211648FDF70FFA16480068082879
:105AD00023D11548FCF74AF81FE000211048FDF7D4
