:020000040800F2
:10000000C81A0020A10200084D3C00088D380008E5
:10001000A5380008A90A0008B5560008000000002D
:10002000000000000000000000000000E54700089C
:10003000F72E0008000000009D410008314C000828
:10004000BB020008BB020008BB020008BB0200089C
:10005000BB020008BB020008BB020008BB0200088C
:10006000BB020008BB020008BB020008BB0200087C
:10007000BB020008BB020008BB020008BB0200086C
:10008000BB020008BB020008BB020008F90B000815
:10009000BD0B0008BB020008BB020008BB02000841
:1000A000BB020008BB020008BB020008BB0200083C
:1000B000D94C0008BB020008BB020008BB020008C4
:1000C000BB020008BB020008BB020008BB0200081C
:1000D000BB020008E94E0008BB020008E55000081A
:1000E000BB020008BB020008BB020008BB020008FC
:1000F000BB020008BB020008BB020008BB020008EC
:10010000BB020008BB020008BB020008BB020008DB
:10011000BB020008BB020008454D0008BB020008F6
:10012000BB020008BB020008BB020008BB020008BB
:10013000BB020008BB020008BB020008610D0008FA
:10014000250D0008BB020008BB020008BB02000826
:10015000BB020008BB020008BB020008995100085E
:10016000BB020008BB020008BB020008BB0200087B
:10017000BB020008BB020008BB020008BB0200086B
:10018000BB020008BB02000800F002F800F05EF8B5
:100190000AA090E8000C82448344AAF10107DA45E2
:1001A00001D100F053F8AFF2090EBAE80F0013F0D6
:1001B000010F18BFFB1A43F001031847BC7F000072
:1001C000DC7F00000A444FF0000C10F8013B13F0F4
:1001D000070408BF10F8014B1D1108BF10F8015BA0
:1001E000641E05D010F8016B641E01F8016BF9D193
:1001F00013F0080F1EBF10F8014BAD1C0C1B09D1EA
:100200006D1E58BF01F801CBFAD505E014F8016B5B
:1002100001F8016B6D1EF9D59142D6D370470000ED
:100220000023002400250026103A28BF78C1FBD8FF
:10023000520728BF30C148BF0B6070471FB507F099
:1002400052FD00F064F81FBD10B510BD00F0B2F80B
:100250001146FFF7F3FF06F0F5FD00F0D0F803B408
:10026000FFF7F2FF03BC06F0F7FA00000B49D1F8E4
:1002700000C04A685CF8043B1068184442F8040B5C
:100280008C4528BFA1F1DC0C8A4228BFA1F1DC0219
:10029000C1F800C04A6020F0004070475C140020A4
:1002A0000948804709480047FEE7FEE7FEE7FEE70A
:1002B000FEE7FEE7FEE7FEE7FEE7FEE70448054946
:1002C000054A064B70470000354C000889010008BC
:1002D000C8140020C81A0020C8160020C816002024
:1002E000704700000B4910B5A1F17C020A4CC2E92D
:1002F0003712372106E000EB104342F82130074B5C
:1003000000FB03400B1EA1F10101F4DC10BD012034
:10031000E8E70000FC130020E119D666CD0D0100CE
:1003200010B5203AC0F00B80B1E81850203AA0E890
:100330001850B1E81850A0E81850BFF4F5AF5FEAC4
:10034000027C24BFB1E81850A0E8185044BF18C977
:1003500018C0BDE810405FEA827C24BF51F8043B1E
:1003600040F8043B08BF7047D20728BF31F8023B72
:1003700048BF11F8012B28BF20F8023B48BF00F806
:10038000012B7047704770477047704710B500F0F9
:1003900009F8006810BD10B5044600F003F80460C9
:1003A00010BD0000004870476414002000487047EA
:1003B000641400207546FFF7F9FFAE460500694654
:1003C000534620F00700854618B020B5FFF776FFAA
:1003D000BDE820404FF000064FF000074FF0000846
:1003E0004FF0000B21F00701AC46ACE8C009ACE8C7
:1003F000C009ACE8C009ACE8C0098D46704710B52B
:100400000446AFF300802046BDE81040FFF727BF49
:1004100010B52DED068B874800788749087087480E
:100420000078002874D18648006807F05AF941EC3A
:10043000190B844890ED101BB0EE410AF0EE610AF2
:1004400051EC100B06F090FE41EC1A0B53EC192BFB
:1004500007F0EEFA41EC180B07F014F97A4908603E
:100460000846006840F23C7190FBF1F07749086063
:100470007548006840F23C7190FBF1F201FB1200FC
:1004800000B2734908800846B0F90000002850DB2C
:100490006948007801283CD10846B0F90000B0F561
:1004A000307F09DA6948006840F2CF114843DF2104
:1004B000C1EB8000674908606548B0F90000B0F5FD
:1004C000307F0BDB6148006840F2CF11484340F2B7
:1004D0005D6101EB80005F49086078E05C48B0F93D
:1004E000000040F2BF21884271DB5948B0F900009A
:1004F00040F25D6188426ADC5448006840F2CF11E6
:10050000484340F25D6101EB8000524908605EE0C3
:100510008CE049480078002859D14C48006840F2E6
:10052000CF11484340F2BF2101EB800049490860E8
:100530004DE04148007801283BD14548B0F9000022
:100540006FF49C61884209DB4048006840F2CF119B
:100550004843DF21C1EB80003E4908603C48B0F9C8
:1005600000006FF49C6188420BDA3848006840F262
:10057000CF11484340F62501C1EB800035490860A2
:1005800025E03348B0F90000334988421FDC304889
:10059000B0F900003149884219DB2C48006840F26C
:1005A000CF11484340F62501C1EB8000294908607E
:1005B0000DE02148007850B92448006840F2CF117E
:1005C000484340F2E141C1EB8000224908601D48E8
:1005D00090ED101BB0EE410AF0EE610A51EC100BE9
:1005E00006F0C2FD41EC190B1A490968144A126859
:1005F000881807F076F841EC1A0B53EC192B07F02A
:1006000017FA41EC180B9FED160B53EC102B07F06B
:10061000CDF903D801201449087002E002201249E4
:10062000087012480088401C10490880BDEC068BF9
:1006300010BD0000700A0020A00A0020250A00203A
:10064000880A002078120020840A0020340100204B
:10065000380100203C01002041FDFFFFA3F9FFFF0E
:100660000000000000000000400100209E0A002061
:1006700010B54FF4A06003F027FB04F00FFB04F06B
:100680003BFB00F013FA00F0C5FA04F089FC4FF4CC
:10069000E13006F011FC4FF4E13006F0C3FC03F04A
:1006A0007FFD10BD9848007801287DD19748C0880B
:1006B000974908800846008896490988401A964953
:1006C000086096480088401C00B29449088092480F
:1006D000006810F10A0F10DC0846B0F900109048CD
:1006E00002680068401C8E4B18608E4820F812107B
:1006F00001208D4908608D490860894800680528F7
:1007000034DB8A480068012830D185480068401EE3
:10071000844931F9101082480068401F814A32F93B
:100720001000081A824908607D480068401E114682
:1007300031F910107A480068401F32F91000081A89
:10074000062813DA7B48006858280FD000207A4921
:1007500008607A49086001207949087000207349CF
:100760000860012077490860774908606848008878
:10077000782871DD6A4800680F2839DB6A4800680C
:10078000012835D166480068401E664931F91010CD
:10079000634800680F38634A32F91000081A644948
:1007A00008605F48006800E0ADE0401E114631F986
:1007B00010105B4800680F3832F91000081A3C2806
:1007C00016DA57480068401E114631F91010544897
:1007D0000068401F32F91000081A062808DD0020C2
:1007E0005549086001205649087000204E490860AC
:1007F00056480068401C55490860084600683C2877
:100800000DDA084600680A2809DD4348006810F13F
:10081000640F04DC01204E4908604E4908603E48E0
:10082000006810F1640F0ADC0020434908600120D1
:100830004349087047490860002044490860464819
:100840000068401C4449086008460068B0F5967F7F
:1008500002DD0020414908602D480088782841DAEF
:100860000020354908600120354908702A48006891
:1008700010F10A0F0DDC3A48006850B901203549E3
:100880000860002037490860012037490860344972
:10089000086034480068401C324908600846006817
:1008A000642802D90020304908602E480068B0F55D
:1008B000967F02D900202A4908601748006810F185
:1008C0000A0F02DC00202449086023480068401C0D
:1008D0002149086008460068B0F5967F02DD0020D7
:1008E0001E4908600C48006810F10A0F07DC0A482E
:1008F000006810F1140F02DB01201C490870044845
:100900000088044908807047240A00208A100020CB
:100910009C0A00209A0A0020440A0020480A00206D
:100920004C0A002012100020500A0020600A00200B
:100930006C0A002058000020340A0020640A0020BD
:10094000210A00205C0A0020680A0020300A0020EA
:100950001401002004010020540A0020580A00203D
:10096000400A0020380A002018010020250A002033
:1009700010B502F0D5FE042807D002F0D1FE0628FB
:1009800003D002F0CDFE052825D113480088B0F52C
:10099000C87F20DA1148006801281CD102F0F2FE5D
:1009A0000F494860084640680968401A0C49886049
:1009B0000C4800780C4991FBF0F00949896888429D
:1009C00009DA0A480088401C00B20849088002F091
:1009D000D9FE0349086010BD980A0020E4000020F9
:1009E000ED0A0020F600002010EB09001C0A002090
:1009F000294800881E2819DC2848008828490988C9
:100A0000081A012805DD274800880A38254908808A
:100A10000CE02248008822490988081AB0F1FF3FFB
:100A200004DA204800880A301E4908801A480088E5
:100A30001E2830DD1948408819490988081A0128FC
:100A40001CDD1648408816490988081A032805DA6B
:100A5000144840880A38134948801CE0114800882F
:100A60006438104908800846408864384880084641
:100A7000008864280FDA642008800CE0074840886A
:100A800007490988081AB0F1FF3F04DA0548408891
:100A90000A300449488070474A000020EC000020DA
:100AA000F4000020E800002000BFFEE700B589B098
:100AB0000121082003F046FC0121480603F052FC06
:100AC000092200213B4802F0F3FD092201213948A7
:100AD00002F0EEFD0320079002208DF8200007A908
:100AE000344802F09DFD344800F0B8F904A800F045
:100AF000F0FB00208DF816008DF817008DF8180017
:100B00008DF819008DF81A0001208DF81B000020C7
:100B10008DF812008DF8130008208DF814000320C2
:100B20008DF81500ADF8100004A9234800F0CFFAA5
:100B300000208DF80A008DF80B0001208DF80C00C4
:100B40000020ADF80000ADF80200ADF80400ADF8EB
:100B50000600ADF8080001208DF80D00684600F091
:100B600099F901220221144800F0A8FA0122114645
:100B7000114800F0A3FA14208DF8200001208DF810
:100B800021008DF822008DF8230008A803F060F8FA
:100B900013208DF8200001208DF8210000208DF811
:100BA000220001208DF8230008A803F051F809B0B5
:100BB00000BD0000000C02400064004000B585B09C
:100BC00002210B4800F0EAF978B10221084800F050
:100BD000F1F80849064800F0D1F86A4600210448B7
:100BE00000F0FFFA684600F031FE05B000BD0000DD
:100BF000006400400800003210B50121044800F0F4
:100C0000CDF918B10121024800F0D4F810BD000060
:100C10000064004000B589B00121022003F092FB7E
:100C20000121880603F09EFB092205213B4802F0C2
:100C30003FFD09220621394802F03AFD6020079065
:100C400002208DF8200007A9344802F0E9FC34485E
:100C500000F004F904A800F03CFB00208DF8160019
:100C60008DF817008DF818008DF819008DF81A000E
:100C700001208DF81B0000208DF812008DF8130064
:100C800008208DF8140003208DF81500ADF8100031
:100C900004A9234800F01BFA00208DF80A008DF803
:100CA0000B0001208DF80C000020ADF80000ADF81D
:100CB0000200ADF80400ADF80600ADF80800012010
:100CC0008DF80D00684600F0E5F801220221144875
:100CD00000F0F4F901221146114800F0EFF9142058
:100CE0008DF8200001208DF821008DF822008DF86C
:100CF000230008A802F0ACFF3F208DF8200001205F
:100D00008DF8210000208DF8220001208DF82300AD
:100D100008A802F09DFF09B000BD000000040240D9
:100D20000068004000B585B002210B4800F036F99C
:100D300078B10221084800F03DF80849064800F063
:100D40001DF86A460021044800F04BFA684600F09E
:100D50006DFE05B000BD00000068004008000032D4
:100D600010B50121044800F019F918B10121024819
:100D700000F020F810BD00000068004000220C4B7D
:100D8000994202D10023836111E0C1F3130201F003
:100D900000730BB1C2600AE001F080630BB1026125
:100DA00005E001F000630BB1826000E04260704733
:100DB0007000F030B1F5007F3AD00FDC202928D048
:100DC00006DC01291CD004291DD0082940D11DE0D2
:100DD000402921D0B1F5807F3AD126E0B1F5004F0E
:100DE00031D006DCB1F5806F25D0B1F5006F2FD181
:100DF00024E0B1F5803F12D0B1F5003F28D111E0D9
:100E0000154A826025E00822C26022E01022C260FA
:100E10001FE0082202611CE01022026119E0082292
:100E2000426016E01022426013E00422426010E0AB
:100E3000042242600DE0042242600AE00022826146
:100E40000422426005E0002282610422426000E048
:100E500000BF00BF704700000101010010B504464B
:100E60000B48844209D10121480603F08BFA002186
:100E70004FF0007003F086FA08E00121880603F0C5
:100E800081FA00214FF0806003F07CFA10BD000071
:100E90000064004010B50021837A012202FA03F1B8
:100EA0003D4A126842F001023B4B1A603A4A1C323A
:100EB00012688A43384B1C331A60027BCAB9364A1F
:100EC0000C3212688A43344B0C331A604288C38850
:100ED00042EA0343304A4032847A42F8343002888E
:100EE000838842EA03432C4A4032847A02EBC402EC
:100EF0005360027B012A19D1274A0C3212680A4337
:100F0000254B0C331A604288038842EA0343224A85
:100F10004032847A42F83430C288838842EA0343FC
:100F20001D4A4032847A02EBC4025360C27A3AB955
:100F3000194A121D12688A43174B1B1D1A6006E0DE
:100F4000154A121D12680A43134B1B1D1A600289B1
:100F500032B9114A143212688A430F4B14331A60A3
:100F60000289012A06D10C4A143212680A430A4B3C
:100F700014331A60427B012A06D1074A1C321268D8
:100F80000A43054B1C331A60034A126822F001021F
:100F9000014B1A6010BD00000066004070B50446A9
:100FA0000D46002660692840002871D0B5F5807F85
:100FB0005CD010DC082D35D006DC012D20D0022DB0
:100FC00024D0042D72D127E0102D31D0202D35D022
:100FD000402D6BD138E0B5F5004F60D009DCB5F598
:100FE000007F49D0B5F5806F4CD0B5F5006F5DD16D
:100FF0004FE0B5F5803F2DD0B5F5003F56D12FE03D
:10100000A0682D4901F0A0FD064651E0E0680321EB
:1010100001F09AFD06464BE0E068082101F094FDDE
:10102000064645E0E068102101F08EFD06463FE0EF
:101030002069032101F088FD064639E02069082176
:1010400001F082FD064633E02069102101F07CFDAD
:1010500006462DE06068082101F076FD064627E08F
:101060006068102101F070FD064621E0A0690121B1
:1010700001F06AFD06461BE0A069022101F064FD53
:10108000064615E0A069042101F05EFD06460FE06A
:101090000FE0A069702101F057FD064608E0606886
:1010A000042101F051FD064602E0FFE7002600BFE3
:1010B00000E00026304670BD010101001AB143690D
:1010C0000B43436102E043698B434361704730B592
:1010D000024600200023146824F0020414601468FF
:1010E00044F00104146000E05B1C546804F0010447
:1010F0001CB94FF6FF74A342F6D1546804F0010402
:101100000CB900206CE08C79012C04D1146844F0F7
:101110008004146003E0146824F080041460CC7927
:10112000012C04D1146844F04004146003E01468F6
:1011300024F0400414600C7A012C04D1146844F0AB
:101140002004146003E0146824F0200414604C7A36
:10115000012C04D1146844F01004146003E01468F6
:1011600024F0100414608C7A012C04D1146844F02B
:101170000804146003E0146824F008041460CC7AB6
:10118000012C04D1146844F00404146003E01468D2
:1011900024F0040414608C78A407CD7844EA056434
:1011A0000D7944EA05444D7944EA05540D886D1ED5
:1011B0002C43D461146824F001041460002300E07F
:1011C0005B1C546804F001041CB14FF6FF74A34289
:1011D000F6D1546804F001040CB1002000E00120B5
:1011E00030BD10B500F5D87303EB01131B6803F095
:1011F00004031372137A53B900F5D87303EB011388
:101200001B6840F2FF7404EA5353136009E000F5D1
:10121000D87303EB01131B686FF0604404EAD30337
:10122000536000F5D87303EB01131B6803F002034E
:10123000537200F5D87303EB01135B6803F00F03DF
:10124000937200F5D87303EB01135B681B0AD37428
:1012500000F5D87303EB01139B68D37200F5D873C4
:1012600003EB01139B681C0A147300F5D87303EB9E
:1012700001139B681C0C547300F5D87303EB011326
:101280009B681B0E937300F5D87303EB0113DB68A7
:10129000D37300F5D87303EB0113DB681C0A1474D5
:1012A00000F5D87303EB0113DB681C0C547400F5D4
:1012B000D87303EB0113DB681B0E937421B9C36869
:1012C00043F02003C36003E0036943F0200303619C
:1012D00010BD00218171C171017241728172C172B0
:1012E0008170C170032101710221417101210180CE
:1012F000704710B502460020936803F08063B3F195
:10130000806F00D110E0936803F00063B3F1006FC9
:1013100001D1012008E0936803F08053B3F1805FAE
:1013200001D1022000E00420042874D002F5C0732B
:1013300003EB00131B6803F0010402F5C07303EB19
:1013400000131C600B7A7BB94B7A0C8843EA445338
:1013500002F5C07404EB00142468234302F5C07442
:1013600004EB0014236010E00B7A4C6843EAC403DA
:101370004C7A234302F5C07404EB00142468234321
:1013800002F5C07404EB001423608B7A03F00F03A2
:101390008B7202F5C07303EB00135B6823F00F043C
:1013A00002F5C07303EB00135C6002F5C07303EB3E
:1013B00000135B688C7A234302F5C07404EB0014BD
:1013C00063608B7B1C064B7B44EA03440B7B44EA43
:1013D0000323CC7A234302F5C07404EB0014A3600A
:1013E0008B7C1C064B7C44EA03440B7C44EA0323BD
:1013F000CC7B234302F5C07404EB0014E36002F5D8
:10140000C07303EB00131B6843F0010402F5C073C3
:1014100003EB00131C6010BD70B52DED0C8B82B07A
:10142000EB4890ED022BB0EE420AF0EE620A90ED2E
:10143000002BB0EE421AF0EE621A53EC102B51EC76
:10144000110B06F0F5FA41EC1D0BB0EE4D0AF0EE73
:101450006D0A05F0E5F8B0EE40CAF0EE60CA9FED07
:10146000DD0B53EC102B51EC1C0B06F0A1F941ECF9
:101470001B0BB0EE4B0AF0EE6B0A04F025FFB0EE4A
:1014800040AAF0EE60AA9FEDD50B53EC102B51EC67
:101490001A0B06F0C1FA41EC190B9FEDD20B53EC7D
:1014A000102B06F085F941EC180B9FEDD00B53EC97
:1014B000102B05F097FEC64AC2E908019FEDCD0B3F
:1014C000104680ED0A0B9FEDCB0B80ED0C0B9FEDD2
:1014D000CB0BCC4880ED080BCB4880ED080B9FED83
:1014E000CB0BC84880ED0A0BC74880ED0A0B9FED77
:1014F000C90BC44880ED0C0BC34880ED0C0B02F007
:101500000FF9072802D002F00BF9D0B99FEDBB0B01
:10151000AF4880ED080B9FEDBD0B80ED0A0B9FEDF2
:10152000BF0B80ED0C0B9FEDB30B80ED000BBD49A5
:10153000886B06F0D6F8A64AC2E902011046816F10
:10154000884702F0EDF8042840D1B748006868B930
:10155000B648006806F056FB41EC180B9FED9D0B5A
:1015600053EC102B06F024F9994A03C2AE480068E8
:1015700001280DD1AD48006806F044FB41EC180B82
:101580009FED940B53EC102B06F012F9904A03C216
:10159000A449886B06F0A5F88D4AC2E902011046FD
:1015A000816F8847A249886B06F09BF8964AC2E98A
:1015B00002011046816F88479E49886B06F091F8BA
:1015C000904AC2E902011046816F884702F0A8F8EC
:1015D000012807D002F0A4F8062803D002F0A0F8F2
:1015E000082828D1914890ED000AB1EE400A10EE8B
:1015F000100A06F007FB764A03C28A49886B06F098
:1016000070F8734AC2E902011046816F8847884921
:10161000886B06F066F87C4AC2E902011046816FC9
:1016200088478449886B06F05CF8764AC2E9020173
:101630001046816F884702F073F8052823D17B4854
:10164000006806F0DFFA624A03C27649886B06F04A
:1016500048F85F4AC2E902011046816F8847744921
:10166000886B06F03EF8684AC2E902011046816FB5
:1016700088477049886B06F034F8624AC2E9020173
:101680001046816F884702F04BF8072802D002F01D
:1016900047F8E8BB4E4890ED021BB0EE410AF0EE71
:1016A000610A9FED651B53EC112B51EC100B06F0FA
:1016B00043F818D8464890ED021BB0EE410AF0EE10
:1016C000610A9FED5F1B53EC112B51EC100B06F0E0
:1016D0006DF908D8002003460246014600905A489A
:1016E00003F0C6F970E03A4890ED1A1BB0EE410ADB
:1016F000F0EE610A51EC100B05F0C4FF04B20020BB
:1017000003460246214600904F4803F0B1F95BE0E2
:10171000FFE702F005F804282BD13A4890ED1A1B98
:10172000B0EE410AF0EE610A51EC100B05F0AAFF91
:1017300004B2354890ED1A1BB0EE410AF0EE610A92
:1017400051EC100B05F09EFF05B2214890ED1A1BDD
:10175000B0EE410AF0EE610A51EC100B05F092FF79
:1017600006B22B46002231463748009403F080F938
:101770002AE0244890ED1A1BB0EE410AF0EE610A0F
:1017800051EC100B05F07EFF04B21F4890ED1A1BC0
:10179000B0EE410AF0EE610A51EC100B05F072FF59
:1017A00005B20B4890ED1A1BB0EE410AF0EE610A4B
:1017B00051EC100B05F066FF06B22B4600223146B5
:1017C0002148009403F054F902B0BDEC0C8B70BDBD
:1017D000300200209A9999999999B9BF00000000A8
:1017E0000000F03F00000000000069400000000021
:1017F0000000594000000000000000000000000050
:1018000000004440F80300206003002000000000B6
:101810000000E03F00000000000034400000000035
:10182000000014401811002054010020EC09002091
:10183000C8110020201200200000000000002440F9
:1018400000000000000024C00064004010B5044601
:101850006C480068401C6B4908602068702863D0A1
:101860000EDC40285DD006DC302857D0312856D019
:10187000322873D154E0502854D06028F9D152E076
:10188000A0F20120072869D2DFE800F0041526370E
:1018900084B84F0001205C4908705A48006832281B
:1018A00004D82146594801F031FF03E0214657484A
:1018B00002F080F8A3E00120534908705148006805
:1018C000322804D82146524801F020FF03E0214687
:1018D0004F4802F06FF892E001204B4908704948E8
:1018E0000068322804D821464A4801F00FFF03E07F
:1018F0002146484802F05EF881E001204249087024
:1019000040480068322804D82146434801F0FEFED2
:1019100003E02146404802F04DF870E06FE06EE0D1
:101920006DE06CE06BE06AE069E036480068322800
:1019300026D22146394801F0E9FE38484069384945
:10194000B1F90010401AB0F5805F08DD3448008816
:1019500000F5005000B2324908801AE04EE02F48EE
:1019600040692F49B1F90010401A10F5805F10DA74
:101970002B480088A0F5005000B22949088008E0F3
:101980002748B0F90000254948612146234802F064
:10199000B7F834E01B480068322825D22146214898
:1019A00001F0B4FE1F4840691F49B1F90010401A08
:1019B000B0F5805F07DD1C48008800F5005000B2DC
:1019C0001949088019E0174840691749B1F9001012
:1019D000401A10F5805F10DA13480088A0F5005017
:1019E00000B21149088008E00F48B0F900000D4925
:1019F000486121460B4802F083F800E000BF00BFB9
:101A000010BD0000900A0020240A002018110020B8
:101A100070110020C8110020201200207812002030
:101A2000960A0020D0120020940A002010B5044627
:101A30000C480068401C0B4908602068A0F2072091
:101A400068B908460068322804D82146064801F0E3
:101A50005DFE03E02146044801F026FF00BF00BF01
:101A600000BF10BD900A00202813002010B52DEDF6
:101A7000068B04462079E17840EA012000B2D04983
:101A80000880A079617940EA012000B2CC49488001
:101A9000E0798880E079CB490880207A4880607AB4
:101AA000C9490880A07A4880C8480078C8490860B9
:101AB0002078522879D160784D28FBD1A078412830
:101AC00073D0C44890ED000AF7EE000A30EE200A09
:101AD00080ED000ABA48B0F9000000EE100AB8EE36
:101AE000C00ABD4880ED000AB548B0F9020000EE1A
:101AF000100AB8EEC00AB94880ED000A0120B349C7
:101B000008700020B6498887B648007A032802D1B9
:101B10000120B549086001F035FEB4494860084627
:101B200040680968401AB1498860B1480078401C93
:101B3000AF49087008460078012819D1AD4890EDEA
:101B4000101BB0EE410AF0EE610A51EC100B05F0EB
:101B500017FBA9490860A94890ED101BB0EE410A97
:101B6000F0EE610A51EC100B05F00AFBA449086085
:101B70009F4800781E2802DD1E209D49087001F054
:101B8000CFFD072806D001F0CBFD18B101F0C8FD4C
:101B900006280BD19FED9B0A9B4880ED000A9FED24
:101BA000990A9A4880ED000A9AE09DE08449B1F9CB
:101BB000000005F096FD41EC1A0B9FED950B53ECE0
:101BC000102B05F0CBFB41EC190B8A4890ED101B54
:101BD000B0EE410AF0EE610A53EC102B51EC190BF8
:101BE00005F000FB41EC180B05F0CAFA86490860C5
:101BF0007B48B0F93C0014281BDA084690ED000A37
:101C00007748B0F91410808A401C00B2744A908260
:101C1000104600EB810080ED000A1046B0F9140078
:101C2000052802DB00201146888200206C49888745
:101C300010E0002008E09FED730A694901EB800184
:101C400081ED000A411CC8B20528F4DB002064497C
:101C5000888288875A48808881B26F4802780078E5
:101C6000401C6D4B18706D4820F812101846007813
:101C70000A2802DB002019460870684804F028FE94
:101C8000674908804E49B1F9020005F02AFD41EC90
:101C90001A0B9FED5F0B53EC102B05F05FFB41EC33
:101CA000190B564890ED101BB0EE410AF0EE610A98
:101CB00053EC102B51EC190B05F094FA41EC180B76
:101CC00005F05EFA514908604F4890ED000A55480A
:101CD00080ED000A084690ED000A534880ED000AA6
:101CE00001F050FD41490860207852283ED16078CB
:101CF0004D283BD1A078412838D1E078412835D112
:101D00009FED400A344880ED000A9FED3E0A3348BB
:101D100080ED000A3248808F401C00B2304988872D
:101D20000846B0F93C00142801DB142088872C48B1
:101D3000B0F93C00142819DC2E4890ED101BB0EED1
:101D4000410AF0EE610A51EC100B05F019FA2E4928
:101D500008602A4890ED101BB0EE410AF0EE610ACF
:101D600051EC100B05F00CFA284908601C48B0F93A
:101D70003C00142821DB00201D4908701D4890ED0F
:101D8000101BB0EE410AF0EE610A51EC100B05F0A9
:101D9000F7F91D490860194890ED101BB0EE410A93
:101DA000F0EE610A51EC100B05F0EAF917490860F2
:101DB00000200D49086005490870BDEC068B10BD78
:101DC000280000202E00002032000020200A0020E1
:101DD0008000002090000020840000208800002067
:101DE0007C0E0020FC0F0020E4000020140B0020DB
:101DF0007D0000207812002024010020D012002055
:101E00002801002000000000440000203C000020C9
:101E100000000000000059404C000020680E002027
:101E20004A000020400000203800002010B52DEDB1
:101E3000048B01F075FC012807D001F071FC042827
:101E400003D001F06DFC08287DD188480078012876
:101E50002ED18748008801282AD18648007810B101
:101E6000012824D111E09FED840A844880ED000A06
:101E700083480068401C82490860824800688249A3
:101E8000086000207A49088011E09FED800A7B48B5
:101E900080ED000A7B480068401C7A490860784859
:101EA00000687B49086000207149088000BF00BFBE
:101EB0006E4800780128C7D17048006805F0A2FE7E
:101EC00041EC190B734890ED101BB0EE410AF0EE97
:101ED000610A53EC102B51EC190B05F0A9FD41ECF4
:101EE000180B05F0CFFB041E01DB204600E060422A
:101EF00005281DDA5F48007810B101280CD105E0F3
:101F00009FED5D0A5D4880ED000A05E09FED5F0AE8
:101F10005A4880ED000A00BF00BF56480078401CB8
:101F20005449087008460078022801DB0020087038
:101F300059480068401C58490860584800780028F3
:101F400001D1574800E08DE090ED000A554880ED42
:101F5000000A08460068401C0860084600685249AC
:101F6000884202DD0120514908605048006890BB5A
:101F70004248006805F046FE41EC180B454890EDDC
:101F8000101BB0EE410AF0EE610A53EC102B51EC3D
:101F9000180B05F00BFD05D29FED450A404880ED7A
:101FA000000A18E03548006805F02CFE41EC180BDB
:101FB000384890ED101BB0EE410AF0EE610A53EC88
:101FC000102B51EC180B05F0B7FB04D29FED390A2A
:101FD000334880ED000A35480068012832D127488F
:101FE000006805F00FFE41EC180B2A4890ED101B1D
:101FF000B0EE410AF0EE610A53EC102B51EC180BD5
:1020000005F0D4FC05D29FED2A0A254880ED000A90
:1020100018E01A48006805F0F5FD41EC180B1D4862
:1020200090ED101BB0EE410AF0EE610A53EC102B5C
:1020300051EC180B05F080FB04D29FED1E0A1848E6
:1020400080ED000A174890ED000A1548D0ED000A0F
:1020500020EE200AB5EEC00AF1EE10FA02D20120FD
:102060000E490870BDEC048B10BD0000240A00204E
:10207000860100204101002000401C46D8090020B4
:1020800070010020780100207C01002000401CC667
:102090007401002018110020580100202E0100209A
:1020A000E0090020DC090020F04902005401002072
:1020B000000048C40000484410B52DED068B01F027
:1020C0002FFB05286FD1FE4800680128FAD1FD4892
:1020D0000068012804D19FEDFC0AFC4880ED000A4D
:1020E000F8480068002877D1F9480088012818D1FD
:1020F000F848007810B1012812D108E09FEDF60AE7
:10210000F24880ED000A0020F149088008E09FEDC8
:10211000EE0AEE4880ED000A0020ED49088000BF7D
:1021200000BFEA48006805F06DFD41EC180BEB4874
:1021300090ED101BB0EE410AF0EE610A53EC102B4B
:1021400051EC180B05F074FC41EC190B05F09AFAF0
:10215000041E01DB204600E06042E1490860DB48E4
:10216000006805F04FFD41EC190BDC4890ED101BA9
:10217000B0EE410AF0EE610A53EC102B51EC190B52
:1021800005F056FC41EC180B05F07CFA041E01DB4F
:10219000204600E0604205281EDACE48007818B1DB
:1021A00001280DD106E058E09FEDCB0AC74880ED2D
:1021B000000A05E09FEDC40AC44880ED000A00BF94
:1021C00000BFC4480078401CC24908700846007827
:1021D000022801DB00200870C2480078E8BBC24832
:1021E00090ED000AC14880ED000AB6480068012859
:1021F00004D19FEDBF0ABC4880ED000AB1480068D9
:1022000060BBB248006805F0FDFC41EC180BB34818
:1022100090ED101BB0EE410AF0EE610A53EC102B6A
:1022200051EC180B05F088FA05D29FEDB20AAE48C2
:1022300080ED000A1BE0A548006805F0E3FC41ECD6
:10224000180BA64890ED101BB0EE410AF0EE610AA3
:1022500053EC102B51EC180B01E018E007E005F0EF
:10226000A5FB04D29FEDA40A9F4880ED000A9F4879
:1022700090ED000A9C48D0ED000A20EE200AB5EE51
:10228000C00AF1EE10FA02D201209649087001F05E
:1022900047FA052875D18A4800680028FAD197487E
:1022A000007868B996480068012809D19FED860A30
:1022B000864880ED000A0020914908609149086035
:1022C0008E48007801280DD18D480068012809D179
:1022D0009FED8D0A7D4880ED000A00208849086046
:1022E000884908608948006801280BD19FED760A6B
:1022F000764880ED000A0020814908608149086025
:10230000824908608148006802280BD19FED7E0A4F
:102310006E4880ED000A002079490860794908601C
:102320007A4908607A4800780128B3D17548006876
:1023300001287DD166480088012843D104F0E8FADD
:102340006448007810B101283BD11BE07148B0F916
:10235000000005F0C6F941EC190BB0EE490AF0EEA9
:10236000690A04F05DF9B0EE408AF0EE608A51EC43
:10237000180B04F005FF55490860002054490880F7
:102380001FE084E26348B0F9000005F0AAF941ECCF
:102390001A0BB0EE4A0AF0EE6A0A04F041F9B0EE08
:1023A000409AF0EE609A51EC190B04F0DDFE41EC1E
:1023B000180B04F0E5FE45490860002044490880F8
:1023C00000BF00BF54480088782876DB5348006877
:1023D000012872D15248006841F2883188423DD2CA
:1023E00050480068522803D04E4800684C2815D148
:1023F00044480068012811D13648007810B10128FE
:1024000008D103E002204149086003E001203F4970
:10241000086000BF00BF00204149086042480068D2
:10242000522803D0404800684C2817D1354800E0B6
:1024300075E10068012811D12648007810B1012803
:1024400008D103E001203149086003E002202F4950
:10245000086000BF00BF00203149086030480068B4
:1024600041F28831884201D9012000E000202C4946
:102470000968B1F57A5F01D2012100E0002108402E
:10248000D8B128480068522802D102201F490860AC
:10249000244800684C2802D101201C4908602248C9
:1024A0000068522802D10120184908601E480068BF
:1024B0004C2802D10220154908601748008835E0F1
:1024C0005C0A0020680A002000401CC6D8090020D1
:1024D000860100204101002000409C451811002089
:1024E000200100202E010020E0090020DC0900204E
:1024F000000048C4000016C400001644A00A0020D2
:10250000040100200801002000401C461C0100209E
:10251000240A00200E0100209C0A0020580A0020F6
:10252000340A0020500000205400002078285FDA90
:10253000FE48006864283BD8FD480068522803D054
:10254000FB4800684C2815D1FA480068012811D1D1
:10255000F948007810B1012808D103E00220F749BA
:10256000086003E00120F549086000BF00BF0020BB
:10257000F3490860F3480068522803D0F148006826
:102580004C2815D1EB480068012811D1EA480078A1
:1025900010B1012808D103E00120E849086003E0F8
:1025A0000220E649086000BF00BF0020E44908603F
:1025B000DE48006864281BD9DD480068522802D133
:1025C0000220DE490860DA4800684C2802D1012068
:1025D000DA490860DB480068522802D10120D74957
:1025E0000860D84800684C2802D10220D34908600E
:1025F000D548006805F006FB41EC190BD34890ED77
:10260000101BB0EE410AF0EE610A53EC102B51ECB6
:10261000190B05F00DFA41EC180B05F033F8041E08
:1026200001DB204600E06042052878DAC8480088CF
:10263000782855DBC248006841F2883188424FD281
:10264000C448006858B904F063F9C348B0F9000001
:1026500000EE100AB8EEC00ABB4880ED000ABD4883
:10266000006801283CD104F053F9B348007810B158
:10267000012834D117E0B848B0F9000005F031F86E
:1026800041EC190BB0EE490AF0EE690A03F0C8FFFD
:10269000B0EE408AF0EE608A51EC180B04F070FD49
:1026A000A94908601BE0AC48B0F9000005F019F832
:1026B00041EC1A0BB0EE4A0AF0EE6A0A03F0B0FFE2
:1026C000B0EE409AF0EE609A51EC190B04F04CFD1C
:1026D00041EC180B04F054FD9B49086000BF00BF9B
:1026E0009B480088782850DA9C48006801280BD164
:1026F00004F00EF99848B0F9000000EE100AB8EEA8
:10270000C00A914880ED000A9448006838B904F086
:10271000FFF88948007818B1012835D118E034E075
:102720008D48B0F9000004F0DCFF41EC190BB0EE6D
:10273000490AF0EE690A03F073FFB0EE408AF0EE4A
:10274000608A51EC180B04F01BFD7F4908601BE008
:102750008148B0F9000004F0C4FF41EC1A0BB0EE60
:102760004A0AF0EE6A0A03F05BFFB0EE409AF0EE20
:10277000609A51EC190B04F0F7FC41EC180B04F0D3
:10278000FFFC7149086000BF00BF75480078002851
:102790007DD1744890ED000A734880ED000A6A48C4
:1027A000006805F02FFA41EC180B684890ED101BFB
:1027B000B0EE410AF0EE610A53EC102B51EC180B0D
:1027C00004F0BAFF3DD26048006805F01BFA41EC06
:1027D000180B5E4890ED101BB0EE410AF0EE610A56
:1027E00053EC102B51EC180B05F022F941EC190BAE
:1027F00004F048FF041E01DB204600E06042B0F513
:10280000FA7F18DD5248008878280ADB4C480068B7
:1028100041F28831884204D89FED540A514880ED36
:10282000000A4B48008878285EDA9FED510A4D482F
:1028300080ED000A58E01FEDD10A4A4880ED000AF9
:1028400052E04148006805F0DDF941EC180B3F48C3
:1028500090ED101BB0EE410AF0EE610A53EC102B24
:1028600051EC180B05F0A2F83ED23748006805F08D
:10287000C9F941EC190B354890ED101BB0EE410A37
:10288000F0EE610A53EC102B51EC190B00E047E11C
:1028900005F0CEF841EC180B04F0F4FE041E01DB49
:1028A000204600E06042B0F5FA7F18DD2848008835
:1028B00078280ADB2248006841F28831884204D82F
:1028C0009FED2C0A274880ED000A214800887828CF
:1028D0000ADA9FED290A234880ED000A04E01FED83
:1028E000FA0A204880ED000A1E4890ED000A1E48B2
:1028F000D0ED000A30EE600A10EE101A084605F01E
:1029000081F941EC190BB0EE490AF0EE690A03F0C7
:1029100087FEB0EE408AF0EE608A9FED180B53EC14
:10292000102B51EC180B05F041F82BE0380A002071
:102930005000002008010020410100201C0100205F
:10294000340A002054000020D8090020181100206B
:102950009C0A0020140100200E0100201801002014
:102960002E010020E0090020DC09002000803BC48B
:1029700000002FC400803B4400002F4400000000F2
:1029800000C0624073D2684890ED000A6748D0EDFD
:10299000000A20EE200AB5EEC00AF1EE10FA66DD5C
:1029A000614890ED000A624880ED000A5F4890EDB2
:1029B000000A604880ED000A5B48006805F022F9D3
:1029C00041EC1A0BB0EE4A0AF0EE6A0A03F028FE58
:1029D000B0EE408AF0EE608A5448006805F012F9C3
:1029E00041EC1A0BB0EE4A0AF0EE6A0A03F018FE48
:1029F000B0EE409AF0EE609A53EC182B51EC190BA4
:102A000004F0D4FF06D201204B4908704B4881697D
:102A100088472CE04448006805F0F4F841EC1A0BB4
:102A2000B0EE4A0AF0EE6A0A03F0FAFDB0EE408A10
:102A3000F0EE608A3D48006805F0E4F841EC1A0BBE
:102A4000B0EE4A0AF0EE6A0A03F0EAFDB0EE409AF0
:102A5000F0EE609A53EC182B51EC190B04F06CFE5D
:102A600005D20120364908703448816988473248C8
:102A70000078012821D1314801698847F0EE400AE9
:102A80002C4890ED000A2A4890ED001A30EE411AC9
:102A900090ED000A01EE200A244880ED000A274844
:102AA00001698847F7EE000AB4EE600AF1EE10FA09
:102AB00026D100202049087022E021480078012812
:102AC0001ED11E48016988471A48D0ED000A1848EF
:102AD00090ED001A30EEC11AD0ED000A41EE000A66
:102AE0001248C0ED000A154801698847F7EE000A50
:102AF000B4EE600AF1EE10FA02D10020104908701D
:102B0000094890ED000A0948D0ED000A20EE200A9D
:102B1000B5EEC00AF1EE10FA02D2012009490870A0
:102B2000BDEC068B10BD0000DC090020E009002090
:102B3000E4090020E80900202F010020A00900205E
:102B4000300100202E0100200246002002EA01038D
:102B50000BB1012000E000207047000010B51C48B8
:102B60000068801C1A49086002F0A6FD02F03EFED3
:102B700002F03CFF03F006F900F0DEFB00F02EFA55
:102B800000F086FE00F0FEF9FDF7F2FE01F0F2FF24
:102B900001F0B4FEFFF74AF9FFF78EFA00F0F6FDF8
:102BA000FEF73AFC01F040FB00F0ECFD09494860FB
:102BB000084640680968401A0649886008468068E7
:102BC0000549884202DD00200449087010BD00005C
:102BD000FC000020070B002020A10700220A002093
:102BE00010B50020244908602448C16F8847244854
:102BF000C16F88472348C16F88472348C16F884702
:102C00002248C16F88472248C16F88472148C16F59
:102C100088472148C16F88472048C16F88472048AE
:102C2000C16F88471F484FF4C871C26990471D485B
:102C3000816988471C484FF4FA61C26990471B4874
:102C40004FF4FA61C269904717488169884717486D
:102C5000816988479FED160A164880ED000A9FEDAE
:102C6000140A154880ED000A144890ED000A124835
:102C700080ED010A10BD0000FC00002030020020A1
:102C8000C802002060030020F8030020280500206F
:102C900058060020F00600208807002020080020A9
:102CA000B8080020A0090020580900207C09002055
:102CB00000000000EC090020C409002024010020CD
:102CC00021B1026842F00102026003E0026822F0D2
:102CD0000102026070470000016821F001010160FB
:102CE0000021016041608160C16001612121416179
:102CF0004A49884204D13D21484A103A91608CE00B
:102D000046491831884205D14FF47461434A103A5C
:102D1000916082E041493031884205D14FF474110D
:102D20003E4A103A916078E03C494831884205D1EA
:102D30004FF07461394A103A91606EE03749603162
:102D4000884204D13649354A103AD16065E03349AA
:102D50007831884204D13349304A103AD1605CE07E
:102D60002E499031884204D12F492C4A103AD16023
:102D700053E02A49A831884205D14FF03D51274AF6
:102D8000103AD16049E02949884204D13D21274ABF
:102D9000083A116041E025491831884205D14FF4C5
:102DA0007461224A083A116037E020493031884284
:102DB00005D14FF474111D4A083A11602DE01B49EA
:102DC0004831884205D14FF07461184A083A1160C1
:102DD00023E016496031884204D11149134A121F79
:102DE00011601AE011497831884204D10D490F4A27
:102DF000121F116011E00D499031884204D10A4937
:102E00000A4A121F116008E00849A831884204D11B
:102E10004FF03D51054A121F11607047106002408B
:102E20003D000020400F002000003D2010640240C3
:102E300021B1026842F48022026003E0026822F4B9
:102E400080220260704722B1036843F400230360CC
:102E500003E0036823F40023036001617047014627
:102E6000486880B27047014600200A6802F40022D8
:102E70000AB1012000E000207047000010B50022D8
:102E80000268134B1A40CC680B6823434C692343F8
:102E90008C692343CC6923430C6A23434C6A234344
:102EA0008C6A23434C6B23438C6B23431A4302608D
:102EB000426922F00702D1E90B3423431A434261ED
:102EC0000B6943604B6883608B68C36010BD000072
:102ED0003F801CF00021016041608160C1600161A0
:102EE00041618161C161016241628162C1620163CC
:102EF000416381637047704770B50446D4E90001AF
:102F000040EA0120218940EA0140217B40EA01603A
:102F100020612069C0F3C7507F3860612069C0F329
:102F20001600A061002527E05DB9B0EE000AA16A95
:102F300060698847F7EE000A20EE200A84ED080A4F
:102F400019E0691E4FF480020A41A0691040C5F1E2
:102F500017010841E0616269501BB0EE000AA16AE6
:102F60008847D4ED080A94ED071AB8EEC11A41EE6D
:102F7000000AC4ED080A6D1C182DD5DB94ED080A73
:102F800070BD000010B50F48007801280CD10E4923
:102F90000988484204F0A5FB0C4A03C20A49088884
:102FA00004F0B6FB0A4A03C20648007848B99FED10
:102FB000090B064880ED000B9FED060B044880EDE1
:102FC000000B10BDB1000020E800002060030020CD
:102FD000F8030020000000000000000010B52DEDF7
:102FE0000C8B00F09DFB052805D1B6480078012820
:102FF00001D1B549086000F093FB052805D1B1481F
:10300000007810B90220B049086000F089FB04285C
:1030100003D0AD48006801287ED1AC48006804F0B8
:10302000F1FD41EC1B0BB0EE4B0AF0EE6B0A03F026
:10303000F7FAB0EE409AF0EE609AA448006804F007
:10304000E1FD41EC1A0B53EC192B04F087F941EC2C
:10305000180B04F095F89E4908609C48006804F03D
:10306000D1FD9C4A03C29C4890ED100B994880ED1D
:10307000020B90ED022BB0EE420AF0EE620A90EDE8
:10308000002BB0EE421AF0EE621A53EC102B51EC0A
:10309000110B04F0CDFC41EC1D0BB0EE4D0AF0EE2F
:1030A0006D0A03F0BDFAB0EE40CAF0EE60CA9FEDC3
:1030B0008B0B53EC102B51EC1C0B04F079FB41EC07
:1030C0001B0BB0EE4B0AF0EE6B0A03F0FDF8B0EE0E
:1030D00040AAF0EE60AA9FED830B53EC102B51EC4D
:1030E0001A0B04F099FC41EC190B9FED800B53EC8B
:1030F000102B04F05DFB41EC180B9FED7E0B53ECA5
:10310000102B04F06FF8734AC2E908019FED7B0BA6
:10311000104680ED0A0B00E018E09FED7A0B80ED81
:103120000C0B9FED720B794880ED080B9FED780B2F
:1031300080ED0A0B9FED780B80ED0C0B1046816F34
:103140008847644890ED1A0B80ED1A0B00F0E8FAFE
:1031500078B100F0E5FA01280BD000F0E1FA06287A
:1031600007D000F0DDFA082803D05748006802288D
:1031700066D19FED6B0B574880ED080B9FED640BFC
:1031800080ED0A0B9FED620B80ED0C0B9FED660B43
:103190005E4880ED080B9FED5E0B80ED0A0B9FED06
:1031A0005C0B80ED0C0B00F0BBFA18B100F0B8FA24
:1031B00007281FD19FED560B464880ED000B5C4859
:1031C0000169884710EE104A204604F01BFD41ECCF
:1031D000180B414890ED101BB0EE410AF0EE610A69
:1031E00053EC102B51EC180B04F0E2FA394AC2E907
:1031F000020125E04F4890ED000AB1EE400A10EEC2
:10320000101A084604F0FEFC324A03C2484801691D
:10321000884710EE104A204604F0F4FC41EC180BED
:103220002D4890ED101BB0EE410AF0EE610A53EC10
:10323000102B51EC180B04F0BBFA264AC2E902012C
:103240002448816F8847234890ED1A0B2F4880ED62
:10325000000B2149886B04F044FA2C4AC2E90201B0
:103260001046816F8847294890ED1A1BB0EE410A3D
:10327000F0EE610A03F0D4F9B0EE409AF0EE609AF5
:10328000224890ED1A1BB0EE410AF0EE610A53ECB1
:10329000192B51EC100B04F061F841EC180B1B4892
:1032A00090ED1A1BB0EE410AF0EE610A53EC102BC0
:1032B00051EC180B03F096FF144AC2E91A01BDEC59
:1032C0000C8B10BD200A0020140A00203C000020B6
:1032D0000C0A002028050020D01200209A99999904
:1032E0009999B9BF000000000000F03F0000000005
:1032F0000000494000000000000024407B14AE475D
:10330000E17AA43F000000000000184058060020A9
:10331000000000000000000000000000000000406D
:1033200000000000000044400000000000003440A5
:1033300058090020C409002010B52DED088B00F0BD
:10334000EFF9042803D09B48006801285FD19A4810
:1033500090ED000A9948D0ED000A30EE600A9848D6
:1033600080ED000A93480068964908600020914962
:1033700008609248006804F045FC41EC1B0BB0EE7D
:103380004B0AF0EE6B0A03F04BF9B0EE409AF0EE08
:10339000609A8A48006804F035FC41EC1A0B53EC43
:1033A000192B03F0DBFF41EC180B03F0E9FE864913
:1033B00008608248006804F025FC844A03C28448FF
:1033C00090ED100B814880ED020B9FED820B80ED9C
:1033D000080B9FED820B80ED0A0B9FED820B80EDB9
:1033E0000C0B9FED820B834880ED080B9FED820B49
:1033F00080ED0A0B9FED7B0B80ED0C0B7348816F0A
:1034000088476E4890ED000A6B4880ED000A00F096
:1034100087F918B100F084F9072837D19FED760BB2
:103420006A4880ED080B9FED740B80ED0A0B9FED51
:10343000720B80ED0C0B9FED700B6E4880ED080B4E
:103440009FED6D0B80ED0A0B9FED6B0B80ED0C0B70
:103450005F4890ED101BB0EE410AF0EE610A51ECAE
:10346000100B03F081FE594A03C2594890ED101B1E
:10347000B0EE410AF0EE610A51EC100B03F074FE5D
:10348000524AC2E902011046816F884700F048F9AC
:10349000062831D19FED5A0B4C4880ED080B9FED6B
:1034A000560B80ED0A0B9FED4F0B80ED0C0B9FED43
:1034B0004D0B504880ED080B9FED530B80ED0A0B30
:1034C0009FED530B80ED0C0B534890ED010A10EE6D
:1034D000101A084604F096FB3C4A03C23C4890EDA3
:1034E000100B3A4880ED020B4C48007800F00700C2
:1034F00010B13648816F884700F012F9012807D0D3
:1035000000F00EF9082803D02A480068022832D1BA
:10351000284800682B4908600020264908609FED74
:103520002D0B2A4880ED080B9FED330B80ED0A0B25
:103530009FED310B80ED0C0B9FED2A0B2D4880ED9C
:10354000080B9FED310B80ED0A0B9FED310B80EDE9
:103550000C0B314890ED010A10EE101A084604F0E9
:1035600051FB1A4A03C21A4890ED100B174880ED20
:10357000020B816F8847154890ED1A1BB0EE410A87
:10358000F0EE610A9FED201B53EC112B51EC100B58
:1035900004F00EF9174A03C20D49886B04F0A1F834
:1035A000144AC2E902011046816F8847BDEC088BBE
:1035B00010BD0000140A002040000020440000203C
:1035C000F4090020180A0020040A0020F006002058
:1035D000781200200000000000004E409A9999994E
:1035E0009999A93F0000000000001440000000006D
:1035F00000002E40880700200000000000000000AE
:103600000000000000004940000000000000E03F12
:103610000000000000000040C4090020FC00002061
:10362000F0B50A4600210023002400BF3DE001253B
:1036300005FA01F3156805EA03049C4234D10568D4
:103640004F000326BE40B543056015794E00B540D6
:103650000668354305601579012D02D01579022DD4
:1036600016D185684F000326BE40B5438560557965
:103670004E00B540866835438560456801268E401A
:10368000B5434560456896798E40B6B2354345608E
:10369000C5684F000326BE40B543C560D5794E00CE
:1036A000B540C6683543C560491C1029BFD3F0BD7D
:1036B000F0B5002300244D07ED0E02FA05F3CE10FD
:1036C00000F1200555F826504E07F70E0F26BE4094
:1036D000B543CF1000F1200646F82750CE1000F178
:1036E000200555F8265045EA0304CE1000F12005C8
:1036F00045F82640F0BD018370474FF6FF71016029
:103700000021017141718171C17170470A7BCB7ACF
:1037100042EA032242614269026042698260704764
:1037200001480078704700001F0A002030B50346AA
:1037300013B94FF6FF7030BD09E013F8014B82EA70
:103740000400C0B2054D35F8100080EA2222081EA0
:10375000A1F10101F1D11046EDE700001A7F000848
:1037600030B5034605E013F8010B80EA0204044873
:10377000025D081EA1F10101F5D1104630BD000027
:10378000197E00084FF08040406A704710B5FFF77F
:10379000C7FF01280BD0FFF7C3FF052807D0FFF7AD
:1037A000BFFF042803D0FFF7BBFF082852D12A48E7
:1037B0000078012823D10020284908702849087082
:1037C0009FED280A284880ED000A90ED000AB5EE2A
:1037D000C00AF1EE10FA06D89FED220A80ED000A29
:1037E00002201D490870214890ED000A1E48D0EDC6
:1037F000000A20EE200A1E4880ED000A2AE0164842
:103800000078022820D1B7EE000A174880ED000AA0
:1038100090ED000AF7EE000AB4EEE00AF1EE10FABD
:1038200006DBB7EE000A80ED000A00200A490870A6
:10383000104890ED000A0C48D0ED000A20EE200A56
:103840000B4880ED000A05E00A4890ED000A0848A0
:1038500080ED000A10BD00002E0100202F01002085
:103860003001002000000000D0090020DC09002009
:10387000EC090020E009002003490988014409B24D
:10388000014A1180704700002C0A002000BFFEE7AB
:10389000024800780249087070470000F0000020DC
:1038A000F600002000BFFEE72DE9F0412DED088B6A
:1038B00004460D460026002720686060287BE97AD0
:1038C00040EA0120206020686168401AE060E068FA
:1038D00010F5805F07DA606B401C6063E06800F5FC
:1038E0000050A0610DE0E068B0F5805F07DD606B1F
:1038F000401E6063E068A0F50050A06101E0E06850
:10390000A061A269207C411C217404F11C0141F8D2
:1039100020202168606B01EB4030A060616B4FF4A8
:10392000B47201FB02F003F0DCFE9FED1C0B53ECC4
:10393000102B03F013FD41EC180B21686269881A03
:1039400003F0CFFE9FED170B53EC102B03F030FF6D
:103950009FED160B53EC102B03F000FD53EC182BCE
:1039600003F040FC41EC100B84ED100B207C06288A
:1039700001D100202074002605E004F11C0050F85D
:1039800026000744761C062EF7DB062097FBF0F096
:10399000A063BDEC088BBDE8F081000000000000D2
:1039A0000000424000000000000024400000000031
:1039B0000000C0402DE9F0412DED0A8B04460D4674
:1039C00000260027B046002008EE100A206860603C
:1039D000287BE97A40EA0120206020686168401A6B
:1039E000E060E06810F5805F07DA606B401C6063A0
:1039F000E06800F50050A0610DE0E068B0F5805F80
:103A000007DD606B401E6063E068A0F50050A061B8
:103A100001E0E068A061A269207C411C217404F1EE
:103A20001C0141F820202168606B01EB4030A06050
:103A3000616B4FF4B47201FB02F003F052FE9FED94
:103A40002A0B53EC102B03F089FC41EC190B216875
:103A50006269881A03F045FE9FED250B53EC102B8D
:103A600003F0A6FE9FED240B53EC102B03F076FC25
:103A700053EC192B03F0B6FB41EC100B84ED100B4B
:103A8000207C062801D100202074002605E004F1E6
:103A90001C0050F826000744761C062EF7DBA97B95
:103AA000687B41EA00200FFA80F8404603F019FED7
:103AB00041EC1A0B9FED0C0B53EC102B03F04EFC5A
:103AC00041EC190B03F0DEFDA063297CE87B41EAA1
:103AD000002000B208EE100AB8EEC80A84ED140AFD
:103AE000BDEC0A8BBDE8F08100000000000033400F
:103AF00028AFA1BC86F23240000000000000C040A8
:103B00002DE9F0472DED088B04460D460026B14601
:103B100000BF00BF20686060287BE97A40EA01208E
:103B2000206020686168401AE060E06810F5805FFE
:103B300007DA606B401C6063E06800F50050A0612C
:103B40000DE0E068B0F5805F07DD606B401E6063EC
:103B5000E068A0F50050A06101E0E068A061A26902
:103B6000207C411C217404F11C0141F820202168B3
:103B7000606B01EB4030A060616B4FF4B47201FBED
:103B800002F003F0AEFD41EC180B21686269881A5F
:103B900003F0A7FD9FED290B53EC102B03F008FE5B
:103BA0009FED280B53EC102B03F0D8FB53EC182B94
:103BB00003F018FB41EC100B84ED100B21686269D7
:103BC000881A03F08EFD9FED1D0B53EC102B03F0B4
:103BD000EFFD9FED1C0B53EC102B03F0BFFB41ECF2
:103BE000100B84ED120B207C062801D100202074DC
:103BF000002605E004F11C0050F826008144761CE4
:103C0000062EF7DBA97B687B41EA00284FF4B470ED
:103C100018FB00F03C2190FBF1F0A063297CE87BCD
:103C200041EA002007B200EE107AB8EEC00A84ED37
:103C3000140ABDEC088BBDE8F0870000000000000E
:103C400000807640000000000000C0407047000087
:103C500070B5002100230F22C4781CB3174C2468D0
:103C600004F4E064C4F5E064C4F30721C1F1040482
:103C7000E3B20A4144789C40E1B284781440214385
:103C80000C07210E0E4C05786155047804F01F05D1
:103C90000124AC4005786D11AD0005F1E025C5F8B3
:103CA000004109E0047804F01F050124AC40054DF3
:103CB0000678761145F8264070BD00000CED00E056
:103CC00000E400E080E100E002490143024A1160A3
:103CD000704700000000FA050CED00E010B52DED76
:103CE000028B044694ED022BB0EE420AF0EE620A1B
:103CF00094ED002BB0EE421AF0EE621A53EC102B4A
:103D000051EC110B03F094FEC4E9040194ED222B55
:103D1000B0EE420AF0EE620A94ED042BB0EE421AC5
:103D2000F0EE621A53EC102B51EC110B03F03EFE37
:103D300016D994ED221BB0EE410AF0EE610A51EC67
:103D4000100B03F011FA41EC180B94ED041BB0EECC
:103D5000410AF0EE610A53EC102B03F027FE7DD2EE
:103D600094ED042BB0EE420AF0EE620A94ED082BBB
:103D7000B0EE421AF0EE621A53EC102B51EC110B1C
:103D800003F016FDC4E90E0194ED141BB0EE410AD8
:103D9000F0EE610A51EC100B03F0E6F941EC180B60
:103DA00094ED0E1BB0EE410AF0EE610A53EC102BBD
:103DB00003F0FCFD0CD894ED141BB0EE410AF0EEBC
:103DC000610A51EC100B03F0CFF9C4E90E0116E0C3
:103DD00094ED142BB0EE420AF0EE620A94ED0E2B35
:103DE000B0EE421AF0EE621A53EC102B51EC110BAC
:103DF00003F0DCFD03D894ED140B84ED0E0B94ED71
:103E0000042BB0EE420AF0EE620A94ED0A2BB0EEFB
:103E1000421AF0EE621A53EC102B51EC110B03F026
:103E2000C7FC41EC180B94ED101BB0EE410AF0EE0C
:103E3000610A53EC102B03F0D5F9C4E9100194ED9D
:103E4000161BB0EE410AF0EE610A51EC100B03F0C4
:103E50008BF941EC180B94ED101B00E0D5E0B0EEAF
:103E6000410AF0EE610A53EC102B03F09FFD0CD8D1
:103E700094ED161BB0EE410AF0EE610A51EC100B06
:103E800003F072F9C4E9100116E094ED162BB0EEC0
:103E9000420AF0EE620A94ED102BB0EE421AF0EEF8
:103EA000621A53EC102B51EC110B03F07FFD03D879
:103EB00094ED160B84ED100B94ED241BB0EE410A2B
:103EC000F0EE610A9FED741B53EC112B51EC100BBB
:103ED00003F09CFB1ED194ED062BB0EE420AF0EEEF
:103EE000620A94ED042BB0EE421AF0EE621A53EC23
:103EF000102B51EC110B03F05BFC41EC180B9FED08
:103F0000680B53EC102B03F017FC03D29FED640BEE
:103F100084ED100B94ED062BB0EE420AF0EE620A2F
:103F200094ED042BB0EE421AF0EE621A53EC102B13
:103F300051EC110B03F07CFD41EC180B94ED0C1BC4
:103F4000B0EE410AF0EE610A53EC102B03F030FCA6
:103F5000C4E9120194ED181BB0EE410AF0EE610ABB
:103F600051EC100B03F000F941EC180B94ED121B0F
:103F7000B0EE410AF0EE610A53EC102B03F016FD8F
:103F80000CD894ED181BB0EE410AF0EE610A51EC2A
:103F9000100B03F0E9F8C4E9120116E094ED182BB8
:103FA000B0EE420AF0EE620A94ED122BB0EE421A25
:103FB000F0EE621A53EC102B51EC110B03F0F6FCEF
:103FC00003D894ED180B84ED120B94ED102BB0EE8A
:103FD000420AF0EE620A94ED0E2BB0EE421AF0EEB9
:103FE000621A53EC102B51EC110B03F0FBF841EC6F
:103FF000180B94ED121BB0EE410AF0EE610A53EC7F
:10400000102B03F0EFF8C4E9200194ED200B84EDB0
:104010001A0B94ED1C1BB0EE410AF0EE610A51EC54
:10402000100B03F0A1F841EC180B94ED1A1BB0EE45
:10403000410AF0EE610A53EC102B03F0B7FC0CD8E8
:1040400094ED1C1BB0EE410AF0EE610A51EC100B2E
:1040500003F08AF8C4E91A0116E094ED1C2BB0EEC7
:10406000420AF0EE620A94ED1A2BB0EE421AF0EE1C
:10407000621A53EC102B51EC110B03F097FC03D890
:1040800094ED1C0B84ED1A0B94ED040B84ED060BE0
:10409000BDEC028B10BD0000000000000000F03FEE
:1040A00000000000000000009FED120B80ED000BEF
:1040B0009FED100B80ED020B9FED0E0B80ED040BBE
:1040C0009FED0C0B80ED060B9FED0A0B80ED0E0BA8
:1040D0009FED080B80ED100B9FED060B80ED120B92
:1040E0009FED040B80ED200B9FED020B80ED1A0B72
:1040F0007047000000000000000000002DE9F041C2
:104100002DED048B0546C5F3C750A0F17F07C5F31D
:104110001608002435E07CB938469FED1E0B02F0EE
:104120008BFAB0EE409AF0EE609A51EC190B03F066
:1041300027F808EE100A23E0601E4FF4800141FAD0
:1041400000F000EA0800C4F1170140FA01F6381B3C
:104150009FED100B02F070FAB0EE409AF0EE609A0C
:1041600051EC190B03F00CF800EE900A00EE106A07
:10417000B8EEC01AB0EE480A01EE200AB0EE408A4E
:10418000641C182CC7DBB0EE480ABDEC048BBDE8FC
:10419000F0810000000000000000F03F70470000C8
:1041A00000B587B00121080200F0CCF801210420FD
:1041B00000F0C8F84020019000208DF808008DF82C
:1041C0000A0001208DF80B0003208DF8090001A9D9
:1041D0001348FFF725FA8020059000208DF818007D
:1041E0008DF81A0001208DF81B0003208DF81900AE
:1041F00005A90C48FFF714FA4020039000208DF821
:1042000010008DF8120001208DF8130003208DF8A6
:10421000110003A90348FFF703FA07B000BD00002F
:104220000008024000200240384800683849087001
:1042300038480078012808D10846007828B90120BC
:104240003549087000203549086033480078012856
:104250000CD1334908800020324908703249486344
:1042600008602D490870012030490860284800780E
:1042700078B92A480068401C284908600846006848
:10428000B0F5FA7F05DD0020264908700120244999
:1042900008801F4800781F49087025480068254994
:1042A000087025480078012808D10846007828B908
:1042B0000120224908700020214908601F48007829
:1042C00001280CD1164908801649087000201649AB
:1042D00048630860194908700120144908601548AE
:1042E000007870B916480068401C154908600846F7
:1042F0000068B0F5FA7F04DD01200A49087008491A
:1043000008800C4800780C49087070471802414238
:1043100081010020800100208C01002090010020FC
:104320008601002041010020181100200801002012
:104330001C02444285010020840100208E010020DF
:104340009401002029B1064A12680243044B1A6006
:1043500004E0034A12688243014B1A607047000070
:104360003038024029B1064A12680243044B1A60F1
:1043700004E0034A12688243014B1A607047000050
:104380004038024029B1064A12680243044B1A60C1
:1043900004E0034A12688243014B1A607047000030
:1043A0002038024029B1064A12680243044B1A60C1
:1043B00004E0034A12688243014B1A607047000010
:1043C0004438024029B1064A12680243044B1A607D
:1043D00004E0034A12688243014B1A6070470000F0
:1043E00024380240F0B500210022002402250026D6
:1043F0000223324F3F6807F00C0121B1042905D098
:10440000082937D105E02E4F076036E02D4F0760B1
:1044100033E02A4F3F1F3F68C7F38056274F3F1FA7
:104420003F6807F03F036EB1264FB7FBF3F7DFF8A5
:104430008CC0ACF1040CDCF800C0CCF3881C07FB8A
:104440000CF40CE01E4FB7FBF3F7DFF870C0ACF1D3
:10445000040CDCF800C0CCF3881C07FB0CF4174FED
:104460003F1F3F68C7F301477F1C7D00B4FBF5F792
:10447000076002E0124F076000BF00BF0F4F3F68A8
:1044800007F0F0010909104F7A5C0768D7404760D0
:104490000A4F3F6807F4E051890A0B4F7A5C47687E
:1044A000D7408760054F3F6807F46041490B064FCE
:1044B0007A5C4768D740C760F0BD0000083802400A
:1044C0000024F400001BB70000000020D0E9001217
:1044D000914211DA0168491C016090ED000AF8EE82
:1044E000C00A90ED010AB8EEC00A80EE801A80ED95
:1044F000021A90ED020A7047B7EE000AFBE7704718
:10450000014691ED000AF8EEC00A91ED010AB8EEFD
:10451000C01A80EE810AF7EE000AB4EEE00AF1EE6E
:1045200010FA01DB012070470020FCE70021016048
:1045300070470160704741607047000010B52DED75
:10454000088B044614B9BDEC088B10BDFFF71AF9AF
:10455000784908602078617840EA0120C0F30A00B9
:10456000754908806078C010A17840EA4110C0F316
:104570000A0071494880A0788011E17840EA810002
:10458000217940EA8120C0F30A006B4988802079B4
:104590004010617940EAC110C0F30A006649C88042
:1045A00060790011800808726079C0F301104872C8
:1045B000A079E17940EA012000B25F494881207A80
:1045C000617A40EA012001B25B488181A07AE17AF8
:1045D00040EA012001B25848C181217B8174617B8E
:1045E000C174A07BE17B40EA0120534988820846E0
:1045F000B0F90200A0F5806000EE100AB8EEC00A23
:104600004E4880ED000AB1F90610A1F5806003F074
:1046100068F841EC1B0B9FED4A0B53EC102B03F099
:10462000C7F841EC190B484890ED000A10EE101A3B
:10463000084603F0E7FA41EC1A0B53EC192B02F091
:10464000D1FD41EC180B02F09BFD3F4908603A494F
:10465000B1F90410A1F5806003F043F841EC1B0BA5
:104660009FED3A0B53EC102B03F0A2F841EC190B21
:10467000354890ED010A10EE101A084603F0C2FA10
:1046800041EC1A0B53EC192B02F0ACFD41EC180B6A
:1046900002F076FD2C4948602748407A012802D173
:1046A00002202C4908702448407A032802D10120B6
:1046B000284908702048407A022802D10020254964
:1046C00008701D48407A012822D11B48007A03282F
:1046D00003D01948007A012802D101201E49087030
:1046E0001548007A022802D100201B4908701248A0
:1046F000007A012801D1194908600F48007A022880
:1047000003D00D48007A032802D100201349086025
:104710000948407A03280AD10748007A022806D1BE
:1047200000200F4908700F4908700F49087000BF3A
:1047300009E70000070B0020FC0F0020EC09002017
:104740007B14AE47E17A743FC4090020D42B65196D
:10475000E258673F220A0020B1000020E400002058
:10476000250A0020200A0020210A002001460C48CA
:1047700000680B4A5268904201D1012070470848F6
:1047800002680830805C087005480068401C044AD4
:104790001060642801DB002010600020EEE70000BC
:1047A000A81000200E494A68083188540839496821
:1047B000491C0B4A5160642901DB00215160084902
:1047C0004968074A1268914208D105490968491C9D
:1047D000034A1160642901DB002111607047000069
:1047E000A81000207047000040B506463F480078FA
:1047F000012806DB3D480078092802DC42203C49BC
:1048000008703A480078652806DB384800786D283B
:1048100002DC5220364908704D20354948704E2040
:1048200088704C20C8704FF47A7095FBF0F03030EF
:1048300008724FF47A7095FBF0F100FB115064217F
:1048400090FBF1F030302A494872642095FBF0F17A
:1048500000FB11500A2190FBF1F03030244988729E
:104860000A2095FBF0F100FB115030302049C8724E
:104870004FF47A7094FBF0F0303008714FF47A7096
:1048800094FBF0F100FB1140642190FBF1F030301B
:1048900017494871642094FBF0F100FB11400A2194
:1048A00090FBF1F03030124988710A2094FBF0F14E
:1048B00000FB114030300E49C8710EE00C480D4A23
:1048C0001268815C0C4800F0E5FE0A480068401C54
:1048D00008490860962001F0CFFF06480068B04202
:1048E000ECDB00200349086040BD00008A10002076
:1048F0000C0F0020680000200010014070B5FEF78A
:104900000FFF072805D100221146194800F0DEF8F4
:104910002CE0184890ED1A1BB0EE410AF0EE610A47
:1049200051EC100B02F0AEFE04B2134890ED1A1BCE
:10493000B0EE410AF0EE610A51EC100B02F0A2FE5B
:1049400005B2224629460A4800F0C0F80B4890ED0F
:104950001A1BB0EE410AF0EE610A51EC100B02F0A6
:1049600091FE04B22146064800F0DAF870BD00005E
:10497000006400405806002088070020B808002086
:10498000006800400CB50020019000903448006899
:1049900040F480303249086000BF3148006800F4BC
:1049A000003000900198401C0190009818B90198BF
:1049B000B0F5A04FF1D12A48006800F4003010B1E2
:1049C0000120009001E0002000900098012846D1CD
:1049D00023484030006840F0805021494031086051
:1049E0002048006840F440401E4908601C480830D8
:1049F00000681B49083108600846006840F4004020
:104A000008600846006840F4A05008601648091F76
:104A10000860081F006840F08070091F086000BF30
:104A20000F48006800F000700028F9D040F20570CF
:104A30000E4908600A480830006820F00300084961
:104A4000083108600846006840F00200086000BFB6
:104A500003480830006800F00C000828F8D10CBDAD
:104A600000380240007000400C544007003C0240F7
:104A70002DE9F04186B080460C4615461E460C9F37
:104A80004FF40070019000208DF80C008DF80D009F
:104A900008208DF80E00200A8DF80F008DF81040C8
:104AA000290A8DF811108DF81250310A8DF8131063
:104AB0008DF81460390A8DF815108DF8167001A95B
:104AC0004046FCF716FC06B0BDE8F08170B586B034
:104AD00006460C46154640F2FF10019000208DF866
:104AE0000C008DF80D0008208DF80E00280A8DF8B6
:104AF0000F008DF81050FF218DF811108DF8121055
:104B0000210A8DF813108DF81440FF218DF815102F
:104B10008DF8161001A93046FCF7EBFB06B070BD0E
:104B200030B585B005460C4640F2FF1000900020DD
:104B30008DF808008DF8090008208DF80A00FF2084
:104B40008DF80B00FF218DF80C108DF80D108DF8ED
:104B50000E10210A8DF80F10E1B28DF81010FF2110
:104B60008DF811108DF8121069462846FCF7C1FB2C
:104B700005B030BD10B59FED230B244880ED080B28
:104B80009FED230B80ED0A0B9FED210B80ED0C0BAD
:104B90009FED210B224880ED080B9FED1D0B80ED52
:104BA0000A0B9FED1B0B80ED0C0B1E4800680128C3
:104BB00018D11D49B1F90010C1EB0111880002F0B4
:104BC00090FD124A03C2194890ED100B0F4880ED7A
:104BD000020B816F88470D4890ED1A0B104880ED4D
:104BE000000B04E09FED0A0B0D4880ED000B0F4910
:104BF000886902F076FD0A4AC2E902011046816F17
:104C0000884710BD0000000000003440200800204C
:104C10000000000000000000000000000000244030
:104C2000B8080020E40000201C0A002028130020FF
:104C30007047000010B51548006840F47000134933
:104C400008601348006840F0010011490860002026
:104C50000F49083108600E4800680E4908400C49A9
:104C600008600D48091D0860081F006820F48020B6
:104C7000091F0860002006490C310860FFF782FE1A
:104C80004FF0006001498039086010BD88ED00E0F8
:104C900000380240FFFFF6FE103000240EB501215F
:104CA0000846FFF75FFB4FF0FF3001905320ADF84F
:104CB00000000020ADF80800ADF8020069464FF092
:104CC000804000F0A3F80121880700F067F8012177
:104CD000880700F075F80EBD10B50121880700F0B7
:104CE0007BF838B10121880700F067F801218807B7
:104CF00000F060F810BD00000EB501211020FFF794
:104D000031FB5320ADF800000020ADF80200ADF8F3
:104D100008004FF4FA6001906946094800F076F8FF
:104D200036208DF8080000208DF809008DF80A0063
:104D300001208DF80B0002A8FEF78AFF0EBD0000CF
:104D40000010004010B50121094800F045F870B18D
:104D50000121074800F031F80121054800F02AF848
:104D6000FDF7FCFE03480068401C0249086010BDC6
:104D7000001000401C00002010B50121064800F082
:104D80001FF801221146044800F037F801210248BB
:104D900000F010F810BD00000010004021B10288A2
:104DA00042F08002028004E002884FF67F731A40CE
:104DB00002807047CA4302827047CA43028270472A
:104DC00021B1028842F00102028004E002884FF61D
:104DD000FE731A400280704730B50246002000235F
:104DE0000024158A05EA0103958905EA010413B137
:104DF0000CB1012000E0002030BD1AB183890B43C3
:104E0000838102E083898B4383817047002202887B
:104E1000184B98420ED0184B98420BD0B0F1804FEF
:104E200008D0164B984205D0154B984202D0154B2E
:104E3000984204D14FF68F731A404B881A43124B95
:104E4000984207D0114B984204D04FF6FF431A40C6
:104E50000B891A4302804B68C3620B880385054B9C
:104E6000984202D0044B984201D18B7A03860123E9
:104E700083827047000001400004014000040040AC
:104E800000080040000C00400010004000140040EA
:104E90002DE9F04106460F464FF00108002002EED2
:104EA000100A0025002419E008FA04F030402041DF
:104EB00002EE100A2046B0EE000A01F0D7FFF0EE35
:104EC000400A00EE105AB8EEC00AB8EEC21A01EE5F
:104ED000200ABDEEC00A10EE105A641CBC42E3DB8F
:104EE0002846BDE8F081000010B540F22441284872
:104EF00000F016FB002849D0254800882448808807
:104F00002448FDF7B0FF00BB00212248FDF7D8FE82
:104F10002048FDF7A4FFC0F10C001F4908600C20D9
:104F20001C49091D0860081F006840F40020091F83
:104F3000086001211748FDF7C3FE174800680828DC
:104F400024D11648FCF792FD20E000211148FDF71E
:104F5000B7FE1048FDF783FFC0F10C000E49086052
:104F60000C200C49091D0860081F006820F400206F
:104F7000091F086001210748FDF7A2FE06480068E6
:104F8000082803D105480C30FCF770FD10BD000067
:104F9000001001408864024024000020500E0020D0
:104FA00000B58FB001210420FFF7CCF9012148059D
:104FB000FFF7C8F901218804FFF7D4F907220B2174
:104FC0004348FEF775FB0DA8FEF797FB4FF4006012
:104FD0000D9002208DF8380000208DF83900012056
:104FE0008DF83B000DA93A48FEF71AFB394800F04E
:104FF0001FFA09A800F052FB374809900020ADF8CD
:105000002800ADF82A004FF48060ADF82C00042091
:10501000ADF82E000020ADF8300009A92D4800F0B1
:10502000CFFA012240212B4800F0F8F9012240F28A
:105030002441284800F09EFA0121264800F0E2F9B8
:105040002648FDF749FE6846FDF744FF4FF0006033
:1050500000902048001D01902148029000200390FC
:105060001E200490002005904FF4806006900020E0
:10507000079008904FF48070099000020A90002079
:105080000B900C900D900E9069461448FDF7F6FEBB
:10509000002213491E311148FDF7D5FE01210F48AA
:1050A000FDF7C6FE01210D48FDF70AFE27208DF809
:1050B000380001208DF8390002208DF83A000120D7
:1050C0008DF83B000EA8FEF7C3FD0FB000BD000039
:1050D0000008024000480040A0860100286002400D
:1050E000A40A002010B540F22441274800F018FA25
:1050F000002848D0244800882348001D0088234801
:10510000FDF7B1FEF8B900212048FDF7D9FD1F4891
:10511000FDF7A5FEC0F11E001D4908601E201B49B9
:105120002839C8620846806A40F40020886201215C
:105130001648FDF7C5FD16480068122823D115480A
:10514000FFF7FCF91FE000211048FDF7B9FD0F48FB
:10515000FDF785FEC0F11E000D4908601E200B49B9
:105160002839C8620846806A20F40020886201213C
:105170000648FDF7A5FD06480068122803D105483A
:105180001E30FFF7DBF910BD0048004028600240E8
:1051900018000020A40A002070B540F224418C4879
:1051A00000F0BEF9002871D0894800888848001DA9
:1051B00000888848FDF757FE20BB00218548FDF791
:1051C0007FFD8448FDF74BFEC0F164008249086012
:1051D00064208049091D0860081F006840F4002011
:1051E000091F086001217B48FDF76AFD002404E0E7
:1051F0007A49085DFFF7D6FA641C77480068844254
:10520000F6D324E000217348FDF75AFD7148FDF7FD
:1052100026FEC0F164007049086064206D49091DD4
:105220000860081F006820F40020091F08600121A1
:105230006848FDF745FD002405E068496431085DD4
:10524000FFF7B0FA641C644800688442F5D3B5E007
:105250006348406862490968401A03D400206149E4
:10526000088002E064205F4908805D48006860288B
:1052700007DB5B480068632803DC64205A49088028
:1052800002E0002058490880002505E09EE05749CB
:105290004819FFF76BFA6D1C052DF8DB53480079B0
:1052A00053490870FF2204215048FEF759FA51492A
:1052B00008704F480078097888427FD14B48407881
:1052C0004A49897840EA01204B49088010214A4820
:1052D0000088FFF7DDFD48490880414840684149A2
:1052E000098801443E4800683F4A12881044401F24
:1052F000091A414800880930814256DB002505E043
:105300003A49491D4819FFF731FA6D1C3A4800889F
:10531000001D8542F4DB38480088C01D3349095C14
:10532000354800880830314A105C41EA0020334992
:10533000088031480088C11D4FF6FF722B48FEF7E8
:10534000F5F92F4908802D4800880988884235D111
:1053500026484079012806D124488079022802D1C4
:10536000224801F04FFD21484079062806D11F4808
:105370008079022802D11D4801F04AFC1B4840797F
:10538000072806D119488079022802D1174801F070
:10539000E9FC16484079022810D114488079022887
:1053A0000CD1124801F04EFC08E00D4800680E498F
:1053B00009880844401F0A49086006E00848406818
:1053C0000749096888427FF443AF00BF70BD000001
:1053D0000014014040640240AC000020160F002081
:1053E000A8100020A8000020AA000020DE0F002046
:1053F000A0000020A1000020A6000020A2000020A4
:10540000A400002021B1828942F40052828104E08C
:1054100082894DF6FF731A40828170471AB1838AE0
:105420000B43838202E0838A8B43838270470000B0
:1054300010B504463248844208D101211020FEF7FD
:10544000C1FF00211020FEF7BDFF57E02D48844228
:1054500009D101214804FEF795FF00214FF40030E7
:10546000FEF790FF4AE02848844209D101218804D0
:10547000FEF788FF00214FF48020FEF783FF3DE018
:105480002248844209D10121C804FEF77BFF002194
:105490004FF40020FEF776FF30E01D48844209D12A
:1054A00001210805FEF76EFF00214FF48010FEF782
:1054B00069FF23E01748844208D101212020FEF72C
:1054C00081FF00212020FEF77DFF17E01248844273
:1054D00009D101218807FEF755FF00214FF08040D8
:1054E000FEF750FF0AE00D48844207D10121400534
:1054F000FEF748FF00216005FEF744FF10BD0000E5
:10550000001001400044004000480040004C0040B2
:10551000005000400014014000780040007C004032
:1055200070B50246002400230025002040F66A16CC
:10553000B14200D100BFC1F3421501F01F030126A3
:1055400006FA03F3012D02D19689334006E0022DBD
:1055500002D1168A334001E0968A33400C120126AC
:1055600006FA04F41688344013B10CB1012000E0AF
:10557000002070BDF0B50346002400260025002061
:1055800040F66A17B94200D100BF1846C1F3421471
:1055900001F01F06012707FA06F5012C01D10C3096
:1055A00004E0022C01D1103000E014301AB1076879
:1055B0002F43076002E00768AF430760F0BD0000BB
:1055C0002DE9FF4705460E460024A14600BFA04630
:1055D000B08900B100BF2C8A24F44054F088044301
:1055E0002C82AC8941F20C608443B0883189084335
:1055F000718908430443AC81AC8A24F44074B089B7
:105600000443AC826846FEF7EDFE2048854202D096
:105610001F48854202D1DDF80C9001E0DDF80890CA
:10562000A88900F4004040B109EBC90000EB091063
:1056300031684900B0FBF1F707E009EBC90000EB66
:10564000091031688900B0FBF1F76420B7FBF0F076
:1056500004012009642101FB1078A88900F40040AE
:1056600040B1322000EBC800B0FBF1F000F00700C1
:10567000044308E0322000EB08106421B0FBF1F095
:1056800000F00F0004432C81BDE8FF8700100140AB
:1056900000140140C1F30802828070474FF4165194
:1056A000016000218180C18001810C2141810021A4
:1056B0008181704700BFFEE7454800784549087082
:1056C0004348007809286FD2DFE800F0050E7F7F9D
:1056D0005A6F4C77310040480068B0F5FA6F02D934
:1056E00005203B49087071E03C480078012802D150
:1056F0000420374908703A48007810B90720344927
:10570000087037480078022802D106203049087016
:1057100034480078012802D108202D490870324809
:105720000078012802D10520294908704EE02D4853
:10573000007810B90120264908702848007801280F
:1057400002D10420224908702548007810B90720AA
:105750001F49087024480078012802D105201C49FF
:10576000087033E01E48007810B907201849087007
:105770001A480078012802D104201549087025E054
:105780001748007810B907201149087013480078AD
:1057900010B906200E49087013480078012802D17C
:1057A00005200B49087011E00FE00D480078022831
:1057B00002D106200649087008E00948007801284F
:1057C00002D100200249087000E000BF00BF70470E
:1057D0001F0A00201E0A0020FC000020200A0020D2
:1057E000220A0020250A0020210A002010B52DEDF4
:1057F0000A8B7148007888B17048007870B9704899
:1058000090ED101BB0EE410AF0EE610A51EC100B66
:1058100001F0B6FC6B490860FDF7E2F96A480068E0
:10582000012833D16948006880BB654890ED101BA2
:10583000B0EE410AF0EE610A51EC100B01F094FC5D
:1058400041EC180B01F09CFC5E490860084690EDA5
:10585000000A5F4880ED010A5E4890ED101BB0EE33
:10586000410AF0EE610A51EC100B01F07DFC41ECB5
:10587000180B01F085FC58490860084690ED000AB5
:10588000534880ED000A00204F4908604A480078DC
:10589000042831D14948007801282DD1484890ED9D
:1058A000101BB0EE410AF0EE610A51EC100B01F052
:1058B0005BFC41EC180B01F063FC424908600846B0
:1058C00090ED000A424880ED010A424890ED101B1D
:1058D000B0EE410AF0EE610A51EC100B01F044FC0D
:1058E00041EC180B01F04CFC3B490860084690ED78
:1058F000000A374880ED000A2F48007805282BD190
:105900002E480078012827D13448006802F07AF93F
:1059100041EC1C0BB0EE4C0AF0EE6C0A00F080FE7D
:10592000B0EE40AAF0EE60AA2C48006802F06AF9D6
:1059300041EC1B0B53EC1A2B01F010FD41EC190B41
:105940009FED270B53EC102B01F032FF41EC180BAD
:1059500001F016FC2149086017480078042828D077
:1059600016480078042824D11F481421C2699047A2
:105970001D4881698847124890ED101BB0EE410A1E
:10598000F0EE610A51EC100B01F0EEFB41EC180B4C
:1059900001F0F6FB0B4908600E4890ED101BB0EECD
:1059A000410AF0EE610A51EC100B01F0E9FB0A49E3
:1059B0000860BDEC0A8B10BD1E0A00201F0A0020E3
:1059C0007812002024010020180A0020140A002068
:1059D000C4090020D012002028010020D80900208E
:1059E000000000000088C3407C09002010B52DEDA8
:1059F000068BFDF795FE01287ED1C94890ED101B5E
:105A0000B0EE410AF0EE610A9FEDC61B53EC112B7C
:105A100051EC100B02F00CF841EC180B9FEDC30B8E
:105A200053EC102B01F0C2FF02D80120C1490860DD
:105A3000BB4890ED101BB0EE410AF0EE610A9FEDFD
:105A4000BE1B53EC112B51EC100B01F0CBFB41ECC6
:105A5000180B9FEDB60B53EC102B01F06DFE02D826
:105A60000020B4490860B3480068012808D1B44850
:105A700090ED000ADFEDB30A30EE200A80ED000A57
:105A8000AC48006840B9AE4890ED000ADFEDAD0AC1
:105A900030EE600A80ED000AAB48006860BBAB489E
:105AA00090ED101BB0EE410AF0EE610A9FEDA81BCD
:105AB00053EC112B51EC100B01F0BAFF41EC180B19
:105AC0009FED9A0B53EC102B01F070FF02D80120D0
:105AD000A14908609D4890ED101BB0EE410AF0EE20
