:020000040800F2
:10000000781C0020A1020008C5400008053D00083A
:100010001D3D0008150C0008095C000800000000E8
:10002000000000000000000000000000A54C0008D7
:1000300067310008000000001546000885510008DF
:10004000BB020008BB020008BB020008BB0200089C
:10005000BB020008BB020008BB020008BB0200088C
:10006000BB020008BB020008BB020008BB0200087C
:10007000BB020008BB020008BB020008BB0200086C
:10008000BB020008BB020008BB020008650D0008A7
:10009000290D0008BB020008BB020008BB020008D3
:1000A000BB020008BB020008BB020008BB0200083C
:1000B0002D520008BB020008BB020008BB0200086A
:1000C000BB020008BB020008BB020008BB0200081C
:1000D000BB0200083D540008BB0200083956000866
:1000E000BB020008BB020008BB020008BB020008FC
:1000F000BB020008BB020008BB020008BB020008EC
:10010000BB020008BB020008BB020008BB020008DB
:10011000BB020008BB02000899520008BB0200089D
:10012000BB020008BB020008BB020008BB020008BB
:10013000BB020008BB020008BB020008CD0E00088D
:10014000910E0008BB020008BB020008BB020008B9
:10015000BB020008BB020008BB020008ED56000805
:10016000BB020008BB020008BB020008BB0200087B
:10017000BB020008BB020008BB020008BB0200086B
:10018000BB020008BB02000800F002F800F05EF8B5
:100190000AA090E8000C82448344AAF10107DA45E2
:1001A00001D100F053F8AFF2090EBAE80F0013F0D6
:1001B000010F18BFFB1A43F0010318470C8500001C
:1001C0002C8500000A444FF0000C10F8013B13F09E
:1001D000070408BF10F8014B1D1108BF10F8015BA0
:1001E000641E05D010F8016B641E01F8016BF9D193
:1001F00013F0080F1EBF10F8014BAD1C0C1B09D1EA
:100200006D1E58BF01F801CBFAD505E014F8016B5B
:1002100001F8016B6D1EF9D59142D6D370470000ED
:100220000023002400250026103A28BF78C1FBD8FF
:10023000520728BF30C148BF0B6070471FB507F099
:10024000FAFF00F064F81FBD10B510BD00F0B2F861
:100250001146FFF7F3FF07F09DF800F0D0F803B464
:10026000FFF7F2FF03BC06F09FFD00000B49D1F839
:1002700000C04A685CF8043B1068184442F8040B5C
:100280008C4528BFA1F1DC0C8A4228BFA1F1DC0219
:10029000C1F800C04A6020F0004070470C160020F2
:1002A0000948804709480047FEE7FEE7FEE7FEE70A
:1002B000FEE7FEE7FEE7FEE7FEE7FEE70448054946
:1002C000054A064B70470000895100088901000863
:1002D00078160020781C002078180020781800205C
:1002E000704700000B4910B5A1F17C020A4CC2E92D
:1002F0003712372106E000EB104342F82130074B5C
:1003000000FB03400B1EA1F10101F4DC10BD012034
:10031000E8E70000AC150020E119D666CD0D01001C
:1003200010B5203AC0F00B80B1E81850203AA0E890
:100330001850B1E81850A0E81850BFF4F5AF5FEAC4
:10034000027C24BFB1E81850A0E8185044BF18C977
:1003500018C0BDE810405FEA827C24BF51F8043B1E
:1003600040F8043B08BF7047D20728BF31F8023B72
:1003700048BF11F8012B28BF20F8023B48BF00F806
:10038000012B7047704770477047704710B500F0F9
:1003900009F8006810BD10B5044600F003F80460C9
:1003A00010BD000000487047141600200048704738
:1003B000141600207546FFF7F9FFAE4605006946A2
:1003C000534620F00700854618B020B5FFF776FFAA
:1003D000BDE820404FF000064FF000074FF0000846
:1003E0004FF0000B21F00701AC46ACE8C009ACE8C7
:1003F000C009ACE8C009ACE8C0098D46704710B52B
:100400000446AFF300802046BDE81040FFF727BF49
:1004100010B52DED068B874800788749087087480E
:100420000078002874D18648006807F002FC41EC8F
:10043000190B844890ED101BB0EE410AF0EE610AF2
:1004400051EC100B07F038F941EC1A0B53EC192B57
:1004500007F096FD41EC180B07F0BCFB7A490860E9
:100460000846006840F23C7190FBF1F07749086063
:100470007548006840F23C7190FBF1F201FB1200FC
:1004800000B2734908800846B0F90000002850DB2C
:100490006948007801283CD10846B0F90000B0F561
:1004A000307F09DA6948006840F2CF114843DF2104
:1004B000C1EB8000674908606548B0F90000B0F5FD
:1004C000307F0BDB6148006840F2CF11484340F2B7
:1004D0005D6101EB80005F49086078E05C48B0F93D
:1004E000000040F2BF21884271DB5948B0F900009A
:1004F00040F25D6188426ADC5448006840F2CF11E6
:10050000484340F25D6101EB8000524908605EE0C3
:100510008CE049480078002859D14C48006840F2E6
:10052000CF11484340F2BF2101EB800049490860E8
:100530004DE04148007801283BD14548B0F9000022
:100540006FF49C61884209DB4048006840F2CF119B
:100550004843DF21C1EB80003E4908603C48B0F9C8
:1005600000006FF49C6188420BDA3848006840F262
:10057000CF11484340F62501C1EB800035490860A2
:1005800025E03348B0F90000334988421FDC304889
:10059000B0F900003149884219DB2C48006840F26C
:1005A000CF11484340F62501C1EB8000294908607E
:1005B0000DE02148007850B92448006840F2CF117E
:1005C000484340F2E141C1EB8000224908601D48E8
:1005D00090ED101BB0EE410AF0EE610A51EC100BE9
:1005E00007F06AF841EC190B1A490968144A1268B5
:1005F000881807F01EFB41EC1A0B53EC192B07F07F
:10060000BFFC41EC180B9FED160B53EC102B07F0C1
:1006100075FC03D801201449087002E00220124939
:10062000087012480088401C10490880BDEC068BF9
:1006300010BD0000AC0B0020DE0B0020610B002081
:10064000C40B0020D0130020C00B00203401002078
:10065000380100203C01002041FDFFFFA3F9FFFF0E
:10066000000000000000000040010020DC0B002022
:1006700010B54FF4A06003F063FD04F0B9FD04F081
:10068000E5FD00F0C9FA00F07BFB04F033FF4FF406
:10069000E13006F0B9FE4FF4E13006F06BFF03F0F5
:1006A000BBFF10BD9848007801287DD19748C088CD
:1006B000974908800846008896490988401A964953
:1006C000086096480088401C00B29449088092480F
:1006D000006810F10A0F10DC0846B0F900109048CD
:1006E00002680068401C8E4B18608E4820F812107B
:1006F00001208D4908608D490860894800680528F7
:1007000034DB8A480068012830D185480068401EE3
:10071000844931F9101082480068401F814A32F93B
:100720001000081A824908607D480068401E114682
:1007300031F910107A480068401F32F91000081A89
:10074000062813DA7B48006858280FD000207A4921
:1007500008607A49086001207949087000207349CF
:100760000860012077490860774908606848008878
:10077000782871DD6A4800680F2839DB6A4800680C
:10078000012835D166480068401E664931F91010CD
:10079000634800680F38634A32F91000081A644948
:1007A00008605F48006800E0ADE0401E114631F986
:1007B00010105B4800680F3832F91000081A3C2806
:1007C00016DA57480068401E114631F91010544897
:1007D0000068401F32F91000081A062808DD0020C2
:1007E0005549086001205649087000204E490860AC
:1007F00056480068401C55490860084600683C2877
:100800000DDA084600680A2809DD4348006810F13F
:10081000640F04DC01204E4908604E4908603E48E0
:10082000006810F1640F0ADC0020434908600120D1
:100830004349087047490860002044490860464819
:100840000068401C4449086008460068B0F5967F7F
:1008500002DD0020414908602D480088782841DAEF
:100860000020354908600120354908702A48006891
:1008700010F10A0F0DDC3A48006850B901203549E3
:100880000860002037490860012037490860344972
:10089000086034480068401C324908600846006817
:1008A000642802D90020304908602E480068B0F55D
:1008B000967F02D900202A4908601748006810F185
:1008C0000A0F02DC00202449086023480068401C0D
:1008D0002149086008460068B0F5967F02DD0020D7
:1008E0001E4908600C48006810F10A0F07DC0A482E
:1008F000006810F1140F02DB01201C490870044845
:100900000088044908807047600B0020E011002037
:10091000DA0B0020D80B0020800B0020840B002075
:10092000880B0020681100208C0B00209C0B0020FD
:10093000A80B002058000020700B0020A00B002006
:100940005D0B0020980B0020A40B00206C0B0020F6
:100950001401002004010020900B0020940B0020C3
:100960007C0B0020740B002018010020610B00207C
:1009700010B503F011F9042807D003F00DF906288B
:1009800003D003F009F9052825D113480088B0F5F4
:10099000C87F20DA1148006801281CD103F02EF925
:1009A0000F494860084640680968401A0C49886049
:1009B0000C4800780C4991FBF0F00949896888429D
:1009C00009DA0A480088401C00B20849088003F090
:1009D00015F90349086010BDD60B0020E400002083
:1009E000290C0020F600002010EB0900580B002015
:1009F00010B55148006801282FD0504890ED000AEA
:100A0000B5EEC00AF1EE10FA0FD24D4890ED001B82
:100A1000B0EE410AF0EE610A9FED4A1B53EC112B38
:100A200051EC100B07F06AFA17D3444890ED000A16
:100A3000B5EEC00AF1EE10FA2CD2414890ED001B41
:100A4000B0EE410AF0EE610A9FED3E1B53EC112B14
:100A500051EC100B07F082F81CD14FF0FF303B49EE
:100A6000086000203449086003F0C8F8384948603D
:100A7000084640680968401A354988600846806819
:100A80003449884206DD00203049086003F0B6F89A
:100A90002F4908603048006801282FD0274890ED82
:100AA000000AB5EEC00AF1EE10FA0FDD244890ED11
:100AB000001BB0EE410AF0EE610A9FED221B53ECE1
:100AC000112B51EC100B07F0DFF817D31B4890EDFA
:100AD000000AB5EEC00AF1EE10FA2BDD184890EDD1
:100AE000001BB0EE410AF0EE610A9FED161B53ECBD
:100AF000112B51EC100B07F031F81BD101201349D9
:100B0000086000200C49086003F078F8104948603C
:100B1000084640680968401A0D49886008468068A0
:100B20000C49884206DD00200849086003F066F899
:100B30000749086010BD00009801002058090020F6
:100B4000380200200000000000000000080B002018
:100B5000360C002040420F009C01002029480088EC
:100B60001E2819DC2848008828490988081A012805
:100B700005DD274800880A38254908800CE022480E
:100B8000008822490988081AB0F1FF3F04DA20489A
:100B900000880A301E4908801A4800881E2830DD67
:100BA0001948408819490988081A01281CDD164887
:100BB000408816490988081A032805DA144840882D
:100BC0000A38134948801CE01148008864381049ED
:100BD00008800846408864384880084600886428B1
:100BE0000FDA642008800CE007484088074909882C
:100BF000081AB0F1FF3F04DA054840880A3004497A
:100C0000488070474A000020EC000020F4000020DB
:100C1000E800002000BFFEE700B589B001210820F0
:100C200003F0D6FD0121480603F0E2FD0922002170
:100C30003B4802F079FF09220121394802F074FF94
:100C40000320079002208DF8200007A9344802F005
:100C500023FF344800F0B8F904A800F0F0FB0020AE
:100C60008DF816008DF817008DF818008DF8190012
:100C70008DF81A0001208DF81B0000208DF812005D
:100C80008DF8130008208DF8140003208DF815004E
:100C9000ADF8100004A9234800F0CFFA00208DF829
:100CA0000A008DF80B0001208DF80C000020ADF833
:100CB0000000ADF80200ADF80400ADF80600ADF894
:100CC000080001208DF80D00684600F099F9012216
:100CD0000221144800F0A8FA01221146114800F040
:100CE000A3FA14208DF8200001208DF821008DF842
:100CF00022008DF8230008A803F0E6F913208DF8F0
:100D0000200001208DF8210000208DF82200012014
:100D10008DF8230008A803F0D7F909B000BD000042
:100D2000000C02400064004000B585B002210B4871
:100D300000F0EAF978B10221084800F0F1F808491A
:100D4000064800F0D1F86A460021044800F0FFFA96
:100D5000684600F075FE05B000BD0000006400406C
:100D60000800003210B50121044800F0CDF918B197
:100D70000121024800F0D4F810BD000000640040DA
:100D800000B589B00121022003F022FD012188066F
:100D900003F02EFD092205213B4802F0C5FE092281
:100DA0000621394802F0C0FE6020079002208DF82D
:100DB000200007A9344802F06FFE344800F004F91F
:100DC00004A800F03CFB00208DF816008DF81700F9
:100DD0008DF818008DF819008DF81A0001208DF893
:100DE0001B0000208DF812008DF8130008208DF8EC
:100DF000140003208DF81500ADF8100004A9234855
:100E000000F01BFA0E208DF80A0000208DF80B0070
:100E100001208DF80C000020ADF80000ADF80200B4
:100E2000ADF80400ADF80600ADF8080001208DF81B
:100E30000D00684600F0E4F801220221134800F09A
:100E4000F3F901221146114800F0EEF940208DF827
:100E5000200001208DF821008DF822008DF823005C
:100E600008A803F031F93F208DF8200001208DF80B
:100E7000210000208DF8220001208DF8230008A811
:100E800003F022F909B000BD0004024000680040F0
:100E900000B585B002210B4800F036F978B1022187
:100EA000084800F03DF80849064800F01DF86A4679
:100EB0000021044800F04BFA684600F0B1FE05B08E
:100EC00000BD0000006800400800003210B501219C
:100ED000044800F019F918B10121024800F020F887
:100EE00010BD00000068004000220C4B994202D166
:100EF0000023836111E0C1F3130201F000730BB111
:100F0000C2600AE001F080630BB1026105E001F00C
:100F100000630BB1826000E0426070477000F03007
:100F2000B1F5007F3AD00FDC202928D006DC01295A
:100F30001CD004291DD0082940D11DE0402921D012
:100F4000B1F5807F3AD126E0B1F5004F31D006DC13
:100F5000B1F5806F25D0B1F5006F2FD124E0B1F548
:100F6000803F12D0B1F5003F28D111E0154A8260D0
:100F700025E00822C26022E01022C2601FE00822A1
:100F800002611CE01022026119E00822426016E0B2
:100F90001022426013E00422426010E0042242600A
:100FA0000DE0042242600AE00022826104224260D5
:100FB00005E0002282610422426000E000BF00BF21
:100FC000704700000101010010B504460B4884423F
:100FD00009D10121480603F01BFC00214FF00070ED
:100FE00003F016FC08E00121880603F011FC002143
:100FF0004FF0806003F00CFC10BD00000064004066
:1010000010B50021837A012202FA03F13D4A1268E9
:1010100042F001023B4B1A603A4A1C3212688A4382
:10102000384B1C331A60027BCAB9364A0C3212683C
:101030008A43344B0C331A604288C38842EA034324
:10104000304A4032847A42F834300288838842EA57
:1010500003432C4A4032847A02EBC4025360027B81
:10106000012A19D1274A0C3212680A43254B0C3346
:101070001A604288038842EA0343224A4032847A53
:1010800042F83430C288838842EA03431D4A403222
:10109000847A02EBC4025360C27A3AB9194A121D2B
:1010A00012688A43174B1B1D1A6006E0154A121D71
:1010B00012680A43134B1B1D1A60028932B9114A88
:1010C000143212688A430F4B14331A600289012AC2
:1010D00006D10C4A143212680A430A4B14331A60C0
:1010E000427B012A06D1074A1C3212680A43054B8B
:1010F0001C331A60034A126822F00102014B1A6085
:1011000010BD00000066004070B504460D46002684
:1011100060692840002871D0B5F5807F5CD010DC74
:10112000082D35D006DC012D20D0022D24D0042D31
:1011300072D127E0102D31D0202D35D0402D6BD12C
:1011400038E0B5F5004F60D009DCB5F5007F49D037
:10115000B5F5806F4CD0B5F5006F5DD14FE0B5F5BA
:10116000803F2DD0B5F5003F56D12FE0A0682D4926
:1011700001F01EFE064651E0E068032101F018FE72
:1011800006464BE0E068082101F012FE064645E005
:10119000E068102101F00CFE06463FE020690321C3
:1011A00001F006FE064639E02069082101F000FE44
:1011B000064633E02069102101F0FAFD06462DE0D5
:1011C0006068082101F0F4FD064627E06068102100
:1011D00001F0EEFD064621E0A069012101F0E8FDE5
:1011E00006461BE0A069022101F0E2FD064615E07B
:1011F000A069042101F0DCFD06460FE00FE0A069C4
:10120000702101F0D5FD064608E06068042101F078
:10121000CFFD064602E0FFE7002600BF00E0002603
:10122000304670BD010101001AB143690B434361AF
:1012300002E043698B434361704730B502460020AA
:101240000023146824F002041460146844F00104BC
:10125000146000E05B1C546804F001041CB94FF6F4
:10126000FF74A342F6D1546804F001040CB90020C5
:101270006CE08C79012C04D1146844F08004146073
:1012800003E0146824F080041460CC79012C04D1AC
:10129000146844F04004146003E0146824F040042F
:1012A00014600C7A012C04D1146844F020041460FA
:1012B00003E0146824F0200414604C7A012C04D15B
:1012C000146844F01004146003E0146824F010045F
:1012D00014608C7A012C04D1146844F00804146062
:1012E00003E0146824F008041460CC7A012C04D1C3
:1012F000146844F00404146003E0146824F0040447
:1013000014608C78A407CD7844EA05640D7944EA2A
:1013100005444D7944EA05540D886D1E2C43D46173
:10132000146824F001041460002300E05B1C54687E
:1013300004F001041CB14FF6FF74A342F6D15468C7
:1013400004F001040CB1002000E0012030BD10B514
:1013500000F5D87303EB01131B6803F00403137249
:10136000137A53B900F5D87303EB01131B6840F2ED
:10137000FF7404EA5353136009E000F5D87303EBDC
:1013800001131B686FF0604404EAD303536000F557
:10139000D87303EB01131B6803F00203537200F5CB
:1013A000D87303EB01135B6803F00F03937200F52E
:1013B000D87303EB01135B681B0AD37400F5D87371
:1013C00003EB01139B68D37200F5D87303EB011391
:1013D0009B681C0A147300F5D87303EB01139B6818
:1013E0001C0C547300F5D87303EB01139B681B0EA0
:1013F000937300F5D87303EB0113DB68D37300F527
:10140000D87303EB0113DB681C0A147400F5D8735E
:1014100003EB0113DB681C0C547400F5D87303EB69
:101420000113DB681B0E937421B9C36843F02003DA
:10143000C36003E0036943F02003036110BD002192
:101440008171C171017241728172C1728170C1700A
:10145000032101710221417101210180704710B502
:1014600002460020936803F08063B3F1806F00D1DF
:1014700010E0936803F00063B3F1006F01D1012025
:1014800008E0936803F08053B3F1805F01D102203C
:1014900000E00420042874D002F5C07303EB0013AD
:1014A0001B6803F0010402F5C07303EB00131C601A
:1014B0000B7A7BB94B7A0C8843EA445302F5C0742B
:1014C00004EB00142468234302F5C07404EB0014F9
:1014D000236010E00B7A4C6843EAC4034C7A234340
:1014E00002F5C07404EB00142468234302F5C074B1
:1014F00004EB001423608B7A03F00F038B7202F568
:10150000C07303EB00135B6823F00F0402F5C07394
:1015100003EB00135C6002F5C07303EB00135B6820
:101520008C7A234302F5C07404EB001463608B7B58
:101530001C064B7B44EA03440B7B44EA0323CC7A2E
:10154000234302F5C07404EB0014A3608B7C1C06DB
:101550004B7C44EA03440B7C44EA0323CC7B2343C7
:1015600002F5C07404EB0014E36002F5C07303EBF2
:1015700000131B6843F0010402F5C07303EB001372
:101580001C6010BD70B52DED0C8B82B0FE4890ED47
:10159000022BB0EE420AF0EE620A90ED002BB0EEA4
:1015A000421AF0EE621A53EC102B51EC110B06F0BC
:1015B000E7FC41EC1D0BB0EE4D0AF0EE6D0A05F0B4
:1015C000D7FAB0EE40CAF0EE60CA9FEDF00B53ECD4
:1015D000102B51EC1C0B06F093FB41EC1B0BB0EEF7
:1015E0004B0AF0EE6B0A05F017F9B0EE40AAF0EEE8
:1015F00060AA9FEDE80B53EC102B51EC1A0B06F090
:10160000B3FC41EC190B9FEDE50B53EC102B06F0EE
:1016100077FB41EC180B9FEDE10B53EC102B06F020
:1016200089F8D94AC2E908019FEDDE0B104680ED2A
:101630000A0B9FEDDC0B80ED0C0B9FEDDC0BDD4806
:1016400080ED080BDC4880ED080B9FEDDC0BD948E2
:1016500080ED0A0BD84880ED0A0B9FEDDA0BD548D8
:1016600080ED0C0BD44880ED0C0B02F095FA0728A6
:1016700002D002F091FA38BB9FEDD40BC24880ED46
:10168000080B9FEDCE0B80ED0A0B9FEDD20B80ED8A
:101690000C0B90ED001BB0EE410AF0EE610A51EC2C
:1016A000100B06F015F8CD4908609FEDBE0BB6484B
:1016B00080ED000BCA49886B06F0BBFAB24AC2E95A
:1016C00002011046816F884702F066FA04285AD159
:1016D000C4480068D0B9AC4890ED001BB0EE410A98
:1016E000F0EE610A51EC100B05F0F2FFBB49086007
:1016F000BD48006806F02EFD41EC180B9FEDA30BD2
:1017000053EC102B06F0FCFA9F4A03C2B548006860
:1017100001281AD19C4890ED001BB0EE410AF0EE72
:10172000610A51EC100B05F0D3FFAC490860AE48DC
:10173000006806F00FFD41EC180B9FED940B53EC85
:10174000102B06F0DDFA904A03C2A549886B06F01B
:1017500070FA8D4AC2E902011046816F8847A34999
:10176000886B06F066FA944AC2E902011046816F5E
:1017700088479F49886B06F05CFA8E4AC2E90201ED
:101780001046816F884702F007FA012807D002F05F
:1017900003FA062803D002F0FFF9082835D17A4869
:1017A00090ED001BB0EE410AF0EE610A51EC100B17
:1017B00005F08EFF894908608B4890ED000AB1EE74
:1017C000400A10EE100A06F0C5FC6F4A03C28449B5
:1017D000886B06F02EFA6C4AC2E902011046816F4E
:1017E00088478249886B06F024FA734AC2E90201ED
:1017F0001046816F88477E49886B06F01AFA6D4A59
:10180000C2E902011046816F884702F0C5F9052838
:1018100030D15D4890ED001BB0EE410AF0EE610A58
:1018200051EC100B05F054FF6C4908606E480068DD
:1018300006F090FC544A03C26949886B06F0F9F936
:10184000514AC2E902011046816F88476749886B97
:1018500006F0EFF9584AC2E902011046816F884745
:101860006349886B06F0E5F9524AC2E90201104665
:10187000816F884702F090F9072802D002F08CF9B6
:10188000E8BB414890ED021BB0EE410AF0EE610A60
:101890009FED4C1B53EC112B51EC100B06F0F4F99F
:1018A00018D8394890ED021BB0EE410AF0EE610AFB
:1018B0009FED501B53EC112B51EC100B06F01EFB4F
:1018C00008D8002003460246014600904B4803F02A
:1018D0005BFBADE02C4890ED1A1BB0EE410AF0EE38
:1018E000610A51EC100B06F075F904B200200346B2
:1018F000024621460090414803F046FB98E0FFE78E
:1019000002F04AF904282BD12A4890ED1A1BB0EEB8
:10191000410AF0EE610A51EC100B06F05BF904B2DB
:10192000254890ED1A1BB0EE410AF0EE610A51EC29
:10193000100B06F04FF905B2134890ED1A1BB0EEEC
:10194000410AF0EE610A51EC100B06F043F906B2C1
:101950002B46002231462948009403F015FB67E02E
:10196000144890ED1A1BB0EE410AF0EE610A51ECFA
:10197000100B06F02FF904B20F4890ED1A1BB0EED1
:10198000410AF0EE610A3BE0380200209A999999E9
:101990009999B9BF000000000000F03F000000006E
:1019A000000059400000000000000000000000009E
:1019B00000004E40000400206803002000000000EA
:1019C0000000E03F00000000000024400000000094
:1019D00000004440000000000000144058090020AE
:1019E0007012002054010020280B0020201300203A
:1019F0007813002000000000000024C000640040B4
:101A000051EC100B06F0E6F805B20B4890ED1A1BEE
:101A1000B0EE410AF0EE610A51EC100B06F0DAF874
:101A200006B22B46002231460448009403F0ACFA7B
:101A300002B0BDEC0C8B70BD380200200064004089
:101A400010B504466C480068401C6B49086020686B
:101A5000702863D00EDC40285DD006DC302857D0DB
:101A6000312856D0322873D154E0502854D0602801
:101A7000F9D152E0A0F20120072869D2DFE800F096
:101A80000415263784B84F0001205C4908705A4875
:101A90000068322804D82146594802F073F803E060
:101AA0002146574802F0C2F9A3E0012053490870CB
:101AB00051480068322804D82146524802F062F8A2
:101AC00003E021464F4802F0B1F992E001204B4972
:101AD000087049480068322804D821464A4802F074
:101AE00051F803E02146484802F0A0F981E00120C6
:101AF0004249087040480068322804D821464348CB
:101B000002F040F803E02146404802F08FF970E00F
:101B10006FE06EE06DE06CE06BE06AE069E0364833
:101B20000068322826D22146394802F02BF838487E
:101B300040693849B1F90010401AB0F5805F08DDFE
:101B40003448008800F5005000B2324908801AE09D
:101B50004EE02F4840692F49B1F90010401A10F5A6
:101B6000805F10DA2B480088A0F5005000B22949A8
:101B7000088008E02748B0F900002549486121465F
:101B8000234802F0F9F934E01B480068322825D2D6
:101B90002146214801F0F6FF1F4840691F49B1F96D
:101BA0000010401AB0F5805F07DD1C48008800F582
:101BB000005000B21949088019E0174840691749D8
:101BC000B1F90010401A10F5805F10DA1348008850
:101BD000A0F5005000B21149088008E00F48B0F9A4
:101BE00000000D49486121460B4802F0C5F900E0AC
:101BF00000BF00BF10BD0000CC0B0020600B002018
:101C000070120020C812002020130020781300203A
:101C1000D0130020D20B002028140020D00B00206D
:101C200010B5044627480068401C26490860206813
:101C3000A0F2062078B1012841D108460068322878
:101C400004D82146204801F09DFF03E021461E48AC
:101C500002F066F800BF1B480068322825D22146F2
:101C60001A4801F08FFF194840691949B1F900106D
:101C7000401AB0F5805F07DD1548008800F5005078
:101C800000B21349088019E0104840691049B1F9C1
:101C90000010401A10F5805F10DA0D480088A0F59A
:101CA000005000B20A49088008E00948B0F9000075
:101CB000064948612146054802F032F800E000BFBD
:101CC00000BF10BDCC0B0020D814002080140020D1
:101CD000D40B002010B52DED068B04462079E17859
:101CE00040EA012000B2D0490880A079617940EA39
:101CF000012000B2CC494880E0798880E079CB4966
:101D00000880207A4880607AC9490880A07A488093
:101D1000C8480078C84908602078522879D160788E
:101D20004D28FBD1A078412873D0C44890ED000A1B
:101D3000F7EE000A30EE200A80ED000ABA48B0F94A
:101D4000000000EE100AB8EEC00ABD4880ED000A9F
:101D5000B548B0F9020000EE100AB8EEC00AB94862
:101D600080ED000A0120B34908700020B649888739
:101D7000B648007A032802D10120B549086001F075
:101D80003DFFB4494860084640680968401AB149B7
:101D90008860B1480078401CAF4908700846007858
:101DA000012819D1AD4890ED101BB0EE410AF0EEBC
:101DB000610A51EC100B05F08BFCA9490860A94899
:101DC00090ED101BB0EE410AF0EE610A51EC100BE1
:101DD00005F07EFCA44908609F4800781E2802DDBB
:101DE0001E209D49087001F0D7FE072806D001F09B
:101DF000D3FE18B101F0D0FE06280BD19FED9B0A4F
:101E00009B4880ED000A9FED990A9A4880ED000AF0
:101E10009AE09DE08449B1F9000005F00AFF41EC29
:101E20001A0B9FED950B53EC102B05F03FFD41EC89
:101E3000190B8A4890ED101BB0EE410AF0EE610AD2
:101E400053EC102B51EC190B05F074FC41EC180B02
:101E500005F03EFC864908607B48B0F93C00142838
:101E60001BDA084690ED000A7748B0F91410808A12
:101E7000401C00B2744A9082104600EB810080ED55
:101E8000000A1046B0F91400052802DB00201146B4
:101E9000888200206C49888710E0002008E09FEDD0
:101EA000730A694901EB800181ED000A411CC8B247
:101EB0000528F4DB00206449888288875A48808896
:101EC00081B26F4802780078401C6D4B18706D48E5
:101ED00020F81210184600780A2802DB0020194664
:101EE0000870684804F09CFF674908804E49B1F9C2
:101EF000020005F09EFE41EC1A0B9FED5F0B53ECC8
:101F0000102B05F0D3FC41EC190B564890ED101B3B
:101F1000B0EE410AF0EE610A53EC102B51EC190BB4
:101F200005F008FC41EC180B05F0D2FB51490860A4
:101F30004F4890ED000A554880ED000A084690EDA4
:101F4000000A534880ED000A01F058FE414908603C
:101F5000207852283ED160784D283BD1A078412886
:101F600038D1E078412835D19FED400A344880EDE2
:101F7000000A9FED3E0A334880ED000A3248808F08
:101F8000401C00B2304988870846B0F93C0014284C
:101F900001DB142088872C48B0F93C00142819DC98
:101FA0002E4890ED101BB0EE410AF0EE610A51ECA4
:101FB000100B05F08DFB2E4908602A4890ED101B90
:101FC000B0EE410AF0EE610A51EC100B05F080FB17
:101FD000284908601C48B0F93C00142821DB002087
:101FE0001D4908701D4890ED101BB0EE410AF0EE3F
:101FF000610A51EC100B05F06BFB1D490860194894
:1020000090ED101BB0EE410AF0EE610A51EC100B9E
:1020100005F05EFB1749086000200D49086005497E
:102020000870BDEC068B10BD280000202E0000209B
:10203000320000205C0B0020800000209000002077
:102040008400002088000020C40F002044110020DC
:10205000E40000205D0C00207D000020D013002053
:102060002401002028140020280100200000000086
:10207000440000203C000020000000000000594007
:102080004C000020B00F00204A000020400000203B
:102090003800002010B52DED048B01F07DFD0128E6
:1020A00007D001F079FD042803D001F075FD082860
:1020B0007DD18848007801282ED1874800880128E2
:1020C0002AD18648007810B1012824D111E09FED73
:1020D000840A844880ED000A83480068401C8249D5
:1020E0000860824800688249086000207A490880B8
:1020F00011E09FED800A7B4880ED000A7B48006874
:10210000401C7A490860784800687B4908600020D4
:102110007149088000BF00BF6E4800780128C7D110
:102120007048006806F016F841EC190B734890ED02
:10213000101BB0EE410AF0EE610A53EC102B51EC8B
:10214000190B05F01DFF41EC180B05F043FD041EB3
:1021500001DB204600E0604205281DDA5F48007878
:1021600010B101280CD105E09FED5D0A5D4880EDBE
:10217000000A05E09FED5F0A5A4880ED000A00BFA3
:1021800000BF56480078401C544908700846007843
:10219000022801DB0020087059480068401C58499B
:1021A000086058480078002801D1574800E08DE0C9
:1021B00090ED000A554880ED000A08460068401C72
:1021C0000860084600685249884202DD01205149F2
:1021D00008605048006890BB4248006805F0BAFFAC
:1021E00041EC180B454890ED101BB0EE410AF0EEA3
:1021F000610A53EC102B51EC180B05F07FFE05D251
:102200009FED450A404880ED000A18E03548006817
:1022100005F0A0FF41EC180B384890ED101BB0EE14
:10222000410AF0EE610A53EC102B51EC180B05F04B
:102230002BFD04D29FED390A334880ED000A354862
:102240000068012832D12748006805F083FF41EC7F
:10225000180B2A4890ED101BB0EE410AF0EE610A0F
:1022600053EC102B51EC180B05F048FE05D29FEDF6
:102270002A0A254880ED000A18E01A48006805F08F
:1022800069FF41EC180B1D4890ED101BB0EE410AA0
:10229000F0EE610A53EC102B51EC180B05F0F4FC36
:1022A00004D29FED1E0A184880ED000A174890EDF1
:1022B000000A1548D0ED000A20EE200AB5EEC00A4B
:1022C000F1EE10FA02D201200E490870BDEC048B29
:1022D00010BD0000600B002086010020410100209D
:1022E00000401C46140B00207001002078010020E3
:1022F0007C01002000401CC67401002070120020E8
:10230000580100202E0100201C0B0020180B00207B
:10231000F049020054010020000048C40000484475
:1023200010B52DED068B01F037FC05286FD1FE4866
:1023300000680128FAD1FD480068012804D19FED0A
:10234000FC0AFC4880ED000AF8480068002877D1B4
:10235000F9480088012818D1F848007810B1012800
:1023600012D108E09FEDF60AF24880ED000A002045
:10237000F149088008E09FEDEE0AEE4880ED000A82
:102380000020ED49088000BF00BFEA48006805F062
:10239000E1FE41EC180BEB4890ED101BB0EE410A4A
:1023A000F0EE610A53EC102B51EC180B05F0E8FD30
:1023B00041EC190B05F00EFC041E01DB204600E089
:1023C0006042E1490860DB48006805F0C3FE41EC6B
:1023D000190BDC4890ED101BB0EE410AF0EE610ADB
:1023E00053EC102B51EC190B05F0CAFD41EC180B06
:1023F00005F0F0FB041E01DB204600E060420528EA
:102400001EDACE48007818B101280DD106E058E058
:102410009FEDCB0AC74880ED000A05E09FEDC40A96
:10242000C44880ED000A00BF00BFC4480078401CCB
:10243000C249087008460078022801DB00200870B5
:10244000C2480078E8BBC24890ED000AC14880ED60
:10245000000AB6480068012804D19FEDBF0ABC48B5
:1024600080ED000AB148006860BBB248006805F022
:1024700071FE41EC180BB34890ED101BB0EE410A11
:10248000F0EE610A53EC102B51EC180B05F0FCFB3D
:1024900005D29FEDB20AAE4880ED000A1BE0A548C8
:1024A000006805F057FE41EC180BA64890ED101B94
:1024B000B0EE410AF0EE610A53EC102B51EC180B10
:1024C00001E018E007E005F019FD04D29FEDA40A31
:1024D0009F4880ED000A9F4890ED000A9C48D0ED8F
:1024E000000A20EE200AB5EEC00AF1EE10FA02D280
:1024F00001209649087001F04FFB052875D18A48E4
:1025000000680028FAD19748007868B996480068B2
:10251000012809D19FED860A864880ED000A002037
:1025200091490860914908608E48007801280DD1D2
:102530008D480068012809D19FED8D0A7D4880ED06
:10254000000A0020884908608849086089480068B6
:1025500001280BD19FED760A764880ED000A002015
:1025600081490860814908608249086081480068A3
:1025700002280BD19FED7E0A6E4880ED000A0020F4
:1025800079490860794908607A4908607A48007892
:102590000128B3D17548006801287DD166480088BC
:1025A000012843D104F05CFC6448007810B1012894
:1025B0003BD11BE07148B0F9000005F03AFB41EC5B
:1025C000190BB0EE490AF0EE690A04F0D1FAB0EE48
:1025D000408AF0EE608A51EC180B05F079F8554905
:1025E00008600020544908801FE084E26348B0F985
:1025F000000005F01EFB41EC1A0BB0EE4A0AF0EEAB
:102600006A0A04F0B5FAB0EE409AF0EE609A51EC26
:10261000190B05F051F841EC180B05F059F8454934
:10262000086000204449088000BF00BF544800886B
:10263000782876DB53480068012872D15248006838
:1026400041F2883188423DD250480068522803D078
:102650004E4800684C2815D144480068012811D123
:102660003648007810B1012808D103E00220414922
:10267000086003E001203F49086000BF00BF002060
:102680004149086042480068522803D04048006829
:102690004C2817D1354800E075E10068012811D1B8
:1026A0002648007810B1012808D103E00120314903
:1026B000086003E002202F49086000BF00BF00202F
:1026C000314908603048006841F28831884201D9B8
:1026D000012000E000202C490968B1F57A5F01D2A1
:1026E000012100E000210840D8B1284800685228A4
:1026F00002D102201F490860244800684C2802D1FA
:1027000001201C49086022480068522802D101209B
:10271000184908601E4800684C2802D1022015495B
:1027200008601748008835E0980B0020A40B0020B3
:1027300000401CC6140B002086010020410100202F
:1027400000409C4570120020200100202E01002036
:102750001C0B0020180B0020000048C4000016C409
:1027600000001644DE0B00200401002008010020B8
:1027700000401C461C010020600B00200E010020C0
:10278000DA0B0020940B0020700B0020500000207A
:102790005400002078285FDAFE48006864283BD89F
:1027A000FD480068522803D0FB4800684C2815D12A
:1027B000FA480068012811D1F948007810B10128C1
:1027C00008D103E00220F749086003E00120F54941
:1027D000086000BF00BF0020F3490860F3480068AC
:1027E000522803D0F14800684C2815D1EB48006806
:1027F000012811D1EA48007810B1012808D103E07E
:102800000120E849086003E00220E649086000BFB3
:1028100000BF0020E4490860DE48006864281BD936
:10282000DD480068522802D10220DE490860DA48FB
:1028300000684C2802D10120DA490860DB480068B2
:10284000522802D10120D7490860D84800684C2896
:1028500002D10220D3490860D548006805F07AFC0F
:1028600041EC190BD34890ED101BB0EE410AF0EE8D
:10287000610A53EC102B51EC190B05F081FB41EC74
:10288000180B05F0A7F9041E01DB204600E06042AA
:10289000052878DAC8480088782855DBC2480068DF
:1028A00041F2883188424FD2C448006858B904F0D8
:1028B000D7FAC348B0F9000000EE100AB8EEC00A1B
:1028C000BB4880ED000ABD48006801283CD104F0F7
:1028D000C7FAB348007810B1012834D117E0B848DE
:1028E000B0F9000005F0A5F941EC190BB0EE490A6A
:1028F000F0EE690A04F03CF9B0EE408AF0EE608A2E
:1029000051EC180B04F0E4FEA94908601BE0AC4848
:10291000B0F9000005F08DF941EC1A0BB0EE4A0A4F
:10292000F0EE6A0A04F024F9B0EE409AF0EE609AF4
:1029300051EC190B04F0C0FE41EC180B04F0C8FE7A
:102940009B49086000BF00BF9B480088782850DA88
:102950009C48006801280BD104F082FA9848B0F92D
:10296000000000EE100AB8EEC00A914880ED000A9F
:102970009448006838B904F073FA8948007818B1AF
:10298000012835D118E034E08D48B0F9000005F099
:1029900050F941EC190BB0EE490AF0EE690A04F067
:1029A000E7F8B0EE408AF0EE608A51EC180B04F0C4
:1029B0008FFE7F4908601BE08148B0F9000005F0F8
:1029C00038F941EC1A0BB0EE4A0AF0EE6A0A04F04C
:1029D000CFF8B0EE409AF0EE609A51EC190B04F08B
:1029E0006BFE41EC180B04F073FE7149086000BFE8
:1029F00000BF7548007800287DD1744890ED000A2A
:102A0000734880ED000A6A48006805F0A3FB41ECBA
:102A1000180B684890ED101BB0EE410AF0EE610A09
:102A200053EC102B51EC180B05F02EF93DD26048F9
:102A3000006805F08FFB41EC180B5E4890ED101B11
:102A4000B0EE410AF0EE610A53EC102B51EC180B7A
:102A500005F096FA41EC190B05F0BCF8041E01DBF9
:102A6000204600E06042B0F5FA7F18DD5248008849
:102A700078280ADB4C48006841F28831884204D843
:102A80009FED540A514880ED000A4B480088782891
:102A90005EDA9FED510A4D4880ED000A58E01FEDC7
:102AA000D10A4A4880ED000A52E04148006805F02A
:102AB00051FB41EC180B3F4890ED101BB0EE410A62
:102AC000F0EE610A53EC102B51EC180B05F016FADE
:102AD0003ED23748006805F03DFB41EC190B354804
:102AE00090ED101BB0EE410AF0EE610A53EC102B92
:102AF00051EC190B00E047E105F042FA41EC180BEC
:102B000005F068F8041E01DB204600E06042B0F5E5
:102B1000FA7F18DD2848008878280ADB22480068F8
:102B200041F28831884204D89FED2C0A274880ED75
:102B3000000A2148008878280ADA9FED290A2348EC
:102B400080ED000A04E01FEDFA0A204880ED000A3B
:102B50001E4890ED000A1E48D0ED000A30EE600AD3
:102B600010EE101A084605F0F5FA41EC190BB0EE1C
:102B7000490AF0EE690A03F0FBFFB0EE408AF0EE7E
:102B8000608A9FED180B53EC102B51EC180B05F0DD
:102B9000B5F92BE0740B0020500000200801002044
:102BA000410100201C010020700B00205400002077
:102BB000140B002070120020DA0B002014010020FA
:102BC0000E010020180100202E0100201C0B002007
:102BD000180B002000803BC400002FC400803B4441
:102BE00000002F440000000000C0624073D268481B
:102BF00090ED000A6748D0ED000A20EE200AB5EEFD
:102C0000C00AF1EE10FA66DD614890ED000A6248F4
:102C100080ED000A5F4890ED000A604880ED000AF0
:102C20005B48006805F096FA41EC1A0BB0EE4A0AD0
:102C3000F0EE6A0A03F09CFFB0EE408AF0EE608A84
:102C40005448006805F086FA41EC1A0BB0EE4A0AC7
:102C5000F0EE6A0A03F08CFFB0EE409AF0EE609A54
:102C600053EC182B51EC190B05F048F906D2012052
:102C70004B4908704B48816988472CE044480068FC
:102C800005F068FA41EC1A0BB0EE4A0AF0EE6A0A57
:102C900003F06EFFB0EE408AF0EE608A3D480068B7
:102CA00005F058FA41EC1A0BB0EE4A0AF0EE6A0A47
:102CB00003F05EFFB0EE409AF0EE609A53EC182BF2
:102CC00051EC190B04F0E0FF05D2012036490870E1
:102CD00034488169884732480078012821D1314839
:102CE00001698847F0EE400A2C4890ED000A2A4816
:102CF00090ED001A30EE411A90ED000A01EE200A24
:102D0000244880ED000A274801698847F7EE000A49
:102D1000B4EE600AF1EE10FA26D1002020490870C6
:102D200022E02148007801281ED11E480169884709
:102D30001A48D0ED000A184890ED001A30EEC11A7A
:102D4000D0ED000A41EE000A1248C0ED000A154815
:102D500001698847F7EE000AB4EE600AF1EE10FA56
:102D600002D1002010490870094890ED000A094876
:102D7000D0ED000A20EE200AB5EEC00AF1EE10FAFE
:102D800002D2012009490870BDEC068B10BD00007D
:102D9000180B00201C0B0020200B0020240B00200F
:102DA0002F010020E00A0020300100202E01002029
:102DB0000246002002EA01030BB1012000E00020DE
:102DC0007047000010B51E480068801C1C49086050
:102DD00002F01CFF02F0B4FFFDF70AFE00F036FA25
:102DE00003F0A8F803F076FA00F086FC00F0B4FADD
:102DF00000F08AFF00F0FEF9FDF7BAFD02F048F995
:102E000001F0DCFFFFF746F9FFF78AFA00F0FAFE5F
:102E1000FEF7B8FB01F044FC00F0F0FE0949486001
:102E2000084640680968401A064988600846806874
:102E30000549884202DD00200449087010BD0000E9
:102E4000FC000020500C002020A107005E0B002099
:102E500010B50020244908602448C16F88472448E1
:102E6000C16F88472348C16F88472348C16F88478F
:102E70002248C16F88472248C16F88472148C16FE7
:102E800088472148C16F88472048C16F884720483C
:102E9000C16F88471F484FF4C871C26990471D48E9
:102EA000816988471C484FF4FA61C26990471B4802
:102EB0004FF4FA61C26990471748816988471748FB
:102EC000816988479FED160A164880ED000A9FED3C
:102ED000140A154880ED000A144890ED000A1248C3
:102EE00080ED010A10BD0000FC0000203802002027
:102EF000D0020020680300200004002030050020DC
:102F000060060020F80600209007002060090020DD
:102F1000F8090020E00A0020980A0020BC0A0020DE
:102F200000000000280B00205C110020240100207C
:102F300021B1026842F00102026003E0026822F05F
:102F40000102026070470000016821F00101016088
:102F50000021016041608160C16001612121416106
:102F60004A49884204D13D21484A103A91608CE098
:102F700046491831884205D14FF47461434A103AEA
:102F8000916082E041493031884205D14FF474119B
:102F90003E4A103A916078E03C494831884205D178
:102FA0004FF07461394A103A91606EE037496031F0
:102FB000884204D13649354A103AD16065E0334938
:102FC0007831884204D13349304A103AD1605CE00C
:102FD0002E499031884204D12F492C4A103AD160B1
:102FE00053E02A49A831884205D14FF03D51274A84
:102FF000103AD16049E02949884204D13D21274A4D
:10300000083A116041E025491831884205D14FF452
:103010007461224A083A116037E020493031884211
:1030200005D14FF474111D4A083A11602DE01B4977
:103030004831884205D14FF07461184A083A11604E
:1030400023E016496031884204D11149134A121F06
:1030500011601AE011497831884204D10D490F4AB4
:10306000121F116011E00D499031884204D10A49C4
:103070000A4A121F116008E00849A831884204D1A9
:103080004FF03D51054A121F116070471060024019
:103090003D000020400F002000003D201064024051
:1030A00021B1026842F48022026003E0026822F447
:1030B00080220260704722B1036843F4002303605A
:1030C00003E0036823F400230360016170470146B5
:1030D000486880B27047014600200A6802F4002266
:1030E0000AB1012000E000207047000010B5002266
:1030F0000268134B1A40CC680B6823434C69234386
:103100008C692343CC6923430C6A23434C6A2343D1
:103110008C6A23434C6B23438C6B23431A4302601A
:10312000426922F00702D1E90B3423431A4342617A
:103130000B6943604B6883608B68C36010BD0000FF
:103140003F801CF00021016041608160C16001612D
:1031500041618161C161016241628162C162016359
:10316000416381637047704770B50446D4E900013C
:1031700040EA0120218940EA0140217B40EA0160C8
:1031800020612069C0F3C7507F3860612069C0F3B7
:103190001600A061002527E05DB9B0EE000AA16A23
:1031A00060698847F7EE000A20EE200A84ED080ADD
:1031B00019E0691E4FF480020A41A0691040C5F170
:1031C00017010841E0616269501BB0EE000AA16A74
:1031D0008847D4ED080A94ED071AB8EEC11A41EEFB
:1031E000000AC4ED080A6D1C182DD5DB94ED080A01
:1031F00070BD000010B50F48007801280CD10E49B1
:103200000988484204F015FD0C4A03C20A4908889F
:1032100004F026FD0A4A03C20648007848B99FED2B
:10322000090B064880ED000B9FED060B044880ED6E
:10323000000B10BDB1000020E80000206803002052
:1032400000040020000000000000000010B59FED09
:10325000300B314880ED080B9FED300B80ED0A0BF1
:103260009FED300B80ED0C0B9FED300B314880ED66
:10327000080B9FED2C0B80ED0A0B9FED2F0B80EDC3
:103280000C0B2F480068B0F1FF3F11D010B101289E
:103290002AD11BE09FED230B1F4880ED000B29482E
:1032A00090ED100B1C4880ED020B816F88471CE0ED
:1032B0009FED250B184880ED000B224890ED100B78
:1032C000154880ED020B816F88470EE09FED200BC3
:1032D000114880ED000B1B4890ED100B0E4880ED5F
:1032E000020B816F884700E000BF00BF0A4890EDE5
:1032F0001A0B104880ED000B1249886B04F099FC02
:103300000C4AC2E902011046816F884710BD0000D7
:1033100000000000000054402808002000000000C9
:103320000000F03F0000000000000000000000006E
:1033300000003E40C00800200000000000000040E7
:10334000080B00208014002000000000000049C08D
:10335000000000000000494010B52DED0C8BC64860
:1033600090ED000ADFEDC50AB4EEE00AF1EE10FAC6
:1033700004D89FEDC20A80ED000A0DE0BE4890ED32
:10338000000AF8EE080AB4EEE00AF1EE10FA03DBE8
:10339000B8EE080A80ED000A00F0FEFB052805D112
:1033A000B7480078012801D1B649086000F0F4FB65
:1033B000052805D1B248007810B90220B14908604B
:1033C00000F0EAFB04287CD1AF48006804F0C2FE9C
:1033D00041EC1B0BB0EE4B0AF0EE6B0A03F0C8FB9E
:1033E000B0EE409AF0EE609AA748006804F0B2FE92
:1033F00041EC1A0B53EC192B04F058FA41EC180B62
:1034000004F066F9A14908609F48006804F0A2FE34
:103410009F4A03C29F4890ED100B9D4880ED020B20
:1034200090ED022BB0EE420AF0EE620A90ED002B16
:10343000B0EE421AF0EE621A53EC102B51EC110B65
:1034400004F09EFD41EC1D0BB0EE4D0AF0EE6D0A4E
:1034500003F08EFBB0EE40CAF0EE60CA9FED8E0B1B
:1034600053EC102B51EC1C0B04F04AFC41EC1B0BF1
:10347000B0EE4B0AF0EE6B0A03F0CEF9B0EE40AAC4
:10348000F0EE60AA9FED860B53EC102B51EC1A0B5B
:1034900004F06AFD41EC190B9FED830B53EC102BEC
:1034A00004F02EFC41EC180B9FED810B53EC102B1C
:1034B00004F040F9764AC2E908019FED7F0B1046FF
:1034C00000E01AE080ED0A0B9FED7D0B80ED0C0B08
:1034D0009FED7D0B7E4880ED080B9FED7E0B80ED10
:1034E0000A0B9FED7E0B80ED0C0B1046816F884719
:1034F000674890ED1A0B80ED1A0B00F04DFB78B188
:1035000000F04AFB01280BD000F046FB062807D04C
:1035100000F042FB082803D05A48006802286CD10A
:103520009FED700B5A4880ED080B9FED5D0B80ED11
:103530000A0B9FED680B80ED0C0B9FED6C0B644844
:1035400080ED080B9FED630B80ED0A0B9FED610B87
:1035500080ED0C0B00F020FB18B100F01DFB0728DC
:1035600022D19FED5C0B4A4880ED000B6148016958
:10357000884710EE104A204604F0ECFD41EC180B91
:10358000444890ED101BB0EE410AF0EE610A53EC96
:10359000102B51EC180B04F0B3FB3D4AC2E90201B9
:1035A0001046816F884728E0334890ED000AB1EE5D
:1035B000400A10EE101A084604F0CCFD344A03C24B
:1035C0004C480169884710EE104A204604F0C2FDBD
:1035D00041EC180B2F4890ED101BB0EE410AF0EEB5
:1035E000610A53EC102B51EC180B04F089FB284AAC
:1035F000C2E902011046816F8847254890ED1A0BF9
:10360000334880ED000B2349886B04F012FB304AED
:10361000C2E902011046816F88472D4890ED1A1BC0
:10362000B0EE410AF0EE610A03F0A2FAB0EE409A61
:10363000F0EE609A264890ED1A1BB0EE410AF0EECB
:10364000610A53EC192B51EC100B04F02FF941ECEB
:10365000180B1F4890ED1A1BB0EE410AF0EE610AFC
:1036600053EC102B51EC180B04F064F8184AC2E923
:103670001A01BDEC0C8B10BD5C11002000000CC2C7
:103680005C0B0020500B00203C000020480B002069
:1036900030050020281400209A9999999999B9BF6A
:1036A000000000000000F03F000000000000444067
:1036B00000000000000024409A9999999999B93F17
:1036C00000000000000018400000000000003E4024
:1036D0006006002000000000000000000000000064
:1036E0000000004000000000000054400000000006
:1036F00000003440980A002010B52DED0C8B00F02E
:103700004BFA042803D0B948006801287ED1B84894
:1037100090ED000AB748D0ED000A30EE600AB648D6
:1037200080ED000AB1480068B44908600020AF4944
:103730000860B048006804F00DFD41EC1B0BB0EED2
:103740004B0AF0EE6B0A03F013FAB0EE409AF0EE7B
:10375000609AA848006804F0FDFC41EC1A0B53EC99
:10376000192B04F0A3F841EC180B03F0B1FFA449A6
:103770000860A048006804F0EDFCA24A03C2A24819
:1037800090ED100B9F4880ED020B90ED022BB0EEF8
:10379000420AF0EE620A90ED002BB0EE421AF0EE13
:1037A000621A53EC102B51EC110B04F0E9FB41ECC5
:1037B0001D0BB0EE4D0AF0EE6D0A03F0D9F9B0EE34
:1037C00040CAF0EE60CA9FED910B53EC102B51EC08
:1037D0001C0B04F095FA41EC1B0BB0EE4B0AF0EE1B
:1037E0006B0A03F019F8B0EE40AAF0EE60AA9FED64
:1037F000890B53EC102B51EC1A0B04F0B5FB41EC88
:10380000190B9FED860B53EC102B00E02BE004F01E
:1038100077FA41EC180B9FED830B53EC102B03F060
:1038200089FF784AC2E908019FED800B104680EDC0
:103830000A0B9FED800B80ED0C0B9FED800B8148F8
:1038400080ED080B9FED800B80ED0A0B9FED800B48
:1038500080ED0C0B1046816F8847664890ED000A9A
:10386000634880ED000A00F097F918B100F094F970
:10387000072827D19FED780B624880ED080B9FED5C
:10388000780B80ED0A0B9FED780B80ED0C0B9FED14
:10389000760B6C4880ED080B9FED750B80ED0A0BE5
:1038A0009FED6B0B80ED0C0B574890ED100B5548BE
:1038B00080ED000B544890ED100B524880ED020B48
:1038C000816F884700F068F9062831D19FED620BBF
:1038D0004C4880ED080B9FED680B80ED0A0B9FEDC7
:1038E000620B80ED0C0B9FED600B564880ED080BD2
:1038F0009FED5F0B80ED0A0B9FED550B80ED0C0BE0
:103900005F4890ED010A10EE101A084604F022FC00
:103910003C4A03C23C4890ED100B3A4880ED020B44
:103920005848007800F0070010B13648816F88478A
:1039300000F032F9012807D000F02EF9082803D052
:103940002A480068022832D1284800682B490860BC
:103950000020264908609FED400B2A4880ED080BA7
:103960009FED390B80ED0A0B9FED410B80ED0C0BA9
:103970009FED450B334880ED080B9FED3D0B80ED2F
:103980000A0B9FED330B80ED0C0B3D4890ED010AC7
:1039900010EE101A084604F0DDFB1A4A03C21A485A
:1039A00090ED100B174880ED020B816F884715488A
:1039B00090ED1A1BB0EE410AF0EE610A9FED341B48
:1039C00053EC112B51EC100B04F09AF91D4A03C271
:1039D0000D49886B04F02DF91A4AC2E9020110461C
:1039E000816F8847BDEC0C8B10BD0000500B002090
:1039F0004000002044000020300B0020540B002029
:103A0000400B0020F8060020D0130020333333335E
:103A10003333D3BF000000000000F03F000000007F
:103A20000000444000000000004060409A999999CD
:103A30009999B93F00000000000008400000000014
:103A400000002440900700207B14AE47E17A743FC9
:103A5000000000000000004000000000000059408D
:103A60007B14AE47E17A843F000000000000144060
:103A700000000000000000009A9999999999A93FC7
:103A80005C110020FC0000200000000000002E401F
:103A9000000000000000E03FF0B50A4600210023CE
:103AA000002400BF3DE0012505FA01F3156805EA91
:103AB00003049C4234D105684F000326BE40B54341
:103AC000056015794E00B5400668354305601579E7
:103AD000012D02D01579022D16D185684F000326DD
:103AE000BE40B543856055794E00B5408668354384
:103AF0008560456801268E40B543456045689679E6
:103B00008E40B6B235434560C5684F000326BE40BF
:103B1000B543C560D5794E00B540C6683543C5602C
:103B2000491C1029BFD3F0BDF0B5002300244D0778
:103B3000ED0E02FA05F3CE1000F1200555F82650DF
:103B40004E07F70E0F26BE40B543CF1000F12006FA
:103B500046F82750CE1000F1200555F8265045EACA
:103B60000304CE1000F1200545F82640F0BD018386
:103B700070474FF6FF710160002101714171817141
:103B8000C17170470A7BCB7A42EA032242614269E3
:103B90000260426982607047014800787047000007
:103BA0005B0B002030B5034613B94FF6FF7030BDF4
:103BB00009E013F8014B82EA0400C0B2054D35F864
:103BC000100080EA2222081EA1F10101F1D1104665
:103BD000EDE700006A84000830B5034605E013F8FD
:103BE000010B80EA02040448025D081EA1F10101F4
:103BF000F5D1104630BD0000698300084FF08040C9
:103C0000406A704710B5FFF7C7FF01280BD0FFF7D8
:103C1000C3FF052807D0FFF7BFFF042803D0FFF735
:103C2000BBFF082852D12A480078012823D1002060
:103C300028490870284908709FED280A284880ED17
:103C4000000A90ED000AB5EEC00AF1EE10FA06D8AF
:103C50009FED220A80ED000A02201D4908702148CC
:103C600090ED000A1E48D0ED000A20EE200A1E4802
:103C700080ED000A2AE016480078022820D1B7EE2D
:103C8000000A174880ED000A90ED000AF7EE000ADE
:103C9000B4EEE00AF1EE10FA06DBB7EE000A80EDB2
:103CA000000A00200A490870104890ED000A0C48EC
:103CB000D0ED000A20EE200A0B4880ED000A05E056
:103CC0000A4890ED000A084880ED000A10BD000087
:103CD0002E0100202F0100203001002000000000F4
:103CE0000C0B0020180B0020280B00201C0B0020C0
:103CF00003490988014409B2014A11807047000054
:103D0000680B002000BFFEE70248007802490870F7
:103D100070470000F0000020F600002000BFFEE722
:103D20002DE9F0412DED088B04460D4600260027B5
:103D300020686060287BE97A40EA012020602068E2
:103D40006168401AE060E06810F5805F07DA606B38
:103D5000401C6063E06800F50050A0610DE0E06881
:103D6000B0F5805F07DD606B401E6063E068A0F522
:103D70000050A06101E0E068A061A269207C411CC4
:103D8000217404F11C0141F820202168606B01EBD3
:103D90004030A060616B4FF4B47201FB02F003F09D
:103DA00048FF9FED1C0B53EC102B03F07FFD41EC03
:103DB000180B21686269881A03F03BFF9FED170B0F
:103DC00053EC102B03F09CFF9FED160B53EC102BC4
:103DD00003F06CFD53EC182B03F0ACFC41EC100B22
:103DE00084ED100B207C062801D1002020740026D1
:103DF00005E004F11C0050F826000744761C062E4E
:103E0000F7DB062097FBF0F0A063BDEC088BBDE864
:103E1000F0810000000000000000424000000000AF
:103E200000002440000000000000C0402DE9F041E7
:103E30002DED0A8B04460D4600260027B0460020D3
:103E400008EE100A20686060287BE97A40EA0120C9
:103E5000206020686168401AE060E06810F5805FCB
:103E600007DA606B401C6063E06800F50050A061F9
:103E70000DE0E068B0F5805F07DD606B401E6063B9
:103E8000E068A0F50050A06101E0E068A061A269CF
:103E9000207C411C217404F11C0141F82020216880
:103EA000606B01EB4030A060616B4FF4B47201FBBA
:103EB00002F003F0BEFE9FED2A0B53EC102B03F033
:103EC000F5FC41EC190B21686269881A03F0B1FE18
:103ED0009FED250B53EC102B03F012FF9FED240BED
:103EE00053EC102B03F0E2FC53EC192B03F022FCF3
:103EF00041EC100B84ED100B207C062801D1002032
:103F00002074002605E004F11C0050F82600074448
:103F1000761C062EF7DBA97B687B41EA00200FFAAE
:103F200080F8404603F085FE41EC1A0B9FED0C0B28
:103F300053EC102B03F0BAFC41EC190B03F04AFED2
:103F4000A063297CE87B41EA002000B208EE100A59
:103F5000B8EEC80A84ED140ABDEC0A8BBDE8F08106
:103F6000000000000000334028AFA1BC86F23240C0
:103F7000000000000000C0402DE9F0472DED088B47
:103F800004460D460026B14600BF00BF20686060B1
:103F9000287BE97A40EA0120206020686168401AA5
:103FA000E060E06810F5805F07DA606B401C6063DA
:103FB000E06800F50050A0610DE0E068B0F5805FBA
:103FC00007DD606B401E6063E068A0F50050A061F3
:103FD00001E0E068A061A269207C411C217404F129
:103FE0001C0141F820202168606B01EB4030A0608B
:103FF000616B4FF4B47201FB02F003F01AFE41EC66
:10400000180B21686269881A03F013FE9FED290BD3
:1040100053EC102B03F074FE9FED280B53EC102B88
:1040200003F044FC53EC182B03F084FB41EC100B21
:1040300084ED100B21686269881A03F0FAFD9FED88
:104040001D0B53EC102B03F05BFE9FED1C0B53EC90
:10405000102B03F02BFC41EC100B84ED120B207C99
:10406000062801D100202074002605E004F11C0080
:1040700050F826008144761C062EF7DBA97B687B6E
:1040800041EA00284FF4B47018FB00F03C2190FB8B
:10409000F1F0A063297CE87B41EA002007B200EE42
:1040A000107AB8EEC00A84ED140ABDEC088BBDE8A6
:1040B000F087000000000000008076400000000053
:1040C0000000C0407047000070B5002100230F229F
:1040D000C4781CB3174C246804F4E064C4F5E064AD
:1040E000C4F30721C1F10404E3B20A4144789C40BF
:1040F000E1B28478144021430C07210E0E4C057860
:104100006155047804F01F050124AC4005786D1159
:10411000AD0005F1E025C5F8004109E0047804F0A0
:104120001F050124AC40054D0678761145F8264060
:1041300070BD00000CED00E000E400E080E100E074
:1041400002490143024A1160704700000000FA056D
:104150000CED00E010B52DED028B044694ED022B22
:10416000B0EE420AF0EE620A94ED002BB0EE421A75
:10417000F0EE621A53EC102B51EC110B03F000FF20
:10418000C4E9040194ED222BB0EE420AF0EE620A7B
:1041900094ED042BB0EE421AF0EE621A53EC102BA1
:1041A00051EC110B03F0AAFE16D994ED221BB0EED0
:1041B000410AF0EE610A51EC100B03F07DFA41EC7C
:1041C000180B94ED041BB0EE410AF0EE610A53ECBB
:1041D000102B03F093FE7DD294ED042BB0EE420A37
:1041E000F0EE620A94ED082BB0EE421AF0EE621A7D
:1041F00053EC102B51EC110B03F082FDC4E90E01BE
:1042000094ED141BB0EE410AF0EE610A51EC100B74
:1042100003F052FA41EC180B94ED0E1BB0EE410A7C
:10422000F0EE610A53EC102B03F068FE0CD894ED0D
:10423000141BB0EE410AF0EE610A51EC100B03F0D2
:104240003BFAC4E90E0116E094ED142BB0EE420ADD
:10425000F0EE620A94ED0E2BB0EE421AF0EE621A06
:1042600053EC102B51EC110B03F048FE03D894EDE6
:10427000140B84ED0E0B94ED042BB0EE420AF0EE1D
:10428000620A94ED0A2BB0EE421AF0EE621A53EC79
:10429000102B51EC110B03F033FD41EC180B94ED96
:1042A000101BB0EE410AF0EE610A53EC102B03F044
:1042B00041FAC4E9100194ED161BB0EE410AF0EE8C
:1042C000610A51EC100B03F0F7F941EC180B94ED77
:1042D000101B00E0D5E0B0EE410AF0EE610A53ECAD
:1042E000102B03F00BFE0CD894ED161BB0EE410A18
:1042F000F0EE610A51EC100B03F0DEF9C4E9100195
:1043000016E094ED162BB0EE420AF0EE620A94ED40
:10431000102BB0EE421AF0EE621A53EC102B51EC57
:10432000110B03F0EBFD03D894ED160B84ED100B8D
:1043300094ED241BB0EE410AF0EE610A9FED741B70
:1043400053EC112B51EC100B03F008FC1ED194ED33
:10435000062BB0EE420AF0EE620A94ED042BB0EEAA
:10436000421AF0EE621A53EC102B51EC110B03F0D1
:10437000C7FC41EC180B9FED680B53EC102B03F0BE
:1043800083FC03D29FED640B84ED100B94ED062BA0
:10439000B0EE420AF0EE620A94ED042BB0EE421A3F
:1043A000F0EE621A53EC102B51EC110B03F0E8FD08
:1043B00041EC180B94ED0C1BB0EE410AF0EE610AD3
:1043C00053EC102B03F09CFCC4E9120194ED181B74
:1043D000B0EE410AF0EE610A51EC100B03F06CF9FB
:1043E00041EC180B94ED121BB0EE410AF0EE610A9D
:1043F00053EC102B03F082FD0CD894ED181BB0EE9B
:10440000410AF0EE610A51EC100B03F055F9C4E9D2
:10441000120116E094ED182BB0EE420AF0EE620A9B
:1044200094ED122BB0EE421AF0EE621A53EC102B00
:1044300051EC110B03F062FD03D894ED180B84EDE1
:10444000120B94ED102BB0EE420AF0EE620A94EDDE
:104450000E2BB0EE421AF0EE621A53EC102B51EC18
:10446000110B03F067F941EC180B94ED121BB0EE41
:10447000410AF0EE610A53EC102B03F05BF9C4E93A
:10448000200194ED200B84ED1A0B94ED1C1BB0EE73
:10449000410AF0EE610A51EC100B03F00DF941EC0A
:1044A000180B94ED1A1BB0EE410AF0EE610A53ECC2
:1044B000102B03F023FD0CD894ED1C1BB0EE410A29
:1044C000F0EE610A51EC100B03F0F6F8C4E91A01A2
:1044D00016E094ED1C2BB0EE420AF0EE620A94ED69
:1044E0001A2BB0EE421AF0EE621A53EC102B51EC7C
:1044F000110B03F003FD03D894ED1C0B84ED1A0B94
:1045000094ED040B84ED060BBDEC028B10BD000096
:10451000000000000000F03F00000000000000006C
:104520009FED120B80ED000B9FED100B80ED020B49
:104530009FED0E0B80ED040B9FED0C0B80ED060B39
:104540009FED0A0B80ED0E0B9FED080B80ED100B1D
:104550009FED060B80ED120B9FED040B80ED200B01
:104560009FED020B80ED1A0B704700000000000069
:10457000000000002DE9F0412DED048B0546C5F348
:10458000C750A0F17F07C5F31608002435E07CB9B9
:1045900038469FED1E0B02F0F7FAB0EE409AF0EEAF
:1045A000609A51EC190B03F093F808EE100A23E01F
:1045B000601E4FF4800141FA00F000EA0800C4F1E7
:1045C000170140FA01F6381B9FED100B02F0DCFAE0
:1045D000B0EE409AF0EE609A51EC190B03F078F8C7
:1045E00000EE900A00EE106AB8EEC01AB0EE480A6B
:1045F00001EE200AB0EE408A641C182CC7DBB0EE36
:10460000480ABDEC048BBDE8F0810000000000000A
:104610000000F03F7047000000B587B0012108029C
:1046200000F0D6F80121042000F0D2F840200190DB
:1046300000208DF808008DF80A0001208DF80B008D
:1046400003208DF8090001A91348FFF725FA8020FF
:10465000059000208DF818008DF81A0001208DF8C3
:104660001B0003208DF8190005A90C48FFF714FA68
:104670004020039000208DF810008DF812000120DA
:104680008DF8130003208DF8110003A90348FFF7EC
:1046900003FA07B000BD00000008024000200240FD
:1046A0003B4800683B4908703B48007801280BD123
:1046B0000846007840B90120384908700020384980
:1046C00008600120374908603448007801280CD17F
:1046D000354908800020354908703549486308602D
:1046E0002E4908700120334908602A48007878B9BB
:1046F0002B480068401C2A49086008460068B0F54D
:10470000FA7F05DD0020294908700120264908802C
:104710002048007820490870274800682749087019
:104720002748007801280BD10846007840B90120BD
:1047300024490870002024490860012023490860AA
:104740002048007801280CD11749088017490870C3
:1047500000201749486308601A490870012015496C
:1047600008601648007870B917480068401C164960
:10477000086008460068B0F5FA7F04DD01200B49A7
:104780000870094908800D4800780D490870704785
:104790001802414281010020800100208C0100208C
:1047A0009001002098010020860100204101002096
:1047B00070120020080100201C02444285010020E4
:1047C000840100208E010020940100209C01002023
:1047D00029B1064A12680243044B1A6004E0034AF6
:1047E00012688243014B1A60704700003038024063
:1047F00029B1064A12680243044B1A6004E0034AD6
:1048000012688243014B1A60704700004038024032
:1048100029B1064A12680243044B1A6004E0034AB5
:1048200012688243014B1A60704700002038024032
:1048300029B1064A12680243044B1A6004E0034A95
:1048400012688243014B1A607047000044380240EE
:1048500029B1064A12680243044B1A6004E0034A75
:1048600012688243014B1A607047000024380240EE
:10487000F0B5002100220024022500260223324F39
:104880003F6807F00C0121B1042905D0082937D170
:1048900005E02E4F076036E02D4F076033E02A4FCA
:1048A0003F1F3F68C7F38056274F3F1F3F6807F001
:1048B0003F036EB1264FB7FBF3F7DFF88CC0ACF1C6
:1048C000040CDCF800C0CCF3881C07FB0CF40CE0F3
:1048D0001E4FB7FBF3F7DFF870C0ACF1040CDCF847
:1048E00000C0CCF3881C07FB0CF4174F3F1F3F6838
:1048F000C7F301477F1C7D00B4FBF5F7076002E0BA
:10490000124F076000BF00BF0F4F3F6807F0F00174
:104910000909104F7A5C0768D74047600A4F3F6823
:1049200007F4E051890A0B4F7A5C4768D7408760EB
:10493000054F3F6807F46041490B064F7A5C4768B2
:10494000D740C760F0BD0000083802400024F400E2
:10495000001BB70000000020D0E90012914211DADC
:104960000168491C016090ED000AF8EEC00A90ED64
:10497000010AB8EEC00A80EE801A80ED021A90EDAE
:10498000020A7047B7EE000AFBE77047014691ED57
:10499000000AF8EEC00A91ED010AB8EEC01A80EEE6
:1049A000810AF7EE000AB4EEE00AF1EE10FA01DB3C
:1049B000012070470020FCE7002101607047016082
:1049C000704741607047000010B52DED088B04461C
:1049D00014B9BDEC088B10BDFFF710F984490860CD
:1049E0002078617840EA0120C0F30A0081490880FC
:1049F0006078C010A17840EA4110C0F30A007D49F8
:104A00004880A0788011E17840EA8100217940EA6D
:104A10008120C0F30A0077498880207940106179AD
:104A200040EAC110C0F30A007249C88060790011E1
:104A3000800808726079C0F301104872A079E179AA
:104A400040EA012000B26B494881207A617A40EA4D
:104A5000012001B267488181A07AE17A40EA012011
:104A600001B26448C181217B8174617BC174A07BE8
:104A7000E17B40EA01205F4988820846B0F90200E4
:104A8000A0F5806000EE100AB8EEC00A5A4880ED2A
:104A9000000AB1F90610A1F5806003F0CAF841ECF4
:104AA0001B0B9FED560B53EC102B03F029F941EC37
:104AB000190B544890ED000A10EE101A084603F046
:104AC00049FB41EC1A0B53EC192B02F033FE41EC7D
:104AD000180B02F0FDFD4B4908604649B1F904107E
:104AE000A1F5806003F0A5F841EC1B0B9FED460B90
:104AF00053EC102B03F004F941EC190B414890EDF5
:104B0000010A10EE101A084603F024FB41EC1A0BC0
:104B100053EC192B02F00EFE41EC180B02F0D8FDFD
:104B2000384948603348407A012802D10220384988
:104B300008703048407A032802D1012034490870B7
:104B40002C48407A022802D10020314908702948B7
:104B5000407A01283AD12748007A032803D0254813
:104B6000007A012802D101202A4908702148007AE0
:104B7000022802D10020274908701E48007A012827
:104B800001D1254908601B48007A022803D0194842
:104B9000007A032802D100201F490860154890F9C7
:104BA000080001280DD0022802D003280DD103E00F
:104BB00000201A49086000BF4FF0FF301749086015
:104BC00000BF01201549086000BF00BF0948407AB6
:104BD00003280AD10748007A022806D1002010498C
:104BE0000870104908701049087000BFF1E6000015
:104BF000500C002044110020280B0020FA7E6ABCD3
:104C00007493683F5C110020D42B6519E258673F0C
:104C10005E0B0020B1000020E4000020080B002003
:104C2000610B00205C0B00205D0B002001460C484E
:104C300000680B4A5268904201D101207047084831
:104C400002680830805C087005480068401C044A0F
:104C50001060642801DB002010600020EEE70000F7
:104C6000FE1100200E494A68083188540839496805
:104C7000491C0B4A5160642901DB0021516008493D
:104C80004968074A1268914208D105490968491CD8
:104C9000034A1160642901DB0021116070470000A4
:104CA000FE1100207047000040B506463F480078DE
:104CB000012806DB3D480078092802DC42203C49F7
:104CC00008703A480078652806DB384800786D2877
:104CD00002DC5220364908704D20354948704E207C
:104CE00088704C20C8704FF47A7095FBF0F030302B
:104CF00008724FF47A7095FBF0F100FB11506421BB
:104D000090FBF1F030302A494872642095FBF0F1B5
:104D100000FB11500A2190FBF1F0303024498872D9
:104D20000A2095FBF0F100FB115030302049C87289
:104D30004FF47A7094FBF0F0303008714FF47A70D1
:104D400094FBF0F100FB1140642190FBF1F0303056
:104D500017494871642094FBF0F100FB11400A21CF
:104D600090FBF1F03030124988710A2094FBF0F189
:104D700000FB114030300E49C8710EE00C480D4A5E
:104D80001268815C0C4800F02FFF0A480068401C44
:104D900008490860962002F017F806480068B042FB
:104DA000ECDB00200349086040BD0000E01100205A
:104DB00054100020680000200010014070B5FEF77C
:104DC000EBFE072822D1002211462E4800F00AF9F6
:104DD0002D4890ED1A1BB0EE410AF0EE610A51EC3D
:104DE000100B02F0F7FE04B2284890ED1A1BB0EE4B
:104DF000410AF0EE610A51EC100B02F0EBFE05B235
:104E000022462946224800F017F939E0214890ED62
:104E10001A1BB0EE410AF0EE610A51EC100B02F0E1
:104E2000D9FE04B21C4890ED1A1BB0EE410AF0EE18
:104E3000610A51EC100B02F0CDFE05B22246294664
:104E4000104800F0CFF8104890ED1A1BB0EE410A60
:104E5000F0EE610A51EC100B02F0BCFE04B20B48FC
:104E600090ED1A1BB0EE410AF0EE610A51EC100B06
:104E700002F0B0FE05B222462946054800F0DCF8F3
:104E800070BD000000640040F8090020C008002048
:104E90000068004060060020900700200CB500204C
:104EA000019000903448006840F480303249086036
:104EB00000BF3148006800F4003000900198401CA9
:104EC0000190009818B90198B0F5A04FF1D12A4887
:104ED000006800F4003010B10120009001E00020D3
:104EE00000900098012846D123484030006840F0E7
:104EF00080502149403108602048006840F440401B
:104F00001E4908601C48083000681B4908310860C9
:104F10000846006840F4004008600846006840F415
:104F2000A05008601648091F0860081F006840F07C
:104F30008070091F086000BF0F48006800F0007013
:104F40000028F9D040F205700E4908600A48083080
:104F5000006820F00300084908310860084600682E
:104F600040F00200086000BF03480830006800F00D
:104F70000C000828F8D10CBD003802400070004039
:104F80000C544007003C02402DE9F04186B08046B9
:104F90000C4615461E460C9F4FF4007001900020F1
:104FA0008DF80C008DF80D0008208DF80E00200AF9
:104FB0008DF80F008DF81040290A8DF811108DF82A
:104FC0001250310A8DF813108DF81460390A8DF8DB
:104FD00015108DF8167001A94046FCF740FA06B08E
:104FE000BDE8F08170B586B006460C46154640F225
:104FF000FF10019000208DF80C008DF80D000820A6
:105000008DF80E00280A8DF80F008DF81050FF2142
:105010008DF811108DF81210210A8DF813108DF8EB
:105020001440FF218DF815108DF8161001A9304697
:10503000FCF715FA06B070BD70B586B006460C4692
:10504000154640F2FF10019000208DF80C008DF8FD
:105050000D0008208DF80E00FF208DF80F00FF21B5
:105060008DF81010210A8DF811108DF81240290AC0
:105070008DF813108DF81450FF218DF815108DF850
:10508000161001A93046FCF7EAF906B070BD000021
:1050900010B59FED2D0B2E4880ED080B9FED2A0BD0
:1050A00080ED0A0B9FED280B80ED0C0B9FED290B7B
:1050B0002A4880ED080B9FED240B80ED0A0B9FED35
:1050C000280B80ED0C0B28480068012816D12749D1
:1050D000B1F90010C1EB0111880002F0AAFD1C4AD1
:1050E00003C2234890ED100B194880ED020B816F2D
:1050F00088479FED200B194880ED000B1C48806904
:105100000A2804DA9FED1D0B144880ED000B1848A7
:10511000806910F1050F04DA9FED160B0F4880ED42
:10512000000B1148006820B99FED070B0B4880ED7C
:10513000000B0F49886902F07CFD084AC2E90201B0
:105140001046816F884710BD00000000000000007D
:10515000600900200000000000004E40F809002017
:105160000000000000002E40E4000020580B00204A
:10517000D81400200000000000406F400000000034
:1051800000407FC07047000010B51548006840F42B
:105190007000134908601348006840F0010011498D
:1051A000086000200F49083108600E4800680E4969
:1051B00008400C4908600D48091D0860081F006878
:1051C00020F48020091F0860002006490C31086087
:1051D000FFF764FE4FF0006001498039086010BDA0
:1051E00088ED00E000380240FFFFF6FE103000249A
:1051F0000EB501210846FFF7FBFA4FF0FF30019092
:105200005320ADF800000020ADF80800ADF8020012
:1052100069464FF0804000F0A3F80121880700F0B4
:1052200067F80121880700F075F80EBD10B501215F
:10523000880700F07BF838B10121880700F067F893
:105240000121880700F060F810BD00000EB50121B3
:105250001020FFF7CDFA5320ADF800000020ADF884
:105260000200ADF808004FF4FA6001906946094861
:1052700000F076F836208DF8080000208DF809003F
:105280008DF80A0001208DF80B0002A8FEF71CFF24
:105290000EBD00000010004010B50121094800F0CB
:1052A00045F870B10121074800F031F801210548A7
:1052B00000F02AF8FDF786FD03480068401C02490B
:1052C000086010BD001000401C00002010B5012136
:1052D000064800F01FF801221146044800F037F894
:1052E0000121024800F010F810BD0000001000403D
:1052F00021B1028842F08002028004E002884FF669
:105300007F731A4002807047CA4302827047CA43C3
:105310000282704721B1028842F00102028004E05B
:1053200002884FF6FE731A400280704730B502467D
:10533000002000230024158A05EA0103958905EA67
:10534000010413B10CB1012000E0002030BD1AB1FE
:1053500083890B43838102E083898B438381704778
:1053600000220288184B98420ED0184B98420BD05E
:10537000B0F1804F08D0164B984205D0154B98429B
:1053800002D0154B984204D14FF68F731A404B88C8
:105390001A43124B984207D0114B984204D04FF653
:1053A000FF431A400B891A4302804B68C3620B8883
:1053B0000385054B984202D0044B984201D18B7A69
:1053C00003860123838270470000014000040140EE
:1053D0000004004000080040000C004000100040A5
:1053E000001400402DE9F04106460F464FF0010839
:1053F000002002EE100A0025002419E008FA04F04B
:105400003040204102EE100A2046B0EE000A01F0C2
:10541000D5FFF0EE400A00EE105AB8EEC00AB8EE22
:10542000C21A01EE200ABDEEC00A10EE105A641C2A
:10543000BC42E3DB2846BDE8F081000010B540F235
:105440002441284800F016FB002849D02548008850
:10545000244880882448FDF73EFE00BB00212248F6
:10546000FDF766FD2048FDF732FEC0F10C001F4934
:1054700008600C201C49091D0860081F006840F4E2
:105480000020091F086001211748FDF751FD17484A
:105490000068082824D11648FCF71CFC20E00021F5
:1054A0001148FDF745FD1048FDF711FEC0F10C0055
:1054B0000E4908600C200C49091D0860081F00688F
:1054C00020F40020091F086001210748FDF730FD86
:1054D00006480068082803D105480C30FCF7FAFBA1
:1054E00010BD00000010014088640240240000202C
:1054F000980F002000B58FB001210420FFF768F954
:1055000001214805FFF764F901218804FFF770F9CC
:1055100007220B214348FEF707FB0DA8FEF729FBE6
:105520004FF400600D9002208DF8380000208DF8B7
:10553000390001208DF83B000DA93A48FEF7ACFA7E
:10554000394800F01FFA09A800F052FB37480990CB
:105550000020ADF82800ADF82A004FF48060ADF8C7
:105560002C000420ADF82E000020ADF8300009A971
:105570002D4800F0CFFA012240212B4800F0F8F925
:10558000012240F22441284800F09EFA01212648D9
:1055900000F0E2F92648FDF7D7FC6846FDF7D2FD9A
:1055A0004FF0006000902048001D019021480290BB
:1055B000002003901E200490002005904FF480608E
:1055C00006900020079008904FF480700990000228
:1055D0000A9000200B900C900D900E906946144894
:1055E000FDF784FD002213491E311148FDF763FDCC
:1055F00001210F48FDF754FD01210D48FDF798FCEE
:1056000027208DF8380001208DF8390002208DF810
:105610003A0001208DF83B000EA8FEF755FD0FB0B3
:1056200000BD00000008024000480040A0860100C4
:1056300028600240E00B002010B540F224412748CA
:1056400000F018FA002848D0244800882348001D9C
:1056500000882348FDF73FFDF8B900212048FDF7F9
:1056600067FC1F48FDF733FDC0F11E001D490860AF
:105670001E201B492839C8620846806A40F4002071
:10568000886201211648FDF753FC1648006812286D
:1056900023D11548FFF798F91FE000211048FDF7C6
:1056A00047FC0F48FDF713FDC0F11E000D490860CF
:1056B0001E200B492839C8620846806A20F4002061
:1056C000886201210648FDF733FC0648006812286D
:1056D00003D105481E30FFF777F910BD00480040A0
:1056E0002860024018000020E00B002070B540F256
:1056F00024418C4800F0BEF9002871D08948008808
:105700008848001D00888848FDF7E5FC20BB002183
:105710008548FDF70DFC8448FDF7D9FCC0F1640015
:105720008249086064208049091D0860081F0068DC
:1057300040F40020091F086001217B48FDF7F8FBB9
:10574000002404E07A49085DFFF78CFA641C77486E
:1057500000688442F6D324E000217348FDF7E8FB9B
:105760007148FDF7B4FCC0F1640070490860642022
:105770006D49091D0860081F006820F40020091FFA
:10578000086001216848FDF7D3FB002405E0684963
:105790006431085DFFF766FA641C6448006884425F
:1057A000F5D3B5E06348406862490968401A03D4FC
:1057B00000206149088002E064205F4908805D485C
:1057C0000068602807DB5B480068632803DC64200E
:1057D0005A49088002E0002058490880002505E069
:1057E0009EE057494819FFF721FA6D1C052DF8DB9B
:1057F0005348007953490870FF2204215048FEF7AE
:10580000EBF9514908704F480078097888427FD1F8
:105810004B4840784A49897840EA01204B49088042
:1058200010214A480088FFF7DDFD484908804148BB
:1058300040684149098801443E4800683F4A12884F
:105840001044401F091A414800880930814256DB44
:10585000002505E03A49491D4819FFF7E7F96D1C95
:105860003A480088001D8542F4DB38480088C01D96
:105870003349095C354800880830314A105C41EAF8
:1058800000203349088031480088C11D4FF6FF725F
:105890002B48FEF787F92F4908802D480088098892
:1058A000884235D126484079012806D1244880799C
:1058B000022802D1224801F04DFD214840790628F6
:1058C00006D11F488079022802D11D4801F048FC0A
:1058D0001B484079072806D119488079022802D14F
:1058E000174801F0E7FC16484079022810D1144807
:1058F000807902280CD1124801F04CFC08E00D48D8
:1059000000680E4909880844401F0A49086006E0FB
:10591000084840680749096888427FF443AF00BFE0
:1059200070BD00000014014040640240AC00002043
:105930005E100020FE110020A8000020AA00002018
:1059400026110020A0000020A1000020A6000020B9
:10595000A2000020A400002021B1828942F400525C
:10596000828104E082894DF6FF731A40828170477C
:105970001AB1838A0B43838202E0838A8B4383823A
:105980007047000010B504463248844208D1012116
:105990001020FEF75DFF00211020FEF759FF57E0B1
:1059A0002D48844209D101214804FEF731FF00212E
:1059B0004FF40030FEF72CFF4AE02848844209D11A
:1059C00001218804FEF724FF00214FF48020FEF718
:1059D0001FFF3DE02248844209D10121C804FEF79F
:1059E00017FF00214FF40020FEF712FF30E01D48A2
:1059F000844209D101210805FEF70AFF00214FF476
:105A00008010FEF705FF23E01748844208D10121EA
:105A10002020FEF71DFF00212020FEF719FF17E0D0
:105A20001248844209D101218807FEF7F1FE0021C6
:105A30004FF08040FEF7ECFE0AE00D48844207D1AB
:105A400001214005FEF7E4FE00216005FEF7E0FEBF
:105A500010BD00000010014000440040004800401C
:105A6000004C00400050004000140140007800400D
:105A7000007C004070B50246002400230025002071
:105A800040F66A16B14200D100BFC1F3421501F0E1
:105A90001F03012606FA03F3012D02D19689334034
:105AA00006E0022D02D1168A334001E0968A334087
:105AB0000C12012606FA04F41688344013B10CB116
:105AC000012000E0002070BDF0B503460024002650
:105AD0000025002040F66A17B94200D100BF1846E1
