:020000040800F2
:10000000C81A0020A1020008413D000881390008FB
:1000100099390008A90A0008E1570008000000000B
:10002000000000000000000000000000D9480008A7
:10003000EF2E000800000000914200085D4D00080E
:10004000BB020008BB020008BB020008BB0200089C
:10005000BB020008BB020008BB020008BB0200088C
:10006000BB020008BB020008BB020008BB0200087C
:10007000BB020008BB020008BB020008BB0200086C
:10008000BB020008BB020008BB020008F90B000815
:10009000BD0B0008BB020008BB020008BB02000841
:1000A000BB020008BB020008BB020008BB0200083C
:1000B000054E0008BB020008BB020008BB02000896
:1000C000BB020008BB020008BB020008BB0200081C
:1000D000BB02000815500008BB02000811520008BE
:1000E000BB020008BB020008BB020008BB020008FC
:1000F000BB020008BB020008BB020008BB020008EC
:10010000BB020008BB020008BB020008BB020008DB
:10011000BB020008BB020008714E0008BB020008C9
:10012000BB020008BB020008BB020008BB020008BB
:10013000BB020008BB020008BB020008610D0008FA
:10014000250D0008BB020008BB020008BB02000826
:10015000BB020008BB020008BB020008C552000831
:10016000BB020008BB020008BB020008BB0200087B
:10017000BB020008BB020008BB020008BB0200086B
:10018000BB020008BB02000800F002F800F05EF8B5
:100190000AA090E8000C82448344AAF10107DA45E2
:1001A00001D100F053F8AFF2090EBAE80F0013F0D6
:1001B000010F18BFFB1A43F001031847E480000049
:1001C000048100000A444FF0000C10F8013B13F0CA
:1001D000070408BF10F8014B1D1108BF10F8015BA0
:1001E000641E05D010F8016B641E01F8016BF9D193
:1001F00013F0080F1EBF10F8014BAD1C0C1B09D1EA
:100200006D1E58BF01F801CBFAD505E014F8016B5B
:1002100001F8016B6D1EF9D59142D6D370470000ED
:100220000023002400250026103A28BF78C1FBD8FF
:10023000520728BF30C148BF0B6070471FB507F099
:10024000E6FD00F064F81FBD10B510BD00F0B2F877
:100250001146FFF7F3FF06F089FE00F0D0F803B473
:10026000FFF7F2FF03BC06F08BFB00000B49D1F84F
:1002700000C04A685CF8043B1068184442F8040B5C
:100280008C4528BFA1F1DC0C8A4228BFA1F1DC0219
:10029000C1F800C04A6020F0004070475C140020A4
:1002A0000948804709480047FEE7FEE7FEE7FEE70A
:1002B000FEE7FEE7FEE7FEE7FEE7FEE70448054946
:1002C000054A064B70470000614D0008890100088F
:1002D000C8140020C81A0020C8160020C816002024
:1002E000704700000B4910B5A1F17C020A4CC2E92D
:1002F0003712372106E000EB104342F82130074B5C
:1003000000FB03400B1EA1F10101F4DC10BD012034
:10031000E8E70000FC130020E119D666CD0D0100CE
:1003200010B5203AC0F00B80B1E81850203AA0E890
:100330001850B1E81850A0E81850BFF4F5AF5FEAC4
:10034000027C24BFB1E81850A0E8185044BF18C977
:1003500018C0BDE810405FEA827C24BF51F8043B1E
:1003600040F8043B08BF7047D20728BF31F8023B72
:1003700048BF11F8012B28BF20F8023B48BF00F806
:10038000012B7047704770477047704710B500F0F9
:1003900009F8006810BD10B5044600F003F80460C9
:1003A00010BD0000004870476414002000487047EA
:1003B000641400207546FFF7F9FFAE460500694654
:1003C000534620F00700854618B020B5FFF776FFAA
:1003D000BDE820404FF000064FF000074FF0000846
:1003E0004FF0000B21F00701AC46ACE8C009ACE8C7
:1003F000C009ACE8C009ACE8C0098D46704710B52B
:100400000446AFF300802046BDE81040FFF727BF49
:1004100010B52DED068B874800788749087087480E
:100420000078002874D18648006807F0EEF941ECA6
:10043000190B844890ED101BB0EE410AF0EE610AF2
:1004400051EC100B06F024FF41EC1A0B53EC192B66
:1004500007F082FB41EC180B07F0A8F97A49086015
:100460000846006840F23C7190FBF1F07749086063
:100470007548006840F23C7190FBF1F201FB1200FC
:1004800000B2734908800846B0F90000002850DB2C
:100490006948007801283CD10846B0F90000B0F561
:1004A000307F09DA6948006840F2CF114843DF2104
:1004B000C1EB8000674908606548B0F90000B0F5FD
:1004C000307F0BDB6148006840F2CF11484340F2B7
:1004D0005D6101EB80005F49086078E05C48B0F93D
:1004E000000040F2BF21884271DB5948B0F900009A
:1004F00040F25D6188426ADC5448006840F2CF11E6
:10050000484340F25D6101EB8000524908605EE0C3
:100510008CE049480078002859D14C48006840F2E6
:10052000CF11484340F2BF2101EB800049490860E8
:100530004DE04148007801283BD14548B0F9000022
:100540006FF49C61884209DB4048006840F2CF119B
:100550004843DF21C1EB80003E4908603C48B0F9C8
:1005600000006FF49C6188420BDA3848006840F262
:10057000CF11484340F62501C1EB800035490860A2
:1005800025E03348B0F90000334988421FDC304889
:10059000B0F900003149884219DB2C48006840F26C
:1005A000CF11484340F62501C1EB8000294908607E
:1005B0000DE02148007850B92448006840F2CF117E
:1005C000484340F2E141C1EB8000224908601D48E8
:1005D00090ED101BB0EE410AF0EE610A51EC100BE9
:1005E00006F056FE41EC190B1A490968144A1268C4
:1005F000881807F00AF941EC1A0B53EC192B07F095
:10060000ABFA41EC180B9FED160B53EC102B07F0D7
:1006100061FA03D801201449087002E0022012494F
:10062000087012480088401C10490880BDEC068BF9
:1006300010BD0000700A0020A00A0020250A00203A
:10064000880A002078120020840A0020340100204B
:10065000380100203C01002041FDFFFFA3F9FFFF0E
:100660000000000000000000400100209E0A002061
:1006700010B54FF4A06003F0A1FB04F0A5FB04F05B
:10068000D1FB00F013FA00F0C5FA04F01FFD4FF49F
:10069000E13006F0A5FC4FF4E13006F057FD03F021
:1006A000F9FD10BD9848007801287DD19748C08891
:1006B000974908800846008896490988401A964953
:1006C000086096480088401C00B29449088092480F
:1006D000006810F10A0F10DC0846B0F900109048CD
:1006E00002680068401C8E4B18608E4820F812107B
:1006F00001208D4908608D490860894800680528F7
:1007000034DB8A480068012830D185480068401EE3
:10071000844931F9101082480068401F814A32F93B
:100720001000081A824908607D480068401E114682
:1007300031F910107A480068401F32F91000081A89
:10074000062813DA7B48006858280FD000207A4921
:1007500008607A49086001207949087000207349CF
:100760000860012077490860774908606848008878
:10077000782871DD6A4800680F2839DB6A4800680C
:10078000012835D166480068401E664931F91010CD
:10079000634800680F38634A32F91000081A644948
:1007A00008605F48006800E0ADE0401E114631F986
:1007B00010105B4800680F3832F91000081A3C2806
:1007C00016DA57480068401E114631F91010544897
:1007D0000068401F32F91000081A062808DD0020C2
:1007E0005549086001205649087000204E490860AC
:1007F00056480068401C55490860084600683C2877
:100800000DDA084600680A2809DD4348006810F13F
:10081000640F04DC01204E4908604E4908603E48E0
:10082000006810F1640F0ADC0020434908600120D1
:100830004349087047490860002044490860464819
:100840000068401C4449086008460068B0F5967F7F
:1008500002DD0020414908602D480088782841DAEF
:100860000020354908600120354908702A48006891
:1008700010F10A0F0DDC3A48006850B901203549E3
:100880000860002037490860012037490860344972
:10089000086034480068401C324908600846006817
:1008A000642802D90020304908602E480068B0F55D
:1008B000967F02D900202A4908601748006810F185
:1008C0000A0F02DC00202449086023480068401C0D
:1008D0002149086008460068B0F5967F02DD0020D7
:1008E0001E4908600C48006810F10A0F07DC0A482E
:1008F000006810F1140F02DB01201C490870044845
:100900000088044908807047240A00208A100020CB
:100910009C0A00209A0A0020440A0020480A00206D
:100920004C0A002012100020500A0020600A00200B
:100930006C0A002058000020340A0020640A0020BD
:10094000210A00205C0A0020680A0020300A0020EA
:100950001401002004010020540A0020580A00203D
:10096000400A0020380A002018010020250A002033
:1009700010B502F04FFF042807D002F04BFF062805
:1009800003D002F047FF052825D113480088B0F5B1
:10099000C87F20DA1148006801281CD102F06CFFE2
:1009A0000F494860084640680968401A0C49886049
:1009B0000C4800780C4991FBF0F00949896888429D
:1009C00009DA0A480088401C00B20849088002F091
:1009D00053FF0349086010BD980A0020E40000207E
:1009E000ED0A0020F600002010EB09001C0A002090
:1009F000294800881E2819DC2848008828490988C9
:100A0000081A012805DD274800880A38254908808A
:100A10000CE02248008822490988081AB0F1FF3FFB
:100A200004DA204800880A301E4908801A480088E5
:100A30001E2830DD1948408819490988081A0128FC
:100A40001CDD1648408816490988081A032805DA6B
:100A5000144840880A38134948801CE0114800882F
:100A60006438104908800846408864384880084641
:100A7000008864280FDA642008800CE0074840886A
:100A800007490988081AB0F1FF3F04DA0548408891
:100A90000A300449488070474A000020EC000020DA
:100AA000F4000020E800002000BFFEE700B589B098
:100AB0000121082003F0C0FC0121480603F0CCFC12
:100AC000092200213B4802F06DFE0922012139482C
:100AD00002F068FE0320079002208DF8200007A98D
:100AE000344802F017FE344800F0B8F904A800F0CA
:100AF000F0FB00208DF816008DF817008DF8180017
:100B00008DF819008DF81A0001208DF81B000020C7
:100B10008DF812008DF8130008208DF814000320C2
:100B20008DF81500ADF8100004A9234800F0CFFAA5
:100B300000208DF80A008DF80B0001208DF80C00C4
:100B40000020ADF80000ADF80200ADF80400ADF8EB
:100B50000600ADF8080001208DF80D00684600F091
:100B600099F901220221144800F0A8FA0122114645
:100B7000114800F0A3FA14208DF8200001208DF810
:100B800021008DF822008DF8230008A803F0DAF880
:100B900013208DF8200001208DF8210000208DF811
:100BA000220001208DF8230008A803F0CBF809B03B
:100BB00000BD0000000C02400064004000B585B09C
:100BC00002210B4800F0EAF978B10221084800F050
:100BD000F1F80849064800F0D1F86A4600210448B7
:100BE00000F0FFFA684600F02DFE05B000BD0000E1
:100BF000006400400800003210B50121044800F0F4
:100C0000CDF918B10121024800F0D4F810BD000060
:100C10000064004000B589B00121022003F00CFC03
:100C20000121880603F018FC092205213B4802F047
:100C3000B9FD09220621394802F0B4FD6020079071
:100C400002208DF8200007A9344802F063FD3448E3
:100C500000F004F904A800F03CFB00208DF8160019
:100C60008DF817008DF818008DF819008DF81A000E
:100C700001208DF81B0000208DF812008DF8130064
:100C800008208DF8140003208DF81500ADF8100031
:100C900004A9234800F01BFA0E208DF80A0000205A
:100CA0008DF80B0001208DF80C000020ADF800003D
:100CB000ADF80200ADF80400ADF80600ADF808008C
:100CC00001208DF80D00684600F0E4F801220221B1
:100CD000134800F0F3F901221146114800F0EEF933
:100CE00040208DF8200001208DF821008DF8220091
:100CF0008DF8230008A803F025F83F208DF8200088
:100D000001208DF8210000208DF8220001208DF8AF
:100D1000230008A803F016F809B000BD0004024043
:100D20000068004000B585B002210B4800F036F99C
:100D300078B10221084800F03DF80849064800F063
:100D40001DF86A460021044800F04BFA684600F09E
:100D500069FE05B000BD00000068004008000032D8
:100D600010B50121044800F019F918B10121024819
:100D700000F020F810BD00000068004000220C4B7D
:100D8000994202D10023836111E0C1F3130201F003
:100D900000730BB1C2600AE001F080630BB1026125
:100DA00005E001F000630BB1826000E04260704733
:100DB0007000F030B1F5007F3AD00FDC202928D048
:100DC00006DC01291CD004291DD0082940D11DE0D2
:100DD000402921D0B1F5807F3AD126E0B1F5004F0E
:100DE00031D006DCB1F5806F25D0B1F5006F2FD181
:100DF00024E0B1F5803F12D0B1F5003F28D111E0D9
:100E0000154A826025E00822C26022E01022C260FA
:100E10001FE0082202611CE01022026119E0082292
:100E2000426016E01022426013E00422426010E0AB
:100E3000042242600DE0042242600AE00022826146
:100E40000422426005E0002282610422426000E048
:100E500000BF00BF704700000101010010B504464B
:100E60000B48844209D10121480603F005FB00210B
:100E70004FF0007003F000FB08E00121880603F04A
:100E8000FBFA00214FF0806003F0F6FA10BD00007D
:100E90000064004010B50021837A012202FA03F1B8
:100EA0003D4A126842F001023B4B1A603A4A1C323A
:100EB00012688A43384B1C331A60027BCAB9364A1F
:100EC0000C3212688A43344B0C331A604288C38850
:100ED00042EA0343304A4032847A42F8343002888E
:100EE000838842EA03432C4A4032847A02EBC402EC
:100EF0005360027B012A19D1274A0C3212680A4337
:100F0000254B0C331A604288038842EA0343224A85
:100F10004032847A42F83430C288838842EA0343FC
:100F20001D4A4032847A02EBC4025360C27A3AB955
:100F3000194A121D12688A43174B1B1D1A6006E0DE
:100F4000154A121D12680A43134B1B1D1A600289B1
:100F500032B9114A143212688A430F4B14331A60A3
:100F60000289012A06D10C4A143212680A430A4B3C
:100F700014331A60427B012A06D1074A1C321268D8
:100F80000A43054B1C331A60034A126822F001021F
:100F9000014B1A6010BD00000066004070B50446A9
:100FA0000D46002660692840002871D0B5F5807F85
:100FB0005CD010DC082D35D006DC012D20D0022DB0
:100FC00024D0042D72D127E0102D31D0202D35D022
:100FD000402D6BD138E0B5F5004F60D009DCB5F598
:100FE000007F49D0B5F5806F4CD0B5F5006F5DD16D
:100FF0004FE0B5F5803F2DD0B5F5003F56D12FE03D
:10100000A0682D4901F09CFD064651E0E0680321EF
:1010100001F096FD06464BE0E068082101F090FDE6
:10102000064645E0E068102101F08AFD06463FE0F3
:101030002069032101F084FD064639E0206908217A
:1010400001F07EFD064633E02069102101F078FDB5
:1010500006462DE06068082101F072FD064627E093
:101060006068102101F06CFD064621E0A0690121B5
:1010700001F066FD06461BE0A069022101F060FD5B
:10108000064615E0A069042101F05AFD06460FE06E
:101090000FE0A069702101F053FD064608E060688A
:1010A000042101F04DFD064602E0FFE7002600BFE7
:1010B00000E00026304670BD010101001AB143690D
:1010C0000B43436102E043698B434361704730B592
:1010D000024600200023146824F0020414601468FF
:1010E00044F00104146000E05B1C546804F0010447
:1010F0001CB94FF6FF74A342F6D1546804F0010402
:101100000CB900206CE08C79012C04D1146844F0F7
:101110008004146003E0146824F080041460CC7927
:10112000012C04D1146844F04004146003E01468F6
:1011300024F0400414600C7A012C04D1146844F0AB
:101140002004146003E0146824F0200414604C7A36
:10115000012C04D1146844F01004146003E01468F6
:1011600024F0100414608C7A012C04D1146844F02B
:101170000804146003E0146824F008041460CC7AB6
:10118000012C04D1146844F00404146003E01468D2
:1011900024F0040414608C78A407CD7844EA056434
:1011A0000D7944EA05444D7944EA05540D886D1ED5
:1011B0002C43D461146824F001041460002300E07F
:1011C0005B1C546804F001041CB14FF6FF74A34289
:1011D000F6D1546804F001040CB1002000E00120B5
:1011E00030BD10B500F5D87303EB01131B6803F095
:1011F00004031372137A53B900F5D87303EB011388
:101200001B6840F2FF7404EA5353136009E000F5D1
:10121000D87303EB01131B686FF0604404EAD30337
:10122000536000F5D87303EB01131B6803F002034E
:10123000537200F5D87303EB01135B6803F00F03DF
:10124000937200F5D87303EB01135B681B0AD37428
:1012500000F5D87303EB01139B68D37200F5D873C4
:1012600003EB01139B681C0A147300F5D87303EB9E
:1012700001139B681C0C547300F5D87303EB011326
:101280009B681B0E937300F5D87303EB0113DB68A7
:10129000D37300F5D87303EB0113DB681C0A1474D5
:1012A00000F5D87303EB0113DB681C0C547400F5D4
:1012B000D87303EB0113DB681B0E937421B9C36869
:1012C00043F02003C36003E0036943F0200303619C
:1012D00010BD00218171C171017241728172C172B0
:1012E0008170C170032101710221417101210180CE
:1012F000704710B502460020936803F08063B3F195
:10130000806F00D110E0936803F00063B3F1006FC9
:1013100001D1012008E0936803F08053B3F1805FAE
:1013200001D1022000E00420042874D002F5C0732B
:1013300003EB00131B6803F0010402F5C07303EB19
:1013400000131C600B7A7BB94B7A0C8843EA445338
:1013500002F5C07404EB00142468234302F5C07442
:1013600004EB0014236010E00B7A4C6843EAC403DA
:101370004C7A234302F5C07404EB00142468234321
:1013800002F5C07404EB001423608B7A03F00F03A2
:101390008B7202F5C07303EB00135B6823F00F043C
:1013A00002F5C07303EB00135C6002F5C07303EB3E
:1013B00000135B688C7A234302F5C07404EB0014BD
:1013C00063608B7B1C064B7B44EA03440B7B44EA43
:1013D0000323CC7A234302F5C07404EB0014A3600A
:1013E0008B7C1C064B7C44EA03440B7C44EA0323BD
:1013F000CC7B234302F5C07404EB0014E36002F5D8
:10140000C07303EB00131B6843F0010402F5C073C3
:1014100003EB00131C6010BD70B52DED0C8B82B07A
:10142000EB4890ED022BB0EE420AF0EE620A90ED2E
:10143000002BB0EE421AF0EE621A53EC102B51EC76
:10144000110B06F089FB41EC1D0BB0EE4D0AF0EEDE
:101450006D0A05F079F9B0EE40CAF0EE60CA9FED72
:10146000DD0B53EC102B51EC1C0B06F035FA41EC64
:101470001B0BB0EE4B0AF0EE6B0A04F0B9FFB0EEB6
:1014800040AAF0EE60AA9FEDD50B53EC102B51EC67
:101490001A0B06F055FB41EC190B9FEDD20B53ECE8
:1014A000102B06F019FA41EC180B9FEDCE0B53EC04
:1014B000102B05F02BFFC64AC2E908019FEDCB0BAC
:1014C000104680ED0A0B9FEDC90B80ED0C0B9FEDD4
:1014D000C90BCA4880ED080BC94880ED080B9FED89
:1014E000C90BC64880ED0A0BC54880ED0A0B9FED7D
:1014F000C70BC24880ED0C0BC14880ED0C0B02F00D
:1015000089F9072802D002F085F9D0B99FEDC10B07
:10151000AF4880ED080B9FEDBB0B80ED0A0B9FEDF4
:10152000BF0B80ED0C0B9FEDB10B80ED000BBD49A7
:10153000886B06F06AF9A64AC2E902011046816F7B
:10154000884702F067F9042840D1B748006868B9B5
:10155000B648006806F0EAFB41EC180B9FED9D0BC6
:1015600053EC102B06F0B8F9994A03C2AE48006854
:1015700001280DD1AD48006806F0D8FB41EC180BEE
:101580009FED940B53EC102B06F0A6F9904A03C282
:10159000A449886B06F039F98D4AC2E90201104668
:1015A000816F8847A249886B06F02FF9944AC2E9F7
:1015B00002011046816F88479E49886B06F025F925
:1015C0008E4AC2E902011046816F884702F022F973
:1015D000012807D002F01EF9062803D002F01AF9FC
:1015E000082828D1914890ED000AB1EE400A10EE8B
:1015F000100A06F09BFB764A03C28A49886B06F004
:1016000004F9734AC2E902011046816F884788498C
:10161000886B06F0FAF87A4AC2E902011046816F37
:1016200088478449886B06F0F0F8744AC2E90201E1
:101630001046816F884702F0EDF8052823D17B48DA
:10164000006806F073FB624A03C27649886B06F0B5
:10165000DCF85F4AC2E902011046816F884774498D
:10166000886B06F0D2F8664AC2E902011046816F23
:1016700088477049886B06F0C8F8604AC2E90201E1
:101680001046816F884702F0C5F8072802D002F0A3
:10169000C1F8E8BB4E4890ED021BB0EE410AF0EEF7
:1016A000610A9FED5A1B53EC112B51EC100B06F005
:1016B000D7F818D8464890ED021BB0EE410AF0EE7C
:1016C000610A9FED5D1B53EC112B51EC100B06F0E2
:1016D00001FA08D800200346024601460090584807
:1016E00003F040FA70E03A4890ED1A1BB0EE410A60
:1016F000F0EE610A51EC100B06F058F804B200202D
:1017000003460246214600904D4803F02BFA5BE069
:10171000FFE702F07FF804282BD1384890ED1A1B20
:10172000B0EE410AF0EE610A51EC100B06F03EF803
:1017300004B2334890ED1A1BB0EE410AF0EE610A94
:1017400051EC100B06F032F805B2214890ED1A1B4F
:10175000B0EE410AF0EE610A51EC100B06F026F8EB
:1017600006B22B46002231463548009403F0FAF9C0
:101770002AE0224890ED1A1BB0EE410AF0EE610A11
:1017800051EC100B06F012F804B21D4890ED1A1B34
:10179000B0EE410AF0EE610A51EC100B06F006F8CB
:1017A00005B20B4890ED1A1BB0EE410AF0EE610A4B
:1017B00051EC100B05F0FAFF06B22B460022314621
:1017C0001F48009403F0CEF902B0BDEC0C8B70BD45
:1017D000300200209A9999999999B9BF00000000A8
:1017E0000000F03F00000000000059400000000031
:1017F000000000000000000000004E40F803002040
:1018000060030020000000000000E03F0000000036
:1018100000002440000000000000444000000000E0
:10182000000014401811002054010020EC09002091
:10183000C81100202012002000000000000024C079
:101840000064004010B504466C480068401C6B49B9
:1018500008602068702863D00EDC40285DD006DC6C
:10186000302857D0312856D0322873D154E0502830
:1018700054D06028F9D152E0A0F20120072869D2A3
:10188000DFE800F00415263784B84F0001205C49DA
:1018900008705A480068322804D82146594801F097
:1018A000AFFF03E02146574802F0FEF8A3E0012015
:1018B0005349087051480068322804D821465248DC
:1018C00001F09EFF03E021464F4802F0EDF892E060
:1018D00001204B49087049480068322804D8214645
:1018E0004A4801F08DFF03E02146484802F0DCF849
:1018F00081E001204249087040480068322804D83D
:101900002146434801F07CFF03E02146404802F0B5
:10191000CBF870E06FE06EE06DE06CE06BE06AE0E9
:1019200069E036480068322826D22146394801F05D
:1019300067FF384840693849B1F90010401AB0F5DE
:10194000805F08DD3448008800F5005000B232495D
:1019500008801AE04EE02F4840692F49B1F9001085
:10196000401A10F5805F10DA2B480088A0F500506F
:1019700000B22949088008E02748B0F9000025494D
:1019800048612146234802F035F934E01B480068DD
:10199000322825D22146214801F032FF1F484069F4
:1019A0001F49B1F90010401AB0F5805F07DD1C48EF
:1019B000008800F5005000B21949088019E0174866
:1019C00040691749B1F90010401A10F5805F10DA2C
:1019D00013480088A0F5005000B21149088008E0C3
:1019E0000F48B0F900000D49486121460B4802F04C
:1019F00001F900E000BF00BF10BD0000900A002008
:101A0000240A00201811002070110020C8110020A5
:101A10002012002078120020960A0020D012002008
:101A2000940A002010B504460C480068401C0B497D
:101A300008602068A0F2072068B9084600683228CC
:101A400004D82146064801F0DBFE03E021460448A5
:101A500001F0A4FF00BF00BF00BF10BD900A00202E
:101A60002813002010B52DED068B04462079E1786F
:101A700040EA012000B2D0490880A079617940EAAB
:101A8000012000B2CC494880E0798880E079CB49D8
:101A90000880207A4880607AC9490880A07A488006
:101AA000C8480078C84908602078522879D1607801
:101AB0004D28FBD1A078412873D0C44890ED000A8E
:101AC000F7EE000A30EE200A80ED000ABA48B0F9BD
:101AD000000000EE100AB8EEC00ABD4880ED000A12
:101AE000B548B0F9020000EE100AB8EEC00AB948D5
:101AF00080ED000A0120B34908700020B6498887AC
:101B0000B648007A032802D10120B549086001F0E7
:101B1000B3FEB4494860084640680968401AB149B4
:101B20008860B1480078401CAF49087008460078CA
:101B3000012819D1AD4890ED101BB0EE410AF0EE2E
:101B4000610A51EC100B05F0AFFBA9490860A948E8
:101B500090ED101BB0EE410AF0EE610A51EC100B53
:101B600005F0A2FBA44908609F4800781E2802DD0A
:101B70001E209D49087001F04DFE072806D001F097
:101B800049FE18B101F046FE06280BD19FED9B0AD5
:101B90009B4880ED000A9FED990A9A4880ED000A63
:101BA0009AE09DE08449B1F9000005F02EFE41EC79
:101BB0001A0B9FED950B53EC102B05F063FC41ECD9
:101BC000190B8A4890ED101BB0EE410AF0EE610A45
:101BD00053EC102B51EC190B05F098FB41EC180B52
:101BE00005F062FB864908607B48B0F93C00142888
:101BF0001BDA084690ED000A7748B0F91410808A85
:101C0000401C00B2744A9082104600EB810080EDC7
:101C1000000A1046B0F91400052802DB0020114626
:101C2000888200206C49888710E0002008E09FED42
:101C3000730A694901EB800181ED000A411CC8B2B9
:101C40000528F4DB00206449888288875A48808808
:101C500081B26F4802780078401C6D4B18706D4857
:101C600020F81210184600780A2802DB00201946D6
:101C70000870684804F0C0FE674908804E49B1F911
:101C8000020005F0C2FD41EC1A0B9FED5F0B53EC17
:101C9000102B05F0F7FB41EC190B564890ED101B8B
:101CA000B0EE410AF0EE610A53EC102B51EC190B27
:101CB00005F02CFB41EC180B05F0F6FA51490860D1
:101CC0004F4890ED000A554880ED000A084690ED17
:101CD000000A534880ED000A01F0CEFD414908603A
:101CE000207852283ED160784D283BD1A0784128F9
:101CF00038D1E078412835D19FED400A344880ED55
:101D0000000A9FED3E0A334880ED000A3248808F7A
:101D1000401C00B2304988870846B0F93C001428BE
:101D200001DB142088872C48B0F93C00142819DC0A
:101D30002E4890ED101BB0EE410AF0EE610A51EC16
:101D4000100B05F0B1FA2E4908602A4890ED101BDF
:101D5000B0EE410AF0EE610A51EC100B05F0A4FA66
:101D6000284908601C48B0F93C00142821DB0020F9
:101D70001D4908701D4890ED101BB0EE410AF0EEB1
:101D8000610A51EC100B05F08FFA1D4908601948E3
:101D900090ED101BB0EE410AF0EE610A51EC100B11
:101DA00005F082FA1749086000200D4908600549CE
:101DB0000870BDEC068B10BD280000202E0000200E
:101DC00032000020200A0020800000209000002027
:101DD00084000020880000207C0E0020FC0F0020E2
:101DE000E4000020140B00207D0000207812002069
:101DF00024010020D0120020280100200000000053
:101E0000440000203C000020000000000000594079
:101E10004C000020680E00204A00002040000020F6
:101E20003800002010B52DED048B01F0F3FC0128E3
:101E300007D001F0EFFC042803D001F0EBFC0828E8
:101E40007DD18848007801282ED187480088012854
:101E50002AD18648007810B1012824D111E09FEDE5
:101E6000840A844880ED000A83480068401C824947
:101E70000860824800688249086000207A4908802A
:101E800011E09FED800A7B4880ED000A7B480068E6
:101E9000401C7A490860784800687B490860002047
:101EA0007149088000BF00BF6E4800780128C7D183
:101EB0007048006805F03AFF41EC190B734890ED4B
:101EC000101BB0EE410AF0EE610A53EC102B51ECFE
:101ED000190B05F041FE41EC180B05F067FC041EE0
:101EE00001DB204600E0604205281DDA5F480078EB
:101EF00010B101280CD105E09FED5D0A5D4880ED31
:101F0000000A05E09FED5F0A5A4880ED000A00BF15
:101F100000BF56480078401C5449087008460078B5
:101F2000022801DB0020087059480068401C58490D
:101F3000086058480078002801D1574800E08DE03B
:101F400090ED000A554880ED000A08460068401CE4
:101F50000860084600685249884202DD0120514964
:101F600008605048006890BB4248006805F0DEFEFB
:101F700041EC180B454890ED101BB0EE410AF0EE15
:101F8000610A53EC102B51EC180B05F0A3FD05D2A0
:101F90009FED450A404880ED000A18E0354800688A
:101FA00005F0C4FE41EC180B384890ED101BB0EE64
:101FB000410AF0EE610A53EC102B51EC180B05F0BE
:101FC0004FFC04D29FED390A334880ED000A3548B2
:101FD0000068012832D12748006805F0A7FE41ECCF
:101FE000180B2A4890ED101BB0EE410AF0EE610A82
:101FF00053EC102B51EC180B05F06CFD05D29FED46
:102000002A0A254880ED000A18E01A48006805F001
:102010008DFE41EC180B1D4890ED101BB0EE410AEF
:10202000F0EE610A53EC102B51EC180B05F018FC84
:1020300004D29FED1E0A184880ED000A174890ED63
:10204000000A1548D0ED000A20EE200AB5EEC00ABD
:10205000F1EE10FA02D201200E490870BDEC048B9B
:1020600010BD0000240A002086010020410100204C
:1020700000401C46D8090020700100207801002093
:102080007C01002000401CC67401002018110020B3
:10209000580100202E010020E0090020DC0900206A
:1020A000F049020054010020000048C400004844E8
:1020B00010B52DED068B01F0ADFB05286FD1FE4864
:1020C00000680128FAD1FD480068012804D19FED7D
:1020D000FC0AFC4880ED000AF8480068002877D127
:1020E000F9480088012818D1F848007810B1012873
:1020F00012D108E09FEDF60AF24880ED000A0020B8
:10210000F149088008E09FEDEE0AEE4880ED000AF4
:102110000020ED49088000BF00BFEA48006805F0D4
:1021200005FE41EC180BEB4890ED101BB0EE410A98
:10213000F0EE610A53EC102B51EC180B05F00CFD7E
:1021400041EC190B05F032FB041E01DB204600E0D8
:102150006042E1490860DB48006805F0E7FD41ECBA
:10216000190BDC4890ED101BB0EE410AF0EE610A4D
:1021700053EC102B51EC190B05F0EEFC41EC180B55
:1021800005F014FB041E01DB204600E06042052838
:102190001EDACE48007818B101280DD106E058E0CB
:1021A0009FEDCB0AC74880ED000A05E09FEDC40A09
:1021B000C44880ED000A00BF00BFC4480078401C3E
:1021C000C249087008460078022801DB0020087028
:1021D000C2480078E8BBC24890ED000AC14880EDD3
:1021E000000AB6480068012804D19FEDBF0ABC4828
:1021F00080ED000AB148006860BBB248006805F095
:1022000095FD41EC180BB34890ED101BB0EE410A60
:10221000F0EE610A53EC102B51EC180B05F020FB8B
:1022200005D29FEDB20AAE4880ED000A1BE0A5483A
:10223000006805F07BFD41EC180BA64890ED101BE3
:10224000B0EE410AF0EE610A53EC102B51EC180B82
:1022500001E018E007E005F03DFC04D29FEDA40A80
:102260009F4880ED000A9F4890ED000A9C48D0ED01
:10227000000A20EE200AB5EEC00AF1EE10FA02D2F2
:1022800001209649087001F0C5FA052875D18A48E1
:1022900000680028FAD19748007868B99648006825
:1022A000012809D19FED860A864880ED000A0020AA
:1022B00091490860914908608E48007801280DD145
:1022C0008D480068012809D19FED8D0A7D4880ED79
:1022D000000A002088490860884908608948006829
:1022E00001280BD19FED760A764880ED000A002088
:1022F0008149086081490860824908608148006816
:1023000002280BD19FED7E0A6E4880ED000A002066
:1023100079490860794908607A4908607A48007804
:102320000128B3D17548006801287DD1664800882E
:10233000012843D104F080FB6448007810B10128E3
:102340003BD11BE07148B0F9000005F05EFA41ECAA
:10235000190BB0EE490AF0EE690A04F0F5F9B0EE97
:10236000408AF0EE608A51EC180B04F09DFF55494D
:1023700008600020544908801FE084E26348B0F9F7
:10238000000005F042FA41EC1A0BB0EE4A0AF0EEFA
:102390006A0A04F0D9F9B0EE409AF0EE609A51EC76
:1023A000190B04F075FF41EC180B04F07DFF454953
:1023B000086000204449088000BF00BF54480088DE
:1023C000782876DB53480068012872D152480068AB
:1023D00041F2883188423DD250480068522803D0EB
:1023E0004E4800684C2815D144480068012811D196
:1023F0003648007810B1012808D103E00220414995
:10240000086003E001203F49086000BF00BF0020D2
:102410004149086042480068522803D0404800689B
:102420004C2817D1354800E075E10068012811D12A
:102430002648007810B1012808D103E00120314975
:10244000086003E002202F49086000BF00BF0020A1
:10245000314908603048006841F28831884201D92A
:10246000012000E000202C490968B1F57A5F01D213
:10247000012100E000210840D8B128480068522816
:1024800002D102201F490860244800684C2802D16C
:1024900001201C49086022480068522802D101200E
:1024A000184908601E4800684C2802D102201549CE
:1024B00008601748008835E05C0A0020680A0020A0
:1024C00000401CC6D80900208601002041010020E0
:1024D00000409C4518110020200100202E01002002
:1024E000E0090020DC090020000048C4000016C4F8
:1024F00000001644A00A002004010020080100206A
:1025000000401C461C010020240A00200E0100206F
:102510009C0A0020580A0020340A002050000020A5
:102520005400002078285FDAFE48006864283BD811
:10253000FD480068522803D0FB4800684C2815D19C
:10254000FA480068012811D1F948007810B1012833
:1025500008D103E00220F749086003E00120F549B3
:10256000086000BF00BF0020F3490860F34800681E
:10257000522803D0F14800684C2815D1EB48006878
:10258000012811D1EA48007810B1012808D103E0F0
:102590000120E849086003E00220E649086000BF26
:1025A00000BF0020E4490860DE48006864281BD9A9
:1025B000DD480068522802D10220DE490860DA486E
:1025C00000684C2802D10120DA490860DB48006825
:1025D000522802D10120D7490860D84800684C2809
:1025E00002D10220D3490860D548006805F09EFB5F
:1025F00041EC190BD34890ED101BB0EE410AF0EE00
:10260000610A53EC102B51EC190B05F0A5FA41ECC3
:10261000180B05F0CBF8041E01DB204600E06042F9
:10262000052878DAC8480088782855DBC248006851
:1026300041F2883188424FD2C448006858B904F04A
:10264000FBF9C348B0F9000000EE100AB8EEC00A6A
:10265000BB4880ED000ABD48006801283CD104F069
:10266000EBF9B348007810B1012834D117E0B8482D
:10267000B0F9000005F0C9F841EC190BB0EE490AB9
:10268000F0EE690A04F060F8B0EE408AF0EE608A7D
:1026900051EC180B04F008FEA94908601BE0AC4897
:1026A000B0F9000005F0B1F841EC1A0BB0EE4A0A9F
:1026B000F0EE6A0A04F048F8B0EE409AF0EE609A44
:1026C00051EC190B04F0E4FD41EC180B04F0ECFDA7
:1026D0009B49086000BF00BF9B480088782850DAFB
:1026E0009C48006801280BD104F0A6F99848B0F97D
:1026F000000000EE100AB8EEC00A914880ED000A12
:102700009448006838B904F097F98948007818B1FE
:10271000012835D118E034E08D48B0F9000005F00B
:1027200074F841EC190BB0EE490AF0EE690A04F0B6
:102730000BF8B0EE408AF0EE608A51EC180B04F012
:10274000B3FD7F4908601BE08148B0F9000005F047
:102750005CF841EC1A0BB0EE4A0AF0EE6A0A03F09C
:10276000F3FFB0EE409AF0EE609A51EC190B04F0D2
:102770008FFD41EC180B04F097FD7149086000BF14
:1027800000BF7548007800287DD1744890ED000A9C
:10279000734880ED000A6A48006805F0C7FA41EC0A
:1027A000180B684890ED101BB0EE410AF0EE610A7C
:1027B00053EC102B51EC180B05F052F83DD2604849
:1027C000006805F0B3FA41EC180B5E4890ED101B61
:1027D000B0EE410AF0EE610A53EC102B51EC180BED
:1027E00005F0BAF941EC190B04F0E0FF041E01DB1F
:1027F000204600E06042B0F5FA7F18DD52480088BC
:1028000078280ADB4C48006841F28831884204D8B5
:102810009FED540A514880ED000A4B480088782803
:102820005EDA9FED510A4D4880ED000A58E01FED39
:10283000D10A4A4880ED000A52E04148006805F09C
:1028400075FA41EC180B3F4890ED101BB0EE410AB1
:10285000F0EE610A53EC102B51EC180B05F03AF92D
:102860003ED23748006805F061FA41EC190B354853
:1028700090ED101BB0EE410AF0EE610A53EC102B04
:1028800051EC190B00E047E105F066F941EC180B3B
:1028900004F08CFF041E01DB204600E06042B0F52E
:1028A000FA7F18DD2848008878280ADB224800686B
:1028B00041F28831884204D89FED2C0A274880EDE8
:1028C000000A2148008878280ADA9FED290A23485F
:1028D00080ED000A04E01FEDFA0A204880ED000AAE
:1028E0001E4890ED000A1E48D0ED000A30EE600A46
:1028F00010EE101A084605F019FA41EC190BB0EE6B
:10290000490AF0EE690A03F01FFFB0EE408AF0EECC
:10291000608A9FED180B53EC102B51EC180B05F04F
:10292000D9F82BE0380A00205000002008010020D0
:10293000410100201C010020340A00205400002026
:10294000D8090020181100209C0A00201401002042
:102950000E010020180100202E010020E0090020B7
:10296000DC09002000803BC400002FC400803B44F1
:1029700000002F440000000000C0624073D268488D
:1029800090ED000A6748D0ED000A20EE200AB5EE6F
:10299000C00AF1EE10FA66DD614890ED000A624867
:1029A00080ED000A5F4890ED000A604880ED000A63
:1029B0005B48006805F0BAF941EC1A0BB0EE4A0A20
:1029C000F0EE6A0A03F0C0FEB0EE408AF0EE608AD4
:1029D0005448006805F0AAF941EC1A0BB0EE4A0A17
:1029E000F0EE6A0A03F0B0FEB0EE409AF0EE609AA4
:1029F00053EC182B51EC190B05F06CF806D20120A2
:102A00004B4908704B48816988472CE0444800686E
:102A100005F08CF941EC1A0BB0EE4A0AF0EE6A0AA6
:102A200003F092FEB0EE408AF0EE608A3D48006806
:102A300005F07CF941EC1A0BB0EE4A0AF0EE6A0A96
:102A400003F082FEB0EE409AF0EE609A53EC182B41
:102A500051EC190B04F004FF05D20120364908702F
:102A600034488169884732480078012821D13148AB
:102A700001698847F0EE400A2C4890ED000A2A4888
:102A800090ED001A30EE411A90ED000A01EE200A96
:102A9000244880ED000A274801698847F7EE000ABC
:102AA000B4EE600AF1EE10FA26D100202049087039
:102AB00022E02148007801281ED11E48016988477C
:102AC0001A48D0ED000A184890ED001A30EEC11AED
:102AD000D0ED000A41EE000A1248C0ED000A154888
:102AE00001698847F7EE000AB4EE600AF1EE10FAC9
:102AF00002D1002010490870094890ED000A0948E9
:102B0000D0ED000A20EE200AB5EEC00AF1EE10FA70
:102B100002D2012009490870BDEC068B10BD0000EF
:102B2000DC090020E0090020E4090020E809002079
:102B30002F010020A0090020300100202E010020DC
:102B40000246002002EA01030BB1012000E0002050
:102B50007047000010B51C480068801C1A490860C6
:102B600002F040FE02F0D8FE02F0D0FF03F09EF922
:102B700000F000FC00F02EFA00F004FF00F0FEF977
:102B8000FDF7F6FE02F070F801F032FFFFF74AF9A8
:102B9000FFF78EFA00F074FEFEF73EFC01F0BEFB7C
:102BA00000F06AFE09494860084640680968401A12
:102BB00006498860084680680549884202DD002091
:102BC0000449087010BD0000FC000020070B002025
:102BD00020A10700220A002010B500202449086027
:102BE0002448C16F88472448C16F88472348C16F74
:102BF00088472348C16F88472248C16F88472248C9
:102C0000C16F88472148C16F88472148C16F8847F5
:102C10002048C16F88472048C16F88471F484FF43C
:102C2000C871C26990471D48816988471C484FF4A4
:102C3000FA61C26990471B484FF4FA61C269904734
:102C40001748816988471748816988479FED160AA8
:102C5000164880ED000A9FED140A154880ED000A21
:102C6000144890ED000A124880ED010A10BD0000E2
:102C7000FC00002030020020C80200206003002079
:102C8000F80300202805002058060020F006002048
:102C90008807002020080020B8080020A009002094
:102CA000580900207C09002000000000EC090020E9
:102CB000C40900202401002021B1026842F0010271
:102CC000026003E0026822F0010202607047000027
:102CD000016821F001010160002101604160816013
:102CE000C1600161212141614A49884204D13D21ED
:102CF000484A103A91608CE046491831884205D123
:102D00004FF47461434A103A916082E04149303196
:102D1000884205D14FF474113E4A103A916078E030
:102D20003C494831884205D14FF07461394A103A24
:102D300091606EE037496031884204D13649354AA6
:102D4000103AD16065E033497831884204D1334983
:102D5000304A103AD1605CE02E499031884204D16B
:102D60002F492C4A103AD16053E02A49A8318842B1
:102D700005D14FF03D51274A103AD16049E0294929
:102D8000884204D13D21274A083A116041E0254993
:102D90001831884205D14FF47461224A083A116013
:102DA00037E020493031884205D14FF474111D4A73
:102DB000083A11602DE01B494831884205D14FF097
:102DC0007461184A083A116023E01649603188425C
:102DD00004D11149134A121F11601AE011497831C8
:102DE000884204D10D490F4A121F116011E00D49AC
:102DF0009031884204D10A490A4A121F116008E042
:102E00000849A831884204D14FF03D51054A121FAC
:102E100011607047106002403D000020400F00200C
:102E200000003D201064024021B1026842F480227B
:102E3000026003E0026822F480220260704722B13F
:102E4000036843F40023036003E0036823F40023D2
:102E50000360016170470146486880B270470146CF
:102E600000200A6802F400220AB1012000E00020DC
:102E70007047000010B500220268134B1A40CC685E
:102E80000B6823434C6923438C692343CC69234358
:102E90000C6A23434C6A23438C6A23434C6B2343C1
:102EA0008C6B23431A430260426922F00702D1E986
:102EB0000B3423431A4342610B6943604B688360C0
:102EC0008B68C36010BD00003F801CF000210160D2
:102ED00041608160C160016141618161C1610162E4
:102EE00041628162C16201634163816370477047DF
:102EF00070B50446D4E9000140EA0120218940EA86
:102F00000140217B40EA016020612069C0F3C75085
:102F10007F3860612069C0F31600A061002527E0BA
:102F20005DB9B0EE000AA16A60698847F7EE000A51
:102F300020EE200A84ED080A19E0691E4FF4800291
:102F40000A41A0691040C5F117010841E0616269BA
:102F5000501BB0EE000AA16A8847D4ED080A94ED30
:102F6000071AB8EEC11A41EE000AC4ED080A6D1C3A
:102F7000182DD5DB94ED080A70BD000010B50F4880
:102F8000007801280CD10E490988484204F03DFC24
:102F90000C4A03C20A49088804F04EFC0A4A03C2DC
:102FA0000648007848B99FED090B064880ED000BF4
:102FB0009FED060B044880ED000B10BDB100002012
:102FC000E800002060030020F8030020000000005B
:102FD0000000000010B52DED0C8BC64890ED000AE6
:102FE000DFEDC50AB4EEE00AF1EE10FA04D89FED69
:102FF000C20A80ED000A0DE0BE4890ED000AF8EE2E
:10300000080AB4EEE00AF1EE10FA03DBB8EE080AA3
:1030100080ED000A00F0FEFB052805D1B7480078D6
:10302000012801D1B649086000F0F4FB052805D15C
:10303000B248007810B90220B149086000F0EAFBFC
:1030400004287CD1AF48006804F070FE41EC1B0BF3
:10305000B0EE4B0AF0EE6B0A03F076FBB0EE409A4E
:10306000F0EE609AA748006804F060FE41EC1A0B8D
:1030700053EC192B04F006FA41EC180B04F014F988
:10308000A14908609F48006804F050FE9F4A03C2AF
:103090009F4890ED100B9D4880ED020B90ED022BA8
:1030A000B0EE420AF0EE620A90ED002BB0EE421A4A
:1030B000F0EE621A53EC102B51EC110B04F04CFDA6
:1030C00041EC1D0BB0EE4D0AF0EE6D0A03F03CFB37
:1030D000B0EE40CAF0EE60CA9FED8E0B53EC102BA1
:1030E00051EC1C0B04F0F8FB41EC1B0BB0EE4B0A4F
:1030F000F0EE6B0A03F07CF9B0EE40AAF0EE60AAA5
:103100009FED860B53EC102B51EC1A0B04F018FDBD
:1031100041EC190B9FED830B53EC102B04F0DCFBFF
:1031200041EC180B9FED810B53EC102B04F0EEF8E3
:10313000764AC2E908019FED7F0B104600E01AE0D5
:1031400080ED0A0B9FED7D0B80ED0C0B9FED7D0B51
:103150007E4880ED080B9FED7E0B80ED0A0B9FED06
:103160007E0B80ED0C0B1046816F8847674890ED11
:103170001A0B80ED1A0B00F04DFB78B100F04AFB02
:1031800001280BD000F046FB062807D000F042FBD8
:10319000082803D05A48006802286CD19FED700BB4
:1031A0005A4880ED080B9FED5D0B80ED0A0B9FEDFB
:1031B000680B80ED0C0B9FED6C0B644880ED080BE9
:1031C0009FED630B80ED0A0B9FED610B80ED0C0B07
:1031D00000F020FB18B100F01DFB072822D19FED65
:1031E0005C0B4A4880ED000B61480169884710EE8E
:1031F000104A204604F09AFD41EC180B444890ED2B
:10320000101BB0EE410AF0EE610A53EC102B51ECAA
:10321000180B04F061FB3D4AC2E902011046816FC0
:10322000884728E0334890ED000AB1EE400A10EEDE
:10323000101A084604F07AFD344A03C24C4801696A
:10324000884710EE104A204604F070FD41EC180B40
:103250002F4890ED101BB0EE410AF0EE610A53ECDE
:10326000102B51EC180B04F037FB284AC2E902017D
:103270001046816F8847254890ED1A0B334880ED42
:10328000000B2349886B04F0C0FA304AC2E90201FE
:103290001046816F88472D4890ED1A1BB0EE410A09
:1032A000F0EE610A03F050FAB0EE409AF0EE609A48
:1032B000264890ED1A1BB0EE410AF0EE610A53EC7D
:1032C000192B51EC100B04F0DDF841EC180B1F48E2
:1032D00090ED1A1BB0EE410AF0EE610A53EC102B90
:1032E00051EC180B04F012F8184AC2E91A01BDECAF
:1032F0000C8B10BDC409002000000CC2200A002065
:10330000140A00203C0000200C0A002028050020A0
:10331000D01200209A9999999999B9BF000000009C
:103320000000F03F000000000000444000000000EA
:10333000000024409A9999999999B93F000000009A
:10334000000018400000000000003E405806002029
:10335000000000000000000000000000000000402D
:103360000000000000005440000000000000344055
:103370005809002010B52DED0C8B00F04BFA0428F5
:1033800003D0B948006801287ED1B84890ED000A02
:10339000B748D0ED000A30EE600AB64880ED000A6A
:1033A000B1480068B44908600020AF490860B048DF
:1033B000006804F0BBFC41EC1B0BB0EE4B0AF0EED6
:1033C0006B0A03F0C1F9B0EE409AF0EE609AA8489B
:1033D000006804F0ABFC41EC1A0B53EC192B04F021
:1033E00051F841EC180B03F05FFFA4490860A048B6
:1033F000006804F09BFCA24A03C2A24890ED100BA7
:103400009F4880ED020B90ED022BB0EE420AF0EEE9
:10341000620A90ED002BB0EE421AF0EE621A53EC05
:10342000102B51EC110B04F097FB41EC1D0BB0EE8F
:103430004D0AF0EE6D0A03F087F9B0EE40CAF0EEE7
:1034400060CA9FED910B53EC102B51EC1C0B04F058
:1034500043FA41EC1B0BB0EE4B0AF0EE6B0A02F0A4
:10346000C7FFB0EE40AAF0EE60AA9FED890B53ECC7
:10347000102B51EC1A0B04F063FB41EC190B9FED80
:10348000860B53EC102B00E02BE004F025FA41EC06
:10349000180B9FED830B53EC102B03F037FF784A8A
:1034A000C2E908019FED800B104680ED0A0B9FEDED
:1034B000800B80ED0C0B9FED800B814880ED080B9D
:1034C0009FED800B80ED0A0B9FED800B80ED0C0BC8
:1034D0001046816F8847664890ED000A634880ED8A
:1034E000000A00F097F918B100F094F9072827D1E5
:1034F0009FED780B624880ED080B9FED780B80ED17
:103500000A0B9FED780B80ED0C0B9FED760B6C4852
:1035100080ED080B9FED750B80ED0A0B9FED6B0B9B
:1035200080ED0C0B574890ED100B554880ED000BCB
:10353000544890ED100B524880ED020B816F884784
:1035400000F068F9062831D19FED620B4C4880ED00
:10355000080B9FED680B80ED0A0B9FED620B80ED71
:103560000C0B9FED600B564880ED080B9FED5F0B39
:1035700080ED0A0B9FED550B80ED0C0B5F4890ED35
:10358000010A10EE101A084604F0D0FB3C4A03C2B0
:103590003C4890ED100B3A4880ED020B58480078FB
:1035A00000F0070010B13648816F884700F032F90B
:1035B000012807D000F02EF9082803D02A48006817
:1035C000022832D1284800682B490860002026498B
:1035D00008609FED400B2A4880ED080B9FED390BEA
:1035E00080ED0A0B9FED410B80ED0C0B9FED450B21
:1035F000334880ED080B9FED3D0B80ED0A0B9FEDEE
:10360000330B80ED0C0B3D4890ED010A10EE101AC3
:10361000084604F08BFB1A4A03C21A4890ED100BBF
:10362000174880ED020B816F8847154890ED1A1BF3
:10363000B0EE410AF0EE610A9FED341B53EC112B02
:1036400051EC100B04F048F91D4A03C20D49886B78
:1036500004F0DBF81A4AC2E902011046816F88477C
:10366000BDEC0C8B10BD0000140A002040000020AF
:1036700044000020F4090020180A0020040A002059
:10368000F006002078120020333333333333D3BFB6
:10369000000000000000F03F000000000000444077
:1036A00000000000004060409A9999999999B93FAB
:1036B000000000000000084000000000000024405E
:1036C000880700207B14AE47E17A743F00000000B9
:1036D0000000004000000000000059407B14AE478D
:1036E000E17A843F00000000000014400000000068
:1036F000000000009A9999999999A93FC40900205E
:10370000FC0000200000000000002E40000000002F
:103710000000E03FF0B50A4600210023002400BF6E
:103720003DE0012505FA01F3156805EA03049C4212
:1037300034D105684F000326BE40B54305601579B6
:103740004E00B5400668354305601579012D02D05D
:103750001579022D16D185684F000326BE40B5436A
:10376000856055794E00B54086683543856045686B
:1037700001268E40B5434560456896798E40B6B2C5
:1037800035434560C5684F000326BE40B543C5605C
:10379000D5794E00B540C6683543C560491C10292F
:1037A000BFD3F0BDF0B5002300244D07ED0E02FAA3
:1037B00005F3CE1000F1200555F826504E07F70E00
:1037C0000F26BE40B543CF1000F1200646F8275023
:1037D000CE1000F1200555F8265045EA0304CE101E
:1037E00000F1200545F82640F0BD018370474FF6F3
:1037F000FF7101600021017141718171C1717047D8
:103800000A7BCB7A42EA0322426142690260426942
:103810008260704701480078704700001F0A00204E
:1038200030B5034613B94FF6FF7030BD09E013F809
:10383000014B82EA0400C0B2054D35F8100080EA61
:103840002222081EA1F10101F1D11046EDE700008E
:103850004280000830B5034605E013F8010B80EA0A
:1038600002040448025D081EA1F10101F5D11046D1
:1038700030BD0000417F00084FF08040406A704733
:1038800010B5FFF7C7FF01280BD0FFF7C3FF0528CE
:1038900007D0FFF7BFFF042803D0FFF7BBFF0828BE
:1038A00052D12A480078012823D1002028490870E5
:1038B000284908709FED280A284880ED000A90EDFD
:1038C000000AB5EEC00AF1EE10FA06D89FED220A02
:1038D00080ED000A02201D490870214890ED000A81
:1038E0001E48D0ED000A20EE200A1E4880ED000A96
:1038F0002AE016480078022820D1B7EE000A1748BF
:1039000080ED000A90ED000AF7EE000AB4EEE00A3E
:10391000F1EE10FA06DBB7EE000A80ED000A002097
:103920000A490870104890ED000A0C48D0ED000AD2
:1039300020EE200A0B4880ED000A05E00A4890EDD1
:10394000000A084880ED000A10BD00002E0100208A
:103950002F0100203001002000000000D0090020CD
:10396000DC090020EC090020E00900200349098857
:10397000014409B2014A1180704700002C0A00205E
:1039800000BFFEE702480078024908707047000057
:10399000F0000020F600002000BFFEE72DE9F04116
:1039A0002DED088B04460D46002600272068606038
:1039B000287BE97A40EA0120206020686168401A8B
:1039C000E060E06810F5805F07DA606B401C6063C0
:1039D000E06800F50050A0610DE0E068B0F5805FA0
:1039E00007DD606B401E6063E068A0F50050A061D9
:1039F00001E0E068A061A269207C411C217404F10F
:103A00001C0141F820202168606B01EB4030A06070
:103A1000616B4FF4B47201FB02F003F0F6FE9FED10
:103A20001C0B53EC102B03F02DFD41EC180B2168FF
:103A30006269881A03F0E9FE9FED170B53EC102B17
:103A400003F04AFF9FED160B53EC102B03F01AFD09
:103A500053EC182B03F05AFC41EC100B84ED100BC7
:103A6000207C062801D100202074002605E004F106
:103A70001C0050F826000744761C062EF7DB0620B3
:103A800097FBF0F0A063BDEC088BBDE8F08100006F
:103A90000000000000004240000000000000244040
:103AA000000000000000C0402DE9F0412DED0A8B20
:103AB00004460D4600260027B046002008EE100AF6
:103AC00020686060287BE97A40EA01202060206855
:103AD0006168401AE060E06810F5805F07DA606BAB
:103AE000401C6063E06800F50050A0610DE0E068F4
:103AF000B0F5805F07DD606B401E6063E068A0F595
:103B00000050A06101E0E068A061A269207C411C36
:103B1000217404F11C0141F820202168606B01EB45
:103B20004030A060616B4FF4B47201FB02F003F00F
:103B30006CFE9FED2A0B53EC102B03F0A3FC41EC21
:103B4000190B21686269881A03F05FFE9FED250B4F
:103B500053EC102B03F0C0FE9FED240B53EC102B05
:103B600003F090FC53EC192B03F0D0FB41EC100B4D
:103B700084ED100B207C062801D100202074002643
:103B800005E004F11C0050F826000744761C062EC0
:103B9000F7DBA97B687B41EA00200FFA80F84046FA
:103BA00003F033FE41EC1A0B9FED0C0B53EC102B82
:103BB00003F068FC41EC190B03F0F8FDA063297CCD
:103BC000E87B41EA002000B208EE100AB8EEC80A0D
:103BD00084ED140ABDEC0A8BBDE8F0810000000002
:103BE0000000334028AFA1BC86F232400000000044
:103BF0000000C0402DE9F0472DED088B04460D462E
:103C00000026B14600BF00BF20686060287BE97ACB
:103C100040EA0120206020686168401AE060E068A6
:103C200010F5805F07DA606B401C6063E06800F5A8
:103C30000050A0610DE0E068B0F5805F07DD606BCB
:103C4000401E6063E068A0F50050A06101E0E068FC
:103C5000A061A269207C411C217404F11C0141F87F
:103C600020202168606B01EB4030A060616B4FF455
:103C7000B47201FB02F003F0C8FD41EC180B21689F
:103C80006269881A03F0C1FD9FED290B53EC102BDC
:103C900003F022FE9FED280B53EC102B03F0F2FBF8
:103CA00053EC182B03F032FB41EC100B84ED100B9E
:103CB00021686269881A03F0A8FD9FED1D0B53EC83
:103CC000102B03F009FE9FED1C0B53EC102B03F09F
:103CD000D9FB41EC100B84ED120B207C062801D19E
:103CE00000202074002605E004F11C0050F8260096
:103CF0008144761C062EF7DBA97B687B41EA00280D
:103D00004FF4B47018FB00F03C2190FBF1F0A0637D
:103D1000297CE87B41EA002007B200EE107AB8EE79
:103D2000C00A84ED140ABDEC088BBDE8F0870000E2
:103D30000000000000807640000000000000C0404D
:103D40007047000070B5002100230F22C4781CB317
:103D5000174C246804F4E064C4F5E064C4F307215C
:103D6000C1F10404E3B20A4144789C40E1B2847892
:103D7000144021430C07210E0E4C05786155047840
:103D800004F01F050124AC4005786D11AD0005F16C
:103D9000E025C5F8004109E0047804F01F0501247E
:103DA000AC40054D0678761145F8264070BD000000
:103DB0000CED00E000E400E080E100E00249014396
:103DC000024A1160704700000000FA050CED00E0A7
:103DD00010B52DED028B044694ED022BB0EE420A95
:103DE000F0EE620A94ED002BB0EE421AF0EE621A89
:103DF00053EC102B51EC110B03F0AEFEC4E904019F
:103E000094ED222BB0EE420AF0EE620A94ED042B00
:103E1000B0EE421AF0EE621A53EC102B51EC110B7B
:103E200003F058FE16D994ED221BB0EE410AF0EED5
:103E3000610A51EC100B03F02BFA41EC180B94EDD6
:103E4000041BB0EE410AF0EE610A53EC102B03F0B4
:103E500041FE7DD294ED042BB0EE420AF0EE620AF0
:103E600094ED082BB0EE421AF0EE621A53EC102BD0
:103E700051EC110B03F030FDC4E90E0194ED141B5D
:103E8000B0EE410AF0EE610A51EC100B03F000FABB
:103E900041EC180B94ED0E1BB0EE410AF0EE610AF6
:103EA00053EC102B03F016FE0CD894ED141BB0EE5F
:103EB000410AF0EE610A51EC100B03F0E9F9C4E994
:103EC0000E0116E094ED142BB0EE420AF0EE620AF9
:103ED00094ED0E2BB0EE421AF0EE621A53EC102B5A
:103EE00051EC110B03F0F6FD03D894ED140B84EDA7
:103EF0000E0B94ED042BB0EE420AF0EE620A94ED44
:103F00000A2BB0EE421AF0EE621A53EC102B51EC71
:103F1000110B03F0E1FC41EC180B94ED101BB0EE1B
:103F2000410AF0EE610A53EC102B03F0EFF9C4E9FB
:103F3000100194ED161BB0EE410AF0EE610A51EC4F
:103F4000100B03F0A5F941EC180B94ED101B00E0E9
:103F5000D5E0B0EE410AF0EE610A53EC102B03F00D
:103F6000B9FD0CD894ED161BB0EE410AF0EE610AD3
:103F700051EC100B03F08CF9C4E9100116E094ED3C
:103F8000162BB0EE420AF0EE620A94ED102BB0EE62
:103F9000421AF0EE621A53EC102B51EC110B03F0A5
:103FA00099FD03D894ED160B84ED100B94ED241BB2
:103FB000B0EE410AF0EE610A9FED741B53EC112B39
:103FC00051EC100B03F0B6FB1ED194ED062BB0EEB6
:103FD000420AF0EE620A94ED042BB0EE421AF0EEC3
:103FE000621A53EC102B51EC110B03F075FC41ECF1
:103FF000180B9FED680B53EC102B03F031FC03D230
:104000009FED640B84ED100B94ED062BB0EE420A8D
:10401000F0EE620A94ED042BB0EE421AF0EE621A52
:1040200053EC102B51EC110B03F096FD41EC180BE7
:1040300094ED0C1BB0EE410AF0EE610A53EC102B2C
:1040400003F04AFCC4E9120194ED181BB0EE410ADA
:10405000F0EE610A51EC100B03F01AF941EC180B69
:1040600094ED121BB0EE410AF0EE610A53EC102BF6
:1040700003F030FD0CD894ED181BB0EE410AF0EEC1
:10408000610A51EC100B03F003F9C4E9120116E0C8
:1040900094ED182BB0EE420AF0EE620A94ED122B6A
:1040A000B0EE421AF0EE621A53EC102B51EC110BE9
:1040B00003F010FD03D894ED180B84ED120B94ED72
:1040C000102BB0EE420AF0EE620A94ED0E2BB0EE29
:1040D000421AF0EE621A53EC102B51EC110B03F064
:1040E00015F941EC180B94ED121BB0EE410AF0EEFD
:1040F000610A53EC102B03F009F9C4E9200194ED97
:10410000200B84ED1A0B94ED1C1BB0EE410AF0EE6F
:10411000610A51EC100B03F0BBF841EC180B94ED65
:104120001A1BB0EE410AF0EE610A53EC102B03F0BB
:10413000D1FC0CD894ED1C1BB0EE410AF0EE610AE4
:1041400051EC100B03F0A4F8C4E91A0116E094ED49
:104150001C2BB0EE420AF0EE620A94ED1A2BB0EE80
:10416000421AF0EE621A53EC102B51EC110B03F0D3
:10417000B1FC03D894ED1C0B84ED1A0B94ED040BE9
:1041800084ED060BBDEC028B10BD000000000000AA
:104190000000F03F00000000000000009FED120B47
:1041A00080ED000B9FED100B80ED020B9FED0E0BD1
:1041B00080ED040B9FED0C0B80ED060B9FED0A0BC1
:1041C00080ED0E0B9FED080B80ED100B9FED060BA5
:1041D00080ED120B9FED040B80ED200B9FED020B89
:1041E00080ED1A0B70470000000000000000000086
:1041F0002DE9F0412DED048B0546C5F3C750A0F124
:104200007F07C5F31608002435E07CB938469FEDDA
:104210001E0B02F0A5FAB0EE409AF0EE609A51EC57
:10422000190B03F041F808EE100A23E0601E4FF46A
:10423000800141FA00F000EA0800C4F1170140FAD9
:1042400001F6381B9FED100B02F08AFAB0EE409A8F
:10425000F0EE609A51EC190B03F026F800EE900A8C
:1042600000EE106AB8EEC01AB0EE480A01EE200A5D
:10427000B0EE408A641C182CC7DBB0EE480ABDECD7
:10428000048BBDE8F0810000000000000000F03F5A
:104290007047000000B587B00121080200F0CCF89B
:1042A0000121042000F0C8F84020019000208DF882
:1042B00008008DF80A0001208DF80B0003208DF80E
:1042C000090001A91348FFF725FA80200590002076
:1042D0008DF818008DF81A0001208DF81B000320BE
:1042E0008DF8190005A90C48FFF714FA4020039037
:1042F00000208DF810008DF8120001208DF81300B9
:1043000003208DF8110003A90348FFF703FA07B053
:1043100000BD00000008024000200240384800684C
:104320003849087038480078012808D108460078D4
:1043300028B9012035490870002035490860334804
:10434000007801280CD133490880002032490870D8
:104350003249486308602D490870012030490860DF
:104360002848007878B92A480068401C2849086025
:1043700008460068B0F5FA7F05DD00202649087080
:104380000120244908801F4800781F4908702548EB
:1043900000682549087025480078012808D108469A
:1043A000007828B9012022490870002021490860BE
:1043B0001F48007801280CD116490880164908705A
:1043C0000020164948630860194908700120144903
:1043D00008601548007870B916480068401C1549F7
:1043E000086008460068B0F5FA7F04DD01200A493C
:1043F0000870084908800C4800780C49087070471C
:104400001802414281010020800100208C0100201F
:104410009001002086010020410100201811002099
:10442000080100201C024442850100208401002074
:104430008E0100209401002029B1064A126802432F
:10444000044B1A6004E0034A12688243014B1A606D
:10445000704700003038024029B1064A1268024312
:10446000044B1A6004E0034A12688243014B1A604D
:10447000704700004038024029B1064A12680243E2
:10448000044B1A6004E0034A12688243014B1A602D
:10449000704700002038024029B1064A12680243E2
:1044A000044B1A6004E0034A12688243014B1A600D
:1044B000704700004438024029B1064A126802439E
:1044C000044B1A6004E0034A12688243014B1A60ED
:1044D0007047000024380240F0B50021002200247B
:1044E000022500260223324F3F6807F00C0121B15C
:1044F000042905D0082937D105E02E4F076036E0A2
:104500002D4F076033E02A4F3F1F3F68C7F38056A7
:10451000274F3F1F3F6807F03F036EB1264FB7FBA1
:10452000F3F7DFF88CC0ACF1040CDCF800C0CCF37E
:10453000881C07FB0CF40CE01E4FB7FBF3F7DFF809
:1045400070C0ACF1040CDCF800C0CCF3881C07FB95
:104550000CF4174F3F1F3F68C7F301477F1C7D00D6
:10456000B4FBF5F7076002E0124F076000BF00BF21
:104570000F4F3F6807F0F0010909104F7A5C076898
:10458000D74047600A4F3F6807F4E051890A0B4F54
:104590007A5C4768D7408760054F3F6807F4604101
:1045A000490B064F7A5C4768D740C760F0BD0000F2
:1045B000083802400024F400001BB700000000206F
:1045C000D0E90012914211DA0168491C016090EDB6
:1045D000000AF8EEC00A90ED010AB8EEC00A80EEBB
:1045E000801A80ED021A90ED020A7047B7EE000AB9
:1045F000FBE77047014691ED000AF8EEC00A91ED25
:10460000010AB8EEC01A80EE810AF7EE000AB4EE95
:10461000E00AF1EE10FA01DB012070470020FCE710
:1046200000210160704701607047416070470000E1
:1046300010B52DED088B044614B9BDEC088B10BDE8
:10464000FFF71AF9784908602078617840EA01207C
:10465000C0F30A00754908806078C010A17840EA6C
:104660004110C0F30A0071494880A0788011E178B8
:1046700040EA8100217940EA8120C0F30A006B49B9
:10468000888020794010617940EAC110C0F30A00A7
:104690006649C88060790011800808726079C0F3AB
:1046A00001104872A079E17940EA012000B25F4927
:1046B0004881207A617A40EA012001B25B48818119
:1046C000A07AE17A40EA012001B25848C181217BF9
:1046D0008174617BC174A07BE17B40EA0120534976
:1046E00088820846B0F90200A0F5806000EE100A4A
:1046F000B8EEC00A4E4880ED000AB1F90610A1F5E7
:10470000806003F082F841EC1B0B9FED4A0B53ECE9
:10471000102B03F0E1F841EC190B484890ED000A2A
:1047200010EE101A084603F001FB41EC1A0B53EC93
:10473000192B02F0EBFD41EC180B02F0B5FD3F49DF
:1047400008603A49B1F90410A1F5806003F05DF802
:1047500041EC1B0B9FED3A0B53EC102B03F0BCF814
:1047600041EC190B354890ED010A10EE101A08467D
:1047700003F0DCFA41EC1A0B53EC192B02F0C6FDE6
:1047800041EC180B02F090FD2C4948602748407A14
:10479000012802D102202C4908702448407A0328BD
:1047A00002D10120284908702048407A022802D10D
:1047B0000020254908701D48407A012822D11B4855
:1047C000007A032803D01948007A012802D1012079
:1047D0001E4908701548007A022802D100201B49A2
:1047E00008701248007A012801D1194908600F4861
:1047F000007A022803D00D48007A032802D1002055
:10480000134908600948407A03280AD10748007A0A
:10481000022806D100200F4908700F4908700F497F
:10482000087000BF09E70000070B0020FC0F002004
:10483000EC090020FA7E6ABC7493683FC40900202A
:10484000D42B6519E258673F220A0020B1000020EE
:10485000E4000020250A0020200A0020210A002070
:1048600001460C4800680B4A5268904201D1012071
:104870007047084802680830805C08700548006886
:10488000401C044A1060642801DB002010600020F6
:10489000EEE70000A81000200E494A68083188544D
:1048A00008394968491C0B4A5160642901DB002121
:1048B000516008494968074A1268914208D1054980
:1048C0000968491C034A1160642901DB0021116059
:1048D00070470000A81000207047000040B5064651
:1048E0003F480078012806DB3D480078092802DCB3
:1048F00042203C4908703A480078652806DB384871
:1049000000786D2802DC5220364908704D20354968
:1049100048704E2088704C20C8704FF47A7095FB18
:10492000F0F0303008724FF47A7095FBF0F100FB34
:104930001150642190FBF1F030302A494872642014
:1049400095FBF0F100FB11500A2190FBF1F03030A3
:10495000244988720A2095FBF0F100FB1150303099
:104960002049C8724FF47A7094FBF0F0303008712F
:104970004FF47A7094FBF0F100FB1140642190FB3E
:10498000F1F0303017494871642094FBF0F100FBDE
:1049900011400A2190FBF1F03030124988710A2051
:1049A00094FBF0F100FB114030300E49C8710EE06D
:1049B0000C480D4A1268815C0C4800F001FF0A485F
:1049C0000068401C08490860962001F0E9FF06488D
:1049D0000068B042ECDB00200349086040BD0000E5
:1049E0008A1000200C0F00206800002000100140F9
:1049F00070B5FEF70FFF072805D1002211461948B0
:104A000000F0DEF82CE0184890ED1A1BB0EE410AD9
:104A1000F0EE610A51EC100B02F0C8FE04B213482C
:104A200090ED1A1BB0EE410AF0EE610A51EC100B4A
:104A300002F0BCFE05B2224629460A4800F0C0F842
:104A40000B4890ED1A1BB0EE410AF0EE610A51ECF2
:104A5000100B02F0ABFE04B22146064800F0DAF873
:104A600070BD000000640040580600208807002048
:104A7000B8080020006800400CB5002001900090AC
:104A80003448006840F480303249086000BF314843
:104A9000006800F4003000900198401C01900098DC
:104AA00018B90198B0F5A04FF1D12A48006800F478
:104AB000003010B10120009001E00020009000982B
:104AC000012846D123484030006840F080502149F9
:104AD000403108602048006840F440401E490860AA
:104AE0001C48083000681B49083108600846006807
:104AF00040F4004008600846006840F4A050086098
:104B00001648091F0860081F006840F08070091FE0
:104B1000086000BF0F48006800F000700028F9D05E
:104B200040F205700E4908600A480830006820F01D
:104B300003000849083108600846006840F0020098
:104B4000086000BF03480830006800F00C00082827
:104B5000F8D10CBD00380240007000400C544007F2
:104B6000003C02402DE9F04186B080460C461546D7
:104B70001E460C9F4FF40070019000208DF80C0031
:104B80008DF80D0008208DF80E00200A8DF80F001A
:104B90008DF81040290A8DF811108DF81250310A45
:104BA0008DF813108DF81460390A8DF815108DF8F2
:104BB000167001A94046FCF79CFB06B0BDE8F081E9
:104BC00070B586B006460C46154640F2FF100190BF
:104BD00000208DF80C008DF80D0008208DF80E00D7
:104BE000280A8DF80F008DF81050FF218DF8111054
:104BF0008DF81210210A8DF813108DF81440FF2142
:104C00008DF815108DF8161001A93046FCF771FBD0
:104C100006B070BD30B585B005460C4640F2FF10B9
:104C2000009000208DF808008DF8090008208DF80C
:104C30000A00FF208DF80B00FF218DF80C108DF875
:104C40000D108DF80E10210A8DF80F10E1B28DF8BD
:104C50001010FF218DF811108DF8121069462846AA
:104C6000FCF747FB05B030BD10B59FED2D0B2E486E
:104C700080ED080B9FED2A0B80ED0A0B9FED280BB2
:104C800080ED0C0B9FED290B2A4880ED080B9FED62
:104C9000240B80ED0A0B9FED280B80ED0C0B2848B0
:104CA0000068012816D12749B1F90010C1EB0111A4
:104CB000880002F0AAFD1C4A03C2234890ED100BA5
:104CC000194880ED020B816F88479FED200B194832
:104CD00080ED000B1C4880690A2804DA9FED1D0B4B
:104CE000144880ED000B1848806910F1050F04DAB4
:104CF0009FED160B0F4880ED000B1148006820B99E
:104D00009FED070B0B4880ED000B0F49886902F0FF
:104D10007CFD084AC2E902011046816F884710BD38
:104D2000000000000000000020080020000000003B
:104D300000004E40B80800200000000000002E4097
:104D4000E40000201C0A00202813002000000000BE
:104D500000406F400000000000407FC0704700002E
:104D600010B51548006840F47000134908601348F6
:104D7000006840F001001149086000200F49083127
:104D800008600E4800680E4908400C4908600D484C
:104D9000091D0860081F006820F48020091F0860B2
:104DA000002006490C310860FFF766FE4FF00060F6
:104DB00001498039086010BD88ED00E000380240EC
:104DC000FFFFF6FE103000240EB501210846FFF764
:104DD00043FB4FF0FF3001905320ADF8000000205E
:104DE000ADF80800ADF8020069464FF0804000F0D1
:104DF000A3F80121880700F067F80121880700F077
:104E000075F80EBD10B50121880700F07BF838B1A8
:104E10000121880700F067F80121880700F060F899
:104E200010BD00000EB501211020FFF715FB532027
:104E3000ADF800000020ADF80200ADF808004FF416
:104E4000FA6001906946094800F076F836208DF83E
:104E5000080000208DF809008DF80A0001208DF867
:104E60000B0002A8FEF76EFF0EBD00000010004010
:104E700010B50121094800F045F870B1012107483B
:104E800000F031F80121054800F02AF8FDF762FE34
:104E900003480068401C0249086010BD0010004033
:104EA0001C00002010B50121064800F01FF8012267
:104EB0001146044800F037F80121024800F010F8CC
:104EC00010BD00000010004021B1028842F08002B5
:104ED000028004E002884FF67F731A400280704718
:104EE000CA4302827047CA430282704721B10288D6
:104EF00042F00102028004E002884FF6FE731A407D
:104F00000280704730B50246002000230024158A35
:104F100005EA0103958905EA010413B10CB10120EA
:104F200000E0002030BD1AB183890B43838102E089
:104F300083898B438381704700220288184B9842F3
:104F40000ED0184B98420BD0B0F1804F08D0164BC2
:104F5000984205D0154B984202D0154B984204D187
:104F60004FF68F731A404B881A43124B984207D062
:104F7000114B984204D04FF6FF431A400B891A4355
:104F800002804B68C3620B880385054B984202D0B0
:104F9000044B984201D18B7A0386012383827047A8
:104FA00000000140000401400004004000080040EF
:104FB000000C004000100040001400402DE9F041BA
:104FC00006460F464FF00108002002EE100A0025A9
:104FD000002419E008FA04F03040204102EE100AE3
:104FE0002046B0EE000A01F0D5FFF0EE400A00EED8
:104FF000105AB8EEC00AB8EEC21A01EE200ABDEE91
:10500000C00A10EE105A641CBC42E3DB2846BDE81F
:10501000F081000010B540F22441284800F016FB52
:10502000002849D025480088244880882448FDF776
:1050300016FF00BB00212248FDF73EFE2048FDF789
:105040000AFFC0F10C001F4908600C201C49091D13
:105050000860081F006840F40020091F0860012153
:105060001748FDF729FE17480068082824D116487C
:10507000FCF7F8FC20E000211148FDF71DFE104868
:10508000FDF7E9FEC0F10C000E4908600C200C4948
:10509000091D0860081F006820F40020091F08602F
:1050A00001210748FDF708FE06480068082803D1DB
:1050B00005480C30FCF7D6FC10BD00000010014084
:1050C0008864024024000020500E002000B58FB0FC
:1050D00001210420FFF7B0F901214805FFF7ACF9E1
:1050E00001218804FFF7B8F907220B214348FEF796
:1050F00059FB0DA8FEF77BFB4FF400600D900220DA
:105100008DF8380000208DF8390001208DF83B0023
:105110000DA93A48FEF7FEFA394800F01FFA09A82F
:1051200000F052FB374809900020ADF82800ADF898
:105130002A004FF48060ADF82C000420ADF82E005A
:105140000020ADF8300009A92D4800F0CFFA012267
:1051500040212B4800F0F8F9012240F22441284870
:1051600000F09EFA0121264800F0E2F92648FDF7FA
:10517000AFFD6846FDF7AAFE4FF0006000902048A2
:10518000001D019021480290002003901E200490F1
:10519000002005904FF48060069000200790089052
:1051A0004FF48070099000020A9000200B900C9040
:1051B0000D900E9069461448FDF75CFE00221349DD
:1051C0001E311148FDF73BFE01210F48FDF72CFE73
:1051D00001210D48FDF770FD27208DF838000120D2
:1051E0008DF8390002208DF83A0001208DF83B003F
:1051F0000EA8FEF7A7FD0FB000BD0000000802409A
:1052000000480040A086010028600240A40A002057
:1052100010B540F22441274800F018FA002848D081
:10522000244800882348001D00882348FDF717FE06
:10523000F8B900212048FDF73FFD1F48FDF70BFEA0
:10524000C0F11E001D4908601E201B492839C86294
:105250000846806A40F40020886201211648FDF764
:105260002BFD16480068122823D11548FFF7E0F9F6
:105270001FE000211048FDF71FFD0F48FDF7EBFD73
:10528000C0F11E000D4908601E200B492839C86274
:105290000846806A20F40020886201210648FDF754
:1052A0000BFD06480068122803D105481E30FFF7A1
:1052B000BFF910BD004800402860024018000020DF
:1052C000A40A002070B540F224418C4800F0BEF9D9
:1052D000002871D0894800888848001D00888848C7
:1052E000FDF7BDFD20BB00218548FDF7E5FC8448A6
:1052F000FDF7B1FDC0F16400824908606420804977
:10530000091D0860081F006840F40020091F08609C
:1053100001217B48FDF7D0FC002404E07A49085DB8
:10532000FFF7BAFA641C774800688442F6D324E099
:1053300000217348FDF7C0FC7148FDF78CFDC0F1FA
:1053400064007049086064206D49091D0860081FE9
:10535000006820F40020091F086001216848FDF75B
:10536000ABFC002405E068496431085DFFF794FA5E
:10537000641C644800688442F5D3B5E06348406823
:1053800062490968401A03D400206149088002E09C
:1053900064205F4908805D480068602807DB5B483F
:1053A0000068632803DC64205A49088002E000207A
:1053B00058490880002505E09EE057494819FFF745
:1053C0004FFA6D1C052DF8DB5348007953490870DE
:1053D000FF2204215048FEF73DFA514908704F481A
:1053E0000078097888427FD14B4840784A498978CB
:1053F00040EA01204B49088010214A480088FFF705
:10540000DDFD484908804148406841490988014418
:105410003E4800683F4A12881044401F091A41481C
:1054200000880930814256DB002505E03A49491DD4
:105430004819FFF715FA6D1C3A480088001D85428F
:10544000F4DB38480088C01D3349095C35480088C2
:105450000830314A105C41EA002033490880314865
:105460000088C11D4FF6FF722B48FEF7D9F92F496E
:1054700008802D4800880988884235D1264840791F
:10548000012806D124488079022802D1224801F05F
:105490004DFD21484079062806D11F488079022811
:1054A00002D11D4801F048FC1B484079072806D16D
:1054B00019488079022802D1174801F0E7FC164804
:1054C0004079022810D11448807902280CD1124862
:1054D00001F04CFC08E00D4800680E4909880844BA
:1054E000401F0A49086006E0084840680749096803
:1054F00088427FF443AF00BF70BD0000001401403C
:1055000040640240AC000020160F0020A8100020CC
:10551000A8000020AA000020DE0F0020A00000202C
:10552000A1000020A6000020A2000020A40000206E
:1055300021B1828942F40052828104E082894DF6D1
:10554000FF731A40828170471AB1838A0B438382AA
:1055500002E0838A8B4383827047000010B50446C3
:105560003248844208D101211020FEF7A5FF002116
:105570001020FEF7A1FF57E02D48844209D10121F8
:105580004804FEF779FF00214FF40030FEF774FF66
:105590004AE02848844209D101218804FEF76CFFC3
:1055A00000214FF48020FEF767FF3DE0224884424F
:1055B00009D10121C804FEF75FFF00214FF400204C
:1055C000FEF75AFF30E01D48844209D10121080549
:1055D000FEF752FF00214FF48010FEF74DFF23E04D
:1055E0001748844208D101212020FEF765FF0021E1
:1055F0002020FEF761FF17E01248844209D1012103
:105600008807FEF739FF00214FF08040FEF734FF96
:105610000AE00D48844207D101214005FEF72CFF26
:1056200000216005FEF728FF10BD000000100140BA
:105630000044004000480040004C00400050004042
:105640000014014000780040007C004070B5024624
:10565000002400230025002040F66A16B14200D144
:1056600000BFC1F3421501F01F03012606FA03F340
:10567000012D02D19689334006E0022D02D1168A0F
:10568000334001E0968A33400C12012606FA04F4F6
:105690001688344013B10CB1012000E0002070BD29
:1056A000F0B50346002400260025002040F66A17C6
:1056B000B94200D100BF1846C1F3421401F01F06E1
:1056C000012707FA06F5012C01D10C3004E0022C69
:1056D00001D1103000E014301AB107682F43076081
:1056E00002E00768AF430760F0BD00002DE9FF4707
:1056F00005460E460024A14600BFA046B08900B171
:1057000000BF2C8A24F44054F08804432C82AC89D6
:1057100041F20C608443B0883189084371890843A1
:105720000443AC81AC8A24F44074B0890443AC8255
:105730006846FEF7D1FE2048854202D01F488542C8
:1057400002D1DDF80C9001E0DDF80890A88900F4A2
:10575000004040B109EBC90000EB09103168490075
:10576000B0FBF1F707E009EBC90000EB0910316865
:105770008900B0FBF1F76420B7FBF0F004012009C9
:10578000642101FB1078A88900F4004040B1322068
:1057900000EBC800B0FBF1F000F00700044308E0A4
:1057A000322000EB08106421B0FBF1F000F00F0094
:1057B00004432C81BDE8FF87001001400014014024
:1057C000C1F30802828070474FF416510160002136
:1057D0008180C18001810C2141810021818170473C
:1057E00000BFFEE745480078454908704348007807
:1057F00009286FD2DFE800F0050E7F7F5A6F4C77E3
:10580000310040480068B0F5FA6F02D901203B49E9
:10581000087071E03C480078012802D10420374923
:1058200008703A48007810B90720344908703748A2
:105830000078022802D106203049087034480078E8
:10584000012802D108202D4908703248007801282B
:1058500002D10520294908704EE02D48007810B982
:1058600001202649087028480078012802D1042028
:10587000224908702548007810B907201F49087090
:1058800024480078012802D105201C49087033E023
:105890001E48007810B90720184908701A48007887
:1058A000012802D104201549087025E01748007826
:1058B00010B90720114908701348007810B9062064
:1058C0000E49087013480078012802D105200B49C1
:1058D000087011E00FE00D480078022802D1062080
:1058E0000649087008E009480078012802D1002024
:1058F0000249087000E000BF00BF70471F0A002087
:105900001E0A0020FC000020200A0020220A00209D
:10591000250A0020210A002010B52DED0A8B6F48C2
:10592000007888B16E48007870B96E4890ED101B11
:10593000B0EE410AF0EE610A51EC100B01F0B4FC3C
:1059400069490860FDF748F96448007880BB6448FD
:10595000007801282CD1634890ED101BB0EE410A6D
:10596000F0EE610A51EC100B01F09EFC5E490860FC
:10597000084690ED000A5D4880ED010A5C4890ED14
:10598000101BB0EE410AF0EE610A51EC100B01F071
:105990007FFC41EC180B01F087FC56490860084673
:1059A00090ED000A514880ED000A0020524908603D
:1059B0004A480078042831D14948007801282DD17F
:1059C000484890ED101BB0EE410AF0EE610A51EC30
:1059D000100B01F05DFC41EC180B01F065FC424935
:1059E0000860084690ED000A404880ED010A4048F2
:1059F00090ED101BB0EE410AF0EE610A51EC100B75
:105A000001F046FC41EC180B01F04EFC39490860EE
:105A1000084690ED000A354880ED000A2F480078CE
:105A200005282BD12E480078012827D1334800685B
:105A300002F07CF941EC1C0BB0EE4C0AF0EE6C0A63
:105A400000F082FEB0EE40AAF0EE60AA2B4800689B
:105A500002F06CF941EC1B0B53EC1A2B01F012FD18
:105A600041EC190B9FED260B53EC102B01F034FF8A
:105A700041EC180B01F018FC204908601748007829
:105A8000042828D016480078042824D11E48142160
:105A9000C26990471C4881698847124890ED101BE5
:105AA000B0EE410AF0EE610A51EC100B01F0F0FB90
:105AB00041EC180B01F0F8FB0B4908600C4890ED25
:105AC000101BB0EE410AF0EE610A51EC100B01F030
:105AD000EBFB08490860BDEC0A8B10BD1E0A0020D4
