:020000040800F2
:10000000A81C0020A1020008D93D0008193A0008E8
:10001000313A0008DD0B0008DD5500080000000043
:100020000000000000000000000000006D48000813
:10003000032E00080000000029430008194C0008A6
:10004000BB020008BB020008BB020008BB0200089C
:10005000BB020008BB020008BB020008BB0200088C
:10006000BB020008BB020008BB020008BB0200087C
:10007000BB020008BB020008BB020008BB0200086C
:10008000BB020008BB020008BB0200082D0D0008DF
:10009000F10C0008BB020008BB020008BB0200080C
:1000A000BB020008BB020008BB020008BB0200083C
:1000B000C14C0008BB020008BB020008BB020008DC
:1000C000BB020008BB020008BB020008BB0200081C
:1000D000BB020008BB020008BB0200081550000864
:1000E000BB020008BB020008BB020008BB020008FC
:1000F000BB020008BB020008BB020008BB020008EC
:10010000BB020008BB020008BB020008BB020008DB
:10011000BB020008BB0200082D4D0008BB0200080E
:10012000BB020008BB020008BB020008BB020008BB
:10013000BB020008BB020008BB020008950E0008C5
:10014000590E0008BB020008BB020008BB020008F1
:10015000BB020008BB020008BB020008C95000082F
:10016000BB020008BB020008BB020008BB0200087B
:10017000BB020008BB020008BB020008BB0200086B
:10018000BB020008BB02000800F002F800F05EF8B5
:100190000AA090E8000C82448344AAF10107DA45E2
:1001A00001D100F053F8AFF2090EBAE80F0013F0D6
:1001B000010F18BFFB1A43F0010318479C7D000094
:1001C000BC7D00000A444FF0000C10F8013B13F016
:1001D000070408BF10F8014B1D1108BF10F8015BA0
:1001E000641E05D010F8016B641E01F8016BF9D193
:1001F00013F0080F1EBF10F8014BAD1C0C1B09D1EA
:100200006D1E58BF01F801CBFAD505E014F8016B5B
:1002100001F8016B6D1EF9D59142D6D370470000ED
:100220000023002400250026103A28BF78C1FBD8FF
:10023000520728BF30C148BF0B6070471FB507F099
:1002400044FC00F064F81FBD10B510BD00F0B2F81A
:100250001146FFF7F3FF06F0E9FC00F0D0F803B415
:10026000FFF7F2FF03BC06F0AFFA00000B49D1F82C
:1002700000C04A685CF8043B1068184442F8040B5C
:100280008C4528BFA1F1DC0C8A4228BFA1F1DC0219
:10029000C1F800C04A6020F0004070473C160020C2
:1002A0000948804709480047FEE7FEE7FEE7FEE70A
:1002B000FEE7FEE7FEE7FEE7FEE7FEE70448054946
:1002C000054A064B704700001D4C000889010008D4
:1002D000A8160020A81C0020A8180020A81800209C
:1002E000704700000B4910B5A1F17C020A4CC2E92D
:1002F0003712372106E000EB104342F82130074B5C
:1003000000FB03400B1EA1F10101F4DC10BD012034
:10031000E8E70000DC150020E119D666CD0D0100EC
:1003200010B5203AC0F00B80B1E81850203AA0E890
:100330001850B1E81850A0E81850BFF4F5AF5FEAC4
:10034000027C24BFB1E81850A0E8185044BF18C977
:1003500018C0BDE810405FEA827C24BF51F8043B1E
:1003600040F8043B08BF7047D20728BF31F8023B72
:1003700048BF11F8012B28BF20F8023B48BF00F806
:10038000012B7047704770477047704710B500F0F9
:1003900009F8006810BD10B5044600F003F80460C9
:1003A00010BD000000487047441600200048704708
:1003B000441600207546FFF7F9FFAE460500694672
:1003C000534620F00700854618B020B5FFF776FFAA
:1003D000BDE820404FF000064FF000074FF0000846
:1003E0004FF0000B21F00701AC46ACE8C009ACE8C7
:1003F000C009ACE8C009ACE8C0098D4670470446A6
:10040000AFF300802046FFF72AFF000010B52DED66
:10041000068B8C4800788C4908708C48007800283E
:100420007ED18B48006807F04EF841EC190B8948E3
:1004300090ED101BB0EE410AF0EE610A51EC100B8A
:1004400006F084FD41EC1A0B53EC192B07F0E2F98E
:1004500041EC180B06F086FD7F490860084690EDD8
:10046000000ABDEEC00A10EE100A40F23C7190FB8B
:10047000F1F07A490860784890ED000ABDEEC00AB4
:1004800010EE100A40F23C7190FBF1F201FB1200F9
:1004900000B2734908800846B0F90000002850DB1C
:1004A0006948007801283CD10846B0F90000B0F551
:1004B000307F09DA6948006840F2CF114843DF21F4
:1004C000C1EB8000674908606548B0F90000B0F5ED
:1004D000307F0BDB6148006840F2CF11484340F2A7
:1004E0005D6101EB80005F49086078E05C48B0F92D
:1004F000000040F2BF21884271DB5948B0F900008A
:1005000040F25D6188426ADC5448006840F2CF11D5
:10051000484340F25D6101EB8000524908605EE0B3
:100520008CE049480078002859D14C48006840F2D6
:10053000CF11484340F2BF2101EB800049490860D8
:100540004DE04148007801283BD14548B0F9000012
:100550006FF49C61884209DB4048006840F2CF118B
:100560004843DF21C1EB80003E4908603C48B0F9B8
:1005700000006FF49C6188420BDA3848006840F252
:10058000CF11484340F62501C1EB80003549086092
:1005900025E03348B0F90000334988421FDC304879
:1005A000B0F900003149884219DB2C48006840F25C
:1005B000CF11484340F62501C1EB8000294908606E
:1005C0000DE02148007850B92448006840F2CF116E
:1005D000484340F2E141C1EB8000224908601D48D8
:1005E00090ED101BB0EE410AF0EE610A51EC100BD9
:1005F00006F0ACFC41EC190B1A490968144A126860
:10060000881806F060FF41EC1A0B53EC192B07F029
:1006100001F941EC180B9FED160B53EC102B07F072
:10062000B7F803D801201449087002E002201249EB
:10063000087012480088401C10490880BDEC068BE9
:1006400010BD0000D00B00200A0C0020850B0020FC
:10065000EC0B002000140020E80B002054010020C7
:10066000580100205C01002041FDFFFFA3F9FFFFBE
:10067000000000000000000060010020080C0020C5
:1006800010B54FF4A06003F0E5FB04F0FBFA04F0B2
:1006900027FB00F0A5FA00F057FB04F019FC4FF41B
:1006A000E13006F0FBFA4FF4E13006F0ADFB03F069
:1006B0003DFE10BD9848007801287DD19748C0883C
:1006C000974908800846008896490988401A964943
:1006D000086096480088401C00B2944908809248FF
:1006E000006810F10A0F10DC0846B0F900109048BD
:1006F00002680068401C8E4B18608E4820F812106B
:1007000001208D4908608D490860894800680528E6
:1007100034DB8A480068012830D185480068401ED3
:10072000844931F9101082480068401F814A32F92B
:100730001000081A824908607D480068401E114672
:1007400031F910107A480068401F32F91000081A79
:10075000062813DA7B48006858280FD000207A4911
:1007600008607A49086001207949087000207349BF
:100770000860012077490860774908606848008868
:10078000782871DD6A4800680F2839DB6A480068FC
:10079000012835D166480068401E664931F91010BD
:1007A000634800680F38634A32F91000081A644938
:1007B00008605F48006800E0ADE0401E114631F976
:1007C00010105B4800680F3832F91000081A3C28F6
:1007D00016DA57480068401E114631F91010544887
:1007E0000068401F32F91000081A062808DD0020B2
:1007F0005549086001205649087000204E4908609C
:1008000056480068401C55490860084600683C2866
:100810000DDA084600680A2809DD4348006810F12F
:10082000640F04DC01204E4908604E4908603E48D0
:10083000006810F1640F0ADC0020434908600120C1
:100840004349087047490860002044490860464809
:100850000068401C4449086008460068B0F5967F6F
:1008600002DD0020414908602D480088782841DADF
:100870000020354908600120354908702A48006881
:1008800010F10A0F0DDC3A48006850B901203549D3
:100890000860002037490860012037490860344962
:1008A000086034480068401C324908600846006807
:1008B000642802D90020304908602E480068B0F54D
:1008C000967F02D900202A4908601748006810F175
:1008D0000A0F02DC00202449086023480068401CFD
:1008E0002149086008460068B0F5967F02DD0020C7
:1008F0001E4908600C48006810F10A0F07DC0A481E
:10090000006810F1140F02DB01201C490870044834
:100910000088044908807047840B002004120020DE
:10092000060C0020040C0020A40B0020A80B0020C3
:10093000AC0B00208C110020B00B0020C00B00205D
:10094000CC0B002058000020940B0020C40B00208A
:10095000810B0020BC0B0020C80B0020900B002056
:100960003001002020010020B40B0020B80B002033
:10097000A00B0020980B002034010020850B0020E4
:1009800010B502F093FF042807D002F08FFF06286D
:1009900003D002F08BFF052825D113480088B0F55D
:1009A000C87F20DA1148006801281CD102F0B0FF8E
:1009B0000F494860084640680968401A0C49886039
:1009C0000C4800780C4991FBF0F00949896888428D
:1009D00009DA0A480088401C00B20849088002F081
:1009E00097FF0349086010BD020C002000010020A1
:1009F000550C00201201002010EB09007C0B002098
:100A000010B54148407A01287DD03F48407A0228FD
:100A100079D03E4890ED000AB5EEC00AF1EE10FA2A
:100A200007D23B4890ED000AB5EEC00AF1EE10FA8D
:100A30000FDC364890ED000AB5EEC00AF1EE10FA70
:100A400018D2334890ED000AB5EEC00AF1EE10FA64
:100A500010D13048006868B94FF0FF302E49086067
:100A600001202C4908602D48806818B902F050FF19
:100A70002A490860254890ED000AB5EEC00AF1EE5B
:100A800010FA07DD224890ED000AB5EEC00AF1EE3B
:100A900010FA0FD31D4890ED000AB5EEC00AF1EE32
:100AA00010FA16DD1A4890ED000AB5EEC00AF1EE14
:100AB00010FA0ED11748006858B90120164908608D
:100AC000144908601548806818B902F021FF1349DD
:100AD000086010480068012815D102F019FF0F497D
:100AE0004860084640680968401A0C498860084612
:100AF00080680B49884206DD0020074908600749E5
:100B000088600449086010BD6A110020380B00207D
:100B10003C0B0020F40B0020280B0020620C00206E
:100B200020A10700294800881E2819DC28480088D1
:100B300028490988081A012805DD274800880A384D
:100B4000254908800CE02248008822490988081AB3
:100B5000B0F1FF3F04DA204800880A301E490880BF
:100B60001A4800881E2830DD19484088194909882C
:100B7000081A01281CDD1648408816490988081AF9
:100B8000032805DA144840880A38134948801CE0D5
:100B90001148008864381049088008464088643845
:100BA00048800846008864280FDA642008800CE03A
:100BB0000748408807490988081AB0F1FF3F04DA5E
:100BC000054840880A300449488070474A000020A0
:100BD00008010020100100200401002000BFFEE7F2
:100BE00000B589B00121082003F0E4FB012148068B
:100BF00003F0F0FB092200213B4802F01FFE09220E
:100C00000121394802F01AFE0320079002208DF8D6
:100C1000200007A9344802F0C9FD344800F0B8F9B3
:100C200004A800F0F0FB00208DF816008DF81700E6
:100C30008DF818008DF819008DF81A0001208DF834
:100C40001B0000208DF812008DF8130008208DF88D
:100C5000140003208DF81500ADF8100004A92348F6
:100C600000F0CFFA00208DF80A008DF80B0001206B
:100C70008DF80C000020ADF80000ADF80200ADF8D2
:100C80000400ADF80600ADF8080001208DF80D0055
:100C9000684600F099F901220221144800F0A8FAF0
:100CA00001221146114800F0A3FA14208DF820000B
:100CB00001208DF821008DF822008DF8230008A86E
:100CC00003F08CF813208DF8200001208DF821000E
:100CD00000208DF8220001208DF8230008A803F0E1
:100CE0007DF809B000BD0000000C02400064004027
:100CF00000B585B002210B4800F0EAF978B1022175
:100D0000084800F0F1F80849064800F0D1F86A46B2
:100D10000021044800F0FFFA684600F02DFE05B0FF
:100D200000BD0000006400400800003210B5012141
:100D3000044800F0CDF918B10121024800F0D4F8C0
:100D400010BD00000064004000B589B00121022000
:100D500003F030FB0121880603F03CFB092205214A
:100D60003B4802F06BFD09220621394802F066FD7E
:100D70006020079002208DF8200007A9344802F077
:100D800015FD344800F004F904A800F03CFB0020F5
:100D90008DF816008DF817008DF818008DF81900E1
:100DA0008DF81A0001208DF81B0000208DF812002C
:100DB0008DF8130008208DF8140003208DF815001D
:100DC000ADF8100004A9234800F01BFA0E208DF89E
:100DD0000A0000208DF80B0001208DF80C00002087
:100DE000ADF80000ADF80200ADF80400ADF8060063
:100DF000ADF8080001208DF80D00684600F0E4F819
:100E000001220221134800F0F3F901221146114892
:100E100000F0EEF940208DF8200001208DF821002F
:100E20008DF822008DF8230008A802F0D7FF3F209C
:100E30008DF8200001208DF8210000208DF822007F
:100E400001208DF8230008A802F0C8FF09B000BDFA
:100E5000000402400068004000B585B002210B4844
:100E600000F036F978B10221084800F03DF8084951
:100E7000064800F01DF86A460021044800F04BFACD
:100E8000684600F069FE05B000BD00000068004043
:100E90000800003210B50121044800F019F918B11A
:100EA0000121024800F020F810BD00000068004059
:100EB00000220C4B994202D10023836111E0C1F35F
:100EC000130201F000730BB1C2600AE001F080630D
:100ED0000BB1026105E001F000630BB1826000E03C
:100EE000426070477000F030B1F5007F3AD00FDCFF
:100EF000202928D006DC01291CD004291DD008296E
:100F000040D11DE0402921D0B1F5807F3AD126E0C3
:100F1000B1F5004F31D006DCB1F5806F25D0B1F5C9
:100F2000006F2FD124E0B1F5803F12D0B1F5003F22
:100F300028D111E0154A826025E00822C26022E033
:100F40001022C2601FE0082202611CE01022026130
:100F500019E00822426016E01022426013E00422E9
:100F6000426010E0042242600DE0042242600AE088
:100F7000002282610422426005E000228261042294
:100F8000426000E000BF00BF7047000001010100A7
:100F900010B504460B48844209D10121480603F0EC
:100FA00029FA00214FF0007003F024FA08E0012133
:100FB000880603F01FFA00214FF0806003F01AFA50
:100FC00010BD00000064004010B50021837A0122AA
:100FD00002FA03F13D4A126842F001023B4B1A60EB
:100FE0003A4A1C3212688A43384B1C331A60027B1F
:100FF000CAB9364A0C3212688A43344B0C331A6031
:101000004288C38842EA0343304A4032847A42F835
:1010100034300288838842EA03432C4A4032847A7F
:1010200002EBC4025360027B012A19D1274A0C3219
:1010300012680A43254B0C331A604288038842EA3F
:101040000343224A4032847A42F83430C28883888B
:1010500042EA03431D4A4032847A02EBC4025360E1
:10106000C27A3AB9194A121D12688A43174B1B1DDE
:101070001A6006E0154A121D12680A43134B1B1D25
:101080001A60028932B9114A143212688A430F4B2E
:1010900014331A600289012A06D10C4A14321268EC
:1010A0000A430A4B14331A60427B012A06D1074ACD
:1010B0001C3212680A43054B1C331A60034A12683B
:1010C00022F00102014B1A6010BD000000660040D2
:1010D00070B504460D46002660692840002871D08E
:1010E000B5F5807F5CD010DC082D35D006DC012DF5
:1010F00020D0022D24D0042D72D127E0102D31D024
:10110000202D35D0402D6BD138E0B5F5004F60D0A3
:1011100009DCB5F5007F49D0B5F5806F4CD0B5F549
:10112000006F5DD14FE0B5F5803F2DD0B5F5003FA4
:1011300056D12FE0A0682D4901F08AFC064651E007
:10114000E068032101F084FC06464BE0E0680821DA
:1011500001F07EFC064645E0E068102101F078FCD5
:1011600006463FE02069032101F072FC064639E0A3
:101170002069082101F06CFC064633E0206910214B
:1011800001F066FC06462DE06068082101F060FC75
:10119000064627E06068102101F05AFC064621E06F
:1011A000A069012101F054FC06461BE0A069022160
:1011B00001F04EFC064615E0A069042101F048FC50
:1011C00006460FE00FE0A069702101F041FC0646E1
:1011D00008E06068042101F03BFC064602E0FFE7FE
:1011E000002600BF00E00026304670BD010101006E
:1011F0001AB143690B43436102E043698B43436186
:10120000704730B5024600200023146824F0020421
:101210001460146844F00104146000E05B1C54681E
:1012200004F001041CB94FF6FF74A342F6D15468D0
:1012300004F001040CB900206CE08C79012C04D17D
:10124000146844F08004146003E0146824F08004FF
:101250001460CC79012C04D1146844F0400414606B
:1012600003E0146824F0400414600C7A012C04D1CB
:10127000146844F02004146003E0146824F020048F
:1012800014604C7A012C04D1146844F010041460EA
:1012900003E0146824F0100414608C7A012C04D14B
:1012A000146844F00804146003E0146824F008048F
:1012B0001460CC7A012C04D1146844F00404146046
:1012C00003E0146824F0040414608C78A407CD783B
:1012D00044EA05640D7944EA05444D7944EA05542D
:1012E0000D886D1E2C43D461146824F00104146031
:1012F000002300E05B1C546804F001041CB14FF6AD
:10130000FF74A342F6D1546804F001040CB100202C
:1013100000E0012030BD10B500F5D87303EB0113D8
:101320001B6803F004031372137A53B900F5D873E2
:1013300003EB01131B6840F2FF7404EA535313607C
:1013400009E000F5D87303EB01131B686FF06044EC
:1013500004EAD303536000F5D87303EB01131B6851
:1013600003F00203537200F5D87303EB01135B68BB
:1013700003F00F03937200F5D87303EB01135B685E
:101380001B0AD37400F5D87303EB01139B68D37267
:1013900000F5D87303EB01139B681C0A147300F566
:1013A000D87303EB01139B681C0C547300F5D873BE
:1013B00003EB01139B681B0E937300F5D87303EBCB
:1013C0000113DB68D37300F5D87303EB0113DB68FB
:1013D0001C0A147400F5D87303EB0113DB681C0CB2
:1013E000547400F5D87303EB0113DB681B0E937480
:1013F00021B9C36843F02003C36003E0036943F0ED
:101400002003036110BD00218171C171017241721D
:101410008172C1728170C170032101710221417119
:1014200001210180704710B502460020936803F047
:101430008063B3F1806F00D110E0936803F0006324
:10144000B3F1006F01D1012008E0936803F08053ED
:10145000B3F1805F01D1022000E00420042874D0A1
:1014600002F5C07303EB00131B6803F0010402F5DF
:10147000C07303EB00131C600B7A7BB94B7A0C88AA
:1014800043EA445302F5C07404EB00142468234378
:1014900002F5C07404EB0014236010E00B7A4C6872
:1014A00043EAC4034C7A234302F5C07404EB0014EE
:1014B0002468234302F5C07404EB001423608B7A84
:1014C00003F00F038B7202F5C07303EB00135B682C
:1014D00023F00F0402F5C07303EB00135C6002F508
:1014E000C07303EB00135B688C7A234302F5C0746E
:1014F00004EB001463608B7B1C064B7B44EA0344C3
:101500000B7B44EA0323CC7A234302F5C07404EB3B
:101510000014A3608B7C1C064B7C44EA03440B7CC8
:1015200044EA0323CC7B234302F5C07404EB00148C
:10153000E36002F5C07303EB00131B6843F0010482
:1015400002F5C07303EB00131C6010BD70B52DEDE8
:101550000C8B82B0EB4890ED022BB0EE420AF0EE1D
:10156000620A90ED002BB0EE421AF0EE621A53ECD4
:10157000102B51EC110B06F04DF941EC1D0BB0EEA8
:101580004D0AF0EE6D0A05F003F8B0EE40CAF0EE39
:1015900060CA9FEDDD0B53EC102B51EC1C0B05F0DA
:1015A000F9FF41EC1B0BB0EE4B0AF0EE6B0A04F0B6
:1015B00043FEB0EE40AAF0EE60AA9FEDD50B53ECCF
:1015C000102B51EC1A0B06F019F941EC190B9FED99
:1015D000D20B53EC102B05F0DDFF41EC180B9FED07
:1015E000CE0B53EC102B05F0EFFCC64AC2E9080104
:1015F0009FEDCB0B104680ED0A0B9FEDC90B80EDE4
:101600000C0B9FEDC90BCA4880ED080BC94880ED53
:10161000080B9FEDC90BC64880ED0A0BC54880ED4D
:101620000A0B9FEDC70BC24880ED0C0BC14880ED43
:101630000C0B02F03BF9072802D002F037F9D0B9C1
:101640009FEDC10BAF4880ED080B9FEDBB0B80ED0C
:101650000A0B9FEDBF0B80ED0C0B9FEDB10B80EDE6
:10166000000BBD49886B05F02EFFA64AC2E90201B6
:101670001046816F884702F019F9042840D1B74815
:10168000006868B9B648006806F0AEF941EC180B7E
:101690009FED9D0B53EC102B05F07CFF994A03C284
:1016A000AE48006801280DD1AD48006806F09CF9ED
:1016B00041EC180B9FED940B53EC102B05F06AFFD7
:1016C000904A03C2A449886B05F0FDFE8D4AC2E929
:1016D00002011046816F8847A249886B05F0F3FE2E
:1016E000944AC2E902011046816F88479E49886B7F
:1016F00005F0E9FE8E4AC2E902011046816F884773
:1017000002F0D4F8012807D002F0D0F8062803D060
:1017100002F0CCF8082828D1914890ED000AB1EEEB
:10172000400A10EE100A06F05FF9764A03C28A49B1
:10173000886B05F0C8FE734AC2E902011046816F4A
:1017400088478849886B05F0BEFE7A4AC2E90201E3
:101750001046816F88478449886B05F0B4FE744A4F
:10176000C2E902011046816F884702F09FF8052800
:1017700023D17B48006806F037F9624A03C27649F4
:10178000886B05F0A0FE5F4AC2E902011046816F36
:1017900088477449886B05F096FE664AC2E90201E3
:1017A0001046816F88477049886B05F08CFE604A4F
:1017B000C2E902011046816F884702F077F80728D6
:1017C00002D002F073F8E8BB4E4890ED021BB0EE79
:1017D000410AF0EE610A9FED5A1B53EC112B51ECBC
:1017E000100B05F09BFE18D8464890ED021BB0EE9A
:1017F000410AF0EE610A9FED5D1B53EC112B51EC99
:10180000100B05F0C5FF08D800200346024601462C
:101810000090584803F006F970E03A4890ED1A1B22
:10182000B0EE410AF0EE610A51EC100B05F01CFE1F
:1018300004B2002003460246214600904D4803F0C2
:10184000F1F85BE0FFE702F031F804282BD13848CB
:1018500090ED1A1BB0EE410AF0EE610A51EC100B4C
:1018600005F002FE04B2334890ED1A1BB0EE410AB7
:10187000F0EE610A51EC100B05F0F6FD05B22148BF
:1018800090ED1A1BB0EE410AF0EE610A51EC100B1C
:1018900005F0EAFD06B22B46002231463548009499
:1018A00003F0C0F82AE0224890ED1A1BB0EE410A7E
:1018B000F0EE610A51EC100B05F0D6FD04B21D48A4
:1018C00090ED1A1BB0EE410AF0EE610A51EC100BDC
:1018D00005F0CAFD05B20B4890ED1A1BB0EE410AA7
:1018E000F0EE610A51EC100B05F0BEFD06B22B467E
:1018F000002231461F48009403F094F802B0BDEC7A
:101900000C8B70BD680200209A9999999999B9BF7A
:10191000000000000000F03F0000000000005940FF
:1019200000000000000000000000000000004E4029
:101930003004002098030020000000000000E03F79
:1019400000000000000024400000000000004440AF
:101950000000000000001440A012002074010020CC
:10196000480B002050130020A813002000000000A6
:10197000000024C00064004010B504466C480068B4
:10198000401C6B4908602068702863D00EDC40283A
:101990005DD006DC302857D0312856D0322873D19C
:1019A00054E0502854D06028F9D152E0A0F2012030
:1019B000072869D2DFE800F00415263784B84F0005
:1019C00001205C4908705A480068322804D8214632
:1019D000594801F061FF03E02146574802F0B0F892
:1019E000A3E001205349087051480068322804D808
:1019F0002146524801F050FF03E021464F4802F0D3
:101A00009FF892E001204B4908704948006832284D
:101A100004D821464A4801F03FFF03E021464848E8
:101A200002F08EF881E001204249087040480068C9
:101A3000322804D82146434801F02EFF03E0214616
:101A4000404802F07DF870E06FE06EE06DE06CE021
:101A50006BE06AE069E036480068322826D2214609
:101A6000394801F019FF384840693849B1F9001088
:101A7000401AB0F5805F08DD3448008800F500505A
:101A800000B2324908801AE04EE02F4840692F49E1
:101A9000B1F90010401A10F5805F10DA2B48008869
:101AA000A0F5005000B22949088008E02748B0F9A5
:101AB0000000254948612146234802F0E7F834E058
:101AC0001B480068322825D22146214801F0E4FE57
:101AD0001F4840691F49B1F90010401AB0F5805FF6
:101AE00007DD1C48008800F5005000B21949088045
:101AF00019E0174840691749B1F90010401A10F56C
:101B0000805F10DA13480088A0F5005000B2114938
:101B1000088008E00F48B0F900000D4948612146EF
:101B20000B4802F0B3F800E000BF00BF10BD00009A
:101B3000F80B0020840B0020A0120020F8120020D7
:101B400050130020A813002000140020FE0B0020DA
:101B500058140020FC0B002010B5044627480068EC
:101B6000401C264908602068A0F2062078B10128B0
:101B700041D108460068322804D82146204801F0A7
:101B80008BFE03E021461E4801F054FF34E01B4861
:101B90000068322825D221461A4801F07DFE1948F6
:101BA00040691949B1F90010401AB0F5805F07DDAE
:101BB0001548008800F5005000B21349088019E06C
:101BC000104840691049B1F90010401A10F5805FC3
:101BD00010DA0D480088A0F5005000B20A490880CC
:101BE00008E00948B0F90000064948612146054867
:101BF00001F020FF00E000BF00BF10BDF80B002087
:101C000008150020B0140020000C002010B52DEDA8
:101C1000048B01F04BFE012807D001F047FE042899
:101C200003D001F043FE08287DD1884800780128C0
:101C30002ED18748008801282AD18648007810B123
:101C4000012824D111E09FED840A844880ED000A28
:101C500083480068401C82490860824800688249C5
:101C6000086000207A49088011E09FED800A7B48D7
:101C700080ED000A7B480068401C7A49086078487B
:101C800000687B49086000207149088000BF00BFE0
:101C90006E4800780128C7D17048006805F0A4FE9E
:101CA00041EC190B734890ED101BB0EE410AF0EEB9
:101CB000610A53EC102B51EC190B05F0ABFD41EC14
:101CC000180B05F0D1FB041E01DB204600E060424A
:101CD00005281DDA5F48007810B101280CD105E015
:101CE0009FED5D0A5D4880ED000A05E09FED5F0A0B
:101CF0005A4880ED000A00BF00BF56480078401CDB
:101D00005449087008460078022801DB002008705A
:101D100059480068401C5849086058480078002815
:101D200001D1574800E08DE090ED000A554880ED64
:101D3000000A08460068401C0860084600685249CE
:101D4000884202DD0120514908605048006890BB7C
:101D50004248006805F048FE41EC180B454890EDFC
:101D6000101BB0EE410AF0EE610A53EC102B51EC5F
:101D7000180B05F00DFD05D29FED450A404880ED9A
:101D8000000A18E03548006805F02EFE41EC180BFB
:101D9000384890ED101BB0EE410AF0EE610A53ECAA
:101DA000102B51EC180B05F0B9FB04D29FED390A4A
:101DB000334880ED000A35480068012832D12748B1
:101DC000006805F011FE41EC180B2A4890ED101B3D
:101DD000B0EE410AF0EE610A53EC102B51EC180BF7
:101DE00005F0D6FC05D29FED2A0A254880ED000AB1
:101DF00018E01A48006805F0F7FD41EC180B1D4883
:101E000090ED101BB0EE410AF0EE610A53EC102B7E
:101E100051EC180B05F082FB04D29FED1E0A184806
:101E200080ED000A174890ED000A1548D0ED000A31
:101E300020EE200AB5EEC00AF1EE10FA02D201201F
:101E40000E490870BDEC048B10BD0000840B00200F
:101E5000B6010020610100200000FA44340B00208C
:101E600090010020980100209C0100200000FAC48D
:101E700094010020A0120020780100204E010020D3
:101E80003C0B0020380B0020F049020074010020B8
:101E9000000048C30000484310B52DED088B01F049
:101EA00005FD05287CD1FC4800680128FAD1FB48D3
:101EB0000068012804D19FEDFA0AFA4880ED000A73
:101EC000F648006800286CD1F7480088012818D12E
:101ED000F648007810B1012812D108E09FEDF40A0D
:101EE000F04880ED000A0020EF49088008E09FEDEF
:101EF000EC0AEC4880ED000A0020EB49088000BFA6
:101F000000BFE848006805F06FFD41EC1A0BE94896
:101F100090ED101BB0EE410AF0EE610A53EC102B6D
:101F200051EC1A0B05F076FC41EC190BB0EE490AA6
:101F3000F0EE690A04F02CFBB0EE408AF0EE608A05
:101F400051EC180B05F090FADB490860D5480068A1
:101F500005F04AFD41EC1A0BD64890ED101BB0EE8F
:101F6000410AF0EE610A53EC102B51EC1A0B05F00C
:101F700051FC41EC190BB0EE490AF0EE690A04F08D
:101F800007FBB0EE408AF0EE608A9FEDCC0B53EC7D
:101F9000102B51EC180B05F0C1FA03D2012402E01A
:101FA00081E03FE00024BF48006805F01DFD41ECE2
:101FB000190BC04890ED101BB0EE410AF0EE610A1B
:101FC00053EC102B51EC190B05F024FC41EC180BD1
:101FD0009FEDBC0B53EC102B05F0DAFB01D2012076
:101FE00000E000200440ECB1B048007810B10128B6
:101FF0000CD105E09FEDAE0AAA4880ED000A05E08D
:102000009FEDA70AA74880ED000A00BF00BFA748C0
:102010000078401CA549087008460078022801DBBA
:1020200000200870A9480078E8BBA94890ED000A94
:10203000A84880ED000A99480068012804D19FED66
:10204000A60AA34880ED000A9448006860BB954842
:10205000006805F0C9FC41EC180B964890ED101B88
:10206000B0EE410AF0EE610A53EC102B51EC180B64
:1020700005F054FA05D29FED980A954880ED000AC4
:102080001BE08848006805F0AFFC41EC180B89485C
:1020900090ED101BB0EE410AF0EE610A53EC102BEC
:1020A00051EC180B01E018E007E005F071FB04D2D9
:1020B0009FED8A0A864880ED000A864890ED000A66
:1020C0008348D0ED000A20EE200AB5EEC00AF1EEFA
:1020D00010FA02D201207D49087001F0E7FB0528C3
:1020E0007DD16D4800680028FAD17D48006801283C
:1020F0006DD10024641C002C65DB0A2C63DC69486C
:10210000006805F071FC41EC1A0B6A4890ED101B59
:10211000B0EE410AF0EE610A53EC102B51EC1A0BB1
:1021200005F078FB41EC190BB0EE490AF0EE690AB4
:1021300004F02EFAB0EE408AF0EE608A9FED690B53
:1021400053EC102B51EC180B05F0E8F908D2554868
:1021500090ED000A80ED000A01206449086032E039
:102160005048006805F040FC41EC1B0B514890EDD5
:10217000101BB0EE410AF0EE610A53EC102B51EC4B
:102180001B0B05F047FB41EC1A0B9FED590B53EC71
:10219000102B05F0FFF941EC190B464890ED101B90
:1021A000B0EE410AF0EE610A53EC102B51EC190B22
:1021B00004F00AFF41EC180B04F0D4FE3949086022
:1021C00001204A49086000204549086000BF444892
:1021D0000068022838D104F033FB474800E0B5E03E
:1021E000B0F9000000EE100AB8EEC00A2D4880EDEC
:1021F000000A2E48007810B1012821D10FE03E4995
:10220000B1F90000002801DB014600E0414200EE88
:10221000101AB8EEC00A234981ED000A10E03649D1
:10222000B1F90000002801DB014600E041424942CB
:1022300000EE101AB8EEC00A1A4981ED000A00BF7C
:1022400000BF0020264908602C48007801287DD175
:102250002648006801287AD113480088012864D1F3
:1022600004F0EEFA1148007810B101285CD147E083
:102270002149B1F90000002801DB014600E041429C
:1022800000EE101AB8EEC00A064981ED000A0020DF
:102290000549088048E00000BC0B0020C80B002066
:1022A00000401CC6340B0020B60100206101002054
:1022B00000401C46A01200203C010020000000004D
:1022C0000000144000000000000014C04E01002077
:1022D0003C0B0020380B0020000048C4000048449C
:1022E000340100200000000000007940240100209B
:1022F0007B14AE47E17A743F2A010020840B002052
:10230000FD49B1F90000002801DB014600E041422F
:10231000494200EE101AB8EEC00AF84981ED000AF1
:102320000020F749088000BF00BFF64800887828E1
:1023300077DBF5480068012873D1F448006841F262
:10234000883188423ED2F248006801E0FEE16AE14D
:10235000522803D0EE4800684C2815D1ED4800689B
:10236000012811D1EC48007810B1012808D103E010
:102370000220EA49086003E00120E849086000BF44
:1023800000BF0020E1490860E5480068522803D0FA
:10239000E34800684C2815D1DE480068012811D1B7
:1023A000DD48007810B1012808D103E00120DB49A5
:1023B000086003E00220D949086000BF00BF002088
:1023C000D2490860D148006841F28831884201D979
:1023D000012000E00020CD490968B1F57A5F01D203
:1023E000012100E000210840D8B1C9480068522806
:1023F00002D10220C9490860C54800684C2802D1B2
:102400000120C6490860C6480068522802D1012050
:10241000C2490860C24800684C2802D10220BF4966
:102420000860B848008878285FDABE4800686428E9
:102430003BD8B7480068522803D0B54800684C28FC
:1024400015D1B4480068012811D1B348007810B103
:10245000012808D103E00220B049086003E0012010
:10246000AE49086000BF00BF0020A8490860AC4822
:102470000068522803D0AA4800684C2815D1A54806
:102480000068012811D1A448007810B1012808D1B2
:1024900003E00120A149086003E002209F49086091
:1024A00000BF00BF0020994908609E48006864286A
:1024B0001BD997480068522802D10220974908602A
:1024C000934800684C2802D1012094490860944840
:1024D0000068522802D101209049086090480068A5
:1024E0004C2802D102208D4908608448006805F01C
:1024F0007BFA41EC1A0B8C4890ED101BB0EE410AB0
:10250000F0EE610A53EC102B51EC1A0B05F082F936
:1025100041EC190BB0EE490AF0EE690A04F038F804
:10252000B0EE408AF0EE608A1FED9C0B53EC102B4E
:1025300051EC180B04F0F2FF75D27248008878282D
:1025400042DB7248006841F2883188423CD27748C9
:10255000006858B904F074F96748B0F9000000EE5B
:10256000100AB8EEC00A654880ED000A6F4800689E
:10257000012829D104F064F96748007810B10128D6
:1025800021D10FE05C49B1F90000002801DB0146D0
:1025900000E0414200EE101AB8EEC00A574981ED42
:1025A000000A10E05449B1F90000002801DB01469F
:1025B00000E04142494200EE101AB8EEC00A4F490D
:1025C00081ED000A00BF00BF4E48008878283DDA40
:1025D0005748006801280BD104F032F94648B0F999
:1025E000000000EE100AB8EEC00A444880ED000A70
:1025F0004F480068B8B904F023F94748007810B193
:10260000012822D110E03C49B1F90000002801DB8B
:10261000014600E0414200EE101AB8EEC00A374908
:1026200081ED000A11E011E03349B1F90000002802
:1026300001DB014600E04142494200EE101AB8EECB
:10264000C00A2E4981ED000A00BF00BF394800785A
:1026500000287BD1384890ED000A384880ED000A08
:102660002648006805F0C0F941EC180B2E4890EDA3
:10267000101BB0EE410AF0EE610A53EC102B51EC46
:10268000180B04F04BFF73D21C48006805F0ACF93E
:1026900041EC1A0B244890ED101BB0EE410AF0EE0D
:1026A000610A53EC102B51EC1A0B05F0B3F841EC16
:1026B000190BB0EE490AF0EE690A03F069FFB0EEBB
:1026C000408AF0EE608A9FED1E0B53EC102B51EC0C
:1026D000180B05F05DF844D20A48008878280ADB18
:1026E0000A48006841F28831884204D89FED160AF2
:1026F000114880ED000A2AE02A010020340B002056
:10270000B6010020060C0020B80B0020940B00201E
:102710005000002024010020610100203801002029
:1027200054000020980B0020A0120020300100204F
:10273000340100204E0100203C0B0020380B00200B
:102740000000000000407F4000803BC457E1AD48DE
:102750000088782866DA9FEDAC0AAC4880ED000A64
:1027600060E09FEDAB0AA94880ED000A5AE0FFE760
:10277000A848006805F038F941EC180BA64890ED20
:10278000101BB0EE410AF0EE610A53EC102B51EC35
:10279000180B04F0FDFF45D29E48006805F024F9AF
:1027A00041EC1A0B9C4890ED101BB0EE410AF0EE84
:1027B000610A53EC102B51EC1A0B05F02BF841EC8D
:1027C000190BB0EE490AF0EE690A03F0E1FEB0EE33
:1027D000408AF0EE608A1FED260B53EC102B51EC73
:1027E000180B04F0D5FF18D28648008878280ADB39
:1027F0008A48006841F28831884204D89FED880AEF
:10280000824880ED000A7F48008878280ADA9FED28
:10281000850A7E4880ED000A04E09FED830A7B482C
:1028200080ED000A794890ED000A8048D0ED000A5A
:1028300030EE600A10EE101A084605F0D5F841ECAB
:10284000190BB0EE490AF0EE690A03F0A1FEB0EEF2
:10285000408AF0EE608A9FED760B53EC102B51EC22
:10286000180B04F095FF73D2704890ED000A67488A
:10287000D0ED000A20EE200AB5EEC00AF1EE10FA03
:1028800066DD6A4890ED000A6B4880ED000A5F48FB
:1028900090ED000A694880ED000A6448006805F080
:1028A000A3F841EC1A0BB0EE4A0AF0EE6A0A03F004
:1028B0006FFEB0EE408AF0EE608A5448006805F082
:1028C00093F841EC1A0BB0EE4A0AF0EE6A0A03F0F4
:1028D0005FFEB0EE409AF0EE609A53EC182B51EC8C
:1028E000190B04F055FF06D20120554908705548D0
:1028F000816988472CE04D48006805F075F841EC87
:102900001A0BB0EE4A0AF0EE6A0A03F041FEB0EE8E
:10291000408AF0EE608A3D48006805F065F841ECB9
:102920001A0BB0EE4A0AF0EE6A0A03F031FEB0EE7E
:10293000409AF0EE609A53EC182B51EC190B04F00E
:10294000EDFD05D20120404908703E488169884765
:102950003B48007801281FD13A4801698847374829
:10296000D0ED000A344890ED001A30EEC11AD0EDD7
:10297000000A41EE000A2548C0ED000A314801690D
:102980008847F7EE000AB4EE600AF1EE10FA26D19D
:1029900000202B49087022E02B48007801281ED126
:1029A0002848016988472548D0ED000A224890ED63
:1029B000001A30EEC11AD0ED000A41EE000A1348A9
:1029C000C0ED000A1F4801698847F7EE000AB4EE1F
:1029D000600AF1EE10FA02D100201B49087013487A
:1029E00090ED000A0948D0ED000A20EE200AB5EE6D
:1029F000C00AF1EE10FA02D2012014490870BDECB1
:102A0000088B10BD060C002000002FC43C0B0020DA
:102A1000000016C4340B0020A0120020940B0020EC
:102A200000803B4400002F4400001644380B002077
:102A30000000000000C06240400B0020440B00205A
:102A40004F010020000B0020500100204E0100200B
:102A50000246002002EA01030BB1012000E0002041
:102A60007047000010B51D480068801C1B490860B5
:102A700002F0B6FD02F05AFEFDF7C2FF00F034FA94
:102A800002F05AFF03F02CF900F07CFC00F0B2FADF
:102A900000F0C4FF00F0FCF9FDF772FF02F046F809
:102AA00001F0E6FEFFF7B2F8FFF7F6F900F034FFA9
:102AB000FEF74CFD00F02CFF0949486008464068CD
:102AC0000968401A064988600846806805498842B6
:102AD00002DD00200449087010BD0000180100202C
:102AE0007C0C002020A10700820B002010B50020E4
:102AF000244908602448C16F88472448C16F88472B
:102B00002348C16F88472348C16F88472248C16F57
:102B100088472248C16F88472148C16F88472148AC
:102B2000C16F88472048C16F88472048C16F8847D8
:102B30001F484FF4C871C26990471D488169884792
:102B40001C484FF4FA61C26990471B484FF4FA6180
:102B5000C269904717488169884717488169884743
:102B60009FED160A164880ED000A9FED140A1548DD
:102B700080ED000A144890ED000A124880ED010A29
:102B800010BD000018010020680200200003002092
:102B900098030020300400206005002090060020EB
:102BA00028070020C007002088090020200A0020F4
:102BB000000B0020B80A0020DC0A00200000000002
:102BC000480B0020801100204001002021B1026844
:102BD00042F00102026003E0026822F0010202609A
:102BE00070470000016821F00101016000210160CF
:102BF00041608160C1600161212141614A4988428F
:102C000004D13D21484A103A91608CE04649183180
:102C1000884205D14FF47461434A103A916082E0D2
:102C200041493031884205D14FF474113E4A103A7F
:102C3000916078E03C494831884205D14FF0746199
:102C4000394A103A91606EE037496031884204D1C8
:102C50003649354A103AD16065E0334978318842C7
:102C600004D13349304A103AD1605CE02E499031AA
:102C7000884204D12F492C4A103AD16053E02A49A6
:102C8000A831884205D14FF03D51274A103AD16012
:102C900049E02949884204D13D21274A083A116078
:102CA00041E025491831884205D14FF47461224A28
:102CB000083A116037E020493031884205D14FF49D
:102CC00074111D4A083A11602DE01B4948318842B1
:102CD00005D14FF07461184A083A116023E0164993
:102CE0006031884204D11149134A121F11601AE061
:102CF00011497831884204D10D490F4A121F1160E1
:102D000011E00D499031884204D10A490A4A121F44
:102D1000116008E00849A831884204D14FF03D51C4
:102D2000054A121F11607047106002403D000020EC
:102D3000400F002000003D201064024021B10268D5
:102D400042F48022026003E0026822F480220260E2
:102D5000704722B1036843F40023036003E0036873
:102D600023F400230360016170470146486880B284
:102D70007047014600200A6802F400220AB10120CF
:102D800000E000207047000010B500220268134BDD
:102D90001A40CC680B6823434C6923438C69234356
:102DA000CC6923430C6A23434C6A23438C6A234334
:102DB0004C6B23438C6B23431A430260426922F01D
:102DC0000702D1E90B3423431A4342610B69436084
:102DD0004B6883608B68C36010BD00003F801CF0AF
:102DE0000021016041608160C160016141618161D8
:102DF000C161016241628162C162016341638163B9
:102E00007047704770B50446D4E9000140EA0120DC
:102E1000218940EA0140217B40EA0160206120696C
:102E2000C0F3C7507F3860612069C0F31600A0610D
:102E3000002527E05DB9B0EE000AA16A6069884705
:102E4000F7EE000A20EE200A84ED080A19E0691E58
:102E50004FF480020A41A0691040C5F117010841F2
:102E6000E0616269501BB0EE000AA16A8847D4EDA8
:102E7000080A94ED071AB8EEC11A41EE000AC4ED33
:102E8000080A6D1C182DD5DB94ED080A70BD0000F2
:102E900010B50F48007801280CD10E490988484226
:102EA00004F011FB0C4A03C20A49088804F022FB13
:102EB0000A4A03C20648007848B99FED090B064844
:102EC00080ED000B9FED060B044880ED000B10BD5C
:102ED000CD000020040100209803002030040020D1
:102EE000000000000000000010B59FED300B3148DD
:102EF00080ED080B9FED300B80ED0A0B9FED300B42
:102F000080ED0C0B9FED300B314880ED080B9FEDF1
:102F1000310B80ED0A0B9FED2F0B80ED0C0B2F4832
:102F20000068B0F1FF3F11D010B101282AD11BE099
:102F30009FED280B1F4880ED000B294890ED100BEA
:102F40001C4880ED020B816F88471CE09FED250B2C
:102F5000184880ED000B224890ED100B154880EDCD
:102F6000020B816F88470EE09FED200B114880ED2A
:102F7000000B1B4890ED100B0E4880ED020B816F8B
:102F8000884700E000BF00BF0A4890ED1A0B1048C8
:102F900080ED000B1249886B04F095FA0C4AC2E9E7
:102FA00002011046816F884710BD0000000000003C
:102FB00000003440580800207B14AE47E17A843F7B
:102FC000000000000000F03F00000000000024406E
:102FD000F00800200000000000000000280B002086
:102FE000B014002000000000008046C00000000077
:102FF0000080464010B52DED0C8BC64890ED000AC0
:10300000DFEDC50AB4EEE00AF1EE10FA04D89FED48
:10301000C20A80ED000A0DE0BE4890ED000AF8EE0D
:10302000080AB4EEE00AF1EE10FA03DBB8EE080A83
:1030300080ED000A00F03AFC052805D1B748007879
:10304000012801D1B649086000F030FC052805D1FF
:10305000B248007810B90220B149086000F026FC9F
:1030600004287CD1AF48006804F0BEFC41EC1B0B87
:10307000B0EE4B0AF0EE6B0A03F08AFAB0EE409A1B
:10308000F0EE609AA748006804F0AEFC41EC1A0B21
:1030900053EC192B04F054F841EC180B03F062FFC9
:1030A000A14908609F48006804F09EFC9F4A03C243
:1030B0009F4890ED100B9D4880ED020B90ED022B88
:1030C000B0EE420AF0EE620A90ED002BB0EE421A2A
:1030D000F0EE621A53EC102B51EC110B04F09AFB3A
:1030E00041EC1D0BB0EE4D0AF0EE6D0A03F050FA04
:1030F000B0EE40CAF0EE60CA9FED8E0B53EC102B81
:1031000051EC1C0B04F046FA41EC1B0BB0EE4B0AE1
:10311000F0EE6B0A03F090F8B0EE40AAF0EE60AA71
:103120009FED860B53EC102B51EC1A0B04F066FB51
:1031300041EC190B9FED830B53EC102B04F02AFA92
:1031400041EC180B9FED810B53EC102B03F03CFF6F
:10315000764AC2E908019FED7F0B104600E01AE0B5
:1031600080ED0A0B9FED7D0B80ED0C0B9FED7D0B31
:103170007E4880ED080B9FED790B80ED0A0B9FEDEB
:10318000770B80ED0C0B1046816F8847674890EDF8
:103190001A0B80ED1A0B00F089FB78B100F086FB6A
:1031A00001280BD000F082FB062807D000F07EFB40
:1031B000082803D05A48006802286CD19FED6C0B98
:1031C0005A4880ED080B9FED5D0B80ED0A0B9FEDDB
:1031D000630B80ED0C0B9FED680B644880ED080BD2
:1031E0009FED5E0B80ED0A0B9FED5C0B80ED0C0BF1
:1031F00000F05CFB18B100F059FB072822D19FEDCD
:10320000570B4A4880ED000B5D480169884710EE76
:10321000104A204604F0E8FB41EC180B444890EDBE
:10322000101BB0EE410AF0EE610A53EC102B51EC8A
:10323000180B04F0AFF93D4AC2E902011046816F54
:10324000884728E0334890ED000AB1EE400A10EEBE
:10325000101A084604F0C8FB344A03C24848016902
:10326000884710EE104A204604F0BEFB41EC180BD4
:103270002F4890ED101BB0EE410AF0EE610A53ECBE
:10328000102B51EC180B04F085F9284AC2E9020111
:103290001046816F8847254890ED1A0B334880ED22
:1032A000000B2349886B04F00EF9304AC2E9020191
:1032B0001046816F88472D4890ED1A1BB0EE410AE9
:1032C000F0EE610A03F064F9B0EE409AF0EE609A15
:1032D000264890ED1A1BB0EE410AF0EE610A53EC5D
:1032E000192B51EC100B03F02BFF41EC180B1F486E
:1032F00090ED1A1BB0EE410AF0EE610A53EC102B70
:1033000051EC180B03F060FE184AC2E91A01BDEC3B
:103310000C8B10BD80110020000014C2800B002017
:10332000700B00203C000020680B0020600500208E
:10333000581400209A9999999999B9BF00000000F2
:103340000000F03F000000000000444000000000CA
:10335000000024409A9999999999B93F000000007A
:103360000000000000000000000034409006002033
:1033700000000000000054400000000000003E403B
:10338000B80A002010B52DED0C8B00F08FFA042840
:1033900003D0D848006801287DD1D74890ED000AB5
:1033A000D648D0ED000A30EE600AD54880ED000A1C
:1033B000D0480068D34908600020CE490860CF4853
:1033C000006804F011FB41EC1B0BB0EE4B0AF0EE71
:1033D0006B0A03F0DDF8B0EE409AF0EE609AC74851
:1033E000006804F001FB41EC1A0B53EC192B03F0BD
:1033F000A7FE41EC180B03F0B5FDC3490860C348B4
:1034000090ED000AB1EE400A10EE100A04F0ECFA5A
:10341000BF4A03C2BF4890ED100BBD4880ED020BC0
:1034200090ED022BB0EE420AF0EE620A90ED002B16
:10343000B0EE421AF0EE621A53EC102B51EC110B65
:1034400004F0E8F941EC1D0BB0EE4D0AF0EE6D0A08
:1034500003F09EF8B0EE40CAF0EE60CA9FEDAE0BEE
:1034600053EC102B51EC1C0B04F094F841EC1B0BAB
:10347000B0EE4B0AF0EE6B0A02F0DEFEB0EE40AAB0
:10348000F0EE60AA9FEDA60B53EC102B51EC1A0B3B
:1034900004F0B4F900E06BE041EC190B9FEDA20BD6
:1034A00053EC102B04F076F841EC180B9FEDA00BB9
:1034B00053EC102B03F088FD954AC2E90801104631
:1034C00090ED022BB0EE420AF0EE620A90ED002B76
:1034D000B0EE421AF0EE621A53EC102B51EC110BC5
:1034E00004F098F941EC1B0BB0EE4B0AF0EE6B0ABE
:1034F00003F04EF8B0EE408AF0EE608A9FED860B46
:1035000053EC102B51EC180B04F044F841EC1A0B5F
:10351000B0EE4A0AF0EE6A0A02F08EFEB0EE409A71
:10352000F0EE609A9FED840B53EC102B51EC190BCD
:1035300004F030F8764AC2E90A019FED810B10468B
:1035400080ED0C0B9FED800B814880ED080B9FED0B
:10355000810B80ED0A0B9FED7A0B80ED0C0B104672
:10356000816F8847654890ED000A634880ED000A46
:1035700000F09CF918B100F099F9072827D19FEDC8
:10358000770B634880ED080B9FED760B80ED0A0BFF
:103590009FED760B80ED0C0B9FED6B0B6C4880ED77
:1035A000080B9FED740B80ED0A0B9FED740B80ED03
:1035B0000C0B584890ED100B554880ED000B55480A
:1035C00090ED100B524880ED020B816F884700F0A0
:1035D0006DF9062831D19FED6B0B4D4880ED080B3E
:1035E0009FED5C0B80ED0A0B9FED680B80ED0C0BE3
:1035F0009FED680B564880ED080B9FED5E0B80ED4C
:103600000A0B9FED5A0B80ED0C0B644890ED010AFC
:1036100010EE101A084604F0E7F93D4A03C23D488F
:1036200090ED100B3A4880ED020B5D48007800F0F9
:10363000070010B13648816F884700F037F901283C
:1036400007D000F033F9082803D02A480068022880
:1036500032D1284800682B490860002025490860BD
:103660009FED3E0B2A4880ED080B9FED3A0B80ED55
:103670000A0B9FED400B80ED0C0B9FED460B344881
:1036800080ED080B9FED3B0B80ED0A0B9FED3B0B94
:1036900080ED0C0B414890ED010A10EE101A08461F
:1036A00004F0A2F91A4A03C21A4890ED100B184808
:1036B00080ED020B816F8847154890ED1A1BB0EE24
:1036C000410AF0EE610A9FED371B53EC112B51ECD0
:1036D000100B03F05FFF1E4A03C20E49886B03F014
:1036E000F2FE1B4AC2E902011046816F8847BDEC19
:1036F0000C8B10BD700B0020400000204400002007
:10370000500B0020740B0020600B0020640B002085
:103710002807002000140020333333333333D3BF62
:10372000000000000000F03F0000000000004440E6
:103730000000000000C06240FCA9F1D24D62503F81
:1037400000000000000008400000000000002440CD
:10375000C00700207B14AE47E17A743F00000000F0
:10376000000059407B14AE47E17A843F000000001E
:1037700000001440000000000000000000000000F5
:1037800000000040000000000080564000000000E3
:1037900000002E4000000000000049408011002081
:1037A00018010020000000000000E03FF0B50A46CC
:1037B00000210023002400BF3DE0012505FA01F3AC
:1037C000156805EA03049C4234D105684F000326BE
:1037D000BE40B543056015794E00B54006683543D7
:1037E00005601579012D02D01579022D16D1856855
:1037F0004F000326BE40B543856055794E00B54065
:10380000866835438560456801268E40B54345602E
:10381000456896798E40B6B235434560C5684F001D
:103820000326BE40B543C560D5794E00B540C66895
:103830003543C560491C1029BFD3F0BDF0B5002346
:1038400000244D07ED0E02FA05F3CE1000F120051D
:1038500055F826504E07F70E0F26BE40B543CF1041
:1038600000F1200646F82750CE1000F1200555F84B
:10387000265045EA0304CE1000F1200545F8264005
:10388000F0BD018370474FF6FF71016000210171A7
:1038900041718171C17170470A7BCB7A42EA032280
:1038A0004261426902604269826070470148007863
:1038B000704700007F0B002030B5034613B94FF668
:1038C000FF7030BD09E013F8014B82EA0400C0B27A
:1038D000054D35F8100080EA22220800A1F101010F
:1038E000F1D11046EDE70000FE7C000830B503463C
:1038F00005E013F8010B80EA02040448025D0800A9
:10390000A1F10101F5D1104630BD0000FD7B00089A
:103910004FF08040406A704710B5FFF7C7FF01289D
:103920000BD0FFF7C3FF052807D0FFF7BFFF042820
:1039300003D0FFF7BBFF082852D12A48007801289E
:1039400023D1002028490870284908709FED280AD3
:10395000284880ED000A90ED000AB5EEC00AF1EEAD
:1039600010FA06D89FED220A80ED000A02201D49B8
:103970000870214890ED000A1E48D0ED000A20EEA4
:10398000200A1E4880ED000A2AE016480078022826
:1039900020D1B7EE000A174880ED000A90ED000A2A
:1039A000F7EE000AB4EEE00AF1EE10FA06DBB7EE2D
:1039B000000A80ED000A00200A490870104890EDC6
:1039C000000A0C48D0ED000A20EE200A0B4880EDDA
:1039D000000A05E00A4890ED000A084880ED000A58
:1039E00010BD00004E0100204F01002050010020BA
:1039F000000000002C0B0020380B0020480B00209A
:103A00003C0B002003490988014409B2014A118096
:103A1000704700008C0B002000BFFEE702480078D2
:103A200002490870704700000C01002012010020BC
:103A300000BFFEE72DE9F0412DED088B04460D4651
:103A40000026002720686060287BE97A40EA012090
:103A5000206020686168401AE060E06810F5805FCF
:103A600007DA606B401C6063E06800F50050A061FD
:103A70000DE0E068B0F5805F07DD606B401E6063BD
:103A8000E068A0F50050A06101E0E068A061A269D3
:103A9000207C411C217404F11C0141F82020216884
:103AA000606B01EB4030A060616B4FF4B47201FBBE
:103AB00002F003F008FD9FED1C0B53EC102B03F0FC
:103AC0003FFB41EC180B21686269881A03F0FBFC8C
:103AD0009FED170B53EC102B03F05CFD9FED160BC5
:103AE00053EC102B03F02CFB53EC182B03F06CFA67
:103AF00041EC100B84ED100B207C062801D1002036
:103B00002074002605E004F11C0050F8260007444C
:103B1000761C062EF7DB062097FBF0F0A063BDECC9
:103B2000088BBDE8F081000000000000000042406A
:103B30000000000000002440000000000000C04021
:103B40002DE9F0412DED0A8B04460D460026002795
:103B5000B046002008EE100A20686060287BE97AF1
:103B600040EA0120206020686168401AE060E06857
:103B700010F5805F07DA606B401C6063E06800F559
:103B80000050A0610DE0E068B0F5805F07DD606B7C
:103B9000401E6063E068A0F50050A06101E0E068AD
:103BA000A061A269207C411C217404F11C0141F830
:103BB00020202168606B01EB4030A060616B4FF406
:103BC000B47201FB02F003F07EFC9FED2A0B53EC74
:103BD000102B03F0B5FA41EC190B21686269881AC1
:103BE00003F071FC9FED250B53EC102B03F0D2FC7E
:103BF0009FED240B53EC102B03F0A2FA53EC192B7E
:103C000003F0E2F941EC100B84ED100B207C062848
:103C100001D100202074002605E004F11C0050F8BA
:103C200026000744761C062EF7DBA97B687B41EA59
:103C300000200FFA80F8404603F045FC41EC1A0BD7
:103C40009FED0C0B53EC102B03F07AFA41EC190B9F
:103C500003F00AFCA063297CE87B41EA002000B263
:103C600008EE100AB8EEC80A84ED140ABDEC0A8BFF
:103C7000BDE8F081000000000000334028AFA1BC87
:103C800086F23240000000000000C0402DE9F047FD
:103C90002DED088B04460D460026B14600BF00BF3F
:103CA00020686060287BE97A40EA01202060206873
:103CB0006168401AE060E06810F5805F07DA606BC9
:103CC000401C6063E06800F50050A0610DE0E06812
:103CD000B0F5805F07DD606B401E6063E068A0F5B3
:103CE0000050A06101E0E068A061A269207C411C55
:103CF000217404F11C0141F820202168606B01EB64
:103D00004030A060616B4FF4B47201FB02F003F02D
:103D1000DAFB41EC180B21686269881A03F0D3FBC7
:103D20009FED290B53EC102B03F034FC9FED280B77
:103D300053EC102B03F004FA53EC182B03F044F966
:103D400041EC100B84ED100B21686269881A03F0B6
:103D5000BAFB9FED1D0B53EC102B03F01BFC9FEDEA
:103D60001C0B53EC102B03F0EBF941EC100B84ED22
:103D7000120B207C062801D100202074002605E0CB
:103D800004F11C0050F826008144761C062EF7DB57
:103D9000A97B687B41EA00284FF4B47018FB00F05F
:103DA0003C2190FBF1F0A063297CE87B41EA0020F4
:103DB00007B200EE107AB8EEC00A84ED140ABDEC2A
:103DC000088BBDE8F087000000000000008076400E
:103DD000000000000000C0407047000070B50021E6
:103DE00000230F22C4781CB3174C246804F4E06449
:103DF000C4F5E064C4F30721C1F10404E3B20A414D
:103E000044789C40E1B28478144021430C07210E91
:103E10000E4C05786155047804F01F050124AC4070
:103E200005786D11AD0005F1E025C5F8004109E008
:103E3000047804F01F050124AC40054D0678761186
:103E400045F8264070BD00000CED00E000E400E005
:103E500080E100E002490143024A1160704700001E
:103E60000000FA050CED00E010B52DED028B0446C4
:103E700094ED022BB0EE420AF0EE620A94ED002BB4
:103E8000B0EE421AF0EE621A53EC102B51EC110B0B
:103E900003F0C0FCC4E9040194ED222BB0EE420A09
:103EA000F0EE620A94ED042BB0EE421AF0EE621AC4
:103EB00053EC102B51EC110B03F06AFC16D994ED66
:103EC000221BB0EE410AF0EE610A51EC100B03F038
:103ED0003DF841EC180B94ED041BB0EE410AF0EEF6
:103EE000610A53EC102B03F053FC7DD294ED042BAC
:103EF000B0EE420AF0EE620A94ED082BB0EE421AE0
:103F0000F0EE621A53EC102B51EC110B03F042FB54
:103F1000C4E90E0194ED141BB0EE410AF0EE610A03
:103F200051EC100B03F012F841EC180B94ED0E1B42
:103F3000B0EE410AF0EE610A53EC102B03F028FCBE
:103F40000CD894ED141BB0EE410AF0EE610A51EC6E
:103F5000100B02F0FBFFC4E90E0116E094ED142BE8
:103F6000B0EE420AF0EE620A94ED0E2BB0EE421A69
:103F7000F0EE621A53EC102B51EC110B03F008FC1D
:103F800003D894ED140B84ED0E0B94ED042BB0EEDE
:103F9000420AF0EE620A94ED0A2BB0EE421AF0EEFD
:103FA000621A53EC102B51EC110B03F0F3FA41ECB5
:103FB000180B94ED101BB0EE410AF0EE610A53ECC1
:103FC000102B03F001F8C4E9100194ED161BB0EEBC
:103FD000410AF0EE610A51EC100B02F0B7FF41EC20
:103FE000180B94ED101B00E0D5E0B0EE410AF0EEA6
:103FF000610A53EC102B03F0CBFB0CD894ED161B8D
:10400000B0EE410AF0EE610A51EC100B02F09EFF97
:10401000C4E9100116E094ED162BB0EE420AF0EE62
:10402000620A94ED102BB0EE421AF0EE621A53ECD5
:10403000102B51EC110B03F0ABFB03D894ED160BD6
:1040400084ED100B94ED241BB0EE410AF0EE610AF2
:104050009FED741B53EC112B51EC100B03F0C8F9BE
:104060001ED194ED062BB0EE420AF0EE620A94EDFA
:10407000042BB0EE421AF0EE621A53EC102B51EC06
:10408000110B03F087FA41EC180B9FED680B53EC12
:10409000102B03F043FA03D29FED640B84ED100B59
:1040A00094ED062BB0EE420AF0EE620A94ED042B7A
:1040B000B0EE421AF0EE621A53EC102B51EC110BD9
:1040C00003F0A8FB41EC180B94ED0C1BB0EE410A79
:1040D000F0EE610A53EC102B03F05CFAC4E9120114
:1040E00094ED181BB0EE410AF0EE610A51EC100B92
:1040F00002F02CFF41EC180B94ED121BB0EE410ABC
:10410000F0EE610A53EC102B03F042FB0CD894ED57
:10411000181BB0EE410AF0EE610A51EC100B02F0F0
:1041200015FFC4E9120116E094ED182BB0EE420A17
:10413000F0EE620A94ED122BB0EE421AF0EE621A23
:1041400053EC102B51EC110B03F022FB03D894ED30
:10415000180B84ED120B94ED102BB0EE420AF0EE2A
:10416000620A94ED0E2BB0EE421AF0EE621A53EC96
:10417000102B51EC110B02F027FF41EC180B94EDC2
:10418000121BB0EE410AF0EE610A53EC102B02F064
:104190001BFFC4E9200194ED200B84ED1A0B94ED74
:1041A0001C1BB0EE410AF0EE610A51EC100B02F05C
:1041B000CDFE41EC180B94ED1A1BB0EE410AF0EE67
:1041C000610A53EC102B03F0E3FA0CD894ED1C1B9E
:1041D000B0EE410AF0EE610A51EC100B02F0B6FEAF
:1041E000C4E91A0116E094ED1C2BB0EE420AF0EE81
:1041F000620A94ED1A2BB0EE421AF0EE621A53ECFA
:10420000102B51EC110B03F0C3FA03D894ED1C0BE7
:1042100084ED1A0B94ED040B84ED060BBDEC028BC0
:1042200010BD0000000000000000F03F0000000092
:10423000000000009FED120B80ED000B9FED100BB6
:1042400080ED020B9FED0E0B80ED040B9FED0C0B30
:1042500080ED060B9FED0A0B80ED0E0B9FED080B1A
:1042600080ED100B9FED060B80ED120B9FED040B04
:1042700080ED200B9FED020B80ED1A0B70470000C4
:1042800000000000000000002DE9F0412DED048B3E
:104290000546C5F3C750A0F17F07C5F316080024F3
:1042A00035E07CB938469FED1E0B02F07DF9B0EE8B
:1042B000409AF0EE609A51EC190B02F053FE08EEB2
:1042C000100A23E0601E4FF4800141FA00F000EA7A
:1042D0000800C4F1170140FA01F6381B9FED100BDE
:1042E00002F062F9B0EE409AF0EE609A51EC190BD0
:1042F00002F038FE00EE900A00EE106AB8EEC01A26
:10430000B0EE480A01EE200AB0EE408A641C182C78
:10431000C7DBB0EE480ABDEC048BBDE8F0810000BD
:10432000000000000000F03F7047000000B587B0BB
:104330000121080200F03EF80121042000F03AF8C3
:104340004020019000208DF808008DF80A0001201F
:104350008DF80B0003208DF8090001A91348FFF721
:1043600025FA8020059000208DF818008DF81A009D
:1043700001208DF81B0003208DF8190005A90C48B9
:10438000FFF714FA4020039000208DF810008DF8FC
:10439000120001208DF8130003208DF8110003A9ED
:1043A0000348FFF703FA07B000BD00000008024011
:1043B0000020024029B1064A12680243044B1A60E9
:1043C00004E0034A12688243014B1A607047000000
:1043D0003038024029B1064A12680243044B1A6081
:1043E00004E0034A12688243014B1A6070470000E0
:1043F0004038024029B1064A12680243044B1A6051
:1044000004E0034A12688243014B1A6070470000BF
:104410002038024029B1064A12680243044B1A6050
:1044200004E0034A12688243014B1A60704700009F
:104430004438024029B1064A12680243044B1A600C
:1044400004E0034A12688243014B1A60704700007F
:1044500024380240F0B50021002200240225002665
:104460000223324F3F6807F00C0121B1042905D027
:10447000082937D105E02E4F076036E02D4F076041
:1044800033E02A4F3F1F3F68C7F38056274F3F1F37
:104490003F6807F03F036EB1264FB7FBF3F7DFF835
:1044A0008CC0ACF1040CDCF800C0CCF3881C07FB1A
:1044B0000CF40CE01E4FB7FBF3F7DFF870C0ACF163
:1044C000040CDCF800C0CCF3881C07FB0CF4174F7D
:1044D0003F1F3F68C7F301477F1C7D00B4FBF5F722
:1044E000076002E0124F076000BF00BF0F4F3F6838
:1044F00007F0F0010909104F7A5C0768D740476060
:104500000A4F3F6807F4E051890A0B4F7A5C47680D
:10451000D7408760054F3F6807F46041490B064F5D
:104520007A5C4768D740C760F0BD00000838024099
:104530000024F400001BB70000000020D0E90012A6
:10454000914211DA0168491C016090ED000AF8EE11
:10455000C00A90ED010AB8EEC00A80EE801A80ED24
:10456000021A90ED020A7047B7EE000AFBE77047A7
:10457000014691ED000AF8EEC00A91ED010AB8EE8D
:10458000C01A80EE810AF7EE000AB4EEE00AF1EEFE
:1045900010FA01DB012070470020FCE700210160D8
:1045A00070470160704741607047000010B52DED05
:1045B000088B044614B9BDEC088B10BDFFF7A8F9B1
:1045C000804908602078617840EA0120C0F30A0041
:1045D0007D4908806078C010A17840EA4110C0F39E
:1045E0000A0079494880A0788011E17840EA81008A
:1045F000217940EA8120C0F30A007349888020793C
:104600004010617940EAC110C0F30A006E49C880C9
:1046100060790011800808726079C0F30110487257
:10462000A079E17940EA012000B267494881207A07
:10463000617A40EA012001B263488181A07AE17A7F
:1046400040EA012001B26048C181217B8174617B15
:10465000C174A07BE17B40EA01205B498882084667
:10466000B0F90200A0F5806000EE100AB8EEC00AB2
:10467000564880ED000AB1F90610A1F5806002F0FD
:1046800022FF41EC1B0B9FED520B53EC102B02F061
:1046900081FF41EC190B504890ED000A10EE101A02
:1046A000084603F0A1F941EC1A0B53EC192B02F068
:1046B0008BFC41EC180B02F055FC4749086042495D
:1046C000B1F90410A1F5806002F0FDFE41EC1B0B76
:1046D0009FED420B53EC102B02F05CFF41EC190BE9
:1046E0003D4890ED010A10EE101A084603F07CF9DF
:1046F00041EC1A0B53EC192B02F066FC41EC180B41
:1047000002F030FC344948602F48407A012802D139
:104710000220344908702C48407A032802D1012035
:10472000304908702848407A022804D100202D49D9
:1047300008702D4908602448407A01283AD122485F
:10474000007A032803D02048007A012802D10120F2
:10475000264908701C48007A022802D1002023490B
:1047600008701948007A012801D1214908601648CB
:10477000007A022803D01448007A032802D10020CE
:104780001B490860104890F9080001280DD0022844
:1047900002D003280DD103E000201349086008E08F
:1047A0004FF0FF301049086003E001200E49086017
:1047B00000BF00BF0448407A032800D100BF00BFFB
:1047C000F9E600007C0C00206A110020480B002054
:1047D000FA7E6ABC7493683F80110020D42B65195F
:1047E000E258673F820B0020280B0020CD000020FC
:1047F0000001002001460C4800680B4A52689042B4
:1048000001D101207047084802680830805C0870B8
:1048100005480068401C044A1060642801DB002041
:1048200010600020EEE700002D1200200E494A68BB
:104830000831885408394968491C0B4A5160642979
:1048400001DB0021516008494968074A126891421A
:1048500008D105490968491C034A1160642901DB34
:1048600000211160704700002D12002070470000E9
:1048700070B5FFF71BF8072816D10022114628480B
:1048800000F0FEF8274890ED1A1BB0EE410AF0EE5A
:10489000610A51EC100B02F0E7FD04B20022214640
:1048A000214800F017F939E0204890ED1A1BB0EECE
:1048B000410AF0EE610A51EC100B02F0D5FD04B292
:1048C0001B4890ED1A1BB0EE410AF0EE610A51EC64
:1048D000100B02F0C9FD05B222462946104800F02F
:1048E000CFF8144890ED1A1BB0EE410AF0EE610AC1
:1048F00051EC100B02F0B8FD04B20A4890ED1A1BFF
:10490000B0EE410AF0EE610A51EC100B02F0ACFD82
:1049100005B222462946044800F0DCF870BD0000CC
:1049200000640040F008002000680040900600206D
:10493000C0070020200A00200CB500200190009044
:104940003448006840F480303249086000BF314884
:10495000006800F4003000900198401C019000981D
:1049600018B90198B0F5A04FF1D12A48006800F4B9
:10497000003010B10120009001E00020009000986C
:10498000012846D123484030006840F0805021493A
:10499000403108602048006840F440401E490860EB
:1049A0001C48083000681B49083108600846006848
:1049B00040F4004008600846006840F4A0500860D9
:1049C0001648091F0860081F006840F08070091F22
:1049D000086000BF0F48006800F000700028F9D0A0
:1049E00040F205700E4908600A480830006820F05F
:1049F00003000849083108600846006840F00200DA
:104A0000086000BF03480830006800F00C00082868
:104A1000F8D10CBD00380240007000400C54400733
:104A2000003C02402DE9F04186B080460C46154618
:104A30001E460C9F4FF40070019000208DF80C0072
:104A40008DF80D0008208DF80E00200A8DF80F005B
:104A50008DF81040290A8DF811108DF81250310A86
:104A60008DF813108DF81460390A8DF815108DF833
:104A7000167001A94046FCF7D6FC06B0BDE8F081EF
:104A800070B586B006460C46154640F2FF10019000
:104A900000208DF80C008DF80D0008208DF80E0018
:104AA000280A8DF80F008DF81050FF218DF8111095
:104AB0008DF81210210A8DF813108DF81440FF2183
:104AC0008DF815108DF8161001A93046FCF7ABFCD7
:104AD00006B070BD70B586B006460C46154640F26D
:104AE000FF10019000208DF80C008DF80D000820BB
:104AF0008DF80E00FF208DF80F00FF218DF81010AB
:104B0000210A8DF811108DF81240290A8DF8131022
:104B10008DF81450FF218DF815108DF8161001A98D
:104B20003046FCF780FC06B070BD000010B59FED6C
:104B30002D0B2E4880ED080B9FED2A0B80ED0A0B04
:104B40009FED280B80ED0C0B9FED290B2A4880ED83
:104B5000080B9FED240B80ED0A0B9FED220B80EDDF
:104B60000C0B26480068012816D12549B1F9001020
:104B7000C1EB0111880002F0A6FC1C4A03C22148C7
:104B800090ED100B194880ED020B816F88479FED67
:104B90001E0B194880ED000B1A4880690A2804DAB8
:104BA0009FED1B0B144880ED000B1648806910F137
:104BB000050F04DA9FED140B0F4880ED000B0F4832
:104BC000006820B99FED070B0B4880ED000B0D49E5
:104BD000886B02F078FC084AC2E902011046816F36
:104BE000884710BD00000000000000008809002078
:104BF0000000000000004E40200A002000010020BC
:104C00007C0B0020081500200000000000406F40D1
:104C10000000000000407FC07047000010B515483C
:104C2000006840F47000134908601348006840F0C1
:104C300001001149086000200F49083108600E4842
:104C400000680E4908400C4908600D48091D0860BD
:104C5000081F006820F48020091F08600020064912
:104C60000C310860FFF768FE4FF0006001498039A1
:104C7000086010BD88ED00E000380240FFFFF6FE3E
:104C8000103000240EB501210846FFF7A3FB4FF0BA
:104C9000FF3001905320ADF800000020ADF808006F
:104CA000ADF8020069464FF0804000F0A3F8012102
:104CB000880700F067F80121880700F075F80EBD3D
:104CC00010B50121880700F07BF838B10121880771
:104CD00000F067F80121880700F060F810BD0000BF
:104CE0000EB501211020FFF775FB5320ADF8000031
:104CF0000020ADF80200ADF808004FF4FA60019012
:104D00006946094800F076F836208DF80800002042
:104D10008DF809008DF80A0001208DF80B0002A81B
:104D2000FFF75CF80EBD00000010004010B5012137
:104D3000094800F045F870B10121074800F031F84A
:104D40000121054800F02AF8FDF78CFE03480068B1
:104D5000401C0249086010BD001000401C000020EB
:104D600010B50121064800F01FF801221146044841
:104D700000F037F80121024800F010F810BD0000E3
:104D80000010004021B1028842F08002028004E05D
:104D900002884FF67F731A4002807047CA4302822E
:104DA0007047CA430282704721B1028842F0010273
:104DB000028004E002884FF6FE731A4002807047BA
:104DC00030B50246002000230024158A05EA0103BD
:104DD000958905EA010413B10CB1012000E000201F
:104DE00030BD1AB183890B43838102E083898B43F1
:104DF0008381704700220288184B98420ED0184BCE
:104E000098420BD0B0F1804F08D0164B984205D095
:104E1000154B984202D0154B984204D14FF68F7330
:104E20001A404B881A43124B984207D0114B9842B4
:104E300004D04FF6FF431A400B891A4302804B6897
:104E4000C3620B880385054B984202D0044B9842FD
:104E500001D18B7A038601238382704700000140D1
:104E6000000401400004004000080040000C004025
:104E700000100040001400402DE9F04106460F46A6
:104E80004FF00108002002EE100A0025002419E06E
:104E900008FA04F03040204102EE100A2046B0EE3D
:104EA000000A01F0D5FEF0EE400A00EE105AB8EE0E
:104EB000C00AB8EEC21A01EE200ABDEEC00A10EE1A
:104EC000105A641CBC42E3DB2846BDE8F0810000B8
:104ED00000B58FB001210420FFF76CFA01214805CD
:104EE000FFF768FA01218804FFF774FA07220B2103
:104EF0004348FEF7A3FC0DA8FEF7C5FC4FF4006085
:104F00000D9002208DF8380000208DF83900012026
:104F10008DF83B000DA93A48FEF748FC394800F0EF
:104F20001FFA09A800F04EFB374809900020ADF8A1
:104F30002800ADF82A004FF48060ADF82C00042062
:104F4000ADF82E000020ADF8300009A92D4800F082
:104F5000CFFA012240212B4800F0F8F9012240F25B
:104F60002441284800F09EFA0121264800F0E2F989
:104F70002648FDF737FE6846FDF732FF4FF0006028
:104F800000902048001D01902148029000200390CD
:104F90001E200490002005904FF4806006900020B1
:104FA000079008904FF48070099000020A9000204A
:104FB0000B900C900D900E9069461448FDF7E4FE9E
:104FC000002213491E311148FDF7C3FE01210F488D
:104FD000FDF7B4FE01210D48FDF7F8FD27208DF8FF
:104FE000380001208DF8390002208DF83A000120A8
:104FF0008DF83B000EA8FEF7F1FE0FB000BD0000DB
:105000000008024000480040A086010028600240DD
:105010000C0C002010B540F22441274800F018FA8B
:10502000002848D0244800882348001D00882348D1
:10503000FDF79FFEF8B900212048FDF7C7FD1F4886
:10504000FDF793FEC0F11E001D4908601E201B499C
:105050002839C8620846806A40F40020886201212D
:105060001648FDF7B3FD16480068122823D11548ED
:10507000FFF79CFA1FE000211048FDF7A7FD0F483D
:10508000FDF773FEC0F11E000D4908601E200B499C
:105090002839C8620846806A20F40020886201210D
:1050A0000648FDF793FD06480068122803D105481D
:1050B0001E30FFF77BFA10BD004800402860024018
:1050C000180000200C0C002070B540F224418C48E0
:1050D00000F0BEF9002871D0894800888848001D7A
:1050E00000888848FDF745FE20BB00218548FDF774
:1050F0006DFD8448FDF739FEC0F164008249086007
:1051000064208049091D0860081F006840F40020E1
:10511000091F086001217B48FDF758FD002404E0C9
:105120007A49085DFFF782FB641C77480068844277
:10513000F6D324E000217348FDF748FD7148FDF7E0
:1051400014FEC0F164007049086064206D49091DB7
:105150000860081F006820F40020091F0860012172
:105160006848FDF733FD002405E068496431085DB7
:10517000FFF75CFB641C644800688442F5D3B5E02B
:105180006348406862490968401A03D400206149B5
:10519000088002E064205F4908805D48006860285C
:1051A00007DB5B480068632803DC64205A490880F9
:1051B00002E0002058490880002505E09EE057499C
:1051C0004819FFF717FB6D1C052DF8DB53480079D4
:1051D00053490870FF2204215048FEF787FB5149CC
:1051E00008704F480078097888427FD14B48407852
:1051F0004A49897840EA01204B49088010214A48F1
:105200000088FFF739FE4849088041484068414915
:10521000098801443E4800683F4A12881044401FF4
:10522000091A414800880930814256DB002505E013
:105230003A49491D4819FFF7DDFA6D1C3A480088C4
:10524000001D8542F4DB38480088C01D3349095CE5
:10525000354800880830314A105C41EA0020334963
:10526000088031480088C11D4FF6FF722B48FEF7B9
:1052700023FB2F4908802D4800880988884235D1B2
:1052800026484079012806D124488079022802D195
:10529000224801F0ABFC21484079062806D11F487E
:1052A0008079022802D11D4801F0A6FB1B484079F5
:1052B000072806D119488079022802D1174801F041
:1052C00045FC16484079022810D1144880790228FC
:1052D0000CD1124801F0AAFB08E00D4800680E4905
:1052E00009880844401F0A49086006E008484068E9
:1052F0000749096888427FF443AF00BF70BD0000D2
:105300000014014040640240C800002084100020C6
:105310002D120020C4000020C60000204C110020E7
:10532000BC000020BD000020C2000020BE00002004
:10533000C000002021B1828942F40052828104E041
:1053400082894DF6FF731A40828170471AB1838AB1
:105350000B43838202E0838A8B4383827047000081
:1053600010B504463248844208D101211020FFF7CD
:1053700061F800211020FFF75DF857E02D488442C6
:1053800009D101214804FFF735F800214FF400301E
:10539000FFF730F84AE02848844209D10121880407
:1053A000FFF728F800214FF48020FFF723F83DE0B5
:1053B0002248844209D10121C804FFF71BF80021CB
:1053C0004FF40020FFF716F830E01D48844209D161
:1053D00001210805FFF70EF800214FF48010FFF7B8
:1053E00009F823E01748844208D101212020FFF763
:1053F00021F800212020FFF71DF817E01248844211
:1054000009D101218807FEF7F5FF00214FF0804008
:10541000FEF7F0FF0AE00D48844207D10121400564
:10542000FEF7E8FF00216005FEF7E4FF10BD000075
:10543000001001400044004000480040004C004083
:10544000005000400014014000780040007C004003
:1054500070B50246002400230025002040F66A169D
:10546000B14200D100BFC1F3421501F01F03012674
:1054700006FA03F3012D02D19689334006E0022D8E
:1054800002D1168A334001E0968A33400C1201267D
:1054900006FA04F41688344013B10CB1012000E080
:1054A000002070BDF0B50346002400260025002032
:1054B00040F66A17B94200D100BF1846C1F3421442
:1054C00001F01F06012707FA06F5012C01D10C3067
:1054D00004E0022C01D1103000E014301AB107684A
:1054E0002F43076002E00768AF430760F0BD00008C
:1054F0002DE9FF4705460E460024A14600BFA04601
:10550000B08900B100BF2C8A24F44054F0880443D1
:105510002C82AC8941F20C608443B0883189084305
:10552000718908430443AC81AC8A24F44074B08987
:105530000443AC826846FEF78DFF2048854202D0C6
:105540001F48854202D1DDF80C9001E0DDF808909B
:10555000A88900F4004040B109EBC90000EB091034
:1055600031684900B0FBF1F707E009EBC90000EB37
:10557000091031688900B0FBF1F76420B7FBF0F047
:1055800004012009642101FB1078A88900F400407F
:1055900040B1322000EBC800B0FBF1F000F0070092
:1055A000044308E0322000EB08106421B0FBF1F066
:1055B00000F00F0004432C81BDE8FF87001001407C
:1055C000001401404FF41651016000218180C18018
:1055D00001810C21418100218181704700BFFEE7DC
:1055E0004B4800784B4908704948007809286FD229
:1055F000DFE800F0050E8B8B5A6F4C833100464874
:105600000068B0F5FA6F02D90120414908707DE0C9
:1056100042480078012802D104203D4908704048E2
:10562000007810B907203A4908703D4800780228F0
:1056300002D10620364908703A480078012802D184
:1056400008203349087038480078012802D1052025
:105650002F4908705AE03348007810B901202C49CE
:1056600008702E480078012802D1042028490870CB
:105670002B48007810B90720254908702A4800787F
:10568000012802D10520224908703FE02448007813
:1056900010B907201E49087020480078012802D15F
:1056A00004201B49087031E01D48007810B907201C
:1056B000174908701948007810B90120144908707A
:1056C00019480078012802D10520114908701DE011
:1056D0001BE01548007810B901200D4908701048EA
:1056E0000078022802D10620094908700C48007889
:1056F00010B907200649087008E009480078012819
:1057000002D100200249087000E000BF00BF7047CE
:105710007F0B00207E0B002018010020800B002052
:10572000820B0020850B0020810B002010B52DED91
:105730000A8B74480078F0B173480078D8B9734880
:1057400090ED101BB0EE410AF0EE610A51EC100B27
:1057500001F008FC6E4908606C4890ED101BB0EE3B
:10576000410AF0EE610A51EC100B01F0FBFB6949B4
:105770000860FDF7BBF96348007880BB6248007899
:1057800001282CD1614890ED101BB0EE410AF0EEDB
:10579000610A51EC100B01F0E5FB5D490860084619
:1057A00090ED000A5C4880ED010A5C4890ED101B0A
:1057B000B0EE410AF0EE610A51EC100B01F0C6FBAD
:1057C00041EC180B01F0CEFB55490860084690EDFE
:1057D000000A514880ED000A0020524908604948FB
:1057E000007804282DD148480078012829D147485D
:1057F00090ED101BB0EE410AF0EE610A51EC100B77
:1058000001F0B0FB42490860084690ED000A4248AA
:1058100080ED010A414890ED101BB0EE410AF0EE18
:10582000610A51EC100B01F091FB41EC180B01F0F7
:1058300099FB3B490860084690ED000A364880ED28
:10584000000A3048007805282BD12F48007801281D
:1058500027D13548006802F0C7F841EC1C0BB0EEC8
:105860004C0AF0EE6C0A00F093FEB0EE40AAF0EEA7
:1058700060AA2D48006802F0B7F841EC1B0B53EC0E
:105880001A2B01F05DFC41EC190B9FED280B53EC3A
:10589000102B01F07FFE41EC180B01F063FB224955
:1058A000086018480078042828D017480078042891
:1058B00024D120481421C26990471E488169884735
:1058C000124890ED101BB0EE410AF0EE610A51EC67
:1058D000100B01F047FB0E490860104890ED101BBB
:1058E000B0EE410AF0EE610A51EC100B01F02EFB14
:1058F00041EC180B01F036FB09490860BDEC0A8B3E
:1059000010BD00007E0B00207F0B00200014002043
:105910004001002048010020801100205814002080
:1059200044010020740B0020340B00200000000014
:105930000088C340DC0A002010B52DED068BFDF772
:10594000B5FF01287ED1CA4890ED101BB0EE410A88
:10595000F0EE610A9FEDC71B53EC112B51EC100BBD
:1059600001F058FF41EC180B9FEDC40B53EC102BCA
:1059700001F00EFF02D80120C2490860BC4890ED3A
:10598000101BB0EE410AF0EE610A9FEDBF1B53EC15
:10599000112B51EC100B01F03DFF41EC180B9FED6A
:1059A000B70B53EC102B01F0B9FD02D80020B5491C
:1059B0000860B4480068012808D1B54890ED000A95
:1059C000DFEDB40A30EE200A80ED000AAD48006831
:1059D00040B9AF4890ED000ADFEDAE0A30EE600A44
:1059E00080ED000AAC48006860BBAC4890ED101B2D
:1059F000B0EE410AF0EE610AA94890ED001B53ECAD
:105A0000112B51EC100B01F005FF41EC180B9FED31
:105A10009B0B53EC102B01F0BBFE02D80120A149D7
:105A200008609E4890ED101BB0EE410AF0EE610A4E
:105A30009D4890ED001B53EC112B51EC100B01F025
:105A4000C3FA00E024E041EC180B9FED8C0B53EC03
:105A5000102B01F063FD02D80020924908609148A4
:105A60000068012808D18A4890ED010ADFED8F0A0D
:105A700030EE600A80ED010A8A48006840B9844827
:105A800090ED010ADFED890A30EE200A80ED010A6F
:105A9000FDF70CFF08287CD185480068401C84492C
:105AA00008600846006841F28831884204DD002021
:105AB0007F4908607F4908706D4890ED101BB0EE7B
:105AC000410AF0EE610A9FED7C1B53EC112B51EC67
:105AD000100B01F09FFE41EC180B9FED680B53EC8F
