:020000040800F2
:10000000402B0020C50200088D3E0008AD380008D6
:10001000E53A0008C1090008695C0008000000001A
:100020000000000000000000000000003D4A000841
:10003000132D000800000000DD430008DD4F00081C
:10004000DF020008DF020008DF020008DF0200080C
:10005000DF020008DF020008DF020008DF020008FC
:10006000DF020008DF020008DF020008DF020008EC
:10007000DF020008DF020008DF020008DF020008DC
:10008000DF020008DF020008DF020008110B000891
:10009000D50A0008DF020008DF020008DF020008BE
:1000A000DF020008DF020008DF020008DF020008AC
:1000B00085500008DF020008DF020008DF020008A8
:1000C000DF020008DF020008DF020008DF0200088C
:1000D000DF0200083D560008DF020008F556000860
:1000E000DF020008DF020008DF020008DF0200086C
:1000F000DF020008DF020008DF020008DF0200085C
:10010000DF020008DF020008DF020008DF0200084B
:10011000DF020008DF020008F1500008DF020008DB
:10012000DF020008DF020008DF020008DF0200082B
:10013000DF020008DF020008DF0200087D0C000873
:10014000410C0008DF020008DF020008DF0200089F
:10015000DF020008DF020008DF020008E1580008A3
:10016000DF020008DF020008DF020008DF020008EB
:10017000DF020008DF020008DF02000800000000C4
:10018000DF020008DF02000895520008DF020008C5
:10019000DF020008DF020008DF020008DF020008BB
:1001A0000000000000000000DF02000800F002F87C
:1001B00000F05EF80AA090E8000C82448344AAF1A3
:1001C0000107DA4501D100F053F8AFF2090EBAE8A1
:1001D0000F0013F0010F18BFFB1A43F0010318477B
:1001E00000810000208100000A444FF0000C10F84C
:1001F000013B13F0070408BF10F8014B1D1108BFA5
:1002000010F8015B641E05D010F8016B641E01F844
:10021000016BF9D113F0080F1EBF10F8014BAD1C94
:100220000C1B09D16D1E58BF01F801CBFAD505E0B2
:1002300014F8016B01F8016B6D1EF9D59142D6D30C
:10024000704700000023002400250026103A28BF34
:1002500078C1FBD8520728BF30C148BF0B60704738
:100260001FB507F0F4FD00F064F81FBD10B510BD18
:1002700000F0B2F81146FFF7F3FF06F0ABFE00F016
:10028000D0F803B4FFF7F2FF03BC06F051FC000006
:100290000B49D1F800C04A685CF8043B1068184468
:1002A00042F8040B8C4528BFA1F1DC0C8A4228BF20
:1002B000A1F1DC02C1F800C04A6020F000407047A4
:1002C000D41500200948804709480047FEE7FEE7AB
:1002D000FEE7FEE7FEE7FEE7FEE7FEE7FEE7FEE7F6
:1002E00004480549054A064B70470000E14F0008E5
:1002F000AD01000840160020402B0020401B0020CC
:10030000401B0020704700000B4910B5A1F17C0292
:100310000A4CC2E93712372106E000EB104342F8DD
:100320002130074B00FB03400B1EA1F10101F4DC5F
:1003300010BD0120E8E7000074150020E119D66621
:10034000CD0D010010B5203AC0F00B80B1E8185077
:10035000203AA0E81850B1E81850A0E81850BFF4AF
:10036000F5AF5FEA027C24BFB1E81850A0E818504E
:1003700044BF18C918C0BDE810405FEA827C24BFA2
:1003800051F8043B40F8043B08BF7047D20728BF30
:1003900031F8023B48BF11F8012B28BF20F8023B7F
:1003A00048BF00F8012B704770477047704770478F
:1003B00010B500F009F8006810BD10B5044600F053
:1003C00003F8046010BD000000487047DC150020F1
:1003D00000487047DC1500207546FFF7F9FFAE4670
:1003E00005006946534620F00700854618B020B541
:1003F000FFF776FFBDE820404FF000064FF0000702
:100400004FF000084FF0000B21F00701AC46ACE8BC
:10041000C009ACE8C009ACE8C009ACE8C0098D4629
:10042000704710B50446AFF300802046BDE8104089
:10043000FFF727BF10B52DED048B70480078704989
:1004400008707048007800287ED16F4890ED101B2E
:10045000B0EE410AF0EE610A51EC100B06F044FFD9
:100460006A490860084690ED000ABDEEC00A10EE29
:10047000100A4FF4B47190FBF1F0654908606348CD
:1004800090ED000ABDEEC00A10EE100A4FF4B471F0
:1004900090FBF1F201FB120000F5B47090FBF1F259
:1004A00001FB120000B25B4908805548007858BB38
:1004B0000846B0F90000F02811DB0846B0F900004A
:1004C000B0F5A87F0BDA52480068C0EB001000EBD3
:1004D00040005A2101EBC0004F49086022E04D481E
:1004E000B0F900009B2810DB4A48B0F90000F02862
:1004F0000BDC47480068C0EB001000EB4000B42163
:1005000001EBC000444908600CE03F4890ED101B2F
:10051000B0EE410AF0EE610A51EC100B07F066F9FB
:100520003D4908603648007801283BD13948B0F988
:100530000000B0F5A77F12DD3648B0F900003C2876
:100540000DDC3348006800E054E0C0EB001000EB25
:1005500040005A21C1EBC0002F49086022E02D481D
:10056000B0F900003C2810DB2A48B0F900009B28B5
:100570000BDC27480068C0EB001000EB4000B42102
:10058000C1EBC000244908600CE01F4890ED101B2F
:10059000B0EE410AF0EE610A51EC100B07F026F9BB
:1005A0001D4908601C48006807F04FF941EC190B21
:1005B000154890ED101BB0EE410AF0EE610A53ECC5
:1005C000102B51EC190B07F0E7FA41EC180B9FEDDB
:1005D000130B53EC102B07F09DFA03D201201149A5
:1005E000087002E002200F4908700F480088401C84
:1005F0000D490880BDEC048B10BD0000900A00205E
:100600000A0B0020F709002068130020A80A002028
:1006100004010020080100200C010020000000005F
:100620000000F03F10010020080B002010B54FF42F
:10063000A06003F069FC04F007FD04F033FD00F056
:10064000C1F900F073FA04F059FF4FF4E13006F0FD
:10065000FBFC05F0A9F84FF4E13006F097FD03F03C
:10066000BFFE10BD7B48007801287DD17A48C08844
:100670007A4908800846008879490988401A7949EA
:10068000086079480088401C00B2774908807548A6
:10069000006810F10A0F0EDC0846B0F9001073482C
:1006A00002680068401C714B1860714820F81210F5
:1006B00001207049086069480088782871DD6B481E
:1006C00000680F2837DB6B480068012833D1674882
:1006D0000068401E664931F91010644800680F3800
:1006E000634A32F91000081A634908605F480068DD
:1006F000401E114631F910105C4800680F3832F97D
:100700001000081A3C2816DA58480068401E1146A6
:1007100031F9101055480068401F32F91000081ACE
:10072000062808DD0020554908600120544908705A
:1007300000205049086053480068401C5149086037
:10074000084600683C280DDA084600680A2809DDDA
:100750004448006810F1640F04DC01204A49086035
:100760004A4908603F4800E072E0006810F1640FF9
:100770000ADC0020414908600120414908704349D2
:10078000086000203F49086041480068401C40491B
:10079000086008460068B0F5967F02DD00203D49FC
:1007A00008602E480088782841DA00203349086024
:1007B0000120334908702B48006810F10A0F0DDC46
:1007C0003548006850B9012030490860002033499D
:1007D00008600120324908602F4908602F480068EE
:1007E000401C2E49086008460068642802D9002091
:1007F0002B49086029480068B0F5967F02D900208F
:10080000254908601748006810F10A0F02DC002033
:100810001F4908601E480068401C1D4908600846C2
:100820000068B0F5967F02DD00201A4908600D4887
:10083000006810F10A0F07DC0A48006810F1140F75
:1008400002DB012017490870044800880449088029
:1008500070470000F60900206E110020060B0020F2
:10086000040B0020640A0020680A00206C0A0020A3
:10087000F6100020700A00208C0A0020540A002084
:10088000F3090020500A0020E40A0020D40A0020C6
:10089000740A0020780A0020600A0020580A00200C
:1008A000E80A0020F709002010B502F043FF0428F1
:1008B00007D002F03FFF062803D002F03BFF0528D7
:1008C00025D113480088B0F5C87F20DA1148007898
:1008D00001281CD102F060FF0F49486008464068BB
:1008E0000968401A0C4988600C4800780C4991FB53
:1008F000F0F009498968884209DA0A480088401CF2
:1009000000B20849088002F047FF0349086010BDA3
:10091000020B0020390A0020290B0020480A002081
:1009200010EB0900E4090020214800881E2819DC8A
:100930002048008820490988081A012805DD1F4839
:1009400000880A381D4908800CE01A4800881A49B6
:100950000988081AB0F1FF3F04DA184800880A3005
:1009600016490880124800881E2820DD114840885A
:1009700011490988081A01280CDD0E4840880E49E3
:100980000988081A032812DA0C4840880A380B49EB
:1009900048800CE00748408807490988081AB0F1E8
:1009A000FF3F04DA054840880A3004494880704710
:1009B0003A0000203E0A0020460A00203A0A0020A1
:1009C00000BFFEE700B589B00121082003F0DAFD81
:1009D0000121480603F0E6FD092200213B4802F010
:1009E00071FE09220121394802F06CFE03200790B4
:1009F00002208DF8200007A9344802F01BFE34487D
:100A000000F0BAF904A800F0F2FB00208DF81600FF
:100A10008DF817008DF818008DF819008DF81A0060
:100A200001208DF81B0000208DF812008DF81300B6
:100A300008208DF8140003208DF81500ADF8100083
:100A400004A9234800F0D1FA00208DF80A008DF89F
:100A50000B0001208DF80C000020ADF80000ADF86F
:100A60000200ADF80400ADF80600ADF80800012062
:100A70008DF80D00684600F09BF901220221144810
:100A800000F0AAFA01221146114800F0A5FA14203C
:100A90008DF8200001208DF821008DF822008DF8BE
:100AA000230008A803F0F4F913208DF8200001209A
:100AB0008DF8210000208DF8220001208DF8230000
:100AC00008A803F0E5F909B000BD0000000C0240E1
:100AD0000064004000B585B002210B4800F0ECF93D
:100AE00078B10221084800F0F3F80849064800F000
:100AF000D3F86A460021044800F001FB684600F084
:100B000033FE05B000BD0000006400400800003264
:100B100010B50121044800F0CFF918B101210248B5
:100B200000F0D6F810BD00000064004000B589B0A8
:100B30000121022003F026FD0121880603F032FD89
:100B400009220C213C4802F0BDFD09220D213A4842
:100B500002F0B8FD4FF44050079002208DF82000BD
:100B600007A9354802F066FD344800F005F904A8ED
:100B700000F03DFB00208DF816008DF817008DF871
:100B800018008DF819008DF81A0001208DF81B004F
:100B900000208DF812008DF8130008208DF8140045
:100BA00003208DF81500ADF8100004A9234800F0CB
:100BB0001CFA0E208DF80A0000208DF80B00012091
:100BC0008DF80C000020ADF80000ADF80200ADF883
:100BD0000400ADF80600ADF8080001208DF80D0006
:100BE000684600F0E5F801220221144800F0F4F90B
:100BF00001221146114800F0EFF940208DF8200045
:100C000001208DF821008DF822008DF8230008A81E
:100C100003F03EF93F208DF8200001208DF82100DF
:100C200000208DF8220001208DF8230008A803F091
:100C30002FF909B000BD0000000402400068004028
:100C400000B585B002210B4800F036F978B10221D9
:100C5000084800F03DF80849064800F01DF86A46CB
:100C60000021044800F04BFA684600F06DFE05B024
:100C700000BD0000006800400800003210B50121EE
:100C8000044800F019F918B10121024800F020F8D9
:100C900010BD00000068004000220C4B994202D1B8
:100CA0000023836111E0C1F3130201F000730BB163
:100CB000C2600AE001F080630BB1026105E001F05F
:100CC00000630BB1826000E0426070477000F0305A
:100CD000B1F5007F3AD00FDC202928D006DC0129AD
:100CE0001CD004291DD0082940D11DE0402921D065
:100CF000B1F5807F3AD126E0B1F5004F31D006DC66
:100D0000B1F5806F25D0B1F5006F2FD124E0B1F59A
:100D1000803F12D0B1F5003F28D111E0154A826022
:100D200025E00822C26022E01022C2601FE00822F3
:100D300002611CE01022026119E00822426016E004
:100D40001022426013E00422426010E0042242605C
:100D50000DE0042242600AE0002282610422426027
:100D600005E0002282610422426000E000BF00BF73
:100D7000704700000101010010B504460B48844291
:100D800009D10121480603F01DFC00214FF000703D
:100D900003F018FC08E00121880603F013FC002191
:100DA0004FF0806003F00EFC10BD000000640040B6
:100DB00010B50021837A012202FA03F13D4A12683C
:100DC00042F001023B4B1A603A4A1C3212688A43D5
:100DD000384B1C331A60027BCAB9364A0C3212688F
:100DE0008A43344B0C331A604288C38842EA034377
:100DF000304A4032847A42F834300288838842EAAA
:100E000003432C4A4032847A02EBC4025360027BD3
:100E1000012A19D1274A0C3212680A43254B0C3398
:100E20001A604288038842EA0343224A4032847AA5
:100E300042F83430C288838842EA03431D4A403274
:100E4000847A02EBC4025360C27A3AB9194A121D7D
:100E500012688A43174B1B1D1A6006E0154A121DC3
:100E600012680A43134B1B1D1A60028932B9114ADA
:100E7000143212688A430F4B14331A600289012A14
:100E800006D10C4A143212680A430A4B14331A6012
:100E9000427B012A06D1074A1C3212680A43054BDD
:100EA0001C331A60034A126822F00102014B1A60D7
:100EB00010BD00000066004070B504460D460026D7
:100EC00060692840002871D0B5F5807F5CD010DCC7
:100ED000082D35D006DC012D20D0022D24D0042D84
:100EE00072D127E0102D31D0202D35D0402D6BD17F
:100EF00038E0B5F5004F60D009DCB5F5007F49D08A
:100F0000B5F5806F4CD0B5F5006F5DD14FE0B5F50C
:100F1000803F2DD0B5F5003F56D12FE0A0682D4978
:100F200001F020FD064651E0E068032101F01AFDC2
:100F300006464BE0E068082101F014FD064645E056
:100F4000E068102101F00EFD06463FE02069032114
:100F500001F008FD064639E02069082101F002FD94
:100F6000064633E02069102101F0FCFC06462DE026
:100F70006068082101F0F6FC064627E06068102151
:100F800001F0F0FC064621E0A069012101F0EAFC35
:100F900006461BE0A069022101F0E4FC064615E0CC
:100FA000A069042101F0DEFC06460FE00FE0A06915
:100FB000702101F0D7FC064608E06068042101F0CA
:100FC000D1FC064602E0FFE7002600BF00E0002655
:100FD000304670BD010101001AB143690B43436102
:100FE00002E043698B434361704730B502460020FD
:100FF0000023146824F002041460146844F001040F
:10100000146000E05B1C546804F001041CB94FF646
:10101000FF74A342F6D1546804F001040CB9002017
:101020006CE08C79012C04D1146844F080041460C5
:1010300003E0146824F080041460CC79012C04D1FE
:10104000146844F04004146003E0146824F0400481
:1010500014600C7A012C04D1146844F0200414604C
:1010600003E0146824F0200414604C7A012C04D1AD
:10107000146844F01004146003E0146824F01004B1
:1010800014608C7A012C04D1146844F008041460B4
:1010900003E0146824F008041460CC7A012C04D115
:1010A000146844F00404146003E0146824F0040499
:1010B00014608C78A407CD7844EA05640D7944EA7D
:1010C00005444D7944EA05540D886D1E2C43D461C6
:1010D000146824F001041460002300E05B1C5468D1
:1010E00004F001041CB14FF6FF74A342F6D154681A
:1010F00004F001040CB1002000E0012030BD10B567
:1011000000F5D87303EB01131B6803F0040313729B
:10111000137A53B900F5D87303EB01131B6840F23F
:10112000FF7404EA5353136009E000F5D87303EB2E
:1011300001131B686FF0604404EAD303536000F5A9
:10114000D87303EB01131B6803F00203537200F51D
:10115000D87303EB01135B6803F00F03937200F580
:10116000D87303EB01135B681B0AD37400F5D873C3
:1011700003EB01139B68D37200F5D87303EB0113E3
:101180009B681C0A147300F5D87303EB01139B686A
:101190001C0C547300F5D87303EB01139B681B0EF2
:1011A000937300F5D87303EB0113DB68D37300F579
:1011B000D87303EB0113DB681C0A147400F5D873B1
:1011C00003EB0113DB681C0C547400F5D87303EBBC
:1011D0000113DB681B0E937421B9C36843F020032D
:1011E000C36003E0036943F02003036110BD0021E5
:1011F0008171C171017241728172C1728170C1705D
:10120000032101710221417101210180704710B554
:1012100002460020936803F08063B3F1806F00D131
:1012200010E0936803F00063B3F1006F01D1012077
:1012300008E0936803F08053B3F1805F01D102208E
:1012400000E00420042874D002F5C07303EB0013FF
:101250001B6803F0010402F5C07303EB00131C606C
:101260000B7A7BB94B7A0C8843EA445302F5C0747D
:1012700004EB00142468234302F5C07404EB00144B
:10128000236010E00B7A4C6843EAC4034C7A234392
:1012900002F5C07404EB00142468234302F5C07403
:1012A00004EB001423608B7A03F00F038B7202F5BA
:1012B000C07303EB00135B6823F00F0402F5C073E7
:1012C00003EB00135C6002F5C07303EB00135B6873
:1012D0008C7A234302F5C07404EB001463608B7BAB
:1012E0001C064B7B44EA03440B7B44EA0323CC7A81
:1012F000234302F5C07404EB0014A3608B7C1C062E
:101300004B7C44EA03440B7C44EA0323CC7B234319
:1013100002F5C07404EB0014E36002F5C07303EB44
:1013200000131B6843F0010402F5C07303EB0013C4
:101330001C6010BD70B52DED0C8B82B0EB4890EDAC
:10134000022BB0EE420AF0EE620A90ED002BB0EEF6
:10135000421AF0EE621A53EC102B51EC110B06F00E
:101360001BFC41EC1D0BB0EE4D0AF0EE6D0A05F0D2
:10137000C3FAB0EE40CAF0EE60CA9FEDDD0B53EC4D
:10138000102B51EC1C0B06F0C7FA41EC1B0BB0EE16
:101390004B0AF0EE6B0A05F003F9B0EE40AAF0EE4E
:1013A00060AA9FEDD50B53EC102B51EC1A0B06F0F5
:1013B000E7FB41EC190B9FEDD20B53EC102B06F021
:1013C000ABFA41EC180B9FEDCE0B53EC102B05F054
:1013D000BDFFC64AC2E908019FEDCB0B104680ED68
:1013E0000A0B9FEDC90B80ED0C0B9FEDC90BCA4892
:1013F00080ED080BC94880ED080B9FEDC90BC6486E
:1014000080ED0A0BC54880ED0A0B9FEDC70BC24863
:1014100080ED0C0BC14880ED0C0B02F08BF9072816
:1014200002D002F087F9D0B99FEDC10BAF4880ED33
:10143000080B9FEDBB0B80ED0A0B9FEDBF0B80ED02
:101440000C0B9FEDB10B80ED000BBD49886B06F0D6
:10145000FCF9A64AC2E902011046816F884702F0F2
:1014600069F9042840D1B748006868B9B6480068EF
:1014700006F07CFC41EC180B9FEDB40B53EC102BE9
:1014800006F04AFA994A03C2AE48006801280DD115
:10149000AD48006806F06AFC41EC180B9FEDAB0B01
:1014A00053EC102B06F038FA904A03C2A449886B1B
:1014B00006F0CBF98D4AC2E902011046816F8847D8
:1014C000A449886B06F0C1F9944AC2E902011046AA
:1014D000816F8847A049886B06F0B7F98E4AC2E948
:1014E00002011046816F884702F024F9012807D0D5
:1014F00002F020F9062803D002F01CF9082828D1B0
:10150000914890ED000AB1EE400A10EE100A06F084
:101510002DFC764A03C28A49886B06F096F9734A15
:10152000C2E902011046816F88478A49886B06F03C
:101530008CF97A4AC2E902011046816F88478649D0
:10154000886B06F082F9744AC2E902011046816F85
:10155000884702F0EFF8052823D17B48006806F0A1
:1015600005FC624A03C27649886B06F06EF95F4A51
:10157000C2E902011046816F88477649886B06F000
:1015800064F9664AC2E902011046816F88477249D0
:10159000886B06F05AF9604AC2E902011046816F71
:1015A000884702F0C7F8072802D002F0C3F8E8BB6A
:1015B0004E4890ED021BB0EE410AF0EE610A9FED3D
:1015C0005A1B53EC112B51EC100B06F069F918D88B
:1015D000464890ED021BB0EE410AF0EE610A9FED25
:1015E0005F1B53EC112B51EC100B06F093FA08D84B
:1015F000002003460246014600905A4803F0F4FBDF
:1016000070E03A4890ED1A1BB0EE410AF0EE610A24
:1016100051EC100B06F0EAF804B200200346024633
:10162000214600904F4803F0DFFB5BE0FFE702F04C
:1016300081F804282BD1384890ED1A1BB0EE410AEE
:10164000F0EE610A51EC100B06F0D0F804B233480A
:1016500090ED1A1BB0EE410AF0EE610A51EC100B4E
:1016600006F0C4F805B2214890ED1A1BB0EE410A0D
:10167000F0EE610A51EC100B06F0B8F806B22B46FA
:10168000002231463748009403F0AEFB2AE022489E
:1016900090ED1A1BB0EE410AF0EE610A51EC100B0E
:1016A00006F0A4F804B21D4890ED1A1BB0EE410AF2
:1016B000F0EE610A51EC100B06F098F805B20B48F9
:1016C00090ED1A1BB0EE410AF0EE610A51EC100BDE
:1016D00006F08CF806B22B460022314621480094D1
:1016E00003F082FB02B0BDEC0C8B70BDF801002052
:1016F0009A9999999999B9BF000000000000F03FAC
:101700000000000000005940000000000000000040
:101710000000000000004E40C0030020280300200D
:10172000000000000000E03F000000000000244036
:1017300000000000000044400000000000001440D1
:101740000812002024010020B00900203333333375
:101750003333E3BFB8120020101300200000000054
:10176000000024C00064004010B504466C480068C6
:10177000401C6B4908602068702863D00EDC40284C
:101780005DD006DC302857D0312856D0322873D1AE
:1017900054E0502854D06028F9D152E0A0F2012042
:1017A000072869D2DFE800F00415263784B84F0017
:1017B00001205C4908705A480068322804D8214644
:1017C000594801F0ADFF03E02146574802F012FAF4
:1017D000A3E001205349087051480068322804D81A
:1017E0002146524801F09CFF03E021464F4802F099
:1017F00001FA92E001204B490870494800683228FC
:1018000004D821464A4801F08BFF03E021464848AE
:1018100002F0F0F981E00120424908704048006878
:10182000322804D82146434801F07AFF03E02146DC
:10183000404802F0DFF970E06FE06EE06DE06CE0D0
:101840006BE06AE069E036480068322826D221461B
:10185000394801F065FF384840693849B1F900104E
:10186000401AB0F5805F08DD3448008800F500506C
:1018700000B2324908801AE04EE02F4840692F49F3
:10188000B1F90010401A10F5805F10DA2B4800887B
:10189000A0F5005000B22949088008E02748B0F9B7
:1018A0000000254948612146234802F049FA34E006
:1018B0001B480068322825D22146214801F030FF1C
:1018C0001F4840691F49B1F90010401AB0F5805F08
:1018D00007DD1C48008800F5005000B21949088057
:1018E00019E0174840691749B1F90010401A10F57E
:1018F000805F10DA13480088A0F5005000B211494B
:10190000088008E00F48B0F900000D494861214601
:101910000B4802F015FA00E000BF00BF10BD000048
:10192000F80A0020F60900200812002060120020AA
:10193000B81200201013002068130020FE0A0020B7
:10194000C0130020FC0A002010B504462B48006894
:10195000401C2A4908602068B0F5807F46D0A0F27C
:10196000062078B1012845D108460068322804D8FD
:101970002146234801F0D4FE03E02146204802F02E
:10198000B3F838E01D480068322825D221461D48AA
:1019900001F0C6FE1B4840691B49B1F90010401A0E
:1019A000B0F5805F07DD1848008800F5005000B2F0
:1019B0001549088019E0134840691349B1F900102E
:1019C000401A10F5805F10DA0F480088A0F500502B
:1019D00000B20D49088008E00B48B0F90000094941
:1019E00048612146074802F07FF804E0204604F0F1
:1019F0002BF900E000BF00BF10BD0000F80A002076
:101A00007014002018140020000B002010B52DEDDC
:101A1000048B0446A078E17840EA012000B2CC496A
:101A200008802079617940EA012000B2C8494880E5
:101A3000A0798880E079C7490880207A4880607A58
:101A4000C5490880A07A4880C4480078C449086025
:101A5000207852287ED160784D28FBD1A07841288B
:101A600078D0C04890ED000AF7EE000A30EE200A68
:101A700080ED000AB648B0F9000000EE100AB8EE9A
:101A8000C00AB94880ED000AB148B0F9020000EE82
:101A9000100AB8EEC00AB54880ED000A0120AF492F
:101AA00008700020B2498887B248007A032802D122
:101AB0000120B149087001F06FFEB0494860084646
:101AC00040680968401AAD498860AD480078401CFC
:101AD000AB49087008460078012819D1A94890ED53
:101AE000101BB0EE410AF0EE610A51EC100B05F04C
:101AF000FBFBA5490860A54890ED101BB0EE410A1C
:101B0000F0EE610A51EC100B05F0EEFBA049086005
:101B10009B4800781E2802DD1E209949087001F0BC
:101B200009FE07280ED001F005FE58B101F002FEB3
:101B3000062807D001F0FEFD052803D001F0FAFDCC
:101B400001281CD18F4890ED101BB0EE410AF0EE39
:101B5000610A00E093E051EC100B05F0C5FB8D49E4
:101B600008608A4890ED101BB0EE410AF0EE610A61
:101B700051EC100B05F0B8FB874908607BE0744915
:101B8000B1F9000005F061FE41EC190B9FED830BEC
:101B900053EC102B05F096FC41EC180B05F0A4FB60
:101BA0007C4908607248B0F93C0023281BDA0846DB
:101BB00090ED000A6E48B0F91410808A401C00B203
:101BC0006B4A9082104600EB810080ED000A1046BF
:101BD000B0F91400052802DB00201146888200209D
:101BE0006349888710E0002008E09FED6E0A604995
:101BF00001EB800181ED000A411CC8B20528F4DB2D
:101C000000205B49888288875148808881B2664875
:101C100002780078401C644B1870644820F8121059
:101C2000184600780A2802DB0020194608705F4831
:101C300004F0BAFF5E4908804549B1F9020005F099
:101C400004FE41EC190B9FED550B53EC102B05F0E6
:101C500039FC41EC180B05F047FB4F4908604D4833
:101C600090ED000A534880ED000A084690ED000A06
:101C7000514880ED000A01F08FFD4049086020784E
:101C800052282DD160784D282AD1A078412827D11B
:101C9000E078412824D12079412821D19FED410AC3
:101CA000314880ED000A9FED3F0A304880ED000A80
:101CB0002F48808F401C00B22D4988870846B0F914
:101CC0003C00232801DB232088872948B0F93C0009
:101CD000232805DC394890ED000A2E4880ED000AE3
:101CE0002348B0F93C0023281ADB0020244908705F
:101CF000324890ED000A274880ED000A234890ED15
:101D0000101BB0EE410AF0EE610A51EC100B05F029
:101D1000EBFA214908600020174908700F49087044
:101D20001448007A032802D101202549087001F0E7
:101D300001FD042808D10F48007A022804D10020B0
:101D40000D4908701E490870BDEC048B10BD0000E1
:101D5000180000201E00002022000020F2090020B0
:101D60007000002080000020740000207800002017
:101D7000EC0E0020E0140020390A0020430B002064
:101D80006D00002068130020F0000020C013002028
:101D9000F4000020340000202C000020000000008F
:101DA00000005940000000003C000020D80E002038
:101DB0003A0000203000002028000020B40000205D
:101DC000090A002010B52DED048B01F0B3FC0128A9
:101DD00007D001F0AFFC042803D001F0ABFC0828C9
:101DE0007DD18848007801282ED1874800880128B5
:101DF0002AD18648007810B1012824D111E09FED46
:101E0000840A844880ED000A83480068401C8249A7
:101E10000860824800688249086000207A4908808A
:101E200011E09FED800A7B4880ED000A7B48006846
:101E3000401C7A490860784800687B4908600020A7
:101E40007149088000BF00BF6E4800780128C7D1E3
:101E50007048006805F08AFF41EC190B734890ED5B
:101E6000101BB0EE410AF0EE610A53EC102B51EC5E
:101E7000190B05F091FE41EC180B05F0B7FC041EA0
:101E800001DB204600E0604205281DDA5F4800784B
:101E900010B101280CD105E09FED5D0A5D4880ED91
:101EA000000A05E09FED5F0A5A4880ED000A00BF76
:101EB00000BF56480078401C544908700846007816
:101EC000022801DB0020087059480068401C58496E
:101ED000086058480078002801D1574800E08DE09C
:101EE00090ED000A554880ED000A08460068401C45
:101EF0000860084600685249884202DD01205149C5
:101F000008605048006890BB4248006805F02EFF0A
:101F100041EC180B454890ED101BB0EE410AF0EE75
:101F2000610A53EC102B51EC180B05F0F3FD05D2B0
:101F30009FED450A404880ED000A18E035480068EA
:101F400005F014FF41EC180B384890ED101BB0EE73
:101F5000410AF0EE610A53EC102B51EC180B05F01E
:101F60009FFC04D29FED390A334880ED000A3548C2
:101F70000068012832D12748006805F0F7FE41ECDF
:101F8000180B2A4890ED101BB0EE410AF0EE610AE2
:101F900053EC102B51EC180B05F0BCFD05D29FED56
:101FA0002A0A254880ED000A18E01A48006805F062
:101FB000DDFE41EC180B1D4890ED101BB0EE410A00
:101FC000F0EE610A53EC102B51EC180B05F068FC95
:101FD00004D29FED1E0A184880ED000A174890EDC4
:101FE000000A1548D0ED000A20EE200AB5EEC00A1E
:101FF000F1EE10FA02D201200E490870BDEC048BFC
:1020000010BD0000F6090020BA0A002011010020CE
:1020100000401C469C09002040010020480100208F
:102020004C01002000401CC6440100200812002082
:1020300028010020FE000020A4090020A0090020A3
:10204000F049020024010020000096C300009643DE
:1020500010B52DED088BF7480068F7490968401A5C
:1020600042F21071884202D90020F449087001F050
:1020700061FB05287ED1F24800680028FAD1F148BA
:10208000006801286DD10024641C002C65DB0A2C3B
:1020900063DCED48006805F069FE41EC1A0BEB4883
:1020A00090ED101BB0EE410AF0EE610A53EC102BDC
:1020B00051EC1A0B05F070FD41EC190BB0EE490A1A
:1020C000F0EE690A04F018FCB0EE408AF0EE608A87
:1020D0009FEDDF0B53EC102B51EC180B05F0E0FBE0
:1020E00008D2D94890ED000A80ED000A0120DA49B3
:1020F000086032E0D448006805F038FE41EC1B0B64
:10210000D24890ED101BB0EE410AF0EE610A53EC9C
:10211000102B51EC1B0B05F03FFD41EC1A0B9FED12
:10212000CF0B53EC102B05F0F7FB41EC190BC74814
:1021300090ED101BB0EE410AF0EE610A53EC102B4B
:1021400051EC190B05F002F941EC180B05F0CCF835
:10215000BD4908600120C04908600020B9490860F5
:1021600000BFC0480078012884D1BB48006801281E
:1021700073D100E06CE2BC48008801282FD104F044
:1021800033FDBA48007810B1012827D112E0B849D0
:10219000B1F90000002801DB014600E0414200EEF9
:1021A000101AB8EEC00AA84981ED000A0020AE4915
:1021B000088013E0AE49B1F90000002801DB0146B8
:1021C00000E04142494200EE101AB8EEC00A9E49B2
:1021D00081ED000A0020A449088000BF00BFA54887
:1021E0000088782875DBA4480068012871D1A348CD
:1021F000006841F2883188423CD2A14800685228E8
:1022000003D09F4800684C2815D1934800680128E6
:1022100011D19648007810B1012808D103E00220BE
:102220009849086003E001209649086000BF00BF9C
:1022300000209249086094480068522803D09248D0
:1022400000684C2816D184480068012812D18748BC
:10225000007818B1012809D104E037E1012089494B
:10226000086003E002208749086000BF00BF00202B
:10227000824908608148006841F28831884201D96A
:10228000012000E000207D490968B1F57A5F01D2A4
:10229000012100E000210840D8B1794800685228A7
:1022A00002D1022077490860754800684C2802D1A5
:1022B00001207449086074480068522802D1012046
:1022C00070490860704800684C2802D102206D49AE
:1022D00008606848008878285FDA6C4800686428DD
:1022E0003BD867480068522803D0654800684C28EE
:1022F00015D159480068012811D15C48007810B107
:10230000012808D103E002205E49086003E00120B3
:102310005C49086000BF00BF0020584908605A4867
:102320000068522803D0584800684C2815D14A4804
:102330000068012811D14D48007810B1012808D15A
:1023400003E001204F49086003E002204D49086086
:1023500000BF00BF0020494908604C48006864285D
:102360001BD947480068522802D10220454908601D
:10237000434800684C2802D1012042490860424885
:102380000068522802D101203E4908603E4800689A
:102390004C2802D102203B4908602B48006805F018
:1023A000E5FC41EC1A0B294890ED101BB0EE410AF8
:1023B000F0EE610A53EC102B51EC1A0B05F0ECFB1C
:1023C00041EC190BB0EE490AF0EE690A04F094FAF8
:1023D000B0EE408AF0EE608A9FED2D0B53EC102B8F
:1023E00051EC180B05F05CFA70D22248008878286E
:1023F00079DB2248006841F28831884273D226484E
:10240000006858B904F0F0FB1948B0F9000000EE7C
:10241000100AB8EEC00A0C4880ED000A1E48006899
:10242000012860D104F0E0FB10480078B0B3012827
:1024300058D144E0E8090020040A0020F3090020F4
:102440007C0A0020E80A00209C09002008120020D5
:102450000000000000007940D80A00207B14AE473D
:10246000E17A743FF6090020BA0A00201101002029
:10247000DE0A0020060B0020780A0020540A002003
:1024800040000020EC0A002044000020580A0020F0
:102490000000000000001440E40A0020FFE7FB49B0
:1024A000B1F90000002801DB014600E0414200EEE6
:1024B000101AB8EEC00AF64981ED000A12E0F3499D
:1024C000B1F90000002803DB014602E04CE00AE01D
:1024D0004142494200EE101AB8EEC00AEC4981EDC3
:1024E000000A00BF00BFEB48008878283CDAEA48C1
:1024F000006801280BD104F077FBE448B0F9000034
:1025000000EE100AB8EEC00AE14880ED000AE24889
:10251000006848BB04F068FBE048007810B101286F
:1025200021D10FE0D949B1F90000002801DB0146B3
:1025300000E0414200EE101AB8EEC00AD44981ED25
:10254000000A10E0D149B1F90000002801DB014682
:1025500000E04142494200EE101AB8EEC00ACC49F0
:1025600081ED000A00BF00BFCD48007800286FD180
:10257000CC4890ED000ACC4880ED000AC4480068C1
:1025800005F0F4FB41EC180BC84890ED101BB0EEC1
:10259000410AF0EE610A53EC102B51EC180B05F0D8
:1025A0007FF956D2BA48006805F0E0FB41EC1A0BFF
:1025B000BE4890ED101BB0EE410AF0EE610A53ECFC
:1025C000102B51EC1A0B05F0E7FA41EC190BB0EEA9
:1025D000490AF0EE690A04F08FF9B0EE408AF0EE95
:1025E000608A9FEDB30B53EC102B51EC180B05F0E8
:1025F00091FA22D2A748008878280FDBAE480068FD
:1026000041F28831884209D8AC480068404200EE67
:10261000100AB8EEC00AA34880ED000A9D48008861
:10262000782879DAA5480068404200EE100AB8EE32
:10263000C00A9C4880ED000A6EE0A0480068404255
:1026400000EE100AB8EEC00A964880ED000A63E07A
:1026500077E18F48006805F089FB41EC180B93483F
:1026600090ED101BB0EE410AF0EE610A53EC102B16
:1026700051EC180B05F04EFA4ED28548006805F073
:1026800075FB41EC1A0B894890ED101BB0EE410A26
:10269000F0EE610A53EC102B51EC1A0B05F07CFAAA
:1026A00041EC180BB0EE480AF0EE680A04F024F989
:1026B000B0EE409AF0EE609A9FED7D0B53EC102B3C
:1026C00051EC190B05F026FA1ED2724800887828C2
:1026D0000DDB7948006841F28831884207D8774895
:1026E00090ED000AB8EEC00A6E4880ED000A694815
:1026F0000088782810DA714890ED000AB8EEC00A18
:10270000684880ED000A07E06C4890ED000AB8EEDA
:10271000C00A644880ED000A624890ED000A6248F1
:10272000D0ED000A30EE600A10EE101A084605F0EF
:102730001DFB41EC190BB0EE490AF0EE690A04F0FA
:10274000DBF8B0EE408AF0EE608A9FED5D0B53EC53
:10275000102B51EC180B05F0DDF973D2524890EDB7
:10276000000A5048D0ED000A20EE200AB5EEC00A5B
:10277000F1EE10FA66DD4C4890ED000A524880ED0B
:10278000000A484890ED000A504880ED000A46488B
:10279000006805F0EBFA41EC1A0BB0EE4A0AF0EED5
:1027A0006A0A04F0A9F8B0EE408AF0EE608A3D486B
:1027B000006805F0DBFA41EC1A0BB0EE4A0AF0EEC5
:1027C0006A0A04F099F8B0EE409AF0EE609A53EC81
:1027D000182B51EC190B05F09DF906D201203C494C
:1027E00008703C48816988472CE02F48006805F054
:1027F000BDFA41EC1A0BB0EE4A0AF0EE6A0A04F098
:102800007BF8B0EE409AF0EE609A2648006805F03A
:10281000ADFA41EC1A0BB0EE4A0AF0EE6A0A04F087
:102820006BF8B0EE408AF0EE608A53EC192B51EC55
:10283000180B05F035F805D2012027490870254806
:102840008169884722480078012847D121480169D9
:1028500088471E48D0ED000A1B4890ED001A30EE64
:10286000C11AD0ED000A41EE000A0E48C0ED000A80
:10287000184801698847F7EE000AB4EE600AF1EEE5
:1028800010FA4ED10020124908704AE0DE0A0020FA
:102890009C090020060B0020E80A002011010020FE
:1028A000FE000020A4090020A0090020081200203A
:1028B0000000000000407F40540A0020F40A00207D
:1028C0000000000000C06240A8090020AC09002000
:1028D000FF00002060090020000100201A48007855
:1028E00001281ED11948016988471948D0ED000A0E
:1028F000184890ED001A30EEC11AD0ED000A41EEF2
:10290000000A1548C0ED000A104801698847F7EE33
:10291000000AB4EE600AF1EE10FA02D100200A4972
:1029200008700E4890ED000A0B48D0ED000A20EE2A
:10293000200AB5EEC00AF1EE10FA02D201200849D1
:102940000870BDEC088B10BD00010020600900205C
:10295000AC090020A8090020A4090020A00900203B
:10296000FE0000200246002002EA01030BB1012014
:1029700000E000207047000010B51C480068801C73
:102980001A49086003F072F903F060FA03F0A4FB3F
:1029900003F06EFD00F02EFC00F02EFA00F088FF30
:1029A00000F0FEF9FDF780FF02F0A2FA02F048F90C
:1029B000FFF708FAFFF74CFB00F0F8FEFEF7BAFC51
:1029C00001F052FD00F0E8FE094948600846406801
:1029D0000968401A064988600846806805498842A7
:1029E00002DD00200449087010BD0000E809002045
:1029F000360B002020A10700F409002010B50020AC
:102A0000244908602448C16F88472448C16F88471B
:102A10002348C16F88472348C16F88472248C16F48
:102A200088472248C16F88472148C16F884721489D
:102A3000C16F88472048C16F88472048C16F8847C9
:102A40001F484FF4C871C26990471D488169884783
:102A50001C484FF4FA61C26990471B484FF4FA6171
:102A6000C269904717488169884717488169884734
:102A70009FED160A164880ED000A9FED140A1548CE
:102A800080ED000A144890ED000A124880ED010A1A
:102A900010BD0000E8090020F8010020900200208D
:102AA00028030020C0030020F0040020200600209E
:102AB000B806002050070020E8070020800800200A
:102AC00060090020180900203C09002000000000D7
:102AD000B009002084090020F000002021B1026824
:102AE00042F00102026003E0026822F0010202608B
:102AF00070470000016821F00101016000210160C0
:102B000041608160C1600161212141614A4988427F
:102B100004D13D21484A103A91608CE04649183171
:102B2000884205D14FF47461434A103A916082E0C3
:102B300041493031884205D14FF474113E4A103A70
:102B4000916078E03C494831884205D14FF074618A
:102B5000394A103A91606EE037496031884204D1B9
:102B60003649354A103AD16065E0334978318842B8
:102B700004D13349304A103AD1605CE02E4990319B
:102B8000884204D12F492C4A103AD16053E02A4997
:102B9000A831884205D14FF03D51274A103AD16003
:102BA00049E02949884204D13D21274A083A116069
:102BB00041E025491831884205D14FF47461224A19
:102BC000083A116037E020493031884205D14FF48E
:102BD00074111D4A083A11602DE01B4948318842A2
:102BE00005D14FF07461184A083A116023E0164984
:102BF0006031884204D11149134A121F11601AE052
:102C000011497831884204D10D490F4A121F1160D1
:102C100011E00D499031884204D10A490A4A121F35
:102C2000116008E00849A831884204D14FF03D51B5
:102C3000054A121F11607047106002403D000020DD
:102C4000400F002000003D201064024021B10268C6
:102C500042F48022026003E0026822F480220260D3
:102C6000704722B1036843F40023036003E0036864
:102C700023F400230360016170470146486880B275
:102C80007047014600200A6802F400220AB10120C0
:102C900000E000207047000010B500220268134BCE
:102CA0001A40CC680B6823434C6923438C69234347
:102CB000CC6923430C6A23434C6A23438C6A234325
:102CC0004C6B23438C6B23431A430260426922F00E
:102CD0000702D1E90B3423431A4342610B69436075
:102CE0004B6883608B68C36010BD00003F801CF0A0
:102CF0000021016041608160C160016141618161C9
:102D0000C161016241628162C162016341638163A9
:102D10007047704770B50446D4E9000140EA0120CD
:102D2000218940EA0140217B40EA0160206120695D
:102D3000C0F3C7507F3860612069C0F31600A061FE
:102D4000002527E05DB9B0EE000AA16A60698847F6
:102D5000F7EE000A20EE200A84ED080A19E0691E49
:102D60004FF480020A41A0691040C5F117010841E3
:102D7000E0616269501BB0EE000AA16A8847D4ED99
:102D8000080A94ED071AB8EEC11A41EE000AC4ED24
:102D9000080A6D1C182DD5DB94ED080A70BD0000E3
:102DA00010B50F48007801280CD10E490988484217
:102DB00004F04BFD0C4A03C20A49088804F05CFD8C
:102DC0000A4A03C20648007848B99FED090B064835
:102DD00080ED000B9FED060B044880ED000B10BD4D
:102DE000090A00203A0A002028030020C00300201E
:102DF000000000000000000010B52DED0C8BD7483E
:102E000090ED000AFBEE0F0AB4EEE00AF1EE10FAC4
:102E100004D8BBEE0F0A80ED000A0BE0CF4890ED1E
:102E2000000AB5EEC00AF1EE10FA03DB9FEDCC0A02
:102E300080ED000A00F07EFC052805D1C948007825
:102E4000012801D1C849086000F074FC052805D1AB
:102E5000C448007810B90220C349086000F06AFC39
:102E600004287CD1C148006804F080FF41EC1B0BB2
:102E7000B0EE4B0AF0EE6B0A03F03EFDB0EE409A66
:102E8000F0EE609AB948006804F070FF41EC1A0B4C
:102E900053EC192B04F016FB41EC180B04F024FA48
:102EA000B3490860B148006804F060FFB14A03C24A
:102EB000B14890ED100BAF4880ED020B90ED022B66
:102EC000B0EE420AF0EE620A90ED002BB0EE421A2C
:102ED000F0EE621A53EC102B51EC110B04F05CFE77
:102EE00041EC1D0BB0EE4D0AF0EE6D0A03F004FD4F
:102EF000B0EE40CAF0EE60CA9FEDA00B53EC102B71
:102F000051EC1C0B04F008FD41EC1B0BB0EE4B0A1E
:102F1000F0EE6B0A03F044FBB0EE40AAF0EE60AABC
:102F20009FED980B53EC102B51EC1A0B04F028FE7C
:102F300041EC190B9FED950B53EC102B04F0ECFCBE
:102F400041EC180B9FED930B53EC102B04F0FEF9A2
:102F5000884AC2E908019FED910B104600E036E077
:102F600080ED0A0B9FED8F0B80ED0C0B9FED8F0B0F
:102F7000904880ED080B9FED900B80ED0A0B9FEDC4
:102F8000900B80ED0C0B1046816F88477A4890EDCE
:102F9000101BB0EE410AF0EE610A9FED8B1B53EC63
:102FA000112B51EC100B04F0B7FC41EC180B7148DD
:102FB00090ED1A1BB0EE410AF0EE610A53EC102BB3
:102FC00051EC180B04F0DCFD6A4AC2E91A0100F06A
:102FD000B1FB78B100F0AEFB01280BD000F0AAFBEA
:102FE000062807D000F0A6FB082803D05E4800683A
:102FF00002286CD19FED760B5E4880ED080B9FEDAB
:10300000760B80ED0A0B9FED6E0B80ED0C0B9FEDA8
:10301000740B684880ED080B9FED670B80ED0A0B81
:103020009FED650B80ED0C0B00F084FB18B100F0F8
:1030300081FB072822D19FED600B4E4880ED000BED
:1030400069480169884710EE104A204604F08EFE58
:1030500041EC180B484890ED101BB0EE410AF0EE21
:10306000610A53EC102B51EC180B04F055FC414A4B
:10307000C2E902011046816F884728E0374890ED89
:10308000000AB1EE400A10EE101A084604F06EFE77
:10309000384A03C254480169884710EE104A204656
:1030A00004F064FE41EC180B334890ED101BB0EEB9
:1030B000410AF0EE610A53EC102B51EC180B04F0AE
:1030C0002BFC2C4AC2E902011046816F884729482F
:1030D00090ED1A0B374880ED000B2749886B04F000
:1030E000B4FB41EC180B9FED410B53EC102B04F09B
:1030F00013FC304AC2E902011046816F88472D480F
:1031000090ED1A1BB0EE410AF0EE610A03F0F4FBF9
:10311000B0EE409AF0EE609A264890ED1A1BB0EEA1
:10312000410AF0EE610A53EC192B51EC100B04F03C
:10313000C9F941EC180B1F4890ED1A1BB0EE410A7B
:10314000F0EE610A53EC102B51EC180B04F0FEF872
:10315000184AC2E91A01BDEC0C8B10BD840900208D
:1031600000000000F2090020D80900202C000020F7
:10317000D0090020F0040020C01300209A999999EA
:103180009999B9BF000000000000F03F0000000066
:1031900000003E400000000000004E40FCA9F1D2BB
:1031A0004D62503F00000000000018400000000089
:1031B0000000444020060020000000000000000045
:1031C000000000000000004000000000000030404F
:1031D00000000000000054407B14AE47E17A843FB9
:1031E0000000000000003440180900209A999999C5
:1031F0009999A93F10B52DED0C8B00F09BFA04288E
:1032000003D0DF48006801287CD1DE4890ED000A39
:10321000DD48D0ED000A30EE600ADC4880ED000A9F
:10322000D7480068DA4908600020D5490860D648C8
:10323000006804F09BFD41EC1B0BB0EE4B0AF0EE76
:103240006B0A03F059FBB0EE409AF0EE609ACE485C
:10325000006804F08BFD41EC1A0B53EC192B04F0C1
:1032600031F941EC180B04F03FF8CA490860C64830
:1032700090ED000AB1EE400A10EE100A04F076FD5F
:10328000C54A03C2C54890ED000AB1EE400A10EEEF
:10329000100A04F06BFDC04AC2E90201104690ED2D
:1032A000022BB0EE420AF0EE620A90ED002BB0EE77
:1032B000421AF0EE621A53EC102B51EC110B04F091
:1032C0006BFC41EC1D0BB0EE4D0AF0EE6D0A03F005
:1032D00013FBB0EE40CAF0EE60CA9FEDB10B53ECA9
:1032E000102B51EC1C0B04F017FB41EC1B0BB0EE48
:1032F0004B0AF0EE6B0A03F053F9B0EE40AAF0EE81
:1033000060AA00E073E09FEDA80B53EC102B51EC8A
:103310001A0B04F035FC41EC190B9FEDA50B53EC97
:10332000102B04F0F9FA41EC180B9FEDA30B53ECB2
:10333000102B04F00BF8984AC2E90801104690EDF2
:10334000022BB0EE420AF0EE620A90ED002BB0EED6
:10335000421AF0EE621A53EC102B51EC110B04F0F0
:103360001BFC41EC1B0BB0EE4B0AF0EE6B0A03F0BA
:10337000C3FAB0EE40AAF0EE60AA9FED890B53ECC1
:10338000102B51EC1A0B04F0C7FA41EC180BB0EEFD
:10339000480AF0EE680A03F003F9B0EE409AF0EE46
:1033A000609A9FED870B53EC102B51EC190B04F036
:1033B000B3FA794AC2E90A019FED830B104680ED0A
:1033C0000C0B9FED830B844880ED080B9FED830B66
:1033D00080ED0A0B9FED830B80ED0C0B1046816F87
:1033E0008847694890ED000A664880ED000A00F0C1
:1033F000A1F918B100F09EF9072827D19FED7B0BAA
:10340000654880ED080B9FED7B0B80ED0A0B9FED6F
:103410006E0B80ED0C0B9FED790B6F4880ED080B68
:103420009FED780B80ED0A0B9FED6E0B80ED0C0B82
:10343000764890ED100B584880ED000B734890EDE6
:10344000100B554880ED020B816F884700F072F930
:10345000062831D19FED650B4F4880ED080B9FED9D
:10346000580B80ED0A0B9FED580B80ED0C0B9FED78
:10347000680B594880ED080B9FED620B80ED0A0B3D
:103480009FED580B80ED0C0B634890ED010A10EE98
:10349000101A084604F06AFC3F4A03C25B4890EDEC
:1034A000100B3D4880ED020B5C48007800F00700EF
:1034B00010B13948816F884700F03CF9012807D0E6
:1034C00000F038F9082803D02D480068022832D1CE
:1034D0002B4800682E4908600020294908609FEDAC
:1034E000430B2D4880ED080B9FED350B80ED0A0B4B
:1034F0009FED440B80ED0C0B9FED490B364880EDA2
:10350000080B9FED400B80ED0A0B9FED360B80ED15
:103510000C0B414890ED010A10EE101A084604F019
:1035200025FC1D4A03C2394890ED100B1A4880ED66
:10353000020B816F8847184890ED1A1BB0EE410AC4
:10354000F0EE610A9FED381B53EC112B51EC100B80
:1035500004F0E2F9204A03C23548B0F904004042C1
:10356000052190FBF1F4204604F06FF91A4AC2E9F4
:1035700002011046816F8847BDEC0C8B10BD000026
:10358000D80900203000002034000020B8090020B5
:10359000DC090020C8090020B8060020B400002083
:1035A000333333333333D3BF000000000000F03F28
:1035B0000000000000004E4000000000008051406C
:1035C0007B14AE47E17A743F000000000000144015
:1035D000000000000040504050070020FCA9F1D23C
:1035E0004D62503F0000000000000040000000005D
:1035F000000059407B14AE47E17A843F0000000090
:1036000000002440000000000000000068130020BB
:10361000000000000000394084090020E809002073
:103620000000000000003E40333333333333D33FD8
:10363000B8000020F0B50A4600210023002400BF96
:103640003DE0012505FA01F3156805EA03049C42F3
:1036500034D105684F000326BE40B5430560157997
:103660004E00B5400668354305601579012D02D03E
:103670001579022D16D185684F000326BE40B5434B
:10368000856055794E00B54086683543856045684C
:1036900001268E40B5434560456896798E40B6B2A6
:1036A00035434560C5684F000326BE40B543C5603D
:1036B000D5794E00B540C6683543C560491C102910
:1036C000BFD3F0BDF0B5002300244D07ED0E02FA84
:1036D00005F3CE1000F1200555F826504E07F70EE1
:1036E0000F26BE40B543CF1000F1200646F8275004
:1036F000CE1000F1200555F8265045EA0304CE10FF
:1037000000F1200545F82640F0BD018370474FF6D3
:10371000FF7101600021017141718171C1717047B8
:103720000A7BCB7A42EA0322426142690260426923
:10373000826070470148007870470000F10900205E
:1037400030B5034613B94FF6FF7030BD09E013F8EA
:10375000014B82EA0400C0B2054D35F8100080EA42
:103760002222081EA1F10101F1D11046EDE700006F
:103770008280000830B5034605E013F8010B80EAAB
:1037800002040448025D081EA1F10101F5D11046B2
:1037900030BD0000817F00084FF08040406A7047D4
:1037A0000148007870470000F009002010B5FFF7CD
:1037B000C1FF01280BD0FFF7BDFF052807D0FFF799
:1037C000B9FF042803D0FFF7B5FF082852D12A48D3
:1037D0000078012823D10020284908702849087062
:1037E0009FED280A284880ED000A90ED000AB5EE0A
:1037F000C00AF1EE10FA06D89FED220A80ED000A09
:1038000002201D490870214890ED000A1E48D0EDA5
:10381000000A20EE200A1E4880ED000A2AE0164821
:103820000078022820D1B7EE000A174880ED000A80
:1038300090ED000AF7EE000AB4EEE00AF1EE10FA9D
:1038400006DBB7EE000A80ED000A00200A49087086
:10385000104890ED000A0C48D0ED000A20EE200A36
:103860000B4880ED000A05E00A4890ED000A084880
:1038700080ED000A10BD0000FE000020FF000020C7
:10388000000100200000000094090020A009002091
:10389000B0090020A409002003490988014409B2A5
:1038A000014A1180704700004C0A002000BFFEE76B
:1038B000024800780249087070470000420A002060
:1038C000480A002010B50446FFF766FF78490860F3
:1038D00004B910BD207C617C00EB012000B200EE39
:1038E000100AB8EEC00ABDEEC00A10EE100A00B20F
:1038F00070490880A07CE17C00EB012000B200EE62
:10390000100AB8EEC00ABDEEC00A10EE100A00B2EE
:1039100068494880207D617D00EB012000B200EE07
:10392000100AB8EEC00ABDEEC00A10EE100A00B2CE
:1039300060498880E07D217E00EB012000B200EE2E
:10394000100AB8EEC00ADFED5C0A80EE201A5B4870
:1039500080ED001A607EA17E00EB012000B200EE37
:10396000100AB8EEC00AB1EE400ADFED530A80EE4D
:10397000201A524880ED011AE07E217F00EB0120E1
:1039800000B200EE100AB8EEC00AF2EE040A80EEB1
:10399000201A4B4880ED001A4A4890ED000A4A4828
:1039A00080ED000A454890ED010A464880ED000A86
:1039B000464890ED000A464880ED000A404890EDE8
:1039C000000A424880ED000A90ED000A4048D0ED20
:1039D000000A30EE600ADFED3F0AB4EEE00AF1EED5
:1039E00010FA04DD3C480068401E3B490860374837
:1039F00090ED000A3648D0ED000A30EE600ADFEDA7
:103A0000370AB4EEE00AF1EE10FA04D23248006848
:103A1000401C31490860304800684FF4B471484395
:103A200000EE100AB8EEC00A2848D0ED000A30EEC9
:103A3000200A224880ED020A224890ED000A22481E
:103A4000D0ED000A30EE600ADFED220AB4EEE00AA3
:103A5000F1EE10FA04DD22480068401E204908609B
:103A6000184890ED000A1848D0ED000A30EE600AC0
:103A7000DFED1A0AB4EEE00AF1EE10FA04D21848AB
:103A80000068401C16490860154800684FF4B4717E
:103A9000484300EE100AB8EEC00A0A48D0ED000A0A
:103AA00030EE200A054880ED010A00BF11E7000052
:103AB000500B0020B80000200000C8420410002075
:103AC000B4000020D8000020D4000020D000002046
:103AD000CC00002000009643C4000020000096C3E4
:103AE000C800002000BFFEE72DE9F0412DED088B56
:103AF00004460D460026002720686060287BE97A8E
:103B000040EA0120206020686168401AE060E068B7
:103B100010F5805F07DA606B401C6063E06800F5B9
:103B20000050A0610DE0E068B0F5805F07DD606BDC
:103B3000401E6063E068A0F50050A06101E0E0680D
:103B4000A061A269207C411C217404F11C0141F890
:103B500020202168606B01EB4030A060616B4FF466
:103B6000B47201FB02F003F070FE9FED1C0B53ECEE
:103B7000102B03F0A7FC41EC180B21686269881A2E
:103B800003F063FE9FED170B53EC102B03F0C4FE04
:103B90009FED160B53EC102B03F094FC53EC182BF9
:103BA00003F0D4FB41EC100B84ED100B207C0628B5
:103BB00001D100202074002605E004F11C0050F81B
:103BC00026000744761C062EF7DB062097FBF0F054
:103BD000A063BDEC088BBDE8F08100000000000090
:103BE00000004240000000000000244000000000EF
:103BF0000000C0402DE9F0412DED0A8B04460D4632
:103C000000260027B046002008EE100A20686060F9
:103C1000287BE97A40EA0120206020686168401A28
:103C2000E060E06810F5805F07DA606B401C60635D
:103C3000E06800F50050A0610DE0E068B0F5805F3D
:103C400007DD606B401E6063E068A0F50050A06176
:103C500001E0E068A061A269207C411C217404F1AC
:103C60001C0141F820202168606B01EB4030A0600E
:103C7000616B4FF4B47201FB02F003F0E6FD9FEDBF
:103C80002A0B53EC102B03F01DFC41EC190B21689F
:103C90006269881A03F0D9FD9FED250B53EC102BB8
:103CA00003F03AFE9FED240B53EC102B03F00AFCBB
:103CB00053EC192B03F04AFB41EC100B84ED100B75
:103CC000207C062801D100202074002605E004F1A4
:103CD0001C0050F826000744761C062EF7DBA97B53
:103CE000687B41EA00200FFA80F8404603F0ADFD02
:103CF00041EC1A0B9FED0C0B53EC102B03F0E2FB85
:103D000041EC190B03F072FDA063297CE87B41EACA
:103D1000002000B208EE100AB8EEC80A84ED140ABA
:103D2000BDEC0A8BBDE8F0810000000000003340CC
:103D300028AFA1BC86F23240000000000000C04065
:103D40002DE9F0472DED088B04460D460026B146BF
:103D500000BF00BF20686060287BE97A40EA01204C
:103D6000206020686168401AE060E06810F5805FBC
:103D700007DA606B401C6063E06800F50050A061EA
:103D80000DE0E068B0F5805F07DD606B401E6063AA
:103D9000E068A0F50050A06101E0E068A061A269C0
:103DA000207C411C217404F11C0141F82020216871
:103DB000606B01EB4030A060616B4FF4B47201FBAB
:103DC00002F003F042FD41EC180B21686269881A89
:103DD00003F03BFD9FED290B53EC102B03F09CFDF2
:103DE0009FED280B53EC102B03F06CFB53EC182BBE
:103DF00003F0ACFA41EC100B84ED100B2168626902
:103E0000881A03F022FD9FED1D0B53EC102B03F0DD
:103E100083FD9FED1C0B53EC102B03F053FB41EC87
:103E2000100B84ED120B207C062801D10020207499
:103E3000002605E004F11C0050F826008144761CA1
:103E4000062EF7DBA97B687B41EA00284FF4B470AB
:103E500018FB00F03C2190FBF1F0A063297CE87B8B
:103E600041EA002007B200EE107AB8EEC00A84EDF5
:103E7000140ABDEC088BBDE8F087000000000000CC
:103E800000807640000000000000C0407047000045
:103E900070B5002100230F22C4781CB3174C24688E
:103EA00004F4E064C4F5E064C4F30721C1F1040440
:103EB000E3B20A4144789C40E1B284781440214343
:103EC0000C07210E0E4C05786155047804F01F058F
:103ED0000124AC4005786D11AD0005F1E025C5F871
:103EE000004109E0047804F01F050124AC40054DB1
:103EF0000678761145F8264070BD00000CED00E014
:103F000000E400E080E100E002490143024A116060
:103F1000704700000000FA050CED00E010B52DED33
:103F2000028B044694ED022BB0EE420AF0EE620AD8
:103F300094ED002BB0EE421AF0EE621A53EC102B07
:103F400051EC110B03F028FEC4E9040194ED222B7F
:103F5000B0EE420AF0EE620A94ED042BB0EE421A83
:103F6000F0EE621A53EC102B51EC110B03F0D2FD62
:103F700016D994ED221BB0EE410AF0EE610A51EC25
:103F8000100B03F0A5F941EC180B94ED041BB0EEF7
:103F9000410AF0EE610A53EC102B03F0BBFD7DD219
:103FA00094ED042BB0EE420AF0EE620A94ED082B79
:103FB000B0EE421AF0EE621A53EC102B51EC110BDA
:103FC00003F0AAFCC4E90E0194ED141BB0EE410A03
:103FD000F0EE610A51EC100B03F07AF941EC180B8A
:103FE00094ED0E1BB0EE410AF0EE610A53EC102B7B
:103FF00003F090FD0CD894ED141BB0EE410AF0EEE6
:10400000610A51EC100B03F063F9C4E90E0116E0EC
:1040100094ED142BB0EE420AF0EE620A94ED0E2BF2
:10402000B0EE421AF0EE621A53EC102B51EC110B69
:1040300003F070FD03D894ED140B84ED0E0B94ED9A
:10404000042BB0EE420AF0EE620A94ED0A2BB0EEB9
:10405000421AF0EE621A53EC102B51EC110B03F0E4
:104060005BFC41EC180B94ED101BB0EE410AF0EE36
:10407000610A53EC102B03F069F9C4E9100194EDC7
:10408000161BB0EE410AF0EE610A51EC100B03F082
:104090001FF941EC180B94ED101B00E0D5E0B0EED9
:1040A000410AF0EE610A53EC102B03F033FD0CD8FB
:1040B00094ED161BB0EE410AF0EE610A51EC100BC4
:1040C00003F006F9C4E9100116E094ED162BB0EEEA
:1040D000420AF0EE620A94ED102BB0EE421AF0EEB6
:1040E000621A53EC102B51EC110B03F013FD03D8A3
:1040F00094ED160B84ED100B94ED241BB0EE410AE9
:10410000F0EE610A9FED741B53EC112B51EC100B78
:1041100003F030FB1ED194ED062BB0EE420AF0EE18
:10412000620A94ED042BB0EE421AF0EE621A53ECE0
:10413000102B51EC110B03F0EFFB41EC180B9FED32
:10414000680B53EC102B03F0ABFB03D29FED640B19
:1041500084ED100B94ED062BB0EE420AF0EE620AED
:1041600094ED042BB0EE421AF0EE621A53EC102BD1
:1041700051EC110B03F010FD41EC180B94ED0C1BEE
:10418000B0EE410AF0EE610A53EC102B03F0C4FBD1
:10419000C4E9120194ED181BB0EE410AF0EE610A79
:1041A00051EC100B03F094F841EC180B94ED121B3A
:1041B000B0EE410AF0EE610A53EC102B03F0AAFCBA
:1041C0000CD894ED181BB0EE410AF0EE610A51ECE8
:1041D000100B03F07DF8C4E9120116E094ED182BE2
:1041E000B0EE420AF0EE620A94ED122BB0EE421AE3
:1041F000F0EE621A53EC102B51EC110B03F08AFC19
:1042000003D894ED180B84ED120B94ED102BB0EE47
:10421000420AF0EE620A94ED0E2BB0EE421AF0EE76
:10422000621A53EC102B51EC110B03F08FF841EC98
:10423000180B94ED121BB0EE410AF0EE610A53EC3C
:10424000102B03F083F8C4E9200194ED200B84EDDA
:104250001A0B94ED1C1BB0EE410AF0EE610A51EC12
:10426000100B03F035F841EC180B94ED1A1BB0EE6F
:10427000410AF0EE610A53EC102B03F04BFC0CD812
:1042800094ED1C1BB0EE410AF0EE610A51EC100BEC
:1042900003F01EF8C4E91A0116E094ED1C2BB0EEF1
:1042A000420AF0EE620A94ED1A2BB0EE421AF0EEDA
:1042B000621A53EC102B51EC110B03F02BFC03D8BA
:1042C00094ED1C0B84ED1A0B94ED040B84ED060B9E
:1042D000BDEC028B10BD0000000000000000F03FAC
:1042E00000000000000000009FED120B80ED000BAD
:1042F0009FED100B80ED020B9FED0E0B80ED040B7C
:104300009FED0C0B80ED060B9FED0A0B80ED0E0B65
:104310009FED080B80ED100B9FED060B80ED120B4F
:104320009FED040B80ED200B9FED020B80ED1A0B2F
:104330007047000000000000000000002DE9F0417F
:104340002DED048B0546C5F3C750A0F17F07C5F3DB
:104350001608002435E07CB938469FED1E0B02F0AC
:10436000D7FAB0EE409AF0EE609A51EC190B02F0D9
:10437000BBFF08EE100A23E0601E4FF4800141FAF3
:1043800000F000EA0800C4F1170140FA01F6381BFA
:104390009FED100B02F0BCFAB0EE409AF0EE609A7E
:1043A00051EC190B02F0A0FF00EE900A00EE106A2B
:1043B000B8EEC01AB0EE480A01EE200AB0EE408A0C
:1043C000641C182CC7DBB0EE480ABDEC048BBDE8BA
:1043D000F0810000000000000000F03F7047000086
:1043E00000B587B00121080200F0CCF801210420BB
:1043F00000F0C8F82020019000208DF808008DF80A
:104400000A0001208DF80B0003208DF8090001A996
:104410001348FFF70FF98020059000208DF8180051
:104420008DF81A0001208DF81B0003208DF819006B
:1044300005A90C48FFF7FEF84020039000208DF8F6
:1044400010008DF8120001208DF8130003208DF864
:10445000110003A90348FFF7EDF807B000BD000005
:1044600000080240002002403948006839490870BD
:1044700039480078012808D10846007828B9012079
:104480003649087000203649086034480078012811
:104490000CD13449088000203349087033494863FF
:1044A00008602E49087001203149086029480078C9
:1044B00078B92B480068401C294908600846006804
:1044C000B0F5FA7F05DD0020274908700120254955
:1044D000088020480078204908701D48001F0068A7
:1044E0002449087024480078012808D1084600783B
:1044F00028B90120214908700020214908601F487F
:10450000007801280CD1174908801749087000204D
:104510001649486308601949087001201449086069
:104520001448007870B916480068401C14490860A7
:1045300008460068B0F5FA7F04DD01200A490870DA
:10454000084908800B4800780B4908707047000044
:104550001C024442B50A0020B40A0020C00A002010
:10456000C40A0020BA0A002011010020081200200D
:10457000D80A0020B90A0020B80A0020C20A002088
:10458000C80A002029B1064A12680243044B1A6087
:1045900004E0034A12688243014B1A60704700002E
:1045A0003038024029B1064A12680243044B1A60AF
:1045B00004E0034A12688243014B1A60704700000E
:1045C0004038024029B1064A12680243044B1A607F
:1045D00004E0034A12688243014B1A6070470000EE
:1045E0002038024029B1064A12680243044B1A607F
:1045F00004E0034A12688243014B1A6070470000CE
:104600004438024029B1064A12680243044B1A603A
:1046100004E0034A12688243014B1A6070470000AD
:1046200024380240F0B50021002200240225002693
:104630000223324F3F6807F00C0121B1042905D055
:10464000082937D105E02E4F076036E02D4F07606F
:1046500033E02A4F3F1F3F68C7F38056274F3F1F65
:104660003F6807F03F036EB1264FB7FBF3F7DFF863
:104670008CC0ACF1040CDCF800C0CCF3881C07FB48
:104680000CF40CE01E4FB7FBF3F7DFF870C0ACF191
:10469000040CDCF800C0CCF3881C07FB0CF4174FAB
:1046A0003F1F3F68C7F301477F1C7D00B4FBF5F750
:1046B000076002E0124F076000BF00BF0F4F3F6866
:1046C00007F0F0010909104F7A5C0768D74047608E
:1046D0000A4F3F6807F4E051890A0B4F7A5C47683C
:1046E000D7408760054F3F6807F46041490B064F8C
:1046F0007A5C4768D740C760F0BD000008380240C8
:104700000024F400001BB7000B0B0020D0E90012BE
:10471000914211DA0168491C016090ED000AF8EE3F
:10472000C00A90ED010AB8EEC00A80EE801A80ED52
:10473000021A90ED020A7047B7EE000AFBE77047D5
:10474000014691ED000AF8EEC00A91ED010AB8EEBB
:10475000C01A80EE810AF7EE000AB4EEE00AF1EE2C
:1047600010FA01DB012070470020FCE70021016006
:1047700070470160704741607047000010B52DED33
:10478000088B044614B9BDEC088B10BDFFF704F884
:10479000804908602078617840EA0120C0F30A006F
:1047A0007D4908806078C010A17840EA4110C0F3CC
:1047B0000A0079494880A0788011E17840EA8100B8
:1047C000217940EA8120C0F30A007349888020796A
:1047D0004010617940EAC110C0F30A006E49C880F8
:1047E00060790011800808726079C0F30110487286
:1047F000A079E17940EA012000B267494881207A36
:10480000617A40EA012001B263488181A07AE17AAD
:1048100040EA012001B26048C181217B8174617B43
:10482000C174A07BE17B40EA01205B498882084695
:10483000B0F90200A0F5806000EE100AB8EEC00AE0
:10484000564880ED000AB1F90610A1F5806002F02B
:10485000FCFF41EC1B0B9FED520B53EC102B03F0B4
:104860005BF841EC190B504890ED000A10EE101A5D
:10487000084603F07BFA41EC1A0B53EC192B02F0BB
:1048800065FD41EC180B02F02FFD474908604249D5
:10489000B1F90410A1F5806002F0D7FF41EC1B0BC9
:1048A0009FED420B53EC102B03F036F841EC190B43
:1048B0003D4890ED010A10EE101A084603F056FA32
:1048C00041EC1A0B53EC192B02F040FD41EC180B94
:1048D00002F00AFD344948602F48407A012802D18D
:1048E0000220344908702C48407A032802D1012064
:1048F000304908702848407A022804D100202D4908
:1049000008702D4908602448407A01283AD122488D
:10491000007A032803D02048007A012802D1012020
:10492000264908701C48007A022802D10020234939
:1049300008701948007A012801D1214908701648E9
:10494000007A022803D01448007A032802D10020FC
:104950001B490870104890F9080001280DD0022862
:1049600002D003280DD103E000201349086008E0BD
:104970004FF0FF301049086003E001200E49086045
:1049800000BF00BF0448407A032800D100BF00BF29
:10499000F9E60000360B0020E0140020B0090020EA
:1049A000FA7E6ABC7493683F84090020D42B651991
:1049B000E258673FF409002090090020090A00200E
:1049C000390A002001460C4800680B4A52689042A0
:1049D00001D101207047084802680830805C0870E7
:1049E00005480068401C044A1060642801DB002070
:1049F00010600020EEE70000971100200E494A6881
:104A00000831885408394968491C0B4A51606429A7
:104A100001DB0021516008494968074A1268914248
:104A200008D105490968491C034A1160642901DB62
:104A300000211160704700009711002070470000AE
:104A40002DE9F0412DED048B0746704890ED000AEA
:104A5000DFED6F0A30EE200AF2EE040A20EE200AA3
:104A6000BDEEC00A10EE104A6A4890ED101BB0EE81
:104A7000410AF0EE610A9FED681B53EC112B51ECDB
:104A8000100B02F063FC41EC190B9FED650B53EC2E
:104A9000102B02F041FF41EC180B02F0A7FE054677
:104AA000614890ED010ADFED610A30EE200AF2EE76
:104AB000040A20EE200ABDEEC00A10EE106A5C481F
:104AC0000078012806DB5A480078092802DC5220C9
:104AD0005849087056480078652806DB5448007825
:104AE0006D2802DC4220534908704D20514948701E
:104AF0004E2088704C20C8704FF47A7094FBF0F010
:104B0000303008714FF47A7094FBF0F100FB1140E3
:104B1000642190FBF1F0303046494871642094FBE9
:104B2000F0F100FB11400A2190FBF1F030304149D7
:104B300088710A2094FBF0F100FB114030303D49B0
:104B4000C8714FF47A7095FBF0F0303008724FF472
:104B50007A7095FBF0F100FB1150642190FBF1F0AD
:104B6000303034494872642095FBF0F100FB11505D
:104B70000A2190FBF1F030302E4988720A2095FB13
:104B8000F0F100FB115030302A49C8724FF47A70AE
:104B900096FBF0F0303008734FF47A7096FBF0F12A
:104BA00000FB1160642190FBF1F030302149487323
:104BB000642096FBF0F100FB11600A2190FBF1F0FC
:104BC00030301C4988730A2096FBF0F100FB11601D
:104BD00030301849C8730EE01648174A1268815CD5
:104BE000164801F021F814480068401C124908607A
:104BF000962001F0ADFF10480068B842ECDB0020C1
:104C00000D490860BDEC048BBDE8F081B4000020C4
:104C100000003443C0130020000000000080564014
:104C20000000000000002440041000200000B442F6
:104C30006E1100207C0F002058000020004800402A
:104C400070B5FEF777FD072805D1002211461948F7
:104C500000F0F8F82DE0184890ED1A1BB0EE410A6C
:104C6000F0EE610A51EC100B02F0C0FD04B21348E3
:104C700090ED1A1BB0EE410AF0EE610A51EC100BF8
:104C800002F0B4FD05B2224629460A4800F0DAF8DF
:104C90000B4890ED1A1BB0EE410AF0EE610A51ECA0
:104CA000100B02F0A3FD04B222460021054800F0DB
:104CB000F3F870BD0064004020060020500700207B
:104CC00080080020006800400CB500200190009092
:104CD0004148006840F480303F49086000BF3E48CA
:104CE000006800F4003000900198401C019000988A
:104CF00018B90198B0F5A04FF1D13748006800F419
:104D0000003010B10120009001E0002000900098D8
:104D1000012860D130484030006840F080502E4972
:104D2000403108602D48006840F440402B4908603D
:104D3000294808300068284908310860084600689A
:104D400040F4004008600846006840F4A050086045
:104D50002348091F0860081F006840F08070091F81
:104D6000086000BF1C48006800F000700028F9D0FF
:104D70001A48006840F480301849086000BF17489E
:104D8000406800F480300028F9D01448006840F4EE
:104D900000301249086000BF1048406800F400303D
:104DA0000028F9D040F205700E4908600A48083022
:104DB000006820F0030008490831086008460068D0
:104DC00040F00200086000BF03480830006800F0AF
:104DD0000C000828F8D10CBD0038024000700040DB
:104DE0000C544007003C02402DE9F04186B080465B
:104DF0000C4615461E460C9F4FF400700190002093
:104E00008DF80C008DF80D0008208DF80E00200A9A
:104E10008DF80F008DF81040290A8DF811108DF8CB
:104E20001250310A8DF813108DF81460390A8DF87C
:104E300015108DF8167001A94046FCF7E8F906B088
:104E4000BDE8F08170B586B006460C46154640F2C6
:104E5000FF10019000208DF80C008DF80D00082047
:104E60008DF80E00280A8DF80F008DF81050FF21E4
:104E70008DF811108DF81210210A8DF813108DF88D
:104E80001440FF218DF815108DF8161001A9304639
:104E9000FCF7BDF906B070BD70B586B006460C468D
:104EA000154640F2FF10019000208DF80C008DF89F
:104EB0000D0008208DF80E00FF208DF80F00FF2157
:104EC0008DF81010210A8DF811108DF81240290A62
:104ED0008DF813108DF81450FF218DF815108DF8F2
:104EE000161001A93046FCF792F906B070BD00001B
:104EF00010B59FED2D0B2E4880ED080B9FED2A0B72
:104F000080ED0A0B9FED280B80ED0C0B9FED290B1C
:104F10002A4880ED080B9FED240B80ED0A0B9FEDD6
:104F2000220B80ED0C0B26480078012816D125496C
:104F3000B1F90010C1EB0111880002F086FC1C4A97
:104F400003C2214890ED100B194880ED020B816FD0
:104F500088479FED1E0B194880ED000B1A488069A9
:104F60000A2804DA9FED1B0B144880ED000B16484D
:104F7000806910F1050F04DA9FED140B0F4880EDE6
:104F8000000B0F48007820B99FED070B0B4880ED10
:104F9000000B0D49886B02F058FC084AC2E9020177
:104FA0001046816F884710BD00000000000000001F
:104FB000E80700200000000000004E4080080020AC
:104FC000390A0020E40900207014002000000000CD
:104FD00000C072400000000000C082C070470000A6
:104FE00010B51548006840F4700013490860134874
:104FF000006840F001001149086000200F490831A5
:1050000008600E4800680E4908400C4908600D48C9
:10501000091D0860081F006820F48020091F08602F
:10502000002006490C310860FFF74EFE4FF000608B
:1050300001498039086010BD88ED00E00038024069
:10504000FFFFF6FE103000240EB501210846FFF7E1
:10505000A9FA4FF0FF3001905320ADF80000002076
:10506000ADF80800ADF8020069464FF0804000F04E
:10507000A3F80121880700F067F80121880700F0F4
:1050800075F80EBD10B50121880700F07BF838B126
:105090000121880700F067F80121880700F060F817
:1050A00010BD00000EB501211020FFF77BFA532040
:1050B000ADF800000020ADF80200ADF808004FF494
:1050C000FA6001906946094800F076F836208DF8BC
:1050D000080000208DF809008DF80A0001208DF8E5
:1050E0000B0002A8FEF7D4FE0EBD00000010004029
:1050F00010B50121094800F045F870B101210748B9
:1051000000F031F80121054800F02AF8FDF734FCE1
:1051100003480068401C0249086010BD00100040B0
:105120000000002010B50121064800F01FF8012200
:105130001146044800F037F80121024800F010F849
:1051400010BD00000010004021B1028842F0800232
:10515000028004E002884FF67F731A400280704795
:10516000CA4302827047CA430282704721B1028853
:1051700042F00102028004E002884FF6FE731A40FA
:105180000280704730B50246002000230024158AB3
:1051900005EA0103958905EA010413B10CB1012068
:1051A00000E0002030BD1AB183890B43838102E007
:1051B00083898B438381704700220288184B984271
:1051C0000ED0184B98420BD0B0F1804F08D0164B40
:1051D000984205D0154B984202D0154B984204D105
:1051E0004FF68F731A404B881A43124B984207D0E0
:1051F000114B984204D04FF6FF431A400B891A43D3
:1052000002804B68C3620B880385054B984202D02D
:10521000044B984201D18B7A038601238382704725
:10522000000001400004014000040040000800406C
:10523000000C004000100040001400402DE9F04137
:1052400006460F464FF00108002002EE100A002526
:10525000002419E008FA04F03040204102EE100A60
:105260002046B0EE000A01F0C9FEF0EE400A00EE62
:10527000105AB8EEC00AB8EEC21A01EE200ABDEE0E
:10528000C00A10EE105A641CBC42E3DB2846BDE89D
:10529000F081000070B540F224418B4800F00AFC18
:1052A00000286FD0884800888748001D00888748FC
:1052B000FDF7E7FC18BB00218448FDF70FFC83488D
:1052C000FDF7DBFCC0F164008149086064207F4980
:1052D0005839C8650846806D40F400208865012172
:1052E0007A48FDF7FBFB002404E07A49085DFFF7EC
:1052F00085FB641C764800688442F6D323E00021D5
:105300007248FDF7EBFB7148FDF7B7FCC0F1640094
:105310006F49086064206D495839C8650846806D3A
:1053200020F40020886501216848FDF7D7FB0024A0
:1053300005E068496431085DFFF760FB641C644860
:1053400000688442F5D3B5E0634840686249096863
:10535000401A03D400206149088002E064205F49BC
:1053600008805D480068602807DB5B4800686328A8
:1053700003DC64205A49088002E000205849088074
:10538000002505E09EE057494819FFF71BFB6D1CFF
:10539000052DF8DB5348007953490870FF2204219A
:1053A0005048FEF7E7F9514908704F4800780978EE
:1053B00088427FD14B4840784A49897840EA0120A9
:1053C0004B49088010214A480088FFF737FF4849B9
:1053D0000880414840684149098801443E480068C6
:1053E0003F4A12881044401F091A4148008809307A
:1053F000814256DB002505E03A49491D4819FFF76F
:10540000E1FA6D1C3A480088001D8542F4DB3848FB
:105410000088C01D3349095C354800880830314A8E
:10542000105C41EA00203349088031480088C11DE2
:105430004FF6FF722B48FEF783F92F4908802D485D
:1054400000880988884235D126484079012806D14C
:1054500024488079022802D1224801F09BFD21488E
:105460004079062806D11F488079022802D11D48BC
:1054700001F096FC1B484079072806D1194880792D
:10548000022802D1174801F035FD1648407902285C
:1054900010D11448807902280CD1124801F09AFCEE
:1054A00008E00D4800680E4909880844401F0A4971
:1054B000086006E0084840680749096888427FF4A8
:1054C00043AF00BF70BD000000780040586002404C
:1054D000EC0000201010002097110020E8000020B0
:1054E000EA000020D8100020E0000020E1000020A9
:1054F000E6000020E2000020E400002000B58FB0AC
:1055000001210220FFF73EF801218805FFF73AF854
:1055100001211020FFF766F8072211464248FEF7E6
:10552000D1F80DA8FEF7F3F880200D9002208DF839
:10553000380000208DF8390001208DF83B000DA9BE
:105540003948FEF777F8394800F03CFA09A800F02E
:105550006FFB374809900020ADF82800ADF82A000D
:105560004FF48060ADF82C000420ADF82E00002030
:10557000ADF8300009A92D4800F0ECFA01224021D5
:105580002A4800F015FA012240F22441274800F091
:10559000BBFA0121254800F0FFF92648FDF7AAFAD9
:1055A0006846FDF7A5FB4FF0006000901F48001D06
:1055B000019021480290002003901E2004900020BA
:1055C00005904FF4806006900020079008904FF4FB
:1055D0008070099000020A9000200B900C900D90B2
:1055E0000E9069461348FDF757FB002212491E3101
:1055F0001048FDF736FB01210E48FDF727FB01217E
:105600000C48FDF76BFA25208DF8380001208DF845
:10561000390002208DF83A0001208DF83B000EA8D9
:10562000FEF736FC0FB000BD000402400010014040
:10563000A0860100886402405D0B002010B540F296
:105640002441284800F036FA002849D0254800882F
:10565000244880882448FDF714FB00BB0021224821
:10566000FDF73CFA2048FDF708FBC0F11E001F497A
:1056700008601E201C49091D0860081F006840F4CE
:105680000020091F086001211748FDF727FA174875
:105690000068122824D11648FFF770F820E0002196
:1056A0001148FDF71BFA1048FDF7E7FAC0F11E009C
:1056B0000E4908601E200C49091D0860081F00687B
:1056C00020F40020091F086001210748FDF706FAB1
:1056D00006480068122803D105481E30FFF74EF82F
:1056E00010BD000000100140886402400C00002042
:1056F0005D0B002010B540F22441274800F0DAF994
:10570000002848D0244800882348001D00882348EA
:10571000FDF7B7FAF8B900212048FDF7DFF91F4877
:10572000FDF7ABFAC0F10C001D4908600C201B49C5
:105730002839C8620846806A40F400208862012146
:105740001648FDF7CBF916480068082823D11548FC
:10575000FCF75CF91FE000211048FDF7BFF90F4886
:10576000FDF78BFAC0F10C000D4908600C200B49C5
:105770002839C8620846806A20F400208862012126
:105780000648FDF7ABF906480068082803D105482C
:105790000C30FCF73BF910BD004800402860024087
:1057A00014000020C00E002000B58FB00121402061
:1057B000FEF7E8FE01212020FEF714FF01218805F5
:1057C000FEF7E0FE082209214148FDF77BFF082291
:1057D00007213F48FDF776FF4FF400700D9002203F
:1057E0008DF8380000208DF83A0003208DF839003C
:1057F00000208DF83B000DA93548FDF71BFF4FF445
:10580000E13009900020ADF82800ADF82A00ADF88D
:105810002C000420ADF82E000020ADF8300009A9BE
:105820002C4800F097F9012240212A4800F0C0F8E6
:105830000121284800F0B0F8012240F22441254817
:1058400000F062F92448FDF755F96846FDF750FA73
:105850004FF0206000901F48001D01901F480290EB
:10586000002003903C200490002005904FF48060BD
:1058700006900020079008904FF480700990000275
:105880000A9000200B900C900D900E9069461248E3
:10589000FDF702FA002211493C310F48FDF7E1F90A
:1058A00001210D48FDF7D2F901210B48FDF716F94A
:1058B00047208DF8380000208DF8390001208DF840
:1058C0003A008DF83B000EA8FEF7E2FA0FB000BDDB
:1058D0000018024000140140406402408C0F002078
:1058E00010B540F22441284800F0E4F800284AD0DE
:1058F000254800882448001D00882448FDF7C1F988
:1059000000BB00212148FDF7E9F82048FDF7B5F973
:10591000C0F13C001E4908603C201C49091D08607C
:10592000081F006840F40020091F0860184800683C
:105930001D2802D11748FDF7C5FF01211348FDF7C7
:10594000CDF820E000211148FDF7C8F80F48FDF719
:1059500094F9C0F13C000E4908603C200B49091D38
:105960000860081F006820F40020091F086008482C
:1059700000681D2803D107483C30FDF7A3FF012133
:105980000248FDF7ABF810BD00140140406402402E
:10599000C00000208C0F002021B1828942F4005207
:1059A000828104E082894DF6FF731A40828170473C
:1059B0001AB1838A0B43838202E0838A8B438382FA
:1059C0007047000010B504463248844208D10121D6
:1059D0001020FEF717FE00211020FEF713FE57E0FF
:1059E0002D48844209D101214804FEF7EBFD002136
:1059F0004FF40030FEF7E6FD4AE02848844209D122
:105A000001218804FEF7DEFD00214FF48020FEF71F
:105A1000D9FD3DE02248844209D10121C804FEF7A6
:105A2000D1FD00214FF40020FEF7CCFD30E01D48F1
:105A3000844209D101210805FEF7C4FD00214FF47D
:105A40008010FEF7BFFD23E01748844208D10121F2
:105A50002020FEF7D7FD00212020FEF7D3FD17E020
:105A60001248844209D101218807FEF7ABFD0021CD
:105A70004FF08040FEF7A6FD0AE00D48844207D1B2
:105A800001214005FEF79EFD00216005FEF79AFD0D
:105A900010BD0000001001400044004000480040DC
:105AA000004C0040005000400014014000780040CD
:105AB000007C004070B50246002400230025002031
:105AC00040F66A16B14200D100BFC1F3421501F0A1
:105AD0001F03012606FA03F3012D02D196893340F4
