:020000040800F2
:10000000402B0020C5020008D9410008F93B000838
:10001000313E0008E50A0008FD5E0008000000000F
:10002000000000000000000000000000894D0008F2
:10003000D330000800000000294700087152000872
:10004000DF020008DF020008DF020008DF0200080C
:10005000DF020008DF020008DF020008DF020008FC
:10006000DF020008DF020008DF020008DF020008EC
:10007000DF020008DF020008DF020008DF020008DC
:10008000DF020008DF020008DF020008350C00086C
:10009000F90B0008DF020008DF020008DF02000899
:1000A000DF020008DF020008DF020008DF020008AC
:1000B00019530008DF020008DF020008DF02000811
:1000C000DF020008DF020008DF020008DF0200088C
:1000D000DF020008D1580008DF0200088959000833
:1000E000DF020008DF020008DF020008DF0200086C
:1000F000DF020008DF020008DF020008DF0200085C
:10010000DF020008DF020008DF020008DF0200084B
:10011000DF020008DF02000885530008DF02000844
:10012000DF020008DF020008DF020008DF0200082B
:10013000DF020008DF020008DF020008A10D00084E
:10014000650D0008DF020008DF020008DF0200087A
:10015000DF020008DF020008DF020008755B00080C
:10016000DF020008DF020008DF020008DF020008EB
:10017000DF020008DF020008DF02000800000000C4
:10018000DF020008DF02000829550008DF0200082E
:10019000DF020008DF020008DF020008DF020008BB
:1001A0000000000000000000DF02000800F002F87C
:1001B00000F05EF80AA090E8000C82448344AAF1A3
:1001C0000107DA4501D100F053F8AFF2090EBAE8A1
:1001D0000F0013F0010F18BFFB1A43F0010318477B
:1001E00020870000408700000A444FF0000C10F800
:1001F000013B13F0070408BF10F8014B1D1108BFA5
:1002000010F8015B641E05D010F8016B641E01F844
:10021000016BF9D113F0080F1EBF10F8014BAD1C94
:100220000C1B09D16D1E58BF01F801CBFAD505E0B2
:1002300014F8016B01F8016B6D1EF9D59142D6D30C
:10024000704700000023002400250026103A28BF34
:1002500078C1FBD8520728BF30C148BF0B60704738
:100260001FB508F004F900F064F81FBD10B510BD0B
:1002700000F0B2F81146FFF7F3FF07F0BBF900F00A
:10028000D0F803B4FFF7F2FF03BC06F061FF0000F3
:100290000B49D1F800C04A685CF8043B1068184468
:1002A00042F8040B8C4528BFA1F1DC0C8A4228BF20
:1002B000A1F1DC02C1F800C04A6020F000407047A4
:1002C000D41500200948804709480047FEE7FEE7AB
:1002D000FEE7FEE7FEE7FEE7FEE7FEE7FEE7FEE7F6
:1002E00004480549054A064B70470000755200084E
:1002F000AD01000840160020402B0020401B0020CC
:10030000401B0020704700000B4910B5A1F17C0292
:100310000A4CC2E93712372106E000EB104342F8DD
:100320002130074B00FB03400B1EA1F10101F4DC5F
:1003300010BD0120E8E7000074150020E119D66621
:10034000CD0D010010B5203AC0F00B80B1E8185077
:10035000203AA0E81850B1E81850A0E81850BFF4AF
:10036000F5AF5FEA027C24BFB1E81850A0E818504E
:1003700044BF18C918C0BDE810405FEA827C24BFA2
:1003800051F8043B40F8043B08BF7047D20728BF30
:1003900031F8023B48BF11F8012B28BF20F8023B7F
:1003A00048BF00F8012B704770477047704770478F
:1003B00010B500F009F8006810BD10B5044600F053
:1003C00003F8046010BD000000487047DC150020F1
:1003D00000487047DC1500207546FFF7F9FFAE4670
:1003E00005006946534620F00700854618B020B541
:1003F000FFF776FFBDE820404FF000064FF0000702
:100400004FF000084FF0000B21F00701AC46ACE8BC
:10041000C009ACE8C009ACE8C009ACE8C0098D4629
:10042000704710B50446AFF300802046BDE8104089
:10043000FFF727BF10B52DED068B8C4800788C494F
:1004400008708C48007800287ED18B48006807F03F
:100450000CFD41EC190B894890ED101BB0EE410AE0
:10046000F0EE610A51EC100B07F042FA41EC1A0B66
:1004700053EC192B07F0A0FE41EC180B07F044FADF
:100480007F490860084690ED000ABDEEC00A10EEF4
:10049000100A40F23C7190FBF1F07A49086078480C
:1004A00090ED000ABDEEC00A10EE100A40F23C7159
:1004B00090FBF1F201FB120000B27349088008467C
:1004C000B0F90000002850DB6948007801283CD1D1
:1004D0000846B0F90000B0F5307F09DA69480068D5
:1004E00040F2CF114843DF21C1EB8000674908602B
:1004F0006548B0F90000B0F5307F0BDB614800685B
:1005000040F2CF11484340F25D6101EB80005F494A
:10051000086078E05C48B0F9000040F2BF218842F2
:1005200071DB5948B0F9000040F25D6188426ADC35
:100530005448006840F2CF11484340F25D6101EB3E
:100540008000524908605EE08CE04948007800284D
:1005500059D14C48006840F2CF11484340F2BF21C6
:1005600001EB8000494908604DE0414800780128CE
:100570003BD14548B0F900006FF49C61884209DB2B
:100580004048006840F2CF114843DF21C1EB8000B2
:100590003E4908603C48B0F900006FF49C61884215
:1005A0000BDA3848006840F2CF11484340F6250185
:1005B000C1EB80003549086025E03348B0F9000000
:1005C000334988421FDC3048B0F900003149884285
:1005D00019DB2C48006840F2CF11484340F6250152
:1005E000C1EB8000294908600DE02148007850B92E
:1005F0002448006840F2CF11484340F2E141C1EB8A
:100600008000224908601D4890ED101BB0EE410AA1
:10061000F0EE610A51EC100B07F06AF941EC190B8E
:100620001A490968144A1268881807F01EFC41EC40
:100630001A0B53EC192B07F0BFFD41EC180B9FED83
:10064000160B53EC102B07F075FD03D8012014494D
:10065000087002E002201249087012480088401C0D
:1006600010490880BDEC068B10BD0000840A0020F4
:10067000FA0A0020EF090020A00A002068130020D9
:100680009C0A002004010020080100200C01002029
:1006900041FDFFFFA3F9FFFF000000000000000084
:1006A00010010020F80A002010B54FF4A06003F0FC
:1006B000D1FD04F013FE04F03FFE00F015FA00F047
:1006C000C7FA05F065F84FF4E13006F0CDFF05F00C
:1006D000B5F94FF4E13007F069F804F027F810BDE0
:1006E0009848007801287DD19748C08897490880AC
:1006F0000846008896490988401A96490860964835
:100700000088401C00B2944908809248006810F1AB
:100710000A0F10DC0846B0F9001090480268006823
:10072000401C8E4B18608E4820F8121001208D4915
:1007300008608D49086089480068052834DB8A48CC
:100740000068012830D185480068401E844931F98D
:10075000101082480068401F814A32F91000081AC0
:10076000824908607D480068401E114631F910102A
:100770007A480068401F32F91000081A062813DA78
:100780007B48006858280FD000207A4908607A49D1
:100790000860012079490870002073490860012031
:1007A000774908607749086068480088782871DDD3
:1007B0006A4800680F2839DB6A480068012835D18B
:1007C00066480068401E664931F9101063480068A9
:1007D0000F38634A32F91000081A644908605F480C
:1007E000006800E0ADE0401E114631F910105B4892
:1007F00000680F3832F91000081A3C2816DA5748FA
:100800000068401E114631F9101054480068401F1E
:1008100032F91000081A062808DD00205549086042
:1008200001205649087000204E490860564800686B
:10083000401C55490860084600683C280DDA084607
:1008400000680A2809DD4348006810F1640F04DCE1
:1008500001204E4908604E4908603E48006810F18A
:10086000640F0ADC002043490860012043490870F6
:100870004749086000204449086046480068401C19
:100880004449086008460068B0F5967F02DD002004
:10089000414908602D480088782841DA0020354910
:1008A00008600120354908702A48006810F10A0FD5
:1008B0000DDC3A48006850B9012035490860002035
:1008C00037490860012037490860344908603448D6
:1008D0000068401C3249086008460068642802D954
:1008E0000020304908602E480068B0F5967F02D994
:1008F00000202A4908601748006810F10A0F02DC3E
:1009000000202449086023480068401C21490860F1
:1009100008460068B0F5967F02DD00201E49086099
:100920000C48006810F10A0F07DC0A48006810F153
:10093000140F02DB01201C49087004480088044998
:1009400008807047EE0900206C110020F60A002094
:10095000F40A0020580A00205C0A0020600A0020E7
:10096000F4100020640A0020740A0020800A00208D
:1009700048000020480A0020780A0020EB090020E7
:10098000700A00207C0A0020440A0020D80A0020B7
:10099000C80A0020680A00206C0A0020540A0020BF
:1009A0004C0A0020DC0A0020EF09002010B503F0FB
:1009B0006DF8042807D003F069F8062803D003F087
:1009C00065F8052825D113480088B0F5C87F20DADE
:1009D0001148007801281CD103F08AF80F494860BB
:1009E000084640680968401A0C4988600C4800783D
:1009F0000C4991FBF0F009498968884209DA0A48F4
:100A00000088401C00B20849088003F071F80349CF
:100A1000086010BDF20A00202D0A0020190B0020EA
:100A20003C0A002010EB0900DC090020294800885E
:100A30001E2819DC2848008828490988081A012836
:100A400005DD274800880A38254908800CE022483F
:100A5000008822490988081AB0F1FF3F04DA2048CB
:100A600000880A301E4908801A4800881E2830DD98
:100A70001948408819490988081A01281CDD1648B8
:100A8000408816490988081A032805DA144840885E
:100A90000A38134948801CE011480088643810491E
:100AA00008800846408864384880084600886428E2
:100AB0000FDA642008800CE007484088074909885D
:100AC000081AB0F1FF3F04DA054840880A300449AB
:100AD000488070473A000020320A00203A0A00207D
:100AE0002E0A002000BFFEE700B589B001210820D2
:100AF00003F0EEFE0121480603F0FAFE0922002170
:100B00003B4802F08BFF09220121394802F086FFA1
:100B10000320079002208DF8200007A9344802F036
:100B200035FF344800F0BAF904A800F0F2FB0020C9
:100B30008DF816008DF817008DF818008DF8190043
:100B40008DF81A0001208DF81B0000208DF812008E
:100B50008DF8130008208DF8140003208DF815007F
:100B6000ADF8100004A9234800F0D1FA00208DF858
:100B70000A008DF80B0001208DF80C000020ADF864
:100B80000000ADF80200ADF80400ADF80600ADF8C5
:100B9000080001208DF80D00684600F09BF9012245
:100BA0000221144800F0AAFA01221146114800F06F
:100BB000A5FA14208DF8200001208DF821008DF871
:100BC00022008DF8230008A803F008FB13208DF8FD
:100BD000200001208DF8210000208DF82200012046
:100BE0008DF8230008A803F0F9FA09B000BD000051
:100BF000000C02400064004000B585B002210B48A3
:100C000000F0ECF978B10221084800F0F3F8084947
:100C1000064800F0D3F86A460021044800F001FBC2
:100C2000684600F02FFE05B000BD000000640040E3
:100C30000800003210B50121044800F0CFF918B1C6
:100C40000121024800F0D6F810BD00000064004009
:100C500000B589B00121022003F03AFE0121880687
:100C600003F046FE09220C213C4802F0D7FE09227F
:100C70000D213A4802F0D2FE4FF440500790022076
:100C80008DF8200007A9354802F080FE344800F0B6
:100C900005F904A800F03DFB00208DF816008DF842
:100CA00017008DF818008DF819008DF81A00012032
:100CB0008DF81B0000208DF812008DF8130008201D
:100CC0008DF8140003208DF81500ADF8100004A96C
:100CD000234800F01CFA0E208DF80A0000208DF841
:100CE0000B0001208DF80C000020ADF80000ADF8DD
:100CF0000200ADF80400ADF80600ADF808000120D0
:100D00008DF80D00684600F0E5F801220221144834
:100D100000F0F4F901221146114800F0EFF94020EB
:100D20008DF8200001208DF821008DF822008DF82B
:100D3000230008A803F052FA3F208DF8200001207C
:100D40008DF8210000208DF8220001208DF823006D
:100D500008A803F043FA09B000BD000000040240F7
:100D60000068004000B585B002210B4800F036F95C
:100D700078B10221084800F03DF80849064800F023
:100D80001DF86A460021044800F04BFA684600F05E
:100D900069FE05B000BD0000006800400800003298
:100DA00010B50121044800F019F918B101210248D9
:100DB00000F020F810BD00000068004000220C4B3D
:100DC000994202D10023836111E0C1F3130201F0C3
:100DD00000730BB1C2600AE001F080630BB10261E5
:100DE00005E001F000630BB1826000E042607047F3
:100DF0007000F030B1F5007F3AD00FDC202928D008
:100E000006DC01291CD004291DD0082940D11DE091
:100E1000402921D0B1F5807F3AD126E0B1F5004FCD
:100E200031D006DCB1F5806F25D0B1F5006F2FD140
:100E300024E0B1F5803F12D0B1F5003F28D111E098
:100E4000154A826025E00822C26022E01022C260BA
:100E50001FE0082202611CE01022026119E0082252
:100E6000426016E01022426013E00422426010E06B
:100E7000042242600DE0042242600AE00022826106
:100E80000422426005E0002282610422426000E008
:100E900000BF00BF704700000101010010B504460B
:100EA0000B48844209D10121480603F031FD00219D
:100EB0004FF0007003F02CFD08E00121880603F0DC
:100EC00027FD00214FF0806003F022FD10BD0000DF
:100ED0000064004010B50021837A012202FA03F178
:100EE0003D4A126842F001023B4B1A603A4A1C32FA
:100EF00012688A43384B1C331A60027BCAB9364ADF
:100F00000C3212688A43344B0C331A604288C3880F
:100F100042EA0343304A4032847A42F8343002884D
:100F2000838842EA03432C4A4032847A02EBC402AB
:100F30005360027B012A19D1274A0C3212680A43F6
:100F4000254B0C331A604288038842EA0343224A45
:100F50004032847A42F83430C288838842EA0343BC
:100F60001D4A4032847A02EBC4025360C27A3AB915
:100F7000194A121D12688A43174B1B1D1A6006E09E
:100F8000154A121D12680A43134B1B1D1A60028971
:100F900032B9114A143212688A430F4B14331A6063
:100FA0000289012A06D10C4A143212680A430A4BFC
:100FB00014331A60427B012A06D1074A1C32126898
:100FC0000A43054B1C331A60034A126822F00102DF
:100FD000014B1A6010BD00000066004070B5044669
:100FE0000D46002660692840002871D0B5F5807F45
:100FF0005CD010DC082D35D006DC012D20D0022D70
:1010000024D0042D72D127E0102D31D0202D35D0E1
:10101000402D6BD138E0B5F5004F60D009DCB5F557
:10102000007F49D0B5F5806F4CD0B5F5006F5DD12C
:101030004FE0B5F5803F2DD0B5F5003F56D12FE0FC
:10104000A0682D4901F06EFE064651E0E0680321DC
:1010500001F068FE06464BE0E068082101F062FE00
:10106000064645E0E068102101F05CFE06463FE0E0
:101070002069032101F056FE064639E02069082167
:1010800001F050FE064633E02069102101F04AFECF
:1010900006462DE06068082101F044FE064627E080
:1010A0006068102101F03EFE064621E0A0690121A2
:1010B00001F038FE06461BE0A069022101F032FE75
:1010C000064615E0A069042101F02CFE06460FE05B
:1010D0000FE0A069702101F025FE064608E0606877
:1010E000042101F01FFE064602E0FFE7002600BFD4
:1010F00000E00026304670BD010101001AB14369CD
:101100000B43436102E043698B434361704730B551
:10111000024600200023146824F0020414601468BE
:1011200044F00104146000E05B1C546804F0010406
:101130001CB94FF6FF74A342F6D1546804F00104C1
:101140000CB900206CE08C79012C04D1146844F0B7
:101150008004146003E0146824F080041460CC79E7
:10116000012C04D1146844F04004146003E01468B6
:1011700024F0400414600C7A012C04D1146844F06B
:101180002004146003E0146824F0200414604C7AF6
:10119000012C04D1146844F01004146003E01468B6
:1011A00024F0100414608C7A012C04D1146844F0EB
:1011B0000804146003E0146824F008041460CC7A76
:1011C000012C04D1146844F00404146003E0146892
:1011D00024F0040414608C78A407CD7844EA0564F4
:1011E0000D7944EA05444D7944EA05540D886D1E95
:1011F0002C43D461146824F001041460002300E03F
:101200005B1C546804F001041CB14FF6FF74A34248
:10121000F6D1546804F001040CB1002000E0012074
:1012200030BD10B500F5D87303EB01131B6803F054
:1012300004031372137A53B900F5D87303EB011347
:101240001B6840F2FF7404EA5353136009E000F591
:10125000D87303EB01131B686FF0604404EAD303F7
:10126000536000F5D87303EB01131B6803F002030E
:10127000537200F5D87303EB01135B6803F00F039F
:10128000937200F5D87303EB01135B681B0AD374E8
:1012900000F5D87303EB01139B68D37200F5D87384
:1012A00003EB01139B681C0A147300F5D87303EB5E
:1012B00001139B681C0C547300F5D87303EB0113E6
:1012C0009B681B0E937300F5D87303EB0113DB6867
:1012D000D37300F5D87303EB0113DB681C0A147495
:1012E00000F5D87303EB0113DB681C0C547400F594
:1012F000D87303EB0113DB681B0E937421B9C36829
:1013000043F02003C36003E0036943F0200303615B
:1013100010BD00218171C171017241728172C1726F
:101320008170C1700321017102214171012101808D
:10133000704710B502460020936803F08063B3F154
:10134000806F00D110E0936803F00063B3F1006F89
:1013500001D1012008E0936803F08053B3F1805F6E
:1013600001D1022000E00420042874D002F5C073EB
:1013700003EB00131B6803F0010402F5C07303EBD9
:1013800000131C600B7A7BB94B7A0C8843EA4453F8
:1013900002F5C07404EB00142468234302F5C07402
:1013A00004EB0014236010E00B7A4C6843EAC4039A
:1013B0004C7A234302F5C07404EB001424682343E1
:1013C00002F5C07404EB001423608B7A03F00F0362
:1013D0008B7202F5C07303EB00135B6823F00F04FC
:1013E00002F5C07303EB00135C6002F5C07303EBFE
:1013F00000135B688C7A234302F5C07404EB00147D
:1014000063608B7B1C064B7B44EA03440B7B44EA02
:101410000323CC7A234302F5C07404EB0014A360C9
:101420008B7C1C064B7C44EA03440B7C44EA03237C
:10143000CC7B234302F5C07404EB0014E36002F597
:10144000C07303EB00131B6843F0010402F5C07383
:1014500003EB00131C6010BD70B52DED0C8B82B03A
:10146000EB4890ED022BB0EE420AF0EE620A90EDEE
:10147000002BB0EE421AF0EE621A53EC102B51EC36
:10148000110B06F099FE41EC1D0BB0EE4D0AF0EE8B
:101490006D0A05F041FDB0EE40CAF0EE60CA9FED66
:1014A000DD0B53EC102B51EC1C0B06F045FD41EC11
:1014B0001B0BB0EE4B0AF0EE6B0A05F081FBB0EEB1
:1014C00040AAF0EE60AA9FEDD50B53EC102B51EC27
:1014D0001A0B06F065FE41EC190B9FEDD20B53EC95
:1014E000102B06F029FD41EC180B9FEDCE0B53ECB1
:1014F000102B06F03BFAC64AC2E908019FEDCB0B60
:10150000104680ED0A0B9FEDC90B80ED0C0B9FED93
:10151000C90BCA4880ED080BC94880ED080B9FED48
:10152000C90BC64880ED0A0BC54880ED0A0B9FED3C
:10153000C70BC24880ED0C0BC14880ED0C0B02F0CC
:10154000A5FA072802D002F0A1FAD0B99FEDC10B8D
:10155000AF4880ED080B9FEDBB0B80ED0A0B9FEDB4
:10156000BF0B80ED0C0B9FEDB10B80ED000BBD4967
:10157000886B06F07AFCA64AC2E902011046816F28
:10158000884702F083FA042840D1B748006868B958
:10159000B648006806F0FAFE41EC180B9FED9D0B73
:1015A00053EC102B06F0C8FC994A03C2AE48006801
:1015B00001280DD1AD48006806F0E8FE41EC180B9B
:1015C0009FED940B53EC102B06F0B6FC904A03C22F
:1015D000A449886B06F049FC8D4AC2E90201104615
:1015E000816F8847A249886B06F03FFC944AC2E9A4
:1015F00002011046816F88479E49886B06F035FCD2
:101600008E4AC2E902011046816F884702F03EFA15
:10161000012807D002F03AFA062803D002F036FA81
:10162000082828D1914890ED000AB1EE400A10EE4A
:10163000100A06F0ABFE764A03C28A49886B06F0B0
:1016400014FC734AC2E902011046816F8847884939
:10165000886B06F00AFC7A4AC2E902011046816FE3
:1016600088478449886B06F000FC744AC2E902018D
:101670001046816F884702F009FA052823D17B487C
:10168000006806F083FE624A03C27649886B06F062
:10169000ECFB5F4AC2E902011046816F884774493A
:1016A000886B06F0E2FB664AC2E902011046816FD0
:1016B00088477049886B06F0D8FB604AC2E902018E
:1016C0001046816F884702F0E1F9072802D002F046
:1016D000DDF9E8BB4E4890ED021BB0EE410AF0EE9A
:1016E000610A9FED5A1B53EC112B51EC100B06F0C5
:1016F000E7FB18D8464890ED021BB0EE410AF0EE29
:10170000610A9FED5D1B53EC112B51EC100B06F0A1
:1017100011FD08D8002003460246014600905848B3
:1017200003F0D8FC70E03A4890ED1A1BB0EE410A85
:10173000F0EE610A51EC100B06F068FB04B20020D9
:1017400003460246214600904D4803F0C3FC5BE08F
:10175000FFE702F09BF904282BD1384890ED1A1BC3
:10176000B0EE410AF0EE610A51EC100B06F04EFBB0
:1017700004B2334890ED1A1BB0EE410AF0EE610A54
:1017800051EC100B06F042FB05B2214890ED1A1BFC
:10179000B0EE410AF0EE610A51EC100B06F036FB98
:1017A00006B22B46002231463548009403F092FCE5
:1017B0002AE0224890ED1A1BB0EE410AF0EE610AD1
:1017C00051EC100B06F022FB04B21D4890ED1A1BE1
:1017D000B0EE410AF0EE610A51EC100B06F016FB78
:1017E00005B20B4890ED1A1BB0EE410AF0EE610A0B
:1017F00051EC100B06F00AFB06B22B4600223146D4
:101800001F48009403F066FC02B0BDEC0C8B70BD69
:10181000F80100209A9999999999B9BF00000000A0
:101820000000F03F000000000000594000000000F0
:10183000000000000000000000004E40C003002037
:1018400028030020000000000000E03F000000002E
:1018500000002440000000000000444000000000A0
:10186000000014400812002024010020A8090020D4
:10187000B81200201013002000000000000024C057
:101880000064004010B504466C480068401C6B4979
:1018900008602068702863D00EDC40285DD006DC2C
:1018A000302857D0312856D0322873D154E05028F0
:1018B00054D06028F9D152E0A0F20120072869D263
:1018C000DFE800F00415263784B84F0001205C499A
:1018D00008705A480068322804D82146594802F056
:1018E000CBF803E02146574802F02AFBA3E0012091
:1018F0005349087051480068322804D8214652489C
:1019000002F0BAF803E021464F4802F019FB92E0DA
:1019100001204B49087049480068322804D8214604
:101920004A4802F0A9F803E02146484802F008FBC3
:1019300081E001204249087040480068322804D8FC
:101940002146434802F098F803E02146404802F05F
:10195000F7FA70E06FE06EE06DE06CE06BE06AE07B
:1019600069E036480068322826D22146394802F01C
:1019700083F8384840693849B1F90010401AB0F589
:10198000805F08DD3448008800F5005000B232491D
:1019900008801AE04EE02F4840692F49B1F9001045
:1019A000401A10F5805F10DA2B480088A0F500502F
:1019B00000B22949088008E02748B0F9000025490D
:1019C00048612146234802F061FB34E01B4800686F
:1019D000322825D22146214802F04EF81F4840699E
:1019E0001F49B1F90010401AB0F5805F07DD1C48AF
:1019F000008800F5005000B21949088019E0174826
:101A000040691749B1F90010401A10F5805F10DAEB
:101A100013480088A0F5005000B21149088008E082
:101A20000F48B0F900000D49486121460B4802F00B
:101A30002DFB00E000BF00BF10BD0000E80A002041
:101A4000EE0900200812002060120020B8120020C9
:101A50001013002068130020EE0A0020C01300209D
:101A6000EC0A002010B504462B480068401C2A49A7
:101A700008602068B0F5807F46D0A0F2062078B1DB
:101A8000012845D108460068322804D82146234859
:101A900001F0F2FF03E02146204802F0CBF938E0E4
:101AA0001D480068322825D221461D4801F0E4FF78
:101AB0001B4840691B49B1F90010401AB0F5805F1E
:101AC00007DD1848008800F5005000B2154908806D
:101AD00019E0134840691349B1F90010401A10F594
:101AE000805F10DA0F480088A0F5005000B20D4961
:101AF000088008E00B48B0F9000009494861214618
:101B0000074802F097F904E0204604F0E7F900E006
:101B100000BF00BF10BD0000E80A002070140020C4
:101B200018140020F00A002010B52DED048B044697
:101B3000A078E17840EA012000B2CC490880207901
:101B4000617940EA012000B2C8494880A0798880C4
:101B5000E079C7490880207A4880607AC5490880C2
:101B6000A07A4880C4480078C44908602078522888
:101B70007ED160784D28FBD1A078412878D0C0482C
:101B800090ED000AF7EE000A30EE200A80ED000A20
:101B9000B648B0F9000000EE100AB8EEC00AB94825
:101BA00080ED000AB148B0F9020000EE100AB8EE6C
:101BB000C00AB54880ED000A0120AF490870002036
:101BC000B2498887B248007A032802D10120B1497E
:101BD000087001F08DFFB049486008464068096808
:101BE000401AAD498860AD480078401CAB49087088
:101BF00008460078012819D1A94890ED101BB0EED5
:101C0000410AF0EE610A51EC100B05F07DFEA5498A
:101C10000860A54890ED101BB0EE410AF0EE610A95
:101C200051EC100B05F070FEA04908609B4800784D
:101C30001E2802DD1E209949087001F027FF0728A1
:101C40000ED001F023FF58B101F020FF062807D085
:101C500001F01CFF052803D001F018FF01281CD15A
:101C60008F4890ED101BB0EE410AF0EE610A00E0E3
:101C700093E051EC100B05F047FE8D4908608A484F
:101C800090ED101BB0EE410AF0EE610A51EC100B22
:101C900005F03AFE874908607BE07449B1F900001D
:101CA00006F0E3F841EC190B9FED830B53EC102B7E
:101CB00005F018FF41EC180B05F026FE7C49086082
:101CC0007248B0F93C0023281BDA084690ED000A60
:101CD0006E48B0F91410808A401C00B26B4A9082A2
:101CE000104600EB810080ED000A1046B0F91400A8
:101CF000052802DB0020114688820020634988877E
:101D000010E0002008E09FED6E0A604901EB8001C1
:101D100081ED000A411CC8B20528F4DB00205B49B4
:101D2000888288875148808881B266480278007826
:101D3000401C644B1870644820F812101846007854
:101D40000A2802DB0020194608705F4805F03CFABB
:101D50005E4908804549B1F9020006F086F841EC79
:101D6000190B9FED550B53EC102B05F0BBFE41EC0E
:101D7000180B05F0C9FD4F4908604D4890ED000A69
:101D8000534880ED000A084690ED000A514880ED66
:101D9000000A01F0ADFE40490860207852282DD19C
:101DA00060784D282AD1A078412827D1E0784128B1
:101DB00024D12079412821D19FED410A314880ED7D
:101DC000000A9FED3F0A304880ED000A2F48808FBF
:101DD000401C00B22D4988870846B0F93C002328F2
:101DE00001DB232088872948B0F93C00232805DC43
:101DF000394890ED000A2E4880ED000A2348B0F9DA
:101E00003C0023281ADB002024490870324890ED5A
:101E1000000A274880ED000A234890ED101BB0EE21
:101E2000410AF0EE610A51EC100B05F06DFD2149FD
:101E300008600020174908700F4908701448007A9C
:101E4000032802D101202549087001F01FFE042853
:101E500008D10F48007A022804D100200D490870EB
:101E60001E490870BDEC048B10BD00001800002056
:101E70001E00002022000020EA090020700000203F
:101E8000800000207400002078000020DC0E00207C
:101E9000E01400202D0A0020330B00206D000020EC
:101EA00068130020F0000020C0130020F400002080
:101EB000340000202C0000200000000000005940E9
:101EC000000000003C000020C80E00203A00002066
:101ED0003000002028000020B4000020FD09002070
:101EE00010B52DED048B01F0D1FD012807D001F0D4
:101EF000CDFD042803D001F0C9FD08287DD1884814
:101F0000007801282ED18748008801282AD18648E8
:101F1000007810B1012824D111E09FED840A844893
:101F200080ED000A83480068401C824908608248AE
:101F300000688249086000207A49088011E09FED1E
:101F4000800A7B4880ED000A7B480068401C7A4983
:101F50000860784800687B49086000207149088063
:101F600000BF00BF6E4800780128C7D170480068E4
:101F700006F00CFA41EC190B734890ED101BB0EE13
:101F8000410AF0EE610A53EC102B51EC190B06F0EC
:101F900013F941EC180B05F039FF041E01DB204654
:101FA00000E0604205281DDA5F48007810B1012882
:101FB0000CD105E09FED5D0A5D4880ED000A05E06B
:101FC0009FED5F0A5A4880ED000A00BF00BF5648E7
:101FD0000078401C5449087008460078022801DB4C
:101FE0000020087059480068401C5849086058484B
:101FF0000078002801D1574800E08DE090ED000AFC
:10200000554880ED000A08460068401C08600846F4
:1020100000685249884202DD012051490860504859
:10202000006890BB4248006806F0B0F941EC180B1C
:10203000454890ED101BB0EE410AF0EE610A53ECFA
:10204000102B51EC180B06F075F805D29FED450AE0
:10205000404880ED000A18E03548006806F096F91F
:1020600041EC180B384890ED101BB0EE410AF0EE31
:10207000610A53EC102B51EC180B05F021FF04D230
:102080009FED390A334880ED000A35480068012881
:1020900032D12748006806F079F941EC180B2A483C
:1020A00090ED101BB0EE410AF0EE610A53EC102BDC
:1020B00051EC180B06F03EF805D29FED2A0A254890
:1020C00080ED000A18E01A48006806F05FF941EC5C
:1020D000180B1D4890ED101BB0EE410AF0EE610A9E
:1020E00053EC102B51EC180B05F0EAFE04D29FEDD7
:1020F0001E0A184880ED000A174890ED000A15489E
:10210000D0ED000A20EE200AB5EEC00AF1EE10FA7A
:1021100002D201200E490870BDEC048B10BD0000F6
:10212000EE090020AE0A00201101002000A08C451D
:102130009409002040010020480100204C010020AB
:1021400000A08CC5440100200812002028010020B6
:10215000FE0000209C09002098090020F0490200A0
:1021600024010020000048C40000484410B52DEDB3
:10217000088B01F08BFC05287CD1FC480068012805
:10218000FAD1FB480068012804D19FEDFA0AFA4809
:1021900080ED000AF648006800286CD1F7480088F6
:1021A000012818D1F648007810B1012812D108E0B2
:1021B0009FEDF40AF04880ED000A0020EF49088006
:1021C00008E09FEDEC0AEC4880ED000A0020EB49A6
:1021D000088000BF00BFE848006806F0D7F841EC6F
:1021E0001A0BE94890ED101BB0EE410AF0EE610ABF
:1021F00053EC102B51EC1A0B05F0DEFF41EC190BE0
:10220000B0EE490AF0EE690A04F086FEB0EE408AAC
:10221000F0EE608A51EC180B05F0F8FDDB49086020
:10222000D548006806F0B2F841EC1A0BD64890ED9C
:10223000101BB0EE410AF0EE610A53EC102B51EC8A
:102240001A0B05F0B9FF41EC190BB0EE490AF0EE9C
:10225000690A04F061FEB0EE408AF0EE608A9FEDFC
:10226000CC0B53EC102B51EC180B05F029FE03D2CC
:10227000012402E081E03FE00024BF48006806F04E
:1022800085F841EC190BC04890ED101BB0EE410AE7
:10229000F0EE610A53EC102B51EC190B05F08CFF9A
:1022A00041EC180B9FEDBC0B53EC102B05F042FFDB
:1022B00001D2012000E000200440ECB1B0480078D9
:1022C00010B101280CD105E09FEDAE0AAA4880EDBF
:1022D000000A05E09FEDA70AA74880ED000A00BFAD
:1022E00000BFA7480078401CA54908700846007840
:1022F000022801DB00200870A9480078E8BBA94843
:1023000090ED000AA84880ED000A9948006801286D
:1023100004D19FEDA60AA34880ED000A9448006806
:1023200060BB9548006806F031F841EC180B964800
:1023300090ED101BB0EE410AF0EE610A53EC102B49
:1023400051EC180B05F0BCFD05D29FED980A95489D
:1023500080ED000A1BE08848006806F017F841ECA1
:10236000180B894890ED101BB0EE410AF0EE610A9F
:1023700053EC102B51EC180B01E018E007E005F0CE
:10238000D9FE04D29FED8A0A864880ED000A86486D
:1023900090ED000A8348D0ED000A20EE200AB5EE49
:1023A000C00AF1EE10FA02D201207D49087001F056
:1023B0006DFB05287DD16D4800680028FAD17D4865
:1023C000006801286DD10024641C002C65DB0A2CF8
:1023D00063DC6948006805F0D9FF41EC1A0B6A48D4
:1023E00090ED101BB0EE410AF0EE610A53EC102B99
:1023F00051EC1A0B05F0E0FE41EC190BB0EE490A66
:10240000F0EE690A04F088FDB0EE408AF0EE608AD2
:102410009FED690B53EC102B51EC180B05F050FDA0
:1024200008D2554890ED000A80ED000A0120644969
:10243000086032E05048006805F0A8FF41EC1B0B33
:10244000514890ED101BB0EE410AF0EE610A53ECDA
:10245000102B51EC1B0B05F0AFFE41EC1A0B9FED5E
:10246000590B53EC102B05F067FD41EC190B464856
:1024700090ED101BB0EE410AF0EE610A53EC102B08
:1024800051EC190B05F072FA41EC180B05F03CFA0F
:102490003949086001204A49086000204549086020
:1024A00000BF44480068022838D104F0ADFE474818
:1024B00000E0B5E0B0F9000000EE100AB8EEC00A86
:1024C0002D4880ED000A2E48007810B1012821D156
:1024D0000FE03E49B1F90000002801DB014600E0B1
:1024E000414200EE101AB8EEC00A234981ED000AFD
:1024F00010E03649B1F90000002801DB014600E098
:102500004142494200EE101AB8EEC00A1A4981ED64
:10251000000A00BF00BF0020264908602C48007850
:1025200001287DD12648006801287AD11348008807
:10253000012864D104F068FE1148007810B1012828
:102540005CD147E02149B1F90000002801DB0146D8
:1025500000E0414200EE101AB8EEC00A064981EDD3
:10256000000A00200549088048E00000700A0020A9
:102570007C0A002000401CC694090020AE0A0020FE
:102580001101002000401C4608120020E40A00202F
:10259000000000000000144000000000000014C013
:1025A000FE0000209C09002098090020000048C47B
:1025B00000004844DC0A00200000000000007940D0
:1025C000CC0A00207B14AE47E17A743FD20A002087
:1025D000EE090020FD49B1F90000002801DB0146A9
:1025E00000E04142494200EE101AB8EEC00AF84934
:1025F00081ED000A0020F749088000BF00BFF648BF
:102600000088782877DBF5480068012873D1F44802
:10261000006841F2883188423ED2F248006801E009
:10262000FEE16AE1522803D0EE4800684C2815D13B
:10263000ED480068012811D1EC48007810B101285C
:1026400008D103E00220EA49086003E00120E849DC
:10265000086000BF00BF0020E1490860E54800684D
:10266000522803D0E34800684C2815D1DE480068A2
:10267000012811D1DD48007810B1012808D103E00C
:102680000120DB49086003E00220D949086000BF4F
:1026900000BF0020D2490860D148006841F288316B
:1026A000884201D9012000E00020CD490968B1F538
:1026B0007A5F01D2012100E000210840D8B1C94869
:1026C0000068522802D10220C9490860C548006844
:1026D0004C2802D10120C6490860C648006852282B
:1026E00002D10120C2490860C24800684C2802D1CA
:1026F0000220BF490860B848008878285FDABE48E1
:10270000006864283BD8B7480068522803D0B54811
:1027100000684C2815D1B4480068012811D1B3488D
:10272000007810B1012808D103E00220B049086008
:1027300003E00120AE49086000BF00BF0020A849A7
:102740000860AC480068522803D0AA4800684C28AA
:1027500015D1A5480068012811D1A448007810B10E
:10276000012808D103E00120A149086003E002200C
:102770009F49086000BF00BF0020994908609E483B
:10278000006864281BD997480068522802D10220AB
:1027900097490860934800684C2802D10120944969
:1027A000086094480068522802D1012090490860CE
:1027B000904800684C2802D102208D490860844866
:1027C000006805F0E3FD41EC1A0B8C4890ED101BFE
:1027D000B0EE410AF0EE610A53EC102B51EC1A0BEB
:1027E00005F0EAFC41EC190BB0EE490AF0EE690A7B
:1027F00004F092FBB0EE408AF0EE608A1FED9C0B75
:1028000053EC102B51EC180B05F05AFB75D27248A3
:102810000088782842DB7248006841F2883188429B
:102820003CD27748006858B904F0EEFC6748B0F92C
:10283000000000EE100AB8EEC00A654880ED000AFC
:102840006F480068012829D104F0DEFC6748007851
:1028500010B1012821D10FE05C49B1F90000002836
:1028600001DB014600E0414200EE101AB8EEC00A5A
:10287000574981ED000A10E05449B1F900000028E1
:1028800001DB014600E04142494200EE101AB8EE79
:10289000C00A4F4981ED000A00BF00BF4E480088C2
:1028A00078283DDA5748006801280BD104F0ACFCC9
:1028B0004648B0F9000000EE100AB8EEC00A4448DD
:1028C00080ED000A4F480068B8B904F09DFC474805
:1028D000007810B1012822D110E03C49B1F9000084
:1028E000002801DB014600E0414200EE101AB8EE7C
:1028F000C00A374981ED000A11E011E03349B1F90E
:102900000000002801DB014600E04142494200EEA0
:10291000101AB8EEC00A2E4981ED000A00BF00BFB0
:102920003948007800287BD1384890ED000A3848B3
:1029300080ED000A2648006805F028FD41EC180BE0
:102940002E4890ED101BB0EE410AF0EE610A53ECF8
:10295000102B51EC180B05F0B3FA73D21C48006829
:1029600005F014FD41EC1A0B244890ED101BB0EE5D
:10297000410AF0EE610A53EC102B51EC1A0B05F0F2
:102980001BFC41EC190BB0EE490AF0EE690A04F0A9
:10299000C3FAB0EE408AF0EE608A9FED1E0B53EC56
:1029A000102B51EC180B05F0C5FB44D20A480088E7
:1029B00078280ADB0A48006841F28831884204D846
:1029C0009FED160A114880ED000A2AE0D20A002085
:1029D00094090020AE0A0020F60A00206C0A0020AC
:1029E000480A002040000020CC0A002011010020ED
:1029F000E00A0020440000204C0A002008120020B9
:102A0000D80A0020DC0A0020FE0000209C090020DB
:102A1000980900200000000000407F4000803BC477
:102A200057E1AD480088782866DA9FEDAC0AAC48DB
:102A300080ED000A60E09FEDAB0AA94880ED000A36
:102A40005AE0FFE7A848006805F0A0FC41EC180B2D
:102A5000A64890ED101BB0EE410AF0EE610A53EC6F
:102A6000102B51EC180B05F065FB45D29E48006811
:102A700005F08CFC41EC1A0B9C4890ED101BB0EE5D
:102A8000410AF0EE610A53EC102B51EC1A0B05F0E1
:102A900093FB41EC190BB0EE490AF0EE690A04F021
:102AA0003BFAB0EE408AF0EE608A1FED260B53EC45
:102AB000102B51EC180B05F03DFB18D2864800880E
:102AC00078280ADB8A48006841F28831884204D8B5
:102AD0009FED880A824880ED000A7F4800887828A8
:102AE0000ADA9FED850A7E4880ED000A04E09FED3A
:102AF000830A7B4880ED000A794890ED000A8048FF
:102B0000D0ED000A30EE600A10EE101A084605F00B
:102B10003DFC41EC190BB0EE490AF0EE690A04F0F5
:102B2000FBF9B0EE408AF0EE608A9FED760B53EC35
:102B3000102B51EC180B05F0FDFA73D2704890ED94
:102B4000000A6748D0ED000A20EE200AB5EEC00A60
:102B5000F1EE10FA66DD6A4890ED000A6B4880EDF0
:102B6000000A5F4890ED000A694880ED000A644859
:102B7000006805F00BFC41EC1A0BB0EE4A0AF0EECF
:102B80006A0A04F0C9F9B0EE408AF0EE608A54484F
:102B9000006805F0FBFB41EC1A0BB0EE4A0AF0EEC0
:102BA0006A0A04F0B9F9B0EE409AF0EE609A53EC7C
:102BB000182B51EC190B05F0BDFA06D2012055492E
:102BC00008705548816988472CE04D48006805F039
:102BD000DDFB41EC1A0BB0EE4A0AF0EE6A0A04F093
:102BE0009BF9B0EE408AF0EE608A3D48006805F03F
:102BF000CDFB41EC1A0BB0EE4A0AF0EE6A0A04F083
:102C00008BF9B0EE409AF0EE609A53EC182B51EC31
:102C1000190B05F055F905D20120404908703E48CE
:102C2000816988473B48007801281FD13A480169EB
:102C300088473748D0ED000A344890ED001A30EE4E
:102C4000C11AD0ED000A41EE000A2548C0ED000A85
:102C5000314801698847F7EE000AB4EE600AF1EEE8
:102C600010FA26D100202B49087022E02B4800786A
:102C700001281ED12848016988472548D0ED000A5F
:102C8000224890ED001A30EEC11AD0ED000A41EE54
:102C9000000A1348C0ED000A1F4801698847F7EE93
:102CA000000AB4EE600AF1EE10FA02D100201B49CE
:102CB0000870134890ED000A0948D0ED000A20EE94
:102CC000200AB5EEC00AF1EE10FA02D20120144932
:102CD0000870BDEC088B10BDF60A002000002FC460
:102CE0009C090020000016C494090020081200204E
:102CF000480A002000803B4400002F440000164496
:102D0000980900200000000000C06240A0090020D7
:102D1000A4090020FF00002060090020000100201D
:102D2000FE0000200246002002EA01030BB1012050
:102D300000E000207047000010B51C480068801CAF
:102D40001A49086003F0DCF803F0B6F903F0BAFAA8
:102D500003F08AFC00F0FAFB00F02EFA00F04EFFC0
:102D600000F0FEF9FDF722FE02F00CFA02F0F2F894
:102D7000FFF7B6F8FFF7FAF900F0BEFEFEF76CFBBE
:102D800001F018FD00F0B4FE0949486008464068AB
:102D90000968401A064988600846806805498842E3
:102DA00002DD00200449087010BD0000E009002089
:102DB000260B002020A10700EC09002010B5002000
:102DC000244908602448C16F88472448C16F884758
:102DD0002348C16F88472348C16F88472248C16F85
:102DE00088472248C16F88472148C16F88472148DA
:102DF000C16F88472048C16F88472048C16F884706
:102E00001F484FF4C871C26990471D4881698847BF
:102E10001C484FF4FA61C26990471B484FF4FA61AD
:102E2000C269904717488169884717488169884770
:102E30009FED160A164880ED000A9FED140A15480A
:102E400080ED000A144890ED000A124880ED010A56
:102E500010BD0000E0090020F801002090020020D1
:102E600028030020C0030020F004002020060020DA
:102E7000B806002050070020E80700208008002046
:102E800060090020180900203C0900200000000013
:102E9000A8090020E8100020F000002021B10268FD
:102EA00042F00102026003E0026822F001020260C7
:102EB00070470000016821F00101016000210160FC
:102EC00041608160C1600161212141614A498842BC
:102ED00004D13D21484A103A91608CE046491831AE
:102EE000884205D14FF47461434A103A916082E000
:102EF00041493031884205D14FF474113E4A103AAD
:102F0000916078E03C494831884205D14FF07461C6
:102F1000394A103A91606EE037496031884204D1F5
:102F20003649354A103AD16065E0334978318842F4
:102F300004D13349304A103AD1605CE02E499031D7
:102F4000884204D12F492C4A103AD16053E02A49D3
:102F5000A831884205D14FF03D51274A103AD1603F
:102F600049E02949884204D13D21274A083A1160A5
:102F700041E025491831884205D14FF47461224A55
:102F8000083A116037E020493031884205D14FF4CA
:102F900074111D4A083A11602DE01B4948318842DE
:102FA00005D14FF07461184A083A116023E01649C0
:102FB0006031884204D11149134A121F11601AE08E
:102FC00011497831884204D10D490F4A121F11600E
:102FD00011E00D499031884204D10A490A4A121F72
:102FE000116008E00849A831884204D14FF03D51F2
:102FF000054A121F11607047106002403D0000201A
:10300000400F002000003D201064024021B1026802
:1030100042F48022026003E0026822F4802202600F
:10302000704722B1036843F40023036003E00368A0
:1030300023F400230360016170470146486880B2B1
:103040007047014600200A6802F400220AB10120FC
:1030500000E000207047000010B500220268134B0A
:103060001A40CC680B6823434C6923438C69234383
:10307000CC6923430C6A23434C6A23438C6A234361
:103080004C6B23438C6B23431A430260426922F04A
:103090000702D1E90B3423431A4342610B694360B1
:1030A0004B6883608B68C36010BD00003F801CF0DC
:1030B0000021016041608160C16001614161816105
:1030C000C161016241628162C162016341638163E6
:1030D0007047704770B50446D4E9000140EA01200A
:1030E000218940EA0140217B40EA0160206120699A
:1030F000C0F3C7507F3860612069C0F31600A0613B
:10310000002527E05DB9B0EE000AA16A6069884732
:10311000F7EE000A20EE200A84ED080A19E0691E85
:103120004FF480020A41A0691040C5F1170108411F
:10313000E0616269501BB0EE000AA16A8847D4EDD5
:10314000080A94ED071AB8EEC11A41EE000AC4ED60
:10315000080A6D1C182DD5DB94ED080A70BD00001F
:1031600010B50F48007801280CD10E490988484253
:1031700004F07BFE0C4A03C20A49088804F08CFE66
:103180000A4A03C20648007848B99FED090B064871
:1031900080ED000B9FED060B044880ED000B10BD89
:1031A000FD0900202E0A002028030020C003002073
:1031B000000000000000000010B52DED0C8BC5488C
:1031C00090ED000AFBEE0F0AB4EEE00AF1EE10FA01
:1031D00004D8BBEE0F0A80ED000A0BE0BD4890ED6D
:1031E000000AB5EEC00AF1EE10FA03DB9FEDBA0A51
:1031F00080ED000A00F04AFC052805D1B7480078A8
:10320000012801D1B649086000F040FC052805D12D
:10321000B248007810B90220B149086000F036FCCD
:1032200004287CD1AF48006805F0B0F841EC1B0BD6
:10323000B0EE4B0AF0EE6B0A03F06EFEB0EE409A71
:10324000F0EE609AA748006805F0A0F841EC1A0B70
:1032500053EC192B04F046FC41EC180B04F054FB22
:10326000A14908609F48006805F090F89F4A03C292
:103270009F4890ED100B9D4880ED020B90ED022BC6
:10328000B0EE420AF0EE620A90ED002BB0EE421A68
:10329000F0EE621A53EC102B51EC110B04F08CFF82
:1032A00041EC1D0BB0EE4D0AF0EE6D0A03F034FE5A
:1032B000B0EE40CAF0EE60CA9FED8E0B53EC102BBF
:1032C00051EC1C0B04F038FE41EC1B0BB0EE4B0A2A
:1032D000F0EE6B0A03F074FCB0EE40AAF0EE60AAC8
:1032E0009FED860B53EC102B51EC1A0B04F058FF9A
:1032F00041EC190B9FED830B53EC102B04F01CFEDB
:1033000041EC180B9FED810B53EC102B04F02EFBBE
:10331000764AC2E908019FED7F0B104600E01AE0F3
:1033200080ED0A0B9FED7D0B80ED0C0B9FED7D0B6F
:103330007E4880ED080B9FED770B80ED0A0B9FED2B
:10334000750B80ED0C0B1046816F8847674890ED38
:103350001A0B80ED1A0B00F099FB78B100F096FB88
:1033600001280BD000F092FB062807D000F08EFB5E
:10337000082803D05A48006802286CD19FED6C0BD6
:103380005A4880ED080B9FED6C0B80ED0A0B9FED0A
:103390006C0B80ED0C0B9FED5B0B644880ED080B14
:1033A0009FED5C0B80ED0A0B9FED5A0B80ED0C0B33
:1033B00000F06CFB18B100F069FB072822D19FEDEB
:1033C000550B4A4880ED000B5F480169884710EEB5
:1033D000104A204604F0DAFF41EC180B444890ED07
:1033E000101BB0EE410AF0EE610A53EC102B51ECC9
:1033F000180B04F0A1FD3D4AC2E902011046816F9D
:10340000884728E0334890ED000AB1EE400A10EEFC
:10341000101A084604F0BAFF344A03C24A48016948
:10342000884710EE104A204604F0B0FF41EC180B1C
:103430002F4890ED101BB0EE410AF0EE610A53ECFC
:10344000102B51EC180B04F077FD284AC2E9020159
:103450001046816F8847254890ED1A0B334880ED60
:10346000000B2349886B04F000FD304AC2E90201D9
:103470001046816F88472D4890ED1A1BB0EE410A27
:10348000F0EE610A03F048FDB0EE409AF0EE609A6B
:10349000264890ED1A1BB0EE410AF0EE610A53EC9B
:1034A000192B51EC100B04F01DFB41EC180B1F48BD
:1034B00090ED1A1BB0EE410AF0EE610A53EC102BAE
:1034C00051EC180B04F052FA184AC2E91A01BDEC8B
:1034D0000C8B10BDE810002000000000EA0900205D
:1034E000D00900202C000020C8090020F004002092
:1034F000C01300209A9999999999B9BF00000000CA
:103500000000F03F00000000000034400000000018
:1035100000804140000000000000000000000000AA
:1035200000001C4000000000000044402006002075
:1035300000000000000054407B14AE47E17A843F55
:1035400000000000000000401809002010B52DED1B
:103550000C8B00F09BFA042803D0DD48006801289A
:103560007CD1DC4890ED000ADB48D0ED000A30EE5B
:10357000600ADA4880ED000AD5480068D84908603A
:103580000020D3490860D448006804F0FFFE41ECF5
:103590001B0BB0EE4B0AF0EE6B0A03F0BDFCB0EE75
:1035A000409AF0EE609ACC48006804F0EFFE41ECDF
:1035B0001A0B53EC192B04F095FA41EC180B04F09C
:1035C000A3F9C8490860C44890ED000AB1EE400A6A
:1035D00010EE100A04F0DAFEC34A03C2C34890EDAD
:1035E000000AB1EE400A10EE100A04F0CFFEBE4A07
:1035F000C2E90201104690ED022BB0EE420AF0EE55
:10360000620A90ED002BB0EE421AF0EE621A53EC13
:10361000102B51EC110B04F0CFFD41EC1D0BB0EE63
:103620004D0AF0EE6D0A03F077FCB0EE40CAF0EE02
:1036300060CA9FEDAF0B53EC102B51EC1C0B04F048
:103640007BFC41EC1B0BB0EE4B0AF0EE6B0A03F077
:10365000B7FAB0EE40AAF0EE60AA00E073E09FED8A
:10366000A60B53EC102B51EC1A0B04F099FD41EC16
:10367000190B9FEDA30B53EC102B04F05DFC41ECF8
:10368000180B9FEDA10B53EC102B04F06FF9964A29
:10369000C2E90801104690ED022BB0EE420AF0EEAE
:1036A000620A90ED002BB0EE421AF0EE621A53EC73
:1036B000102B51EC110B04F07FFD41EC1A0BB0EE16
:1036C0004A0AF0EE6A0A03F027FCB0EE408AF0EEF8
:1036D000608A9FED8F0B53EC102B51EC180B04F00C
:1036E0002BFC41EC1B0BB0EE4B0AF0EE6B0A03F027
:1036F00067FAB0EE409AF0EE609A9FED870B53ECBC
:10370000102B51EC190B04F017FC774AC2E90A019F
:103710009FED830B104680ED0C0B9FED830B8448CF
:1037200080ED080B9FED7C0B80ED0A0B9FED810B6C
:1037300080ED0C0B1046816F8847674890ED000ABA
:10374000644880ED000A00F0A1F918B100F09EF97C
:10375000072827D19FED790B634880ED080B9FED7B
:10376000790B80ED0A0B9FED790B80ED0C0B9FED33
:10377000790B6F4880ED080B9FED6E0B80ED0A0B07
:103780009FED760B80ED0C0B764890ED100B5648B4
:1037900080ED000B734890ED100B534880ED020B49
:1037A000816F884700F072F9062831D19FED630BD5
:1037B0004D4880ED080B9FED6C0B80ED0A0B9FEDE3
:1037C000630B80ED0C0B9FED4E0B594880ED080B01
:1037D0009FED580B80ED0A0B9FED600B80ED0C0BFD
:1037E000634890ED010A10EE101A084604F0CEFD71
:1037F0003D4A03C25B4890ED100B3B4880ED020B45
:103800005C48007800F0070010B13748816F8847A6
:1038100000F03CF9012807D000F038F9082803D05F
:103820002B480068022832D1294800682C490860DA
:103830000020274908609FED410B2B4880ED080BC5
:103840009FED490B80ED0A0B9FED3A0B80ED0C0BC1
:103850009FED490B364880ED080B9FED360B80ED50
:103860000A0B9FED3E0B80ED0C0B414890ED010AD9
:1038700010EE101A084604F089FD1B4A03C23948AD
:1038800090ED100B184880ED020B816F88471648A9
:1038900090ED1A1BB0EE410AF0EE610A9FED381B65
:1038A00053EC112B51EC100B04F046FB204A03C2E1
:1038B0003549B1F90410484204F0D7FA1C4AC2E96C
:1038C00002011046816F8847BDEC0C8B10BD0000D3
:1038D000D00900203000002034000020B009002072
:1038E000D4090020C0090020B8060020B400002040
:1038F000333333333333D3BF000000000000F03FD5
:1039000000000000000039400000000000004E40B0
:103910009A9999999999B9BFFCA9F1D24D62503FF2
:103920000000000000001C400000000000004840B3
:103930005007002000000000000000000000000010
:10394000000059407B14AE47E17A843F000000003C
:1039500000001440000000000000244000000000AF
:1039600000000040681300207B14AE47E17A743FEA
:10397000E8100020E00900200000000000003E40A8
:10398000000000000000E03FB8000020F0B50A464B
:1039900000210023002400BF3DE0012505FA01F3CA
:1039A000156805EA03049C4234D105684F000326DC
:1039B000BE40B543056015794E00B54006683543F5
:1039C00005601579012D02D01579022D16D1856873
:1039D0004F000326BE40B543856055794E00B54083
:1039E000866835438560456801268E40B54345604D
:1039F000456896798E40B6B235434560C5684F003C
:103A00000326BE40B543C560D5794E00B540C668B3
:103A10003543C560491C1029BFD3F0BDF0B5002364
:103A200000244D07ED0E02FA05F3CE1000F120053B
:103A300055F826504E07F70E0F26BE40B543CF105F
:103A400000F1200646F82750CE1000F1200555F869
:103A5000265045EA0304CE1000F1200545F8264023
:103A6000F0BD018370474FF6FF71016000210171C5
:103A700041718171C17170470A7BCB7A42EA03229E
:103A80004261426902604269826070470148007881
:103A900070470000E909002030B5034613B94FF61E
:103AA000FF7030BD09E013F8014B82EA0400C0B298
:103AB000054D35F8100080EA2222081EA1F101010F
:103AC000F1D11046EDE70000A286000830B50346AC
:103AD00005E013F8010B80EA02040448025D081EA9
:103AE000A1F10101F5D1104630BD0000A18500080B
:103AF0004FF08040406A704710B5FFF7C7FF0128BC
:103B00000BD0FFF7C3FF052807D0FFF7BFFF04283E
:103B100003D0FFF7BBFF082852D12A4800780128BC
:103B200023D1002028490870284908709FED280AF1
:103B3000284880ED000A90ED000AB5EEC00AF1EECB
:103B400010FA06D89FED220A80ED000A02201D49D6
:103B50000870214890ED000A1E48D0ED000A20EEC2
:103B6000200A1E4880ED000A2AE016480078022844
:103B700020D1B7EE000A174880ED000A90ED000A48
:103B8000F7EE000AB4EEE00AF1EE10FA06DBB7EE4B
:103B9000000A80ED000A00200A490870104890EDE4
:103BA000000A0C48D0ED000A20EE200A0B4880EDF8
:103BB000000A05E00A4890ED000A084880ED000A76
:103BC00010BD0000FE000020FF00002000010020CA
:103BD000000000008C09002098090020A80900209E
:103BE0009C09002003490988014409B2014A118057
:103BF00070470000400A002000BFFEE7024800783E
:103C00000249087070470000360A00203C0A002074
:103C100010B50446FFF76CFF7849086004B910BD81
:103C2000207C617C00EB012000B200EE100AB8EEAF
:103C3000C00ABDEEC00A10EE100A00B2704908803A
:103C4000A07CE17C00EB012000B200EE100AB8EE8F
:103C5000C00ABDEEC00A10EE100A00B268494880E2
:103C6000207D617D00EB012000B200EE100AB8EE6D
:103C7000C00ABDEEC00A10EE100A00B2604988808A
:103C8000E07D217E00EB012000B200EE100AB8EECC
:103C9000C00ADFED5C0A80EE201A5B4880ED001A56
:103CA000607EA17E00EB012000B200EE100AB8EEAB
:103CB000C00AB1EE400ADFED530A80EE201A5248E6
:103CC00080ED011AE07E217F00EB012000B200EEC2
:103CD000100AB8EEC00AF2EE040A80EE201A4B4831
:103CE00080ED001A4A4890ED000A4A4880ED000A2B
:103CF000454890ED010A464880ED000A464890ED9F
:103D0000000A464880ED000A404890ED000A42480B
:103D100080ED000A90ED000A4048D0ED000A30EE38
:103D2000600ADFED3F0AB4EEE00AF1EE10FA04DDBE
:103D30003C480068401E3B490860374890ED000A47
:103D40003648D0ED000A30EE600ADFED370AB4EEF7
:103D5000E00AF1EE10FA04D232480068401C314902
:103D60000860304800684FF4B471484300EE100A10
:103D7000B8EEC00A2848D0ED000A30EE200A2248EA
:103D800080ED020A224890ED000A2248D0ED000A98
:103D900030EE600ADFED220AB4EEE00AF1EE10FA2E
:103DA00004DD22480068401E20490860184890ED54
:103DB000000A1848D0ED000A30EE600ADFED1A0A5A
:103DC000B4EEE00AF1EE10FA04D218480068401C84
:103DD00016490860154800684FF4B471484300EE76
:103DE000100AB8EEC00A0A48D0ED000A30EE200AE8
:103DF000054880ED010A00BF11E70000400B0020DC
:103E0000B80000200000C842F40F0020B4000020D9
:103E1000D8000020D4000020D0000020CC000020DA
:103E200000009643C4000020000096C3C800002094
:103E300000BFFEE72DE9F0412DED088B04460D464D
:103E40000026002720686060287BE97A40EA01208C
:103E5000206020686168401AE060E06810F5805FCB
:103E600007DA606B401C6063E06800F50050A061F9
:103E70000DE0E068B0F5805F07DD606B401E6063B9
:103E8000E068A0F50050A06101E0E068A061A269CF
:103E9000207C411C217404F11C0141F82020216880
:103EA000606B01EB4030A060616B4FF4B47201FBBA
:103EB00002F003F0DAFF9FED1C0B53EC102B03F024
:103EC00011FE41EC180B21686269881A03F0CDFFDE
:103ED0009FED170B53EC102B04F02EF89FED160BF3
:103EE00053EC102B03F0FEFD53EC182B03F03EFDBA
:103EF00041EC100B84ED100B207C062801D1002032
:103F00002074002605E004F11C0050F82600074448
:103F1000761C062EF7DB062097FBF0F0A063BDECC5
:103F2000088BBDE8F0810000000000000000424066
:103F30000000000000002440000000000000C0401D
:103F40002DE9F0412DED0A8B04460D460026002791
:103F5000B046002008EE100A20686060287BE97AED
:103F600040EA0120206020686168401AE060E06853
:103F700010F5805F07DA606B401C6063E06800F555
:103F80000050A0610DE0E068B0F5805F07DD606B78
:103F9000401E6063E068A0F50050A06101E0E068A9
:103FA000A061A269207C411C217404F11C0141F82C
:103FB00020202168606B01EB4030A060616B4FF402
:103FC000B47201FB02F003F050FF9FED2A0B53EC9B
:103FD000102B03F087FD41EC190B21686269881AE8
:103FE00003F043FF9FED250B53EC102B03F0A4FFD0
:103FF0009FED240B53EC102B03F074FD53EC192BA5
:1040000003F0B4FC41EC100B84ED100B207C06286F
:1040100001D100202074002605E004F11C0050F8B6
:1040200026000744761C062EF7DBA97B687B41EA55
:1040300000200FFA80F8404603F017FF41EC1A0BFE
:104040009FED0C0B53EC102B03F04CFD41EC190BC6
:1040500003F0DCFEA063297CE87B41EA002000B28B
:1040600008EE100AB8EEC80A84ED140ABDEC0A8BFB
:10407000BDE8F081000000000000334028AFA1BC83
:1040800086F23240000000000000C0402DE9F047F9
:104090002DED088B04460D460026B14600BF00BF3B
:1040A00020686060287BE97A40EA0120206020686F
:1040B0006168401AE060E06810F5805F07DA606BC5
:1040C000401C6063E06800F50050A0610DE0E0680E
:1040D000B0F5805F07DD606B401E6063E068A0F5AF
:1040E0000050A06101E0E068A061A269207C411C51
:1040F000217404F11C0141F820202168606B01EB60
:104100004030A060616B4FF4B47201FB02F003F029
:10411000ACFE41EC180B21686269881A03F0A5FE19
:104120009FED290B53EC102B03F006FF9FED280B9E
:1041300053EC102B03F0D6FC53EC182B03F016FCB9
:1041400041EC100B84ED100B21686269881A03F0B2
:104150008CFE9FED1D0B53EC102B03F0EDFE9FED3D
:104160001C0B53EC102B03F0BDFC41EC100B84ED49
:10417000120B207C062801D100202074002605E0C7
:1041800004F11C0050F826008144761C062EF7DB53
:10419000A97B687B41EA00284FF4B47018FB00F05B
:1041A0003C2190FBF1F0A063297CE87B41EA0020F0
:1041B00007B200EE107AB8EEC00A84ED140ABDEC26
:1041C000088BBDE8F087000000000000008076400A
:1041D000000000000000C0407047000070B50021E2
:1041E00000230F22C4781CB3174C246804F4E06445
:1041F000C4F5E064C4F30721C1F10404E3B20A4149
:1042000044789C40E1B28478144021430C07210E8D
:104210000E4C05786155047804F01F050124AC406C
:1042200005786D11AD0005F1E025C5F8004109E004
:10423000047804F01F050124AC40054D0678761182
:1042400045F8264070BD00000CED00E000E400E001
:1042500080E100E002490143024A1160704700001A
:104260000000FA050CED00E010B52DED028B0446C0
:1042700094ED022BB0EE420AF0EE620A94ED002BB0
:10428000B0EE421AF0EE621A53EC102B51EC110B07
:1042900003F092FFC4E9040194ED222BB0EE420A30
:1042A000F0EE620A94ED042BB0EE421AF0EE621AC0
:1042B00053EC102B51EC110B03F03CFF16D994ED8D
:1042C000221BB0EE410AF0EE610A51EC100B03F034
:1042D0000FFB41EC180B94ED041BB0EE410AF0EE1D
:1042E000610A53EC102B03F025FF7DD294ED042BD3
:1042F000B0EE420AF0EE620A94ED082BB0EE421ADC
:10430000F0EE621A53EC102B51EC110B03F014FE7B
:10431000C4E90E0194ED141BB0EE410AF0EE610AFF
:1043200051EC100B03F0E4FA41EC180B94ED0E1B6A
:10433000B0EE410AF0EE610A53EC102B03F0FAFEE6
:104340000CD894ED141BB0EE410AF0EE610A51EC6A
:10435000100B03F0CDFAC4E90E0116E094ED142B16
:10436000B0EE420AF0EE620A94ED0E2BB0EE421A65
:10437000F0EE621A53EC102B51EC110B03F0DAFE45
:1043800003D894ED140B84ED0E0B94ED042BB0EEDA
:10439000420AF0EE620A94ED0A2BB0EE421AF0EEF9
:1043A000621A53EC102B51EC110B03F0C5FD41ECDC
:1043B000180B94ED101BB0EE410AF0EE610A53ECBD
:1043C000102B03F0D3FAC4E9100194ED161BB0EEE4
:1043D000410AF0EE610A51EC100B03F089FA41EC4E
:1043E000180B94ED101B00E0D5E0B0EE410AF0EEA2
:1043F000610A53EC102B03F09DFE0CD894ED161BB4
:10440000B0EE410AF0EE610A51EC100B03F070FAC5
:10441000C4E9100116E094ED162BB0EE420AF0EE5E
:10442000620A94ED102BB0EE421AF0EE621A53ECD1
:10443000102B51EC110B03F07DFE03D894ED160BFD
:1044400084ED100B94ED241BB0EE410AF0EE610AEE
:104450009FED741B53EC112B51EC100B03F09AFCE5
:104460001ED194ED062BB0EE420AF0EE620A94EDF6
:10447000042BB0EE421AF0EE621A53EC102B51EC02
:10448000110B03F059FD41EC180B9FED680B53EC39
:10449000102B03F015FD03D29FED640B84ED100B80
:1044A00094ED062BB0EE420AF0EE620A94ED042B76
:1044B000B0EE421AF0EE621A53EC102B51EC110BD5
:1044C00003F07AFE41EC180B94ED0C1BB0EE410AA0
:1044D000F0EE610A53EC102B03F02EFDC4E912013B
:1044E00094ED181BB0EE410AF0EE610A51EC100B8E
:1044F00003F0FEF941EC180B94ED121BB0EE410AEB
:10450000F0EE610A53EC102B03F014FE0CD894ED7E
:10451000181BB0EE410AF0EE610A51EC100B03F0EB
:10452000E7F9C4E9120116E094ED182BB0EE420A47
:10453000F0EE620A94ED122BB0EE421AF0EE621A1F
:1045400053EC102B51EC110B03F0F4FD03D894ED58
:10455000180B84ED120B94ED102BB0EE420AF0EE26
:10456000620A94ED0E2BB0EE421AF0EE621A53EC92
:10457000102B51EC110B03F0F9F941EC180B94EDF1
:10458000121BB0EE410AF0EE610A53EC102B03F05F
:10459000EDF9C4E9200194ED200B84ED1A0B94EDA4
:1045A0001C1BB0EE410AF0EE610A51EC100B03F057
:1045B0009FF941EC180B94ED1A1BB0EE410AF0EE96
:1045C000610A53EC102B03F0B5FD0CD894ED1C1BC5
:1045D000B0EE410AF0EE610A51EC100B03F088F9DD
:1045E000C4E91A0116E094ED1C2BB0EE420AF0EE7D
:1045F000620A94ED1A2BB0EE421AF0EE621A53ECF6
:10460000102B51EC110B03F095FD03D894ED1C0B0E
:1046100084ED1A0B94ED040B84ED060BBDEC028BBC
:1046200010BD0000000000000000F03F000000008E
:10463000000000009FED120B80ED000B9FED100BB2
:1046400080ED020B9FED0E0B80ED040B9FED0C0B2C
:1046500080ED060B9FED0A0B80ED0E0B9FED080B16
:1046600080ED100B9FED060B80ED120B9FED040B00
:1046700080ED200B9FED020B80ED1A0B70470000C0
:1046800000000000000000002DE9F0412DED048B3A
:104690000546C5F3C750A0F17F07C5F316080024EF
:1046A00035E07CB938469FED1E0B02F041FCB0EEC0
:1046B000409AF0EE609A51EC190B03F025F908EEE0
:1046C000100A23E0601E4FF4800141FA00F000EA76
:1046D0000800C4F1170140FA01F6381B9FED100BDA
:1046E00002F026FCB0EE409AF0EE609A51EC190B05
:1046F00003F00AF900EE900A00EE106AB8EEC01A54
:10470000B0EE480A01EE200AB0EE408A641C182C74
:10471000C7DBB0EE480ABDEC048BBDE8F0810000B9
:10472000000000000000F03F7047000000B587B0B7
:104730000121080200F0CCF80121042000F0C8F8A3
:104740002020019000208DF808008DF80A0001203B
:104750008DF80B0003208DF8090001A91348FFF71D
:1047600015F98020059000208DF818008DF81A00AA
:1047700001208DF81B0003208DF8190005A90C48B5
:10478000FFF704F94020039000208DF810008DF809
:10479000120001208DF8130003208DF8110003A9E9
:1047A0000348FFF7F3F807B000BD0000000802401F
:1047B00000200240394800683949087039480078BB
:1047C000012808D10846007828B901203649087028
:1047D0000020364908603448007801280CD134495B
:1047E00008800020334908703349486308602E4927
:1047F00008700120314908602948007878B92B48B1
:104800000068401C2949086008460068B0F5FA7F36
:1048100005DD00202749087001202549088020482F
:104820000078204908701D48083000682449087045
:1048300024480078012808D10846007828B90120CA
:10484000214908700020214908601F48007801288C
:104850000CD1174908801749087000201649486391
:10486000086019490870012014490860144800784C
:1048700070B916480068401C144908600846006872
:10488000B0F5FA7F04DD01200A4908700849088064
:104890000B4800780B49087070470000140244422E
:1048A000A90A0020A80A0020B40A0020B80A0020A3
:1048B000AE0A00201101002008120020CC0A0020BE
:1048C000AD0A0020AC0A0020B60A0020BC0A002075
:1048D00029B1064A12680243044B1A6004E0034AF5
:1048E00012688243014B1A60704700003038024062
:1048F00029B1064A12680243044B1A6004E0034AD5
:1049000012688243014B1A60704700004038024031
:1049100029B1064A12680243044B1A6004E0034AB4
:1049200012688243014B1A60704700002038024031
:1049300029B1064A12680243044B1A6004E0034A94
:1049400012688243014B1A607047000044380240ED
:1049500029B1064A12680243044B1A6004E0034A74
:1049600012688243014B1A607047000024380240ED
:10497000F0B5002100220024022500260223324F38
:104980003F6807F00C0121B1042905D0082937D16F
:1049900005E02E4F076036E02D4F076033E02A4FC9
:1049A0003F1F3F68C7F38056274F3F1F3F6807F000
:1049B0003F036EB1264FB7FBF3F7DFF88CC0ACF1C5
:1049C000040CDCF800C0CCF3881C07FB0CF40CE0F2
:1049D0001E4FB7FBF3F7DFF870C0ACF1040CDCF846
:1049E00000C0CCF3881C07FB0CF4174F3F1F3F6837
:1049F000C7F301477F1C7D00B4FBF5F7076002E0B9
:104A0000124F076000BF00BF0F4F3F6807F0F00173
:104A10000909104F7A5C0768D74047600A4F3F6822
:104A200007F4E051890A0B4F7A5C4768D7408760EA
:104A3000054F3F6807F46041490B064F7A5C4768B1
:104A4000D740C760F0BD0000083802400024F400E1
:104A5000001BB700FB0A0020D0E90012914211DAD6
:104A60000168491C016090ED000AF8EEC00A90ED63
:104A7000010AB8EEC00A80EE801A80ED021A90EDAD
:104A8000020A7047B7EE000AFBE77047014691ED56
:104A9000000AF8EEC00A91ED010AB8EEC01A80EEE5
:104AA000810AF7EE000AB4EEE00AF1EE10FA01DB3B
:104AB000012070470020FCE7002101607047016081
:104AC000704741607047000010B52DED088B04461B
:104AD00014B9BDEC088B10BDFFF70AF880490860D7
:104AE0002078617840EA0120C0F30A007D490880FF
:104AF0006078C010A17840EA4110C0F30A007949FB
:104B00004880A0788011E17840EA8100217940EA6C
:104B10008120C0F30A0073498880207940106179B0
:104B200040EAC110C0F30A006E49C88060790011E4
:104B3000800808726079C0F301104872A079E179A9
:104B400040EA012000B267494881207A617A40EA50
:104B5000012001B263488181A07AE17A40EA012014
:104B600001B26048C181217B8174617BC174A07BEB
:104B7000E17B40EA01205B4988820846B0F90200E7
:104B8000A0F5806000EE100AB8EEC00A564880ED2D
:104B9000000AB1F90610A1F5806003F066F941EC56
:104BA0001B0B9FED520B53EC102B03F0C5F941EC9E
:104BB000190B504890ED000A10EE101A084603F049
:104BC000E5FB41EC1A0B53EC192B02F0CFFE41EC44
:104BD000180B02F099FE474908604249B1F90410E8
:104BE000A1F5806003F041F941EC1B0B9FED420BF6
:104BF00053EC102B03F0A0F941EC190B3D4890ED5C
:104C0000010A10EE101A084603F0C0FB41EC1A0B23
:104C100053EC192B02F0AAFE41EC180B02F074FEC3
:104C2000344948602F48407A012802D10220344993
:104C300008702C48407A032802D1012030490870BE
:104C40002848407A022804D100202D4908702D49B7
:104C500008602448407A01283AD12248007A032883
:104C600003D02048007A012802D10120264908708B
:104C70001C48007A022802D10020234908701948F4
:104C8000007A012801D1214908701648007A0228CB
:104C900003D01448007A032802D100201B49087071
:104CA000104890F9080001280DD0022802D00328EE
:104CB0000DD103E000201349086008E04FF0FF30F9
:104CC0001049086003E001200E49086000BF00BFE2
:104CD0000448407A032800D100BF00BFF9E6000075
:104CE000260B0020E0140020A8090020FA7E6ABCF0
:104CF0007493683FE8100020D42B6519E258673F91
:104D0000EC09002088090020FD0900202D0A002060
:104D100001460C4800680B4A5268904201D10120BC
:104D20007047084802680830805C087005480068D1
:104D3000401C044A1060642801DB00201060002041
:104D4000EEE70000951100200E494A6808318854AA
:104D500008394968491C0B4A5160642901DB00216C
:104D6000516008494968074A1268914208D10549CB
:104D70000968491C034A1160642901DB00211160A4
:104D80007047000095110020704700002DE9F041A8
:104D90000746684890ED000ADFED670A30EE200A0A
:104DA000F2EE040A20EE200ABDEEC00A10EE104A10
:104DB000624890ED000ADFED620A30EE200AF2EE62
:104DC000040A20EE200ABDEEC00A10EE105A90ED43
:104DD000010ADFED5B0A30EE200AF2EE040A20EE53
:104DE000200ABDEEC00A10EE106A5648007801286D
:104DF00006DB54480078092802DC5220524908702A
:104E000050480078652806DB4E4800786D2802DCA3
:104E100042204D4908704D204B4948704E20887003
:104E20004C20C8704FF47A7094FBF0F03030087169
:104E30004FF47A7094FBF0F100FB1140642190FB79
:104E4000F1F0303040494871642094FBF0F100FBF0
:104E500011400A2190FBF1F030303B4988710A2063
:104E600094FBF0F100FB114030303749C8714FF42A
:104E70007A7095FBF0F0303008724FF47A7095FB41
:104E8000F0F100FB1150642190FBF1F030302E491D
:104E90004872642095FBF0F100FB11500A2190FB51
:104EA000F1F03030284988720A2095FBF0F100FBC0
:104EB000115030302449C8724FF47A7096FBF0F0EC
:104EC000303008734FF47A7096FBF0F100FB1160FC
:104ED000642190FBF1F030301B494873642096FB4D
:104EE000F0F100FB11600A2190FBF1F0303016491F
:104EF00088730A2096FBF0F100FB116030301249F4
:104F0000C8730EE01048114A1268815C104800F026
:104F1000D5FF0E480068401C0C490860962002F03E
:104F200027F90A480068B842ECDB0020074908600E
:104F3000BDE8F081B400002000003443F40F0020ED
:104F40000000B4426C1100206C0F002058000020BB
:104F50000048004070B5FEF799FD072805D10022F2
:104F60001146114800F0E4F81CE0104890ED1A1BBF
:104F7000B0EE410AF0EE610A51EC100B02F046FF70
:104F800004B20B4890ED1A1BB0EE410AF0EE610A34
:104F900051EC100B02F03AFF05B2224629460248B6
:104FA00000F0C6F870BD000000640040200600203C
:104FB000500700200CB50020019000904148006887
:104FC00040F480303F49086000BF3E48006800F46C
:104FD000003000900198401C0190009818B9019889
:104FE000B0F5A04FF1D13748006800F4003010B19F
:104FF0000120009001E0002000900098012860D17D
:1050000030484030006840F080502E494031086000
:105010002D48006840F440402B490860294808307A
:1050200000682849083108600846006840F40040DC
:1050300008600846006840F4A05008602348091F33
:105040000860081F006840F08070091F086000BFFA
:105050001C48006800F000700028F9D01A48006869
:1050600040F480301849086000BF1748406800F4D9
:1050700080300028F9D01448006840F4003012490C
:10508000086000BF1048406800F400300028F9D0E4
:1050900040F205700E4908600A480830006820F0A8
:1050A00003000849083108600846006840F0020023
:1050B000086000BF03480830006800F00C000828B2
:1050C000F8D10CBD00380240007000400C5440077D
:1050D000003C02402DE9F04186B080460C46154662
:1050E0001E460C9F4FF40070019000208DF80C00BC
:1050F0008DF80D0008208DF80E00200A8DF80F00A5
:105100008DF81040290A8DF811108DF81250310ACF
:105110008DF813108DF81460390A8DF815108DF87C
:10512000167001A94046FCF704F906B0BDE8F0810D
:1051300070B586B006460C46154640F2FF10019049
:1051400000208DF80C008DF80D0008208DF80E0061
:10515000280A8DF80F008DF81050FF218DF81110DE
:105160008DF81210210A8DF813108DF81440FF21CC
:105170008DF815108DF8161001A93046FCF7D9F8F6
:1051800006B070BD10B59FED2D0B2E4880ED080BBD
:105190009FED2A0B80ED0A0B9FED280B80ED0C0B89
:1051A0009FED290B2A4880ED080B9FED240B80ED25
:1051B0000A0B9FED220B80ED0C0B2648007801288E
:1051C00016D12549B1F90010C1EB0111880002F098
:1051D0004CFE1C4A03C2214890ED100B194880ED8B
:1051E000020B816F88479FED1E0B194880ED000B65
:1051F0001A4880690A2804DA9FED1B0B144880EDD9
:10520000000B1648806910F1050F04DA9FED140BAE
:105210000F4880ED000B0F48007820B99FED070B79
:105220000B4880ED000B0D49886B02F01EFE084A0A
:10523000C2E902011046816F884710BD00000000DE
:1052400000000000E80700200000000000004E40C1
:10525000800800202D0A0020DC09002070140020A6
:105260000000000000406F400000000000407FC0D0
:105270007047000010B51548006840F470001349ED
:1052800008601348006840F00100114908600020E0
:105290000F49083108600E4800680E4908400C4963
:1052A00008600D48091D0860081F006820F4802070
:1052B000091F0860002006490C310860FFF77AFEDC
:1052C0004FF0006001498039086010BD88ED00E0B2
:1052D00000380240FFFFF6FE103000240EB5012119
:1052E0000846FFF705FB4FF0FF3001905320ADF863
:1052F00000000020ADF80800ADF8020069464FF04C
:10530000804000F0A3F80121880700F067F8012130
:10531000880700F075F80EBD10B50121880700F070
:105320007BF838B10121880700F067F80121880770
:1053300000F060F810BD00000EB501211020FFF74D
:10534000D7FA5320ADF800000020ADF80200ADF808
:1053500008004FF4FA6001906946094800F076F8B9
:1053600036208DF8080000208DF809008DF80A001D
:1053700001208DF80B0002A8FEF730FF0EBD0000E3
:105380000010004010B50121094800F045F870B147
:105390000121074800F031F80121054800F02AF802
:1053A000FDF7CAFC03480068401C0249086010BDB4
:1053B000001000400000002010B50121064800F058
:1053C0001FF801221146044800F037F80121024875
:1053D00000F010F810BD00000010004021B102885C
:1053E00042F08002028004E002884FF67F731A4088
:1053F00002807047CA4302827047CA4302827047E4
:1054000021B1028842F00102028004E002884FF6D6
:10541000FE731A400280704730B502460020002318
:105420000024158A05EA0103958905EA010413B1F0
:105430000CB1012000E0002030BD1AB183890B437C
:10544000838102E083898B43838170470022028835
:10545000184B98420ED0184B98420BD0B0F1804FA9
:1054600008D0164B984205D0154B984202D0154BE8
:10547000984204D14FF68F731A404B881A43124B4F
:10548000984207D0114B984204D04FF6FF431A4080
:105490000B891A4302804B68C3620B880385054B56
:1054A000984202D0044B984201D18B7A03860123A3
:1054B0008382704700000140000401400004004066
:1054C00000080040000C00400010004000140040A4
:1054D0002DE9F04106460F464FF00108002002EE8C
:1054E000100A0025002419E008FA04F03040204199
:1054F00002EE100A2046B0EE000A02F08FF8F0EE3D
:10550000400A00EE105AB8EEC00AB8EEC21A01EE18
:10551000200ABDEEC00A10EE105A641CBC42E3DB48
:105520002846BDE8F081000070B540F224418B4868
:1055300000F00AFC00286FD0884800888748001DCA
:1055400000888748FDF77DFD18BB00218448FDF7E2
:10555000A5FC8348FDF771FDC0F164008149086036
:1055600064207F495839C8650846806D40F40020A2
:10557000886501217A48FDF791FC002404E07A490E
:10558000085DFFF7E1FB641C764800688442F6D3AF
:1055900023E000217248FDF781FC7148FDF74DFDC5
:1055A000C0F164006F49086064206D495839C865CE
:1055B0000846806D20F40020886501216848FDF7C9
:1055C0006DFC002405E068496431085DFFF7BCFB11
:1055D000641C644800688442F5D3B5E063484068C1
:1055E00062490968401A03D400206149088002E03A
:1055F00064205F4908805D480068602807DB5B48DD
:105600000068632803DC64205A49088002E0002017
:1056100058490880002505E09EE057494819FFF7E2
:1056200077FB6D1C052DF8DB534800795349087052
:10563000FF2204215048FEF749FA514908704F48AB
:105640000078097888427FD14B4840784A49897868
:1056500040EA01204B49088010214A480088FFF7A2
:1056600037FF48490880414840684149098801445A
:105670003E4800683F4A12881044401F091A4148BA
:1056800000880930814256DB002505E03A49491D72
:105690004819FFF73DFB6D1C3A480088001D854204
:1056A000F4DB38480088C01D3349095C3548008860
:1056B0000830314A105C41EA002033490880314803
:1056C0000088C11D4FF6FF722B48FEF7E5F92F4900
:1056D00008802D4800880988884235D126484079BD
:1056E000012806D124488079022802D1224801F0FD
:1056F00061FF21484079062806D11F488079022899
:1057000002D11D4801F05CFE1B484079072806D1F4
:1057100019488079022802D1174801F0FBFE16488B
:105720004079022810D11448807902280CD11248FF
:1057300001F060FE08E00D4800680E490988084441
:10574000401F0A49086006E00848406807490968A0
:1057500088427FF443AF00BF70BD00000078004076
:1057600058600240EC00002000100020951100203D
:10577000E8000020EA000020C8100020E00000201F
:10578000E1000020E6000020E2000020E40000200C
:1057900000B58FB001210220FFF79AF8012188059A
:1057A000FFF796F801211020FFF7C2F807221146F3
:1057B0004248FEF733F90DA8FEF755F980200D9009
:1057C00002208DF8380000208DF8390001208DF876
:1057D0003B000DA93948FEF7D9F8394800F03CFAEA
:1057E00009A800F06FFB374809900020ADF82800A9
:1057F000ADF82A004FF48060ADF82C000420ADF81D
:105800002E000020ADF8300009A92D4800F0ECFA78
:10581000012240212A4800F015FA012240F22441D9
:10582000274800F0BBFA0121254800F0FFF926487F
:10583000FDF740FB6846FDF73BFC4FF00060009031
:105840001F48001D019021480290002003901E2057
:105850000490002005904FF480600690002007908F
:1058600008904FF48070099000020A9000200B907D
:105870000C900D900E9069461348FDF7EDFB002249
:1058800012491E311048FDF7CCFB01210E48FDF7EF
:10589000BDFB01210C48FDF701FB25208DF83800E8
:1058A00001208DF8390002208DF83A0001208DF892
:1058B0003B000EA8FEF792FC0FB000BD00040240B2
:1058C00000100140A0860100886402404D0B0020BA
:1058D00010B540F22441284800F036FA002849D09B
:1058E00025480088244880882448FDF7AAFB00BB8F
:1058F00000212248FDF7D2FA2048FDF79EFBC0F1B7
:105900001E001F4908601E201C49091D0860081F51
:10591000006840F40020091F086001211748FDF7C6
:10592000BDFA17480068122824D11648FFF7CCF8B2
:1059300020E000211148FDF7B1FA1048FDF77DFB8A
:10594000C0F11E000E4908601E200C49091D0860A8
:10595000081F006820F40020091F08600121074883
:10596000FDF79CFA06480068122803D105481E304E
:10597000FFF7AAF810BD0000001001408864024043
:105980000C0000204D0B002010B540F224412748A8
:1059900000F0DAF9002848D0244800882348001D88
:1059A00000882348FDF74DFBF8B900212048FDF79A
:1059B00075FA1F48FDF741FBC0F10C001D49086056
:1059C0000C201B492839C8620846806A40F4002030
:1059D000886201211648FDF761FA16480068082818
:1059E00023D11548FCF7A0F81FE000211048FDF76F
:1059F00055FA0F48FDF721FBC0F10C000D49086076
:105A00000C200B492839C8620846806A20F400201F
:105A1000886201210648FDF741FA06480068082817
:105A200003D105480C30FCF77FF810BD004800405A
:105A30002860024014000020B00E002000B58FB096
:105A400001214020FEF744FF01212020FEF770FFD6
:105A500001218805FEF73CFF082209214148FDF796
:105A6000DDFF082207213F48FDF7D8FF4FF4007003
:105A70000D9002208DF8380000208DF83A000320A8
:105A80008DF8390000208DF83B000DA93548FDF751
:105A90007DFF4FF4E13009900020ADF82800ADF80B
:105AA0002A00ADF82C000420ADF82E000020ADF83F
:105AB000300009A92C4800F097F9012240212A481A
:105AC00000F0C0F80121284800F0B0F8012240F2AF
:105AD0002441254800F062F92448FDF7EBF96846B7
